{
  "contractName": "MarksWill",
  "abi": [
    {
      "inputs": [
        {
          "name": "ddl",
          "type": "uint256"
        },
        {
          "name": "password_p1",
          "type": "uint256"
        },
        {
          "name": "password_p2",
          "type": "uint256"
        }
      ],
      "payable": true,
      "stateMutability": "payable",
      "type": "constructor"
    },
    {
      "constant": false,
      "inputs": [
        {
          "name": "password_p1",
          "type": "uint256"
        },
        {
          "name": "password_p2",
          "type": "uint256"
        }
      ],
      "name": "withDraw",
      "outputs": [
        {
          "name": "",
          "type": "bool"
        }
      ],
      "payable": false,
      "stateMutability": "nonpayable",
      "type": "function"
    },
    {
      "constant": false,
      "inputs": [
        {
          "name": "password",
          "type": "uint256"
        }
      ],
      "name": "cancelWithdraw",
      "outputs": [
        {
          "name": "",
          "type": "bool"
        }
      ],
      "payable": false,
      "stateMutability": "nonpayable",
      "type": "function"
    }
  ],
  "bytecode": "0x606060405260405160608061021783398101604052808051906020019091908051906020019091908051906020019091905050826000819055508160018190555080600281905550346003819055505050506101b7806100606000396000f30060606040526004361061004c576000357c0100000000000000000000000000000000000000000000000000000000900463ffffffff1680639f01f7ba14610051578063d8b6e79a1461008c575b600080fd5b341561005c57600080fd5b61007260048080359060200190919050506100d0565b604051808215151515815260200191505060405180910390f35b341561009757600080fd5b6100b6600480803590602001909190803590602001909190505061010a565b604051808215151515815260200191505060405180910390f35b60008054421180156100e3575060025482145b15610101573373ffffffffffffffffffffffffffffffffffffffff16ff5b60009050919050565b60008033905060015484148015610122575060025483145b801561012f575060005442105b1561017f578073ffffffffffffffffffffffffffffffffffffffff166108fc6003549081150290604051600060405180830381858888f19350505050151561017657600080fd5b60019150610184565b600091505b50929150505600a165627a7a72305820db2f9a50df8b490fcf1ee41ed406d1cdc842f012eb042e33c61a70c7179297f40029",
  "source": "/**************************************\nProject p1 for CS4700 Blockchain\nversion 2.0\nauthor list:\tTao Lu \tLandry Mathews\tMiles Vesper\n***************************************/\n\n\n\n\npragma solidity ^0.4.14;\n\ncontract MarksWill {\n    uint256 private deadline; //NOTE: this time is UNIX time, not human-readable. Mr.Mark, please use some online simple tools to generate the UNIX deadline timestamp.\n    uint256 private pwdp1;\n    uint256 private pwdp2;    //first and second part of password\n    uint256 private amount;\n\n\n    function MarksWill (uint256 ddl, uint256 password_p1, uint256 password_p2) public payable {\n        deadline = ddl;\n        pwdp1    = password_p1;\n        pwdp2    = password_p2;\n        amount   = msg.value;\n    }\n\n\n    function withDraw (uint256 password_p1, uint256 password_p2) public returns (bool) {\n        address withdrawer = msg.sender;\n        if(password_p1 == pwdp1 && password_p2 == pwdp2 && now < deadline) {\n            withdrawer.transfer(amount);\n            return true;\n        }\n        else return false;\n    }\n\n    function cancelWithdraw(uint password) public returns (bool) {\n        if (now > deadline && password == pwdp2) {\n            selfdestruct(msg.sender);\n            return true;\n        }\n        else return false;\n    }\n}\n",
  "sourcePath": "/home/taurus/blockchain/will/contracts/MarksWill.sol",
  "compiler": {
    "name": "solc",
    "version": "0.4.21+commit.dfe3193c.Emscripten.clang"
  },
  "schemaVersion": "2.0.0",
  "updatedAt": "2018-09-26T19:25:57.344Z"
}