{
  "contractName": "MarksWill",
  "abi": [
    {
      "inputs": [
        {
          "name": "ddl",
          "type": "uint256"
        },
        {
          "name": "password_p1",
          "type": "uint256"
        },
        {
          "name": "password_p2",
          "type": "uint256"
        }
      ],
      "payable": true,
      "stateMutability": "payable",
      "type": "constructor",
      "signature": "constructor"
    },
    {
      "constant": false,
      "inputs": [
        {
          "name": "password_p1",
          "type": "uint256"
        },
        {
          "name": "password_p2",
          "type": "uint256"
        }
      ],
      "name": "withDraw",
      "outputs": [
        {
          "name": "",
          "type": "bool"
        }
      ],
      "payable": false,
      "stateMutability": "nonpayable",
      "type": "function",
      "signature": "0xd8b6e79a"
    },
    {
      "constant": false,
      "inputs": [
        {
          "name": "password",
          "type": "uint256"
        }
      ],
      "name": "cancelWithdraw",
      "outputs": [
        {
          "name": "",
          "type": "bool"
        }
      ],
      "payable": false,
      "stateMutability": "nonpayable",
      "type": "function",
      "signature": "0x9f01f7ba"
    }
  ],
  "bytecode": "0x60806040526040516060806102668339810180604052606081101561002357600080fd5b81019080805190602001909291908051906020019092919080519060200190929190505050826000819055508160018190555080600281905550346003819055505050506101f0806100766000396000f3fe60806040526004361061004c576000357c0100000000000000000000000000000000000000000000000000000000900463ffffffff1680639f01f7ba14610051578063d8b6e79a146100a4575b600080fd5b34801561005d57600080fd5b5061008a6004803603602081101561007457600080fd5b8101908080359060200190929190505050610101565b604051808215151515815260200191505060405180910390f35b3480156100b057600080fd5b506100e7600480360360408110156100c757600080fd5b81019080803590602001909291908035906020019092919050505061013b565b604051808215151515815260200191505060405180910390f35b6000805442118015610114575060025482145b15610132573373ffffffffffffffffffffffffffffffffffffffff16ff5b60009050919050565b60008033905060015484148015610153575060025483145b8015610160575060005442105b156101b8578073ffffffffffffffffffffffffffffffffffffffff166108fc6003549081150290604051600060405180830381858888f193505050501580156101ad573d6000803e3d6000fd5b5060019150506101be565b60009150505b9291505056fea165627a7a723058204935ea502b77495748fa153225a86d8b56c508f64611beb9f77cd569d3dd93460029",
  "source": "/**************************************\nProject p1 for CS4700 Blockchain\nversion 2.1\nNOTE: version 2.1+ works only with the latest truffle env v5+\nauthor list:\tTao Lu \tLandry Mathews\tMiles Vesper\n***************************************/\n\n\n\n\npragma solidity >=0.4.14;\n\ncontract MarksWill {\n    uint256 private deadline; //NOTE: this time is UNIX time, not human-readable. Mr.Mark, please use some online simple tools to generate the UNIX deadline timestamp.\n    uint256 private pwdp1;\n    uint256 private pwdp2;    //first and second part of password\n    uint256 private amount;\n\n\n    constructor (uint256 ddl, uint256 password_p1, uint256 password_p2) public payable {\n        deadline = ddl;\n        pwdp1    = password_p1;\n        pwdp2    = password_p2;\n        amount   = msg.value;\n    }\n\n\n    function withDraw (uint256 password_p1, uint256 password_p2) public returns (bool) {\n        address payable withdrawer = msg.sender;\n        if(password_p1 == pwdp1 && password_p2 == pwdp2 && now < deadline) {\n            withdrawer.transfer(amount);\n            return true;\n        }\n        else return false;\n    }\n\n    function cancelWithdraw(uint password) public returns (bool) {\n        if (now > deadline && password == pwdp2) {\n            selfdestruct(msg.sender);\n            return true;\n        }\n        else return false;\n    }\n}\n",
  "sourcePath": "/home/taurus/blockchain/gitLab/MarksWill_UnitTest/contracts/MarksWill.sol",
  "compiler": {
    "name": "solc",
    "version": "0.5.0+commit.1d4f565a.Emscripten.clang"
  },
  "schemaVersion": "3.0.0-beta.2",
  "updatedAt": "2019-03-29T20:33:40.233Z",
  "devdoc": {
    "methods": {}
  },
  "userdoc": {
    "methods": {}
  }
}