{
  "contractName": "Fibonacci",
  "abi": [
    {
      "constant": true,
      "inputs": [
        {
          "name": "index",
          "type": "uint32"
        }
      ],
      "name": "caculate",
      "outputs": [
        {
          "name": "result",
          "type": "uint256"
        }
      ],
      "payable": false,
      "stateMutability": "pure",
      "type": "function"
    }
  ],
  "bytecode": "0x608060405234801561001057600080fd5b506101b8806100206000396000f3fe608060405260043610610041576000357c0100000000000000000000000000000000000000000000000000000000900463ffffffff1680634d6ffdfd14610046575b600080fd5b34801561005257600080fd5b506100856004803603602081101561006957600080fd5b81019080803563ffffffff16906020019092919050505061009b565b6040518082815260200191505060405180910390f35b60006100a5610167565b60018160006103e8811015156100b757fe5b60200201818152505060018160016103e8811015156100d257fe5b6020020181815250506000600290505b8363ffffffff168110156101445781600182036103e88110151561010257fe5b602002015182600283036103e88110151561011957fe5b60200201510182826103e88110151561012e57fe5b60200201818152505080806001019150506100e2565b50808363ffffffff166103e88110151561015a57fe5b6020020151915050919050565b617d00604051908101604052806103e89060208202803883398082019150509050509056fea165627a7a723058204b67d08400f1e177cef46c6e0b5f837e9f2c9c5dd596e8daa197a08fe287211b0029",
  "source": "pragma solidity >= 0.4.22 < 0.6.0;\ncontract Fibonacci{\n    function caculate(uint32 index) public pure returns (uint256 result){\n        uint256[1000] memory array;\n        array[0] = 1;\n        array[1] = 1;\n        for (uint i = 2; i<index; i++){\n            array[i] = array[i-2] + array [i-1];\n        }\n        return array[index];\n    }\n}",
  "sourcePath": "/home/taurus/blockchain/gitLab/fibonacci/contracts/fibonacci.sol",
  "compiler": {
    "name": "solc",
    "version": "0.5.0+commit.1d4f565a.Emscripten.clang"
  },
  "schemaVersion": "3.0.0-beta.2",
  "updatedAt": "2019-11-21T17:01:50.584Z",
  "devdoc": {
    "methods": {}
  },
  "userdoc": {
    "methods": {}
  }
}