{
  "contractName": "quickTest",
  "abi": [
    {
      "anonymous": false,
      "inputs": [
        {
          "indexed": true,
          "name": "_from",
          "type": "address"
        },
        {
          "indexed": false,
          "name": "_value",
          "type": "uint256"
        }
      ],
      "name": "Test",
      "type": "event",
      "signature": "0x4ba54330f8090ac87ed0a0b470fd9c8a6bbec84bfe94f4fa7776d1dc27da9f9c"
    },
    {
      "constant": false,
      "inputs": [],
      "name": "eventFire",
      "outputs": [
        {
          "name": "",
          "type": "address"
        }
      ],
      "payable": true,
      "stateMutability": "payable",
      "type": "function",
      "signature": "0x9168aee3"
    }
  ],
  "bytecode": "0x608060405234801561001057600080fd5b5061010e806100206000396000f3fe608060405260043610603f576000357c0100000000000000000000000000000000000000000000000000000000900463ffffffff1680639168aee3146044575b600080fd5b604a608c565b604051808273ffffffffffffffffffffffffffffffffffffffff1673ffffffffffffffffffffffffffffffffffffffff16815260200191505060405180910390f35b60003373ffffffffffffffffffffffffffffffffffffffff167f4ba54330f8090ac87ed0a0b470fd9c8a6bbec84bfe94f4fa7776d1dc27da9f9c346040518082815260200191505060405180910390a23390509056fea165627a7a7230582001edbcb741ab11146819089bd5660db21f14a2e5e9a87b01483eb90e643b58f90029",
  "source": "//This is a quick test\npragma solidity >=0.5.0;\ncontract quickTest {\n    event Test(\n\t\taddress indexed _from,\n\t\tuint _value\n    );\n\n    function eventFire() public payable returns(address) {\n        emit Test(msg.sender, msg.value);\n        return msg.sender;\n    }\n}\n",
  "sourcePath": "/home/taurus/blockchain/gitLab/quickTest/contracts/Test.sol",
  "compiler": {
    "name": "solc",
    "version": "0.5.0+commit.1d4f565a.Emscripten.clang"
  },
  "schemaVersion": "3.0.0-beta.2",
  "updatedAt": "2019-03-29T20:24:15.180Z",
  "devdoc": {
    "methods": {}
  },
  "userdoc": {
    "methods": {}
  }
}