{
  "contractName": "TaskContract",
  "abi": [
    {
      "constant": true,
      "inputs": [
        {
          "name": "",
          "type": "address"
        }
      ],
      "name": "providerList",
      "outputs": [
        {
          "name": "addr",
          "type": "address"
        },
        {
          "name": "providedCount",
          "type": "uint64"
        },
        {
          "name": "requestedCount",
          "type": "uint64"
        },
        {
          "name": "maxTime",
          "type": "uint64"
        },
        {
          "name": "maxTarget",
          "type": "uint16"
        },
        {
          "name": "minPrice",
          "type": "uint256"
        },
        {
          "name": "available",
          "type": "bool"
        }
      ],
      "payable": false,
      "stateMutability": "view",
      "type": "function",
      "signature": "0x0e1e4a3c"
    },
    {
      "constant": true,
      "inputs": [
        {
          "name": "",
          "type": "address"
        }
      ],
      "name": "balanceList",
      "outputs": [
        {
          "name": "",
          "type": "uint256"
        }
      ],
      "payable": false,
      "stateMutability": "view",
      "type": "function",
      "signature": "0x189258de"
    },
    {
      "constant": true,
      "inputs": [
        {
          "name": "",
          "type": "address"
        }
      ],
      "name": "providerID",
      "outputs": [
        {
          "name": "",
          "type": "uint64"
        }
      ],
      "payable": false,
      "stateMutability": "view",
      "type": "function",
      "signature": "0x2fb41e8b"
    },
    {
      "constant": true,
      "inputs": [],
      "name": "providingCount",
      "outputs": [
        {
          "name": "",
          "type": "uint128"
        }
      ],
      "payable": false,
      "stateMutability": "view",
      "type": "function",
      "signature": "0x3a9d2d14"
    },
    {
      "constant": true,
      "inputs": [
        {
          "name": "",
          "type": "address"
        },
        {
          "name": "",
          "type": "uint256"
        }
      ],
      "name": "requestID",
      "outputs": [
        {
          "name": "",
          "type": "uint128"
        }
      ],
      "payable": false,
      "stateMutability": "view",
      "type": "function",
      "signature": "0x4d4a527f"
    },
    {
      "constant": true,
      "inputs": [],
      "name": "requestCount",
      "outputs": [
        {
          "name": "",
          "type": "uint128"
        }
      ],
      "payable": false,
      "stateMutability": "view",
      "type": "function",
      "signature": "0x5badbe4c"
    },
    {
      "constant": true,
      "inputs": [
        {
          "name": "",
          "type": "uint256"
        }
      ],
      "name": "requestPool",
      "outputs": [
        {
          "name": "",
          "type": "uint128"
        }
      ],
      "payable": false,
      "stateMutability": "view",
      "type": "function",
      "signature": "0x6476b1f8"
    },
    {
      "constant": true,
      "inputs": [],
      "name": "providerCount",
      "outputs": [
        {
          "name": "",
          "type": "uint64"
        }
      ],
      "payable": false,
      "stateMutability": "view",
      "type": "function",
      "signature": "0x74c83268"
    },
    {
      "constant": true,
      "inputs": [
        {
          "name": "",
          "type": "uint128"
        }
      ],
      "name": "requestList",
      "outputs": [
        {
          "name": "addr",
          "type": "address"
        },
        {
          "name": "provider",
          "type": "address"
        },
        {
          "name": "reqID",
          "type": "uint128"
        },
        {
          "name": "dataID",
          "type": "uint64"
        },
        {
          "name": "time",
          "type": "uint64"
        },
        {
          "name": "accuracy",
          "type": "uint16"
        },
        {
          "name": "price",
          "type": "uint256"
        },
        {
          "name": "resultID",
          "type": "uint64"
        },
        {
          "name": "numValidationsNeeded",
          "type": "uint64"
        },
        {
          "name": "isValid",
          "type": "bool"
        },
        {
          "name": "status",
          "type": "bytes"
        }
      ],
      "payable": false,
      "stateMutability": "view",
      "type": "function",
      "signature": "0xbe1b902a"
    },
    {
      "constant": true,
      "inputs": [
        {
          "name": "",
          "type": "uint256"
        }
      ],
      "name": "providerPool",
      "outputs": [
        {
          "name": "",
          "type": "address"
        }
      ],
      "payable": false,
      "stateMutability": "view",
      "type": "function",
      "signature": "0xcffde943"
    },
    {
      "constant": true,
      "inputs": [],
      "name": "pendingCount",
      "outputs": [
        {
          "name": "",
          "type": "uint128"
        }
      ],
      "payable": false,
      "stateMutability": "view",
      "type": "function",
      "signature": "0xea70b4af"
    },
    {
      "inputs": [],
      "payable": false,
      "stateMutability": "nonpayable",
      "type": "constructor",
      "signature": "constructor"
    },
    {
      "anonymous": false,
      "inputs": [
        {
          "indexed": false,
          "name": "provider",
          "type": "address"
        },
        {
          "indexed": false,
          "name": "reqID",
          "type": "uint128"
        }
      ],
      "name": "TaskAssigned",
      "type": "event",
      "signature": "0xd27799747ac545ab402d86e974399e4a67c184723543c040feada7d7f9754077"
    },
    {
      "anonymous": false,
      "inputs": [
        {
          "indexed": false,
          "name": "validator",
          "type": "address"
        },
        {
          "indexed": false,
          "name": "reqID",
          "type": "uint128"
        }
      ],
      "name": "ValidationRequested",
      "type": "event",
      "signature": "0x559fcc0c049963664708350b3ea9a9785aad74b15e59ce0a3bc69793916a3571"
    },
    {
      "anonymous": false,
      "inputs": [
        {
          "indexed": false,
          "name": "requestor",
          "type": "address"
        },
        {
          "indexed": false,
          "name": "reqID",
          "type": "uint128"
        }
      ],
      "name": "TaskCompleted",
      "type": "event",
      "signature": "0x2e58929ead14966a76340c697b90ba5df5a9d784cb8689f762942b90f81e4528"
    },
    {
      "constant": false,
      "inputs": [
        {
          "name": "maxTime",
          "type": "uint64"
        },
        {
          "name": "maxTarget",
          "type": "uint16"
        },
        {
          "name": "minPrice",
          "type": "uint64"
        }
      ],
      "name": "startProviding",
      "outputs": [],
      "payable": false,
      "stateMutability": "nonpayable",
      "type": "function",
      "signature": "0x2ddfdbcc"
    },
    {
      "constant": false,
      "inputs": [],
      "name": "stopProviding",
      "outputs": [],
      "payable": false,
      "stateMutability": "nonpayable",
      "type": "function",
      "signature": "0xb2774934"
    },
    {
      "constant": false,
      "inputs": [
        {
          "name": "dataID",
          "type": "uint64"
        },
        {
          "name": "target",
          "type": "uint16"
        },
        {
          "name": "time",
          "type": "uint64"
        }
      ],
      "name": "requestTask",
      "outputs": [
        {
          "name": "",
          "type": "bool"
        }
      ],
      "payable": true,
      "stateMutability": "payable",
      "type": "function",
      "signature": "0xa26ac6de"
    },
    {
      "constant": false,
      "inputs": [],
      "name": "testTask",
      "outputs": [],
      "payable": false,
      "stateMutability": "nonpayable",
      "type": "function",
      "signature": "0x66456317"
    },
    {
      "constant": true,
      "inputs": [
        {
          "name": "addr",
          "type": "address"
        }
      ],
      "name": "getProvider",
      "outputs": [
        {
          "components": [
            {
              "name": "addr",
              "type": "address"
            },
            {
              "name": "providedCount",
              "type": "uint64"
            },
            {
              "name": "requestedCount",
              "type": "uint64"
            },
            {
              "name": "maxTime",
              "type": "uint64"
            },
            {
              "name": "maxTarget",
              "type": "uint16"
            },
            {
              "name": "minPrice",
              "type": "uint256"
            },
            {
              "name": "available",
              "type": "bool"
            }
          ],
          "name": "",
          "type": "tuple"
        }
      ],
      "payable": false,
      "stateMutability": "view",
      "type": "function",
      "signature": "0x55f21eb7"
    },
    {
      "constant": true,
      "inputs": [
        {
          "name": "reqID",
          "type": "uint64"
        }
      ],
      "name": "getRequest",
      "outputs": [
        {
          "components": [
            {
              "name": "addr",
              "type": "address"
            },
            {
              "name": "provider",
              "type": "address"
            },
            {
              "name": "reqID",
              "type": "uint128"
            },
            {
              "name": "dataID",
              "type": "uint64"
            },
            {
              "name": "time",
              "type": "uint64"
            },
            {
              "name": "accuracy",
              "type": "uint16"
            },
            {
              "name": "price",
              "type": "uint256"
            },
            {
              "name": "resultID",
              "type": "uint64"
            },
            {
              "name": "numValidationsNeeded",
              "type": "uint64"
            },
            {
              "name": "validations",
              "type": "bool[]"
            },
            {
              "name": "isValid",
              "type": "bool"
            },
            {
              "name": "status",
              "type": "bytes"
            }
          ],
          "name": "",
          "type": "tuple"
        }
      ],
      "payable": false,
      "stateMutability": "view",
      "type": "function",
      "signature": "0xcbbf67ec"
    },
    {
      "constant": true,
      "inputs": [],
      "name": "getProviderCount",
      "outputs": [
        {
          "name": "",
          "type": "uint128"
        }
      ],
      "payable": false,
      "stateMutability": "view",
      "type": "function",
      "signature": "0x46ce4175"
    },
    {
      "constant": true,
      "inputs": [],
      "name": "getRequestCount",
      "outputs": [
        {
          "name": "",
          "type": "uint128"
        }
      ],
      "payable": false,
      "stateMutability": "view",
      "type": "function",
      "signature": "0x3fad1834"
    },
    {
      "constant": true,
      "inputs": [],
      "name": "getProviderPool",
      "outputs": [
        {
          "name": "",
          "type": "address[]"
        }
      ],
      "payable": false,
      "stateMutability": "view",
      "type": "function",
      "signature": "0x9e723b97"
    },
    {
      "constant": true,
      "inputs": [],
      "name": "getRequestPool",
      "outputs": [
        {
          "name": "",
          "type": "uint128[]"
        }
      ],
      "payable": false,
      "stateMutability": "view",
      "type": "function",
      "signature": "0xe1a9daef"
    },
    {
      "constant": true,
      "inputs": [
        {
          "name": "addr",
          "type": "address"
        }
      ],
      "name": "getBalance",
      "outputs": [
        {
          "name": "",
          "type": "uint256"
        }
      ],
      "payable": false,
      "stateMutability": "view",
      "type": "function",
      "signature": "0xf8b2cb4f"
    },
    {
      "constant": true,
      "inputs": [],
      "name": "listRequests",
      "outputs": [
        {
          "components": [
            {
              "name": "addr",
              "type": "address"
            },
            {
              "name": "provider",
              "type": "address"
            },
            {
              "name": "reqID",
              "type": "uint128"
            },
            {
              "name": "dataID",
              "type": "uint64"
            },
            {
              "name": "time",
              "type": "uint64"
            },
            {
              "name": "accuracy",
              "type": "uint16"
            },
            {
              "name": "price",
              "type": "uint256"
            },
            {
              "name": "resultID",
              "type": "uint64"
            },
            {
              "name": "numValidationsNeeded",
              "type": "uint64"
            },
            {
              "name": "validations",
              "type": "bool[]"
            },
            {
              "name": "isValid",
              "type": "bool"
            },
            {
              "name": "status",
              "type": "bytes"
            }
          ],
          "name": "",
          "type": "tuple[3]"
        }
      ],
      "payable": false,
      "stateMutability": "view",
      "type": "function",
      "signature": "0x53d5b816"
    },
    {
      "constant": true,
      "inputs": [],
      "name": "listProviders",
      "outputs": [
        {
          "components": [
            {
              "name": "addr",
              "type": "address"
            },
            {
              "name": "providedCount",
              "type": "uint64"
            },
            {
              "name": "requestedCount",
              "type": "uint64"
            },
            {
              "name": "maxTime",
              "type": "uint64"
            },
            {
              "name": "maxTarget",
              "type": "uint16"
            },
            {
              "name": "minPrice",
              "type": "uint256"
            },
            {
              "name": "available",
              "type": "bool"
            }
          ],
          "name": "",
          "type": "tuple[5]"
        }
      ],
      "payable": false,
      "stateMutability": "view",
      "type": "function",
      "signature": "0x2bd395a0"
    }
  ],
  "bytecode": "0x608060405234801561001057600080fd5b5060008060006101000a8154816fffffffffffffffffffffffffffffffff02191690836fffffffffffffffffffffffffffffffff1602179055506000600160106101000a81548167ffffffffffffffff021916908367ffffffffffffffff1602179055506000600160006101000a8154816fffffffffffffffffffffffffffffffff02191690836fffffffffffffffffffffffffffffffff16021790555060008060106101000a8154816fffffffffffffffffffffffffffffffff02191690836fffffffffffffffffffffffffffffffff160217905550613a63806100f66000396000f3fe60806040526004361061013e576000357c0100000000000000000000000000000000000000000000000000000000900463ffffffff1680630e1e4a3c14610143578063189258de146101865780632bd395a0146101c35780632ddfdbcc146101ee5780632fb41e8b146102175780633a9d2d14146102545780633fad18341461027f57806346ce4175146102aa5780634d4a527f146102d557806353d5b8161461031257806355f21eb71461033d5780635badbe4c1461037a5780636476b1f8146103a557806366456317146103e257806374c83268146103f95780639e723b9714610424578063a26ac6de1461044f578063b27749341461047f578063be1b902a14610496578063cbbf67ec146104dd578063cffde9431461051a578063e1a9daef14610557578063ea70b4af14610582578063f8b2cb4f146105ad575b600080fd5b34801561014f57600080fd5b5061016a60048036036101659190810190612e55565b6105ea565b60405161017d9796959493929190613653565b60405180910390f35b34801561019257600080fd5b506101ad60048036036101a89190810190612e55565b6106a3565b6040516101ba91906137b7565b60405180910390f35b3480156101cf57600080fd5b506101d86106bb565b6040516101e591906136e4565b60405180910390f35b3480156101fa57600080fd5b5061021560048036036102109190810190612f35565b610787565b005b34801561022357600080fd5b5061023e60048036036102399190810190612e55565b610cae565b60405161024b91906137d2565b60405180910390f35b34801561026057600080fd5b50610269610cd5565b604051610276919061379c565b60405180910390f35b34801561028b57600080fd5b50610294610cf7565b6040516102a1919061379c565b60405180910390f35b3480156102b657600080fd5b506102bf610d1c565b6040516102cc919061379c565b60405180910390f35b3480156102e157600080fd5b506102fc60048036036102f79190810190612e7e565b610d44565b604051610309919061379c565b60405180910390f35b34801561031e57600080fd5b50610327610d98565b6040516103349190613700565b60405180910390f35b34801561034957600080fd5b50610364600480360361035f9190810190612e55565b610dff565b604051610371919061375f565b60405180910390f35b34801561038657600080fd5b5061038f610f8a565b60405161039c919061379c565b60405180910390f35b3480156103b157600080fd5b506103cc60048036036103c79190810190612ee3565b610fab565b6040516103d9919061379c565b60405180910390f35b3480156103ee57600080fd5b506103f7610ff0565b005b34801561040557600080fd5b5061040e61102c565b60405161041b91906137d2565b60405180910390f35b34801561043057600080fd5b50610439611046565b60405161044691906136c2565b60405180910390f35b61046960048036036104649190810190612f35565b6110d4565b6040516104769190613744565b60405180910390f35b34801561048b57600080fd5b5061049461161d565b005b3480156104a257600080fd5b506104bd60048036036104b89190810190612eba565b6117db565b6040516104d49b9a9998979695949392919061354f565b60405180910390f35b3480156104e957600080fd5b5061050460048036036104ff9190810190612f0c565b611994565b604051610511919061377a565b60405180910390f35b34801561052657600080fd5b50610541600480360361053c9190810190612ee3565b611d01565b60405161054e9190613534565b60405180910390f35b34801561056357600080fd5b5061056c611d3f565b6040516105799190613722565b60405180910390f35b34801561058e57600080fd5b50610597611ddb565b6040516105a4919061379c565b60405180910390f35b3480156105b957600080fd5b506105d460048036036105cf9190810190612e55565b611dfd565b6040516105e191906137b7565b60405180910390f35b60026020528060005260406000206000915090508060000160009054906101000a900473ffffffffffffffffffffffffffffffffffffffff16908060000160149054906101000a900467ffffffffffffffff16908060010160009054906101000a900467ffffffffffffffff16908060010160089054906101000a900467ffffffffffffffff16908060010160109054906101000a900461ffff16908060020154908060030160009054906101000a900460ff16905087565b60086020528060005260406000206000915090505481565b6106c361298c565b6106cb61298c565b600080600090505b6006805490508167ffffffffffffffff16101561077e57600060068054905011156107435760068167ffffffffffffffff1681548110151561071157fe5b9060005260206000200160009054906101000a900473ffffffffffffffffffffffffffffffffffffffff169150610748565b600091505b61075182610dff565b838267ffffffffffffffff1660058110151561076957fe5b602002018190525080806001019150506106d3565b50819250505090565b600073ffffffffffffffffffffffffffffffffffffffff16600260003373ffffffffffffffffffffffffffffffffffffffff1673ffffffffffffffffffffffffffffffffffffffff16815260200190815260200160002060000160009054906101000a900473ffffffffffffffffffffffffffffffffffffffff1673ffffffffffffffffffffffffffffffffffffffff161415610b36576108266129bb565b60e0604051908101604052803373ffffffffffffffffffffffffffffffffffffffff168152602001600067ffffffffffffffff168152602001600067ffffffffffffffff1681526020018567ffffffffffffffff1681526020018461ffff1681526020018367ffffffffffffffff16815260200160011515815250905080600260003373ffffffffffffffffffffffffffffffffffffffff1673ffffffffffffffffffffffffffffffffffffffff16815260200190815260200160002060008201518160000160006101000a81548173ffffffffffffffffffffffffffffffffffffffff021916908373ffffffffffffffffffffffffffffffffffffffff16021790555060208201518160000160146101000a81548167ffffffffffffffff021916908367ffffffffffffffff16021790555060408201518160010160006101000a81548167ffffffffffffffff021916908367ffffffffffffffff16021790555060608201518160010160086101000a81548167ffffffffffffffff021916908367ffffffffffffffff16021790555060808201518160010160106101000a81548161ffff021916908361ffff16021790555060a0820151816002015560c08201518160030160006101000a81548160ff021916908315150217905550905050600160109054906101000a900467ffffffffffffffff16600360003373ffffffffffffffffffffffffffffffffffffffff1673ffffffffffffffffffffffffffffffffffffffff16815260200190815260200160002060006101000a81548167ffffffffffffffff021916908367ffffffffffffffff16021790555060063390806001815401808255809150509060018203906000526020600020016000909192909190916101000a81548173ffffffffffffffffffffffffffffffffffffffff021916908373ffffffffffffffffffffffffffffffffffffffff160217905550506001601081819054906101000a900467ffffffffffffffff168092919060010191906101000a81548167ffffffffffffffff021916908367ffffffffffffffff1602179055505050610ca9565b82600260003373ffffffffffffffffffffffffffffffffffffffff1673ffffffffffffffffffffffffffffffffffffffff16815260200190815260200160002060010160086101000a81548167ffffffffffffffff021916908367ffffffffffffffff16021790555081600260003373ffffffffffffffffffffffffffffffffffffffff1673ffffffffffffffffffffffffffffffffffffffff16815260200190815260200160002060010160106101000a81548161ffff021916908361ffff1602179055508067ffffffffffffffff16600260003373ffffffffffffffffffffffffffffffffffffffff1673ffffffffffffffffffffffffffffffffffffffff168152602001908152602001600020600201819055506001600260003373ffffffffffffffffffffffffffffffffffffffff1673ffffffffffffffffffffffffffffffffffffffff16815260200190815260200160002060030160006101000a81548160ff0219169083151502179055505b505050565b60036020528060005260406000206000915054906101000a900467ffffffffffffffff1681565b600160009054906101000a90046fffffffffffffffffffffffffffffffff1681565b60008060009054906101000a90046fffffffffffffffffffffffffffffffff16905090565b6000600160109054906101000a900467ffffffffffffffff1667ffffffffffffffff16905090565b600560205281600052604060002081815481101515610d5f57fe5b9060005260206000209060029182820401919006601002915091509054906101000a90046fffffffffffffffffffffffffffffffff1681565b610da0612a33565b610da8612a33565b60008090505b60038167ffffffffffffffff161015610df757610dca81611994565b828267ffffffffffffffff16600381101515610de257fe5b60200201819052508080600101915050610dae565b508091505090565b610e076129bb565b600260008373ffffffffffffffffffffffffffffffffffffffff1673ffffffffffffffffffffffffffffffffffffffff16815260200190815260200160002060e060405190810160405290816000820160009054906101000a900473ffffffffffffffffffffffffffffffffffffffff1673ffffffffffffffffffffffffffffffffffffffff1673ffffffffffffffffffffffffffffffffffffffff1681526020016000820160149054906101000a900467ffffffffffffffff1667ffffffffffffffff1667ffffffffffffffff1681526020016001820160009054906101000a900467ffffffffffffffff1667ffffffffffffffff1667ffffffffffffffff1681526020016001820160089054906101000a900467ffffffffffffffff1667ffffffffffffffff1667ffffffffffffffff1681526020016001820160109054906101000a900461ffff1661ffff1661ffff168152602001600282015481526020016003820160009054906101000a900460ff1615151515815250509050919050565b6000809054906101000a90046fffffffffffffffffffffffffffffffff1681565b600781815481101515610fba57fe5b9060005260206000209060029182820401919006601002915054906101000a90046fffffffffffffffffffffffffffffffff1681565b7fd27799747ac545ab402d86e974399e4a67c184723543c040feada7d7f9754077336001604051611022929190613601565b60405180910390a1565b600160109054906101000a900467ffffffffffffffff1681565b606060068054806020026020016040519081016040528092919081815260200182805480156110ca57602002820191906000526020600020905b8160009054906101000a900473ffffffffffffffffffffffffffffffffffffffff1673ffffffffffffffffffffffffffffffffffffffff1681526020019060010190808311611080575b5050505050905090565b600060606110e0612a62565b610180604051908101604052803373ffffffffffffffffffffffffffffffffffffffff168152602001600073ffffffffffffffffffffffffffffffffffffffff1681526020016000809054906101000a90046fffffffffffffffffffffffffffffffff166fffffffffffffffffffffffffffffffff1681526020018767ffffffffffffffff1681526020018567ffffffffffffffff1681526020018661ffff168152602001348152602001600067ffffffffffffffff168152602001600167ffffffffffffffff1681526020018381526020016000151581526020016040805190810160405280600781526020017f70656e64696e6700000000000000000000000000000000000000000000000000815250815250905080600460008060009054906101000a90046fffffffffffffffffffffffffffffffff166fffffffffffffffffffffffffffffffff166fffffffffffffffffffffffffffffffff16815260200190815260200160002060008201518160000160006101000a81548173ffffffffffffffffffffffffffffffffffffffff021916908373ffffffffffffffffffffffffffffffffffffffff16021790555060208201518160010160006101000a81548173ffffffffffffffffffffffffffffffffffffffff021916908373ffffffffffffffffffffffffffffffffffffffff16021790555060408201518160020160006101000a8154816fffffffffffffffffffffffffffffffff02191690836fffffffffffffffffffffffffffffffff16021790555060608201518160020160106101000a81548167ffffffffffffffff021916908367ffffffffffffffff16021790555060808201518160020160186101000a81548167ffffffffffffffff021916908367ffffffffffffffff16021790555060a08201518160030160006101000a81548161ffff021916908361ffff16021790555060c0820151816004015560e08201518160050160006101000a81548167ffffffffffffffff021916908367ffffffffffffffff1602179055506101008201518160050160086101000a81548167ffffffffffffffff021916908367ffffffffffffffff160217905550610120820151816006019080519060200190611420929190612b30565b506101408201518160070160006101000a81548160ff02191690831515021790555061016082015181600801908051906020019061145f929190612bd6565b5090505060076000809054906101000a90046fffffffffffffffffffffffffffffffff16908060018154018082558091505090600182039060005260206000209060029182820401919006601002909192909190916101000a8154816fffffffffffffffffffffffffffffffff02191690836fffffffffffffffffffffffffffffffff16021790555050600560003373ffffffffffffffffffffffffffffffffffffffff1673ffffffffffffffffffffffffffffffffffffffff1681526020019081526020016000206000809054906101000a90046fffffffffffffffffffffffffffffffff16908060018154018082558091505090600182039060005260206000209060029182820401919006601002909192909190916101000a8154816fffffffffffffffffffffffffffffffff02191690836fffffffffffffffffffffffffffffffff1602179055505060008081819054906101000a90046fffffffffffffffffffffffffffffffff168092919060010191906101000a8154816fffffffffffffffffffffffffffffffff02191690836fffffffffffffffffffffffffffffffff16021790555050611612611e46565b925050509392505050565b3373ffffffffffffffffffffffffffffffffffffffff16600260003373ffffffffffffffffffffffffffffffffffffffff1673ffffffffffffffffffffffffffffffffffffffff16815260200190815260200160002060000160009054906101000a900473ffffffffffffffffffffffffffffffffffffffff1673ffffffffffffffffffffffffffffffffffffffff1614156117d9576000600260003373ffffffffffffffffffffffffffffffffffffffff1673ffffffffffffffffffffffffffffffffffffffff16815260200190815260200160002060030160006101000a81548160ff0219169083151502179055506000600260003373ffffffffffffffffffffffffffffffffffffffff1673ffffffffffffffffffffffffffffffffffffffff16815260200190815260200160002060000160006101000a81548173ffffffffffffffffffffffffffffffffffffffff021916908373ffffffffffffffffffffffffffffffffffffffff1602179055506001601081819054906101000a900467ffffffffffffffff16809291906001900391906101000a81548167ffffffffffffffff021916908367ffffffffffffffff160217905550505b565b60046020528060005260406000206000915090508060000160009054906101000a900473ffffffffffffffffffffffffffffffffffffffff16908060010160009054906101000a900473ffffffffffffffffffffffffffffffffffffffff16908060020160009054906101000a90046fffffffffffffffffffffffffffffffff16908060020160109054906101000a900467ffffffffffffffff16908060020160189054906101000a900467ffffffffffffffff16908060030160009054906101000a900461ffff16908060040154908060050160009054906101000a900467ffffffffffffffff16908060050160089054906101000a900467ffffffffffffffff16908060070160009054906101000a900460ff1690806008018054600181600116156101000203166002900480601f01602080910402602001604051908101604052809291908181526020018280546001816001161561010002031660029004801561198a5780601f1061195f5761010080835404028352916020019161198a565b820191906000526020600020905b81548152906001019060200180831161196d57829003601f168201915b505050505090508b565b61199c612a62565b600460008367ffffffffffffffff166fffffffffffffffffffffffffffffffff16815260200190815260200160002061018060405190810160405290816000820160009054906101000a900473ffffffffffffffffffffffffffffffffffffffff1673ffffffffffffffffffffffffffffffffffffffff1673ffffffffffffffffffffffffffffffffffffffff1681526020016001820160009054906101000a900473ffffffffffffffffffffffffffffffffffffffff1673ffffffffffffffffffffffffffffffffffffffff1673ffffffffffffffffffffffffffffffffffffffff1681526020016002820160009054906101000a90046fffffffffffffffffffffffffffffffff166fffffffffffffffffffffffffffffffff166fffffffffffffffffffffffffffffffff1681526020016002820160109054906101000a900467ffffffffffffffff1667ffffffffffffffff1667ffffffffffffffff1681526020016002820160189054906101000a900467ffffffffffffffff1667ffffffffffffffff1667ffffffffffffffff1681526020016003820160009054906101000a900461ffff1661ffff1661ffff168152602001600482015481526020016005820160009054906101000a900467ffffffffffffffff1667ffffffffffffffff1667ffffffffffffffff1681526020016005820160089054906101000a900467ffffffffffffffff1667ffffffffffffffff1667ffffffffffffffff16815260200160068201805480602002602001604051908101604052809291908181526020018280548015611c3457602002820191906000526020600020906000905b82829054906101000a900460ff16151581526020019060010190602082600001049283019260010382029150808411611bfe5790505b505050505081526020016007820160009054906101000a900460ff16151515158152602001600882018054600181600116156101000203166002900480601f016020809104026020016040519081016040528092919081815260200182805460018160011615610100020316600290048015611cf15780601f10611cc657610100808354040283529160200191611cf1565b820191906000526020600020905b815481529060010190602001808311611cd457829003601f168201915b5050505050815250509050919050565b600681815481101515611d1057fe5b906000526020600020016000915054906101000a900473ffffffffffffffffffffffffffffffffffffffff1681565b60606007805480602002602001604051908101604052809291908181526020018280548015611dd157602002820191906000526020600020906000905b82829054906101000a90046fffffffffffffffffffffffffffffffff166fffffffffffffffffffffffffffffffff1681526020019060100190602082600f01049283019260010382029150808411611d7c5790505b5050505050905090565b600060109054906101000a90046fffffffffffffffffffffffffffffffff1681565b6000600860008373ffffffffffffffffffffffffffffffffffffffff1673ffffffffffffffffffffffffffffffffffffffff168152602001908152602001600020549050919050565b6000611e50612a62565b60006007805490501115612983576004600060076000815481101515611e7257fe5b90600052602060002090600291828204019190066010029054906101000a90046fffffffffffffffffffffffffffffffff166fffffffffffffffffffffffffffffffff166fffffffffffffffffffffffffffffffff16815260200190815260200160002061018060405190810160405290816000820160009054906101000a900473ffffffffffffffffffffffffffffffffffffffff1673ffffffffffffffffffffffffffffffffffffffff1673ffffffffffffffffffffffffffffffffffffffff1681526020016001820160009054906101000a900473ffffffffffffffffffffffffffffffffffffffff1673ffffffffffffffffffffffffffffffffffffffff1673ffffffffffffffffffffffffffffffffffffffff1681526020016002820160009054906101000a90046fffffffffffffffffffffffffffffffff166fffffffffffffffffffffffffffffffff166fffffffffffffffffffffffffffffffff1681526020016002820160109054906101000a900467ffffffffffffffff1667ffffffffffffffff1667ffffffffffffffff1681526020016002820160189054906101000a900467ffffffffffffffff1667ffffffffffffffff1667ffffffffffffffff1681526020016003820160009054906101000a900461ffff1661ffff1661ffff168152602001600482015481526020016005820160009054906101000a900467ffffffffffffffff1667ffffffffffffffff1667ffffffffffffffff1681526020016005820160089054906101000a900467ffffffffffffffff1667ffffffffffffffff1667ffffffffffffffff1681526020016006820180548060200260200160405190810160405280929190818152602001828054801561213f57602002820191906000526020600020906000905b82829054906101000a900460ff161515815260200190600101906020826000010492830192600103820291508084116121095790505b505050505081526020016007820160009054906101000a900460ff16151515158152602001600882018054600181600116156101000203166002900480601f0160208091040260200160405190810160405280929190818152602001828054600181600116156101000203166002900480156121fc5780601f106121d1576101008083540402835291602001916121fc565b820191906000526020600020905b8154815290600101906020018083116121df57829003601f168201915b505050505081525050905060008090505b6006805490508167ffffffffffffffff16101561292957600060068267ffffffffffffffff1681548110151561223f57fe5b9060005260206000200160009054906101000a900473ffffffffffffffffffffffffffffffffffffffff169050600073ffffffffffffffffffffffffffffffffffffffff168173ffffffffffffffffffffffffffffffffffffffff16141580156122fc575060011515600260008373ffffffffffffffffffffffffffffffffffffffff1673ffffffffffffffffffffffffffffffffffffffff16815260200190815260200160002060030160009054906101000a900460ff161515145b1561291b57600260008273ffffffffffffffffffffffffffffffffffffffff1673ffffffffffffffffffffffffffffffffffffffff16815260200190815260200160002060010160109054906101000a900461ffff1661ffff168360a0015161ffff16111580156123db5750600260008273ffffffffffffffffffffffffffffffffffffffff1673ffffffffffffffffffffffffffffffffffffffff16815260200190815260200160002060010160089054906101000a900467ffffffffffffffff1667ffffffffffffffff16836080015167ffffffffffffffff1611155b801561242d5750600260008273ffffffffffffffffffffffffffffffffffffffff1673ffffffffffffffffffffffffffffffffffffffff168152602001908152602001600020600201548360c0015110155b1561291a578260c0015160086000856000015173ffffffffffffffffffffffffffffffffffffffff1673ffffffffffffffffffffffffffffffffffffffff16815260200190815260200160002060008282540192505081905550600260008273ffffffffffffffffffffffffffffffffffffffff1673ffffffffffffffffffffffffffffffffffffffff16815260200190815260200160002060000160009054906101000a900473ffffffffffffffffffffffffffffffffffffffff16836020019073ffffffffffffffffffffffffffffffffffffffff16908173ffffffffffffffffffffffffffffffffffffffff16815250506040805190810160405280600981526020017f70726f766964696e670000000000000000000000000000000000000000000000815250836101600181905250826004600085604001516fffffffffffffffffffffffffffffffff166fffffffffffffffffffffffffffffffff16815260200190815260200160002060008201518160000160006101000a81548173ffffffffffffffffffffffffffffffffffffffff021916908373ffffffffffffffffffffffffffffffffffffffff16021790555060208201518160010160006101000a81548173ffffffffffffffffffffffffffffffffffffffff021916908373ffffffffffffffffffffffffffffffffffffffff16021790555060408201518160020160006101000a8154816fffffffffffffffffffffffffffffffff02191690836fffffffffffffffffffffffffffffffff16021790555060608201518160020160106101000a81548167ffffffffffffffff021916908367ffffffffffffffff16021790555060808201518160020160186101000a81548167ffffffffffffffff021916908367ffffffffffffffff16021790555060a08201518160030160006101000a81548161ffff021916908361ffff16021790555060c0820151816004015560e08201518160050160006101000a81548167ffffffffffffffff021916908367ffffffffffffffff1602179055506101008201518160050160086101000a81548167ffffffffffffffff021916908367ffffffffffffffff160217905550610120820151816006019080519060200190612770929190612b30565b506101408201518160070160006101000a81548160ff0219169083151502179055506101608201518160080190805190602001906127af929190612bd6565b509050506000600260008373ffffffffffffffffffffffffffffffffffffffff1673ffffffffffffffffffffffffffffffffffffffff16815260200190815260200160002060030160006101000a81548160ff0219169083151502179055506000601081819054906101000a90046fffffffffffffffffffffffffffffffff16809291906001900391906101000a8154816fffffffffffffffffffffffffffffffff02191690836fffffffffffffffffffffffffffffffff160217905550506001600081819054906101000a90046fffffffffffffffffffffffffffffffff168092919060010191906101000a8154816fffffffffffffffffffffffffffffffff02191690836fffffffffffffffffffffffffffffffff160217905550507fd27799747ac545ab402d86e974399e4a67c184723543c040feada7d7f97540778360200151846040015160405161290692919061362a565b60405180910390a160019350505050612989565b5b50808060010191505061220d565b50806000015173ffffffffffffffffffffffffffffffffffffffff166108fc8260c001519081150290604051600060405180830381858888f19350505050158015612978573d6000803e3d6000fd5b506000915050612989565b60009150505b90565b610460604051908101604052806005905b6129a5612c56565b81526020019060019003908161299d5790505090565b60e060405190810160405280600073ffffffffffffffffffffffffffffffffffffffff168152602001600067ffffffffffffffff168152602001600067ffffffffffffffff168152602001600067ffffffffffffffff168152602001600061ffff168152602001600081526020016000151581525090565b610480604051908101604052806003905b612a4c612cce565b815260200190600190039081612a445790505090565b61018060405190810160405280600073ffffffffffffffffffffffffffffffffffffffff168152602001600073ffffffffffffffffffffffffffffffffffffffff16815260200160006fffffffffffffffffffffffffffffffff168152602001600067ffffffffffffffff168152602001600067ffffffffffffffff168152602001600061ffff16815260200160008152602001600067ffffffffffffffff168152602001600067ffffffffffffffff16815260200160608152602001600015158152602001606081525090565b82805482825590600052602060002090601f01602090048101928215612bc55791602002820160005b83821115612b9657835183826101000a81548160ff0219169083151502179055509260200192600101602081600001049283019260010302612b59565b8015612bc35782816101000a81549060ff0219169055600101602081600001049283019260010302612b96565b505b509050612bd29190612d9c565b5090565b828054600181600116156101000203166002900490600052602060002090601f016020900481019282601f10612c1757805160ff1916838001178555612c45565b82800160010185558215612c45579182015b82811115612c44578251825591602001919060010190612c29565b5b509050612c529190612dcc565b5090565b60e060405190810160405280600073ffffffffffffffffffffffffffffffffffffffff168152602001600067ffffffffffffffff168152602001600067ffffffffffffffff168152602001600067ffffffffffffffff168152602001600061ffff168152602001600081526020016000151581525090565b61018060405190810160405280600073ffffffffffffffffffffffffffffffffffffffff168152602001600073ffffffffffffffffffffffffffffffffffffffff16815260200160006fffffffffffffffffffffffffffffffff168152602001600067ffffffffffffffff168152602001600067ffffffffffffffff168152602001600061ffff16815260200160008152602001600067ffffffffffffffff168152602001600067ffffffffffffffff16815260200160608152602001600015158152602001606081525090565b612dc991905b80821115612dc557600081816101000a81549060ff021916905550600101612da2565b5090565b90565b612dee91905b80821115612dea576000816000905550600101612dd2565b5090565b90565b6000612dfd8235613943565b905092915050565b6000612e118235613955565b905092915050565b6000612e258235613971565b905092915050565b6000612e39823561397f565b905092915050565b6000612e4d8235613989565b905092915050565b600060208284031215612e6757600080fd5b6000612e7584828501612df1565b91505092915050565b60008060408385031215612e9157600080fd5b6000612e9f85828601612df1565b9250506020612eb085828601612e2d565b9150509250929050565b600060208284031215612ecc57600080fd5b6000612eda84828501612e05565b91505092915050565b600060208284031215612ef557600080fd5b6000612f0384828501612e2d565b91505092915050565b600060208284031215612f1e57600080fd5b6000612f2c84828501612e41565b91505092915050565b600080600060608486031215612f4a57600080fd5b6000612f5886828701612e41565b9350506020612f6986828701612e19565b9250506040612f7a86828701612e41565b9150509250925092565b612f8d8161399d565b82525050565b612f9c816138bd565b82525050565b612fab816138ab565b82525050565b6000612fbc82613828565b808452602084019350612fce836137ed565b60005b8281101561300057612fe4868351612fa2565b612fed8261386a565b9150602086019550600181019050612fd1565b50849250505092915050565b600061301782613833565b808452602084019350613029836137fa565b60005b8281101561305b5761303f868351613172565b61304882613877565b915060208601955060018101905061302c565b50849250505092915050565b6130708161383e565b61307982613807565b60005b828110156130ab5761308f858351613254565b61309882613884565b915060e08501945060018101905061307c565b5050505050565b60006130bd82613849565b836020820285016130cd85613811565b60005b848110156131065783830388526130e88383516133ed565b92506130f382613891565b91506020880197506001810190506130d0565b508196508694505050505092915050565b600061312282613854565b8084526020840193506131348361381b565b60005b828110156131665761314a8683516134f8565b6131538261389e565b9150602086019550600181019050613137565b50849250505092915050565b61317b816138cf565b82525050565b600061318c8261385f565b8084526131a08160208601602086016139e5565b6131a981613a18565b602085010191505092915050565b6131c0816139af565b82525050565b60e0820160008201516131dc6000850182612f93565b5060208201516131ef6020850182613525565b5060408201516132026040850182613525565b5060608201516132156060850182613525565b5060808201516132286080850182613507565b5060a082015161323b60a0850182613516565b5060c082015161324e60c0850182613172565b50505050565b60e08201600082015161326a6000850182612f93565b50602082015161327d6020850182613525565b5060408201516132906040850182613525565b5060608201516132a36060850182613525565b5060808201516132b66080850182613507565b5060a08201516132c960a0850182613516565b5060c08201516132dc60c0850182613172565b50505050565b6000610180830160008301516132fb6000860182612f93565b50602083015161330e6020860182612f93565b50604083015161332160408601826134f8565b5060608301516133346060860182613525565b5060808301516133476080860182613525565b5060a083015161335a60a0860182613507565b5060c083015161336d60c0860182613516565b5060e083015161338060e0860182613525565b50610100830151613395610100860182613525565b506101208301518482036101208601526133af828261300c565b9150506101408301516133c6610140860182613172565b506101608301518482036101608601526133e08282613181565b9150508091505092915050565b6000610180830160008301516134066000860182612f93565b5060208301516134196020860182612f93565b50604083015161342c60408601826134f8565b50606083015161343f6060860182613525565b5060808301516134526080860182613525565b5060a083015161346560a0860182613507565b5060c083015161347860c0860182613516565b5060e083015161348b60e0860182613525565b506101008301516134a0610100860182613525565b506101208301518482036101208601526134ba828261300c565b9150506101408301516134d1610140860182613172565b506101608301518482036101608601526134eb8282613181565b9150508091505092915050565b613501816138db565b82525050565b613510816138f7565b82525050565b61351f81613925565b82525050565b61352e8161392f565b82525050565b60006020820190506135496000830184612fa2565b92915050565b600061016082019050613565600083018e612f93565b613572602083018d612f93565b61357f604083018c6134f8565b61358c606083018b613525565b613599608083018a613525565b6135a660a0830189613507565b6135b360c0830188613516565b6135c060e0830187613525565b6135ce610100830186613525565b6135dc610120830185613172565b8181036101408301526135ef8184613181565b90509c9b505050505050505050505050565b60006040820190506136166000830185612f84565b61362360208301846131b7565b9392505050565b600060408201905061363f6000830185612f84565b61364c60208301846134f8565b9392505050565b600060e082019050613668600083018a612f93565b6136756020830189613525565b6136826040830188613525565b61368f6060830187613525565b61369c6080830186613507565b6136a960a0830185613516565b6136b660c0830184613172565b98975050505050505050565b600060208201905081810360008301526136dc8184612fb1565b905092915050565b6000610460820190506136fa6000830184613067565b92915050565b6000602082019050818103600083015261371a81846130b2565b905092915050565b6000602082019050818103600083015261373c8184613117565b905092915050565b60006020820190506137596000830184613172565b92915050565b600060e08201905061377460008301846131c6565b92915050565b6000602082019050818103600083015261379481846132e2565b905092915050565b60006020820190506137b160008301846134f8565b92915050565b60006020820190506137cc6000830184613516565b92915050565b60006020820190506137e76000830184613525565b92915050565b6000602082019050919050565b6000602082019050919050565b6000819050919050565b6000819050919050565b6000602082019050919050565b600081519050919050565b600081519050919050565b600060059050919050565b600060039050919050565b600081519050919050565b600081519050919050565b6000602082019050919050565b6000602082019050919050565b6000602082019050919050565b6000602082019050919050565b6000602082019050919050565b60006138b682613905565b9050919050565b60006138c882613905565b9050919050565b60008115159050919050565b60006fffffffffffffffffffffffffffffffff82169050919050565b600061ffff82169050919050565b600073ffffffffffffffffffffffffffffffffffffffff82169050919050565b6000819050919050565b600067ffffffffffffffff82169050919050565b600061394e82613905565b9050919050565b60006fffffffffffffffffffffffffffffffff82169050919050565b600061ffff82169050919050565b6000819050919050565b600067ffffffffffffffff82169050919050565b60006139a8826139c1565b9050919050565b60006139ba826138db565b9050919050565b60006139cc826139d3565b9050919050565b60006139de82613905565b9050919050565b60005b83811015613a035780820151818401526020810190506139e8565b83811115613a12576000848401525b50505050565b6000601f19601f830116905091905056fea265627a7a72305820fe42947ac8122fb1829a80af84e46c7bc06431f66d05e4bfc0cc8c12f603c8176c6578706572696d656e74616cf50037",
  "source": "//version 0.9\n//Author: Taurus, Landry\n//Copyright: tlu4@lsu.edu\n\npragma solidity ^0.5.0;\npragma experimental ABIEncoderV2;   //return self-defined type\n\ncontract TaskContract {\n\n    uint128 public requestCount;                    //total number of requests sent to contract\n    uint128 public pendingCount;                    //totla # of requests pending (after submission before assigned)\n    uint128 public providingCount;                  //total number of requests that contract found provider for\n    uint64  public providerCount;                    //number of active providers in the mapping below\n    mapping (address => Provider) public providerList;   //list of known providers. must apply. maps providerID to struct\n    mapping (address => uint64) public providerID;      //look up providerID using address     NOTE: possible not needed\n    //NOTE: addr is the only identifier for provider object.\n    //However, providerID could possibly be same between different address.\n    //e.g. Tom has Two account with addr_1, addr_2, but he could be assigned an unique providerID.\n\n    mapping (uint128 => Request) public requestList;    //mapping requestCount to Request object, requestCount is the unique number used as identifier\n    mapping (address => uint128[]) public requestID;      //look up requestID using user address , NOTE: single user could have multiply requestID\n    //for the request, requestID(uint128) is the only identifier.\n    //address is not because multiple request could come from same address\n\n    address[] public providerPool;                   //record the available providers;\n    uint128[] public requestPool;                    //record the pending request;\n    //uint64[] public spaces;                             //Open spaces where providers left. should be filled when new provider comes\n    mapping (address => uint256) public balanceList;    //for keeping track of how much money requesters have sent\n    \n\n    constructor() public {      //sol 5.0 syntax\n        requestCount = 0;        \n        providerCount = 0;\n        providingCount = 0;\n        pendingCount = 0;\n    }\n\n    struct Request {\n        address payable addr;       //payable is new feature from sol v5.0\n        address payable provider;   //addr of worker\n        uint128 reqID;              //requestID is the only identifier for each Request\n        uint64  dataID;             //dataID used to fetch the off-chain data\n        uint64  time;               //time\n        uint16  accuracy;           //target 0-100.00\n        uint256 price;              //the max amount he can pay\n        uint64  resultID;           //dataID to fetch the result\n        uint64  numValidationsNeeded;   //user defined the validation\n        bool[]  validations;        //multisignature from validations\n        bool    isValid;            //the final flag\n        bytes   status;             //'pending', 'providing', validating, complete\n    }\n\n    struct Provider {\n        address payable addr;       //providers address\n        uint64  providedCount;      //reputaion-like reference for each provider, future use\n        uint64  requestedCount;     //\n        uint64  maxTime;            //max time\n        uint16  maxTarget;          //max target he need\n        uint256 minPrice;           //lowest price can accept\n        bool    available;          // Used to determine if provider is already doing something\n    }\n\n    event TaskAssigned(address provider, uint128 reqID);            // next step: call completeTask\n    event ValidationRequested(address validator, uint128 reqID);    // next step: validator calls submitValidation\n    event TaskCompleted(address requestor, uint128 reqID);          // done\n\n\n\n\n    // Function called to become a provider of tasks for anyone requesting. \n    // NOTE: does nothing if already a provider - also used to update\n    function startProviding(uint64 maxTime, uint16 maxTarget, uint64 minPrice) public {\n        // If new provider\n        if (providerList[msg.sender].addr == address(0)) { // address is not on the chain\n            //create temp object\n            Provider memory prov = Provider(\n                msg.sender,    //addr \n                0,             //prividedCount\n                0,             //requestedCount\n                maxTime,       //maxTime\n                maxTarget,     //maxTarget\n                minPrice,      //minPrice\n                true);         //available\n            //update providerList\n            providerList[msg.sender] = prov;\n            //update providerID list\n            providerID[msg.sender] = providerCount;\n            //update Pool\n            providerPool.push(msg.sender);\n            //update count\n            providerCount++;      \n        }\n        else { // Updating old provider -- address is on the chain\n            providerList[msg.sender].maxTime = maxTime;\n            providerList[msg.sender].maxTarget = maxTarget;\n            providerList[msg.sender].minPrice = minPrice;\n\t        providerList[msg.sender].available = true;\n        }\n    }\n\n    // Treats msg.sender as provider and makes them unavailable for requests\n    function stopProviding() public {\n        // If the sender is already a valid provider\n        if (providerList[msg.sender].addr == msg.sender) {\n            providerList[msg.sender].available = false;\n            providerList[msg.sender].addr = address(0);\n            providerCount--;\n            /*// checking that theyre not the last provider to register \n            if (providerID[msg.sender] != providerCount-1) {\n                // Label ID as vacant\n                spaces.push(providerID[msg.sender]);\n            }*/         \n        }\n    }\n\n    // Used to be sure you are seen as available. e.g. power outage caused you to lose available status on network.\n    // Not to be called after stopProviding to resume -- startProviding used in this case.\n    //function restart() public returns (bool) {\n    //if (providerList[providerID[msg.sender]].addr == msg.sender) {\n    //     providers[providerID[msg.sender]].available = true;\n    //       return true;\n    //    }\n    //else {\n    //    return false; // provider wasnt found in mapping\n    //  }\n    //}\n\n   \n\n\n\n\n\n    // Requester will call contract so it can find a provider for task.\n    // Requester calls this function with:\n    // dataID, target (accuracy), timeLimit, msg.value > 0\n    // Assumes price is including the cost for verification\n    function requestTask(uint64 dataID, uint16 target, uint64 time) payable public returns (bool) {\n        bool[] memory emptyArray;\n        Request memory req = Request(           //create a temp memory var\n            msg.sender,             //addr\n            address(0),             //provider\n            requestCount,           //reqID\n            dataID,                 //dataID\n            time,                   //time    \n            target,                 //target   0-100\n            msg.value,              //price \n            0,                      //resultID\n            1,                      //numValidationsNeeded\n            emptyArray,             //sig list\n            false,                  //isValid\n            'pending'               //status\n        );\n\n        //copy the mem var into storage\n        requestList[requestCount] = req;        //requestCount used as index here, from 0 to +++\n        //update requestPool\n        requestPool.push(requestCount);\n        //update requestID\n        requestID[msg.sender].push(requestCount);\n        //update count\n        requestCount++;     //count already stands for the # of req now.\n        return assignTask();\n    }\n\n    // Assigning task to one of the available providers. Only called from requestTask (private)\n    //function assignTask(uint128 taskID, uint64 dataID, uint16 target, uint64 time, uint256 price) private returns (bool) {\n\n        //could only assign one at a time\n    function assignTask( ) private returns (bool) {\n        //provider availability is checked in pool not in list\n        Request memory req;\n        if (requestPool.length > 0){            //if any un-assgnied exist in pool\n            req = requestList[requestPool[0]];  //get the first item, there should always be one\n            //assign it to the provider pool.\n            for (uint64 i = 0; i < providerPool.length; i++) {\n                // Check if they are active provider, search pool first then list\n                address addr = providerPool[i];\n                if(addr != address(0) && providerList[addr].available == true){\n                    // Check if request conditions meet the providers requirements\n                    if (req.accuracy <= providerList[addr].maxTarget && \n                            req.time <= providerList[addr].maxTime && \n                            req.price >= providerList[addr].minPrice) {\n                        \n                        // records how much money the requester sent                \n                        balanceList[req.addr] += req.price; \n                        \n                        //update request.provider -- assigned\n                        req.provider = providerList[addr].addr;\n                        req.status = 'providing';\n                        requestList[req.reqID] = req; // save to mapping of requests \n                        providerList[addr].available = false;\n                        //status move from pending to providing\n                        pendingCount--;\n                        providingCount++;\n                        //NOTE: assign existing task should not increase the # of requestCount\n\n                        //EVENT\n                        emit TaskAssigned(req.provider, req.reqID); // Let provider listen for this event to see he was selected\n                        return true;\n                    }\n                }\n            }\n            // No provider was found matching the criteria -- request failed\n            req.addr.transfer(req.price); // Returns the ether to the sender\n            return false;\n        }\n        else        //requestPool.length == 0\n            return false;\n    }\n\n\n\n/*\n\n    // Provider will call this when they are done and the data is available.\n    // This will invoke the validation stage\n    function completeTask(uint128 reqID, uint64 resultID) public returns (bool) {\n        // Confirm msg.sender is actually the provider of the task he claims\n        if (msg.sender == requestList[reqID].provider) {\n            requestList[reqID].isCompleted = true;\n            requestList[reqID].resultID = resultID;\n            providerList[providerID[msg.sender]].available = true;\n            return validateTask(reqID);\n        }\n        else {\n            return false;\n        }\n    }\n/*\n    // Called by completeTask before finalizing stuff. Contract checks with validators\n    // Returns false if there wasnt enough free providers to send out the required number of validation requests\n    function validateTask(uint128 reqID) private returns (bool) {\n        uint64 numValidators = 3; // need validation from 1/10 of nodes -- could change\n        //uint numValidators = providerCount / 10; \n        uint validatorsFound = 0;\n        requestList[reqID].numValidationsNeeded = numValidators;\n        for (uint64 i=0; i<providerCount + spaces.length && validatorsFound<numValidators; i++) {\n            if (providerList[i].addr == address(0)) {\n                continue;\n            }\n            if (providerList[i].available) {\n                // EVENT: informs validator that they were selected and need to validate\n                emit ValidationRequested(providerList[i].addr, reqID);\n                validatorsFound++;\n            }\n        }\n        if (validatorsFound == numValidators) {\n            return true;\n        }\n        return false;\n    }\n\n\n\n\n\n    // needs to be more secure by ensuring the submission is coming from someone legit \n    function submitValidation(uint128 reqID, bool result) public returns (bool) {\n        // Pay the validator \n        uint partialPayment = requestList[reqID].price / 100; // amount each validator is paid\n        msg.sender.transfer(partialPayment);\n        balanceList[requestList[reqID].addr] -= partialPayment;\n        // Put the result in the request struct\n        requestList[reqID].validations.push(result);\n        // If enough validations have been submitted\n        if (requestList[reqID].validations.length == requestList[reqID].numValidationsNeeded) {\n            return checkValidation(reqID, requestList[reqID].price - requestList[reqID].numValidationsNeeded * partialPayment);\n        }\n    }\n    \n    function checkValidation(uint128 reqID, uint payment) private returns (bool) {\n        // Add up successful validations\n        uint64 successCount = 0;\n        for (uint64 i=0; i<requestList[reqID].validations.length; i++) {\n            if (requestList[reqID].validations[i]) successCount++;\n        }\n        // if 2/3 of validation attempts were successful\n        if (successCount  >= requestList[reqID].numValidationsNeeded * 2 / 3  ) { \n            // if 2/3 of validations were valid then provider gets remainder of money\n            requestList[reqID].provider.transfer(payment); \n            balanceList[requestList[reqID].addr] -= payment;\n            requestList[reqID].isValid = true; // Task was successfully completed! \n        }\n        // otherwise, work was invalid, the providers payment goes back to requester\n        else {\n            requestList[reqID].addr.transfer(payment);\n            balanceList[requestList[reqID].addr] -= payment;\n        }\n        // EVENT: task is done whether successful or not\n        emit TaskCompleted(requestList[reqID].addr, reqID);\n        return requestList[reqID].isValid;\n    }\n*/\n/////////////////////////////////////////////////////////////////////\n // Used to dynamically remove elements from array of open provider spaces. \n    // Using a swap and delete method, search for the desired addr throughout the whole array\n    // delete the desired and swap the whole with last element\n    function providerPop(address addr) private returns(uint64) {\n        uint64 returnValue = 0;\n        for(uint64 i = 0; i < providerPool.length; i++){\n            if (providerPool[i] == addr) {\n                returnValue = i;    //return the index (location)\n                //swap\n                providerPool[i] = providerPool[providerPool.length-1];\n                delete providerPool[providerPool.length-1];\n                providerPool.length--;\n                continue;\n            }\n        }\n        return returnValue; //return 0 mean failed to pop\n    }\n\n    function requestPop(uint128 reqID) private returns(uint64) {\n        uint64 returnValue = 0;\n        for(uint64 i = 0; i < requestPool.length; i++){\n            if (requestPool[i] == reqID) {\n                returnValue = i;        //return index\n                //swap\n                requestPool[i] = requestPool[requestPool.length-1];\n                delete requestPool[requestPool.length-1];\n                requestPool.length--;\n                continue;\n            }\n        }\n        return returnValue; //return 0 mean failed to pop\n    }\n\n\n    /////////////////////////////////////////////////////////////////////////////////\n    //some helpers defined here\n    function testTask() public {\n        emit TaskAssigned(msg.sender, 1);\n    }\n    function getProvider(address addr) public view returns(Provider memory){\n        return providerList[addr];\n    }\n    function getRequest(uint64 reqID) public view returns (Request memory){\n\t    return requestList[reqID];\n    }\n    function getProviderCount() public view returns (uint128){\n        return providerCount;\n    }\n    function getRequestCount() public view returns (uint128){\n        return requestCount;\n    }\n    function getProviderPool() public view returns (address[] memory){\n        return providerPool;\n    }\n    function getRequestPool() public view returns (uint128[] memory){\n        return requestPool;\n    }\n    function getBalance(address addr) public view returns (uint256){\n        return balanceList[addr];\n    }\n    function listRequests() public view returns(Request[3] memory){\n\t    Request[3] memory allRequest;\n\t    for (uint64 i = 0; i < 3; i++){\n\t\t    allRequest[i] = getRequest(i);\n\t    }\n\t    return allRequest;\n    }\n    function listProviders() public view returns(Provider[5] memory){\n        Provider[5] memory allProvider;\n        address addr;\n        for (uint64 i = 0; i < providerPool.length;i++){\n            if(providerPool.length > 0) {\n                addr = providerPool[i];     \n            }else {\n                addr = address(0);\n            }\n            allProvider[i] = getProvider(addr);\n        }\n        return allProvider;\n    }\n    /*function listTestProviders() public view returns(Provider[3] memory){\n        Provider[3] memory allProvider;\n        for (uint64 i = 0; i < 3;i++){\n            allProvider[i] = getTestProvider(i);\n        }\n        return allProvider;\n    }*/\n\n}\n",
  "sourcePath": "/home/taurus/blockchain/gitLab/bcai/contracts/BCAI.sol",
  "compiler": {
    "name": "solc",
    "version": "0.5.0+commit.1d4f565a.Emscripten.clang"
  },
  "schemaVersion": "3.0.0-beta.2",
  "updatedAt": "2018-12-04T23:37:25.940Z",
  "devdoc": {
    "methods": {}
  },
  "userdoc": {
    "methods": {
      "testTask()": {
        "notice": "//////////////////////////////////////////////////////////////////////////////"
      }
    }
  }
}