{
  "contractName": "TaskContract",
  "abi": [
    {
      "constant": true,
      "inputs": [
        {
          "name": "",
          "type": "address"
        }
      ],
      "name": "balanceList",
      "outputs": [
        {
          "name": "",
          "type": "uint256"
        }
      ],
      "payable": false,
      "stateMutability": "view",
      "type": "function",
      "signature": "0x189258de"
    },
    {
      "constant": true,
      "inputs": [
        {
          "name": "",
          "type": "address"
        }
      ],
      "name": "providerID",
      "outputs": [
        {
          "name": "",
          "type": "uint64"
        }
      ],
      "payable": false,
      "stateMutability": "view",
      "type": "function",
      "signature": "0x2fb41e8b"
    },
    {
      "constant": true,
      "inputs": [],
      "name": "providingCount",
      "outputs": [
        {
          "name": "",
          "type": "uint128"
        }
      ],
      "payable": false,
      "stateMutability": "view",
      "type": "function",
      "signature": "0x3a9d2d14"
    },
    {
      "constant": true,
      "inputs": [
        {
          "name": "",
          "type": "uint64"
        }
      ],
      "name": "providerList",
      "outputs": [
        {
          "name": "addr",
          "type": "address"
        },
        {
          "name": "providedCount",
          "type": "uint64"
        },
        {
          "name": "requestedCount",
          "type": "uint64"
        },
        {
          "name": "maxTime",
          "type": "uint64"
        },
        {
          "name": "maxTarget",
          "type": "uint16"
        },
        {
          "name": "minPrice",
          "type": "uint256"
        },
        {
          "name": "available",
          "type": "bool"
        }
      ],
      "payable": false,
      "stateMutability": "view",
      "type": "function",
      "signature": "0x4ac8b681"
    },
    {
      "constant": true,
      "inputs": [],
      "name": "requestCount",
      "outputs": [
        {
          "name": "",
          "type": "uint128"
        }
      ],
      "payable": false,
      "stateMutability": "view",
      "type": "function",
      "signature": "0x5badbe4c"
    },
    {
      "constant": true,
      "inputs": [
        {
          "name": "",
          "type": "address"
        }
      ],
      "name": "requestID",
      "outputs": [
        {
          "name": "",
          "type": "uint64"
        }
      ],
      "payable": false,
      "stateMutability": "view",
      "type": "function",
      "signature": "0x6ee1c916"
    },
    {
      "constant": true,
      "inputs": [],
      "name": "providerCount",
      "outputs": [
        {
          "name": "",
          "type": "uint64"
        }
      ],
      "payable": false,
      "stateMutability": "view",
      "type": "function",
      "signature": "0x74c83268"
    },
    {
      "constant": true,
      "inputs": [
        {
          "name": "",
          "type": "uint256"
        }
      ],
      "name": "spaces",
      "outputs": [
        {
          "name": "",
          "type": "uint64"
        }
      ],
      "payable": false,
      "stateMutability": "view",
      "type": "function",
      "signature": "0x7586353b"
    },
    {
      "constant": true,
      "inputs": [
        {
          "name": "",
          "type": "uint128"
        }
      ],
      "name": "requestList",
      "outputs": [
        {
          "name": "addr",
          "type": "address"
        },
        {
          "name": "provider",
          "type": "address"
        },
        {
          "name": "reqID",
          "type": "uint128"
        },
        {
          "name": "dataID",
          "type": "uint64"
        },
        {
          "name": "time",
          "type": "uint64"
        },
        {
          "name": "accuracy",
          "type": "uint16"
        },
        {
          "name": "price",
          "type": "uint256"
        },
        {
          "name": "resultID",
          "type": "uint64"
        },
        {
          "name": "numValidationsNeeded",
          "type": "uint64"
        },
        {
          "name": "isValid",
          "type": "bool"
        },
        {
          "name": "isCompleted",
          "type": "bool"
        }
      ],
      "payable": false,
      "stateMutability": "view",
      "type": "function",
      "signature": "0xbe1b902a"
    },
    {
      "inputs": [],
      "payable": false,
      "stateMutability": "nonpayable",
      "type": "constructor",
      "signature": "constructor"
    },
    {
      "anonymous": false,
      "inputs": [
        {
          "indexed": false,
          "name": "provider",
          "type": "address"
        },
        {
          "indexed": false,
          "name": "reqID",
          "type": "uint128"
        }
      ],
      "name": "TaskAssigned",
      "type": "event",
      "signature": "0xd27799747ac545ab402d86e974399e4a67c184723543c040feada7d7f9754077"
    },
    {
      "anonymous": false,
      "inputs": [
        {
          "indexed": false,
          "name": "validator",
          "type": "address"
        },
        {
          "indexed": false,
          "name": "reqID",
          "type": "uint128"
        }
      ],
      "name": "ValidationRequested",
      "type": "event",
      "signature": "0x559fcc0c049963664708350b3ea9a9785aad74b15e59ce0a3bc69793916a3571"
    },
    {
      "anonymous": false,
      "inputs": [
        {
          "indexed": false,
          "name": "requestor",
          "type": "address"
        },
        {
          "indexed": false,
          "name": "reqID",
          "type": "uint128"
        }
      ],
      "name": "TaskCompleted",
      "type": "event",
      "signature": "0x2e58929ead14966a76340c697b90ba5df5a9d784cb8689f762942b90f81e4528"
    },
    {
      "constant": false,
      "inputs": [
        {
          "name": "maxTime",
          "type": "uint64"
        },
        {
          "name": "maxTarget",
          "type": "uint16"
        },
        {
          "name": "minPrice",
          "type": "uint64"
        }
      ],
      "name": "startProviding",
      "outputs": [],
      "payable": false,
      "stateMutability": "nonpayable",
      "type": "function",
      "signature": "0x2ddfdbcc"
    },
    {
      "constant": false,
      "inputs": [],
      "name": "stopProviding",
      "outputs": [],
      "payable": false,
      "stateMutability": "nonpayable",
      "type": "function",
      "signature": "0xb2774934"
    },
    {
      "constant": false,
      "inputs": [
        {
          "name": "dataID",
          "type": "uint64"
        },
        {
          "name": "target",
          "type": "uint16"
        },
        {
          "name": "time",
          "type": "uint64"
        }
      ],
      "name": "requestTask",
      "outputs": [
        {
          "name": "",
          "type": "bool"
        }
      ],
      "payable": true,
      "stateMutability": "payable",
      "type": "function",
      "signature": "0xa26ac6de"
    },
    {
      "constant": false,
      "inputs": [
        {
          "name": "reqID",
          "type": "uint128"
        },
        {
          "name": "resultID",
          "type": "uint64"
        }
      ],
      "name": "completeTask",
      "outputs": [
        {
          "name": "",
          "type": "bool"
        }
      ],
      "payable": false,
      "stateMutability": "nonpayable",
      "type": "function",
      "signature": "0x9b8032f9"
    },
    {
      "constant": false,
      "inputs": [
        {
          "name": "reqID",
          "type": "uint128"
        },
        {
          "name": "result",
          "type": "bool"
        }
      ],
      "name": "submitValidation",
      "outputs": [
        {
          "name": "",
          "type": "bool"
        }
      ],
      "payable": false,
      "stateMutability": "nonpayable",
      "type": "function",
      "signature": "0xf5a1232f"
    },
    {
      "constant": true,
      "inputs": [
        {
          "name": "proID",
          "type": "uint64"
        }
      ],
      "name": "getProviderAddr",
      "outputs": [
        {
          "name": "",
          "type": "address"
        }
      ],
      "payable": false,
      "stateMutability": "view",
      "type": "function",
      "signature": "0xf7260ac7"
    },
    {
      "constant": true,
      "inputs": [
        {
          "name": "inAddr",
          "type": "address"
        }
      ],
      "name": "getProviderID",
      "outputs": [
        {
          "name": "",
          "type": "uint64"
        }
      ],
      "payable": false,
      "stateMutability": "view",
      "type": "function",
      "signature": "0x91bbb902"
    },
    {
      "constant": false,
      "inputs": [],
      "name": "testTask",
      "outputs": [],
      "payable": false,
      "stateMutability": "nonpayable",
      "type": "function",
      "signature": "0x66456317"
    },
    {
      "constant": true,
      "inputs": [
        {
          "name": "proID",
          "type": "uint64"
        }
      ],
      "name": "getProvider",
      "outputs": [
        {
          "components": [
            {
              "name": "addr",
              "type": "address"
            },
            {
              "name": "providedCount",
              "type": "uint64"
            },
            {
              "name": "requestedCount",
              "type": "uint64"
            },
            {
              "name": "maxTime",
              "type": "uint64"
            },
            {
              "name": "maxTarget",
              "type": "uint16"
            },
            {
              "name": "minPrice",
              "type": "uint256"
            },
            {
              "name": "available",
              "type": "bool"
            }
          ],
          "name": "",
          "type": "tuple"
        }
      ],
      "payable": false,
      "stateMutability": "view",
      "type": "function",
      "signature": "0xaf37d352"
    },
    {
      "constant": true,
      "inputs": [
        {
          "name": "reqID",
          "type": "uint64"
        }
      ],
      "name": "getRequest",
      "outputs": [
        {
          "components": [
            {
              "name": "addr",
              "type": "address"
            },
            {
              "name": "provider",
              "type": "address"
            },
            {
              "name": "reqID",
              "type": "uint128"
            },
            {
              "name": "dataID",
              "type": "uint64"
            },
            {
              "name": "time",
              "type": "uint64"
            },
            {
              "name": "accuracy",
              "type": "uint16"
            },
            {
              "name": "price",
              "type": "uint256"
            },
            {
              "name": "resultID",
              "type": "uint64"
            },
            {
              "name": "numValidationsNeeded",
              "type": "uint64"
            },
            {
              "name": "validations",
              "type": "bool[]"
            },
            {
              "name": "isValid",
              "type": "bool"
            },
            {
              "name": "isCompleted",
              "type": "bool"
            }
          ],
          "name": "",
          "type": "tuple"
        }
      ],
      "payable": false,
      "stateMutability": "view",
      "type": "function",
      "signature": "0xcbbf67ec"
    },
    {
      "constant": true,
      "inputs": [],
      "name": "getProviderCount",
      "outputs": [
        {
          "name": "",
          "type": "uint128"
        }
      ],
      "payable": false,
      "stateMutability": "view",
      "type": "function",
      "signature": "0x46ce4175"
    },
    {
      "constant": true,
      "inputs": [],
      "name": "getRequestCount",
      "outputs": [
        {
          "name": "",
          "type": "uint128"
        }
      ],
      "payable": false,
      "stateMutability": "view",
      "type": "function",
      "signature": "0x3fad1834"
    },
    {
      "constant": true,
      "inputs": [],
      "name": "listRequests",
      "outputs": [
        {
          "components": [
            {
              "name": "addr",
              "type": "address"
            },
            {
              "name": "provider",
              "type": "address"
            },
            {
              "name": "reqID",
              "type": "uint128"
            },
            {
              "name": "dataID",
              "type": "uint64"
            },
            {
              "name": "time",
              "type": "uint64"
            },
            {
              "name": "accuracy",
              "type": "uint16"
            },
            {
              "name": "price",
              "type": "uint256"
            },
            {
              "name": "resultID",
              "type": "uint64"
            },
            {
              "name": "numValidationsNeeded",
              "type": "uint64"
            },
            {
              "name": "validations",
              "type": "bool[]"
            },
            {
              "name": "isValid",
              "type": "bool"
            },
            {
              "name": "isCompleted",
              "type": "bool"
            }
          ],
          "name": "",
          "type": "tuple[3]"
        }
      ],
      "payable": false,
      "stateMutability": "view",
      "type": "function",
      "signature": "0x53d5b816"
    },
    {
      "constant": true,
      "inputs": [],
      "name": "listProviders",
      "outputs": [
        {
          "components": [
            {
              "name": "addr",
              "type": "address"
            },
            {
              "name": "providedCount",
              "type": "uint64"
            },
            {
              "name": "requestedCount",
              "type": "uint64"
            },
            {
              "name": "maxTime",
              "type": "uint64"
            },
            {
              "name": "maxTarget",
              "type": "uint16"
            },
            {
              "name": "minPrice",
              "type": "uint256"
            },
            {
              "name": "available",
              "type": "bool"
            }
          ],
          "name": "",
          "type": "tuple[3]"
        }
      ],
      "payable": false,
      "stateMutability": "view",
      "type": "function",
      "signature": "0x2bd395a0"
    }
  ],
  "bytecode": "0x608060405234801561001057600080fd5b5060008060006101000a8154816fffffffffffffffffffffffffffffffff02191690836fffffffffffffffffffffffffffffffff16021790555060008060106101000a8154816fffffffffffffffffffffffffffffffff02191690836fffffffffffffffffffffffffffffffff1602179055506000600160006101000a81548167ffffffffffffffff021916908367ffffffffffffffff160217905550613f98806100bc6000396000f3fe608060405260043610610133576000357c0100000000000000000000000000000000000000000000000000000000900463ffffffff168063189258de146101385780632bd395a0146101755780632ddfdbcc146101a05780632fb41e8b146101c95780633a9d2d14146102065780633fad18341461023157806346ce41751461025c5780634ac8b6811461028757806353d5b816146102ca5780635badbe4c146102f557806366456317146103205780636ee1c9161461033757806374c83268146103745780637586353b1461039f57806391bbb902146103dc5780639b8032f914610419578063a26ac6de14610456578063af37d35214610486578063b2774934146104c3578063be1b902a146104da578063cbbf67ec14610521578063f5a1232f1461055e578063f7260ac71461059b575b600080fd5b34801561014457600080fd5b5061015f600480360361015a9190810190613520565b6105d8565b60405161016c9190613d79565b60405180910390f35b34801561018157600080fd5b5061018a6105f0565b6040516101979190613cc8565b60405180910390f35b3480156101ac57600080fd5b506101c760048036036101c2919081019061363c565b610657565b005b3480156101d557600080fd5b506101f060048036036101eb9190810190613520565b610cfb565b6040516101fd9190613d94565b60405180910390f35b34801561021257600080fd5b5061021b610d22565b6040516102289190613d5e565b60405180910390f35b34801561023d57600080fd5b50610246610d44565b6040516102539190613d5e565b60405180910390f35b34801561026857600080fd5b50610271610d69565b60405161027e9190613d5e565b60405180910390f35b34801561029357600080fd5b506102ae60048036036102a99190810190613613565b610d91565b6040516102c19796959493929190613c59565b60405180910390f35b3480156102d657600080fd5b506102df610e4a565b6040516102ec9190613ce4565b60405180910390f35b34801561030157600080fd5b5061030a610eb1565b6040516103179190613d5e565b60405180910390f35b34801561032c57600080fd5b50610335610ed2565b005b34801561034357600080fd5b5061035e60048036036103599190810190613520565b610f0e565b60405161036b9190613d94565b60405180910390f35b34801561038057600080fd5b50610389610f35565b6040516103969190613d94565b60405180910390f35b3480156103ab57600080fd5b506103c660048036036103c191908101906135ea565b610f4f565b6040516103d39190613d94565b60405180910390f35b3480156103e857600080fd5b5061040360048036036103fe9190810190613520565b610f8c565b6040516104109190613d94565b60405180910390f35b34801561042557600080fd5b50610440600480360361043b91908101906135ae565b610fe9565b60405161044d9190613d06565b60405180910390f35b610470600480360361046b919081019061363c565b6111de565b60405161047d9190613d06565b60405180910390f35b34801561049257600080fd5b506104ad60048036036104a89190810190613613565b6115b0565b6040516104ba9190613d21565b60405180910390f35b3480156104cf57600080fd5b506104d8611723565b005b3480156104e657600080fd5b5061050160048036036104fc9190810190613549565b611ac7565b6040516105189b9a99989796959493929190613b5c565b60405180910390f35b34801561052d57600080fd5b5061054860048036036105439190810190613613565b611bf5565b6040516105559190613d3c565b60405180910390f35b34801561056a57600080fd5b5061058560048036036105809190810190613572565b611edb565b6040516105929190613d06565b60405180910390f35b3480156105a757600080fd5b506105c260048036036105bd9190810190613613565b6121e1565b6040516105cf9190613b41565b60405180910390f35b60076020528060005260406000206000915090505481565b6105f8613085565b610600613085565b60008090505b60038167ffffffffffffffff16101561064f57610622816115b0565b828267ffffffffffffffff1660038110151561063a57fe5b60200201819052508080600101915050610606565b508091505090565b3373ffffffffffffffffffffffffffffffffffffffff1660026000600360003373ffffffffffffffffffffffffffffffffffffffff1673ffffffffffffffffffffffffffffffffffffffff16815260200190815260200160002060009054906101000a900467ffffffffffffffff1667ffffffffffffffff1667ffffffffffffffff16815260200190815260200160002060000160009054906101000a900473ffffffffffffffffffffffffffffffffffffffff1673ffffffffffffffffffffffffffffffffffffffff16141515610a97576107316130b4565b60e0604051908101604052803373ffffffffffffffffffffffffffffffffffffffff168152602001600067ffffffffffffffff168152602001600067ffffffffffffffff1681526020018567ffffffffffffffff1681526020018461ffff1681526020018367ffffffffffffffff1681526020016001151581525090506000600680549050111561082e576107c4612235565b600360003373ffffffffffffffffffffffffffffffffffffffff1673ffffffffffffffffffffffffffffffffffffffff16815260200190815260200160002060006101000a81548167ffffffffffffffff021916908367ffffffffffffffff1602179055506108ab565b600160009054906101000a900467ffffffffffffffff16600360003373ffffffffffffffffffffffffffffffffffffffff1673ffffffffffffffffffffffffffffffffffffffff16815260200190815260200160002060006101000a81548167ffffffffffffffff021916908367ffffffffffffffff1602179055505b8060026000600360003373ffffffffffffffffffffffffffffffffffffffff1673ffffffffffffffffffffffffffffffffffffffff16815260200190815260200160002060009054906101000a900467ffffffffffffffff1667ffffffffffffffff1667ffffffffffffffff16815260200190815260200160002060008201518160000160006101000a81548173ffffffffffffffffffffffffffffffffffffffff021916908373ffffffffffffffffffffffffffffffffffffffff16021790555060208201518160000160146101000a81548167ffffffffffffffff021916908367ffffffffffffffff16021790555060408201518160010160006101000a81548167ffffffffffffffff021916908367ffffffffffffffff16021790555060608201518160010160086101000a81548167ffffffffffffffff021916908367ffffffffffffffff16021790555060808201518160010160106101000a81548161ffff021916908361ffff16021790555060a0820151816002015560c08201518160030160006101000a81548160ff0219169083151502179055509050506001600081819054906101000a900467ffffffffffffffff168092919060010191906101000a81548167ffffffffffffffff021916908367ffffffffffffffff1602179055505050610cf6565b8260026000600360003373ffffffffffffffffffffffffffffffffffffffff1673ffffffffffffffffffffffffffffffffffffffff16815260200190815260200160002060009054906101000a900467ffffffffffffffff1667ffffffffffffffff1667ffffffffffffffff16815260200190815260200160002060010160086101000a81548167ffffffffffffffff021916908367ffffffffffffffff1602179055508160026000600360003373ffffffffffffffffffffffffffffffffffffffff1673ffffffffffffffffffffffffffffffffffffffff16815260200190815260200160002060009054906101000a900467ffffffffffffffff1667ffffffffffffffff1667ffffffffffffffff16815260200190815260200160002060010160106101000a81548161ffff021916908361ffff1602179055508067ffffffffffffffff1660026000600360003373ffffffffffffffffffffffffffffffffffffffff1673ffffffffffffffffffffffffffffffffffffffff16815260200190815260200160002060009054906101000a900467ffffffffffffffff1667ffffffffffffffff1667ffffffffffffffff16815260200190815260200160002060020181905550600160026000600360003373ffffffffffffffffffffffffffffffffffffffff1673ffffffffffffffffffffffffffffffffffffffff16815260200190815260200160002060009054906101000a900467ffffffffffffffff1667ffffffffffffffff1667ffffffffffffffff16815260200190815260200160002060030160006101000a81548160ff0219169083151502179055505b505050565b60036020528060005260406000206000915054906101000a900467ffffffffffffffff1681565b600060109054906101000a90046fffffffffffffffffffffffffffffffff1681565b60008060009054906101000a90046fffffffffffffffffffffffffffffffff16905090565b6000600160009054906101000a900467ffffffffffffffff1667ffffffffffffffff16905090565b60026020528060005260406000206000915090508060000160009054906101000a900473ffffffffffffffffffffffffffffffffffffffff16908060000160149054906101000a900467ffffffffffffffff16908060010160009054906101000a900467ffffffffffffffff16908060010160089054906101000a900467ffffffffffffffff16908060010160109054906101000a900461ffff16908060020154908060030160009054906101000a900460ff16905087565b610e5261312c565b610e5a61312c565b60008090505b60038167ffffffffffffffff161015610ea957610e7c81611bf5565b828267ffffffffffffffff16600381101515610e9457fe5b60200201819052508080600101915050610e60565b508091505090565b6000809054906101000a90046fffffffffffffffffffffffffffffffff1681565b7fd27799747ac545ab402d86e974399e4a67c184723543c040feada7d7f9754077336001604051610f04929190613c07565b60405180910390a1565b60056020528060005260406000206000915054906101000a900467ffffffffffffffff1681565b600160009054906101000a900467ffffffffffffffff1681565b600681815481101515610f5e57fe5b9060005260206000209060049182820401919006600802915054906101000a900467ffffffffffffffff1681565b6000600360008373ffffffffffffffffffffffffffffffffffffffff1673ffffffffffffffffffffffffffffffffffffffff16815260200190815260200160002060009054906101000a900467ffffffffffffffff169050919050565b600060046000846fffffffffffffffffffffffffffffffff166fffffffffffffffffffffffffffffffff16815260200190815260200160002060010160009054906101000a900473ffffffffffffffffffffffffffffffffffffffff1673ffffffffffffffffffffffffffffffffffffffff163373ffffffffffffffffffffffffffffffffffffffff1614156111d357600160046000856fffffffffffffffffffffffffffffffff166fffffffffffffffffffffffffffffffff16815260200190815260200160002060070160016101000a81548160ff0219169083151502179055508160046000856fffffffffffffffffffffffffffffffff166fffffffffffffffffffffffffffffffff16815260200190815260200160002060050160006101000a81548167ffffffffffffffff021916908367ffffffffffffffff160217905550600160026000600360003373ffffffffffffffffffffffffffffffffffffffff1673ffffffffffffffffffffffffffffffffffffffff16815260200190815260200160002060009054906101000a900467ffffffffffffffff1667ffffffffffffffff1667ffffffffffffffff16815260200190815260200160002060030160006101000a81548160ff0219169083151502179055506111cc836122f4565b90506111d8565b600090505b92915050565b600060606111ea61315b565b610180604051908101604052803373ffffffffffffffffffffffffffffffffffffffff168152602001600073ffffffffffffffffffffffffffffffffffffffff1681526020016000809054906101000a90046fffffffffffffffffffffffffffffffff166fffffffffffffffffffffffffffffffff1681526020018767ffffffffffffffff1681526020018567ffffffffffffffff1681526020018661ffff168152602001348152602001600067ffffffffffffffff168152602001600167ffffffffffffffff16815260200183815260200160001515815260200160001515815250905080600460008060009054906101000a90046fffffffffffffffffffffffffffffffff166fffffffffffffffffffffffffffffffff166fffffffffffffffffffffffffffffffff16815260200190815260200160002060008201518160000160006101000a81548173ffffffffffffffffffffffffffffffffffffffff021916908373ffffffffffffffffffffffffffffffffffffffff16021790555060208201518160010160006101000a81548173ffffffffffffffffffffffffffffffffffffffff021916908373ffffffffffffffffffffffffffffffffffffffff16021790555060408201518160020160006101000a8154816fffffffffffffffffffffffffffffffff02191690836fffffffffffffffffffffffffffffffff16021790555060608201518160020160106101000a81548167ffffffffffffffff021916908367ffffffffffffffff16021790555060808201518160020160186101000a81548167ffffffffffffffff021916908367ffffffffffffffff16021790555060a08201518160030160006101000a81548161ffff021916908361ffff16021790555060c0820151816004015560e08201518160050160006101000a81548167ffffffffffffffff021916908367ffffffffffffffff1602179055506101008201518160050160086101000a81548167ffffffffffffffff021916908367ffffffffffffffff1602179055506101208201518160060190805190602001906114f892919061322b565b506101408201518160070160006101000a81548160ff0219169083151502179055506101608201518160070160016101000a81548160ff02191690831515021790555090505060008081819054906101000a90046fffffffffffffffffffffffffffffffff168092919060010191906101000a8154816fffffffffffffffffffffffffffffffff02191690836fffffffffffffffffffffffffffffffff160217905550506115a58161253a565b925050509392505050565b6115b86130b4565b600260008367ffffffffffffffff1667ffffffffffffffff16815260200190815260200160002060e060405190810160405290816000820160009054906101000a900473ffffffffffffffffffffffffffffffffffffffff1673ffffffffffffffffffffffffffffffffffffffff1673ffffffffffffffffffffffffffffffffffffffff1681526020016000820160149054906101000a900467ffffffffffffffff1667ffffffffffffffff1667ffffffffffffffff1681526020016001820160009054906101000a900467ffffffffffffffff1667ffffffffffffffff1667ffffffffffffffff1681526020016001820160089054906101000a900467ffffffffffffffff1667ffffffffffffffff1667ffffffffffffffff1681526020016001820160109054906101000a900461ffff1661ffff1661ffff168152602001600282015481526020016003820160009054906101000a900460ff1615151515815250509050919050565b3373ffffffffffffffffffffffffffffffffffffffff1660026000600360003373ffffffffffffffffffffffffffffffffffffffff1673ffffffffffffffffffffffffffffffffffffffff16815260200190815260200160002060009054906101000a900467ffffffffffffffff1667ffffffffffffffff1667ffffffffffffffff16815260200190815260200160002060000160009054906101000a900473ffffffffffffffffffffffffffffffffffffffff1673ffffffffffffffffffffffffffffffffffffffff161415611ac557600060026000600360003373ffffffffffffffffffffffffffffffffffffffff1673ffffffffffffffffffffffffffffffffffffffff16815260200190815260200160002060009054906101000a900467ffffffffffffffff1667ffffffffffffffff1667ffffffffffffffff16815260200190815260200160002060030160006101000a81548160ff021916908315150217905550600060026000600360003373ffffffffffffffffffffffffffffffffffffffff1673ffffffffffffffffffffffffffffffffffffffff16815260200190815260200160002060009054906101000a900467ffffffffffffffff1667ffffffffffffffff1667ffffffffffffffff16815260200190815260200160002060000160006101000a81548173ffffffffffffffffffffffffffffffffffffffff021916908373ffffffffffffffffffffffffffffffffffffffff16021790555060018060009054906101000a900467ffffffffffffffff160367ffffffffffffffff16600360003373ffffffffffffffffffffffffffffffffffffffff1673ffffffffffffffffffffffffffffffffffffffff16815260200190815260200160002060009054906101000a900467ffffffffffffffff1667ffffffffffffffff16141515611a7c576006600360003373ffffffffffffffffffffffffffffffffffffffff1673ffffffffffffffffffffffffffffffffffffffff16815260200190815260200160002060009054906101000a900467ffffffffffffffff16908060018154018082558091505090600182039060005260206000209060049182820401919006600802909192909190916101000a81548167ffffffffffffffff021916908367ffffffffffffffff160217905550505b6001600081819054906101000a900467ffffffffffffffff16809291906001900391906101000a81548167ffffffffffffffff021916908367ffffffffffffffff160217905550505b565b60046020528060005260406000206000915090508060000160009054906101000a900473ffffffffffffffffffffffffffffffffffffffff16908060010160009054906101000a900473ffffffffffffffffffffffffffffffffffffffff16908060020160009054906101000a90046fffffffffffffffffffffffffffffffff16908060020160109054906101000a900467ffffffffffffffff16908060020160189054906101000a900467ffffffffffffffff16908060030160009054906101000a900461ffff16908060040154908060050160009054906101000a900467ffffffffffffffff16908060050160089054906101000a900467ffffffffffffffff16908060070160009054906101000a900460ff16908060070160019054906101000a900460ff1690508b565b611bfd61315b565b600460008367ffffffffffffffff166fffffffffffffffffffffffffffffffff16815260200190815260200160002061018060405190810160405290816000820160009054906101000a900473ffffffffffffffffffffffffffffffffffffffff1673ffffffffffffffffffffffffffffffffffffffff1673ffffffffffffffffffffffffffffffffffffffff1681526020016001820160009054906101000a900473ffffffffffffffffffffffffffffffffffffffff1673ffffffffffffffffffffffffffffffffffffffff1673ffffffffffffffffffffffffffffffffffffffff1681526020016002820160009054906101000a90046fffffffffffffffffffffffffffffffff166fffffffffffffffffffffffffffffffff166fffffffffffffffffffffffffffffffff1681526020016002820160109054906101000a900467ffffffffffffffff1667ffffffffffffffff1667ffffffffffffffff1681526020016002820160189054906101000a900467ffffffffffffffff1667ffffffffffffffff1667ffffffffffffffff1681526020016003820160009054906101000a900461ffff1661ffff1661ffff168152602001600482015481526020016005820160009054906101000a900467ffffffffffffffff1667ffffffffffffffff1667ffffffffffffffff1681526020016005820160089054906101000a900467ffffffffffffffff1667ffffffffffffffff1667ffffffffffffffff16815260200160068201805480602002602001604051908101604052809291908181526020018280548015611e9557602002820191906000526020600020906000905b82829054906101000a900460ff16151581526020019060010190602082600001049283019260010382029150808411611e5f5790505b505050505081526020016007820160009054906101000a900460ff161515151581526020016007820160019054906101000a900460ff1615151515815250509050919050565b600080606460046000866fffffffffffffffffffffffffffffffff166fffffffffffffffffffffffffffffffff16815260200190815260200160002060040154811515611f2457fe5b0490503373ffffffffffffffffffffffffffffffffffffffff166108fc829081150290604051600060405180830381858888f19350505050158015611f6d573d6000803e3d6000fd5b50806007600060046000886fffffffffffffffffffffffffffffffff166fffffffffffffffffffffffffffffffff16815260200190815260200160002060000160009054906101000a900473ffffffffffffffffffffffffffffffffffffffff1673ffffffffffffffffffffffffffffffffffffffff1673ffffffffffffffffffffffffffffffffffffffff1681526020019081526020016000206000828254039250508190555060046000856fffffffffffffffffffffffffffffffff166fffffffffffffffffffffffffffffffff16815260200190815260200160002060060183908060018154018082558091505090600182039060005260206000209060209182820401919006909192909190916101000a81548160ff0219169083151502179055505060046000856fffffffffffffffffffffffffffffffff166fffffffffffffffffffffffffffffffff16815260200190815260200160002060050160089054906101000a900467ffffffffffffffff1667ffffffffffffffff1660046000866fffffffffffffffffffffffffffffffff166fffffffffffffffffffffffffffffffff1681526020019081526020016000206006018054905014156121d9576121d1848260046000886fffffffffffffffffffffffffffffffff166fffffffffffffffffffffffffffffffff16815260200190815260200160002060050160089054906101000a900467ffffffffffffffff1667ffffffffffffffff160260046000886fffffffffffffffffffffffffffffffff166fffffffffffffffffffffffffffffffff1681526020019081526020016000206004015403612b4b565b9150506121db565b505b92915050565b6000600260008367ffffffffffffffff1667ffffffffffffffff16815260200190815260200160002060000160009054906101000a900473ffffffffffffffffffffffffffffffffffffffff169050919050565b60006001600680549050101561224e57600090506122f1565b6000600660016006805490500381548110151561226757fe5b90600052602060002090600491828204019190066008029054906101000a900467ffffffffffffffff16905060066001600680549050038154811015156122aa57fe5b90600052602060002090600491828204019190066008026101000a81549067ffffffffffffffff021916905560068054809190600190036122eb91906132d1565b50809150505b90565b6000806003905060008090508160046000866fffffffffffffffffffffffffffffffff166fffffffffffffffffffffffffffffffff16815260200190815260200160002060050160086101000a81548167ffffffffffffffff021916908367ffffffffffffffff16021790555060008090505b600680549050600160009054906101000a900467ffffffffffffffff1667ffffffffffffffff16018167ffffffffffffffff161080156123b057508267ffffffffffffffff1682105b1561251057600073ffffffffffffffffffffffffffffffffffffffff16600260008367ffffffffffffffff1667ffffffffffffffff16815260200190815260200160002060000160009054906101000a900473ffffffffffffffffffffffffffffffffffffffff1673ffffffffffffffffffffffffffffffffffffffff16141561243957612503565b600260008267ffffffffffffffff1667ffffffffffffffff16815260200190815260200160002060030160009054906101000a900460ff1615612502577f559fcc0c049963664708350b3ea9a9785aad74b15e59ce0a3bc69793916a3571600260008367ffffffffffffffff1667ffffffffffffffff16815260200190815260200160002060000160009054906101000a900473ffffffffffffffffffffffffffffffffffffffff16866040516124f1929190613c30565b60405180910390a181806001019250505b5b8080600101915050612367565b508167ffffffffffffffff1681141561252e57600192505050612535565b6000925050505b919050565b600080600090505b600680549050600160009054906101000a900467ffffffffffffffff1667ffffffffffffffff16018167ffffffffffffffff161015612af157600073ffffffffffffffffffffffffffffffffffffffff16600260008367ffffffffffffffff1667ffffffffffffffff16815260200190815260200160002060000160009054906101000a900473ffffffffffffffffffffffffffffffffffffffff1673ffffffffffffffffffffffffffffffffffffffff1614156125ff57612ae4565b600260008267ffffffffffffffff1667ffffffffffffffff16815260200190815260200160002060010160109054906101000a900461ffff1661ffff168360a0015161ffff16111580156126a95750600260008267ffffffffffffffff1667ffffffffffffffff16815260200190815260200160002060010160089054906101000a900467ffffffffffffffff1667ffffffffffffffff16836080015167ffffffffffffffff1611155b80156126e35750600260008267ffffffffffffffff1667ffffffffffffffff168152602001908152602001600020600201548360c0015110155b80156127235750600260008267ffffffffffffffff1667ffffffffffffffff16815260200190815260200160002060030160009054906101000a900460ff165b15612ae3578260c0015160076000856000015173ffffffffffffffffffffffffffffffffffffffff1673ffffffffffffffffffffffffffffffffffffffff16815260200190815260200160002060008282540192505081905550600260008267ffffffffffffffff1667ffffffffffffffff16815260200190815260200160002060000160009054906101000a900473ffffffffffffffffffffffffffffffffffffffff16836020019073ffffffffffffffffffffffffffffffffffffffff16908173ffffffffffffffffffffffffffffffffffffffff1681525050826004600085604001516fffffffffffffffffffffffffffffffff166fffffffffffffffffffffffffffffffff16815260200190815260200160002060008201518160000160006101000a81548173ffffffffffffffffffffffffffffffffffffffff021916908373ffffffffffffffffffffffffffffffffffffffff16021790555060208201518160010160006101000a81548173ffffffffffffffffffffffffffffffffffffffff021916908373ffffffffffffffffffffffffffffffffffffffff16021790555060408201518160020160006101000a8154816fffffffffffffffffffffffffffffffff02191690836fffffffffffffffffffffffffffffffff16021790555060608201518160020160106101000a81548167ffffffffffffffff021916908367ffffffffffffffff16021790555060808201518160020160186101000a81548167ffffffffffffffff021916908367ffffffffffffffff16021790555060a08201518160030160006101000a81548161ffff021916908361ffff16021790555060c0820151816004015560e08201518160050160006101000a81548167ffffffffffffffff021916908367ffffffffffffffff1602179055506101008201518160050160086101000a81548167ffffffffffffffff021916908367ffffffffffffffff160217905550610120820151816006019080519060200190612a0f92919061322b565b506101408201518160070160006101000a81548160ff0219169083151502179055506101608201518160070160016101000a81548160ff0219169083151502179055509050506000600260008367ffffffffffffffff1667ffffffffffffffff16815260200190815260200160002060030160006101000a81548160ff0219169083151502179055507fd27799747ac545ab402d86e974399e4a67c184723543c040feada7d7f975407783602001518460400151604051612ad1929190613c30565b60405180910390a16001915050612b46565b5b8080600101915050612542565b50816000015173ffffffffffffffffffffffffffffffffffffffff166108fc8360c001519081150290604051600060405180830381858888f19350505050158015612b40573d6000803e3d6000fd5b50600090505b919050565b6000806000905060008090505b60046000866fffffffffffffffffffffffffffffffff166fffffffffffffffffffffffffffffffff168152602001908152602001600020600601805490508167ffffffffffffffff161015612c335760046000866fffffffffffffffffffffffffffffffff166fffffffffffffffffffffffffffffffff1681526020019081526020016000206006018167ffffffffffffffff16815481101515612bf857fe5b90600052602060002090602091828204019190069054906101000a900460ff1615612c265781806001019250505b8080600101915050612b58565b506003600260046000876fffffffffffffffffffffffffffffffff166fffffffffffffffffffffffffffffffff16815260200190815260200160002060050160089054906101000a900467ffffffffffffffff160267ffffffffffffffff16811515612c9b57fe5b0467ffffffffffffffff168167ffffffffffffffff16101515612e585760046000856fffffffffffffffffffffffffffffffff166fffffffffffffffffffffffffffffffff16815260200190815260200160002060010160009054906101000a900473ffffffffffffffffffffffffffffffffffffffff1673ffffffffffffffffffffffffffffffffffffffff166108fc849081150290604051600060405180830381858888f19350505050158015612d58573d6000803e3d6000fd5b50826007600060046000886fffffffffffffffffffffffffffffffff166fffffffffffffffffffffffffffffffff16815260200190815260200160002060000160009054906101000a900473ffffffffffffffffffffffffffffffffffffffff1673ffffffffffffffffffffffffffffffffffffffff1673ffffffffffffffffffffffffffffffffffffffff16815260200190815260200160002060008282540392505081905550600160046000866fffffffffffffffffffffffffffffffff166fffffffffffffffffffffffffffffffff16815260200190815260200160002060070160006101000a81548160ff021916908315150217905550612fa1565b60046000856fffffffffffffffffffffffffffffffff166fffffffffffffffffffffffffffffffff16815260200190815260200160002060000160009054906101000a900473ffffffffffffffffffffffffffffffffffffffff1673ffffffffffffffffffffffffffffffffffffffff166108fc849081150290604051600060405180830381858888f19350505050158015612ef8573d6000803e3d6000fd5b50826007600060046000886fffffffffffffffffffffffffffffffff166fffffffffffffffffffffffffffffffff16815260200190815260200160002060000160009054906101000a900473ffffffffffffffffffffffffffffffffffffffff1673ffffffffffffffffffffffffffffffffffffffff1673ffffffffffffffffffffffffffffffffffffffff168152602001908152602001600020600082825403925050819055505b7f2e58929ead14966a76340c697b90ba5df5a9d784cb8689f762942b90f81e452860046000866fffffffffffffffffffffffffffffffff166fffffffffffffffffffffffffffffffff16815260200190815260200160002060000160009054906101000a900473ffffffffffffffffffffffffffffffffffffffff168560405161302c929190613c30565b60405180910390a160046000856fffffffffffffffffffffffffffffffff166fffffffffffffffffffffffffffffffff16815260200190815260200160002060070160009054906101000a900460ff1691505092915050565b6102a0604051908101604052806003905b61309e61330b565b8152602001906001900390816130965790505090565b60e060405190810160405280600073ffffffffffffffffffffffffffffffffffffffff168152602001600067ffffffffffffffff168152602001600067ffffffffffffffff168152602001600067ffffffffffffffff168152602001600061ffff168152602001600081526020016000151581525090565b610480604051908101604052806003905b613145613383565b81526020019060019003908161313d5790505090565b61018060405190810160405280600073ffffffffffffffffffffffffffffffffffffffff168152602001600073ffffffffffffffffffffffffffffffffffffffff16815260200160006fffffffffffffffffffffffffffffffff168152602001600067ffffffffffffffff168152602001600067ffffffffffffffff168152602001600061ffff16815260200160008152602001600067ffffffffffffffff168152602001600067ffffffffffffffff168152602001606081526020016000151581526020016000151581525090565b82805482825590600052602060002090601f016020900481019282156132c05791602002820160005b8382111561329157835183826101000a81548160ff0219169083151502179055509260200192600101602081600001049283019260010302613254565b80156132be5782816101000a81549060ff0219169055600101602081600001049283019260010302613291565b505b5090506132cd9190613453565b5090565b8154818355818111156133065760030160049004816003016004900483600052602060002091820191016133059190613483565b5b505050565b60e060405190810160405280600073ffffffffffffffffffffffffffffffffffffffff168152602001600067ffffffffffffffff168152602001600067ffffffffffffffff168152602001600067ffffffffffffffff168152602001600061ffff168152602001600081526020016000151581525090565b61018060405190810160405280600073ffffffffffffffffffffffffffffffffffffffff168152602001600073ffffffffffffffffffffffffffffffffffffffff16815260200160006fffffffffffffffffffffffffffffffff168152602001600067ffffffffffffffff168152602001600067ffffffffffffffff168152602001600061ffff16815260200160008152602001600067ffffffffffffffff168152602001600067ffffffffffffffff168152602001606081526020016000151581526020016000151581525090565b61348091905b8082111561347c57600081816101000a81549060ff021916905550600101613459565b5090565b90565b6134a591905b808211156134a1576000816000905550600101613489565b5090565b90565b60006134b48235613eb0565b905092915050565b60006134c88235613ec2565b905092915050565b60006134dc8235613ece565b905092915050565b60006134f08235613eea565b905092915050565b60006135048235613ef8565b905092915050565b60006135188235613f02565b905092915050565b60006020828403121561353257600080fd5b6000613540848285016134a8565b91505092915050565b60006020828403121561355b57600080fd5b6000613569848285016134d0565b91505092915050565b6000806040838503121561358557600080fd5b6000613593858286016134d0565b92505060206135a4858286016134bc565b9150509250929050565b600080604083850312156135c157600080fd5b60006135cf858286016134d0565b92505060206135e08582860161350c565b9150509250929050565b6000602082840312156135fc57600080fd5b600061360a848285016134f8565b91505092915050565b60006020828403121561362557600080fd5b60006136338482850161350c565b91505092915050565b60008060006060848603121561365157600080fd5b600061365f8682870161350c565b9350506020613670868287016134e4565b92505060406136818682870161350c565b9150509250925092565b61369481613f16565b82525050565b6136a381613e2a565b82525050565b6136b281613e18565b82525050565b60006136c382613dd0565b8084526020840193506136d583613daf565b60005b82811015613707576136eb8683516137c3565b6136f482613df1565b91506020860195506001810190506136d8565b50849250505092915050565b61371c81613ddb565b61372582613dbc565b60005b828110156137575761373b85835161386f565b61374482613dfe565b915060e085019450600181019050613728565b5050505050565b600061376982613de6565b8360208202850161377985613dc6565b60005b848110156137b2578383038852613794838351613a01565b925061379f82613e0b565b915060208801975060018101905061377c565b508196508694505050505092915050565b6137cc81613e3c565b82525050565b6137db81613f28565b82525050565b60e0820160008201516137f7600085018261369a565b50602082015161380a6020850182613b32565b50604082015161381d6040850182613b32565b5060608201516138306060850182613b32565b5060808201516138436080850182613b14565b5060a082015161385660a0850182613b23565b5060c082015161386960c08501826137c3565b50505050565b60e082016000820151613885600085018261369a565b5060208201516138986020850182613b32565b5060408201516138ab6040850182613b32565b5060608201516138be6060850182613b32565b5060808201516138d16080850182613b14565b5060a08201516138e460a0850182613b23565b5060c08201516138f760c08501826137c3565b50505050565b600061018083016000830151613916600086018261369a565b506020830151613929602086018261369a565b50604083015161393c6040860182613b05565b50606083015161394f6060860182613b32565b5060808301516139626080860182613b32565b5060a083015161397560a0860182613b14565b5060c083015161398860c0860182613b23565b5060e083015161399b60e0860182613b32565b506101008301516139b0610100860182613b32565b506101208301518482036101208601526139ca82826136b8565b9150506101408301516139e16101408601826137c3565b506101608301516139f66101608601826137c3565b508091505092915050565b600061018083016000830151613a1a600086018261369a565b506020830151613a2d602086018261369a565b506040830151613a406040860182613b05565b506060830151613a536060860182613b32565b506080830151613a666080860182613b32565b5060a0830151613a7960a0860182613b14565b5060c0830151613a8c60c0860182613b23565b5060e0830151613a9f60e0860182613b32565b50610100830151613ab4610100860182613b32565b50610120830151848203610120860152613ace82826136b8565b915050610140830151613ae56101408601826137c3565b50610160830151613afa6101608601826137c3565b508091505092915050565b613b0e81613e48565b82525050565b613b1d81613e64565b82525050565b613b2c81613e92565b82525050565b613b3b81613e9c565b82525050565b6000602082019050613b5660008301846136a9565b92915050565b600061016082019050613b72600083018e61369a565b613b7f602083018d61369a565b613b8c604083018c613b05565b613b99606083018b613b32565b613ba6608083018a613b32565b613bb360a0830189613b14565b613bc060c0830188613b23565b613bcd60e0830187613b32565b613bdb610100830186613b32565b613be96101208301856137c3565b613bf76101408301846137c3565b9c9b505050505050505050505050565b6000604082019050613c1c600083018561368b565b613c2960208301846137d2565b9392505050565b6000604082019050613c45600083018561368b565b613c526020830184613b05565b9392505050565b600060e082019050613c6e600083018a61369a565b613c7b6020830189613b32565b613c886040830188613b32565b613c956060830187613b32565b613ca26080830186613b14565b613caf60a0830185613b23565b613cbc60c08301846137c3565b98975050505050505050565b60006102a082019050613cde6000830184613713565b92915050565b60006020820190508181036000830152613cfe818461375e565b905092915050565b6000602082019050613d1b60008301846137c3565b92915050565b600060e082019050613d3660008301846137e1565b92915050565b60006020820190508181036000830152613d5681846138fd565b905092915050565b6000602082019050613d736000830184613b05565b92915050565b6000602082019050613d8e6000830184613b23565b92915050565b6000602082019050613da96000830184613b32565b92915050565b6000602082019050919050565b6000819050919050565b6000819050919050565b600081519050919050565b600060039050919050565b600060039050919050565b6000602082019050919050565b6000602082019050919050565b6000602082019050919050565b6000613e2382613e72565b9050919050565b6000613e3582613e72565b9050919050565b60008115159050919050565b60006fffffffffffffffffffffffffffffffff82169050919050565b600061ffff82169050919050565b600073ffffffffffffffffffffffffffffffffffffffff82169050919050565b6000819050919050565b600067ffffffffffffffff82169050919050565b6000613ebb82613e72565b9050919050565b60008115159050919050565b60006fffffffffffffffffffffffffffffffff82169050919050565b600061ffff82169050919050565b6000819050919050565b600067ffffffffffffffff82169050919050565b6000613f2182613f3a565b9050919050565b6000613f3382613e48565b9050919050565b6000613f4582613f4c565b9050919050565b6000613f5782613e72565b905091905056fea265627a7a723058201d35a4769fdd92982b334fbe2c60e54ba8584190e57d708a00c51da9548c27586c6578706572696d656e74616cf50037",
  "source": "pragma solidity ^0.5.0;\npragma experimental ABIEncoderV2;   //return self-defined type\n\ncontract TaskContract {\n\n    uint128 public requestCount;                    //total number of requests sent to contract\n    uint128 public providingCount;                  //total number of requests that contract found provider for\n    uint64 public providerCount;                    //number of active providers in the mapping below\n    mapping (uint64 => Provider) public providerList;   //list of known providers. must apply. maps providerID to struct\n    mapping (address => uint64) public providerID;      //look up providerID using address     NOTE: possible not needed\n    //NOTE: addr is the only identifier for provider object.\n    //However, providerID could possibly be same between different address.\n    //e.g. Tom has Two account with addr_1, addr_2, but he could be assigned an unique providerID.\n\n    mapping (uint128 => Request) public requestList;    //mapping requestCount to Request object, requestCount is the unique number used as identifier\n    mapping (address => uint64) public requestID;       //look up requestID using address (user's)  NOTE: single user could have multiply requestID\n\n    uint64[] public spaces;                             //Open spaces where providers left. should be filled when new provider comes\n    mapping (address => uint256) public balanceList;    //for keeping track of how much money requesters have sent\n    \n    constructor() public {      //sol 5.0 syntax\n        requestCount = 0;\n        providingCount = 0;\n        providerCount = 0;\n    }\n\n    struct Request {\n        address payable addr;       //payable is new feature from sol v5.0\n        address payable provider;   //addr of worker\n        uint128 reqID;              //requestID is the only identifier for each Request\n        uint64  dataID;             //dataID used to fetch the off-chain data\n        uint64  time;               //time\n        uint16  accuracy;           //target 0-100\n        uint256 price;\n        uint64  resultID;\n        uint64  numValidationsNeeded;\n        bool[]  validations;\n        bool    isValid;\n        bool    isCompleted;\n    }\n\n    struct Provider {\n        address payable addr;\n        uint64  providedCount;\n        uint64  requestedCount;\n        uint64  maxTime;\n        uint16  maxTarget;\n        uint256 minPrice;\n        bool    available; // Used to determine if provider is already doing something\n    }\n\n    event TaskAssigned(address provider, uint128 reqID);        // next step: call completeTask\n    event ValidationRequested(address validator, uint128 reqID); // next step: validator calls submitValidation\n    event TaskCompleted(address requestor, uint128 reqID);      // done\n\n\n\n\n    // Function called to become a provider of tasks for anyone requesting. \n    // NOTE: does nothing if already a provider - also used to update\n    function startProviding(uint64 maxTime, uint16 maxTarget, uint64 minPrice) public {\n        // If new provider\n        if (providerList[providerID[msg.sender]].addr != msg.sender) { // address is not on the chain\n            Provider memory prov = Provider(\n\t\t    msg.sender,    //addr \n\t\t    0,             //prividedCount\n\t\t    0,             //requestedCount\n\t\t    maxTime,       //maxTime\n\t\t    maxTarget,     //maxTarget\n\t\t    minPrice,      //minPrice\n\t\t    true);         //available\n\n            // If there are vacant providerIDs\n            if (spaces.length > 0) {\n                providerID[msg.sender] = pop(); // Pops the most recently vacated from spaces\n            }\n            // Else put them at the end of the list\n            else {\n                providerID[msg.sender] = providerCount;\n            }\n            // These update either way\n            providerList[providerID[msg.sender]] = prov;\n            providerCount++;\n        }\n        else { // Updating old provider -- address is on the chain\n            providerList[providerID[msg.sender]].maxTime = maxTime;\n            providerList[providerID[msg.sender]].maxTarget = maxTarget;\n            providerList[providerID[msg.sender]].minPrice = minPrice;\n\t    providerList[providerID[msg.sender]].available = true;\n        }\n    }\n\n    // Treats msg.sender as provider and makes them unavailable for requests\n    function stopProviding() public {\n        // If the sender is already a valid provider\n        if (providerList[providerID[msg.sender]].addr == msg.sender) {\n            providerList[providerID[msg.sender]].available = false;\n            providerList[providerID[msg.sender]].addr = address(0);\n            // checking that theyre not the last provider to register \n            if (providerID[msg.sender] != providerCount-1) {\n                // Label ID as vacant\n                spaces.push(providerID[msg.sender]);\n            }\n            providerCount--;\n        }\n    }\n\n    // Used to be sure you are seen as available. e.g. power outage caused you to lose available status on network.\n    // Not to be called after stopProviding to resume -- startProviding used in this case.\n    //function restart() public returns (bool) {\n    //if (providerList[providerID[msg.sender]].addr == msg.sender) {\n    //     providers[providerID[msg.sender]].available = true;\n    //       return true;\n    //    }\n    //else {\n    //    return false; // provider wasnt found in mapping\n    //  }\n    //}\n\n    // Used to dynamically remove elements from array of open provider spaces. \n    function pop() private returns(uint64) {\n        if (spaces.length < 1) return 0x0;\n        uint64 value = spaces[spaces.length-1];\n        delete spaces[spaces.length-1];\n        spaces.length--;\n        return value;\n    }\n\n\n\n\n\n    // Requester will call contract so it can find a provider for task.\n    // Requester calls this function with:\n    // dataID, target (accuracy), timeLimit, msg.value > 0\n    // Assumes price is including the cost for verification\n    function requestTask(uint64 dataID, uint16 target, uint64 time) payable public returns (bool) {\n        bool[] memory emptyArray;\n        Request memory req = Request(           //create a temp memory var\n            msg.sender,             //addr\n            address(0),             //provider\n            requestCount,           //reqID\n            dataID,                 //dataID\n            time,                   //time    \n            target,                 //target   0-100\n            msg.value,              //price \n            0,                      //resultID\n            1,                      //numValidationsNeeded\n            emptyArray,             //sig list\n            false,                  //isValid\n            false                   //isCompleted\n            );\n\n        //copy the mem var into storage\n        requestList[requestCount] = req;        //requestCount used as index here, from 0 to +++\n        requestCount++;\n        return assignTask(req);\n\t//return true;\n    }\n\n    // Assigning task to one of the available providers. Only called from requestTask (private)\n    //function assignTask(uint128 taskID, uint64 dataID, uint16 target, uint64 time, uint256 price) private returns (bool) {\n\n\n    function assignTask(Request memory req) private returns (bool) {\n        for (uint64 i = 0; i<providerCount + spaces.length; i++) {\n            // Check if they are active provider\n            if (providerList[i].addr == address(0)) {\n                continue;\n                \n            }\n            // Check if request conditions meet the providers requirements\n            else if (req.accuracy <= providerList[i].maxTarget && \n                    req.time <= providerList[i].maxTime && \n                    req.price >= providerList[i].minPrice && \n                    providerList[i].available) {\n                \n                // records how much money the requester sent                \n                balanceList[req.addr] += req.price; \n                \n                //update request\n                req.provider = providerList[i].addr;\n                requestList[req.reqID] = req; // save to mapping of requests \n                //requestCount++;       //done in RequestTask function\n                //NOTE: assign existing task should not increase the # of requestCount\n\n                providerList[i].available = false;\n                \n\n                //EVENT\n                emit TaskAssigned(req.provider, req.reqID); // Let provider listen for this event to see he was selected\n                return true;\n            }\n        }\n        // No provider was found matching the criteria -- request failed\n        req.addr.transfer(req.price); // Returns the ether to the sender\n        return false;\n    }\n\n\n\n\n\n    // Provider will call this when they are done and the data is available.\n    // This will invoke the validation stage\n    function completeTask(uint128 reqID, uint64 resultID) public returns (bool) {\n        // Confirm msg.sender is actually the provider of the task he claims\n        if (msg.sender == requestList[reqID].provider) {\n            requestList[reqID].isCompleted = true;\n            requestList[reqID].resultID = resultID;\n            providerList[providerID[msg.sender]].available = true;\n            return validateTask(reqID);\n        }\n        else {\n            return false;\n        }\n    }\n\n    // Called by completeTask before finalizing stuff. Contract checks with validators\n    // Returns false if there wasnt enough free providers to send out the required number of validation requests\n    function validateTask(uint128 reqID) private returns (bool) {\n        uint64 numValidators = 3; // need validation from 1/10 of nodes -- could change\n        //uint numValidators = providerCount / 10; \n        uint validatorsFound = 0;\n        requestList[reqID].numValidationsNeeded = numValidators;\n        for (uint64 i=0; i<providerCount + spaces.length && validatorsFound<numValidators; i++) {\n            if (providerList[i].addr == address(0)) {\n                continue;\n            }\n            if (providerList[i].available) {\n                // EVENT: informs validator that they were selected and need to validate\n                emit ValidationRequested(providerList[i].addr, reqID);\n                validatorsFound++;\n            }\n        }\n        if (validatorsFound == numValidators) {\n            return true;\n        }\n        return false;\n    }\n\n\n\n\n\n    // needs to be more secure by ensuring the submission is coming from someone legit \n    function submitValidation(uint128 reqID, bool result) public returns (bool) {\n        // Pay the validator \n        uint partialPayment = requestList[reqID].price / 100; // amount each validator is paid\n        msg.sender.transfer(partialPayment);\n        balanceList[requestList[reqID].addr] -= partialPayment;\n        // Put the result in the request struct\n        requestList[reqID].validations.push(result);\n        // If enough validations have been submitted\n        if (requestList[reqID].validations.length == requestList[reqID].numValidationsNeeded) {\n            return checkValidation(reqID, requestList[reqID].price - requestList[reqID].numValidationsNeeded * partialPayment);\n        }\n    }\n    \n    function checkValidation(uint128 reqID, uint payment) private returns (bool) {\n        // Add up successful validations\n        uint64 successCount = 0;\n        for (uint64 i=0; i<requestList[reqID].validations.length; i++) {\n            if (requestList[reqID].validations[i]) successCount++;\n        }\n        // if 2/3 of validation attempts were successful\n        if (successCount  >= requestList[reqID].numValidationsNeeded * 2 / 3  ) { \n            // if 2/3 of validations were valid then provider gets remainder of money\n            requestList[reqID].provider.transfer(payment); \n            balanceList[requestList[reqID].addr] -= payment;\n            requestList[reqID].isValid = true; // Task was successfully completed! \n        }\n        // otherwise, work was invalid, the providers payment goes back to requester\n        else {\n            requestList[reqID].addr.transfer(payment);\n            balanceList[requestList[reqID].addr] -= payment;\n        }\n        // EVENT: task is done whether successful or not\n        emit TaskCompleted(requestList[reqID].addr, reqID);\n        return requestList[reqID].isValid;\n    }\n\n\n\n\n    /////////////////////////////////////////////////////////////////////////////////\n    //some helpers defined here\n    function getProviderAddr(uint64 proID) public view returns (address) {\n        return providerList[proID].addr;\n    }\n    function getProviderID(address inAddr) public view returns(uint64){\n        return providerID[inAddr];\n    }\n    function testTask() public {\n        emit TaskAssigned(msg.sender, 1);\n    }\n\n    function getProvider(uint64 proID) public view returns(Provider memory){\n        return providerList[proID];\n    }\n    function getRequest(uint64 reqID) public view returns (Request memory){\n\t    return requestList[reqID];\n    }\n    function getProviderCount() public view returns (uint128){\n        return providerCount;\n    }\n    function getRequestCount() public view returns (uint128){\n        return requestCount;\n    }\n   \n    \n    function listRequests() public view returns(Request[3] memory){\n\t    Request[3] memory allRequest;\n\t    for (uint64 i = 0; i < 3; i++){\n\t\t    allRequest[i] = getRequest(i);\n\t    }\n\t    return allRequest;\n    }\n    function listProviders() public view returns(Provider[3] memory){\n        Provider[3] memory allProvider;\n        //Provider memory localPro;\n        //allProvider[0] = getProvider(0);\n        //allProvider[1] = getProvider(1);\n        //allProvider[2] = getProvider(2);\n        //allProvider[0] = getProvider(0);\n        //allProvider[1] = getProvider(1);\n        //NOTE: for loop is not functional here\n        //Must be a bug, return invalid VM opcode error\n        for (uint64 i = 0; i < 3;i++){\n            allProvider[i] = getProvider(i);\n        }\n        return allProvider;\n    }\n}\n",
  "sourcePath": "/home/taurus/blockchain/gitLab/bcai/contracts/BCAI.sol",
  "compiler": {
    "name": "solc",
    "version": "0.5.0+commit.1d4f565a.Emscripten.clang"
  },
  "schemaVersion": "3.0.0-beta.2",
  "updatedAt": "2018-12-04T18:56:06.545Z",
  "devdoc": {
    "methods": {}
  },
  "userdoc": {
    "methods": {
      "getProviderAddr(uint64)": {
        "notice": "//////////////////////////////////////////////////////////////////////////////"
      }
    }
  }
}