{
  "contractName": "TaskContract",
  "abi": [
    {
      "constant": true,
      "inputs": [
        {
          "name": "",
          "type": "uint64"
        }
      ],
      "name": "providers",
      "outputs": [
        {
          "name": "addr",
          "type": "address"
        },
        {
          "name": "providedCount",
          "type": "uint64"
        },
        {
          "name": "requestedCount",
          "type": "uint64"
        },
        {
          "name": "maxTime",
          "type": "uint64"
        },
        {
          "name": "maxTarget",
          "type": "uint16"
        },
        {
          "name": "minPrice",
          "type": "uint256"
        },
        {
          "name": "available",
          "type": "bool"
        }
      ],
      "payable": false,
      "stateMutability": "view",
      "type": "function",
      "signature": "0x1da4f9e5"
    },
    {
      "constant": true,
      "inputs": [
        {
          "name": "",
          "type": "address"
        }
      ],
      "name": "balances",
      "outputs": [
        {
          "name": "",
          "type": "uint256"
        }
      ],
      "payable": false,
      "stateMutability": "view",
      "type": "function",
      "signature": "0x27e235e3"
    },
    {
      "constant": true,
      "inputs": [
        {
          "name": "",
          "type": "address"
        }
      ],
      "name": "providerID",
      "outputs": [
        {
          "name": "",
          "type": "uint64"
        }
      ],
      "payable": false,
      "stateMutability": "view",
      "type": "function",
      "signature": "0x2fb41e8b"
    },
    {
      "constant": true,
      "inputs": [
        {
          "name": "",
          "type": "uint128"
        }
      ],
      "name": "requests",
      "outputs": [
        {
          "name": "addr",
          "type": "address"
        },
        {
          "name": "provider",
          "type": "address"
        },
        {
          "name": "reqID",
          "type": "uint128"
        },
        {
          "name": "dataID",
          "type": "uint64"
        },
        {
          "name": "time",
          "type": "uint64"
        },
        {
          "name": "accuracy",
          "type": "uint16"
        },
        {
          "name": "price",
          "type": "uint256"
        },
        {
          "name": "resultID",
          "type": "uint64"
        },
        {
          "name": "numValidationsNeeded",
          "type": "uint64"
        },
        {
          "name": "isValid",
          "type": "bool"
        },
        {
          "name": "complete",
          "type": "bool"
        }
      ],
      "payable": false,
      "stateMutability": "view",
      "type": "function",
      "signature": "0x5369d7f6"
    },
    {
      "constant": true,
      "inputs": [],
      "name": "requestCount",
      "outputs": [
        {
          "name": "",
          "type": "uint128"
        }
      ],
      "payable": false,
      "stateMutability": "view",
      "type": "function",
      "signature": "0x5badbe4c"
    },
    {
      "constant": true,
      "inputs": [
        {
          "name": "",
          "type": "uint256"
        }
      ],
      "name": "spaces",
      "outputs": [
        {
          "name": "",
          "type": "uint64"
        }
      ],
      "payable": false,
      "stateMutability": "view",
      "type": "function",
      "signature": "0x7586353b"
    },
    {
      "constant": true,
      "inputs": [],
      "name": "provideCount",
      "outputs": [
        {
          "name": "",
          "type": "uint128"
        }
      ],
      "payable": false,
      "stateMutability": "view",
      "type": "function",
      "signature": "0xcb8cc575"
    },
    {
      "constant": true,
      "inputs": [],
      "name": "numProviders",
      "outputs": [
        {
          "name": "",
          "type": "uint64"
        }
      ],
      "payable": false,
      "stateMutability": "view",
      "type": "function",
      "signature": "0xed03b300"
    },
    {
      "inputs": [],
      "payable": false,
      "stateMutability": "nonpayable",
      "type": "constructor",
      "signature": "constructor"
    },
    {
      "anonymous": false,
      "inputs": [
        {
          "indexed": false,
          "name": "provider",
          "type": "address"
        },
        {
          "indexed": false,
          "name": "reqID",
          "type": "uint128"
        }
      ],
      "name": "TaskAssigned",
      "type": "event",
      "signature": "0xd27799747ac545ab402d86e974399e4a67c184723543c040feada7d7f9754077"
    },
    {
      "anonymous": false,
      "inputs": [
        {
          "indexed": false,
          "name": "validator",
          "type": "address"
        },
        {
          "indexed": false,
          "name": "reqID",
          "type": "uint128"
        }
      ],
      "name": "ValidationRequested",
      "type": "event",
      "signature": "0x559fcc0c049963664708350b3ea9a9785aad74b15e59ce0a3bc69793916a3571"
    },
    {
      "anonymous": false,
      "inputs": [
        {
          "indexed": false,
          "name": "requestor",
          "type": "address"
        },
        {
          "indexed": false,
          "name": "reqID",
          "type": "uint128"
        }
      ],
      "name": "TaskCompleted",
      "type": "event",
      "signature": "0x2e58929ead14966a76340c697b90ba5df5a9d784cb8689f762942b90f81e4528"
    },
    {
      "constant": false,
      "inputs": [
        {
          "name": "maxTime",
          "type": "uint64"
        },
        {
          "name": "maxTarget",
          "type": "uint16"
        },
        {
          "name": "minPrice",
          "type": "uint64"
        }
      ],
      "name": "startProviding",
      "outputs": [],
      "payable": false,
      "stateMutability": "nonpayable",
      "type": "function",
      "signature": "0x2ddfdbcc"
    },
    {
      "constant": false,
      "inputs": [],
      "name": "stopProviding",
      "outputs": [],
      "payable": false,
      "stateMutability": "nonpayable",
      "type": "function",
      "signature": "0xb2774934"
    },
    {
      "constant": false,
      "inputs": [
        {
          "name": "dataID",
          "type": "uint64"
        },
        {
          "name": "target",
          "type": "uint16"
        },
        {
          "name": "time",
          "type": "uint64"
        }
      ],
      "name": "requestTask",
      "outputs": [
        {
          "name": "",
          "type": "bool"
        }
      ],
      "payable": true,
      "stateMutability": "payable",
      "type": "function",
      "signature": "0xa26ac6de"
    },
    {
      "constant": false,
      "inputs": [
        {
          "name": "reqID",
          "type": "uint128"
        },
        {
          "name": "resultID",
          "type": "uint64"
        }
      ],
      "name": "completeTask",
      "outputs": [
        {
          "name": "",
          "type": "bool"
        }
      ],
      "payable": false,
      "stateMutability": "nonpayable",
      "type": "function",
      "signature": "0x9b8032f9"
    },
    {
      "constant": false,
      "inputs": [
        {
          "name": "reqID",
          "type": "uint128"
        },
        {
          "name": "result",
          "type": "bool"
        }
      ],
      "name": "submitValidation",
      "outputs": [
        {
          "name": "",
          "type": "bool"
        }
      ],
      "payable": false,
      "stateMutability": "nonpayable",
      "type": "function",
      "signature": "0xf5a1232f"
    },
    {
      "constant": true,
      "inputs": [
        {
          "name": "proID",
          "type": "uint64"
        }
      ],
      "name": "getProvider",
      "outputs": [
        {
          "name": "",
          "type": "address"
        }
      ],
      "payable": false,
      "stateMutability": "view",
      "type": "function",
      "signature": "0xaf37d352"
    },
    {
      "constant": true,
      "inputs": [
        {
          "name": "inAddr",
          "type": "address"
        }
      ],
      "name": "getProviderID",
      "outputs": [
        {
          "name": "",
          "type": "uint64"
        }
      ],
      "payable": false,
      "stateMutability": "view",
      "type": "function",
      "signature": "0x91bbb902"
    },
    {
      "constant": false,
      "inputs": [],
      "name": "testTask",
      "outputs": [],
      "payable": false,
      "stateMutability": "nonpayable",
      "type": "function",
      "signature": "0x66456317"
    }
  ],
  "bytecode": "0x608060405234801561001057600080fd5b5060008060006101000a8154816fffffffffffffffffffffffffffffffff02191690836fffffffffffffffffffffffffffffffff16021790555060008060106101000a8154816fffffffffffffffffffffffffffffffff02191690836fffffffffffffffffffffffffffffffff1602179055506000600160006101000a81548167ffffffffffffffff021916908367ffffffffffffffff160217905550612ec5806100bc6000396000f3fe6080604052600436106100e6576000357c0100000000000000000000000000000000000000000000000000000000900463ffffffff1680631da4f9e5146100eb57806327e235e3146101e25780632ddfdbcc146102475780632fb41e8b146102ae5780635369d7f6146103275780635badbe4c146104aa57806366456317146104f95780637586353b1461051057806391bbb902146105735780639b8032f9146105ec578063a26ac6de14610665578063af37d352146106d7578063b27749341461075c578063cb8cc57514610773578063ed03b300146107c2578063f5a1232f14610801575b600080fd5b3480156100f757600080fd5b5061012e6004803603602081101561010e57600080fd5b81019080803567ffffffffffffffff169060200190929190505050610872565b604051808873ffffffffffffffffffffffffffffffffffffffff1673ffffffffffffffffffffffffffffffffffffffff1681526020018767ffffffffffffffff1667ffffffffffffffff1681526020018667ffffffffffffffff1667ffffffffffffffff1681526020018567ffffffffffffffff1667ffffffffffffffff1681526020018461ffff1661ffff1681526020018381526020018215151515815260200197505050505050505060405180910390f35b3480156101ee57600080fd5b506102316004803603602081101561020557600080fd5b81019080803573ffffffffffffffffffffffffffffffffffffffff16906020019092919050505061092b565b6040518082815260200191505060405180910390f35b34801561025357600080fd5b506102ac6004803603606081101561026a57600080fd5b81019080803567ffffffffffffffff169060200190929190803561ffff169060200190929190803567ffffffffffffffff169060200190929190505050610943565b005b3480156102ba57600080fd5b506102fd600480360360208110156102d157600080fd5b81019080803573ffffffffffffffffffffffffffffffffffffffff169060200190929190505050610f51565b604051808267ffffffffffffffff1667ffffffffffffffff16815260200191505060405180910390f35b34801561033357600080fd5b506103726004803603602081101561034a57600080fd5b8101908080356fffffffffffffffffffffffffffffffff169060200190929190505050610f78565b604051808c73ffffffffffffffffffffffffffffffffffffffff1673ffffffffffffffffffffffffffffffffffffffff1681526020018b73ffffffffffffffffffffffffffffffffffffffff1673ffffffffffffffffffffffffffffffffffffffff1681526020018a6fffffffffffffffffffffffffffffffff166fffffffffffffffffffffffffffffffff1681526020018967ffffffffffffffff1667ffffffffffffffff1681526020018867ffffffffffffffff1667ffffffffffffffff1681526020018761ffff1661ffff1681526020018681526020018567ffffffffffffffff1667ffffffffffffffff1681526020018467ffffffffffffffff1667ffffffffffffffff16815260200183151515158152602001821515151581526020019b50505050505050505050505060405180910390f35b3480156104b657600080fd5b506104bf6110a6565b60405180826fffffffffffffffffffffffffffffffff166fffffffffffffffffffffffffffffffff16815260200191505060405180910390f35b34801561050557600080fd5b5061050e6110c7565b005b34801561051c57600080fd5b506105496004803603602081101561053357600080fd5b8101908080359060200190929190505050611147565b604051808267ffffffffffffffff1667ffffffffffffffff16815260200191505060405180910390f35b34801561057f57600080fd5b506105c26004803603602081101561059657600080fd5b81019080803573ffffffffffffffffffffffffffffffffffffffff169060200190929190505050611184565b604051808267ffffffffffffffff1667ffffffffffffffff16815260200191505060405180910390f35b3480156105f857600080fd5b5061064b6004803603604081101561060f57600080fd5b8101908080356fffffffffffffffffffffffffffffffff169060200190929190803567ffffffffffffffff1690602001909291905050506111e1565b604051808215151515815260200191505060405180910390f35b6106bd6004803603606081101561067b57600080fd5b81019080803567ffffffffffffffff169060200190929190803561ffff169060200190929190803567ffffffffffffffff1690602001909291905050506113d6565b604051808215151515815260200191505060405180910390f35b3480156106e357600080fd5b5061071a600480360360208110156106fa57600080fd5b81019080803567ffffffffffffffff1690602001909291905050506114db565b604051808273ffffffffffffffffffffffffffffffffffffffff1673ffffffffffffffffffffffffffffffffffffffff16815260200191505060405180910390f35b34801561076857600080fd5b5061077161152f565b005b34801561077f57600080fd5b506107886118d3565b60405180826fffffffffffffffffffffffffffffffff166fffffffffffffffffffffffffffffffff16815260200191505060405180910390f35b3480156107ce57600080fd5b506107d76118f5565b604051808267ffffffffffffffff1667ffffffffffffffff16815260200191505060405180910390f35b34801561080d57600080fd5b506108586004803603604081101561082457600080fd5b8101908080356fffffffffffffffffffffffffffffffff16906020019092919080351515906020019092919050505061190f565b604051808215151515815260200191505060405180910390f35b60026020528060005260406000206000915090508060000160009054906101000a900473ffffffffffffffffffffffffffffffffffffffff16908060000160149054906101000a900467ffffffffffffffff16908060010160009054906101000a900467ffffffffffffffff16908060010160089054906101000a900467ffffffffffffffff16908060010160109054906101000a900461ffff16908060020154908060030160009054906101000a900460ff16905087565b60046020528060005260406000206000915090505481565b3373ffffffffffffffffffffffffffffffffffffffff1660026000600360003373ffffffffffffffffffffffffffffffffffffffff1673ffffffffffffffffffffffffffffffffffffffff16815260200190815260200160002060009054906101000a900467ffffffffffffffff1667ffffffffffffffff1667ffffffffffffffff16815260200190815260200160002060000160009054906101000a900473ffffffffffffffffffffffffffffffffffffffff1673ffffffffffffffffffffffffffffffffffffffff16141515610d8357610a1d612c1c565b60e0604051908101604052803373ffffffffffffffffffffffffffffffffffffffff168152602001600067ffffffffffffffff168152602001600067ffffffffffffffff1681526020018567ffffffffffffffff1681526020018461ffff1681526020018367ffffffffffffffff16815260200160011515815250905060006006805490501115610b1a57610ab0611c15565b600360003373ffffffffffffffffffffffffffffffffffffffff1673ffffffffffffffffffffffffffffffffffffffff16815260200190815260200160002060006101000a81548167ffffffffffffffff021916908367ffffffffffffffff160217905550610b97565b600160009054906101000a900467ffffffffffffffff16600360003373ffffffffffffffffffffffffffffffffffffffff1673ffffffffffffffffffffffffffffffffffffffff16815260200190815260200160002060006101000a81548167ffffffffffffffff021916908367ffffffffffffffff1602179055505b8060026000600360003373ffffffffffffffffffffffffffffffffffffffff1673ffffffffffffffffffffffffffffffffffffffff16815260200190815260200160002060009054906101000a900467ffffffffffffffff1667ffffffffffffffff1667ffffffffffffffff16815260200190815260200160002060008201518160000160006101000a81548173ffffffffffffffffffffffffffffffffffffffff021916908373ffffffffffffffffffffffffffffffffffffffff16021790555060208201518160000160146101000a81548167ffffffffffffffff021916908367ffffffffffffffff16021790555060408201518160010160006101000a81548167ffffffffffffffff021916908367ffffffffffffffff16021790555060608201518160010160086101000a81548167ffffffffffffffff021916908367ffffffffffffffff16021790555060808201518160010160106101000a81548161ffff021916908361ffff16021790555060a0820151816002015560c08201518160030160006101000a81548160ff0219169083151502179055509050506001600081819054906101000a900467ffffffffffffffff168092919060010191906101000a81548167ffffffffffffffff021916908367ffffffffffffffff1602179055505050610f4c565b8260026000600360003373ffffffffffffffffffffffffffffffffffffffff1673ffffffffffffffffffffffffffffffffffffffff16815260200190815260200160002060009054906101000a900467ffffffffffffffff1667ffffffffffffffff1667ffffffffffffffff16815260200190815260200160002060010160086101000a81548167ffffffffffffffff021916908367ffffffffffffffff1602179055508160026000600360003373ffffffffffffffffffffffffffffffffffffffff1673ffffffffffffffffffffffffffffffffffffffff16815260200190815260200160002060009054906101000a900467ffffffffffffffff1667ffffffffffffffff1667ffffffffffffffff16815260200190815260200160002060010160106101000a81548161ffff021916908361ffff1602179055508067ffffffffffffffff1660026000600360003373ffffffffffffffffffffffffffffffffffffffff1673ffffffffffffffffffffffffffffffffffffffff16815260200190815260200160002060009054906101000a900467ffffffffffffffff1667ffffffffffffffff1667ffffffffffffffff168152602001908152602001600020600201819055505b505050565b60036020528060005260406000206000915054906101000a900467ffffffffffffffff1681565b60056020528060005260406000206000915090508060000160009054906101000a900473ffffffffffffffffffffffffffffffffffffffff16908060010160009054906101000a900473ffffffffffffffffffffffffffffffffffffffff16908060020160009054906101000a90046fffffffffffffffffffffffffffffffff16908060020160109054906101000a900467ffffffffffffffff16908060020160189054906101000a900467ffffffffffffffff16908060030160009054906101000a900461ffff16908060040154908060050160009054906101000a900467ffffffffffffffff16908060050160089054906101000a900467ffffffffffffffff16908060070160009054906101000a900460ff16908060070160019054906101000a900460ff1690508b565b6000809054906101000a90046fffffffffffffffffffffffffffffffff1681565b7fd27799747ac545ab402d86e974399e4a67c184723543c040feada7d7f9754077336001604051808373ffffffffffffffffffffffffffffffffffffffff1673ffffffffffffffffffffffffffffffffffffffff168152602001826fffffffffffffffffffffffffffffffff1681526020019250505060405180910390a1565b60068181548110151561115657fe5b9060005260206000209060049182820401919006600802915054906101000a900467ffffffffffffffff1681565b6000600360008373ffffffffffffffffffffffffffffffffffffffff1673ffffffffffffffffffffffffffffffffffffffff16815260200190815260200160002060009054906101000a900467ffffffffffffffff169050919050565b600060056000846fffffffffffffffffffffffffffffffff166fffffffffffffffffffffffffffffffff16815260200190815260200160002060010160009054906101000a900473ffffffffffffffffffffffffffffffffffffffff1673ffffffffffffffffffffffffffffffffffffffff163373ffffffffffffffffffffffffffffffffffffffff1614156113cb57600160056000856fffffffffffffffffffffffffffffffff166fffffffffffffffffffffffffffffffff16815260200190815260200160002060070160016101000a81548160ff0219169083151502179055508160056000856fffffffffffffffffffffffffffffffff166fffffffffffffffffffffffffffffffff16815260200190815260200160002060050160006101000a81548167ffffffffffffffff021916908367ffffffffffffffff160217905550600160026000600360003373ffffffffffffffffffffffffffffffffffffffff1673ffffffffffffffffffffffffffffffffffffffff16815260200190815260200160002060009054906101000a900467ffffffffffffffff1667ffffffffffffffff1667ffffffffffffffff16815260200190815260200160002060030160006101000a81548160ff0219169083151502179055506113c483611cd4565b90506113d0565b600090505b92915050565b600060606113e2612c94565b610180604051908101604052803373ffffffffffffffffffffffffffffffffffffffff168152602001600073ffffffffffffffffffffffffffffffffffffffff1681526020016000809054906101000a90046fffffffffffffffffffffffffffffffff166fffffffffffffffffffffffffffffffff1681526020018767ffffffffffffffff1681526020018567ffffffffffffffff1681526020018661ffff168152602001348152602001600067ffffffffffffffff168152602001600067ffffffffffffffff1681526020018381526020016000151581526020016000151581525090506114d081611f70565b925050509392505050565b6000600260008367ffffffffffffffff1667ffffffffffffffff16815260200190815260200160002060000160009054906101000a900473ffffffffffffffffffffffffffffffffffffffff169050919050565b3373ffffffffffffffffffffffffffffffffffffffff1660026000600360003373ffffffffffffffffffffffffffffffffffffffff1673ffffffffffffffffffffffffffffffffffffffff16815260200190815260200160002060009054906101000a900467ffffffffffffffff1667ffffffffffffffff1667ffffffffffffffff16815260200190815260200160002060000160009054906101000a900473ffffffffffffffffffffffffffffffffffffffff1673ffffffffffffffffffffffffffffffffffffffff1614156118d157600060026000600360003373ffffffffffffffffffffffffffffffffffffffff1673ffffffffffffffffffffffffffffffffffffffff16815260200190815260200160002060009054906101000a900467ffffffffffffffff1667ffffffffffffffff1667ffffffffffffffff16815260200190815260200160002060030160006101000a81548160ff021916908315150217905550600060026000600360003373ffffffffffffffffffffffffffffffffffffffff1673ffffffffffffffffffffffffffffffffffffffff16815260200190815260200160002060009054906101000a900467ffffffffffffffff1667ffffffffffffffff1667ffffffffffffffff16815260200190815260200160002060000160006101000a81548173ffffffffffffffffffffffffffffffffffffffff021916908373ffffffffffffffffffffffffffffffffffffffff16021790555060018060009054906101000a900467ffffffffffffffff160367ffffffffffffffff16600360003373ffffffffffffffffffffffffffffffffffffffff1673ffffffffffffffffffffffffffffffffffffffff16815260200190815260200160002060009054906101000a900467ffffffffffffffff1667ffffffffffffffff16141515611888576006600360003373ffffffffffffffffffffffffffffffffffffffff1673ffffffffffffffffffffffffffffffffffffffff16815260200190815260200160002060009054906101000a900467ffffffffffffffff16908060018154018082558091505090600182039060005260206000209060049182820401919006600802909192909190916101000a81548167ffffffffffffffff021916908367ffffffffffffffff160217905550505b6001600081819054906101000a900467ffffffffffffffff16809291906001900391906101000a81548167ffffffffffffffff021916908367ffffffffffffffff160217905550505b565b600060109054906101000a90046fffffffffffffffffffffffffffffffff1681565b600160009054906101000a900467ffffffffffffffff1681565b600080606460056000866fffffffffffffffffffffffffffffffff166fffffffffffffffffffffffffffffffff1681526020019081526020016000206004015481151561195857fe5b0490503373ffffffffffffffffffffffffffffffffffffffff166108fc829081150290604051600060405180830381858888f193505050501580156119a1573d6000803e3d6000fd5b50806004600060056000886fffffffffffffffffffffffffffffffff166fffffffffffffffffffffffffffffffff16815260200190815260200160002060000160009054906101000a900473ffffffffffffffffffffffffffffffffffffffff1673ffffffffffffffffffffffffffffffffffffffff1673ffffffffffffffffffffffffffffffffffffffff1681526020019081526020016000206000828254039250508190555060056000856fffffffffffffffffffffffffffffffff166fffffffffffffffffffffffffffffffff16815260200190815260200160002060060183908060018154018082558091505090600182039060005260206000209060209182820401919006909192909190916101000a81548160ff0219169083151502179055505060056000856fffffffffffffffffffffffffffffffff166fffffffffffffffffffffffffffffffff16815260200190815260200160002060050160089054906101000a900467ffffffffffffffff1667ffffffffffffffff1660056000866fffffffffffffffffffffffffffffffff166fffffffffffffffffffffffffffffffff168152602001908152602001600020600601805490501415611c0d57611c05848260056000886fffffffffffffffffffffffffffffffff166fffffffffffffffffffffffffffffffff16815260200190815260200160002060050160089054906101000a900467ffffffffffffffff1667ffffffffffffffff160260056000886fffffffffffffffffffffffffffffffff166fffffffffffffffffffffffffffffffff168152602001908152602001600020600401540361268c565b915050611c0f565b505b92915050565b600060016006805490501015611c2e5760009050611cd1565b60006006600160068054905003815481101515611c4757fe5b90600052602060002090600491828204019190066008029054906101000a900467ffffffffffffffff1690506006600160068054905003815481101515611c8a57fe5b90600052602060002090600491828204019190066008026101000a81549067ffffffffffffffff02191690556006805480919060019003611ccb9190612d64565b50809150505b90565b6000806003905060008090508160056000866fffffffffffffffffffffffffffffffff166fffffffffffffffffffffffffffffffff16815260200190815260200160002060050160086101000a81548167ffffffffffffffff021916908367ffffffffffffffff16021790555060008090505b600680549050600160009054906101000a900467ffffffffffffffff1667ffffffffffffffff16018167ffffffffffffffff16108015611d9057508267ffffffffffffffff1682105b15611f4657600073ffffffffffffffffffffffffffffffffffffffff16600260008367ffffffffffffffff1667ffffffffffffffff16815260200190815260200160002060000160009054906101000a900473ffffffffffffffffffffffffffffffffffffffff1673ffffffffffffffffffffffffffffffffffffffff161415611e1957611f39565b600260008267ffffffffffffffff1667ffffffffffffffff16815260200190815260200160002060030160009054906101000a900460ff1615611f38577f559fcc0c049963664708350b3ea9a9785aad74b15e59ce0a3bc69793916a3571600260008367ffffffffffffffff1667ffffffffffffffff16815260200190815260200160002060000160009054906101000a900473ffffffffffffffffffffffffffffffffffffffff1686604051808373ffffffffffffffffffffffffffffffffffffffff1673ffffffffffffffffffffffffffffffffffffffff168152602001826fffffffffffffffffffffffffffffffff166fffffffffffffffffffffffffffffffff1681526020019250505060405180910390a181806001019250505b5b8080600101915050611d47565b508167ffffffffffffffff16811415611f6457600192505050611f6b565b6000925050505b919050565b600080600090505b600680549050600160009054906101000a900467ffffffffffffffff1667ffffffffffffffff16018167ffffffffffffffff16101561263257600073ffffffffffffffffffffffffffffffffffffffff16600260008367ffffffffffffffff1667ffffffffffffffff16815260200190815260200160002060000160009054906101000a900473ffffffffffffffffffffffffffffffffffffffff1673ffffffffffffffffffffffffffffffffffffffff16141561203557612625565b600260008267ffffffffffffffff1667ffffffffffffffff16815260200190815260200160002060010160109054906101000a900461ffff1661ffff168360a0015161ffff16111580156120df5750600260008267ffffffffffffffff1667ffffffffffffffff16815260200190815260200160002060010160089054906101000a900467ffffffffffffffff1667ffffffffffffffff16836080015167ffffffffffffffff1611155b80156121195750600260008267ffffffffffffffff1667ffffffffffffffff168152602001908152602001600020600201548360c0015110155b80156121595750600260008267ffffffffffffffff1667ffffffffffffffff16815260200190815260200160002060030160009054906101000a900460ff165b156126245734600460003373ffffffffffffffffffffffffffffffffffffffff1673ffffffffffffffffffffffffffffffffffffffff16815260200190815260200160002060008282540192505081905550600260008267ffffffffffffffff1667ffffffffffffffff16815260200190815260200160002060000160009054906101000a900473ffffffffffffffffffffffffffffffffffffffff16836020019073ffffffffffffffffffffffffffffffffffffffff16908173ffffffffffffffffffffffffffffffffffffffff168152505082600560008060009054906101000a90046fffffffffffffffffffffffffffffffff166fffffffffffffffffffffffffffffffff166fffffffffffffffffffffffffffffffff16815260200190815260200160002060008201518160000160006101000a81548173ffffffffffffffffffffffffffffffffffffffff021916908373ffffffffffffffffffffffffffffffffffffffff16021790555060208201518160010160006101000a81548173ffffffffffffffffffffffffffffffffffffffff021916908373ffffffffffffffffffffffffffffffffffffffff16021790555060408201518160020160006101000a8154816fffffffffffffffffffffffffffffffff02191690836fffffffffffffffffffffffffffffffff16021790555060608201518160020160106101000a81548167ffffffffffffffff021916908367ffffffffffffffff16021790555060808201518160020160186101000a81548167ffffffffffffffff021916908367ffffffffffffffff16021790555060a08201518160030160006101000a81548161ffff021916908361ffff16021790555060c0820151816004015560e08201518160050160006101000a81548167ffffffffffffffff021916908367ffffffffffffffff1602179055506101008201518160050160086101000a81548167ffffffffffffffff021916908367ffffffffffffffff160217905550610120820151816006019080519060200190612456929190612d9e565b506101408201518160070160006101000a81548160ff0219169083151502179055506101608201518160070160016101000a81548160ff0219169083151502179055509050506000600260008367ffffffffffffffff1667ffffffffffffffff16815260200190815260200160002060030160006101000a81548160ff02191690831515021790555060008081819054906101000a90046fffffffffffffffffffffffffffffffff168092919060010191906101000a8154816fffffffffffffffffffffffffffffffff02191690836fffffffffffffffffffffffffffffffff160217905550507fd27799747ac545ab402d86e974399e4a67c184723543c040feada7d7f9754077600260008367ffffffffffffffff1667ffffffffffffffff16815260200190815260200160002060000160009054906101000a900473ffffffffffffffffffffffffffffffffffffffff168460400151604051808373ffffffffffffffffffffffffffffffffffffffff1673ffffffffffffffffffffffffffffffffffffffff168152602001826fffffffffffffffffffffffffffffffff166fffffffffffffffffffffffffffffffff1681526020019250505060405180910390a16001915050612687565b5b8080600101915050611f78565b50816000015173ffffffffffffffffffffffffffffffffffffffff166108fc8360c001519081150290604051600060405180830381858888f19350505050158015612681573d6000803e3d6000fd5b50600090505b919050565b6000806000905060008090505b60056000866fffffffffffffffffffffffffffffffff166fffffffffffffffffffffffffffffffff168152602001908152602001600020600601805490508167ffffffffffffffff1610156127745760056000866fffffffffffffffffffffffffffffffff166fffffffffffffffffffffffffffffffff1681526020019081526020016000206006018167ffffffffffffffff1681548110151561273957fe5b90600052602060002090602091828204019190069054906101000a900460ff16156127675781806001019250505b8080600101915050612699565b506003600260056000876fffffffffffffffffffffffffffffffff166fffffffffffffffffffffffffffffffff16815260200190815260200160002060050160089054906101000a900467ffffffffffffffff160267ffffffffffffffff168115156127dc57fe5b0467ffffffffffffffff168167ffffffffffffffff161015156129995760056000856fffffffffffffffffffffffffffffffff166fffffffffffffffffffffffffffffffff16815260200190815260200160002060010160009054906101000a900473ffffffffffffffffffffffffffffffffffffffff1673ffffffffffffffffffffffffffffffffffffffff166108fc849081150290604051600060405180830381858888f19350505050158015612899573d6000803e3d6000fd5b50826004600060056000886fffffffffffffffffffffffffffffffff166fffffffffffffffffffffffffffffffff16815260200190815260200160002060000160009054906101000a900473ffffffffffffffffffffffffffffffffffffffff1673ffffffffffffffffffffffffffffffffffffffff1673ffffffffffffffffffffffffffffffffffffffff16815260200190815260200160002060008282540392505081905550600160056000866fffffffffffffffffffffffffffffffff166fffffffffffffffffffffffffffffffff16815260200190815260200160002060070160006101000a81548160ff021916908315150217905550612ae2565b60056000856fffffffffffffffffffffffffffffffff166fffffffffffffffffffffffffffffffff16815260200190815260200160002060000160009054906101000a900473ffffffffffffffffffffffffffffffffffffffff1673ffffffffffffffffffffffffffffffffffffffff166108fc849081150290604051600060405180830381858888f19350505050158015612a39573d6000803e3d6000fd5b50826004600060056000886fffffffffffffffffffffffffffffffff166fffffffffffffffffffffffffffffffff16815260200190815260200160002060000160009054906101000a900473ffffffffffffffffffffffffffffffffffffffff1673ffffffffffffffffffffffffffffffffffffffff1673ffffffffffffffffffffffffffffffffffffffff168152602001908152602001600020600082825403925050819055505b7f2e58929ead14966a76340c697b90ba5df5a9d784cb8689f762942b90f81e452860056000866fffffffffffffffffffffffffffffffff166fffffffffffffffffffffffffffffffff16815260200190815260200160002060000160009054906101000a900473ffffffffffffffffffffffffffffffffffffffff1685604051808373ffffffffffffffffffffffffffffffffffffffff1673ffffffffffffffffffffffffffffffffffffffff168152602001826fffffffffffffffffffffffffffffffff166fffffffffffffffffffffffffffffffff1681526020019250505060405180910390a160056000856fffffffffffffffffffffffffffffffff166fffffffffffffffffffffffffffffffff16815260200190815260200160002060070160009054906101000a900460ff1691505092915050565b60e060405190810160405280600073ffffffffffffffffffffffffffffffffffffffff168152602001600067ffffffffffffffff168152602001600067ffffffffffffffff168152602001600067ffffffffffffffff168152602001600061ffff168152602001600081526020016000151581525090565b61018060405190810160405280600073ffffffffffffffffffffffffffffffffffffffff168152602001600073ffffffffffffffffffffffffffffffffffffffff16815260200160006fffffffffffffffffffffffffffffffff168152602001600067ffffffffffffffff168152602001600067ffffffffffffffff168152602001600061ffff16815260200160008152602001600067ffffffffffffffff168152602001600067ffffffffffffffff168152602001606081526020016000151581526020016000151581525090565b815481835581811115612d99576003016004900481600301600490048360005260206000209182019101612d989190612e44565b5b505050565b82805482825590600052602060002090601f01602090048101928215612e335791602002820160005b83821115612e0457835183826101000a81548160ff0219169083151502179055509260200192600101602081600001049283019260010302612dc7565b8015612e315782816101000a81549060ff0219169055600101602081600001049283019260010302612e04565b505b509050612e409190612e69565b5090565b612e6691905b80821115612e62576000816000905550600101612e4a565b5090565b90565b612e9691905b80821115612e9257600081816101000a81549060ff021916905550600101612e6f565b5090565b9056fea165627a7a723058203c1d1f444626773b7f22e2b7b8e814e4b1e7a91d4f6a0e56544c4fdb7b68d3e70029",
  "source": "pragma solidity ^0.5.0;\n\ncontract TaskContract {\n\n    uint128 public requestCount;                    //total number of requests sent to contract\n    uint128 public provideCount;                    //total number of requests that contract found provider for\n    uint64 public numProviders;                     //number of active providers in the mapping below\n    mapping (uint64 => Provider) public providers;  //list of known providers. must apply. maps providerID to struct\n    mapping (address => uint64) public providerID;  //NOTE: possible not needed\n    mapping (address => uint256) public balances;   //for keeping track of how much money requesters have sent\n    mapping (uint128 => Request) public requests;   //NOTE: possibly not needed? could change name to tasks.\n    uint64[] public spaces;                         // Open spaces where providers left. should be filled when new provider comes\n\n    // Deploying code -- run once\n    constructor() public {\n        requestCount = 0;\n        provideCount = 0;\n        numProviders = 0;\n    }\n\n    struct Request {\n        address payable addr;       //new feature from sol v5.0\n        address payable provider;\n        uint128 reqID;\n        uint64  dataID;\n        uint64  time;\n        uint16  accuracy;\n        uint256 price;\n        uint64  resultID;\n        uint64  numValidationsNeeded;\n        bool[]  validations;\n        bool    isValid;\n        bool    complete;\n    }\n\n    struct Provider {\n        address payable addr;\n        uint64  providedCount;\n        uint64  requestedCount;\n        uint64  maxTime;\n        uint16  maxTarget;\n        uint256 minPrice;\n        bool    available; // Used to determine if provider is already doing something\n    }\n\n    event TaskAssigned(address provider, uint128 reqID);        // next step: call completeTask\n    \n    event ValidationRequested(address validator, uint128 reqID); // next step: validator calls submitValidation\n    \n    event TaskCompleted(address requestor, uint128 reqID);      // done\n\n\n\n\n    // Function called to become a provider of tasks for anyone requesting. \n    // NOTE: does nothing if already a provider - also used to update\n    function startProviding(uint64 maxTime, uint16 maxTarget, uint64 minPrice) public {\n        // If new provider\n        if (providers[providerID[msg.sender]].addr != msg.sender) { // address is not on the chain\n            Provider memory prov = Provider(msg.sender, 0, 0, maxTime, maxTarget, minPrice, true);\n            // If there are vacant providerIDs\n            if (spaces.length > 0) {\n                providerID[msg.sender] = pop(); // Pops the most recently vacated from spaces\n            }\n            // Else put them at the end of the list\n            else {\n                providerID[msg.sender] = numProviders;\n            }\n            // These update either way\n            providers[providerID[msg.sender]] = prov;\n            numProviders++;\n        }\n        else { // Updating old provider -- address is on the chain\n            providers[providerID[msg.sender]].maxTime = maxTime;\n            providers[providerID[msg.sender]].maxTarget = maxTarget;\n            providers[providerID[msg.sender]].minPrice = minPrice;\n        }\n    }\n\n    // Treats msg.sender as provider and makes them unavailable for requests\n    function stopProviding() public {\n        // If the sender is already a valid provider\n        if (providers[providerID[msg.sender]].addr == msg.sender) {\n            providers[providerID[msg.sender]].available = false;\n            providers[providerID[msg.sender]].addr = address(0);\n            // checking that theyre not the last provider to register \n            if (providerID[msg.sender] != numProviders-1) {\n                // Label ID as vacant\n                spaces.push(providerID[msg.sender]);\n            }\n            numProviders--;\n        }\n    }\n\n    // Used to be sure you are seen as available. e.g. power outage caused you to lose available status on network.\n    // Not to be called after stopProviding to resume -- startProviding used in this case.\n    //function restart() public returns (bool) {\n    //if (providers[providerID[msg.sender]].addr == msg.sender) {\n    //     providers[providerID[msg.sender]].available = true;\n    //       return true;\n    //    }\n    //else {\n    //    return false; // provider wasnt found in mapping\n    //  }\n    //}\n\n    // Used to dynamically remove elements from array of open provider spaces. \n    function pop()  private returns(uint64) {\n        if (spaces.length < 1) return 0x0;\n        uint64 value = spaces[spaces.length-1];\n        delete spaces[spaces.length-1];\n        spaces.length--;\n        return value;\n    }\n\n\n\n\n\n    // Requester will call contract so it can find a provider for task.\n    // Requester calls this function with:\n    // dataID, target (accuracy), timeLimit, msg.value > 0\n    // Assumes price is including the cost for verification\n    function requestTask(uint64 dataID, uint16 target, uint64 time) payable public returns (bool) {\n        bool[] memory emptyArray;\n        Request memory req = Request(msg.sender, address(0), requestCount, dataID, time, target, msg.value, 0, 0, emptyArray, false, false);\n        return assignTask(req);\n    }\n\n    // Assigning task to one of the available providers. Only called from requestTask (private)\n    //function assignTask(uint128 taskID, uint64 dataID, uint16 target, uint64 time, uint256 price) private returns (bool) {\n    function assignTask(Request memory req) private returns (bool) {\n        for (uint64 i = 0; i<numProviders + spaces.length; i++) {\n            // Check if they are active provider\n            if (providers[i].addr == address(0)) {\n                continue;\n            }\n            // Check if request conditions meet the providers requirements\n            if (req.accuracy <= providers[i].maxTarget && req.time <= providers[i].maxTime && req.price >= providers[i].minPrice && providers[i].available) {\n                balances[msg.sender] += msg.value; // records how much the requester sent\n                req.provider = providers[i].addr;\n                requests[requestCount] = req; // save to mapping of requests\n                providers[i].available = false;\n                requestCount++;\n                //EVENT\n                emit TaskAssigned(providers[i].addr, req.reqID); // Let provider listen for this event to see he was selected\n                return true;\n            }\n        }\n        // No provider was found matching the criteria -- request failed\n        req.addr.transfer(req.price); // Returns the ether to the sender \n        return false;\n    }\n\n\n\n\n\n    // Provider will call this when they are done and the data is available.\n    // This will invoke the validation stage\n    function completeTask(uint128 reqID, uint64 resultID) public returns (bool) {\n        // Confirm msg.sender is actually the provider of the task he claims\n        if (msg.sender == requests[reqID].provider) {\n            requests[reqID].complete = true;\n            requests[reqID].resultID = resultID;\n            providers[providerID[msg.sender]].available = true;\n            return validateTask(reqID);\n        }\n        else {\n            return false;\n        }\n    }\n\n    // Called by completeTask before finalizing stuff. Contract checks with validators\n    // Returns false if there wasnt enough free providers to send out the required number of validation requests\n    function validateTask(uint128 reqID) private returns (bool) {\n        uint64 numValidators = 3; // need validation from 1/10 of nodes -- could change\n        //uint numValidators = numProviders / 10; \n        uint validatorsFound = 0;\n        requests[reqID].numValidationsNeeded = numValidators;\n        for (uint64 i=0; i<numProviders + spaces.length && validatorsFound<numValidators; i++) {\n            if (providers[i].addr == address(0)) {\n                continue;\n            }\n            if (providers[i].available) {\n                // EVENT: informs validator that they were selected and need to validate\n                emit ValidationRequested(providers[i].addr, reqID);\n                validatorsFound++;\n            }\n        }\n        if (validatorsFound == numValidators) {\n            return true;\n        }\n        return false;\n    }\n\n\n\n\n\n    // needs to be more secure by ensuring the submission is coming from someone legit \n    function submitValidation(uint128 reqID, bool result) public returns (bool) {\n        // Pay the validator \n        uint partialPayment = requests[reqID].price / 100; // amount each validator is paid\n        msg.sender.transfer(partialPayment);\n        balances[requests[reqID].addr] -= partialPayment;\n        // Put the result in the request struct\n        requests[reqID].validations.push(result);\n        // If enough validations have been submitted\n        if (requests[reqID].validations.length == requests[reqID].numValidationsNeeded) {\n            return checkValidation(reqID, requests[reqID].price - requests[reqID].numValidationsNeeded * partialPayment);\n        }\n    }\n    \n    function checkValidation(uint128 reqID, uint payment) private returns (bool) {\n        // Add up successful validations\n        uint64 successCount = 0;\n        for (uint64 i=0; i<requests[reqID].validations.length; i++) {\n            if (requests[reqID].validations[i]) successCount++;\n        }\n        // if 2/3 of validation attempts were successful\n        if (successCount  >= requests[reqID].numValidationsNeeded * 2 / 3  ) { \n            // if 2/3 of validations were valid then provider gets remainder of money\n            requests[reqID].provider.transfer(payment); \n            balances[requests[reqID].addr] -= payment;\n            requests[reqID].isValid = true; // Task was successfully completed! \n        }\n        // otherwise, work was invalid, the providers payment goes back to requester\n        else {\n            requests[reqID].addr.transfer(payment);\n            balances[requests[reqID].addr] -= payment;\n        }\n        // EVENT: task is done whether successful or not\n        emit TaskCompleted(requests[reqID].addr, reqID);\n        return requests[reqID].isValid;\n    }\n\n\n\n\n    /////////////////////////////////////////////////////////////////////////////////\n    //some helpers defined here\n    function getProvider(uint64 proID) public view returns (address) {\n        return providers[proID].addr;\n    }\n    function getProviderID(address inAddr) public view returns(uint64){\n        return providerID[inAddr];\n    }\n    function testTask() public {\n        emit TaskAssigned(msg.sender, 1);\n    }\n}",
  "sourcePath": "/home/taurus/blockchain/gitLab/bcai/contracts/BCAI.sol",
  "compiler": {
    "name": "solc",
    "version": "0.5.0+commit.1d4f565a.Emscripten.clang"
  },
  "schemaVersion": "3.0.0-beta.2",
  "updatedAt": "2018-11-30T17:28:32.393Z",
  "devdoc": {
    "methods": {}
  },
  "userdoc": {
    "methods": {
      "getProvider(uint64)": {
        "notice": "//////////////////////////////////////////////////////////////////////////////"
      }
    }
  }
}