{
  "contractName": "TaskContract",
  "abi": [
    {
      "constant": true,
      "inputs": [
        {
          "name": "",
          "type": "address"
        }
      ],
      "name": "providerList",
      "outputs": [
        {
          "name": "addr",
          "type": "address"
        },
        {
          "name": "providedCount",
          "type": "uint64"
        },
        {
          "name": "requestedCount",
          "type": "uint64"
        },
        {
          "name": "maxTime",
          "type": "uint64"
        },
        {
          "name": "maxTarget",
          "type": "uint16"
        },
        {
          "name": "minPrice",
          "type": "uint256"
        },
        {
          "name": "available",
          "type": "bool"
        }
      ],
      "payable": false,
      "stateMutability": "view",
      "type": "function",
      "signature": "0x0e1e4a3c"
    },
    {
      "constant": true,
      "inputs": [
        {
          "name": "",
          "type": "address"
        }
      ],
      "name": "balanceList",
      "outputs": [
        {
          "name": "",
          "type": "uint256"
        }
      ],
      "payable": false,
      "stateMutability": "view",
      "type": "function",
      "signature": "0x189258de"
    },
    {
      "constant": true,
      "inputs": [
        {
          "name": "",
          "type": "address"
        }
      ],
      "name": "providerID",
      "outputs": [
        {
          "name": "",
          "type": "uint64"
        }
      ],
      "payable": false,
      "stateMutability": "view",
      "type": "function",
      "signature": "0x2fb41e8b"
    },
    {
      "constant": true,
      "inputs": [],
      "name": "providingCount",
      "outputs": [
        {
          "name": "",
          "type": "uint128"
        }
      ],
      "payable": false,
      "stateMutability": "view",
      "type": "function",
      "signature": "0x3a9d2d14"
    },
    {
      "constant": true,
      "inputs": [
        {
          "name": "",
          "type": "address"
        },
        {
          "name": "",
          "type": "uint256"
        }
      ],
      "name": "requestID",
      "outputs": [
        {
          "name": "",
          "type": "uint128"
        }
      ],
      "payable": false,
      "stateMutability": "view",
      "type": "function",
      "signature": "0x4d4a527f"
    },
    {
      "constant": true,
      "inputs": [],
      "name": "requestCount",
      "outputs": [
        {
          "name": "",
          "type": "uint128"
        }
      ],
      "payable": false,
      "stateMutability": "view",
      "type": "function",
      "signature": "0x5badbe4c"
    },
    {
      "constant": true,
      "inputs": [
        {
          "name": "",
          "type": "uint256"
        }
      ],
      "name": "requestPool",
      "outputs": [
        {
          "name": "",
          "type": "uint128"
        }
      ],
      "payable": false,
      "stateMutability": "view",
      "type": "function",
      "signature": "0x6476b1f8"
    },
    {
      "constant": true,
      "inputs": [],
      "name": "providerCount",
      "outputs": [
        {
          "name": "",
          "type": "uint64"
        }
      ],
      "payable": false,
      "stateMutability": "view",
      "type": "function",
      "signature": "0x74c83268"
    },
    {
      "constant": true,
      "inputs": [
        {
          "name": "",
          "type": "uint128"
        }
      ],
      "name": "requestList",
      "outputs": [
        {
          "name": "addr",
          "type": "address"
        },
        {
          "name": "provider",
          "type": "address"
        },
        {
          "name": "reqID",
          "type": "uint128"
        },
        {
          "name": "dataID",
          "type": "uint64"
        },
        {
          "name": "time",
          "type": "uint64"
        },
        {
          "name": "target",
          "type": "uint16"
        },
        {
          "name": "price",
          "type": "uint256"
        },
        {
          "name": "resultID",
          "type": "uint64"
        },
        {
          "name": "numValidationsNeeded",
          "type": "uint64"
        },
        {
          "name": "isValid",
          "type": "bool"
        },
        {
          "name": "status",
          "type": "bytes1"
        }
      ],
      "payable": false,
      "stateMutability": "view",
      "type": "function",
      "signature": "0xbe1b902a"
    },
    {
      "constant": true,
      "inputs": [
        {
          "name": "",
          "type": "uint256"
        }
      ],
      "name": "providerPool",
      "outputs": [
        {
          "name": "",
          "type": "address"
        }
      ],
      "payable": false,
      "stateMutability": "view",
      "type": "function",
      "signature": "0xcffde943"
    },
    {
      "constant": true,
      "inputs": [],
      "name": "pendingCount",
      "outputs": [
        {
          "name": "",
          "type": "uint128"
        }
      ],
      "payable": false,
      "stateMutability": "view",
      "type": "function",
      "signature": "0xea70b4af"
    },
    {
      "inputs": [],
      "payable": false,
      "stateMutability": "nonpayable",
      "type": "constructor",
      "signature": "constructor"
    },
    {
      "anonymous": false,
      "inputs": [
        {
          "indexed": false,
          "name": "provider",
          "type": "address"
        },
        {
          "indexed": false,
          "name": "reqID",
          "type": "uint128"
        }
      ],
      "name": "TaskAssigned",
      "type": "event",
      "signature": "0xd27799747ac545ab402d86e974399e4a67c184723543c040feada7d7f9754077"
    },
    {
      "anonymous": false,
      "inputs": [
        {
          "indexed": false,
          "name": "validator",
          "type": "address"
        },
        {
          "indexed": false,
          "name": "reqID",
          "type": "uint128"
        }
      ],
      "name": "ValidationRequested",
      "type": "event",
      "signature": "0x559fcc0c049963664708350b3ea9a9785aad74b15e59ce0a3bc69793916a3571"
    },
    {
      "anonymous": false,
      "inputs": [
        {
          "indexed": false,
          "name": "requestor",
          "type": "address"
        },
        {
          "indexed": false,
          "name": "reqID",
          "type": "uint128"
        }
      ],
      "name": "TaskCompleted",
      "type": "event",
      "signature": "0x2e58929ead14966a76340c697b90ba5df5a9d784cb8689f762942b90f81e4528"
    },
    {
      "constant": false,
      "inputs": [
        {
          "name": "maxTime",
          "type": "uint64"
        },
        {
          "name": "maxTarget",
          "type": "uint16"
        },
        {
          "name": "minPrice",
          "type": "uint64"
        }
      ],
      "name": "startProviding",
      "outputs": [
        {
          "name": "",
          "type": "bool"
        }
      ],
      "payable": false,
      "stateMutability": "nonpayable",
      "type": "function",
      "signature": "0x2ddfdbcc"
    },
    {
      "constant": false,
      "inputs": [],
      "name": "stopProviding",
      "outputs": [
        {
          "name": "",
          "type": "bool"
        }
      ],
      "payable": false,
      "stateMutability": "nonpayable",
      "type": "function",
      "signature": "0xb2774934"
    },
    {
      "constant": false,
      "inputs": [
        {
          "name": "dataID",
          "type": "uint64"
        },
        {
          "name": "target",
          "type": "uint16"
        },
        {
          "name": "time",
          "type": "uint64"
        }
      ],
      "name": "requestTask",
      "outputs": [
        {
          "name": "",
          "type": "bytes1"
        }
      ],
      "payable": true,
      "stateMutability": "payable",
      "type": "function",
      "signature": "0xa26ac6de"
    },
    {
      "constant": false,
      "inputs": [],
      "name": "testTask",
      "outputs": [],
      "payable": false,
      "stateMutability": "nonpayable",
      "type": "function",
      "signature": "0x66456317"
    },
    {
      "constant": true,
      "inputs": [
        {
          "name": "addr",
          "type": "address"
        }
      ],
      "name": "getProvider",
      "outputs": [
        {
          "components": [
            {
              "name": "addr",
              "type": "address"
            },
            {
              "name": "providedCount",
              "type": "uint64"
            },
            {
              "name": "requestedCount",
              "type": "uint64"
            },
            {
              "name": "maxTime",
              "type": "uint64"
            },
            {
              "name": "maxTarget",
              "type": "uint16"
            },
            {
              "name": "minPrice",
              "type": "uint256"
            },
            {
              "name": "available",
              "type": "bool"
            }
          ],
          "name": "",
          "type": "tuple"
        }
      ],
      "payable": false,
      "stateMutability": "view",
      "type": "function",
      "signature": "0x55f21eb7"
    },
    {
      "constant": true,
      "inputs": [
        {
          "name": "reqID",
          "type": "uint64"
        }
      ],
      "name": "getRequest",
      "outputs": [
        {
          "components": [
            {
              "name": "addr",
              "type": "address"
            },
            {
              "name": "provider",
              "type": "address"
            },
            {
              "name": "reqID",
              "type": "uint128"
            },
            {
              "name": "dataID",
              "type": "uint64"
            },
            {
              "name": "time",
              "type": "uint64"
            },
            {
              "name": "target",
              "type": "uint16"
            },
            {
              "name": "price",
              "type": "uint256"
            },
            {
              "name": "resultID",
              "type": "uint64"
            },
            {
              "name": "numValidationsNeeded",
              "type": "uint64"
            },
            {
              "name": "validations",
              "type": "bool[]"
            },
            {
              "name": "isValid",
              "type": "bool"
            },
            {
              "name": "status",
              "type": "bytes1"
            }
          ],
          "name": "",
          "type": "tuple"
        }
      ],
      "payable": false,
      "stateMutability": "view",
      "type": "function",
      "signature": "0xcbbf67ec"
    },
    {
      "constant": true,
      "inputs": [],
      "name": "getProviderCount",
      "outputs": [
        {
          "name": "",
          "type": "uint128"
        }
      ],
      "payable": false,
      "stateMutability": "view",
      "type": "function",
      "signature": "0x46ce4175"
    },
    {
      "constant": true,
      "inputs": [],
      "name": "getRequestCount",
      "outputs": [
        {
          "name": "",
          "type": "uint128"
        }
      ],
      "payable": false,
      "stateMutability": "view",
      "type": "function",
      "signature": "0x3fad1834"
    },
    {
      "constant": true,
      "inputs": [],
      "name": "getProviderPool",
      "outputs": [
        {
          "name": "",
          "type": "address[]"
        }
      ],
      "payable": false,
      "stateMutability": "view",
      "type": "function",
      "signature": "0x9e723b97"
    },
    {
      "constant": true,
      "inputs": [],
      "name": "getRequestPool",
      "outputs": [
        {
          "name": "",
          "type": "uint128[]"
        }
      ],
      "payable": false,
      "stateMutability": "view",
      "type": "function",
      "signature": "0xe1a9daef"
    },
    {
      "constant": true,
      "inputs": [],
      "name": "getProviderPoolSize",
      "outputs": [
        {
          "name": "",
          "type": "uint256"
        }
      ],
      "payable": false,
      "stateMutability": "view",
      "type": "function",
      "signature": "0x353b2a1f"
    },
    {
      "constant": true,
      "inputs": [],
      "name": "getRequestPoolSize",
      "outputs": [
        {
          "name": "",
          "type": "uint256"
        }
      ],
      "payable": false,
      "stateMutability": "view",
      "type": "function",
      "signature": "0x5c4c8c4e"
    },
    {
      "constant": true,
      "inputs": [
        {
          "name": "addr",
          "type": "address"
        }
      ],
      "name": "getBalance",
      "outputs": [
        {
          "name": "",
          "type": "uint256"
        }
      ],
      "payable": false,
      "stateMutability": "view",
      "type": "function",
      "signature": "0xf8b2cb4f"
    },
    {
      "constant": true,
      "inputs": [],
      "name": "listRequests",
      "outputs": [
        {
          "components": [
            {
              "name": "addr",
              "type": "address"
            },
            {
              "name": "provider",
              "type": "address"
            },
            {
              "name": "reqID",
              "type": "uint128"
            },
            {
              "name": "dataID",
              "type": "uint64"
            },
            {
              "name": "time",
              "type": "uint64"
            },
            {
              "name": "target",
              "type": "uint16"
            },
            {
              "name": "price",
              "type": "uint256"
            },
            {
              "name": "resultID",
              "type": "uint64"
            },
            {
              "name": "numValidationsNeeded",
              "type": "uint64"
            },
            {
              "name": "validations",
              "type": "bool[]"
            },
            {
              "name": "isValid",
              "type": "bool"
            },
            {
              "name": "status",
              "type": "bytes1"
            }
          ],
          "name": "",
          "type": "tuple[50]"
        }
      ],
      "payable": false,
      "stateMutability": "view",
      "type": "function",
      "signature": "0x53d5b816"
    },
    {
      "constant": true,
      "inputs": [],
      "name": "listProviders",
      "outputs": [
        {
          "components": [
            {
              "name": "addr",
              "type": "address"
            },
            {
              "name": "providedCount",
              "type": "uint64"
            },
            {
              "name": "requestedCount",
              "type": "uint64"
            },
            {
              "name": "maxTime",
              "type": "uint64"
            },
            {
              "name": "maxTarget",
              "type": "uint16"
            },
            {
              "name": "minPrice",
              "type": "uint256"
            },
            {
              "name": "available",
              "type": "bool"
            }
          ],
          "name": "",
          "type": "tuple[50]"
        }
      ],
      "payable": false,
      "stateMutability": "view",
      "type": "function",
      "signature": "0x2bd395a0"
    }
  ],
  "bytecode": "0x608060405234801561001057600080fd5b5060008060006101000a8154816fffffffffffffffffffffffffffffffff02191690836fffffffffffffffffffffffffffffffff1602179055506000600160106101000a81548167ffffffffffffffff021916908367ffffffffffffffff1602179055506000600160006101000a8154816fffffffffffffffffffffffffffffffff02191690836fffffffffffffffffffffffffffffffff16021790555060008060106101000a8154816fffffffffffffffffffffffffffffffff02191690836fffffffffffffffffffffffffffffffff160217905550613fc3806100f66000396000f3fe608060405260043610610154576000357c0100000000000000000000000000000000000000000000000000000000900463ffffffff1680630e1e4a3c14610159578063189258de1461019c5780632bd395a0146101d95780632ddfdbcc146102045780632fb41e8b14610241578063353b2a1f1461027e5780633a9d2d14146102a95780633fad1834146102d457806346ce4175146102ff5780634d4a527f1461032a57806353d5b8161461036757806355f21eb7146103925780635badbe4c146103cf5780635c4c8c4e146103fa5780636476b1f814610425578063664563171461046257806374c83268146104795780639e723b97146104a4578063a26ac6de146104cf578063b2774934146104ff578063be1b902a1461052a578063cbbf67ec14610571578063cffde943146105ae578063e1a9daef146105eb578063ea70b4af14610616578063f8b2cb4f14610641575b600080fd5b34801561016557600080fd5b50610180600480360361017b919081019061341a565b61067e565b6040516101939796959493929190613bcd565b60405180910390f35b3480156101a857600080fd5b506101c360048036036101be919081019061341a565b610737565b6040516101d09190613d4c565b60405180910390f35b3480156101e557600080fd5b506101ee61074f565b6040516101fb9190613c5e565b60405180910390f35b34801561021057600080fd5b5061022b600480360361022691908101906134fa565b61081b565b6040516102389190613cbe565b60405180910390f35b34801561024d57600080fd5b506102686004803603610263919081019061341a565b610e37565b6040516102759190613d67565b60405180910390f35b34801561028a57600080fd5b50610293610e5e565b6040516102a09190613d4c565b60405180910390f35b3480156102b557600080fd5b506102be610e6b565b6040516102cb9190613d31565b60405180910390f35b3480156102e057600080fd5b506102e9610e8d565b6040516102f69190613d31565b60405180910390f35b34801561030b57600080fd5b50610314610eb2565b6040516103219190613d31565b60405180910390f35b34801561033657600080fd5b50610351600480360361034c9190810190613443565b610eda565b60405161035e9190613d31565b60405180910390f35b34801561037357600080fd5b5061037c610f2e565b6040516103899190613c7a565b60405180910390f35b34801561039e57600080fd5b506103b960048036036103b4919081019061341a565b610f99565b6040516103c69190613cf4565b60405180910390f35b3480156103db57600080fd5b506103e4611124565b6040516103f19190613d31565b60405180910390f35b34801561040657600080fd5b5061040f611145565b60405161041c9190613d4c565b60405180910390f35b34801561043157600080fd5b5061044c600480360361044791908101906134a8565b611152565b6040516104599190613d31565b60405180910390f35b34801561046e57600080fd5b50610477611197565b005b34801561048557600080fd5b5061048e6111d3565b60405161049b9190613d67565b60405180910390f35b3480156104b057600080fd5b506104b96111ed565b6040516104c69190613c3c565b60405180910390f35b6104e960048036036104e491908101906134fa565b61127b565b6040516104f69190613cd9565b60405180910390f35b34801561050b57600080fd5b50610514611ae4565b6040516105219190613cbe565b60405180910390f35b34801561053657600080fd5b50610551600480360361054c919081019061347f565b611c45565b6040516105689b9a99989796959493929190613ad0565b60405180910390f35b34801561057d57600080fd5b50610598600480360361059391908101906134d1565b611d92565b6040516105a59190613d0f565b60405180910390f35b3480156105ba57600080fd5b506105d560048036036105d091908101906134a8565b6120d7565b6040516105e29190613ab5565b60405180910390f35b3480156105f757600080fd5b50610600612115565b60405161060d9190613c9c565b60405180910390f35b34801561062257600080fd5b5061062b6121b1565b6040516106389190613d31565b60405180910390f35b34801561064d57600080fd5b506106686004803603610663919081019061341a565b6121d3565b6040516106759190613d4c565b60405180910390f35b60026020528060005260406000206000915090508060000160009054906101000a900473ffffffffffffffffffffffffffffffffffffffff16908060000160149054906101000a900467ffffffffffffffff16908060010160009054906101000a900467ffffffffffffffff16908060010160089054906101000a900467ffffffffffffffff16908060010160109054906101000a900461ffff16908060020154908060030160009054906101000a900460ff16905087565b60086020528060005260406000206000915090505481565b610757612f27565b61075f612f27565b600080600090505b6006805490508167ffffffffffffffff16101561081257600060068054905011156107d75760068167ffffffffffffffff168154811015156107a557fe5b9060005260206000200160009054906101000a900473ffffffffffffffffffffffffffffffffffffffff1691506107dc565b600091505b6107e582610f99565b838267ffffffffffffffff166032811015156107fd57fe5b60200201819052508080600101915050610767565b50819250505090565b60008073ffffffffffffffffffffffffffffffffffffffff16600260003373ffffffffffffffffffffffffffffffffffffffff1673ffffffffffffffffffffffffffffffffffffffff16815260200190815260200160002060000160009054906101000a900473ffffffffffffffffffffffffffffffffffffffff1673ffffffffffffffffffffffffffffffffffffffff161415610cbd5733600260003373ffffffffffffffffffffffffffffffffffffffff1673ffffffffffffffffffffffffffffffffffffffff16815260200190815260200160002060000160006101000a81548173ffffffffffffffffffffffffffffffffffffffff021916908373ffffffffffffffffffffffffffffffffffffffff160217905550600160109054906101000a900467ffffffffffffffff16600260003373ffffffffffffffffffffffffffffffffffffffff1673ffffffffffffffffffffffffffffffffffffffff16815260200190815260200160002060000160146101000a81548167ffffffffffffffff021916908367ffffffffffffffff1602179055506000600260003373ffffffffffffffffffffffffffffffffffffffff1673ffffffffffffffffffffffffffffffffffffffff16815260200190815260200160002060010160006101000a81548167ffffffffffffffff021916908367ffffffffffffffff16021790555083600260003373ffffffffffffffffffffffffffffffffffffffff1673ffffffffffffffffffffffffffffffffffffffff16815260200190815260200160002060010160086101000a81548167ffffffffffffffff021916908367ffffffffffffffff16021790555082600260003373ffffffffffffffffffffffffffffffffffffffff1673ffffffffffffffffffffffffffffffffffffffff16815260200190815260200160002060010160106101000a81548161ffff021916908361ffff1602179055508167ffffffffffffffff16600260003373ffffffffffffffffffffffffffffffffffffffff1673ffffffffffffffffffffffffffffffffffffffff168152602001908152602001600020600201819055506001600260003373ffffffffffffffffffffffffffffffffffffffff1673ffffffffffffffffffffffffffffffffffffffff16815260200190815260200160002060030160006101000a81548160ff021916908315150217905550600160109054906101000a900467ffffffffffffffff16600360003373ffffffffffffffffffffffffffffffffffffffff1673ffffffffffffffffffffffffffffffffffffffff16815260200190815260200160002060006101000a81548167ffffffffffffffff021916908367ffffffffffffffff16021790555060063390806001815401808255809150509060018203906000526020600020016000909192909190916101000a81548173ffffffffffffffffffffffffffffffffffffffff021916908373ffffffffffffffffffffffffffffffffffffffff160217905550506001601081819054906101000a900467ffffffffffffffff168092919060010191906101000a81548167ffffffffffffffff021916908367ffffffffffffffff16021790555050610e30565b83600260003373ffffffffffffffffffffffffffffffffffffffff1673ffffffffffffffffffffffffffffffffffffffff16815260200190815260200160002060010160086101000a81548167ffffffffffffffff021916908367ffffffffffffffff16021790555082600260003373ffffffffffffffffffffffffffffffffffffffff1673ffffffffffffffffffffffffffffffffffffffff16815260200190815260200160002060010160106101000a81548161ffff021916908361ffff1602179055508167ffffffffffffffff16600260003373ffffffffffffffffffffffffffffffffffffffff1673ffffffffffffffffffffffffffffffffffffffff168152602001908152602001600020600201819055506001600260003373ffffffffffffffffffffffffffffffffffffffff1673ffffffffffffffffffffffffffffffffffffffff16815260200190815260200160002060030160006101000a81548160ff0219169083151502179055505b9392505050565b60036020528060005260406000206000915054906101000a900467ffffffffffffffff1681565b6000600680549050905090565b600160009054906101000a90046fffffffffffffffffffffffffffffffff1681565b60008060009054906101000a90046fffffffffffffffffffffffffffffffff16905090565b6000600160109054906101000a900467ffffffffffffffff1667ffffffffffffffff16905090565b600560205281600052604060002081815481101515610ef557fe5b9060005260206000209060029182820401919006601002915091509054906101000a90046fffffffffffffffffffffffffffffffff1681565b610f36612f56565b610f3e612f56565b60008090505b6007805490508167ffffffffffffffff161015610f9157610f6481611d92565b828267ffffffffffffffff16603281101515610f7c57fe5b60200201819052508080600101915050610f44565b508091505090565b610fa1612f85565b600260008373ffffffffffffffffffffffffffffffffffffffff1673ffffffffffffffffffffffffffffffffffffffff16815260200190815260200160002060e060405190810160405290816000820160009054906101000a900473ffffffffffffffffffffffffffffffffffffffff1673ffffffffffffffffffffffffffffffffffffffff1673ffffffffffffffffffffffffffffffffffffffff1681526020016000820160149054906101000a900467ffffffffffffffff1667ffffffffffffffff1667ffffffffffffffff1681526020016001820160009054906101000a900467ffffffffffffffff1667ffffffffffffffff1667ffffffffffffffff1681526020016001820160089054906101000a900467ffffffffffffffff1667ffffffffffffffff1667ffffffffffffffff1681526020016001820160109054906101000a900461ffff1661ffff1661ffff168152602001600282015481526020016003820160009054906101000a900460ff1615151515815250509050919050565b6000809054906101000a90046fffffffffffffffffffffffffffffffff1681565b6000600780549050905090565b60078181548110151561116157fe5b9060005260206000209060029182820401919006601002915054906101000a90046fffffffffffffffffffffffffffffffff1681565b7fd27799747ac545ab402d86e974399e4a67c184723543c040feada7d7f97540773360016040516111c9929190613b7b565b60405180910390a1565b600160109054906101000a900467ffffffffffffffff1681565b6060600680548060200260200160405190810160405280929190818152602001828054801561127157602002820191906000526020600020905b8160009054906101000a900473ffffffffffffffffffffffffffffffffffffffff1673ffffffffffffffffffffffffffffffffffffffff1681526020019060010190808311611227575b5050505050905090565b6000606033600460008060009054906101000a90046fffffffffffffffffffffffffffffffff166fffffffffffffffffffffffffffffffff166fffffffffffffffffffffffffffffffff16815260200190815260200160002060000160006101000a81548173ffffffffffffffffffffffffffffffffffffffff021916908373ffffffffffffffffffffffffffffffffffffffff1602179055506000600460008060009054906101000a90046fffffffffffffffffffffffffffffffff166fffffffffffffffffffffffffffffffff166fffffffffffffffffffffffffffffffff16815260200190815260200160002060010160006101000a81548173ffffffffffffffffffffffffffffffffffffffff021916908373ffffffffffffffffffffffffffffffffffffffff1602179055506000809054906101000a90046fffffffffffffffffffffffffffffffff16600460008060009054906101000a90046fffffffffffffffffffffffffffffffff166fffffffffffffffffffffffffffffffff166fffffffffffffffffffffffffffffffff16815260200190815260200160002060020160006101000a8154816fffffffffffffffffffffffffffffffff02191690836fffffffffffffffffffffffffffffffff16021790555084600460008060009054906101000a90046fffffffffffffffffffffffffffffffff166fffffffffffffffffffffffffffffffff166fffffffffffffffffffffffffffffffff16815260200190815260200160002060020160106101000a81548167ffffffffffffffff021916908367ffffffffffffffff16021790555082600460008060009054906101000a90046fffffffffffffffffffffffffffffffff166fffffffffffffffffffffffffffffffff166fffffffffffffffffffffffffffffffff16815260200190815260200160002060020160186101000a81548167ffffffffffffffff021916908367ffffffffffffffff16021790555083600460008060009054906101000a90046fffffffffffffffffffffffffffffffff166fffffffffffffffffffffffffffffffff166fffffffffffffffffffffffffffffffff16815260200190815260200160002060030160006101000a81548161ffff021916908361ffff16021790555034600460008060009054906101000a90046fffffffffffffffffffffffffffffffff166fffffffffffffffffffffffffffffffff166fffffffffffffffffffffffffffffffff168152602001908152602001600020600401819055506000600460008060009054906101000a90046fffffffffffffffffffffffffffffffff166fffffffffffffffffffffffffffffffff166fffffffffffffffffffffffffffffffff16815260200190815260200160002060050160006101000a81548167ffffffffffffffff021916908367ffffffffffffffff1602179055506001600460008060009054906101000a90046fffffffffffffffffffffffffffffffff166fffffffffffffffffffffffffffffffff166fffffffffffffffffffffffffffffffff16815260200190815260200160002060050160086101000a81548167ffffffffffffffff021916908367ffffffffffffffff16021790555080600460008060009054906101000a90046fffffffffffffffffffffffffffffffff166fffffffffffffffffffffffffffffffff166fffffffffffffffffffffffffffffffff168152602001908152602001600020600601908051906020019061178a929190612ffd565b506000600460008060009054906101000a90046fffffffffffffffffffffffffffffffff166fffffffffffffffffffffffffffffffff166fffffffffffffffffffffffffffffffff16815260200190815260200160002060070160006101000a81548160ff0219169083151502179055507f3000000000000000000000000000000000000000000000000000000000000000600460008060009054906101000a90046fffffffffffffffffffffffffffffffff166fffffffffffffffffffffffffffffffff166fffffffffffffffffffffffffffffffff16815260200190815260200160002060070160016101000a81548160ff02191690837f01000000000000000000000000000000000000000000000000000000000000009004021790555060076000809054906101000a90046fffffffffffffffffffffffffffffffff16908060018154018082558091505090600182039060005260206000209060029182820401919006601002909192909190916101000a8154816fffffffffffffffffffffffffffffffff02191690836fffffffffffffffffffffffffffffffff16021790555050600560003373ffffffffffffffffffffffffffffffffffffffff1673ffffffffffffffffffffffffffffffffffffffff1681526020019081526020016000206000809054906101000a90046fffffffffffffffffffffffffffffffff16908060018154018082558091505090600182039060005260206000209060029182820401919006601002909192909190916101000a8154816fffffffffffffffffffffffffffffffff02191690836fffffffffffffffffffffffffffffffff1602179055505060008081819054906101000a90046fffffffffffffffffffffffffffffffff168092919060010191906101000a8154816fffffffffffffffffffffffffffffffff02191690836fffffffffffffffffffffffffffffffff160217905550506000601081819054906101000a90046fffffffffffffffffffffffffffffffff168092919060010191906101000a8154816fffffffffffffffffffffffffffffffff02191690836fffffffffffffffffffffffffffffffff16021790555050611ada60016000809054906101000a90046fffffffffffffffffffffffffffffffff160361221c565b9150509392505050565b600060011515600260003373ffffffffffffffffffffffffffffffffffffffff1673ffffffffffffffffffffffffffffffffffffffff16815260200190815260200160002060030160009054906101000a900460ff1615151415611c3d57600260003373ffffffffffffffffffffffffffffffffffffffff1673ffffffffffffffffffffffffffffffffffffffff168152602001908152602001600020600080820160006101000a81549073ffffffffffffffffffffffffffffffffffffffff02191690556000820160146101000a81549067ffffffffffffffff02191690556001820160006101000a81549067ffffffffffffffff02191690556001820160086101000a81549067ffffffffffffffff02191690556001820160106101000a81549061ffff021916905560028201600090556003820160006101000a81549060ff02191690555050611c3633612bad565b9050611c42565b600090505b90565b60046020528060005260406000206000915090508060000160009054906101000a900473ffffffffffffffffffffffffffffffffffffffff16908060010160009054906101000a900473ffffffffffffffffffffffffffffffffffffffff16908060020160009054906101000a90046fffffffffffffffffffffffffffffffff16908060020160109054906101000a900467ffffffffffffffff16908060020160189054906101000a900467ffffffffffffffff16908060030160009054906101000a900461ffff16908060040154908060050160009054906101000a900467ffffffffffffffff16908060050160089054906101000a900467ffffffffffffffff16908060070160009054906101000a900460ff16908060070160019054906101000a90047f01000000000000000000000000000000000000000000000000000000000000000290508b565b611d9a6130a3565b600460008367ffffffffffffffff166fffffffffffffffffffffffffffffffff16815260200190815260200160002061018060405190810160405290816000820160009054906101000a900473ffffffffffffffffffffffffffffffffffffffff1673ffffffffffffffffffffffffffffffffffffffff1673ffffffffffffffffffffffffffffffffffffffff1681526020016001820160009054906101000a900473ffffffffffffffffffffffffffffffffffffffff1673ffffffffffffffffffffffffffffffffffffffff1673ffffffffffffffffffffffffffffffffffffffff1681526020016002820160009054906101000a90046fffffffffffffffffffffffffffffffff166fffffffffffffffffffffffffffffffff166fffffffffffffffffffffffffffffffff1681526020016002820160109054906101000a900467ffffffffffffffff1667ffffffffffffffff1667ffffffffffffffff1681526020016002820160189054906101000a900467ffffffffffffffff1667ffffffffffffffff1667ffffffffffffffff1681526020016003820160009054906101000a900461ffff1661ffff1661ffff168152602001600482015481526020016005820160009054906101000a900467ffffffffffffffff1667ffffffffffffffff1667ffffffffffffffff1681526020016005820160089054906101000a900467ffffffffffffffff1667ffffffffffffffff1667ffffffffffffffff1681526020016006820180548060200260200160405190810160405280929190818152602001828054801561203257602002820191906000526020600020906000905b82829054906101000a900460ff16151581526020019060010190602082600001049283019260010382029150808411611ffc5790505b505050505081526020016007820160009054906101000a900460ff161515151581526020016007820160019054906101000a90047f0100000000000000000000000000000000000000000000000000000000000000027effffffffffffffffffffffffffffffffffffffffffffffffffffffffffffff19167effffffffffffffffffffffffffffffffffffffffffffffffffffffffffffff1916815250509050919050565b6006818154811015156120e657fe5b906000526020600020016000915054906101000a900473ffffffffffffffffffffffffffffffffffffffff1681565b606060078054806020026020016040519081016040528092919081815260200182805480156121a757602002820191906000526020600020906000905b82829054906101000a90046fffffffffffffffffffffffffffffffff166fffffffffffffffffffffffffffffffff1681526020019060100190602082600f010492830192600103820291508084116121525790505b5050505050905090565b600060109054906101000a90046fffffffffffffffffffffffffffffffff1681565b6000600860008373ffffffffffffffffffffffffffffffffffffffff1673ffffffffffffffffffffffffffffffffffffffff168152602001908152602001600020549050919050565b6000806006805490501115612b84576122336130a3565b60046000846fffffffffffffffffffffffffffffffff166fffffffffffffffffffffffffffffffff16815260200190815260200160002061018060405190810160405290816000820160009054906101000a900473ffffffffffffffffffffffffffffffffffffffff1673ffffffffffffffffffffffffffffffffffffffff1673ffffffffffffffffffffffffffffffffffffffff1681526020016001820160009054906101000a900473ffffffffffffffffffffffffffffffffffffffff1673ffffffffffffffffffffffffffffffffffffffff1673ffffffffffffffffffffffffffffffffffffffff1681526020016002820160009054906101000a90046fffffffffffffffffffffffffffffffff166fffffffffffffffffffffffffffffffff166fffffffffffffffffffffffffffffffff1681526020016002820160109054906101000a900467ffffffffffffffff1667ffffffffffffffff1667ffffffffffffffff1681526020016002820160189054906101000a900467ffffffffffffffff1667ffffffffffffffff1667ffffffffffffffff1681526020016003820160009054906101000a900461ffff1661ffff1661ffff168152602001600482015481526020016005820160009054906101000a900467ffffffffffffffff1667ffffffffffffffff1667ffffffffffffffff1681526020016005820160089054906101000a900467ffffffffffffffff1667ffffffffffffffff1667ffffffffffffffff168152602001600682018054806020026020016040519081016040528092919081815260200182805480156124d357602002820191906000526020600020906000905b82829054906101000a900460ff1615158152602001906001019060208260000104928301926001038202915080841161249d5790505b505050505081526020016007820160009054906101000a900460ff161515151581526020016007820160019054906101000a90047f0100000000000000000000000000000000000000000000000000000000000000027effffffffffffffffffffffffffffffffffffffffffffffffffffffffffffff19167effffffffffffffffffffffffffffffffffffffffffffffffffffffffffffff191681525050905060008090505b6006805490508167ffffffffffffffff161015612b0b57600060068267ffffffffffffffff168154811015156125ab57fe5b9060005260206000200160009054906101000a900473ffffffffffffffffffffffffffffffffffffffff169050600073ffffffffffffffffffffffffffffffffffffffff168173ffffffffffffffffffffffffffffffffffffffff1614158015612668575060011515600260008373ffffffffffffffffffffffffffffffffffffffff1673ffffffffffffffffffffffffffffffffffffffff16815260200190815260200160002060030160009054906101000a900460ff161515145b15612afd57600260008273ffffffffffffffffffffffffffffffffffffffff1673ffffffffffffffffffffffffffffffffffffffff16815260200190815260200160002060010160109054906101000a900461ffff1661ffff168360a0015161ffff16111580156127475750600260008273ffffffffffffffffffffffffffffffffffffffff1673ffffffffffffffffffffffffffffffffffffffff16815260200190815260200160002060010160089054906101000a900467ffffffffffffffff1667ffffffffffffffff16836080015167ffffffffffffffff1611155b80156127995750600260008273ffffffffffffffffffffffffffffffffffffffff1673ffffffffffffffffffffffffffffffffffffffff168152602001908152602001600020600201548360c0015110155b15612afc576000600260008373ffffffffffffffffffffffffffffffffffffffff1673ffffffffffffffffffffffffffffffffffffffff16815260200190815260200160002060030160006101000a81548160ff021916908315150217905550600061280482612bad565b9050801515612839577f3300000000000000000000000000000000000000000000000000000000000000945050505050612ba8565b8160046000886fffffffffffffffffffffffffffffffff166fffffffffffffffffffffffffffffffff16815260200190815260200160002060010160006101000a81548173ffffffffffffffffffffffffffffffffffffffff021916908373ffffffffffffffffffffffffffffffffffffffff1602179055507f310000000000000000000000000000000000000000000000000000000000000060046000886fffffffffffffffffffffffffffffffff166fffffffffffffffffffffffffffffffff16815260200190815260200160002060070160016101000a81548160ff02191690837f01000000000000000000000000000000000000000000000000000000000000009004021790555061294e86612d62565b9050801515612983577f3300000000000000000000000000000000000000000000000000000000000000945050505050612ba8565b8360c0015160086000866000015173ffffffffffffffffffffffffffffffffffffffff1673ffffffffffffffffffffffffffffffffffffffff168152602001908152602001600020600082825401925050819055506000601081819054906101000a90046fffffffffffffffffffffffffffffffff16809291906001900391906101000a8154816fffffffffffffffffffffffffffffffff02191690836fffffffffffffffffffffffffffffffff160217905550506001600081819054906101000a90046fffffffffffffffffffffffffffffffff168092919060010191906101000a8154816fffffffffffffffffffffffffffffffff02191690836fffffffffffffffffffffffffffffffff160217905550507fd27799747ac545ab402d86e974399e4a67c184723543c040feada7d7f97540778287604051612ac8929190613ba4565b60405180910390a17f3000000000000000000000000000000000000000000000000000000000000000945050505050612ba8565b5b508080600101915050612579565b50806000015173ffffffffffffffffffffffffffffffffffffffff166108fc8260c001519081150290604051600060405180830381858888f19350505050158015612b5a573d6000803e3d6000fd5b507f3100000000000000000000000000000000000000000000000000000000000000915050612ba8565b7f320000000000000000000000000000000000000000000000000000000000000090505b919050565b600080600090505b6006805490508167ffffffffffffffff161015612d57578273ffffffffffffffffffffffffffffffffffffffff1660068267ffffffffffffffff16815481101515612bfc57fe5b9060005260206000200160009054906101000a900473ffffffffffffffffffffffffffffffffffffffff1673ffffffffffffffffffffffffffffffffffffffff161415612d4a576006600160068054905003815481101515612c5a57fe5b9060005260206000200160009054906101000a900473ffffffffffffffffffffffffffffffffffffffff1660068267ffffffffffffffff16815481101515612c9e57fe5b9060005260206000200160006101000a81548173ffffffffffffffffffffffffffffffffffffffff021916908373ffffffffffffffffffffffffffffffffffffffff1602179055506006600160068054905003815481101515612cfd57fe5b9060005260206000200160006101000a81549073ffffffffffffffffffffffffffffffffffffffff02191690556006805480919060019003612d3f9190613193565b506001915050612d5d565b8080600101915050612bb5565b50600090505b919050565b600080600090505b6007805490508167ffffffffffffffff161015612f1c57826fffffffffffffffffffffffffffffffff1660078267ffffffffffffffff16815481101515612dad57fe5b90600052602060002090600291828204019190066010029054906101000a90046fffffffffffffffffffffffffffffffff166fffffffffffffffffffffffffffffffff161415612f0f576007600160078054905003815481101515612e0e57fe5b90600052602060002090600291828204019190066010029054906101000a90046fffffffffffffffffffffffffffffffff1660078267ffffffffffffffff16815481101515612e5957fe5b90600052602060002090600291828204019190066010026101000a8154816fffffffffffffffffffffffffffffffff02191690836fffffffffffffffffffffffffffffffff1602179055506007600160078054905003815481101515612ebb57fe5b90600052602060002090600291828204019190066010026101000a8154906fffffffffffffffffffffffffffffffff02191690556007805480919060019003612f0491906131bf565b506001915050612f22565b8080600101915050612d6a565b50600090505b919050565b612bc0604051908101604052806032905b612f406131f9565b815260200190600190039081612f385790505090565b614b00604051908101604052806032905b612f6f613271565b815260200190600190039081612f675790505090565b60e060405190810160405280600073ffffffffffffffffffffffffffffffffffffffff168152602001600067ffffffffffffffff168152602001600067ffffffffffffffff168152602001600067ffffffffffffffff168152602001600061ffff168152602001600081526020016000151581525090565b82805482825590600052602060002090601f016020900481019282156130925791602002820160005b8382111561306357835183826101000a81548160ff0219169083151502179055509260200192600101602081600001049283019260010302613026565b80156130905782816101000a81549060ff0219169055600101602081600001049283019260010302613063565b505b50905061309f9190613361565b5090565b61018060405190810160405280600073ffffffffffffffffffffffffffffffffffffffff168152602001600073ffffffffffffffffffffffffffffffffffffffff16815260200160006fffffffffffffffffffffffffffffffff168152602001600067ffffffffffffffff168152602001600067ffffffffffffffff168152602001600061ffff16815260200160008152602001600067ffffffffffffffff168152602001600067ffffffffffffffff1681526020016060815260200160001515815260200160007effffffffffffffffffffffffffffffffffffffffffffffffffffffffffffff191681525090565b8154818355818111156131ba578183600052602060002091820191016131b99190613391565b5b505050565b8154818355818111156131f45760010160029004816001016002900483600052602060002091820191016131f39190613391565b5b505050565b60e060405190810160405280600073ffffffffffffffffffffffffffffffffffffffff168152602001600067ffffffffffffffff168152602001600067ffffffffffffffff168152602001600067ffffffffffffffff168152602001600061ffff168152602001600081526020016000151581525090565b61018060405190810160405280600073ffffffffffffffffffffffffffffffffffffffff168152602001600073ffffffffffffffffffffffffffffffffffffffff16815260200160006fffffffffffffffffffffffffffffffff168152602001600067ffffffffffffffff168152602001600067ffffffffffffffff168152602001600061ffff16815260200160008152602001600067ffffffffffffffff168152602001600067ffffffffffffffff1681526020016060815260200160001515815260200160007effffffffffffffffffffffffffffffffffffffffffffffffffffffffffffff191681525090565b61338e91905b8082111561338a57600081816101000a81549060ff021916905550600101613367565b5090565b90565b6133b391905b808211156133af576000816000905550600101613397565b5090565b90565b60006133c28235613ee7565b905092915050565b60006133d68235613ef9565b905092915050565b60006133ea8235613f15565b905092915050565b60006133fe8235613f23565b905092915050565b60006134128235613f2d565b905092915050565b60006020828403121561342c57600080fd5b600061343a848285016133b6565b91505092915050565b6000806040838503121561345657600080fd5b6000613464858286016133b6565b9250506020613475858286016133f2565b9150509250929050565b60006020828403121561349157600080fd5b600061349f848285016133ca565b91505092915050565b6000602082840312156134ba57600080fd5b60006134c8848285016133f2565b91505092915050565b6000602082840312156134e357600080fd5b60006134f184828501613406565b91505092915050565b60008060006060848603121561350f57600080fd5b600061351d86828701613406565b935050602061352e868287016133de565b925050604061353f86828701613406565b9150509250925092565b61355281613f41565b82525050565b61356181613e35565b82525050565b600061357282613dbd565b80845260208401935061358483613d82565b60005b828110156135b65761359a868351613558565b6135a382613df4565b9150602086019550600181019050613587565b50849250505092915050565b60006135cd82613dc8565b8084526020840193506135df83613d8f565b60005b82811015613611576135f5868351613728565b6135fe82613e01565b91506020860195506001810190506135e2565b50849250505092915050565b61362681613dd3565b61362f82613d9c565b60005b82811015613661576136458583516137e3565b61364e82613e0e565b915060e085019450600181019050613632565b5050505050565b600061367382613dde565b8360208202850161368385613da6565b60005b848110156136bc57838303885261369e838351613975565b92506136a982613e1b565b9150602088019750600181019050613686565b508196508694505050505092915050565b60006136d882613de9565b8084526020840193506136ea83613db0565b60005b8281101561371c57613700868351613a79565b61370982613e28565b91506020860195506001810190506136ed565b50849250505092915050565b61373181613e47565b82525050565b61374081613e53565b82525050565b61374f81613f53565b82525050565b60e08201600082015161376b6000850182613558565b50602082015161377e6020850182613aa6565b5060408201516137916040850182613aa6565b5060608201516137a46060850182613aa6565b5060808201516137b76080850182613a88565b5060a08201516137ca60a0850182613a97565b5060c08201516137dd60c0850182613728565b50505050565b60e0820160008201516137f96000850182613558565b50602082015161380c6020850182613aa6565b50604082015161381f6040850182613aa6565b5060608201516138326060850182613aa6565b5060808201516138456080850182613a88565b5060a082015161385860a0850182613a97565b5060c082015161386b60c0850182613728565b50505050565b60006101808301600083015161388a6000860182613558565b50602083015161389d6020860182613558565b5060408301516138b06040860182613a79565b5060608301516138c36060860182613aa6565b5060808301516138d66080860182613aa6565b5060a08301516138e960a0860182613a88565b5060c08301516138fc60c0860182613a97565b5060e083015161390f60e0860182613aa6565b50610100830151613924610100860182613aa6565b5061012083015184820361012086015261393e82826135c2565b915050610140830151613955610140860182613728565b5061016083015161396a610160860182613737565b508091505092915050565b60006101808301600083015161398e6000860182613558565b5060208301516139a16020860182613558565b5060408301516139b46040860182613a79565b5060608301516139c76060860182613aa6565b5060808301516139da6080860182613aa6565b5060a08301516139ed60a0860182613a88565b5060c0830151613a0060c0860182613a97565b5060e0830151613a1360e0860182613aa6565b50610100830151613a28610100860182613aa6565b50610120830151848203610120860152613a4282826135c2565b915050610140830151613a59610140860182613728565b50610160830151613a6e610160860182613737565b508091505092915050565b613a8281613e7f565b82525050565b613a9181613e9b565b82525050565b613aa081613ec9565b82525050565b613aaf81613ed3565b82525050565b6000602082019050613aca6000830184613558565b92915050565b600061016082019050613ae6600083018e613558565b613af3602083018d613558565b613b00604083018c613a79565b613b0d606083018b613aa6565b613b1a608083018a613aa6565b613b2760a0830189613a88565b613b3460c0830188613a97565b613b4160e0830187613aa6565b613b4f610100830186613aa6565b613b5d610120830185613728565b613b6b610140830184613737565b9c9b505050505050505050505050565b6000604082019050613b906000830185613549565b613b9d6020830184613746565b9392505050565b6000604082019050613bb96000830185613549565b613bc66020830184613a79565b9392505050565b600060e082019050613be2600083018a613558565b613bef6020830189613aa6565b613bfc6040830188613aa6565b613c096060830187613aa6565b613c166080830186613a88565b613c2360a0830185613a97565b613c3060c0830184613728565b98975050505050505050565b60006020820190508181036000830152613c568184613567565b905092915050565b6000612bc082019050613c74600083018461361d565b92915050565b60006020820190508181036000830152613c948184613668565b905092915050565b60006020820190508181036000830152613cb681846136cd565b905092915050565b6000602082019050613cd36000830184613728565b92915050565b6000602082019050613cee6000830184613737565b92915050565b600060e082019050613d096000830184613755565b92915050565b60006020820190508181036000830152613d298184613871565b905092915050565b6000602082019050613d466000830184613a79565b92915050565b6000602082019050613d616000830184613a97565b92915050565b6000602082019050613d7c6000830184613aa6565b92915050565b6000602082019050919050565b6000602082019050919050565b6000819050919050565b6000819050919050565b6000602082019050919050565b600081519050919050565b600081519050919050565b600060329050919050565b600060329050919050565b600081519050919050565b6000602082019050919050565b6000602082019050919050565b6000602082019050919050565b6000602082019050919050565b6000602082019050919050565b6000613e4082613ea9565b9050919050565b60008115159050919050565b60007fff0000000000000000000000000000000000000000000000000000000000000082169050919050565b60006fffffffffffffffffffffffffffffffff82169050919050565b600061ffff82169050919050565b600073ffffffffffffffffffffffffffffffffffffffff82169050919050565b6000819050919050565b600067ffffffffffffffff82169050919050565b6000613ef282613ea9565b9050919050565b60006fffffffffffffffffffffffffffffffff82169050919050565b600061ffff82169050919050565b6000819050919050565b600067ffffffffffffffff82169050919050565b6000613f4c82613f65565b9050919050565b6000613f5e82613e7f565b9050919050565b6000613f7082613f77565b9050919050565b6000613f8282613ea9565b905091905056fea265627a7a72305820bc201aff316391949327a4c5243ec000190d94c7f1c5ce8da20b63de9bee1fd26c6578706572696d656e74616cf50037",
  "source": "//version 0.9\n//Author: Taurus, Landry\n//Copyright: tlu4@lsu.edu\n\npragma solidity ^0.5.0;\npragma experimental ABIEncoderV2;   //return self-defined type\n\ncontract TaskContract {\n\n    uint128 public requestCount;                    //total number of requests sent to contract\n    uint128 public pendingCount;                    //totla # of requests pending (after submission before assigned)\n    uint128 public providingCount;                  //total number of requests that contract found provider for\n    uint64  public providerCount;                    //number of active providers in the mapping below\n    mapping (address => Provider) public providerList;   //list of known providers. must apply. maps providerID to struct\n    mapping (address => uint64) public providerID;      //look up providerID using address     NOTE: possible not needed\n    //NOTE: addr is the only identifier for provider object.\n    //However, providerID could possibly be same between different address.\n    //e.g. Tom has Two account with addr_1, addr_2, but he could be assigned an unique providerID.\n\n    mapping (uint128 => Request) public requestList;    //mapping requestCount to Request object, requestCount is the unique number used as identifier\n    mapping (address => uint128[]) public requestID;      //look up requestID using user address , NOTE: single user could have multiply requestID\n    //for the request, requestID(uint128) is the only identifier.\n    //address is not because multiple request could come from same address\n\n    address payable [] public  providerPool;                   //record the available providers;\n    uint128[] public requestPool;                    //record the pending request;\n    //uint64[] public spaces;                             //Open spaces where providers left. should be filled when new provider comes\n    mapping (address => uint256) public balanceList;    //for keeping track of how much money requesters have sent\n    \n\n    constructor() public {      //sol 5.0 syntax\n        requestCount = 0;        \n        providerCount = 0;\n        providingCount = 0;\n        pendingCount = 0;\n    }\n\n    struct Request {\n        address payable addr;       //payable is new feature from sol v5.0\n        address payable provider;   //addr of worker\n        uint128 reqID;              //requestID is the only identifier for each Request\n        uint64  dataID;             //dataID used to fetch the off-chain data\n        uint64  time;               //time\n        uint16  target;           //target 0-100.00\n        uint256 price;              //the max amount he can pay\n        uint64  resultID;           //dataID to fetch the result\n        uint64  numValidationsNeeded;   //user defined the validation\n        bool[]  validations;        //multisignature from validations\n        bool    isValid;            //the final flag\n        byte   status;              //0: 'pending', 1:'providing', 2: validating, 3: complete\n    }\n\n    struct Provider {\n        address payable addr;       //providers address\n        uint64  providedCount;      //reputaion-like reference for each provider, future use\n        uint64  requestedCount;     //\n        uint64  maxTime;            //max time\n        uint16  maxTarget;          //max target he need\n        uint256 minPrice;           //lowest price can accept\n        bool    available;          // Used to determine if provider is already doing something\n    }\n\n    event TaskAssigned(address provider, uint128 reqID);            // next step: call completeTask\n    event ValidationRequested(address validator, uint128 reqID);    // next step: validator calls submitValidation\n    event TaskCompleted(address requestor, uint128 reqID);          // done\n\n\n\n\n    //tips on saving gas cost: don't create local copy and write back, modify the storage directly.\n    /* function startProviding(uint64 maxTime, uint16 maxTarget, uint64 minPrice) public returns (bool) {\n        // If new provider,\n        if (providerList[msg.sender].addr == address(0)) { \n            //create temp object\n            Provider memory prov = Provider(\n                msg.sender,    //addr \n                0,             //prividedCount\n                0,             //requestedCount\n                maxTime,       //maxTime\n                maxTarget,     //maxTarget\n                minPrice,      //minPrice\n                true);         //available\n            //write to providerList\n            providerList[msg.sender] = prov;\n            //add to providerID list\n            providerID[msg.sender] = providerCount;\n            //add to Pool\n            providerPool.push(msg.sender);\n            //update count\n            providerCount++;      \n        }\n        else { // Updating old provider -- address is on the chain\n            //create temp object\n            providerList[msg.sender].maxTime = maxTime;\n            providerList[msg.sender].maxTarget = maxTarget;\n            providerList[msg.sender].minPrice = minPrice;\n\t        providerList[msg.sender].available = true;\n        }\n    }*/\n\n    // Function called to become a provider of tasks for anyone requesting. \n    // NOTE: does nothing if already a provider - also used to update\n    function startProviding(uint64 maxTime, uint16 maxTarget, uint64 minPrice) public returns (bool) {\n        //NOTE: avoid using local memory copy and write back to providerList\n        // modify it directly here will save gas cost\n        // If new provider,\n        if (providerList[msg.sender].addr == address(0)) { \n            //update providerList\n            providerList[msg.sender].addr           = msg.sender;   \n            providerList[msg.sender].providedCount  = providerCount;             \n            providerList[msg.sender].requestedCount = 0;             \n            providerList[msg.sender].maxTime        = maxTime;       \n            providerList[msg.sender].maxTarget      = maxTarget;\n            providerList[msg.sender].minPrice       = minPrice;\n            providerList[msg.sender].available      = true;         \n           \n            //add to providerID list\n            providerID[msg.sender] = providerCount;\n            //add to Pool\n            providerPool.push(msg.sender);\n            //update count\n            providerCount++;      \n        }\n        else { // Updating old provider -- address is on the chain\n            //TODO: potentially save some gas: \n            //if(providerList[msg.sender].maxTime != maxTime)\n            providerList[msg.sender].maxTime = maxTime;\n            providerList[msg.sender].maxTarget = maxTarget;\n            providerList[msg.sender].minPrice = minPrice;\n\t        providerList[msg.sender].available = true;\n        }\n    }\n\n    // Treats msg.sender as provider and makes them unavailable for requests\n    function stopProviding() public returns (bool) {\n        // If the sender is currently an active provider\n        if (providerList[msg.sender].available == true) {\n            //delete set all member to 0;\n            delete providerList[msg.sender];  \n            //pop out from Pool  \n            return providerPop(msg.sender); \n        } else //available == false \n            return false;\n    }\n\n    // Used to be sure you are seen as available. e.g. power outage caused you to lose available status on network.\n    // Not to be called after stopProviding to resume -- startProviding used in this case.\n    //function restart() public returns (bool) {\n    //if (providerList[providerID[msg.sender]].addr == msg.sender) {\n    //     providers[providerID[msg.sender]].available = true;\n    //       return true;\n    //    }\n    //else {\n    //    return false; // provider wasnt found in mapping\n    //  }\n    //}\n\n\n    // Search in the requestPool, find a job for current provider. Triggered by startProviding\n    // Return true if a match or false if not.\n    // Returns: 0: successfully assigned\n    //          1: searched all providers but find no match\n    //          2: no available provider right now\n    function findRequest(Provider memory prov) private returns (byte){\n        if(requestPool.length == 0) return '2';\n        else {\n            for (uint128 i = 0; i< requestPool.length; i++){\n                //fetch  request object, may save gas\n                Request memory req = requestList[requestPool[i]];\n                if( req.time < prov.maxTime &&\n                    req.target < prov.maxTarget &&\n                    req.price > prov.minPrice){\n                        //meet the requirement, assign the task\n                        //update task\n                        req.provider = prov.addr;\n                        req.status = '1';\n                        requestList[requestPool[i]] = req;  //write back to storage\n                        emit TaskAssigned(req.provider, req.reqID);\n                        //update pools\n                        requestPop(req.reqID);\n                        providerPop(prov.addr); \n                        //update the counts\n                        pendingCount--;\n                        providingCount++;\n                        return '0';\n                    \n                }\n                \n            }\n            //after for loop and no match\n            return '1';\n        }\n    }\n\n\n\n\n\n    // Requester will call contract so it can find a provider for task.\n    // Requester calls this function with:\n    // dataID, target (accuracy), timeLimit, msg.value > 0\n    // Assumes price is including the cost for verification\n    function requestTask(uint64 dataID, uint16 target, uint64 time) payable public returns (byte) {\n        bool[] memory emptyArray;\n        \n        requestList[requestCount].addr      = msg.sender;\n        requestList[requestCount].provider  = address(0);\n        requestList[requestCount].reqID     = requestCount; //used as index\n        requestList[requestCount].dataID    = dataID;\n        requestList[requestCount].time      = time;    \n        requestList[requestCount].target    = target;\n        requestList[requestCount].price     = msg.value;\n        requestList[requestCount].resultID  = 0;\n        requestList[requestCount].numValidationsNeeded = 1;\n        requestList[requestCount].validations = emptyArray;\n        requestList[requestCount].isValid   = false;\n        requestList[requestCount].status    = '0' ;     //pending\n\n        //add new to requestPool\n        requestPool.push(requestCount);\n        //update requestID\n        requestID[msg.sender].push(requestCount);\n        //update count\n        requestCount++;     //count already stands for the # of req now.\n        pendingCount++;\n        return assignTask(requestCount -1);\n    }\n\n    /*function requestTask(uint64 dataID, uint16 target, uint64 time) payable public returns (bool) {\n        bool[] memory emptyArray;\n        Request memory req = Request(           //create a temp memory var\n            msg.sender,             //addr\n            address(0),             //provider\n            requestCount,           //reqID\n            dataID,                 //dataID\n            time,                   //time    \n            target,                 //target   0-100\n            msg.value,              //price \n            0,                      //resultID\n            1,                      //numValidationsNeeded\n            emptyArray,             //sig list\n            false,                  //isValid\n            0                       //status  0-3 0: pending\n        );\n\n        //copy the mem var into storage\n        requestList[requestCount] = req;        //requestCount used as index here, from 0 to +++\n        //add new to requestPool\n        requestPool.push(requestCount);\n        //update requestID\n        requestID[msg.sender].push(requestCount);\n        //update count\n        requestCount++;     //count already stands for the # of req now.\n        pendingCount++;\n        return assignTask();\n    }*/\n\n\n    // Assigning one task to one of the available providers. Only called from requestTask (private)\n    // Search in the providerPool, if no match in the end, return false\n    //could only assign one task at a time\n    //auto sel the first searching result for now, no comparation between multiple availability.\n    //TODO: need ot add preference next patch\n    function assignTask(uint128 reqID) private returns (byte) {\n        //provider availability is checked in pool not in list\n        if (providerPool.length > 0){            //if any provider in pool\n            Request memory req = requestList[reqID];\n            //assign it to the provider pool.\n            for (uint64 i = 0; i < providerPool.length; i++) {\n                // Check if they are active provider, search pool first then list\n                address payable addr  = providerPool[i];\n                if(addr != address(0) && providerList[addr].available == true){\n                    // Check if request conditions meet the providers requirements\n                    if (req.target <= providerList[addr].maxTarget && \n                            req.time <= providerList[addr].maxTime && \n                            req.price >= providerList[addr].minPrice) {\n                        //update provider:\n                        providerList[addr].available = false;\n                        bool isPopped = providerPop(addr);\n                        if(!isPopped) return '3';\n\n                        //update request\n                        requestList[reqID].provider = addr;\n                        requestList[reqID].status = '1';    //providing\n                        isPopped = requestPop(reqID);\n                        if(!isPopped) return '3';\n\n                        //update balanceList              \n                        balanceList[req.addr] += req.price; \n                                               \n                        //status move from pending to providing\n                        pendingCount--;\n                        providingCount++;\n                        //NOTE: assign existing task should not increase the # of requestCount\n\n                        //EVENT\n                        emit TaskAssigned(addr, reqID); // Let provider listen for this event to see he was selected\n                        return '0';\n                    }\n                }\n            }\n            // No provider was found matching the criteria -- request failed\n            req.addr.transfer(req.price); // Returns the ether to the sender\n            return '1';\n        }\n        else        //requestPool.length == 0\n            return '2';\n    }\n\n\n\n/*\n\n    // Provider will call this when they are done and the data is available.\n    // This will invoke the validation stage\n    function completeTask(uint128 reqID, uint64 resultID) public returns (bool) {\n        // Confirm msg.sender is actually the provider of the task he claims\n        if (msg.sender == requestList[reqID].provider) {\n            requestList[reqID].isCompleted = true;\n            requestList[reqID].resultID = resultID;\n            providerList[providerID[msg.sender]].available = true;\n            return validateTask(reqID);\n        }\n        else {\n            return false;\n        }\n    }\n/*\n    // Called by completeTask before finalizing stuff. Contract checks with validators\n    // Returns false if there wasnt enough free providers to send out the required number of validation requests\n    function validateTask(uint128 reqID) private returns (bool) {\n        uint64 numValidators = 3; // need validation from 1/10 of nodes -- could change\n        //uint numValidators = providerCount / 10; \n        uint validatorsFound = 0;\n        requestList[reqID].numValidationsNeeded = numValidators;\n        for (uint64 i=0; i<providerCount + spaces.length && validatorsFound<numValidators; i++) {\n            if (providerList[i].addr == address(0)) {\n                continue;\n            }\n            if (providerList[i].available) {\n                // EVENT: informs validator that they were selected and need to validate\n                emit ValidationRequested(providerList[i].addr, reqID);\n                validatorsFound++;\n            }\n        }\n        if (validatorsFound == numValidators) {\n            return true;\n        }\n        return false;\n    }\n\n\n\n\n\n    // needs to be more secure by ensuring the submission is coming from someone legit \n    function submitValidation(uint128 reqID, bool result) public returns (bool) {\n        // Pay the validator \n        uint partialPayment = requestList[reqID].price / 100; // amount each validator is paid\n        msg.sender.transfer(partialPayment);\n        balanceList[requestList[reqID].addr] -= partialPayment;\n        // Put the result in the request struct\n        requestList[reqID].validations.push(result);\n        // If enough validations have been submitted\n        if (requestList[reqID].validations.length == requestList[reqID].numValidationsNeeded) {\n            return checkValidation(reqID, requestList[reqID].price - requestList[reqID].numValidationsNeeded * partialPayment);\n        }\n    }\n    \n    function checkValidation(uint128 reqID, uint payment) private returns (bool) {\n        // Add up successful validations\n        uint64 successCount = 0;\n        for (uint64 i=0; i<requestList[reqID].validations.length; i++) {\n            if (requestList[reqID].validations[i]) successCount++;\n        }\n        // if 2/3 of validation attempts were successful\n        if (successCount  >= requestList[reqID].numValidationsNeeded * 2 / 3  ) { \n            // if 2/3 of validations were valid then provider gets remainder of money\n            requestList[reqID].provider.transfer(payment); \n            balanceList[requestList[reqID].addr] -= payment;\n            requestList[reqID].isValid = true; // Task was successfully completed! \n        }\n        // otherwise, work was invalid, the providers payment goes back to requester\n        else {\n            requestList[reqID].addr.transfer(payment);\n            balanceList[requestList[reqID].addr] -= payment;\n        }\n        // EVENT: task is done whether successful or not\n        emit TaskCompleted(requestList[reqID].addr, reqID);\n        return requestList[reqID].isValid;\n    }\n*/\n/////////////////////////////////////////////////////////////////////\n // Used to dynamically remove elements from array of open provider spaces. \n    // Using a swap and delete method, search for the desired addr throughout the whole array\n    // delete the desired and swap the whole with last element\n    function providerPop(address addr) private returns(bool) {\n        for(uint64 i = 0; i < providerPool.length; i++){\n            if (providerPool[i] == addr) {\n                //swap last element with hole\n                providerPool[i] = providerPool[providerPool.length-1];\n                //delete last item\n                delete providerPool[providerPool.length-1];\n                 //decrease size\n                providerPool.length--;\n                return true;\n            }\n        }\n        return false; //fail to search: no matching in pool\n    }\n\n    function requestPop(uint128 reqID) private returns(bool) {\n        for(uint64 i = 0; i < requestPool.length; i++){\n            if (requestPool[i] == reqID) {\n                //swap last element with hole\n                requestPool[i] = requestPool[requestPool.length-1];\n                //delete last item\n                delete requestPool[requestPool.length-1];\n                //decrease size\n                requestPool.length--;\n                return true;\n            }\n        }\n        return false;   //fail to search: no matching in pool\n    }\n\n\n    /////////////////////////////////////////////////////////////////////////////////\n    //some helpers defined here\n    function testTask() public {\n        emit TaskAssigned(msg.sender, 1);\n    }\n    function getProvider(address addr) public view returns(Provider memory){\n        return providerList[addr];\n    }\n    function getRequest(uint64 reqID) public view returns (Request memory){\n\t    return requestList[reqID];\n    }\n    function getProviderCount() public view returns (uint128){\n        return providerCount;\n    }\n    function getRequestCount() public view returns (uint128){\n        return requestCount;\n    }\n    function getProviderPool() public view returns (address payable [] memory){\n        return providerPool;\n    }\n    function getRequestPool() public view returns (uint128[] memory){\n        return requestPool;\n    }\n    function getProviderPoolSize() public view returns (uint256){\n        return providerPool.length;\n    }\n    function getRequestPoolSize() public view returns (uint256){\n        return requestPool.length;\n    }\n    function getBalance(address addr) public view returns (uint256){\n        return balanceList[addr];\n    }\n    function listRequests() public view returns(Request[50] memory){\n\t    Request[50] memory allRequest;\n\t    for (uint64 i = 0; i < requestPool.length; i++){\n\t\t    allRequest[i] = getRequest(i);\n\t    }\n\t    return allRequest;\n    }\n    function listProviders() public view returns(Provider[50] memory){\n        Provider[50] memory allProvider;\n        address addr;\n        for (uint64 i = 0; i < providerPool.length;i++){\n            if(providerPool.length > 0) {\n                addr = providerPool[i];     \n            }else {\n                addr = address(0);\n            }\n            allProvider[i] = getProvider(addr);\n        }\n        return allProvider;\n    }\n    /*function listTestProviders() public view returns(Provider[3] memory){\n        Provider[3] memory allProvider;\n        for (uint64 i = 0; i < 3;i++){\n            allProvider[i] = getTestProvider(i);\n        }\n        return allProvider;\n    }*/\n\n}\n",
  "sourcePath": "/home/taurus/blockchain/gitLab/bcai/contracts/BCAI.sol",
  "compiler": {
    "name": "solc",
    "version": "0.5.0+commit.1d4f565a.Emscripten.clang"
  },
  "schemaVersion": "3.0.0-beta.2",
  "updatedAt": "2018-12-06T01:58:23.205Z",
  "devdoc": {
    "methods": {}
  },
  "userdoc": {
    "methods": {
      "testTask()": {
        "notice": "//////////////////////////////////////////////////////////////////////////////"
      }
    }
  }
}