{
  "contractName": "MarksWill",
  "abi": [
    {
      "constant": true,
      "inputs": [],
      "name": "amount",
      "outputs": [
        {
          "name": "",
          "type": "uint256"
        }
      ],
      "payable": false,
      "stateMutability": "view",
      "type": "function",
      "signature": "0xaa8c217c"
    },
    {
      "inputs": [
        {
          "name": "ddl",
          "type": "uint256"
        },
        {
          "name": "password_p1",
          "type": "uint256"
        },
        {
          "name": "password_p2",
          "type": "uint256"
        }
      ],
      "payable": true,
      "stateMutability": "payable",
      "type": "constructor",
      "signature": "constructor"
    },
    {
      "constant": false,
      "inputs": [],
      "name": "addFund",
      "outputs": [
        {
          "name": "deposit",
          "type": "uint256"
        }
      ],
      "payable": true,
      "stateMutability": "payable",
      "type": "function",
      "signature": "0xa2f09dfa"
    },
    {
      "constant": true,
      "inputs": [],
      "name": "showFund",
      "outputs": [
        {
          "name": "deposit",
          "type": "uint256"
        }
      ],
      "payable": false,
      "stateMutability": "view",
      "type": "function",
      "signature": "0x0ad8abc1"
    },
    {
      "constant": false,
      "inputs": [
        {
          "name": "password_p1",
          "type": "uint256"
        },
        {
          "name": "password_p2",
          "type": "uint256"
        },
        {
          "name": "receiver",
          "type": "address"
        }
      ],
      "name": "withdraw",
      "outputs": [
        {
          "name": "",
          "type": "bool"
        }
      ],
      "payable": false,
      "stateMutability": "nonpayable",
      "type": "function",
      "signature": "0x0ad58d2f"
    },
    {
      "constant": false,
      "inputs": [
        {
          "name": "password",
          "type": "uint256"
        }
      ],
      "name": "cancelWithdraw",
      "outputs": [
        {
          "name": "",
          "type": "bool"
        }
      ],
      "payable": false,
      "stateMutability": "nonpayable",
      "type": "function",
      "signature": "0x9f01f7ba"
    }
  ],
  "bytecode": "0x608060405260006003556040516060806103438339810180604052606081101561002857600080fd5b810190808051906020019092919080519060200190929190805190602001909291905050508260008190555081600181905550806002819055505050506102cf806100746000396000f3fe60806040526004361061006d576000357c0100000000000000000000000000000000000000000000000000000000900463ffffffff1680630ad58d2f146100725780630ad8abc1146100ef5780639f01f7ba1461011a578063a2f09dfa1461016d578063aa8c217c1461018b575b600080fd5b34801561007e57600080fd5b506100d56004803603606081101561009557600080fd5b810190808035906020019092919080359060200190929190803573ffffffffffffffffffffffffffffffffffffffff1690602001909291905050506101b6565b604051808215151515815260200191505060405180910390f35b3480156100fb57600080fd5b5061010461023f565b6040518082815260200191505060405180910390f35b34801561012657600080fd5b506101536004803603602081101561013d57600080fd5b8101908080359060200190929190505050610249565b604051808215151515815260200191505060405180910390f35b610175610283565b6040518082815260200191505060405180910390f35b34801561019757600080fd5b506101a061029d565b6040518082815260200191505060405180910390f35b6000600154841480156101ca575060025483145b80156101d7575060005442105b15610233578173ffffffffffffffffffffffffffffffffffffffff166108fc62015f90600354039081150290604051600060405180830381858888f19350505050158015610229573d6000803e3d6000fd5b5060019050610238565b600090505b9392505050565b6000600354905090565b600080544211801561025c575060025482145b1561027a573373ffffffffffffffffffffffffffffffffffffffff16ff5b60009050919050565b600034600360008282540192505081905550600354905090565b6003548156fea165627a7a723058204f49b60f43834e334a09a58e629fe0ed8f0bad742540d63a14aa04a65bf477960029",
  "source": "/**************************************\nProject p1 for CS4700 Blockchain\nversion 2.9\nauthor list:\tTao Lu \tLandry Mathews\tMiles Vesper\n***************************************/\n\npragma solidity >=0.4.14;\n\n\ncontract MarksWill {\n    uint256 private deadline; //NOTE: this time is UNIX time, not human-readable. \n            //Mr.Mark, please use some online simple tools to generate the UNIX deadline timestamp.\n    uint256 private pwdp1;\n    uint256 private pwdp2;    //first and second part of password\n    uint256 public amount = 0;\n\n    constructor (uint256 ddl, uint256 password_p1, uint256 password_p2) public payable {\n        deadline = ddl;\n        pwdp1 = password_p1;\n        pwdp2 = password_p2;\n    }\n\n    function addFund ( ) public payable returns (uint256 deposit) {\n        amount += msg.value;\n        return amount;\n    }\n\n    function showFund() public view returns (uint256 deposit) {\n        return amount;\n    }\n\n    function withdraw (uint256 password_p1, uint256 password_p2, address payable receiver) public returns (bool) {        \n        if (password_p1 == pwdp1 && password_p2 == pwdp2 && now < deadline) {\n            receiver.transfer(amount - 90000);\n            return true;\n        } else \n            \n            return false;\n    }\n\n    function cancelWithdraw(uint password) public returns (bool) {\n        if (now > deadline && password == pwdp2) {\n            selfdestruct(msg.sender);\n            return true;\n        } else \n        \n            return false;\n    }\n}\n",
  "sourcePath": "/home/taurus/blockchain/gitLab/MarksWill_webpack/contracts/MarksWill.sol",
  "compiler": {
    "name": "solc",
    "version": "0.5.0+commit.1d4f565a.Emscripten.clang"
  },
  "schemaVersion": "3.0.0-beta.2",
  "updatedAt": "2019-03-29T20:45:30.890Z",
  "devdoc": {
    "methods": {}
  },
  "userdoc": {
    "methods": {}
  }
}