{
  "contractName": "MarksWill",
  "abi": [
    {
      "inputs": [
        {
          "name": "ddl",
          "type": "uint256"
        },
        {
          "name": "password_p1",
          "type": "uint256"
        },
        {
          "name": "password_p2",
          "type": "uint256"
        }
      ],
      "payable": true,
      "stateMutability": "payable",
      "type": "constructor"
    },
    {
      "constant": false,
      "inputs": [],
      "name": "addFund",
      "outputs": [
        {
          "name": "deposit",
          "type": "uint256"
        }
      ],
      "payable": true,
      "stateMutability": "payable",
      "type": "function"
    },
    {
      "constant": true,
      "inputs": [],
      "name": "showFund",
      "outputs": [
        {
          "name": "deposit",
          "type": "uint256"
        }
      ],
      "payable": false,
      "stateMutability": "view",
      "type": "function"
    },
    {
      "constant": false,
      "inputs": [
        {
          "name": "password_p1",
          "type": "uint256"
        },
        {
          "name": "password_p2",
          "type": "uint256"
        },
        {
          "name": "receiver",
          "type": "address"
        }
      ],
      "name": "withdraw",
      "outputs": [
        {
          "name": "",
          "type": "bool"
        }
      ],
      "payable": false,
      "stateMutability": "nonpayable",
      "type": "function"
    },
    {
      "constant": false,
      "inputs": [
        {
          "name": "password",
          "type": "uint256"
        }
      ],
      "name": "cancelWithdraw",
      "outputs": [
        {
          "name": "",
          "type": "bool"
        }
      ],
      "payable": false,
      "stateMutability": "nonpayable",
      "type": "function"
    }
  ],
  "bytecode": "0x608060405260006003556040516060806102f283398101806040528101908080519060200190929190805190602001909291908051906020019092919050505082600081905550816001819055508060028190555050505061028c806100666000396000f300608060405260043610610062576000357c0100000000000000000000000000000000000000000000000000000000900463ffffffff1680630ad58d2f146100675780630ad8abc1146100d65780639f01f7ba14610101578063a2f09dfa14610146575b600080fd5b34801561007357600080fd5b506100bc6004803603810190808035906020019092919080359060200190929190803573ffffffffffffffffffffffffffffffffffffffff169060200190929190505050610164565b604051808215151515815260200191505060405180910390f35b3480156100e257600080fd5b506100eb6101ed565b6040518082815260200191505060405180910390f35b34801561010d57600080fd5b5061012c6004803603810190808035906020019092919050505061020c565b604051808215151515815260200191505060405180910390f35b61014e610246565b6040518082815260200191505060405180910390f35b600060015484148015610178575060025483145b8015610185575060005442105b156101e1578173ffffffffffffffffffffffffffffffffffffffff166108fc62015f90600354039081150290604051600060405180830381858888f193505050501580156101d7573d6000803e3d6000fd5b50600190506101e6565b600090505b9392505050565b60003073ffffffffffffffffffffffffffffffffffffffff1631905090565b600080544211801561021f575060025482145b1561023d573373ffffffffffffffffffffffffffffffffffffffff16ff5b60009050919050565b6000346003600082825401925050819055506003549050905600a165627a7a72305820cdb9a400a2ed06776b9d54f3af1511c35cdebf9cd51baca8b474bbd9c5cea8000029",
  "source": "/**************************************\nProject p1 for CS4700 Blockchain\nversion 2.9\nauthor list:\tTao Lu \tLandry Mathews\tMiles Vesper\n***************************************/\n\npragma solidity ^0.4.14;\n\n\ncontract MarksWill {\n    uint256 private deadline; //NOTE: this time is UNIX time, not human-readable. \n            //Mr.Mark, please use some online simple tools to generate the UNIX deadline timestamp.\n    uint256 private pwdp1;\n    uint256 private pwdp2;    //first and second part of password\n    uint256 private amount = 0;\n\n    function MarksWill (uint256 ddl, uint256 password_p1, uint256 password_p2) public payable {\n        deadline = ddl;\n        pwdp1 = password_p1;\n        pwdp2 = password_p2;\n    }\n\n    function addFund ( ) public payable returns (uint deposit) {\n        amount += msg.value;\n        return amount;\n    }\n\n    function showFund() public view returns (uint deposit) {\n        return this.balance;\n    }\n\n    function withdraw (uint256 password_p1, uint256 password_p2, address receiver) public returns (bool) {        \n        if (password_p1 == pwdp1 && password_p2 == pwdp2 && now < deadline) {\n            receiver.transfer(amount - 90000);\n            return true;\n        } else \n            \n            return false;\n    }\n\n    function cancelWithdraw(uint password) public returns (bool) {\n        if (now > deadline && password == pwdp2) {\n            selfdestruct(msg.sender);\n            return true;\n        } else \n        \n            return false;\n    }\n}\n",
  "sourcePath": "/home/taurus/blockchain/gitLab/MarksWill_webpack/contracts/MarksWill.sol",
  "compiler": {
    "name": "solc",
    "version": "0.4.23+commit.124ca40d.Emscripten.clang"
  },
  "schemaVersion": "2.0.0",
  "updatedAt": "2018-12-12T16:55:51.358Z"
}