{
  "contractName": "TaskContract",
  "abi": [
    {
      "constant": true,
      "inputs": [
        {
          "name": "",
          "type": "uint256"
        }
      ],
      "name": "requestList",
      "outputs": [
        {
          "name": "reqID",
          "type": "uint256"
        },
        {
          "name": "blockNumber",
          "type": "uint256"
        },
        {
          "name": "addr",
          "type": "address"
        },
        {
          "name": "provider",
          "type": "address"
        },
        {
          "name": "time",
          "type": "uint64"
        },
        {
          "name": "target",
          "type": "uint16"
        },
        {
          "name": "price",
          "type": "uint256"
        },
        {
          "name": "dataID",
          "type": "uint64"
        },
        {
          "name": "resultID",
          "type": "uint64"
        },
        {
          "name": "numValidationsNeeded",
          "type": "uint64"
        },
        {
          "name": "isValid",
          "type": "bool"
        },
        {
          "name": "status",
          "type": "bytes1"
        }
      ],
      "payable": false,
      "stateMutability": "view",
      "type": "function",
      "signature": "0x02e9d43b"
    },
    {
      "constant": true,
      "inputs": [
        {
          "name": "",
          "type": "uint256"
        }
      ],
      "name": "providerList",
      "outputs": [
        {
          "name": "provID",
          "type": "uint256"
        },
        {
          "name": "blockNumber",
          "type": "uint256"
        },
        {
          "name": "addr",
          "type": "address"
        },
        {
          "name": "maxTime",
          "type": "uint64"
        },
        {
          "name": "maxTarget",
          "type": "uint16"
        },
        {
          "name": "minPrice",
          "type": "uint256"
        },
        {
          "name": "available",
          "type": "bool"
        }
      ],
      "payable": false,
      "stateMutability": "view",
      "type": "function",
      "signature": "0x390bfd3c"
    },
    {
      "constant": true,
      "inputs": [
        {
          "name": "",
          "type": "uint256"
        }
      ],
      "name": "balanceList",
      "outputs": [
        {
          "name": "",
          "type": "uint256"
        }
      ],
      "payable": false,
      "stateMutability": "view",
      "type": "function",
      "signature": "0x599b6808"
    },
    {
      "constant": true,
      "inputs": [
        {
          "name": "",
          "type": "address"
        },
        {
          "name": "",
          "type": "uint256"
        }
      ],
      "name": "providerMap",
      "outputs": [
        {
          "name": "",
          "type": "uint256"
        }
      ],
      "payable": false,
      "stateMutability": "view",
      "type": "function",
      "signature": "0xd2d5d74f"
    },
    {
      "constant": true,
      "inputs": [
        {
          "name": "",
          "type": "address"
        },
        {
          "name": "",
          "type": "uint256"
        }
      ],
      "name": "requestMap",
      "outputs": [
        {
          "name": "",
          "type": "uint256"
        }
      ],
      "payable": false,
      "stateMutability": "view",
      "type": "function",
      "signature": "0xd3cca02e"
    },
    {
      "inputs": [],
      "payable": false,
      "stateMutability": "nonpayable",
      "type": "constructor",
      "signature": "constructor"
    },
    {
      "anonymous": false,
      "inputs": [
        {
          "indexed": false,
          "name": "provID",
          "type": "uint256"
        },
        {
          "indexed": false,
          "name": "addr",
          "type": "address"
        }
      ],
      "name": "ProviderAdded",
      "type": "event",
      "signature": "0xafeb8d353a550fa93ee49e05f2ec51920688cec519f9c53be94a6ffffdf9a534"
    },
    {
      "anonymous": false,
      "inputs": [
        {
          "indexed": false,
          "name": "provID",
          "type": "uint256"
        },
        {
          "indexed": false,
          "name": "addr",
          "type": "address"
        }
      ],
      "name": "ProviderStopped",
      "type": "event",
      "signature": "0x37f095876e7fce8c776261edf08749c7a785891cfcdb3e45e1fe6f0a5085ddb0"
    },
    {
      "anonymous": false,
      "inputs": [
        {
          "indexed": false,
          "name": "provID",
          "type": "uint256"
        },
        {
          "indexed": false,
          "name": "addr",
          "type": "address"
        }
      ],
      "name": "ProviderUpdated",
      "type": "event",
      "signature": "0xd94c593c75e29861632520adc8ad754e10eb195d12baa4d1bf0bfcf23060b8b7"
    },
    {
      "anonymous": false,
      "inputs": [
        {
          "indexed": false,
          "name": "reqID",
          "type": "uint256"
        },
        {
          "indexed": false,
          "name": "provID",
          "type": "uint256"
        }
      ],
      "name": "TaskAssigned",
      "type": "event",
      "signature": "0x25e5c814bf9313a0efe86f97f5d6ad2921089c376aa35ab12fc2c495546755ee"
    },
    {
      "anonymous": false,
      "inputs": [
        {
          "indexed": false,
          "name": "reqID",
          "type": "uint256"
        },
        {
          "indexed": false,
          "name": "addr",
          "type": "address"
        }
      ],
      "name": "RequestAdded",
      "type": "event",
      "signature": "0x1547844676b0fd6479fc29c4babdeba187ee3bbc2b982bad5ad798b75675526d"
    },
    {
      "constant": false,
      "inputs": [
        {
          "name": "maxTime",
          "type": "uint64"
        },
        {
          "name": "maxTarget",
          "type": "uint16"
        },
        {
          "name": "minPrice",
          "type": "uint64"
        }
      ],
      "name": "startProviding",
      "outputs": [
        {
          "name": "",
          "type": "bytes1"
        }
      ],
      "payable": false,
      "stateMutability": "nonpayable",
      "type": "function",
      "signature": "0x2ddfdbcc"
    },
    {
      "constant": false,
      "inputs": [
        {
          "name": "provID",
          "type": "uint256"
        }
      ],
      "name": "stopProviding",
      "outputs": [
        {
          "name": "",
          "type": "bool"
        }
      ],
      "payable": false,
      "stateMutability": "nonpayable",
      "type": "function",
      "signature": "0x15f14e89"
    },
    {
      "constant": false,
      "inputs": [
        {
          "name": "maxTime",
          "type": "uint64"
        },
        {
          "name": "maxTarget",
          "type": "uint16"
        },
        {
          "name": "minPrice",
          "type": "uint64"
        },
        {
          "name": "provID",
          "type": "uint256"
        }
      ],
      "name": "updateProvider",
      "outputs": [
        {
          "name": "",
          "type": "bool"
        }
      ],
      "payable": false,
      "stateMutability": "nonpayable",
      "type": "function",
      "signature": "0xdf4467ab"
    },
    {
      "constant": false,
      "inputs": [
        {
          "name": "dataID",
          "type": "uint64"
        },
        {
          "name": "target",
          "type": "uint16"
        },
        {
          "name": "time",
          "type": "uint64"
        }
      ],
      "name": "requestTask",
      "outputs": [
        {
          "name": "",
          "type": "bytes1"
        }
      ],
      "payable": true,
      "stateMutability": "payable",
      "type": "function",
      "signature": "0xa26ac6de"
    },
    {
      "constant": true,
      "inputs": [],
      "name": "getMyProvID",
      "outputs": [
        {
          "name": "",
          "type": "uint256[]"
        }
      ],
      "payable": false,
      "stateMutability": "view",
      "type": "function",
      "signature": "0x34a7d799"
    },
    {
      "constant": true,
      "inputs": [],
      "name": "getMyReqID",
      "outputs": [
        {
          "name": "",
          "type": "uint256[]"
        }
      ],
      "payable": false,
      "stateMutability": "view",
      "type": "function",
      "signature": "0x269f3558"
    },
    {
      "constant": true,
      "inputs": [
        {
          "name": "addr",
          "type": "address"
        }
      ],
      "name": "getProviderID",
      "outputs": [
        {
          "name": "",
          "type": "uint256[]"
        }
      ],
      "payable": false,
      "stateMutability": "view",
      "type": "function",
      "signature": "0x91bbb902"
    },
    {
      "constant": true,
      "inputs": [
        {
          "name": "addr",
          "type": "address"
        }
      ],
      "name": "getRequestID",
      "outputs": [
        {
          "name": "",
          "type": "uint256[]"
        }
      ],
      "payable": false,
      "stateMutability": "view",
      "type": "function",
      "signature": "0x62e70505"
    },
    {
      "constant": true,
      "inputs": [
        {
          "name": "ID",
          "type": "uint256"
        }
      ],
      "name": "getProvider",
      "outputs": [
        {
          "components": [
            {
              "name": "provID",
              "type": "uint256"
            },
            {
              "name": "blockNumber",
              "type": "uint256"
            },
            {
              "name": "addr",
              "type": "address"
            },
            {
              "name": "maxTime",
              "type": "uint64"
            },
            {
              "name": "maxTarget",
              "type": "uint16"
            },
            {
              "name": "minPrice",
              "type": "uint256"
            },
            {
              "name": "available",
              "type": "bool"
            }
          ],
          "name": "",
          "type": "tuple"
        }
      ],
      "payable": false,
      "stateMutability": "view",
      "type": "function",
      "signature": "0x5c42d079"
    },
    {
      "constant": true,
      "inputs": [
        {
          "name": "ID",
          "type": "uint256"
        }
      ],
      "name": "getRequest",
      "outputs": [
        {
          "components": [
            {
              "name": "reqID",
              "type": "uint256"
            },
            {
              "name": "blockNumber",
              "type": "uint256"
            },
            {
              "name": "addr",
              "type": "address"
            },
            {
              "name": "provider",
              "type": "address"
            },
            {
              "name": "time",
              "type": "uint64"
            },
            {
              "name": "target",
              "type": "uint16"
            },
            {
              "name": "price",
              "type": "uint256"
            },
            {
              "name": "dataID",
              "type": "uint64"
            },
            {
              "name": "resultID",
              "type": "uint64"
            },
            {
              "name": "numValidationsNeeded",
              "type": "uint64"
            },
            {
              "name": "validations",
              "type": "bool[]"
            },
            {
              "name": "isValid",
              "type": "bool"
            },
            {
              "name": "status",
              "type": "bytes1"
            }
          ],
          "name": "",
          "type": "tuple"
        }
      ],
      "payable": false,
      "stateMutability": "view",
      "type": "function",
      "signature": "0xc58343ef"
    },
    {
      "constant": true,
      "inputs": [],
      "name": "getProviderCount",
      "outputs": [
        {
          "name": "",
          "type": "uint256"
        }
      ],
      "payable": false,
      "stateMutability": "view",
      "type": "function",
      "signature": "0x46ce4175"
    },
    {
      "constant": true,
      "inputs": [],
      "name": "getRequestCount",
      "outputs": [
        {
          "name": "",
          "type": "uint256"
        }
      ],
      "payable": false,
      "stateMutability": "view",
      "type": "function",
      "signature": "0x3fad1834"
    },
    {
      "constant": true,
      "inputs": [],
      "name": "getProviderPool",
      "outputs": [
        {
          "name": "",
          "type": "uint256[]"
        }
      ],
      "payable": false,
      "stateMutability": "view",
      "type": "function",
      "signature": "0x9e723b97"
    },
    {
      "constant": true,
      "inputs": [],
      "name": "getRequestPool",
      "outputs": [
        {
          "name": "",
          "type": "uint256[]"
        }
      ],
      "payable": false,
      "stateMutability": "view",
      "type": "function",
      "signature": "0xe1a9daef"
    },
    {
      "constant": true,
      "inputs": [],
      "name": "getProviderPoolSize",
      "outputs": [
        {
          "name": "",
          "type": "uint256"
        }
      ],
      "payable": false,
      "stateMutability": "view",
      "type": "function",
      "signature": "0x353b2a1f"
    },
    {
      "constant": true,
      "inputs": [],
      "name": "getRequestPoolSize",
      "outputs": [
        {
          "name": "",
          "type": "uint256"
        }
      ],
      "payable": false,
      "stateMutability": "view",
      "type": "function",
      "signature": "0x5c4c8c4e"
    },
    {
      "constant": true,
      "inputs": [
        {
          "name": "IDList",
          "type": "uint256[]"
        }
      ],
      "name": "listRequests",
      "outputs": [
        {
          "components": [
            {
              "name": "reqID",
              "type": "uint256"
            },
            {
              "name": "blockNumber",
              "type": "uint256"
            },
            {
              "name": "addr",
              "type": "address"
            },
            {
              "name": "provider",
              "type": "address"
            },
            {
              "name": "time",
              "type": "uint64"
            },
            {
              "name": "target",
              "type": "uint16"
            },
            {
              "name": "price",
              "type": "uint256"
            },
            {
              "name": "dataID",
              "type": "uint64"
            },
            {
              "name": "resultID",
              "type": "uint64"
            },
            {
              "name": "numValidationsNeeded",
              "type": "uint64"
            },
            {
              "name": "validations",
              "type": "bool[]"
            },
            {
              "name": "isValid",
              "type": "bool"
            },
            {
              "name": "status",
              "type": "bytes1"
            }
          ],
          "name": "",
          "type": "tuple[50]"
        }
      ],
      "payable": false,
      "stateMutability": "view",
      "type": "function",
      "signature": "0x0c9a90a3"
    },
    {
      "constant": true,
      "inputs": [],
      "name": "listAllRequests",
      "outputs": [
        {
          "components": [
            {
              "name": "reqID",
              "type": "uint256"
            },
            {
              "name": "blockNumber",
              "type": "uint256"
            },
            {
              "name": "addr",
              "type": "address"
            },
            {
              "name": "provider",
              "type": "address"
            },
            {
              "name": "time",
              "type": "uint64"
            },
            {
              "name": "target",
              "type": "uint16"
            },
            {
              "name": "price",
              "type": "uint256"
            },
            {
              "name": "dataID",
              "type": "uint64"
            },
            {
              "name": "resultID",
              "type": "uint64"
            },
            {
              "name": "numValidationsNeeded",
              "type": "uint64"
            },
            {
              "name": "validations",
              "type": "bool[]"
            },
            {
              "name": "isValid",
              "type": "bool"
            },
            {
              "name": "status",
              "type": "bytes1"
            }
          ],
          "name": "",
          "type": "tuple[50]"
        }
      ],
      "payable": false,
      "stateMutability": "view",
      "type": "function",
      "signature": "0xc02ac059"
    },
    {
      "constant": true,
      "inputs": [],
      "name": "listAllProviders",
      "outputs": [
        {
          "components": [
            {
              "name": "provID",
              "type": "uint256"
            },
            {
              "name": "blockNumber",
              "type": "uint256"
            },
            {
              "name": "addr",
              "type": "address"
            },
            {
              "name": "maxTime",
              "type": "uint64"
            },
            {
              "name": "maxTarget",
              "type": "uint16"
            },
            {
              "name": "minPrice",
              "type": "uint256"
            },
            {
              "name": "available",
              "type": "bool"
            }
          ],
          "name": "",
          "type": "tuple[50]"
        }
      ],
      "payable": false,
      "stateMutability": "view",
      "type": "function",
      "signature": "0x6302d071"
    },
    {
      "constant": true,
      "inputs": [],
      "name": "listProviders",
      "outputs": [
        {
          "components": [
            {
              "name": "provID",
              "type": "uint256"
            },
            {
              "name": "blockNumber",
              "type": "uint256"
            },
            {
              "name": "addr",
              "type": "address"
            },
            {
              "name": "maxTime",
              "type": "uint64"
            },
            {
              "name": "maxTarget",
              "type": "uint16"
            },
            {
              "name": "minPrice",
              "type": "uint256"
            },
            {
              "name": "available",
              "type": "bool"
            }
          ],
          "name": "",
          "type": "tuple[50]"
        }
      ],
      "payable": false,
      "stateMutability": "view",
      "type": "function",
      "signature": "0x2bd395a0"
    },
    {
      "constant": true,
      "inputs": [
        {
          "name": "IDList",
          "type": "uint256[]"
        }
      ],
      "name": "listProviders",
      "outputs": [
        {
          "components": [
            {
              "name": "provID",
              "type": "uint256"
            },
            {
              "name": "blockNumber",
              "type": "uint256"
            },
            {
              "name": "addr",
              "type": "address"
            },
            {
              "name": "maxTime",
              "type": "uint64"
            },
            {
              "name": "maxTarget",
              "type": "uint16"
            },
            {
              "name": "minPrice",
              "type": "uint256"
            },
            {
              "name": "available",
              "type": "bool"
            }
          ],
          "name": "",
          "type": "tuple[50]"
        }
      ],
      "payable": false,
      "stateMutability": "view",
      "type": "function",
      "signature": "0xcac1125b"
    }
  ],
  "bytecode": "0x60806040523480156200001157600080fd5b506007600062000022919062000068565b6008600062000032919062000068565b6009600062000042919062000068565b600a600062000052919062000068565b60006005819055506000600681905550620000b3565b50805460008255906000526020600020908101906200008891906200008b565b50565b620000b091905b80821115620000ac57600081600090555060010162000092565b5090565b90565b612b7480620000c36000396000f3fe608060405260043610610154576000357c0100000000000000000000000000000000000000000000000000000000900463ffffffff16806302e9d43b146101595780630c9a90a3146101a157806315f14e89146101de578063269f35581461021b5780632bd395a0146102465780632ddfdbcc1461027157806334a7d799146102ae578063353b2a1f146102d9578063390bfd3c146103045780633fad18341461034757806346ce417514610372578063599b68081461039d5780635c42d079146103da5780635c4c8c4e1461041757806362e70505146104425780636302d0711461047f57806391bbb902146104aa5780639e723b97146104e7578063a26ac6de14610512578063c02ac05914610542578063c58343ef1461056d578063cac1125b146105aa578063d2d5d74f146105e7578063d3cca02e14610624578063df4467ab14610661578063e1a9daef1461069e575b600080fd5b34801561016557600080fd5b50610180600480360361017b919081019061215a565b6106c9565b6040516101989c9b9a9998979695949392919061285a565b60405180910390f35b3480156101ad57600080fd5b506101c860048036036101c39190810190612119565b610800565b6040516101d5919061275f565b60405180910390f35b3480156101ea57600080fd5b506102056004803603610200919081019061215a565b61088a565b60405161021291906127a3565b60405180910390f35b34801561022757600080fd5b50610230610a6e565b60405161023d9190612781565b60405180910390f35b34801561025257600080fd5b5061025b610b03565b6040516102689190612743565b60405180910390f35b34801561027d57600080fd5b5061029860048036036102939190810190612183565b610b75565b6040516102a591906127be565b60405180910390f35b3480156102ba57600080fd5b506102c3610d4f565b6040516102d09190612781565b60405180910390f35b3480156102e557600080fd5b506102ee610de4565b6040516102fb9190612816565b60405180910390f35b34801561031057600080fd5b5061032b6004803603610326919081019061215a565b610df1565b60405161033e9796959493929190612914565b60405180910390f35b34801561035357600080fd5b5061035c610e82565b6040516103699190612816565b60405180910390f35b34801561037e57600080fd5b50610387610e8c565b6040516103949190612816565b60405180910390f35b3480156103a957600080fd5b506103c460048036036103bf919081019061215a565b610e96565b6040516103d19190612816565b60405180910390f35b3480156103e657600080fd5b5061040160048036036103fc919081019061215a565b610eae565b60405161040e91906127d9565b60405180910390f35b34801561042357600080fd5b5061042c610fbc565b6040516104399190612816565b60405180910390f35b34801561044e57600080fd5b50610469600480360361046491908101906120b4565b610fc9565b6040516104769190612781565b60405180910390f35b34801561048b57600080fd5b50610494611060565b6040516104a19190612743565b60405180910390f35b3480156104b657600080fd5b506104d160048036036104cc91908101906120b4565b6110d2565b6040516104de9190612781565b60405180910390f35b3480156104f357600080fd5b506104fc611169565b6040516105099190612781565b60405180910390f35b61052c60048036036105279190810190612183565b6111c1565b60405161053991906127be565b60405180910390f35b34801561054e57600080fd5b5061055761153c565b604051610564919061275f565b60405180910390f35b34801561057957600080fd5b50610594600480360361058f919081019061215a565b6115ae565b6040516105a191906127f4565b60405180910390f35b3480156105b657600080fd5b506105d160048036036105cc9190810190612119565b6118a1565b6040516105de9190612743565b60405180910390f35b3480156105f357600080fd5b5061060e600480360361060991908101906120dd565b61192b565b60405161061b9190612816565b60405180910390f35b34801561063057600080fd5b5061064b600480360361064691908101906120dd565b61195b565b6040516106589190612816565b60405180910390f35b34801561066d57600080fd5b50610688600480360361068391908101906121d2565b61198b565b60405161069591906127a3565b60405180910390f35b3480156106aa57600080fd5b506106b3611b5d565b6040516106c09190612781565b60405180910390f35b60016020528060005260406000206000915090508060000154908060010154908060020160009054906101000a900473ffffffffffffffffffffffffffffffffffffffff16908060030160009054906101000a900473ffffffffffffffffffffffffffffffffffffffff16908060030160149054906101000a900467ffffffffffffffff169080600301601c9054906101000a900461ffff16908060040154908060050160009054906101000a900467ffffffffffffffff16908060050160089054906101000a900467ffffffffffffffff16908060050160109054906101000a900467ffffffffffffffff16908060070160009054906101000a900460ff16908060070160019054906101000a90047f01000000000000000000000000000000000000000000000000000000000000000290508c565b610808611c9e565b610810611c9e565b60008090505b83518167ffffffffffffffff16101561088057610853848267ffffffffffffffff1681518110151561084457fe5b906020019060200201516115ae565b828267ffffffffffffffff1660328110151561086b57fe5b60200201819052508080600101915050610816565b5080915050919050565b600080600090506001151560008085815260200190815260200160002060040160009054906101000a900460ff16151514801561092757503373ffffffffffffffffffffffffffffffffffffffff1660008085815260200190815260200160002060020160009054906101000a900473ffffffffffffffffffffffffffffffffffffffff1673ffffffffffffffffffffffffffffffffffffffff16145b15610a255760008084815260200190815260200160002060008082016000905560018201600090556002820160006101000a81549073ffffffffffffffffffffffffffffffffffffffff02191690556002820160146101000a81549067ffffffffffffffff021916905560028201601c6101000a81549061ffff021916905560038201600090556004820160006101000a81549060ff02191690555050610a0c600260003373ffffffffffffffffffffffffffffffffffffffff1673ffffffffffffffffffffffffffffffffffffffff16815260200190815260200160002084611bb5565b9050610a19600784611bb5565b8015610a225750805b90505b8015610a65577f37f095876e7fce8c776261edf08749c7a785891cfcdb3e45e1fe6f0a5085ddb08333604051610a5c929190612831565b60405180910390a15b80915050919050565b6060600360003373ffffffffffffffffffffffffffffffffffffffff1673ffffffffffffffffffffffffffffffffffffffff168152602001908152602001600020805480602002602001604051908101604052809291908181526020018280548015610af957602002820191906000526020600020905b815481526020019060010190808311610ae5575b5050505050905090565b610b0b611ccd565b610b13611ccd565b60008090505b6005548167ffffffffffffffff161015610b6d57610b408167ffffffffffffffff16610eae565b828267ffffffffffffffff16603281101515610b5857fe5b60200201819052508080600101915050610b19565b508091505090565b60006005546000806005548152602001908152602001600020600001819055504360008060055481526020019081526020016000206001018190555033600080600554815260200190815260200160002060020160006101000a81548173ffffffffffffffffffffffffffffffffffffffff021916908373ffffffffffffffffffffffffffffffffffffffff16021790555083600080600554815260200190815260200160002060020160146101000a81548167ffffffffffffffff021916908367ffffffffffffffff160217905550826000806005548152602001908152602001600020600201601c6101000a81548161ffff021916908361ffff1602179055508167ffffffffffffffff16600080600554815260200190815260200160002060030181905550600760055490806001815401808255809150509060018203906000526020600020016000909192909190915055506001600080600554815260200190815260200160002060040160006101000a81548160ff0219169083151502179055507fafeb8d353a550fa93ee49e05f2ec51920688cec519f9c53be94a6ffffdf9a53460055433604051610d2e929190612831565b60405180910390a16005600081548092919060010191905055509392505050565b6060600260003373ffffffffffffffffffffffffffffffffffffffff1673ffffffffffffffffffffffffffffffffffffffff168152602001908152602001600020805480602002602001604051908101604052809291908181526020018280548015610dda57602002820191906000526020600020905b815481526020019060010190808311610dc6575b5050505050905090565b6000600780549050905090565b60006020528060005260406000206000915090508060000154908060010154908060020160009054906101000a900473ffffffffffffffffffffffffffffffffffffffff16908060020160149054906101000a900467ffffffffffffffff169080600201601c9054906101000a900461ffff16908060030154908060040160009054906101000a900460ff16905087565b6000600654905090565b6000600554905090565b60046020528060005260406000206000915090505481565b610eb6611cfc565b60008083815260200190815260200160002060e0604051908101604052908160008201548152602001600182015481526020016002820160009054906101000a900473ffffffffffffffffffffffffffffffffffffffff1673ffffffffffffffffffffffffffffffffffffffff1673ffffffffffffffffffffffffffffffffffffffff1681526020016002820160149054906101000a900467ffffffffffffffff1667ffffffffffffffff1667ffffffffffffffff16815260200160028201601c9054906101000a900461ffff1661ffff1661ffff168152602001600382015481526020016004820160009054906101000a900460ff1615151515815250509050919050565b6000600880549050905090565b6060600360008373ffffffffffffffffffffffffffffffffffffffff1673ffffffffffffffffffffffffffffffffffffffff16815260200190815260200160002080548060200260200160405190810160405280929190818152602001828054801561105457602002820191906000526020600020905b815481526020019060010190808311611040575b50505050509050919050565b611068611ccd565b611070611ccd565b60008090505b6005548167ffffffffffffffff1610156110ca5761109d8167ffffffffffffffff16610eae565b828267ffffffffffffffff166032811015156110b557fe5b60200201819052508080600101915050611076565b508091505090565b6060600260008373ffffffffffffffffffffffffffffffffffffffff1673ffffffffffffffffffffffffffffffffffffffff16815260200190815260200160002080548060200260200160405190810160405280929190818152602001828054801561115d57602002820191906000526020600020905b815481526020019060010190808311611149575b50505050509050919050565b606060078054806020026020016040519081016040528092919081815260200182805480156111b757602002820191906000526020600020905b8154815260200190600101908083116111a3575b5050505050905090565b60006006546001600060065481526020019081526020016000206000018190555043600160006006548152602001908152602001600020600101819055503360016000600654815260200190815260200160002060020160006101000a81548173ffffffffffffffffffffffffffffffffffffffff021916908373ffffffffffffffffffffffffffffffffffffffff160217905550600060016000600654815260200190815260200160002060030160006101000a81548173ffffffffffffffffffffffffffffffffffffffff021916908373ffffffffffffffffffffffffffffffffffffffff1602179055508160016000600654815260200190815260200160002060030160146101000a81548167ffffffffffffffff021916908367ffffffffffffffff16021790555082600160006006548152602001908152602001600020600301601c6101000a81548161ffff021916908361ffff16021790555034600160006006548152602001908152602001600020600401819055508360016000600654815260200190815260200160002060050160006101000a81548167ffffffffffffffff021916908367ffffffffffffffff1602179055506001806000600654815260200190815260200160002060050160106101000a81548167ffffffffffffffff021916908367ffffffffffffffff160217905550600360003373ffffffffffffffffffffffffffffffffffffffff1673ffffffffffffffffffffffffffffffffffffffff1681526020019081526020016000206006549080600181540180825580915050906001820390600052602060002001600090919290919091505550600860065490806001815401808255809150509060018203906000526020600020016000909192909190915055507f300000000000000000000000000000000000000000000000000000000000000060016000600654815260200190815260200160002060070160016101000a81548160ff02191690837f0100000000000000000000000000000000000000000000000000000000000000900402179055507f1547844676b0fd6479fc29c4babdeba187ee3bbc2b982bad5ad798b75675526d600654336040516114f8929190612831565b60405180910390a16006600081548092919060010191905055507f300000000000000000000000000000000000000000000000000000000000000090509392505050565b611544611c9e565b61154c611c9e565b60008090505b6006548167ffffffffffffffff1610156115a6576115798167ffffffffffffffff166115ae565b828267ffffffffffffffff1660328110151561159157fe5b60200201819052508080600101915050611552565b508091505090565b6115b6611d60565b600160008381526020019081526020016000206101a0604051908101604052908160008201548152602001600182015481526020016002820160009054906101000a900473ffffffffffffffffffffffffffffffffffffffff1673ffffffffffffffffffffffffffffffffffffffff1673ffffffffffffffffffffffffffffffffffffffff1681526020016003820160009054906101000a900473ffffffffffffffffffffffffffffffffffffffff1673ffffffffffffffffffffffffffffffffffffffff1673ffffffffffffffffffffffffffffffffffffffff1681526020016003820160149054906101000a900467ffffffffffffffff1667ffffffffffffffff1667ffffffffffffffff16815260200160038201601c9054906101000a900461ffff1661ffff1661ffff168152602001600482015481526020016005820160009054906101000a900467ffffffffffffffff1667ffffffffffffffff1667ffffffffffffffff1681526020016005820160089054906101000a900467ffffffffffffffff1667ffffffffffffffff1667ffffffffffffffff1681526020016005820160109054906101000a900467ffffffffffffffff1667ffffffffffffffff1667ffffffffffffffff168152602001600682018054806020026020016040519081016040528092919081815260200182805480156117fc57602002820191906000526020600020906000905b82829054906101000a900460ff161515815260200190600101906020826000010492830192600103820291508084116117c65790505b505050505081526020016007820160009054906101000a900460ff161515151581526020016007820160019054906101000a90047f0100000000000000000000000000000000000000000000000000000000000000027effffffffffffffffffffffffffffffffffffffffffffffffffffffffffffff19167effffffffffffffffffffffffffffffffffffffffffffffffffffffffffffff1916815250509050919050565b6118a9611ccd565b6118b1611ccd565b60008090505b83518167ffffffffffffffff161015611921576118f4848267ffffffffffffffff168151811015156118e557fe5b90602001906020020151610eae565b828267ffffffffffffffff1660328110151561190c57fe5b602002018190525080806001019150506118b7565b5080915050919050565b60026020528160005260406000208181548110151561194657fe5b90600052602060002001600091509150505481565b60036020528160005260406000208181548110151561197657fe5b90600052602060002001600091509150505481565b600080600090506001151560008085815260200190815260200160002060040160009054906101000a900460ff161515148015611a2957503373ffffffffffffffffffffffffffffffffffffffff1660008085815260200190815260200160002060020160009054906101000a900473ffffffffffffffffffffffffffffffffffffffff1673ffffffffffffffffffffffffffffffffffffffff1614155b15611b535743600080858152602001908152602001600020600101819055508560008085815260200190815260200160002060020160146101000a81548167ffffffffffffffff021916908367ffffffffffffffff16021790555084600080858152602001908152602001600020600201601c6101000a81548161ffff021916908361ffff1602179055508367ffffffffffffffff1660008085815260200190815260200160002060030181905550611ae3600784611bb5565b905060078390806001815401808255809150509060018203906000526020600020016000909192909190915055507fd94c593c75e29861632520adc8ad754e10eb195d12baa4d1bf0bfcf23060b8b78333604051611b42929190612831565b60405180910390a180915050611b55565b505b949350505050565b60606008805480602002602001604051908101604052809291908181526020018280548015611bab57602002820191906000526020600020905b815481526020019060010190808311611b97575b5050505050905090565b600080600090505b83805490508167ffffffffffffffff161015611c925782848267ffffffffffffffff16815481101515611bec57fe5b90600052602060002001541415611c8557836001858054905003815481101515611c1257fe5b9060005260206000200154848267ffffffffffffffff16815481101515611c3557fe5b9060005260206000200181905550836001858054905003815481101515611c5857fe5b906000526020600020016000905583805480919060019003611c7a9190611e45565b506001915050611c98565b8080600101915050611bbd565b50600090505b92915050565b615140604051908101604052806032905b611cb7611e71565b815260200190600190039081611caf5790505090565b612bc0604051908101604052806032905b611ce6611f56565b815260200190600190039081611cde5790505090565b60e0604051908101604052806000815260200160008152602001600073ffffffffffffffffffffffffffffffffffffffff168152602001600067ffffffffffffffff168152602001600061ffff168152602001600081526020016000151581525090565b6101a0604051908101604052806000815260200160008152602001600073ffffffffffffffffffffffffffffffffffffffff168152602001600073ffffffffffffffffffffffffffffffffffffffff168152602001600067ffffffffffffffff168152602001600061ffff16815260200160008152602001600067ffffffffffffffff168152602001600067ffffffffffffffff168152602001600067ffffffffffffffff1681526020016060815260200160001515815260200160007effffffffffffffffffffffffffffffffffffffffffffffffffffffffffffff191681525090565b815481835581811115611e6c57818360005260206000209182019101611e6b9190611fba565b5b505050565b6101a0604051908101604052806000815260200160008152602001600073ffffffffffffffffffffffffffffffffffffffff168152602001600073ffffffffffffffffffffffffffffffffffffffff168152602001600067ffffffffffffffff168152602001600061ffff16815260200160008152602001600067ffffffffffffffff168152602001600067ffffffffffffffff168152602001600067ffffffffffffffff1681526020016060815260200160001515815260200160007effffffffffffffffffffffffffffffffffffffffffffffffffffffffffffff191681525090565b60e0604051908101604052806000815260200160008152602001600073ffffffffffffffffffffffffffffffffffffffff168152602001600067ffffffffffffffff168152602001600061ffff168152602001600081526020016000151581525090565b611fdc91905b80821115611fd8576000816000905550600101611fc0565b5090565b90565b6000611feb8235612afc565b905092915050565b600082601f830112151561200657600080fd5b8135612019612014826129b0565b612983565b9150818183526020840193506020810190508385602084028201111561203e57600080fd5b60005b8381101561206e5781612054888261208c565b845260208401935060208301925050600181019050612041565b5050505092915050565b60006120848235612b0e565b905092915050565b60006120988235612b1c565b905092915050565b60006120ac8235612b26565b905092915050565b6000602082840312156120c657600080fd5b60006120d484828501611fdf565b91505092915050565b600080604083850312156120f057600080fd5b60006120fe85828601611fdf565b925050602061210f8582860161208c565b9150509250929050565b60006020828403121561212b57600080fd5b600082013567ffffffffffffffff81111561214557600080fd5b61215184828501611ff3565b91505092915050565b60006020828403121561216c57600080fd5b600061217a8482850161208c565b91505092915050565b60008060006060848603121561219857600080fd5b60006121a6868287016120a0565b93505060206121b786828701612078565b92505060406121c8868287016120a0565b9150509250925092565b600080600080608085870312156121e857600080fd5b60006121f6878288016120a0565b945050602061220787828801612078565b9350506040612218878288016120a0565b92505060606122298782880161208c565b91505092959194509250565b61223e81612a66565b82525050565b600061224f82612a06565b808452602084019350612261836129d8565b60005b82811015612293576122778683516123aa565b61228082612a32565b9150602086019550600181019050612264565b50849250505092915050565b6122a881612a11565b6122b1826129e5565b60005b828110156122e3576122c7858351612456565b6122d082612a3f565b915060e0850194506001810190506122b4565b5050505050565b60006122f582612a1c565b83602082028501612305856129ef565b60005b8481101561233e5783830388526123208383516125fd565b925061232b82612a4c565b9150602088019750600181019050612308565b508196508694505050505092915050565b600061235a82612a27565b80845260208401935061236c836129f9565b60005b8281101561239e57612382868351612725565b61238b82612a59565b915060208601955060018101905061236f565b50849250505092915050565b6123b381612a78565b82525050565b6123c281612a84565b82525050565b60e0820160008201516123de6000850182612725565b5060208201516123f16020850182612725565b5060408201516124046040850182612235565b5060608201516124176060850182612734565b50608082015161242a6080850182612716565b5060a082015161243d60a0850182612725565b5060c082015161245060c08501826123aa565b50505050565b60e08201600082015161246c6000850182612725565b50602082015161247f6020850182612725565b5060408201516124926040850182612235565b5060608201516124a56060850182612734565b5060808201516124b86080850182612716565b5060a08201516124cb60a0850182612725565b5060c08201516124de60c08501826123aa565b50505050565b60006101a0830160008301516124fd6000860182612725565b5060208301516125106020860182612725565b5060408301516125236040860182612235565b5060608301516125366060860182612235565b5060808301516125496080860182612734565b5060a083015161255c60a0860182612716565b5060c083015161256f60c0860182612725565b5060e083015161258260e0860182612734565b50610100830151612597610100860182612734565b506101208301516125ac610120860182612734565b506101408301518482036101408601526125c68282612244565b9150506101608301516125dd6101608601826123aa565b506101808301516125f26101808601826123b9565b508091505092915050565b60006101a0830160008301516126166000860182612725565b5060208301516126296020860182612725565b50604083015161263c6040860182612235565b50606083015161264f6060860182612235565b5060808301516126626080860182612734565b5060a083015161267560a0860182612716565b5060c083015161268860c0860182612725565b5060e083015161269b60e0860182612734565b506101008301516126b0610100860182612734565b506101208301516126c5610120860182612734565b506101408301518482036101408601526126df8282612244565b9150506101608301516126f66101608601826123aa565b5061018083015161270b6101808601826123b9565b508091505092915050565b61271f81612ab0565b82525050565b61272e81612ade565b82525050565b61273d81612ae8565b82525050565b6000612bc082019050612759600083018461229f565b92915050565b6000602082019050818103600083015261277981846122ea565b905092915050565b6000602082019050818103600083015261279b818461234f565b905092915050565b60006020820190506127b860008301846123aa565b92915050565b60006020820190506127d360008301846123b9565b92915050565b600060e0820190506127ee60008301846123c8565b92915050565b6000602082019050818103600083015261280e81846124e4565b905092915050565b600060208201905061282b6000830184612725565b92915050565b60006040820190506128466000830185612725565b6128536020830184612235565b9392505050565b600061018082019050612870600083018f612725565b61287d602083018e612725565b61288a604083018d612235565b612897606083018c612235565b6128a4608083018b612734565b6128b160a083018a612716565b6128be60c0830189612725565b6128cb60e0830188612734565b6128d9610100830187612734565b6128e7610120830186612734565b6128f56101408301856123aa565b6129036101608301846123b9565b9d9c50505050505050505050505050565b600060e082019050612929600083018a612725565b6129366020830189612725565b6129436040830188612235565b6129506060830187612734565b61295d6080830186612716565b61296a60a0830185612725565b61297760c08301846123aa565b98975050505050505050565b6000604051905081810181811067ffffffffffffffff821117156129a657600080fd5b8060405250919050565b600067ffffffffffffffff8211156129c757600080fd5b602082029050602081019050919050565b6000602082019050919050565b6000819050919050565b6000819050919050565b6000602082019050919050565b600081519050919050565b600060329050919050565b600060329050919050565b600081519050919050565b6000602082019050919050565b6000602082019050919050565b6000602082019050919050565b6000602082019050919050565b6000612a7182612abe565b9050919050565b60008115159050919050565b60007fff0000000000000000000000000000000000000000000000000000000000000082169050919050565b600061ffff82169050919050565b600073ffffffffffffffffffffffffffffffffffffffff82169050919050565b6000819050919050565b600067ffffffffffffffff82169050919050565b6000612b0782612abe565b9050919050565b600061ffff82169050919050565b6000819050919050565b600067ffffffffffffffff8216905091905056fea265627a7a723058202602d5b29b4e92367f4d374e986b2f678fe3db7bd5b63b6f68c5c877e0d57c6f6c6578706572696d656e74616cf50037",
  "source": "//version 0.9.1\n//Author: Taurus, Landry\n//Copyright: tlu4@lsu.edu\n\n//NOTE: non-view functions cannot return values, only possible way is event\n\npragma solidity ^0.5.0;\npragma experimental ABIEncoderV2;   //return self-defined type\n\ncontract TaskContract {\n    //list\n    mapping (uint256 => Provider) public providerList;  //history\n    mapping (uint256 => Request) public requestList;    //history\n    \n    //mapping address with ID\n    mapping (address => uint256[])  public providerMap;\n    mapping (address => uint256[])  public requestMap;\n \n    mapping (uint256 => uint256) public balanceList;    //reqID => balance\n    //ID - counter\n    uint256 private providerCount;     //+1 each time\n    uint256 private requestCount;\n    //Pool\n    uint256[] providerPool;\n    uint256[] pendingPool;\n    uint256[] providingPool;\n    uint256[] validatingPool;\n    \n\n    constructor() public {      //sol 5.0 syntax\n        delete providerPool;\n        delete pendingPool;\n        delete providingPool;\n        delete validatingPool;\n        providerCount = 0;\n        requestCount = 0;\n    }\n\n    struct Request {\n        uint256 reqID;              //requestID is the only identifier for each Request\n        uint256 blockNumber;\n        address payable addr;       //payable is new feature from sol v5.0\n        //uint256 assignedProvider;\n        address payable provider;         //\n        //address payable provider;   //addr of worker\n        uint64  time;               //time\n        uint16  target;             //target 0-100.00\n        uint256 price;              //the max amount he can pay\n        uint64  dataID;             //dataID used to fetch the off-chain data\n        uint64  resultID;           //dataID to fetch the result\n        uint64  numValidationsNeeded;   //user defined the validation\n        bool[]  validations;        //multisignature from validations\n        bool    isValid;            //the final flag\n        byte    status;              //0: 'pending', 1:'providing', 2: validating, 3: complete\n    }\n\n    struct Provider {\n        uint256 provID;\n        uint256 blockNumber;\n        address payable addr;       //providers address\n\n        \n                                    //TODO: the provider name registration.\n        uint64  maxTime;            //max time\n        uint16  maxTarget;          //max target he need\n        uint256 minPrice;           //lowest price can accept\n        bool    available;          // Used to determine if provider is already doing something\n    }\n\n    event ProviderAdded     (uint256 provID, address payable addr);\n    event ProviderStopped   (uint256 provID, address payable addr);\n    event ProviderUpdated   (uint256 provID, address payable addr);\n    event TaskAssigned          (uint256 reqID, uint256 provID);     // next step: call completeTask\n    event RequestAdded      (uint256 reqID, address payable addr);\n    \n    //event ValidationRequested   (address validator, uint128 reqID);    // next step: validator calls submitValidation\n    //event TaskCompleted         (address requestor, uint128 reqID);    // done\n    /////////////////////////////////////////////////////////////////////////////////////\n\n    \n    // Function called to become a provider. New on List, Map and Pool. \n    // NOTE: cannot use to update. You must stop a previous one and start a new one.\n    // TIPS: gas cost: don't create local copy and write back, modify the storage directly.\n    function startProviding(uint64 maxTime, uint16 maxTarget, uint64 minPrice) public returns (byte) {\n        // register a new provider object in the List and map              \n        providerList[providerCount].provID         = providerCount;\n        providerList[providerCount].blockNumber    = block.number;\n        providerList[providerCount].addr           = msg.sender;             \n        providerList[providerCount].maxTime        = maxTime;       \n        providerList[providerCount].maxTarget      = maxTarget;\n        providerList[providerCount].minPrice       = minPrice;\n        \n        // add to map\n        //providerMap[msg.sender].push(providerCount);\n        // put it into the pool\n        providerPool.push(providerCount);\n        providerList[providerCount].available      = true;  //turn on the flag at LAST\n        // ready for the next       \n        emit ProviderAdded(providerCount, msg.sender);\n        providerCount++;\n        \n    }\n    // Stop a provider, if you know a provider ID. Get em using getProvID()\n    // Must be sent from the provider address or it will be failed.\n    function stopProviding(uint256 provID) public returns (bool) {\n        // If the sender is currently an active provider\n        bool flag = false;\n        if (providerList[provID].available == true                 //can only stop available provider\n                && providerList[provID].addr == msg.sender) {      //you cannot delete other's provider            \n            delete providerList[provID];                           //delete from List\n            flag = ArrayPop(providerMap[msg.sender], provID);      //delete form Map\n            flag = ArrayPop(providerPool, provID) && flag;         //delete from Pool             \n        }\n        if(flag) emit ProviderStopped(provID, msg.sender);\n        return flag;\n    }\n    //update a provider, you must know the provID and must sent from right addr\n    function updateProvider(uint64 maxTime, uint16 maxTarget, uint64 minPrice, uint256 provID) public returns (bool) {      \n        bool flag = false;\n        if(providerList[provID].available == true           //can only modify available provider\n        && providerList[provID].addr != msg.sender){        //you are modify other's config\n            providerList[provID].blockNumber    = block.number;         \n            providerList[provID].maxTime        = maxTime;       \n            providerList[provID].maxTarget      = maxTarget;\n            providerList[provID].minPrice       = minPrice;\n            //update pool       -- pop then push , because we need to scan pool anyway\n            flag = ArrayPop(providerPool,provID);           // pop first                                      \n            providerPool.push(provID);                      // push in both case anyway\n            //update map -- no need provID not changed.\n            emit ProviderUpdated(provID, msg.sender);\n            return flag;\n        }\n    }\n\n    // Send a request from user to blockchain.\n    // Assumes price is including the cost for verification\n    function requestTask(uint64 dataID, uint16 target, uint64 time) payable public returns (byte) {\n        //register on List\n        requestList[requestCount].reqID         = requestCount;\n        requestList[requestCount].blockNumber   = block.number;  \n        requestList[requestCount].addr          = msg.sender;\n        requestList[requestCount].provider      = address(0);      \n        requestList[requestCount].time          = time;    \n        requestList[requestCount].target        = target;\n        requestList[requestCount].price         = msg.value;\n        requestList[requestCount].dataID        = dataID;\n        //requestList[requestCount].resultID  = 0;\n        requestList[requestCount].numValidationsNeeded = 1;\n        //requestList[requestCount].validations = emptyArray;\n        //requestList[requestCount].isValid   = false;\n        \n        //add new to map\n        requestMap[msg.sender].push(requestCount);\n        \n        //add new to requestPool\n        pendingPool.push(requestCount);\n        requestList[requestCount].status = '0' ;     //pending 0x30, not 0\n        emit RequestAdded(requestCount,msg.sender);\n        \n        //update count\n        requestCount++;     \n        return '0';\n        //assignTask(requestCount -1);\n    }\n\n/*\n    // Used to be sure you are seen as available. e.g. power outage caused you to lose available status on network.\n    // Not to be called after stopProviding to resume -- startProviding used in this case.\n    //function restart() public returns (bool) {\n    //if (providerList[providerID[msg.sender]].addr == msg.sender) {\n    //     providers[providerID[msg.sender]].available = true;\n    //       return true;\n    //    }\n    //else {\n    //    return false; // provider wasnt found in mapping\n    //  }\n    //}\n\n\n    // Search in the requestPool, find a job for current provider. Triggered by startProviding\n    // Return true if a match or false if not.\n    // Returns: 0: successfully assigned\n    //          1: searched all providers but find no match\n    //          2: no available provider right now\n    //          3: failure during poping pool\n    function assignProvider(address payable addr) private returns (byte){\n        if(requestPool.length == 0) return '2';\n        else {\n            //search throught the requestPool\n            for (uint128 i = 0; i < requestPool.length; i++){\n                //save the re-usable reqID , may save gas\n                uint128 reqID = requestPool[i]; //     \n                if( requestList[reqID].time     < providerList[addr].maxTime &&\n                    requestList[reqID].target   < providerList[addr].maxTarget &&\n                    requestList[reqID].price    > providerList[addr].minPrice){\n                        //meet the requirement, assign the task\n                        //update provider\n                        providerList[addr].available = false;\n                        bool isPopped = providerPop(addr);\n                        if(!isPopped) return '3';\n\n                        //update request\n                        requestList[reqID].provider = addr;\n                        requestList[reqID].status = '1';    //providing\n                        isPopped = requestPop(reqID);\n                        if(!isPopped) return '3';\n\n                        //update balanceList            addr here is requester's\n                        balanceList[requestList[reqID].addr] += requestList[reqID].price; \n                                               \n                        //status move from pending to providing\n                        pendingCount--;\n                        providingCount++;\n                        emit TaskAssigned(addr, providerID[addr], reqID);\n                        return '0';                   \n                }                \n            }\n            //after for loop and no match\n            return '1';\n        }\n    }\n\n\n\n*/\n\n    \n\n    /*function requestTask(uint64 dataID, uint16 target, uint64 time) payable public returns (bool) {\n        bool[] memory emptyArray;\n        Request memory req = Request(           //create a temp memory var\n            msg.sender,             //addr\n            address(0),             //provider\n            requestCount,           //reqID\n            dataID,                 //dataID\n            time,                   //time    \n            target,                 //target   0-100\n            msg.value,              //price \n            0,                      //resultID\n            1,                      //numValidationsNeeded\n            emptyArray,             //sig list\n            false,                  //isValid\n            0                       //status  0-3 0: pending\n        );\n\n        //copy the mem var into storage\n        requestList[requestCount] = req;        //requestCount used as index here, from 0 to +++\n        //add new to requestPool\n        requestPool.push(requestCount);\n        //update requestID\n        requestID[msg.sender].push(requestCount);\n        //update count\n        requestCount++;     //count already stands for the # of req now.\n        pendingCount++;\n        return assignTask();\n    }\n\n\n    // Assigning one task to one of the available providers. Only called from requestTask (private)\n    // Search in the providerPool, if no match in the end, return false\n    //could only assign one task at a time\n    //auto sel the first searching result for now, no comparation between multiple availability.\n    //TODO: need ot add preference next patch\n    // Returns: 0: successfully assigned\n    //          1: searched all providers but find no match\n    //          2: no available provider right now\n    //          3: failure during poping pool\n    function assignTask(uint128 reqID) private returns (byte) {\n        //provider availability is checked in pool not in list\n        if (providerPool.length == 0)   return '2';\n        else {            //if any provider in pool\n            for (uint64 i = 0; i < providerPool.length; i++) {\n                // save the provider's addr, reusable and save gas cost\n                address payable addr  = providerPool[i];\n                if(addr != address(0) && providerList[addr].available == true){\n                    // Check if request conditions meet the providers requirements\n                    if (requestList[reqID].target <= providerList[addr].maxTarget && \n                        requestList[reqID].time <= providerList[addr].maxTime && \n                        requestList[reqID].price >= providerList[addr].minPrice) {\n                        \n                        //update provider:\n                        providerList[addr].available = false;\n                        bool isPopped = providerPop(addr);\n                        if(!isPopped) return '3';\n\n                        //update request\n                        requestList[reqID].provider = addr;\n                        requestList[reqID].status = '1';    //providing\n                        isPopped = requestPop(reqID);\n                        if(!isPopped) return '3';\n\n                        //update balanceList              \n                        balanceList[requestList[reqID].addr] += requestList[reqID].price; \n                                               \n                        //status move from pending to providing\n                        pendingCount--;\n                        providingCount++;\n                        //NOTE: assign existing task should not increase the # of requestCount\n\n                        //EVENT\n                        emit TaskAssigned(addr, providerID[addr], reqID); // Let provider listen for this event to see he was selected\n                        return '0';\n                    }\n                }\n            }\n            // No provider was found matching the criteria -- request failed\n            requestList[reqID].addr.transfer(requestList[reqID].price); // Returns the ether to the sender\n            return '1';\n        }\n    }\n\n\n\n/*\n\n    // Provider will call this when they are done and the data is available.\n    // This will invoke the validation stage\n    function completeTask(uint128 reqID, uint64 resultID) public returns (bool) {\n        // Confirm msg.sender is actually the provider of the task he claims\n        if (msg.sender == requestList[reqID].provider) {\n            requestList[reqID].isCompleted = true;\n            requestList[reqID].resultID = resultID;\n            providerList[providerID[msg.sender]].available = true;\n            return validateTask(reqID);\n        }\n        else {\n            return false;\n        }\n    }\n/*\n    // Called by completeTask before finalizing stuff. Contract checks with validators\n    // Returns false if there wasnt enough free providers to send out the required number of validation requests\n    function validateTask(uint128 reqID) private returns (bool) {\n        uint64 numValidators = 3; // need validation from 1/10 of nodes -- could change\n        //uint numValidators = providerCount / 10; \n        uint validatorsFound = 0;\n        requestList[reqID].numValidationsNeeded = numValidators;\n        for (uint64 i=0; i<providerCount + spaces.length && validatorsFound<numValidators; i++) {\n            if (providerList[i].addr == address(0)) {\n                continue;\n            }\n            if (providerList[i].available) {\n                // EVENT: informs validator that they were selected and need to validate\n                emit ValidationRequested(providerList[i].addr, reqID);\n                validatorsFound++;\n            }\n        }\n        if (validatorsFound == numValidators) {\n            return true;\n        }\n        return false;\n    }\n\n\n\n\n\n    // needs to be more secure by ensuring the submission is coming from someone legit \n    function submitValidation(uint128 reqID, bool result) public returns (bool) {\n        // Pay the validator \n        uint partialPayment = requestList[reqID].price / 100; // amount each validator is paid\n        msg.sender.transfer(partialPayment);\n        balanceList[requestList[reqID].addr] -= partialPayment;\n        // Put the result in the request struct\n        requestList[reqID].validations.push(result);\n        // If enough validations have been submitted\n        if (requestList[reqID].validations.length == requestList[reqID].numValidationsNeeded) {\n            return checkValidation(reqID, requestList[reqID].price - requestList[reqID].numValidationsNeeded * partialPayment);\n        }\n    }\n    \n    function checkValidation(uint128 reqID, uint payment) private returns (bool) {\n        // Add up successful validations\n        uint64 successCount = 0;\n        for (uint64 i=0; i<requestList[reqID].validations.length; i++) {\n            if (requestList[reqID].validations[i]) successCount++;\n        }\n        // if 2/3 of validation attempts were successful\n        if (successCount  >= requestList[reqID].numValidationsNeeded * 2 / 3  ) { \n            // if 2/3 of validations were valid then provider gets remainder of money\n            requestList[reqID].provider.transfer(payment); \n            balanceList[requestList[reqID].addr] -= payment;\n            requestList[reqID].isValid = true; // Task was successfully completed! \n        }\n        // otherwise, work was invalid, the providers payment goes back to requester\n        else {\n            requestList[reqID].addr.transfer(payment);\n            balanceList[requestList[reqID].addr] -= payment;\n        }\n        // EVENT: task is done whether successful or not\n        emit TaskCompleted(requestList[reqID].addr, reqID);\n        return requestList[reqID].isValid;\n    }\n*/\n/////////////////////////////////////////////////////////////////////\n // Used to dynamically remove elements from array of open provider spaces. \n    // Using a swap and delete method, search for the desired addr throughout the whole array\n    // delete the desired and swap the whole with last element\n    /*function AddrArrayPop(address payable [] storage addrArray, uint256 target) private returns(bool) {\n        for(uint64 i = 0; i < addrArray.length; i++){\n            if (addrArray[i] == target) {\n                //swap last element with hole\n                addrArray[i] = addrArray[addrArray.length-1];\n                //delete last item\n                delete addrArray[addrArray.length-1];\n                 //decrease size\n                addrArray.length--;\n                return true;\n            }\n        }\n        return false; //fail to search: no matching in pool\n    }*/\n\n    function ArrayPop(uint256[] storage array, uint256 target) private returns (bool) {\n        for(uint64 i = 0; i < array.length; i++){\n            if (array[i] == target) {\n                //swap last element with hole\n                array[i] = array[array.length-1];\n                //delete last item\n                delete array[array.length-1];\n                //decrease size\n                array.length--;\n                return true;\n            }\n        }\n        return false;   //fail to search: no matching in pool\n    } \n    function getMyProvID() public view returns (uint256[] memory){\n        return providerMap[msg.sender];\n    }\n    function getMyReqID() public view returns (uint256[] memory){\n        return requestMap[msg.sender];\n    }\n    function getProviderID(address addr) public view returns (uint256[] memory){\n        return providerMap[addr];\n    }\n    function getRequestID(address addr) public view returns (uint256[] memory){\n        return requestMap[addr];\n    }\n\n    /////////////////////////////////////////////////////////////////////////////////\n    //some helpers defined here\n    /*function testTask() public {\n        emit TaskAssigned(msg.sender, 11, 22);\n    }*/\n    function getProvider(uint256 ID) public view returns(Provider memory){\n        return providerList[ID];\n    }\n    function getRequest(uint256 ID) public view returns (Request memory){\n\t    return requestList[ID];\n    }\n    function getProviderCount() public view returns (uint256){\n        return providerCount;\n    }\n    function getRequestCount() public view returns (uint256){\n        return requestCount;\n    }\n    function getProviderPool() public view returns (uint256[] memory){\n        return providerPool;\n    }\n    function getRequestPool() public view returns (uint256[] memory){\n        return pendingPool;\n    }\n    function getProviderPoolSize() public view returns (uint256){\n        return providerPool.length;\n    }\n    function getRequestPoolSize() public view returns (uint256){\n        return pendingPool.length;\n    }\n    //function getBalance(address addr) public view returns (uint256){\n    //    return balanceList[addr];\n    //}\n    function listRequests(uint256[] memory IDList) public view returns(Request[50] memory){\n\t    Request[50] memory allRequest;\n\t    for (uint64 i = 0; i < IDList.length; i++){\n\t\t    allRequest[i] = getRequest(IDList[i]);\n\t    }\n\t    return allRequest;\n    }\n    function listProviders(uint256[] memory IDList) public view returns(Provider[50] memory){\n        Provider[50] memory allProvider;\n        //address addr;\n        for (uint64 i = 0; i < IDList.length;i++){\n            allProvider[i] = getProvider(IDList[i]);\n        }\n        return allProvider;\n    }\n    function listAllRequests() public view returns(Request[50] memory){\n\t    Request[50] memory allRequest;\n\t    for (uint64 i = 0; i < requestCount; i++){\n\t\t    allRequest[i] = getRequest(i);\n\t    }\n\t    return allRequest;\n    }\n    function listAllProviders() public view returns(Provider[50] memory){\n\t    Provider[50] memory allProvider;\n\t    for (uint64 i = 0; i < providerCount; i++){\n\t\t    allProvider[i] = getProvider(i);\n\t    }\n\t    return allProvider;\n    }\n    function listProviders() public view returns(Provider[50] memory){\n        Provider[50] memory allProvider;\n        //address addr;\n        for (uint64 i = 0; i < providerCount;i++){\n            /*if(providerPool.length > 0) {\n                addr = providerPool[i];     \n            }else {\n                addr = address(0);\n            }*/\n            allProvider[i] = getProvider(i);\n        }\n        return allProvider;\n    }\n    /*function listTestProviders() public view returns(Provider[3] memory){\n        Provider[3] memory allProvider;\n        for (uint64 i = 0; i < 3;i++){\n            allProvider[i] = getTestProvider(i);\n        }\n        return allProvider;\n    }*/\n\n}\n",
  "sourcePath": "/home/taurus/blockchain/gitLab/bcai/contracts/bcai_0.9.1.sol",
  "compiler": {
    "name": "solc",
    "version": "0.5.0+commit.1d4f565a.Emscripten.clang"
  },
  "schemaVersion": "3.0.0-beta.2",
  "updatedAt": "2018-12-07T21:36:13.803Z",
  "devdoc": {
    "methods": {}
  },
  "userdoc": {
    "methods": {
      "getProvider(uint256)": {
        "notice": "//////////////////////////////////////////////////////////////////////////////"
      },
      "startProviding(uint64,uint16,uint64)": {
        "notice": "//////////////////////////////////////////////////////////////////////////////////"
      }
    }
  }
}