{
  "contractName": "TaskContract",
  "abi": [
    {
      "constant": true,
      "inputs": [
        {
          "name": "",
          "type": "address"
        }
      ],
      "name": "requestList",
      "outputs": [
        {
          "name": "reqID",
          "type": "uint256"
        },
        {
          "name": "blockNumber",
          "type": "uint256"
        },
        {
          "name": "provider",
          "type": "address"
        },
        {
          "name": "time",
          "type": "uint64"
        },
        {
          "name": "target",
          "type": "uint16"
        },
        {
          "name": "price",
          "type": "uint256"
        },
        {
          "name": "dataID",
          "type": "uint64"
        },
        {
          "name": "resultID",
          "type": "uint64"
        },
        {
          "name": "numValidations",
          "type": "uint64"
        },
        {
          "name": "isValid",
          "type": "bool"
        },
        {
          "name": "status",
          "type": "bytes1"
        }
      ],
      "payable": false,
      "stateMutability": "view",
      "type": "function",
      "signature": "0x0708799e"
    },
    {
      "constant": true,
      "inputs": [
        {
          "name": "",
          "type": "address"
        }
      ],
      "name": "providerList",
      "outputs": [
        {
          "name": "provID",
          "type": "uint256"
        },
        {
          "name": "blockNumber",
          "type": "uint256"
        },
        {
          "name": "maxTime",
          "type": "uint64"
        },
        {
          "name": "maxTarget",
          "type": "uint16"
        },
        {
          "name": "minPrice",
          "type": "uint256"
        },
        {
          "name": "available",
          "type": "bool"
        }
      ],
      "payable": false,
      "stateMutability": "view",
      "type": "function",
      "signature": "0x0e1e4a3c"
    },
    {
      "constant": true,
      "inputs": [
        {
          "name": "",
          "type": "address"
        }
      ],
      "name": "balanceList",
      "outputs": [
        {
          "name": "",
          "type": "uint256"
        }
      ],
      "payable": false,
      "stateMutability": "view",
      "type": "function",
      "signature": "0x189258de"
    },
    {
      "inputs": [],
      "payable": false,
      "stateMutability": "nonpayable",
      "type": "constructor",
      "signature": "constructor"
    },
    {
      "anonymous": false,
      "inputs": [
        {
          "indexed": false,
          "name": "addr",
          "type": "address"
        },
        {
          "indexed": false,
          "name": "info",
          "type": "bytes"
        }
      ],
      "name": "SystemInfo",
      "type": "event",
      "signature": "0xa332e7b06782060530f8d1575fcf83b5e831fe3dd09c85e53b0351a7c38ceeac"
    },
    {
      "anonymous": false,
      "inputs": [
        {
          "indexed": false,
          "name": "req",
          "type": "address"
        },
        {
          "indexed": false,
          "name": "prov",
          "type": "address"
        },
        {
          "indexed": false,
          "name": "info",
          "type": "bytes"
        }
      ],
      "name": "PairingInfo",
      "type": "event",
      "signature": "0x654163525cabcfa0ce95ecb1f232c75746c89688c42e7e2d52df90d770fc9e57"
    },
    {
      "constant": false,
      "inputs": [
        {
          "name": "maxTime",
          "type": "uint64"
        },
        {
          "name": "maxTarget",
          "type": "uint16"
        },
        {
          "name": "minPrice",
          "type": "uint64"
        }
      ],
      "name": "startProviding",
      "outputs": [
        {
          "name": "",
          "type": "bool"
        }
      ],
      "payable": false,
      "stateMutability": "nonpayable",
      "type": "function",
      "signature": "0x2ddfdbcc"
    },
    {
      "constant": false,
      "inputs": [
        {
          "name": "time",
          "type": "uint64"
        },
        {
          "name": "target",
          "type": "uint16"
        },
        {
          "name": "price",
          "type": "uint64"
        },
        {
          "name": "dataID",
          "type": "uint64"
        }
      ],
      "name": "startRequest",
      "outputs": [
        {
          "name": "",
          "type": "bool"
        }
      ],
      "payable": true,
      "stateMutability": "payable",
      "type": "function",
      "signature": "0x7dbcb1de"
    },
    {
      "constant": false,
      "inputs": [
        {
          "name": "reqID",
          "type": "address"
        },
        {
          "name": "resultID",
          "type": "uint64"
        }
      ],
      "name": "completeRequest",
      "outputs": [
        {
          "name": "",
          "type": "bool"
        }
      ],
      "payable": false,
      "stateMutability": "nonpayable",
      "type": "function",
      "signature": "0x9281e9ec"
    },
    {
      "constant": false,
      "inputs": [
        {
          "name": "reqID",
          "type": "address"
        }
      ],
      "name": "validateRequest",
      "outputs": [
        {
          "name": "",
          "type": "bool"
        }
      ],
      "payable": false,
      "stateMutability": "nonpayable",
      "type": "function",
      "signature": "0xaaef4a62"
    },
    {
      "constant": false,
      "inputs": [
        {
          "name": "reqID",
          "type": "address"
        },
        {
          "name": "result",
          "type": "bool"
        }
      ],
      "name": "submitValidation",
      "outputs": [
        {
          "name": "",
          "type": "bool"
        }
      ],
      "payable": false,
      "stateMutability": "nonpayable",
      "type": "function",
      "signature": "0x3432d0f5"
    },
    {
      "constant": false,
      "inputs": [
        {
          "name": "reqID",
          "type": "address"
        }
      ],
      "name": "checkValidation",
      "outputs": [
        {
          "name": "",
          "type": "bool"
        }
      ],
      "payable": false,
      "stateMutability": "nonpayable",
      "type": "function",
      "signature": "0x566b2474"
    },
    {
      "constant": true,
      "inputs": [
        {
          "name": "ID",
          "type": "address"
        }
      ],
      "name": "getProvider",
      "outputs": [
        {
          "components": [
            {
              "name": "provID",
              "type": "uint256"
            },
            {
              "name": "blockNumber",
              "type": "uint256"
            },
            {
              "name": "maxTime",
              "type": "uint64"
            },
            {
              "name": "maxTarget",
              "type": "uint16"
            },
            {
              "name": "minPrice",
              "type": "uint256"
            },
            {
              "name": "available",
              "type": "bool"
            }
          ],
          "name": "",
          "type": "tuple"
        }
      ],
      "payable": false,
      "stateMutability": "view",
      "type": "function",
      "signature": "0x55f21eb7"
    },
    {
      "constant": true,
      "inputs": [
        {
          "name": "ID",
          "type": "address"
        }
      ],
      "name": "getRequest",
      "outputs": [
        {
          "components": [
            {
              "name": "reqID",
              "type": "uint256"
            },
            {
              "name": "blockNumber",
              "type": "uint256"
            },
            {
              "name": "provider",
              "type": "address"
            },
            {
              "name": "time",
              "type": "uint64"
            },
            {
              "name": "target",
              "type": "uint16"
            },
            {
              "name": "price",
              "type": "uint256"
            },
            {
              "name": "dataID",
              "type": "uint64"
            },
            {
              "name": "resultID",
              "type": "uint64"
            },
            {
              "name": "numValidations",
              "type": "uint64"
            },
            {
              "name": "validators",
              "type": "address[]"
            },
            {
              "name": "signatures",
              "type": "bool[]"
            },
            {
              "name": "isValid",
              "type": "bool"
            },
            {
              "name": "status",
              "type": "bytes1"
            }
          ],
          "name": "",
          "type": "tuple"
        }
      ],
      "payable": false,
      "stateMutability": "view",
      "type": "function",
      "signature": "0x63c1dff7"
    },
    {
      "constant": true,
      "inputs": [],
      "name": "getProviderCount",
      "outputs": [
        {
          "name": "",
          "type": "uint256"
        }
      ],
      "payable": false,
      "stateMutability": "view",
      "type": "function",
      "signature": "0x46ce4175"
    },
    {
      "constant": true,
      "inputs": [],
      "name": "getRequestCount",
      "outputs": [
        {
          "name": "",
          "type": "uint256"
        }
      ],
      "payable": false,
      "stateMutability": "view",
      "type": "function",
      "signature": "0x3fad1834"
    },
    {
      "constant": true,
      "inputs": [],
      "name": "getProviderPool",
      "outputs": [
        {
          "name": "",
          "type": "address[]"
        }
      ],
      "payable": false,
      "stateMutability": "view",
      "type": "function",
      "signature": "0x9e723b97"
    },
    {
      "constant": true,
      "inputs": [],
      "name": "getPendingPool",
      "outputs": [
        {
          "name": "",
          "type": "address[]"
        }
      ],
      "payable": false,
      "stateMutability": "view",
      "type": "function",
      "signature": "0xa9ecaae7"
    },
    {
      "constant": true,
      "inputs": [],
      "name": "getValidatingPool",
      "outputs": [
        {
          "name": "",
          "type": "address[]"
        }
      ],
      "payable": false,
      "stateMutability": "view",
      "type": "function",
      "signature": "0x32c5200d"
    },
    {
      "constant": true,
      "inputs": [],
      "name": "getProvidingPool",
      "outputs": [
        {
          "name": "",
          "type": "address[]"
        }
      ],
      "payable": false,
      "stateMutability": "view",
      "type": "function",
      "signature": "0x1f1dab45"
    },
    {
      "constant": true,
      "inputs": [],
      "name": "getProviderPoolSize",
      "outputs": [
        {
          "name": "",
          "type": "uint256"
        }
      ],
      "payable": false,
      "stateMutability": "view",
      "type": "function",
      "signature": "0x353b2a1f"
    },
    {
      "constant": true,
      "inputs": [],
      "name": "getRequestPoolSize",
      "outputs": [
        {
          "name": "",
          "type": "uint256"
        }
      ],
      "payable": false,
      "stateMutability": "view",
      "type": "function",
      "signature": "0x5c4c8c4e"
    },
    {
      "constant": true,
      "inputs": [
        {
          "name": "IDList",
          "type": "address[]"
        }
      ],
      "name": "listRequests",
      "outputs": [
        {
          "components": [
            {
              "name": "reqID",
              "type": "uint256"
            },
            {
              "name": "blockNumber",
              "type": "uint256"
            },
            {
              "name": "provider",
              "type": "address"
            },
            {
              "name": "time",
              "type": "uint64"
            },
            {
              "name": "target",
              "type": "uint16"
            },
            {
              "name": "price",
              "type": "uint256"
            },
            {
              "name": "dataID",
              "type": "uint64"
            },
            {
              "name": "resultID",
              "type": "uint64"
            },
            {
              "name": "numValidations",
              "type": "uint64"
            },
            {
              "name": "validators",
              "type": "address[]"
            },
            {
              "name": "signatures",
              "type": "bool[]"
            },
            {
              "name": "isValid",
              "type": "bool"
            },
            {
              "name": "status",
              "type": "bytes1"
            }
          ],
          "name": "",
          "type": "tuple[50]"
        }
      ],
      "payable": false,
      "stateMutability": "view",
      "type": "function",
      "signature": "0xc052c4db"
    },
    {
      "constant": true,
      "inputs": [
        {
          "name": "IDList",
          "type": "address[]"
        }
      ],
      "name": "listProviders",
      "outputs": [
        {
          "components": [
            {
              "name": "provID",
              "type": "uint256"
            },
            {
              "name": "blockNumber",
              "type": "uint256"
            },
            {
              "name": "maxTime",
              "type": "uint64"
            },
            {
              "name": "maxTarget",
              "type": "uint16"
            },
            {
              "name": "minPrice",
              "type": "uint256"
            },
            {
              "name": "available",
              "type": "bool"
            }
          ],
          "name": "",
          "type": "tuple[50]"
        }
      ],
      "payable": false,
      "stateMutability": "view",
      "type": "function",
      "signature": "0x2d3272d3"
    }
  ],
  "bytecode": "0x608060405234801561001057600080fd5b50600060038190555060006004819055506140c9806100306000396000f3fe60806040526004361061011d576000357c0100000000000000000000000000000000000000000000000000000000900463ffffffff1680630708799e146101225780630e1e4a3c14610169578063189258de146101ab5780631f1dab45146101e85780632d3272d3146102135780632ddfdbcc1461025057806332c5200d1461028d5780633432d0f5146102b8578063353b2a1f146102f55780633fad18341461032057806346ce41751461034b57806355f21eb714610376578063566b2474146103b35780635c4c8c4e146103f057806363c1dff71461041b5780637dbcb1de146104585780639281e9ec146104885780639e723b97146104c5578063a9ecaae7146104f0578063aaef4a621461051b578063c052c4db14610558575b600080fd5b34801561012e57600080fd5b50610149600480360361014491908101906131fb565b610595565b6040516101609b9a99989796959493929190613d93565b60405180910390f35b34801561017557600080fd5b50610190600480360361018b91908101906131fb565b6106a6565b6040516101a296959493929190613e3e565b60405180910390f35b3480156101b757600080fd5b506101d260048036036101cd91908101906131fb565b610711565b6040516101df9190613d78565b60405180910390f35b3480156101f457600080fd5b506101fd610729565b60405161020a9190613cc0565b60405180910390f35b34801561021f57600080fd5b5061023a600480360361023591908101906132c5565b6107b7565b6040516102479190613ce2565b60405180910390f35b34801561025c57600080fd5b5061027760048036036102729190810190613306565b610841565b6040516102849190613d20565b60405180910390f35b34801561029957600080fd5b506102a2610b6b565b6040516102af9190613cc0565b60405180910390f35b3480156102c457600080fd5b506102df60048036036102da919081019061324d565b610bf9565b6040516102ec9190613d20565b60405180910390f35b34801561030157600080fd5b5061030a610ea8565b6040516103179190613d78565b60405180910390f35b34801561032c57600080fd5b50610335610eb5565b6040516103429190613d78565b60405180910390f35b34801561035757600080fd5b50610360610ebf565b60405161036d9190613d78565b60405180910390f35b34801561038257600080fd5b5061039d60048036036103989190810190613224565b610ec9565b6040516103aa9190613d3b565b60405180910390f35b3480156103bf57600080fd5b506103da60048036036103d59190810190613224565b610fad565b6040516103e79190613d20565b60405180910390f35b3480156103fc57600080fd5b506104056111e0565b6040516104129190613d78565b60405180910390f35b34801561042757600080fd5b50610442600480360361043d9190810190613224565b6111ed565b60405161044f9190613d56565b60405180910390f35b610472600480360361046d9190810190613355565b611544565b60405161047f9190613d20565b60405180910390f35b34801561049457600080fd5b506104af60048036036104aa9190810190613289565b6119a1565b6040516104bc9190613d20565b60405180910390f35b3480156104d157600080fd5b506104da611c01565b6040516104e79190613cc0565b60405180910390f35b3480156104fc57600080fd5b50610505611c8f565b6040516105129190613cc0565b60405180910390f35b34801561052757600080fd5b50610542600480360361053d9190810190613224565b611d1d565b60405161054f9190613d20565b60405180910390f35b34801561056457600080fd5b5061057f600480360361057a91908101906132c5565b611fdf565b60405161058c9190613cfe565b60405180910390f35b60016020528060005260406000206000915090508060000154908060010154908060020160009054906101000a900473ffffffffffffffffffffffffffffffffffffffff16908060020160149054906101000a900467ffffffffffffffff169080600201601c9054906101000a900461ffff16908060030154908060040160009054906101000a900467ffffffffffffffff16908060040160089054906101000a900467ffffffffffffffff16908060040160109054906101000a900467ffffffffffffffff16908060070160009054906101000a900460ff16908060070160019054906101000a90047f01000000000000000000000000000000000000000000000000000000000000000290508b565b60006020528060005260406000206000915090508060000154908060010154908060020160009054906101000a900467ffffffffffffffff16908060020160089054906101000a900461ffff16908060030154908060040160009054906101000a900460ff16905086565b60026020528060005260406000206000915090505481565b606060078054806020026020016040519081016040528092919081815260200182805480156107ad57602002820191906000526020600020905b8160009054906101000a900473ffffffffffffffffffffffffffffffffffffffff1673ffffffffffffffffffffffffffffffffffffffff1681526020019060010190808311610763575b5050505050905090565b6107bf612e37565b6107c7612e37565b60008090505b83518167ffffffffffffffff1610156108375761080a848267ffffffffffffffff168151811015156107fb57fe5b90602001906020020151610ec9565b828267ffffffffffffffff1660328110151561082257fe5b602002018190525080806001019150506107cd565b5080915050919050565b60006003546000803373ffffffffffffffffffffffffffffffffffffffff1673ffffffffffffffffffffffffffffffffffffffff16815260200190815260200160002060000181905550436000803373ffffffffffffffffffffffffffffffffffffffff1673ffffffffffffffffffffffffffffffffffffffff16815260200190815260200160002060010181905550836000803373ffffffffffffffffffffffffffffffffffffffff1673ffffffffffffffffffffffffffffffffffffffff16815260200190815260200160002060020160006101000a81548167ffffffffffffffff021916908367ffffffffffffffff160217905550836000803373ffffffffffffffffffffffffffffffffffffffff1673ffffffffffffffffffffffffffffffffffffffff16815260200190815260200160002060020160006101000a81548167ffffffffffffffff021916908367ffffffffffffffff160217905550826000803373ffffffffffffffffffffffffffffffffffffffff1673ffffffffffffffffffffffffffffffffffffffff16815260200190815260200160002060020160086101000a81548161ffff021916908361ffff1602179055508167ffffffffffffffff166000803373ffffffffffffffffffffffffffffffffffffffff1673ffffffffffffffffffffffffffffffffffffffff1681526020019081526020016000206003018190555060016000803373ffffffffffffffffffffffffffffffffffffffff1673ffffffffffffffffffffffffffffffffffffffff16815260200190815260200160002060040160006101000a81548160ff02191690831515021790555060053390806001815401808255809150509060018203906000526020600020016000909192909190916101000a81548173ffffffffffffffffffffffffffffffffffffffff021916908373ffffffffffffffffffffffffffffffffffffffff160217905550507fa332e7b06782060530f8d1575fcf83b5e831fe3dd09c85e53b0351a7c38ceeac33604051610b3c9190613c36565b60405180910390a1600360008154809291906001019190505550610b5f33612069565b50600190509392505050565b60606008805480602002602001604051908101604052809291908181526020018280548015610bef57602002820191906000526020600020905b8160009054906101000a900473ffffffffffffffffffffffffffffffffffffffff1673ffffffffffffffffffffffffffffffffffffffff1681526020019060010190808311610ba5575b5050505050905090565b6000600160008473ffffffffffffffffffffffffffffffffffffffff1673ffffffffffffffffffffffffffffffffffffffff16815260200190815260200160002060020160009054906101000a900473ffffffffffffffffffffffffffffffffffffffff1673ffffffffffffffffffffffffffffffffffffffff163373ffffffffffffffffffffffffffffffffffffffff16141515610dc057600160008473ffffffffffffffffffffffffffffffffffffffff1673ffffffffffffffffffffffffffffffffffffffff1681526020019081526020016000206005013390806001815401808255809150509060018203906000526020600020016000909192909190916101000a81548173ffffffffffffffffffffffffffffffffffffffff021916908373ffffffffffffffffffffffffffffffffffffffff16021790555050600160008473ffffffffffffffffffffffffffffffffffffffff1673ffffffffffffffffffffffffffffffffffffffff16815260200190815260200160002060060182908060018154018082558091505090600182039060005260206000209060209182820401919006909192909190916101000a81548160ff021916908315150217905550505b7f654163525cabcfa0ce95ecb1f232c75746c89688c42e7e2d52df90d770fc9e578333604051610df1929190613b34565b60405180910390a1600160008473ffffffffffffffffffffffffffffffffffffffff1673ffffffffffffffffffffffffffffffffffffffff16815260200190815260200160002060040160109054906101000a900467ffffffffffffffff1667ffffffffffffffff16600160008573ffffffffffffffffffffffffffffffffffffffff1673ffffffffffffffffffffffffffffffffffffffff16815260200190815260200160002060050180549050505092915050565b6000600580549050905090565b6000600454905090565b6000600354905090565b610ed1612e66565b6000808373ffffffffffffffffffffffffffffffffffffffff1673ffffffffffffffffffffffffffffffffffffffff16815260200190815260200160002060c0604051908101604052908160008201548152602001600182015481526020016002820160009054906101000a900467ffffffffffffffff1667ffffffffffffffff1667ffffffffffffffff1681526020016002820160089054906101000a900461ffff1661ffff1661ffff168152602001600382015481526020016004820160009054906101000a900460ff1615151515815250509050919050565b60008060009050600080905060008090505b600160008673ffffffffffffffffffffffffffffffffffffffff1673ffffffffffffffffffffffffffffffffffffffff168152602001908152602001600020600501805490508167ffffffffffffffff1610156110b15760011515600160008773ffffffffffffffffffffffffffffffffffffffff1673ffffffffffffffffffffffffffffffffffffffff1681526020019081526020016000206006018267ffffffffffffffff1681548110151561107357fe5b90600052602060002090602091828204019190069054906101000a900460ff16151514156110a45781806001019250505b8080600101915050610fbf565b50600160008573ffffffffffffffffffffffffffffffffffffffff1673ffffffffffffffffffffffffffffffffffffffff16815260200190815260200160002060040160109054906101000a900467ffffffffffffffff1667ffffffffffffffff168167ffffffffffffffff161015156111885760018060008673ffffffffffffffffffffffffffffffffffffffff1673ffffffffffffffffffffffffffffffffffffffff16815260200190815260200160002060070160006101000a81548160ff02191690831515021790555060019150611189565b5b7fa332e7b06782060530f8d1575fcf83b5e831fe3dd09c85e53b0351a7c38ceeac846040516111b89190613c64565b60405180910390a18180156111d457506111d360088561262d565b5b91508192505050919050565b6000600680549050905090565b6111f5612ead565b600160008373ffffffffffffffffffffffffffffffffffffffff1673ffffffffffffffffffffffffffffffffffffffff1681526020019081526020016000206101a0604051908101604052908160008201548152602001600182015481526020016002820160009054906101000a900473ffffffffffffffffffffffffffffffffffffffff1673ffffffffffffffffffffffffffffffffffffffff1673ffffffffffffffffffffffffffffffffffffffff1681526020016002820160149054906101000a900467ffffffffffffffff1667ffffffffffffffff1667ffffffffffffffff16815260200160028201601c9054906101000a900461ffff1661ffff1661ffff168152602001600382015481526020016004820160009054906101000a900467ffffffffffffffff1667ffffffffffffffff1667ffffffffffffffff1681526020016004820160089054906101000a900467ffffffffffffffff1667ffffffffffffffff1667ffffffffffffffff1681526020016004820160109054906101000a900467ffffffffffffffff1667ffffffffffffffff1667ffffffffffffffff1681526020016005820180548060200260200160405190810160405280929190818152602001828054801561142257602002820191906000526020600020905b8160009054906101000a900473ffffffffffffffffffffffffffffffffffffffff1673ffffffffffffffffffffffffffffffffffffffff16815260200190600101908083116113d8575b505050505081526020016006820180548060200260200160405190810160405280929190818152602001828054801561149f57602002820191906000526020600020906000905b82829054906101000a900460ff161515815260200190600101906020826000010492830192600103820291508084116114695790505b505050505081526020016007820160009054906101000a900460ff161515151581526020016007820160019054906101000a90047f0100000000000000000000000000000000000000000000000000000000000000027effffffffffffffffffffffffffffffffffffffffffffffffffffffffffffff19167effffffffffffffffffffffffffffffffffffffffffffffffffffffffffffff1916815250509050919050565b6000600454600160003373ffffffffffffffffffffffffffffffffffffffff1673ffffffffffffffffffffffffffffffffffffffff1681526020019081526020016000206000018190555043600160003373ffffffffffffffffffffffffffffffffffffffff1673ffffffffffffffffffffffffffffffffffffffff168152602001908152602001600020600101819055506000600160003373ffffffffffffffffffffffffffffffffffffffff1673ffffffffffffffffffffffffffffffffffffffff16815260200190815260200160002060020160006101000a81548173ffffffffffffffffffffffffffffffffffffffff021916908373ffffffffffffffffffffffffffffffffffffffff16021790555084600160003373ffffffffffffffffffffffffffffffffffffffff1673ffffffffffffffffffffffffffffffffffffffff16815260200190815260200160002060020160146101000a81548167ffffffffffffffff021916908367ffffffffffffffff16021790555083600160003373ffffffffffffffffffffffffffffffffffffffff1673ffffffffffffffffffffffffffffffffffffffff168152602001908152602001600020600201601c6101000a81548161ffff021916908361ffff1602179055508267ffffffffffffffff16600160003373ffffffffffffffffffffffffffffffffffffffff1673ffffffffffffffffffffffffffffffffffffffff1681526020019081526020016000206003018190555081600160003373ffffffffffffffffffffffffffffffffffffffff1673ffffffffffffffffffffffffffffffffffffffff16815260200190815260200160002060040160006101000a81548167ffffffffffffffff021916908367ffffffffffffffff16021790555060018060003373ffffffffffffffffffffffffffffffffffffffff1673ffffffffffffffffffffffffffffffffffffffff16815260200190815260200160002060040160106101000a81548167ffffffffffffffff021916908367ffffffffffffffff1602179055507f3000000000000000000000000000000000000000000000000000000000000000600160003373ffffffffffffffffffffffffffffffffffffffff1673ffffffffffffffffffffffffffffffffffffffff16815260200190815260200160002060070160016101000a81548160ff02191690837f01000000000000000000000000000000000000000000000000000000000000009004021790555060063390806001815401808255809150509060018203906000526020600020016000909192909190916101000a81548173ffffffffffffffffffffffffffffffffffffffff021916908373ffffffffffffffffffffffffffffffffffffffff160217905550507fa332e7b06782060530f8d1575fcf83b5e831fe3dd09c85e53b0351a7c38ceeac336040516119719190613c92565b60405180910390a1600460008154809291906001019190505550611994336127de565b5060019050949350505050565b6000600160008473ffffffffffffffffffffffffffffffffffffffff1673ffffffffffffffffffffffffffffffffffffffff16815260200190815260200160002060020160009054906101000a900473ffffffffffffffffffffffffffffffffffffffff1673ffffffffffffffffffffffffffffffffffffffff163373ffffffffffffffffffffffffffffffffffffffff161415611bf6577f3200000000000000000000000000000000000000000000000000000000000000600160008573ffffffffffffffffffffffffffffffffffffffff1673ffffffffffffffffffffffffffffffffffffffff16815260200190815260200160002060070160016101000a81548160ff02191690837f01000000000000000000000000000000000000000000000000000000000000009004021790555081600160008573ffffffffffffffffffffffffffffffffffffffff1673ffffffffffffffffffffffffffffffffffffffff16815260200190815260200160002060040160086101000a81548167ffffffffffffffff021916908367ffffffffffffffff160217905550611b4860078461262d565b5060088390806001815401808255809150509060018203906000526020600020016000909192909190916101000a81548173ffffffffffffffffffffffffffffffffffffffff021916908373ffffffffffffffffffffffffffffffffffffffff160217905550507fa332e7b06782060530f8d1575fcf83b5e831fe3dd09c85e53b0351a7c38ceeac83604051611bde9190613bda565b60405180910390a1611bef83611d1d565b9050611bfb565b600090505b92915050565b60606005805480602002602001604051908101604052809291908181526020018280548015611c8557602002820191906000526020600020905b8160009054906101000a900473ffffffffffffffffffffffffffffffffffffffff1673ffffffffffffffffffffffffffffffffffffffff1681526020019060010190808311611c3b575b5050505050905090565b60606006805480602002602001604051908101604052809291908181526020018280548015611d1357602002820191906000526020600020905b8160009054906101000a900473ffffffffffffffffffffffffffffffffffffffff1673ffffffffffffffffffffffffffffffffffffffff1681526020019060010190808311611cc9575b5050505050905090565b600080600160008473ffffffffffffffffffffffffffffffffffffffff1673ffffffffffffffffffffffffffffffffffffffff16815260200190815260200160002060040160109054906101000a900467ffffffffffffffff169050600080905060008090505b6005805490508167ffffffffffffffff161015611f9f57600060058267ffffffffffffffff16815481101515611db657fe5b9060005260206000200160009054906101000a900473ffffffffffffffffffffffffffffffffffffffff169050600160008773ffffffffffffffffffffffffffffffffffffffff1673ffffffffffffffffffffffffffffffffffffffff16815260200190815260200160002060020160009054906101000a900473ffffffffffffffffffffffffffffffffffffffff1673ffffffffffffffffffffffffffffffffffffffff168173ffffffffffffffffffffffffffffffffffffffff16141515611f26577f654163525cabcfa0ce95ecb1f232c75746c89688c42e7e2d52df90d770fc9e578682604051611eab929190613af8565b60405180910390a1828060010193505060008060008373ffffffffffffffffffffffffffffffffffffffff1673ffffffffffffffffffffffffffffffffffffffff16815260200190815260200160002060040160006101000a81548160ff021916908315150217905550611f2060058261262d565b50611f2c565b50611f92565b8367ffffffffffffffff168367ffffffffffffffff161015611f4e5750611f92565b7fa332e7b06782060530f8d1575fcf83b5e831fe3dd09c85e53b0351a7c38ceeac86604051611f7d9190613c08565b60405180910390a16001945050505050611fda565b8080600101915050611d84565b507fa332e7b06782060530f8d1575fcf83b5e831fe3dd09c85e53b0351a7c38ceeac84604051611fcf9190613bac565b60405180910390a150505b919050565b611fe7612f7c565b611fef612f7c565b60008090505b83518167ffffffffffffffff16101561205f57612032848267ffffffffffffffff1681518110151561202357fe5b906020019060200201516111ed565b828267ffffffffffffffff1660328110151561204a57fe5b60200201819052508080600101915050611ff5565b5080915050919050565b60008060068054905014156120a0577f32000000000000000000000000000000000000000000000000000000000000009050612628565b60008090505b6006805490508167ffffffffffffffff16101561260357600060068267ffffffffffffffff168154811015156120d857fe5b9060005260206000200160009054906101000a900473ffffffffffffffffffffffffffffffffffffffff1690506000808573ffffffffffffffffffffffffffffffffffffffff1673ffffffffffffffffffffffffffffffffffffffff16815260200190815260200160002060020160009054906101000a900467ffffffffffffffff1667ffffffffffffffff16600160008373ffffffffffffffffffffffffffffffffffffffff1673ffffffffffffffffffffffffffffffffffffffff16815260200190815260200160002060020160149054906101000a900467ffffffffffffffff1667ffffffffffffffff161115801561227b57506000808573ffffffffffffffffffffffffffffffffffffffff1673ffffffffffffffffffffffffffffffffffffffff16815260200190815260200160002060020160089054906101000a900461ffff1661ffff16600160008373ffffffffffffffffffffffffffffffffffffffff1673ffffffffffffffffffffffffffffffffffffffff168152602001908152602001600020600201601c9054906101000a900461ffff1661ffff1611155b801561230a57506000808573ffffffffffffffffffffffffffffffffffffffff1673ffffffffffffffffffffffffffffffffffffffff16815260200190815260200160002060030154600160008373ffffffffffffffffffffffffffffffffffffffff1673ffffffffffffffffffffffffffffffffffffffff1681526020019081526020016000206003015410155b156125f55760008060008673ffffffffffffffffffffffffffffffffffffffff1673ffffffffffffffffffffffffffffffffffffffff16815260200190815260200160002060040160006101000a81548160ff02191690831515021790555061237460058561262d565b5083600160008373ffffffffffffffffffffffffffffffffffffffff1673ffffffffffffffffffffffffffffffffffffffff16815260200190815260200160002060020160006101000a81548173ffffffffffffffffffffffffffffffffffffffff021916908373ffffffffffffffffffffffffffffffffffffffff1602179055507f3300000000000000000000000000000000000000000000000000000000000000600160008373ffffffffffffffffffffffffffffffffffffffff1673ffffffffffffffffffffffffffffffffffffffff16815260200190815260200160002060070160016101000a81548160ff02191690837f01000000000000000000000000000000000000000000000000000000000000009004021790555061249c60068261262d565b50600160008273ffffffffffffffffffffffffffffffffffffffff1673ffffffffffffffffffffffffffffffffffffffff16815260200190815260200160002060030154600260008373ffffffffffffffffffffffffffffffffffffffff1673ffffffffffffffffffffffffffffffffffffffff1681526020019081526020016000206000828254019250508190555060078190806001815401808255809150509060018203906000526020600020016000909192909190916101000a81548173ffffffffffffffffffffffffffffffffffffffff021916908373ffffffffffffffffffffffffffffffffffffffff160217905550507f654163525cabcfa0ce95ecb1f232c75746c89688c42e7e2d52df90d770fc9e5781856040516125c3929190613b70565b60405180910390a17f300000000000000000000000000000000000000000000000000000000000000092505050612628565b5080806001019150506120a6565b507f310000000000000000000000000000000000000000000000000000000000000090505b919050565b600080600090505b83805490508167ffffffffffffffff1610156127d2578273ffffffffffffffffffffffffffffffffffffffff16848267ffffffffffffffff1681548110151561267a57fe5b9060005260206000200160009054906101000a900473ffffffffffffffffffffffffffffffffffffffff1673ffffffffffffffffffffffffffffffffffffffff1614156127c5578360018580549050038154811015156126d657fe5b9060005260206000200160009054906101000a900473ffffffffffffffffffffffffffffffffffffffff16848267ffffffffffffffff1681548110151561271957fe5b9060005260206000200160006101000a81548173ffffffffffffffffffffffffffffffffffffffff021916908373ffffffffffffffffffffffffffffffffffffffff16021790555083600185805490500381548110151561277657fe5b9060005260206000200160006101000a81549073ffffffffffffffffffffffffffffffffffffffff0219169055600184818180549050039150816127ba9190612fab565b5060019150506127d8565b8080600101915050612635565b50600090505b92915050565b6000806005805490501415612815577f32000000000000000000000000000000000000000000000000000000000000009050612e32565b60008090505b6005805490508167ffffffffffffffff161015612e0d57600060058267ffffffffffffffff1681548110151561284d57fe5b9060005260206000200160009054906101000a900473ffffffffffffffffffffffffffffffffffffffff169050600073ffffffffffffffffffffffffffffffffffffffff168173ffffffffffffffffffffffffffffffffffffffff16141580156129095750600115156000808373ffffffffffffffffffffffffffffffffffffffff1673ffffffffffffffffffffffffffffffffffffffff16815260200190815260200160002060040160009054906101000a900460ff161515145b15612dff576000808273ffffffffffffffffffffffffffffffffffffffff1673ffffffffffffffffffffffffffffffffffffffff16815260200190815260200160002060020160089054906101000a900461ffff1661ffff16600160008673ffffffffffffffffffffffffffffffffffffffff1673ffffffffffffffffffffffffffffffffffffffff168152602001908152602001600020600201601c9054906101000a900461ffff1661ffff1611158015612a8457506000808273ffffffffffffffffffffffffffffffffffffffff1673ffffffffffffffffffffffffffffffffffffffff16815260200190815260200160002060020160009054906101000a900467ffffffffffffffff1667ffffffffffffffff16600160008673ffffffffffffffffffffffffffffffffffffffff1673ffffffffffffffffffffffffffffffffffffffff16815260200190815260200160002060020160149054906101000a900467ffffffffffffffff1667ffffffffffffffff1611155b8015612b1357506000808273ffffffffffffffffffffffffffffffffffffffff1673ffffffffffffffffffffffffffffffffffffffff16815260200190815260200160002060030154600160008673ffffffffffffffffffffffffffffffffffffffff1673ffffffffffffffffffffffffffffffffffffffff1681526020019081526020016000206003015410155b15612dfe5760008060008373ffffffffffffffffffffffffffffffffffffffff1673ffffffffffffffffffffffffffffffffffffffff16815260200190815260200160002060040160006101000a81548160ff021916908315150217905550612b7d60058261262d565b5080600160008673ffffffffffffffffffffffffffffffffffffffff1673ffffffffffffffffffffffffffffffffffffffff16815260200190815260200160002060020160006101000a81548173ffffffffffffffffffffffffffffffffffffffff021916908373ffffffffffffffffffffffffffffffffffffffff1602179055507f3100000000000000000000000000000000000000000000000000000000000000600160008673ffffffffffffffffffffffffffffffffffffffff1673ffffffffffffffffffffffffffffffffffffffff16815260200190815260200160002060070160016101000a81548160ff02191690837f010000000000000000000000000000000000000000000000000000000000000090040217905550612ca560068561262d565b50600160008573ffffffffffffffffffffffffffffffffffffffff1673ffffffffffffffffffffffffffffffffffffffff16815260200190815260200160002060030154600260008673ffffffffffffffffffffffffffffffffffffffff1673ffffffffffffffffffffffffffffffffffffffff1681526020019081526020016000206000828254019250508190555060078490806001815401808255809150509060018203906000526020600020016000909192909190916101000a81548173ffffffffffffffffffffffffffffffffffffffff021916908373ffffffffffffffffffffffffffffffffffffffff160217905550507f654163525cabcfa0ce95ecb1f232c75746c89688c42e7e2d52df90d770fc9e578482604051612dcc929190613b70565b60405180910390a17f300000000000000000000000000000000000000000000000000000000000000092505050612e32565b5b50808060010191505061281b565b507f310000000000000000000000000000000000000000000000000000000000000090505b919050565b612580604051908101604052806032905b612e50612fd7565b815260200190600190039081612e485790505090565b60c0604051908101604052806000815260200160008152602001600067ffffffffffffffff168152602001600061ffff168152602001600081526020016000151581525090565b6101a0604051908101604052806000815260200160008152602001600073ffffffffffffffffffffffffffffffffffffffff168152602001600067ffffffffffffffff168152602001600061ffff16815260200160008152602001600067ffffffffffffffff168152602001600067ffffffffffffffff168152602001600067ffffffffffffffff168152602001606081526020016060815260200160001515815260200160007effffffffffffffffffffffffffffffffffffffffffffffffffffffffffffff191681525090565b615140604051908101604052806032905b612f9561301e565b815260200190600190039081612f8d5790505090565b815481835581811115612fd257818360005260206000209182019101612fd191906130ed565b5b505050565b60c0604051908101604052806000815260200160008152602001600067ffffffffffffffff168152602001600061ffff168152602001600081526020016000151581525090565b6101a0604051908101604052806000815260200160008152602001600073ffffffffffffffffffffffffffffffffffffffff168152602001600067ffffffffffffffff168152602001600061ffff16815260200160008152602001600067ffffffffffffffff168152602001600067ffffffffffffffff168152602001600067ffffffffffffffff168152602001606081526020016060815260200160001515815260200160007effffffffffffffffffffffffffffffffffffffffffffffffffffffffffffff191681525090565b61310f91905b8082111561310b5760008160009055506001016130f3565b5090565b90565b600061311e823561403d565b905092915050565b6000613132823561404f565b905092915050565b600082601f830112151561314d57600080fd5b813561316061315b82613ecc565b613e9f565b9150818183526020840193506020810190508385602084028201111561318557600080fd5b60005b838110156131b5578161319b8882613126565b845260208401935060208301925050600181019050613188565b5050505092915050565b60006131cb8235614061565b905092915050565b60006131df823561406d565b905092915050565b60006131f3823561407b565b905092915050565b60006020828403121561320d57600080fd5b600061321b84828501613112565b91505092915050565b60006020828403121561323657600080fd5b600061324484828501613126565b91505092915050565b6000806040838503121561326057600080fd5b600061326e85828601613126565b925050602061327f858286016131bf565b9150509250929050565b6000806040838503121561329c57600080fd5b60006132aa85828601613126565b92505060206132bb858286016131e7565b9150509250929050565b6000602082840312156132d757600080fd5b600082013567ffffffffffffffff8111156132f157600080fd5b6132fd8482850161313a565b91505092915050565b60008060006060848603121561331b57600080fd5b6000613329868287016131e7565b935050602061333a868287016131d3565b925050604061334b868287016131e7565b9150509250925092565b6000806000806080858703121561336b57600080fd5b6000613379878288016131e7565b945050602061338a878288016131d3565b935050604061339b878288016131e7565b92505060606133ac878288016131e7565b91505092959194509250565b6133c181613fa7565b82525050565b60006133d282613f3a565b8084526020840193506133e483613f01565b60005b82811015613416576133fa8683516133b8565b61340382613f73565b91506020860195506001810190506133e7565b50849250505092915050565b600061342d82613f2f565b80845260208401935061343f83613ef4565b60005b82811015613471576134558683516133b8565b61345e82613f66565b9150602086019550600181019050613442565b50849250505092915050565b600061348882613f45565b80845260208401935061349a83613f0e565b60005b828110156134cc576134b0868351613588565b6134b982613f80565b915060208601955060018101905061349d565b50849250505092915050565b6134e181613f50565b6134ea82613f1b565b60005b8281101561351c57613500858351613810565b61350982613f8d565b915060c0850194506001810190506134ed565b5050505050565b600061352e82613f5b565b8360208202850161353e85613f25565b60005b848110156135775783830388526135598383516139ab565b925061356482613f9a565b9150602088019750600181019050613541565b508196508694505050505092915050565b61359181613fb9565b82525050565b6135a081613fc5565b82525050565b6000601582527f4e6f7420656e6f7567682076616c696461746f727300000000000000000000006020830152604082019050919050565b6000601f82527f56616c69646174696f6e2041737369676e656420746f2050726f7669646572006020830152604082019050919050565b6000601d82527f5265717565737420436f6d7075746174696f6e20436f6d706c657465640000006020830152604082019050919050565b6000601182527f456e6f7567682076616c696461746f72730000000000000000000000000000006020830152604082019050919050565b6000600e82527f50726f76696465722041646465640000000000000000000000000000000000006020830152604082019050919050565b6000601082527f56616c696461746f72205369676e6564000000000000000000000000000000006020830152604082019050919050565b6000601082527f526571756573742041737369676e6564000000000000000000000000000000006020830152604082019050919050565b6000601382527f56616c69646174696f6e20436f6d706c657465000000000000000000000000006020830152604082019050919050565b6000600d82527f52657175657374204164646564000000000000000000000000000000000000006020830152604082019050919050565b60c0820160008201516137ab6000850182613ada565b5060208201516137be6020850182613ada565b5060408201516137d16040850182613ae9565b5060608201516137e46060850182613acb565b5060808201516137f76080850182613ada565b5060a082015161380a60a0850182613588565b50505050565b60c0820160008201516138266000850182613ada565b5060208201516138396020850182613ada565b50604082015161384c6040850182613ae9565b50606082015161385f6060850182613acb565b5060808201516138726080850182613ada565b5060a082015161388560a0850182613588565b50505050565b60006101a0830160008301516138a46000860182613ada565b5060208301516138b76020860182613ada565b5060408301516138ca60408601826133b8565b5060608301516138dd6060860182613ae9565b5060808301516138f06080860182613acb565b5060a083015161390360a0860182613ada565b5060c083015161391660c0860182613ae9565b5060e083015161392960e0860182613ae9565b5061010083015161393e610100860182613ae9565b506101208301518482036101208601526139588282613422565b915050610140830151848203610140860152613974828261347d565b91505061016083015161398b610160860182613588565b506101808301516139a0610180860182613597565b508091505092915050565b60006101a0830160008301516139c46000860182613ada565b5060208301516139d76020860182613ada565b5060408301516139ea60408601826133b8565b5060608301516139fd6060860182613ae9565b506080830151613a106080860182613acb565b5060a0830151613a2360a0860182613ada565b5060c0830151613a3660c0860182613ae9565b5060e0830151613a4960e0860182613ae9565b50610100830151613a5e610100860182613ae9565b50610120830151848203610120860152613a788282613422565b915050610140830151848203610140860152613a94828261347d565b915050610160830151613aab610160860182613588565b50610180830151613ac0610180860182613597565b508091505092915050565b613ad481613ff1565b82525050565b613ae38161401f565b82525050565b613af281614029565b82525050565b6000606082019050613b0d60008301856133b8565b613b1a60208301846133b8565b8181036040830152613b2b816135dd565b90509392505050565b6000606082019050613b4960008301856133b8565b613b5660208301846133b8565b8181036040830152613b67816136b9565b90509392505050565b6000606082019050613b8560008301856133b8565b613b9260208301846133b8565b8181036040830152613ba3816136f0565b90509392505050565b6000604082019050613bc160008301846133b8565b8181036020830152613bd2816135a6565b905092915050565b6000604082019050613bef60008301846133b8565b8181036020830152613c0081613614565b905092915050565b6000604082019050613c1d60008301846133b8565b8181036020830152613c2e8161364b565b905092915050565b6000604082019050613c4b60008301846133b8565b8181036020830152613c5c81613682565b905092915050565b6000604082019050613c7960008301846133b8565b8181036020830152613c8a81613727565b905092915050565b6000604082019050613ca760008301846133b8565b8181036020830152613cb88161375e565b905092915050565b60006020820190508181036000830152613cda81846133c7565b905092915050565b600061258082019050613cf860008301846134d8565b92915050565b60006020820190508181036000830152613d188184613523565b905092915050565b6000602082019050613d356000830184613588565b92915050565b600060c082019050613d506000830184613795565b92915050565b60006020820190508181036000830152613d70818461388b565b905092915050565b6000602082019050613d8d6000830184613ada565b92915050565b600061016082019050613da9600083018e613ada565b613db6602083018d613ada565b613dc3604083018c6133b8565b613dd0606083018b613ae9565b613ddd608083018a613acb565b613dea60a0830189613ada565b613df760c0830188613ae9565b613e0460e0830187613ae9565b613e12610100830186613ae9565b613e20610120830185613588565b613e2e610140830184613597565b9c9b505050505050505050505050565b600060c082019050613e536000830189613ada565b613e606020830188613ada565b613e6d6040830187613ae9565b613e7a6060830186613acb565b613e876080830185613ada565b613e9460a0830184613588565b979650505050505050565b6000604051905081810181811067ffffffffffffffff82111715613ec257600080fd5b8060405250919050565b600067ffffffffffffffff821115613ee357600080fd5b602082029050602081019050919050565b6000602082019050919050565b6000602082019050919050565b6000602082019050919050565b6000819050919050565b6000819050919050565b600081519050919050565b600081519050919050565b600081519050919050565b600060329050919050565b600060329050919050565b6000602082019050919050565b6000602082019050919050565b6000602082019050919050565b6000602082019050919050565b6000602082019050919050565b6000613fb282613fff565b9050919050565b60008115159050919050565b60007fff0000000000000000000000000000000000000000000000000000000000000082169050919050565b600061ffff82169050919050565b600073ffffffffffffffffffffffffffffffffffffffff82169050919050565b6000819050919050565b600067ffffffffffffffff82169050919050565b600061404882613fff565b9050919050565b600061405a82613fff565b9050919050565b60008115159050919050565b600061ffff82169050919050565b600067ffffffffffffffff8216905091905056fea265627a7a72305820204c2499be26cc1c050852facc54deed46619c96217c2e5ec7de7c4608324b266c6578706572696d656e74616cf50037",
  "source": "/////////////////////////////////////////////////////////////////////////////////////\n//version 1.9.1\n//Author: Taurus\n//Copyright: tlu4@lsu.edu\n//\n//NOTE: non-view functions cannot return values, only possible way is event\n//Changes from v0.9x. Each node has unique address as identifier. All pools removed \n//All req and prov handled in the mapping.\n//update 12/12: pools cannot be removed, since we need to track who are active, cannot search in mapping.\n///////////////////////////////////////////////////////////////////////////////////////\npragma solidity ^0.5.0;\npragma experimental ABIEncoderV2;   //return self-defined type\n\ncontract TaskContract {\n    //list\n    mapping (address => Provider) public providerList;   //All here\n    mapping (address => Request)  public requestList;    //All here\n    mapping (address => uint256)  public balanceList;    //reqID => balance\n \n    //ID - counter\n    uint256 private providerCount;     //+1 each time\n    uint256 private requestCount;\n\n    \n\n    constructor() public {      //sol 5.0 syntax\n        providerCount = 0;\n        requestCount = 0;\n    }\n\n    struct Request {\n        uint256 reqID;              //requestID is the only identifier for each Request\n        uint256 blockNumber;\n        //address payable addr;       //payable is new feature from sol v5.0\n        //uint256 assignedProvider;\n        address payable provider;         //\n        //address payable provider;   //addr of worker\n        uint64  time;               //time\n        uint16  target;             //target 0-100.00\n        uint256 price;              //the max amount he can pay\n        uint64  dataID;             //dataID used to fetch the off-chain data\n        uint64  resultID;           //dataID to fetch the result\n        uint64  numValidations;   //user defined the validation\n        address payable []  validators;        //multisignature from validations\n        bool[] signatures;\n        bool    isValid;            //the final flag\n        byte    status;              //0: 'pending', 1:'providing', 2: validating, 3: complete\n    }\n\n    struct Provider {\n        uint256 provID;\n        uint256 blockNumber;\n        //address payable addr;       //providers address   \n                                    //TODO: the provider name registration.\n        uint64  maxTime;            //max time\n        uint16  maxTarget;          //max target he need\n        uint256 minPrice;           //lowest price can accept\n        bool    available;          // Used to determine if provider is already doing something\n    }\n\n    event SystemInfo        (address payable addr, bytes info);\n    event PairingInfo       (address payable req, address payable prov, bytes info);\n\n    address payable [] providerPool;\n    address payable [] pendingPool;\n    address payable [] providingPool;\n    address payable [] validatingPool;\n    /////////////////////////////////////////////////////////////////////////////////////\n\n    \n    // Function called to become a provider. New on List, Map and Pool. \n    // NOTE: cannot use to update. You must stop a previous one and start a new one.\n    // TIPS: gas cost: don't create local copy and write back, modify the storage directly.\n    //gas cost 165K without event / 167K with event / 92K overwrite\n    function startProviding(uint64 maxTime, uint16 maxTarget, uint64 minPrice) public returns (bool) {\n        // register a new provider object in the List and map              \n        providerList[msg.sender].provID         = providerCount;      //cost 50k per item edit\n        providerList[msg.sender].blockNumber    = block.number;\n            //providerList[msg.sender].addr           = msg.sender;             \n        providerList[msg.sender].maxTime        = maxTime;\n        providerList[msg.sender].maxTime        = maxTime;       \n        providerList[msg.sender].maxTarget      = maxTarget;\n        providerList[msg.sender].minPrice       = minPrice;\n        providerList[msg.sender].available      = true;  //turn on the flag at LAST\n        // ready for the next       \n        providerPool.push(msg.sender);\n        emit SystemInfo (msg.sender, \"Provider Added\");\n        providerCount++;\n        assignProvider(msg.sender);\n        return true;\n    }\n    /*// Stop a provider, if you know a provider ID. Get em using getProvID()\n    // Must be sent from the provider address or it will be failed.\n    function stopProviding(uint256 provID) public returns (bool) {\n        // If the sender is currently an active provider\n        bool flag = false;\n        if (providerList[provID].available == true                 //can only stop available provider\n                && providerList[provID].addr == msg.sender) {      //you cannot delete other's provider            \n            delete providerList[provID];                           //delete from List\n            flag = ArrayPop(providerMap[msg.sender], provID);      //delete form Map\n            flag = ArrayPop(providerPool, provID) && flag;         //delete from Pool             \n        }\n        if(flag) emit ProviderStopped(provID, msg.sender);\n        return flag;\n    }\n    //update a provider, you must know the provID and must sent from right addr\n    function updateProvider(uint64 maxTime, uint16 maxTarget, uint64 minPrice, uint256 provID) public returns (bool) {      \n        bool flag = false;\n        if(providerList[provID].available == true           //can only modify available provider\n        && providerList[provID].addr != msg.sender){        //you are modify other's config\n            providerList[provID].blockNumber    = block.number;         \n            providerList[provID].maxTime        = maxTime;       \n            providerList[provID].maxTarget      = maxTarget;\n            providerList[provID].minPrice       = minPrice;\n            //update pool       -- pop then push , because we need to scan pool anyway\n            flag = ArrayPop(providerPool,provID);           // pop first                                      \n            providerPool.push(provID);                      // push in both case anyway\n            //update map -- no need provID not changed.\n            emit ProviderUpdated(provID, msg.sender);\n            return flag;\n        }\n    }*/\n\n    // Send a request from user to blockchain.\n    // Assumes price is including the cost for verification\n    function startRequest(uint64 time, uint16 target, uint64 price, uint64 dataID) payable public returns (bool) {\n        //register on List\n        requestList[msg.sender].reqID         = requestCount;\n        requestList[msg.sender].blockNumber   = block.number;  \n        requestList[msg.sender].provider      = address(0);      \n        requestList[msg.sender].time          = time;    \n        requestList[msg.sender].target        = target;\n        requestList[msg.sender].price         = price;\n        requestList[msg.sender].dataID        = dataID;\n        requestList[msg.sender].numValidations = 1;\n        requestList[msg.sender].status = '0' ;     //pending 0x30, not 0\n        pendingPool.push(msg.sender);\n        emit SystemInfo (msg.sender, \"Request Added\");\n        \n        //update count\n        requestCount++;     \n        \n        assignRequest(msg.sender);\n        return true;\n    }\n\n/*\n    // Used to be sure you are seen as available. e.g. power outage caused you to lose available status on network.\n    // Not to be called after stopProviding to resume -- startProviding used in this case.\n    //function restart() public returns (bool) {\n    //if (providerList[providerID[msg.sender]].addr == msg.sender) {\n    //     providers[providerID[msg.sender]].available = true;\n    //       return true;\n    //    }\n    //else {\n    //    return false; // provider wasnt found in mapping\n    //  }\n    //}\n*/\n\n    // Search in the requestPool, find a job for current provider. Triggered by startProviding\n    // Return true if a match or false if not.\n    // Returns: 0: successfully assigned\n    //          1: searched all providers but find no match\n    //          2: no available provider right now\n    //          3: failure during poping pool\n    function assignProvider(address payable addr) private returns (byte){\n        if(pendingPool.length == 0) return '2';\n        else {\n            //search throught the requestPool\n            for (uint64 i = 0; i < pendingPool.length; i++){\n                //save the re-usable reqID , may save gas\n                address payable reqAddr = pendingPool[i];    \n                if( requestList[reqAddr].time     <= providerList[addr].maxTime &&\n                    requestList[reqAddr].target   <= providerList[addr].maxTarget &&\n                    requestList[reqAddr].price    >= providerList[addr].minPrice){\n                        //meet the requirement, assign the task\n                        //update provider\n                        providerList[addr].available = false;\n                        ArrayPop(providerPool, addr);\n\n                        //update request\n                        requestList[reqAddr].provider = addr;\n                        requestList[reqAddr].status = '3';    //providing\n                        ArrayPop(pendingPool, reqAddr);\n\n                        //update balanceList            addr here is requester's\n                        balanceList[reqAddr] += requestList[reqAddr].price; \n\n                        providingPool.push(reqAddr);                       \n                        //status move from pending to providing\n                        emit PairingInfo(reqAddr, addr, \"Request Assigned\");\n                        return '0';                   \n                }                \n            }\n            //after for loop and no match\n            return '1';\n        }\n    }\n\n\n\n\n\n    \n\n    /*function requestTask(uint64 dataID, uint16 target, uint64 time) payable public returns (bool) {\n        bool[] memory emptyArray;\n        Request memory req = Request(           //create a temp memory var\n            msg.sender,             //addr\n            address(0),             //provider\n            requestCount,           //reqID\n            dataID,                 //dataID\n            time,                   //time    \n            target,                 //target   0-100\n            msg.value,              //price \n            0,                      //resultID\n            1,                      //numValidationsNeeded\n            emptyArray,             //sig list\n            false,                  //isValid\n            0                       //status  0-3 0: pending\n        );\n\n        //copy the mem var into storage\n        requestList[requestCount] = req;        //requestCount used as index here, from 0 to +++\n        //add new to requestPool\n        requestPool.push(requestCount);\n        //update requestID\n        requestID[msg.sender].push(requestCount);\n        //update count\n        requestCount++;     //count already stands for the # of req now.\n        pendingCount++;\n        return assignTask();\n    }\n*/\n\n    // Assigning one task to one of the available providers. Only called from requestTask (private)\n    // Search in the providerPool, if no match in the end, return false\n    //could only assign one task at a time\n    //auto sel the first searching result for now, no comparation between multiple availability.\n    //TODO: need ot add preference next patch\n    // Returns: 0: successfully assigned\n    //          1: searched all providers but find no match\n    //          2: no available provider right now\n    //          3: failure during poping pool\n    function assignRequest(address payable reqID) private returns (byte) {\n        //provider availability is checked in pool not in list\n        if (providerPool.length == 0)   return '2';\n        else {            //if any provider in pool\n            for (uint64 i = 0; i < providerPool.length; i++) {\n                // save the provider's addr, reusable and save gas cost\n                address payable addr  = providerPool[i];\n                if(addr != address(0) && providerList[addr].available == true){\n                    // Check if request conditions meet the providers requirements\n                    if (requestList[reqID].target <= providerList[addr].maxTarget && \n                        requestList[reqID].time <= providerList[addr].maxTime && \n                        requestList[reqID].price >= providerList[addr].minPrice) {\n                        \n                        //update provider:\n                        providerList[addr].available = false;\n                        ArrayPop(providerPool, addr);\n\n                        //update request\n                        requestList[reqID].provider = addr;\n                        requestList[reqID].status = '1';    //providing\n                        ArrayPop(pendingPool, reqID);\n\n                        //update balanceList              \n                        balanceList[reqID] += requestList[reqID].price; \n\n                        providingPool.push(reqID);\n                        //EVENT\n                        emit PairingInfo(reqID, addr, \"Request Assigned\"); // Let provider listen for this event to see he was selected\n                        return '0';\n                    }\n                }\n            }\n            // No provider was found matching the criteria -- request failed\n            //requestList[reqID].addr.transfer(requestList[reqID].price); // Returns the ether to the sender\n            return '1';\n        }\n    }\n\n\n\n\n\n    // Provider will call this when they are done and the data is available.\n    // This will invoke the validation stage but only when the request got enough validators\n    // that req could be moved from pool and marked,\n    // Or that req stays providing\n    function completeRequest(address payable reqID, uint64 resultID) public returns (bool) {\n        // Confirm msg.sender is actually the provider of the task he claims\n        if (msg.sender == requestList[reqID].provider) {\n            //change request obj\n            requestList[reqID].status = '2';    //validating\n            requestList[reqID].resultID = resultID;\n            //move from providing pool to validating Pool.\n            ArrayPop(providingPool, reqID);\n            validatingPool.push(reqID);\n            //release provider (not necessarily depend on provider)\n            //providerList[providerID[msg.sender]].available = true;\n            //emit assignRequest(reqID, msg.sender);\n            emit SystemInfo(reqID, 'Request Computation Completed');\n            //start validation process\n                return validateRequest(reqID);\n        }\n        else {\n            return false;\n        }\n    }\n\n    // Called by assignRequest before finalizing stuff. Contract checks with validators\n    // Returns false if there wasnt enough free providers to send out the required number of validation requests\n    // need validation from 1/10 of nodes -- could change\n    function validateRequest(address payable reqID) public returns (bool) {\n        uint64 numValidatorsNeeded = requestList[reqID].numValidations; \n        //uint numValidators = providerCount / 10; \n        uint64 validatorsFound = 0;\n        //requestList[reqID].numValidationsNeeded = numValidators;\n        //select # of available provider from the pool and force em to do the validation\n        for (uint64 i = 0; i < providerPool.length; i++) {\n            //get provider ID\n            address payable provID = providerPool[i];\n            if(provID != requestList[reqID].provider){   //validator and computer cannot be same\n                //EVENT: informs validator that they were selected and need to validate\n                emit PairingInfo(reqID, provID, 'Validation Assigned to Provider');\n                validatorsFound++;\n                //remove the providers availablity and pop from pool\n                providerList[provID].available = false;\n                ArrayPop(providerPool, provID);\n            } else continue;\n            //check whether got enough validator\n            if(validatorsFound < numValidatorsNeeded){\n                continue;\n            }\n            else{       //enough validator\n                emit SystemInfo(reqID, 'Enough validators');\n                return true;\n                break;\n            }\n            //loop until certain # of validators selected\n        }   \n        //exit loop without enough validators\n        //emit NotEnoughValidation(reqID);    \n        emit SystemInfo(reqID, 'Not enough validators');\n    }\n\n\n\n\n\n    // needs to be more secure by ensuring the submission is coming from someone legit \n    // similar to completeTask but this will sign the validation list of the target Task\n    //TODO: the money part is ommited for now\n    function submitValidation(address payable reqID, bool result) public returns (bool) {\n        // Pay the validator \n        // uint partialPayment = requestList[reqID].price / 100; // amount each validator is paid\n        // msg.sender.transfer(partialPayment);\n        // balanceList[requestList[reqID].addr] -= partialPayment;\n        if(msg.sender != requestList[reqID].provider) {     //validator cannot be provider\n            requestList[reqID].validators.push(msg.sender);     //push array\n            requestList[reqID].signatures.push(result);     //edit mapping\n        }\n        //emit ValidationInfo(reqID, provID, 'Validator Signed');\n        //check if valid\n        \n        emit PairingInfo(reqID, msg.sender, 'Validator Signed');\n       \n        // If enough validations have been submitted\n        if (requestList[reqID].validators.length == requestList[reqID].numValidations) {\n            //return checkValidation(reqID, requestList[reqID].price - requestList[reqID].numValidationsNeeded * partialPayment);\n            //checkValidation(reqID);\n        }\n    }\n    \n    function checkValidation(address payable reqID) public returns (bool) {\n        // Add up successful validations\n        bool flag = false;\n        uint64 successCount = 0;\n        for (uint64 i=0; i<requestList[reqID].validators.length; i++) {\n            if (requestList[reqID].signatures[i] == true) successCount++;\n        }\n        // if 2/3 of validation attempts were successful\n        // TODO: determine the fraction\n        if (successCount  >= requestList[reqID].numValidations) { \n            // if 2/3 of validations were valid then provider gets remainder of money\n            //requestList[reqID].provider.transfer(payment); \n            //balanceList[requestList[reqID].addr] -= payment;\n            //TODO: [important] leave out the payment part for now.\n            requestList[reqID].isValid = true; // Task was successfully completed! \n            flag = true;\n        }\n        // otherwise, work was invalid, the providers payment goes back to requester\n        else {\n            //requestList[reqID].addr.transfer(payment);\n            //balanceList[requestList[reqID].addr] -= payment;\n        }\n        // EVENT: task is done whether successful or not\n        //emit TaskCompleted(requestList[reqID].addr, reqID);\n        emit SystemInfo(reqID, 'Validation Complete');\n        //popout from pool\n        flag = flag && ArrayPop(validatingPool, reqID);\n\n        return flag;\n    }\n\n/////////////////////////////////////////////////////////////////////\n // Used to dynamically remove elements from array of open provider spaces. \n    // Using a swap and delete method, search for the desired addr throughout the whole array\n    // delete the desired and swap the whole with last element\n    /*function AddrArrayPop(address payable [] storage addrArray, uint256 target) private returns(bool) {\n        for(uint64 i = 0; i < addrArray.length; i++){\n            if (addrArray[i] == target) {\n                //swap last element with hole\n                addrArray[i] = addrArray[addrArray.length-1];\n                //delete last item\n                delete addrArray[addrArray.length-1];\n                 //decrease size\n                addrArray.length--;\n                return true;\n            }\n        }\n        return false; //fail to search: no matching in pool\n    }*/\n\n    function ArrayPop(address payable [] storage array, address payable target) private returns (bool) {\n        for(uint64 i = 0; i < array.length; i++){\n            if (array[i] == target) {\n                //swap last element with hole\n                array[i] = array[array.length-1];\n                //delete last item\n                delete array[array.length-1];\n                //decrease size\n                array.length -= 1;\n                return true;\n            }\n        }\n        return false;   //fail to search: no matching in pool\n    } /*\n    function getMyProvID() public view returns (uint256[] memory){\n        return providerMap[msg.sender];\n    }\n    function getMyReqID() public view returns (uint256[] memory){\n        return requestMap[msg.sender];\n    }\n    function getProviderID(address addr) public view returns (uint256[] memory){\n        return providerMap[addr];\n    }\n    function getRequestID(address addr) public view returns (uint256[] memory){\n        return requestMap[addr];\n    }*/\n\n    /////////////////////////////////////////////////////////////////////////////////\n    //some helpers defined here\n\n    function getProvider(address payable ID) public view returns(Provider memory){\n        return providerList[ID];\n    }\n    function getRequest(address payable ID) public view returns (Request memory){\n\t    return requestList[ID];\n    }\n    function getProviderCount() public view returns (uint256){\n        return providerCount;\n    }\n    function getRequestCount() public view returns (uint256){\n        return requestCount;\n    }\n\n    function getProviderPool() public view returns (address payable [] memory){\n        return providerPool;\n    }\n    function getPendingPool() public view returns (address payable [] memory){\n        return pendingPool;\n    }\n    function getValidatingPool() public view returns (address payable [] memory){\n        return validatingPool;\n    }\n    function getProvidingPool() public view returns (address payable [] memory){\n        return providingPool;\n    }\n\n    function getProviderPoolSize() public view returns (uint256){\n        return providerPool.length;\n    }\n    function getRequestPoolSize() public view returns (uint256){\n        return pendingPool.length;\n    }\n\n\n    //function getBalance(address addr) public view returns (uint256){\n    //    return balanceList[addr];\n    //}\n    function listRequests(address payable[] memory IDList) public view returns(Request[50] memory){\n\t    Request[50] memory allRequest;\n\t    for (uint64 i = 0; i < IDList.length; i++){\n\t\t    allRequest[i] = getRequest(IDList[i]);\n\t    }\n\t    return allRequest;\n    }\n    function listProviders(address payable[] memory IDList) public view returns(Provider[50] memory){\n        Provider[50] memory allProvider;\n        //address addr;\n        for (uint64 i = 0; i < IDList.length;i++){\n            allProvider[i] = getProvider(IDList[i]);\n        }\n        return allProvider;\n    }\n/*    function listAllRequests() public view returns(Request[50] memory){\n\t    Request[50] memory allRequest;\n\t    for (uint64 i = 0; i < requestCount; i++){\n\t\t    allRequest[i] = getRequest(i);\n\t    }\n\t    return allRequest;\n    }\n    function listAllProviders() public view returns(Provider[50] memory){\n\t    Provider[50] memory allProvider;\n\t    for (uint64 i = 0; i < providerCount; i++){\n\t\t    allProvider[i] = getProvider(i);\n\t    }\n\t    return allProvider;\n    }\n    function listProviders() public view returns(Provider[50] memory){\n        Provider[50] memory allProvider;\n        //address addr;\n        for (uint64 i = 0; i < providerCount;i++){\n            if(providerPool.length > 0) {\n                addr = providerPool[i];     \n            }else {\n                addr = address(0);\n            }\n            allProvider[i] = getProvider(i);\n        }\n        return allProvider;\n    }\n    /*function listTestProviders() public view returns(Provider[3] memory){\n        Provider[3] memory allProvider;\n        for (uint64 i = 0; i < 3;i++){\n            allProvider[i] = getTestProvider(i);\n        }\n        return allProvider;\n    }*/\n\n}\n",
  "sourcePath": "/home/taurus/blockchain/gitLab/bcai_v1.9/contracts/bcai_1.9.1.sol",
  "compiler": {
    "name": "solc",
    "version": "0.5.0+commit.1d4f565a.Emscripten.clang"
  },
  "schemaVersion": "3.0.0-beta.2",
  "updatedAt": "2018-12-14T18:25:49.050Z",
  "devdoc": {
    "methods": {}
  },
  "userdoc": {
    "methods": {
      "getProvider(address)": {
        "notice": "//////////////////////////////////////////////////////////////////////////////"
      },
      "startProviding(uint64,uint16,uint64)": {
        "notice": "//////////////////////////////////////////////////////////////////////////////////"
      }
    }
  }
}