{
  "contractName": "TaskContract",
  "abi": [
    {
      "constant": true,
      "inputs": [
        {
          "name": "",
          "type": "address"
        }
      ],
      "name": "requestList",
      "outputs": [
        {
          "name": "reqID",
          "type": "uint256"
        },
        {
          "name": "blockNumber",
          "type": "uint256"
        },
        {
          "name": "provider",
          "type": "address"
        },
        {
          "name": "time",
          "type": "uint64"
        },
        {
          "name": "target",
          "type": "uint16"
        },
        {
          "name": "price",
          "type": "uint256"
        },
        {
          "name": "dataID",
          "type": "uint64"
        },
        {
          "name": "resultID",
          "type": "uint64"
        },
        {
          "name": "numValidations",
          "type": "uint64"
        },
        {
          "name": "isValid",
          "type": "bool"
        },
        {
          "name": "status",
          "type": "bytes1"
        }
      ],
      "payable": false,
      "stateMutability": "view",
      "type": "function",
      "signature": "0x0708799e"
    },
    {
      "constant": true,
      "inputs": [
        {
          "name": "",
          "type": "address"
        }
      ],
      "name": "providerList",
      "outputs": [
        {
          "name": "provID",
          "type": "uint256"
        },
        {
          "name": "blockNumber",
          "type": "uint256"
        },
        {
          "name": "maxTime",
          "type": "uint64"
        },
        {
          "name": "maxTarget",
          "type": "uint16"
        },
        {
          "name": "minPrice",
          "type": "uint256"
        },
        {
          "name": "available",
          "type": "bool"
        }
      ],
      "payable": false,
      "stateMutability": "view",
      "type": "function",
      "signature": "0x0e1e4a3c"
    },
    {
      "constant": true,
      "inputs": [
        {
          "name": "",
          "type": "address"
        }
      ],
      "name": "balanceList",
      "outputs": [
        {
          "name": "",
          "type": "uint256"
        }
      ],
      "payable": false,
      "stateMutability": "view",
      "type": "function",
      "signature": "0x189258de"
    },
    {
      "inputs": [],
      "payable": false,
      "stateMutability": "nonpayable",
      "type": "constructor",
      "signature": "constructor"
    },
    {
      "anonymous": false,
      "inputs": [
        {
          "indexed": false,
          "name": "addr",
          "type": "address"
        },
        {
          "indexed": false,
          "name": "info",
          "type": "bytes"
        }
      ],
      "name": "SystemInfo",
      "type": "event",
      "signature": "0xa332e7b06782060530f8d1575fcf83b5e831fe3dd09c85e53b0351a7c38ceeac"
    },
    {
      "anonymous": false,
      "inputs": [
        {
          "indexed": false,
          "name": "reqAddr",
          "type": "address"
        },
        {
          "indexed": false,
          "name": "provAddr",
          "type": "address"
        },
        {
          "indexed": false,
          "name": "info",
          "type": "bytes"
        }
      ],
      "name": "PairingInfo",
      "type": "event",
      "signature": "0x654163525cabcfa0ce95ecb1f232c75746c89688c42e7e2d52df90d770fc9e57"
    },
    {
      "constant": false,
      "inputs": [
        {
          "name": "maxTime",
          "type": "uint64"
        },
        {
          "name": "maxTarget",
          "type": "uint16"
        },
        {
          "name": "minPrice",
          "type": "uint64"
        }
      ],
      "name": "startProviding",
      "outputs": [
        {
          "name": "",
          "type": "bool"
        }
      ],
      "payable": false,
      "stateMutability": "nonpayable",
      "type": "function",
      "signature": "0x2ddfdbcc"
    },
    {
      "constant": false,
      "inputs": [],
      "name": "stopProviding",
      "outputs": [
        {
          "name": "",
          "type": "bool"
        }
      ],
      "payable": false,
      "stateMutability": "nonpayable",
      "type": "function",
      "signature": "0xb2774934"
    },
    {
      "constant": false,
      "inputs": [
        {
          "name": "maxTime",
          "type": "uint64"
        },
        {
          "name": "maxTarget",
          "type": "uint16"
        },
        {
          "name": "minPrice",
          "type": "uint64"
        }
      ],
      "name": "updateProvider",
      "outputs": [
        {
          "name": "",
          "type": "bool"
        }
      ],
      "payable": false,
      "stateMutability": "nonpayable",
      "type": "function",
      "signature": "0x08931765"
    },
    {
      "constant": false,
      "inputs": [
        {
          "name": "time",
          "type": "uint64"
        },
        {
          "name": "target",
          "type": "uint16"
        },
        {
          "name": "price",
          "type": "uint64"
        },
        {
          "name": "dataID",
          "type": "uint64"
        }
      ],
      "name": "startRequest",
      "outputs": [
        {
          "name": "",
          "type": "bool"
        }
      ],
      "payable": true,
      "stateMutability": "payable",
      "type": "function",
      "signature": "0x7dbcb1de"
    },
    {
      "constant": false,
      "inputs": [],
      "name": "stopRequest",
      "outputs": [
        {
          "name": "",
          "type": "bool"
        }
      ],
      "payable": false,
      "stateMutability": "nonpayable",
      "type": "function",
      "signature": "0x040d2762"
    },
    {
      "constant": false,
      "inputs": [
        {
          "name": "time",
          "type": "uint64"
        },
        {
          "name": "target",
          "type": "uint16"
        },
        {
          "name": "price",
          "type": "uint64"
        },
        {
          "name": "dataID",
          "type": "uint64"
        }
      ],
      "name": "updateRequest",
      "outputs": [
        {
          "name": "",
          "type": "bool"
        }
      ],
      "payable": true,
      "stateMutability": "payable",
      "type": "function",
      "signature": "0xfd195cf9"
    },
    {
      "constant": false,
      "inputs": [
        {
          "name": "reqAddr",
          "type": "address"
        },
        {
          "name": "resultID",
          "type": "uint64"
        }
      ],
      "name": "completeRequest",
      "outputs": [
        {
          "name": "",
          "type": "bool"
        }
      ],
      "payable": false,
      "stateMutability": "nonpayable",
      "type": "function",
      "signature": "0x9281e9ec"
    },
    {
      "constant": false,
      "inputs": [
        {
          "name": "reqAddr",
          "type": "address"
        }
      ],
      "name": "validateRequest",
      "outputs": [
        {
          "name": "",
          "type": "bool"
        }
      ],
      "payable": false,
      "stateMutability": "nonpayable",
      "type": "function",
      "signature": "0xaaef4a62"
    },
    {
      "constant": false,
      "inputs": [
        {
          "name": "reqAddr",
          "type": "address"
        },
        {
          "name": "result",
          "type": "bool"
        }
      ],
      "name": "submitValidation",
      "outputs": [
        {
          "name": "",
          "type": "bool"
        }
      ],
      "payable": false,
      "stateMutability": "nonpayable",
      "type": "function",
      "signature": "0x3432d0f5"
    },
    {
      "constant": false,
      "inputs": [
        {
          "name": "reqAddr",
          "type": "address"
        }
      ],
      "name": "checkValidation",
      "outputs": [
        {
          "name": "",
          "type": "bool"
        }
      ],
      "payable": false,
      "stateMutability": "nonpayable",
      "type": "function",
      "signature": "0x566b2474"
    },
    {
      "constant": true,
      "inputs": [
        {
          "name": "ID",
          "type": "address"
        }
      ],
      "name": "getProvider",
      "outputs": [
        {
          "components": [
            {
              "name": "provID",
              "type": "uint256"
            },
            {
              "name": "blockNumber",
              "type": "uint256"
            },
            {
              "name": "maxTime",
              "type": "uint64"
            },
            {
              "name": "maxTarget",
              "type": "uint16"
            },
            {
              "name": "minPrice",
              "type": "uint256"
            },
            {
              "name": "available",
              "type": "bool"
            }
          ],
          "name": "",
          "type": "tuple"
        }
      ],
      "payable": false,
      "stateMutability": "view",
      "type": "function",
      "signature": "0x55f21eb7"
    },
    {
      "constant": true,
      "inputs": [
        {
          "name": "ID",
          "type": "address"
        }
      ],
      "name": "getRequest",
      "outputs": [
        {
          "components": [
            {
              "name": "reqID",
              "type": "uint256"
            },
            {
              "name": "blockNumber",
              "type": "uint256"
            },
            {
              "name": "provider",
              "type": "address"
            },
            {
              "name": "time",
              "type": "uint64"
            },
            {
              "name": "target",
              "type": "uint16"
            },
            {
              "name": "price",
              "type": "uint256"
            },
            {
              "name": "dataID",
              "type": "uint64"
            },
            {
              "name": "resultID",
              "type": "uint64"
            },
            {
              "name": "numValidations",
              "type": "uint64"
            },
            {
              "name": "validators",
              "type": "address[]"
            },
            {
              "name": "signatures",
              "type": "bool[]"
            },
            {
              "name": "isValid",
              "type": "bool"
            },
            {
              "name": "status",
              "type": "bytes1"
            }
          ],
          "name": "",
          "type": "tuple"
        }
      ],
      "payable": false,
      "stateMutability": "view",
      "type": "function",
      "signature": "0x63c1dff7"
    },
    {
      "constant": true,
      "inputs": [],
      "name": "getProviderCount",
      "outputs": [
        {
          "name": "",
          "type": "uint256"
        }
      ],
      "payable": false,
      "stateMutability": "view",
      "type": "function",
      "signature": "0x46ce4175"
    },
    {
      "constant": true,
      "inputs": [],
      "name": "getRequestCount",
      "outputs": [
        {
          "name": "",
          "type": "uint256"
        }
      ],
      "payable": false,
      "stateMutability": "view",
      "type": "function",
      "signature": "0x3fad1834"
    },
    {
      "constant": true,
      "inputs": [],
      "name": "getProviderPool",
      "outputs": [
        {
          "name": "",
          "type": "address[]"
        }
      ],
      "payable": false,
      "stateMutability": "view",
      "type": "function",
      "signature": "0x9e723b97"
    },
    {
      "constant": true,
      "inputs": [],
      "name": "getPendingPool",
      "outputs": [
        {
          "name": "",
          "type": "address[]"
        }
      ],
      "payable": false,
      "stateMutability": "view",
      "type": "function",
      "signature": "0xa9ecaae7"
    },
    {
      "constant": true,
      "inputs": [],
      "name": "getValidatingPool",
      "outputs": [
        {
          "name": "",
          "type": "address[]"
        }
      ],
      "payable": false,
      "stateMutability": "view",
      "type": "function",
      "signature": "0x32c5200d"
    },
    {
      "constant": true,
      "inputs": [],
      "name": "getProvidingPool",
      "outputs": [
        {
          "name": "",
          "type": "address[]"
        }
      ],
      "payable": false,
      "stateMutability": "view",
      "type": "function",
      "signature": "0x1f1dab45"
    },
    {
      "constant": true,
      "inputs": [],
      "name": "getProviderPoolSize",
      "outputs": [
        {
          "name": "",
          "type": "uint256"
        }
      ],
      "payable": false,
      "stateMutability": "view",
      "type": "function",
      "signature": "0x353b2a1f"
    },
    {
      "constant": true,
      "inputs": [],
      "name": "getRequestPoolSize",
      "outputs": [
        {
          "name": "",
          "type": "uint256"
        }
      ],
      "payable": false,
      "stateMutability": "view",
      "type": "function",
      "signature": "0x5c4c8c4e"
    },
    {
      "constant": true,
      "inputs": [
        {
          "name": "IDList",
          "type": "address[]"
        }
      ],
      "name": "listRequests",
      "outputs": [
        {
          "components": [
            {
              "name": "reqID",
              "type": "uint256"
            },
            {
              "name": "blockNumber",
              "type": "uint256"
            },
            {
              "name": "provider",
              "type": "address"
            },
            {
              "name": "time",
              "type": "uint64"
            },
            {
              "name": "target",
              "type": "uint16"
            },
            {
              "name": "price",
              "type": "uint256"
            },
            {
              "name": "dataID",
              "type": "uint64"
            },
            {
              "name": "resultID",
              "type": "uint64"
            },
            {
              "name": "numValidations",
              "type": "uint64"
            },
            {
              "name": "validators",
              "type": "address[]"
            },
            {
              "name": "signatures",
              "type": "bool[]"
            },
            {
              "name": "isValid",
              "type": "bool"
            },
            {
              "name": "status",
              "type": "bytes1"
            }
          ],
          "name": "",
          "type": "tuple[50]"
        }
      ],
      "payable": false,
      "stateMutability": "view",
      "type": "function",
      "signature": "0xc052c4db"
    },
    {
      "constant": true,
      "inputs": [
        {
          "name": "IDList",
          "type": "address[]"
        }
      ],
      "name": "listProviders",
      "outputs": [
        {
          "components": [
            {
              "name": "provID",
              "type": "uint256"
            },
            {
              "name": "blockNumber",
              "type": "uint256"
            },
            {
              "name": "maxTime",
              "type": "uint64"
            },
            {
              "name": "maxTarget",
              "type": "uint16"
            },
            {
              "name": "minPrice",
              "type": "uint256"
            },
            {
              "name": "available",
              "type": "bool"
            }
          ],
          "name": "",
          "type": "tuple[50]"
        }
      ],
      "payable": false,
      "stateMutability": "view",
      "type": "function",
      "signature": "0x2d3272d3"
    }
  ],
  "bytecode": "0x608060405234801561001057600080fd5b50600060038190555060006004819055506150bb806100306000396000f3fe608060405260043610610143576000357c010000000000000000000000000000000000000000000000000000000090048063040d2762146101485780630708799e1461017357806308931765146101ba5780630e1e4a3c146101f7578063189258de146102395780631f1dab45146102765780632d3272d3146102a15780632ddfdbcc146102de57806332c5200d1461031b5780633432d0f514610346578063353b2a1f146103835780633fad1834146103ae57806346ce4175146103d957806355f21eb714610404578063566b2474146104415780635c4c8c4e1461047e57806363c1dff7146104a95780637dbcb1de146104e65780639281e9ec146105165780639e723b9714610553578063a9ecaae71461057e578063aaef4a62146105a9578063b2774934146105e6578063c052c4db14610611578063fd195cf91461064e575b600080fd5b34801561015457600080fd5b5061015d61067e565b60405161016a9190614d12565b60405180910390f35b34801561017f57600080fd5b5061019a600480360361019591908101906140be565b6108cf565b6040516101b19b9a99989796959493929190614d85565b60405180910390f35b3480156101c657600080fd5b506101e160048036036101dc91908101906141c9565b6109e0565b6040516101ee9190614d12565b60405180910390f35b34801561020357600080fd5b5061021e600480360361021991908101906140be565b610be9565b60405161023096959493929190614e30565b60405180910390f35b34801561024557600080fd5b50610260600480360361025b91908101906140be565b610c54565b60405161026d9190614d6a565b60405180910390f35b34801561028257600080fd5b5061028b610c6c565b6040516102989190614cb2565b60405180910390f35b3480156102ad57600080fd5b506102c860048036036102c39190810190614188565b610cfa565b6040516102d59190614cd4565b60405180910390f35b3480156102ea57600080fd5b50610305600480360361030091908101906141c9565b610d84565b6040516103129190614d12565b60405180910390f35b34801561032757600080fd5b506103306112fc565b60405161033d9190614cb2565b60405180910390f35b34801561035257600080fd5b5061036d60048036036103689190810190614110565b61138a565b60405161037a9190614d12565b60405180910390f35b34801561038f57600080fd5b50610398611639565b6040516103a59190614d6a565b60405180910390f35b3480156103ba57600080fd5b506103c3611646565b6040516103d09190614d6a565b60405180910390f35b3480156103e557600080fd5b506103ee611650565b6040516103fb9190614d6a565b60405180910390f35b34801561041057600080fd5b5061042b600480360361042691908101906140e7565b61165a565b6040516104389190614d2d565b60405180910390f35b34801561044d57600080fd5b50610468600480360361046391908101906140e7565b61173e565b6040516104759190614d12565b60405180910390f35b34801561048a57600080fd5b50610493611971565b6040516104a09190614d6a565b60405180910390f35b3480156104b557600080fd5b506104d060048036036104cb91908101906140e7565b61197e565b6040516104dd9190614d48565b60405180910390f35b61050060048036036104fb9190810190614218565b611cd5565b60405161050d9190614d12565b60405180910390f35b34801561052257600080fd5b5061053d6004803603610538919081019061414c565b612441565b60405161054a9190614d12565b60405180910390f35b34801561055f57600080fd5b506105686126a1565b6040516105759190614cb2565b60405180910390f35b34801561058a57600080fd5b5061059361272f565b6040516105a09190614cb2565b60405180910390f35b3480156105b557600080fd5b506105d060048036036105cb91908101906140e7565b6127bd565b6040516105dd9190614d12565b60405180910390f35b3480156105f257600080fd5b506105fb612a7f565b6040516106089190614d12565b60405180910390f35b34801561061d57600080fd5b5061063860048036036106339190810190614188565b612b8f565b6040516106459190614cf0565b60405180910390f35b61066860048036036106639190810190614218565b612c19565b6040516106759190614d12565b60405180910390f35b60007f3000000000000000000000000000000000000000000000000000000000000000600160003373ffffffffffffffffffffffffffffffffffffffff1673ffffffffffffffffffffffffffffffffffffffff16815260200190815260200160002060070160019054906101000a90047f0100000000000000000000000000000000000000000000000000000000000000027effffffffffffffffffffffffffffffffffffffffffffffffffffffffffffff191614156108cb57600160003373ffffffffffffffffffffffffffffffffffffffff1673ffffffffffffffffffffffffffffffffffffffff16815260200190815260200160002060008082016000905560018201600090556002820160006101000a81549073ffffffffffffffffffffffffffffffffffffffff02191690556002820160146101000a81549067ffffffffffffffff021916905560028201601c6101000a81549061ffff021916905560038201600090556004820160006101000a81549067ffffffffffffffff02191690556004820160086101000a81549067ffffffffffffffff02191690556004820160106101000a81549067ffffffffffffffff02191690556005820160006108489190613cb1565b6006820160006108589190613cd2565b6007820160006101000a81549060ff02191690556007820160016101000a81549060ff021916905550507fa332e7b06782060530f8d1575fcf83b5e831fe3dd09c85e53b0351a7c38ceeac336040516108b19190614b9e565b60405180910390a16108c4600633612ee3565b90506108cc565b5b90565b60016020528060005260406000206000915090508060000154908060010154908060020160009054906101000a900473ffffffffffffffffffffffffffffffffffffffff16908060020160149054906101000a900467ffffffffffffffff169080600201601c9054906101000a900461ffff16908060030154908060040160009054906101000a900467ffffffffffffffff16908060040160089054906101000a900467ffffffffffffffff16908060040160109054906101000a900467ffffffffffffffff16908060070160009054906101000a900460ff16908060070160019054906101000a90047f01000000000000000000000000000000000000000000000000000000000000000290508b565b6000600115156000803373ffffffffffffffffffffffffffffffffffffffff1673ffffffffffffffffffffffffffffffffffffffff16815260200190815260200160002060040160009054906101000a900460ff1615151415610be157436000803373ffffffffffffffffffffffffffffffffffffffff1673ffffffffffffffffffffffffffffffffffffffff16815260200190815260200160002060010181905550836000803373ffffffffffffffffffffffffffffffffffffffff1673ffffffffffffffffffffffffffffffffffffffff16815260200190815260200160002060020160006101000a81548167ffffffffffffffff021916908367ffffffffffffffff160217905550826000803373ffffffffffffffffffffffffffffffffffffffff1673ffffffffffffffffffffffffffffffffffffffff16815260200190815260200160002060020160086101000a81548161ffff021916908361ffff1602179055508167ffffffffffffffff166000803373ffffffffffffffffffffffffffffffffffffffff1673ffffffffffffffffffffffffffffffffffffffff168152602001908152602001600020600301819055507fa332e7b06782060530f8d1575fcf83b5e831fe3dd09c85e53b0351a7c38ceeac33604051610bc69190614b42565b60405180910390a1610bd733613094565b5060019050610be2565b5b9392505050565b60006020528060005260406000206000915090508060000154908060010154908060020160009054906101000a900467ffffffffffffffff16908060020160089054906101000a900461ffff16908060030154908060040160009054906101000a900460ff16905086565b60026020528060005260406000206000915090505481565b60606007805480602002602001604051908101604052809291908181526020018280548015610cf057602002820191906000526020600020905b8160009054906101000a900473ffffffffffffffffffffffffffffffffffffffff1673ffffffffffffffffffffffffffffffffffffffff1681526020019060010190808311610ca6575b5050505050905090565b610d02613cfa565b610d0a613cfa565b60008090505b83518167ffffffffffffffff161015610d7a57610d4d848267ffffffffffffffff16815181101515610d3e57fe5b9060200190602002015161165a565b828267ffffffffffffffff16603281101515610d6557fe5b60200201819052508080600101915050610d10565b5080915050919050565b6000806000803373ffffffffffffffffffffffffffffffffffffffff1673ffffffffffffffffffffffffffffffffffffffff1681526020019081526020016000206001015414156110f5576003546000803373ffffffffffffffffffffffffffffffffffffffff1673ffffffffffffffffffffffffffffffffffffffff16815260200190815260200160002060000181905550436000803373ffffffffffffffffffffffffffffffffffffffff1673ffffffffffffffffffffffffffffffffffffffff16815260200190815260200160002060010181905550836000803373ffffffffffffffffffffffffffffffffffffffff1673ffffffffffffffffffffffffffffffffffffffff16815260200190815260200160002060020160006101000a81548167ffffffffffffffff021916908367ffffffffffffffff160217905550836000803373ffffffffffffffffffffffffffffffffffffffff1673ffffffffffffffffffffffffffffffffffffffff16815260200190815260200160002060020160006101000a81548167ffffffffffffffff021916908367ffffffffffffffff160217905550826000803373ffffffffffffffffffffffffffffffffffffffff1673ffffffffffffffffffffffffffffffffffffffff16815260200190815260200160002060020160086101000a81548161ffff021916908361ffff1602179055508167ffffffffffffffff166000803373ffffffffffffffffffffffffffffffffffffffff1673ffffffffffffffffffffffffffffffffffffffff1681526020019081526020016000206003018190555060016000803373ffffffffffffffffffffffffffffffffffffffff1673ffffffffffffffffffffffffffffffffffffffff16815260200190815260200160002060040160006101000a81548160ff02191690831515021790555060053390806001815401808255809150509060018203906000526020600020016000909192909190916101000a81548173ffffffffffffffffffffffffffffffffffffffff021916908373ffffffffffffffffffffffffffffffffffffffff160217905550507fa332e7b06782060530f8d1575fcf83b5e831fe3dd09c85e53b0351a7c38ceeac336040516110c89190614bfa565b60405180910390a16003600081548092919060010191905055506110eb33613094565b50600190506112f5565b600115156000803373ffffffffffffffffffffffffffffffffffffffff1673ffffffffffffffffffffffffffffffffffffffff16815260200190815260200160002060040160009054906101000a900460ff16151514156112f457436000803373ffffffffffffffffffffffffffffffffffffffff1673ffffffffffffffffffffffffffffffffffffffff16815260200190815260200160002060010181905550836000803373ffffffffffffffffffffffffffffffffffffffff1673ffffffffffffffffffffffffffffffffffffffff16815260200190815260200160002060020160006101000a81548167ffffffffffffffff021916908367ffffffffffffffff160217905550826000803373ffffffffffffffffffffffffffffffffffffffff1673ffffffffffffffffffffffffffffffffffffffff16815260200190815260200160002060020160086101000a81548161ffff021916908361ffff1602179055508167ffffffffffffffff166000803373ffffffffffffffffffffffffffffffffffffffff1673ffffffffffffffffffffffffffffffffffffffff168152602001908152602001600020600301819055507fa332e7b06782060530f8d1575fcf83b5e831fe3dd09c85e53b0351a7c38ceeac336040516112d99190614b42565b60405180910390a16112ea33613094565b50600190506112f5565b5b9392505050565b6060600880548060200260200160405190810160405280929190818152602001828054801561138057602002820191906000526020600020905b8160009054906101000a900473ffffffffffffffffffffffffffffffffffffffff1673ffffffffffffffffffffffffffffffffffffffff1681526020019060010190808311611336575b5050505050905090565b6000600160008473ffffffffffffffffffffffffffffffffffffffff1673ffffffffffffffffffffffffffffffffffffffff16815260200190815260200160002060020160009054906101000a900473ffffffffffffffffffffffffffffffffffffffff1673ffffffffffffffffffffffffffffffffffffffff163373ffffffffffffffffffffffffffffffffffffffff1614151561155157600160008473ffffffffffffffffffffffffffffffffffffffff1673ffffffffffffffffffffffffffffffffffffffff1681526020019081526020016000206005013390806001815401808255809150509060018203906000526020600020016000909192909190916101000a81548173ffffffffffffffffffffffffffffffffffffffff021916908373ffffffffffffffffffffffffffffffffffffffff16021790555050600160008473ffffffffffffffffffffffffffffffffffffffff1673ffffffffffffffffffffffffffffffffffffffff16815260200190815260200160002060060182908060018154018082558091505090600182039060005260206000209060209182820401919006909192909190916101000a81548160ff021916908315150217905550505b7f654163525cabcfa0ce95ecb1f232c75746c89688c42e7e2d52df90d770fc9e578333604051611582929190614a9c565b60405180910390a1600160008473ffffffffffffffffffffffffffffffffffffffff1673ffffffffffffffffffffffffffffffffffffffff16815260200190815260200160002060040160109054906101000a900467ffffffffffffffff1667ffffffffffffffff16600160008573ffffffffffffffffffffffffffffffffffffffff1673ffffffffffffffffffffffffffffffffffffffff16815260200190815260200160002060050180549050505092915050565b6000600580549050905090565b6000600454905090565b6000600354905090565b611662613d29565b6000808373ffffffffffffffffffffffffffffffffffffffff1673ffffffffffffffffffffffffffffffffffffffff16815260200190815260200160002060c0604051908101604052908160008201548152602001600182015481526020016002820160009054906101000a900467ffffffffffffffff1667ffffffffffffffff1667ffffffffffffffff1681526020016002820160089054906101000a900461ffff1661ffff1661ffff168152602001600382015481526020016004820160009054906101000a900460ff1615151515815250509050919050565b60008060009050600080905060008090505b600160008673ffffffffffffffffffffffffffffffffffffffff1673ffffffffffffffffffffffffffffffffffffffff168152602001908152602001600020600501805490508167ffffffffffffffff1610156118425760011515600160008773ffffffffffffffffffffffffffffffffffffffff1673ffffffffffffffffffffffffffffffffffffffff1681526020019081526020016000206006018267ffffffffffffffff1681548110151561180457fe5b90600052602060002090602091828204019190069054906101000a900460ff16151514156118355781806001019250505b8080600101915050611750565b50600160008573ffffffffffffffffffffffffffffffffffffffff1673ffffffffffffffffffffffffffffffffffffffff16815260200190815260200160002060040160109054906101000a900467ffffffffffffffff1667ffffffffffffffff168167ffffffffffffffff161015156119195760018060008673ffffffffffffffffffffffffffffffffffffffff1673ffffffffffffffffffffffffffffffffffffffff16815260200190815260200160002060070160006101000a81548160ff0219169083151502179055506001915061191a565b5b7fa332e7b06782060530f8d1575fcf83b5e831fe3dd09c85e53b0351a7c38ceeac846040516119499190614c56565b60405180910390a18180156119655750611964600885612ee3565b5b91508192505050919050565b6000600680549050905090565b611986613d70565b600160008373ffffffffffffffffffffffffffffffffffffffff1673ffffffffffffffffffffffffffffffffffffffff1681526020019081526020016000206101a0604051908101604052908160008201548152602001600182015481526020016002820160009054906101000a900473ffffffffffffffffffffffffffffffffffffffff1673ffffffffffffffffffffffffffffffffffffffff1673ffffffffffffffffffffffffffffffffffffffff1681526020016002820160149054906101000a900467ffffffffffffffff1667ffffffffffffffff1667ffffffffffffffff16815260200160028201601c9054906101000a900461ffff1661ffff1661ffff168152602001600382015481526020016004820160009054906101000a900467ffffffffffffffff1667ffffffffffffffff1667ffffffffffffffff1681526020016004820160089054906101000a900467ffffffffffffffff1667ffffffffffffffff1667ffffffffffffffff1681526020016004820160109054906101000a900467ffffffffffffffff1667ffffffffffffffff1667ffffffffffffffff16815260200160058201805480602002602001604051908101604052809291908181526020018280548015611bb357602002820191906000526020600020905b8160009054906101000a900473ffffffffffffffffffffffffffffffffffffffff1673ffffffffffffffffffffffffffffffffffffffff1681526020019060010190808311611b69575b5050505050815260200160068201805480602002602001604051908101604052809291908181526020018280548015611c3057602002820191906000526020600020906000905b82829054906101000a900460ff16151581526020019060010190602082600001049283019260010382029150808411611bfa5790505b505050505081526020016007820160009054906101000a900460ff161515151581526020016007820160019054906101000a90047f0100000000000000000000000000000000000000000000000000000000000000027effffffffffffffffffffffffffffffffffffffffffffffffffffffffffffff19167effffffffffffffffffffffffffffffffffffffffffffffffffffffffffffff1916815250509050919050565b600080600160003373ffffffffffffffffffffffffffffffffffffffff1673ffffffffffffffffffffffffffffffffffffffff16815260200190815260200160002060010154141561217957600454600160003373ffffffffffffffffffffffffffffffffffffffff1673ffffffffffffffffffffffffffffffffffffffff1681526020019081526020016000206000018190555043600160003373ffffffffffffffffffffffffffffffffffffffff1673ffffffffffffffffffffffffffffffffffffffff168152602001908152602001600020600101819055506000600160003373ffffffffffffffffffffffffffffffffffffffff1673ffffffffffffffffffffffffffffffffffffffff16815260200190815260200160002060020160006101000a81548173ffffffffffffffffffffffffffffffffffffffff021916908373ffffffffffffffffffffffffffffffffffffffff16021790555084600160003373ffffffffffffffffffffffffffffffffffffffff1673ffffffffffffffffffffffffffffffffffffffff16815260200190815260200160002060020160146101000a81548167ffffffffffffffff021916908367ffffffffffffffff16021790555083600160003373ffffffffffffffffffffffffffffffffffffffff1673ffffffffffffffffffffffffffffffffffffffff168152602001908152602001600020600201601c6101000a81548161ffff021916908361ffff1602179055508267ffffffffffffffff16600160003373ffffffffffffffffffffffffffffffffffffffff1673ffffffffffffffffffffffffffffffffffffffff1681526020019081526020016000206003018190555081600160003373ffffffffffffffffffffffffffffffffffffffff1673ffffffffffffffffffffffffffffffffffffffff16815260200190815260200160002060040160006101000a81548167ffffffffffffffff021916908367ffffffffffffffff16021790555060018060003373ffffffffffffffffffffffffffffffffffffffff1673ffffffffffffffffffffffffffffffffffffffff16815260200190815260200160002060040160106101000a81548167ffffffffffffffff021916908367ffffffffffffffff1602179055507f3000000000000000000000000000000000000000000000000000000000000000600160003373ffffffffffffffffffffffffffffffffffffffff1673ffffffffffffffffffffffffffffffffffffffff16815260200190815260200160002060070160016101000a81548160ff02191690837f01000000000000000000000000000000000000000000000000000000000000009004021790555060063390806001815401808255809150509060018203906000526020600020016000909192909190916101000a81548173ffffffffffffffffffffffffffffffffffffffff021916908373ffffffffffffffffffffffffffffffffffffffff160217905550507fa332e7b06782060530f8d1575fcf83b5e831fe3dd09c85e53b0351a7c38ceeac3360405161214c9190614c84565b60405180910390a160046000815480929190600101919050555061216f33613658565b5060019050612439565b7f3000000000000000000000000000000000000000000000000000000000000000600160003373ffffffffffffffffffffffffffffffffffffffff1673ffffffffffffffffffffffffffffffffffffffff16815260200190815260200160002060070160019054906101000a90047f0100000000000000000000000000000000000000000000000000000000000000027effffffffffffffffffffffffffffffffffffffffffffffffffffffffffffff191614156124385743600160003373ffffffffffffffffffffffffffffffffffffffff1673ffffffffffffffffffffffffffffffffffffffff1681526020019081526020016000206001018190555084600160003373ffffffffffffffffffffffffffffffffffffffff1673ffffffffffffffffffffffffffffffffffffffff16815260200190815260200160002060020160146101000a81548167ffffffffffffffff021916908367ffffffffffffffff16021790555083600160003373ffffffffffffffffffffffffffffffffffffffff1673ffffffffffffffffffffffffffffffffffffffff168152602001908152602001600020600201601c6101000a81548161ffff021916908361ffff1602179055508267ffffffffffffffff16600160003373ffffffffffffffffffffffffffffffffffffffff1673ffffffffffffffffffffffffffffffffffffffff1681526020019081526020016000206003018190555081600160003373ffffffffffffffffffffffffffffffffffffffff1673ffffffffffffffffffffffffffffffffffffffff16815260200190815260200160002060040160006101000a81548167ffffffffffffffff021916908367ffffffffffffffff1602179055507fa332e7b06782060530f8d1575fcf83b5e831fe3dd09c85e53b0351a7c38ceeac336040516124279190614b70565b60405180910390a160019050612439565b5b949350505050565b6000600160008473ffffffffffffffffffffffffffffffffffffffff1673ffffffffffffffffffffffffffffffffffffffff16815260200190815260200160002060020160009054906101000a900473ffffffffffffffffffffffffffffffffffffffff1673ffffffffffffffffffffffffffffffffffffffff163373ffffffffffffffffffffffffffffffffffffffff161415612696577f3200000000000000000000000000000000000000000000000000000000000000600160008573ffffffffffffffffffffffffffffffffffffffff1673ffffffffffffffffffffffffffffffffffffffff16815260200190815260200160002060070160016101000a81548160ff02191690837f01000000000000000000000000000000000000000000000000000000000000009004021790555081600160008573ffffffffffffffffffffffffffffffffffffffff1673ffffffffffffffffffffffffffffffffffffffff16815260200190815260200160002060040160086101000a81548167ffffffffffffffff021916908367ffffffffffffffff1602179055506125e8600784612ee3565b5060088390806001815401808255809150509060018203906000526020600020016000909192909190916101000a81548173ffffffffffffffffffffffffffffffffffffffff021916908373ffffffffffffffffffffffffffffffffffffffff160217905550507fa332e7b06782060530f8d1575fcf83b5e831fe3dd09c85e53b0351a7c38ceeac8360405161267e9190614bcc565b60405180910390a161268f836127bd565b905061269b565b600090505b92915050565b6060600580548060200260200160405190810160405280929190818152602001828054801561272557602002820191906000526020600020905b8160009054906101000a900473ffffffffffffffffffffffffffffffffffffffff1673ffffffffffffffffffffffffffffffffffffffff16815260200190600101908083116126db575b5050505050905090565b606060068054806020026020016040519081016040528092919081815260200182805480156127b357602002820191906000526020600020905b8160009054906101000a900473ffffffffffffffffffffffffffffffffffffffff1673ffffffffffffffffffffffffffffffffffffffff1681526020019060010190808311612769575b5050505050905090565b600080600160008473ffffffffffffffffffffffffffffffffffffffff1673ffffffffffffffffffffffffffffffffffffffff16815260200190815260200160002060040160109054906101000a900467ffffffffffffffff169050600080905060008090505b6005805490508167ffffffffffffffff161015612a3f57600060058267ffffffffffffffff1681548110151561285657fe5b9060005260206000200160009054906101000a900473ffffffffffffffffffffffffffffffffffffffff169050600160008773ffffffffffffffffffffffffffffffffffffffff1673ffffffffffffffffffffffffffffffffffffffff16815260200190815260200160002060020160009054906101000a900473ffffffffffffffffffffffffffffffffffffffff1673ffffffffffffffffffffffffffffffffffffffff168173ffffffffffffffffffffffffffffffffffffffff161415156129c6577f654163525cabcfa0ce95ecb1f232c75746c89688c42e7e2d52df90d770fc9e57868260405161294b929190614a60565b60405180910390a1828060010193505060008060008373ffffffffffffffffffffffffffffffffffffffff1673ffffffffffffffffffffffffffffffffffffffff16815260200190815260200160002060040160006101000a81548160ff0219169083151502179055506129c0600582612ee3565b506129cc565b50612a32565b8367ffffffffffffffff168367ffffffffffffffff1610156129ee5750612a32565b7fa332e7b06782060530f8d1575fcf83b5e831fe3dd09c85e53b0351a7c38ceeac86604051612a1d9190614b14565b60405180910390a16001945050505050612a7a565b8080600101915050612824565b507fa332e7b06782060530f8d1575fcf83b5e831fe3dd09c85e53b0351a7c38ceeac84604051612a6f9190614c28565b60405180910390a150505b919050565b6000600115156000803373ffffffffffffffffffffffffffffffffffffffff1673ffffffffffffffffffffffffffffffffffffffff16815260200190815260200160002060040160009054906101000a900460ff1615151415612b8b576000803373ffffffffffffffffffffffffffffffffffffffff1673ffffffffffffffffffffffffffffffffffffffff16815260200190815260200160002060008082016000905560018201600090556002820160006101000a81549067ffffffffffffffff02191690556002820160086101000a81549061ffff021916905560038201600090556004820160006101000a81549060ff02191690555050612b84600533612ee3565b9050612b8c565b5b90565b612b97613e3f565b612b9f613e3f565b60008090505b83518167ffffffffffffffff161015612c0f57612be2848267ffffffffffffffff16815181101515612bd357fe5b9060200190602002015161197e565b828267ffffffffffffffff16603281101515612bfa57fe5b60200201819052508080600101915050612ba5565b5080915050919050565b60007f3000000000000000000000000000000000000000000000000000000000000000600160003373ffffffffffffffffffffffffffffffffffffffff1673ffffffffffffffffffffffffffffffffffffffff16815260200190815260200160002060070160019054906101000a90047f0100000000000000000000000000000000000000000000000000000000000000027effffffffffffffffffffffffffffffffffffffffffffffffffffffffffffff19161415612eda5743600160003373ffffffffffffffffffffffffffffffffffffffff1673ffffffffffffffffffffffffffffffffffffffff1681526020019081526020016000206001018190555084600160003373ffffffffffffffffffffffffffffffffffffffff1673ffffffffffffffffffffffffffffffffffffffff16815260200190815260200160002060020160146101000a81548167ffffffffffffffff021916908367ffffffffffffffff16021790555083600160003373ffffffffffffffffffffffffffffffffffffffff1673ffffffffffffffffffffffffffffffffffffffff168152602001908152602001600020600201601c6101000a81548161ffff021916908361ffff1602179055508267ffffffffffffffff16600160003373ffffffffffffffffffffffffffffffffffffffff1673ffffffffffffffffffffffffffffffffffffffff1681526020019081526020016000206003018190555081600160003373ffffffffffffffffffffffffffffffffffffffff1673ffffffffffffffffffffffffffffffffffffffff16815260200190815260200160002060040160006101000a81548167ffffffffffffffff021916908367ffffffffffffffff1602179055507fa332e7b06782060530f8d1575fcf83b5e831fe3dd09c85e53b0351a7c38ceeac33604051612ec99190614b70565b60405180910390a160019050612edb565b5b949350505050565b600080600090505b83805490508167ffffffffffffffff161015613088578273ffffffffffffffffffffffffffffffffffffffff16848267ffffffffffffffff16815481101515612f3057fe5b9060005260206000200160009054906101000a900473ffffffffffffffffffffffffffffffffffffffff1673ffffffffffffffffffffffffffffffffffffffff16141561307b57836001858054905003815481101515612f8c57fe5b9060005260206000200160009054906101000a900473ffffffffffffffffffffffffffffffffffffffff16848267ffffffffffffffff16815481101515612fcf57fe5b9060005260206000200160006101000a81548173ffffffffffffffffffffffffffffffffffffffff021916908373ffffffffffffffffffffffffffffffffffffffff16021790555083600185805490500381548110151561302c57fe5b9060005260206000200160006101000a81549073ffffffffffffffffffffffffffffffffffffffff0219169055600184818180549050039150816130709190613e6e565b50600191505061308e565b8080600101915050612eeb565b50600090505b92915050565b60008060068054905014156130cb577f32000000000000000000000000000000000000000000000000000000000000009050613653565b60008090505b6006805490508167ffffffffffffffff16101561362e57600060068267ffffffffffffffff1681548110151561310357fe5b9060005260206000200160009054906101000a900473ffffffffffffffffffffffffffffffffffffffff1690506000808573ffffffffffffffffffffffffffffffffffffffff1673ffffffffffffffffffffffffffffffffffffffff16815260200190815260200160002060020160009054906101000a900467ffffffffffffffff1667ffffffffffffffff16600160008373ffffffffffffffffffffffffffffffffffffffff1673ffffffffffffffffffffffffffffffffffffffff16815260200190815260200160002060020160149054906101000a900467ffffffffffffffff1667ffffffffffffffff16111580156132a657506000808573ffffffffffffffffffffffffffffffffffffffff1673ffffffffffffffffffffffffffffffffffffffff16815260200190815260200160002060020160089054906101000a900461ffff1661ffff16600160008373ffffffffffffffffffffffffffffffffffffffff1673ffffffffffffffffffffffffffffffffffffffff168152602001908152602001600020600201601c9054906101000a900461ffff1661ffff1611155b801561333557506000808573ffffffffffffffffffffffffffffffffffffffff1673ffffffffffffffffffffffffffffffffffffffff16815260200190815260200160002060030154600160008373ffffffffffffffffffffffffffffffffffffffff1673ffffffffffffffffffffffffffffffffffffffff1681526020019081526020016000206003015410155b156136205760008060008673ffffffffffffffffffffffffffffffffffffffff1673ffffffffffffffffffffffffffffffffffffffff16815260200190815260200160002060040160006101000a81548160ff02191690831515021790555061339f600585612ee3565b5083600160008373ffffffffffffffffffffffffffffffffffffffff1673ffffffffffffffffffffffffffffffffffffffff16815260200190815260200160002060020160006101000a81548173ffffffffffffffffffffffffffffffffffffffff021916908373ffffffffffffffffffffffffffffffffffffffff1602179055507f3100000000000000000000000000000000000000000000000000000000000000600160008373ffffffffffffffffffffffffffffffffffffffff1673ffffffffffffffffffffffffffffffffffffffff16815260200190815260200160002060070160016101000a81548160ff02191690837f0100000000000000000000000000000000000000000000000000000000000000900402179055506134c7600682612ee3565b50600160008273ffffffffffffffffffffffffffffffffffffffff1673ffffffffffffffffffffffffffffffffffffffff16815260200190815260200160002060030154600260008373ffffffffffffffffffffffffffffffffffffffff1673ffffffffffffffffffffffffffffffffffffffff1681526020019081526020016000206000828254019250508190555060078190806001815401808255809150509060018203906000526020600020016000909192909190916101000a81548173ffffffffffffffffffffffffffffffffffffffff021916908373ffffffffffffffffffffffffffffffffffffffff160217905550507f654163525cabcfa0ce95ecb1f232c75746c89688c42e7e2d52df90d770fc9e5781856040516135ee929190614ad8565b60405180910390a17f300000000000000000000000000000000000000000000000000000000000000092505050613653565b5080806001019150506130d1565b507f310000000000000000000000000000000000000000000000000000000000000090505b919050565b600080600580549050141561368f577f32000000000000000000000000000000000000000000000000000000000000009050613cac565b60008090505b6005805490508167ffffffffffffffff161015613c8757600060058267ffffffffffffffff168154811015156136c757fe5b9060005260206000200160009054906101000a900473ffffffffffffffffffffffffffffffffffffffff169050600073ffffffffffffffffffffffffffffffffffffffff168173ffffffffffffffffffffffffffffffffffffffff16141580156137835750600115156000808373ffffffffffffffffffffffffffffffffffffffff1673ffffffffffffffffffffffffffffffffffffffff16815260200190815260200160002060040160009054906101000a900460ff161515145b15613c79576000808273ffffffffffffffffffffffffffffffffffffffff1673ffffffffffffffffffffffffffffffffffffffff16815260200190815260200160002060020160089054906101000a900461ffff1661ffff16600160008673ffffffffffffffffffffffffffffffffffffffff1673ffffffffffffffffffffffffffffffffffffffff168152602001908152602001600020600201601c9054906101000a900461ffff1661ffff16111580156138fe57506000808273ffffffffffffffffffffffffffffffffffffffff1673ffffffffffffffffffffffffffffffffffffffff16815260200190815260200160002060020160009054906101000a900467ffffffffffffffff1667ffffffffffffffff16600160008673ffffffffffffffffffffffffffffffffffffffff1673ffffffffffffffffffffffffffffffffffffffff16815260200190815260200160002060020160149054906101000a900467ffffffffffffffff1667ffffffffffffffff1611155b801561398d57506000808273ffffffffffffffffffffffffffffffffffffffff1673ffffffffffffffffffffffffffffffffffffffff16815260200190815260200160002060030154600160008673ffffffffffffffffffffffffffffffffffffffff1673ffffffffffffffffffffffffffffffffffffffff1681526020019081526020016000206003015410155b15613c785760008060008373ffffffffffffffffffffffffffffffffffffffff1673ffffffffffffffffffffffffffffffffffffffff16815260200190815260200160002060040160006101000a81548160ff0219169083151502179055506139f7600582612ee3565b5080600160008673ffffffffffffffffffffffffffffffffffffffff1673ffffffffffffffffffffffffffffffffffffffff16815260200190815260200160002060020160006101000a81548173ffffffffffffffffffffffffffffffffffffffff021916908373ffffffffffffffffffffffffffffffffffffffff1602179055507f3100000000000000000000000000000000000000000000000000000000000000600160008673ffffffffffffffffffffffffffffffffffffffff1673ffffffffffffffffffffffffffffffffffffffff16815260200190815260200160002060070160016101000a81548160ff02191690837f010000000000000000000000000000000000000000000000000000000000000090040217905550613b1f600685612ee3565b50600160008573ffffffffffffffffffffffffffffffffffffffff1673ffffffffffffffffffffffffffffffffffffffff16815260200190815260200160002060030154600260008673ffffffffffffffffffffffffffffffffffffffff1673ffffffffffffffffffffffffffffffffffffffff1681526020019081526020016000206000828254019250508190555060078490806001815401808255809150509060018203906000526020600020016000909192909190916101000a81548173ffffffffffffffffffffffffffffffffffffffff021916908373ffffffffffffffffffffffffffffffffffffffff160217905550507f654163525cabcfa0ce95ecb1f232c75746c89688c42e7e2d52df90d770fc9e578482604051613c46929190614ad8565b60405180910390a17f300000000000000000000000000000000000000000000000000000000000000092505050613cac565b5b508080600101915050613695565b507f310000000000000000000000000000000000000000000000000000000000000090505b919050565b5080546000825590600052602060002090810190613ccf9190613e9a565b50565b50805460008255601f016020900490600052602060002090810190613cf79190613e9a565b50565b612580604051908101604052806032905b613d13613ebf565b815260200190600190039081613d0b5790505090565b60c0604051908101604052806000815260200160008152602001600067ffffffffffffffff168152602001600061ffff168152602001600081526020016000151581525090565b6101a0604051908101604052806000815260200160008152602001600073ffffffffffffffffffffffffffffffffffffffff168152602001600067ffffffffffffffff168152602001600061ffff16815260200160008152602001600067ffffffffffffffff168152602001600067ffffffffffffffff168152602001600067ffffffffffffffff168152602001606081526020016060815260200160001515815260200160007effffffffffffffffffffffffffffffffffffffffffffffffffffffffffffff191681525090565b615140604051908101604052806032905b613e58613f06565b815260200190600190039081613e505790505090565b815481835581811115613e9557818360005260206000209182019101613e949190613e9a565b5b505050565b613ebc91905b80821115613eb8576000816000905550600101613ea0565b5090565b90565b60c0604051908101604052806000815260200160008152602001600067ffffffffffffffff168152602001600061ffff168152602001600081526020016000151581525090565b6101a0604051908101604052806000815260200160008152602001600073ffffffffffffffffffffffffffffffffffffffff168152602001600067ffffffffffffffff168152602001600061ffff16815260200160008152602001600067ffffffffffffffff168152602001600067ffffffffffffffff168152602001600067ffffffffffffffff168152602001606081526020016060815260200160001515815260200160007effffffffffffffffffffffffffffffffffffffffffffffffffffffffffffff191681525090565b6000613fe1823561502f565b905092915050565b6000613ff58235615041565b905092915050565b600082601f830112151561401057600080fd5b813561402361401e82614ebe565b614e91565b9150818183526020840193506020810190508385602084028201111561404857600080fd5b60005b83811015614078578161405e8882613fe9565b84526020840193506020830192505060018101905061404b565b5050505092915050565b600061408e8235615053565b905092915050565b60006140a2823561505f565b905092915050565b60006140b6823561506d565b905092915050565b6000602082840312156140d057600080fd5b60006140de84828501613fd5565b91505092915050565b6000602082840312156140f957600080fd5b600061410784828501613fe9565b91505092915050565b6000806040838503121561412357600080fd5b600061413185828601613fe9565b925050602061414285828601614082565b9150509250929050565b6000806040838503121561415f57600080fd5b600061416d85828601613fe9565b925050602061417e858286016140aa565b9150509250929050565b60006020828403121561419a57600080fd5b600082013567ffffffffffffffff8111156141b457600080fd5b6141c084828501613ffd565b91505092915050565b6000806000606084860312156141de57600080fd5b60006141ec868287016140aa565b93505060206141fd86828701614096565b925050604061420e868287016140aa565b9150509250925092565b6000806000806080858703121561422e57600080fd5b600061423c878288016140aa565b945050602061424d87828801614096565b935050604061425e878288016140aa565b925050606061426f878288016140aa565b91505092959194509250565b61428481614f99565b82525050565b600061429582614f2c565b8084526020840193506142a783614ef3565b60005b828110156142d9576142bd86835161427b565b6142c682614f65565b91506020860195506001810190506142aa565b50849250505092915050565b60006142f082614f21565b80845260208401935061430283614ee6565b60005b828110156143345761431886835161427b565b61432182614f58565b9150602086019550600181019050614305565b50849250505092915050565b600061434b82614f37565b80845260208401935061435d83614f00565b60005b8281101561438f5761437386835161444b565b61437c82614f72565b9150602086019550600181019050614360565b50849250505092915050565b6143a481614f42565b6143ad82614f0d565b60005b828110156143df576143c3858351614778565b6143cc82614f7f565b915060c0850194506001810190506143b0565b5050505050565b60006143f182614f4d565b8360208202850161440185614f17565b60005b8481101561443a57838303885261441c838351614913565b925061442782614f8c565b9150602088019750600181019050614404565b508196508694505050505092915050565b61445481614fab565b82525050565b61446381614fb7565b82525050565b6000601182527f456e6f7567682056616c696461746f72730000000000000000000000000000006020830152604082019050919050565b6000601082527f50726f76696465722055706461746564000000000000000000000000000000006020830152604082019050919050565b6000600f82527f52657175657374205570646174656400000000000000000000000000000000006020830152604082019050919050565b6000601f82527f56616c69646174696f6e2041737369676e656420746f2050726f7669646572006020830152604082019050919050565b6000600f82527f526571756573742053746f7070656400000000000000000000000000000000006020830152604082019050919050565b6000601d82527f5265717565737420436f6d7075746174696f6e20436f6d706c657465640000006020830152604082019050919050565b6000600e82527f50726f76696465722041646465640000000000000000000000000000000000006020830152604082019050919050565b6000601082527f56616c696461746f72205369676e6564000000000000000000000000000000006020830152604082019050919050565b6000601582527f4e6f7420456e6f7567682056616c696461746f727300000000000000000000006020830152604082019050919050565b6000601082527f526571756573742041737369676e6564000000000000000000000000000000006020830152604082019050919050565b6000601382527f56616c69646174696f6e20436f6d706c657465000000000000000000000000006020830152604082019050919050565b6000600d82527f52657175657374204164646564000000000000000000000000000000000000006020830152604082019050919050565b60c0820160008201516147136000850182614a42565b5060208201516147266020850182614a42565b5060408201516147396040850182614a51565b50606082015161474c6060850182614a33565b50608082015161475f6080850182614a42565b5060a082015161477260a085018261444b565b50505050565b60c08201600082015161478e6000850182614a42565b5060208201516147a16020850182614a42565b5060408201516147b46040850182614a51565b5060608201516147c76060850182614a33565b5060808201516147da6080850182614a42565b5060a08201516147ed60a085018261444b565b50505050565b60006101a08301600083015161480c6000860182614a42565b50602083015161481f6020860182614a42565b506040830151614832604086018261427b565b5060608301516148456060860182614a51565b5060808301516148586080860182614a33565b5060a083015161486b60a0860182614a42565b5060c083015161487e60c0860182614a51565b5060e083015161489160e0860182614a51565b506101008301516148a6610100860182614a51565b506101208301518482036101208601526148c082826142e5565b9150506101408301518482036101408601526148dc8282614340565b9150506101608301516148f361016086018261444b565b5061018083015161490861018086018261445a565b508091505092915050565b60006101a08301600083015161492c6000860182614a42565b50602083015161493f6020860182614a42565b506040830151614952604086018261427b565b5060608301516149656060860182614a51565b5060808301516149786080860182614a33565b5060a083015161498b60a0860182614a42565b5060c083015161499e60c0860182614a51565b5060e08301516149b160e0860182614a51565b506101008301516149c6610100860182614a51565b506101208301518482036101208601526149e082826142e5565b9150506101408301518482036101408601526149fc8282614340565b915050610160830151614a1361016086018261444b565b50610180830151614a2861018086018261445a565b508091505092915050565b614a3c81614fe3565b82525050565b614a4b81615011565b82525050565b614a5a8161501b565b82525050565b6000606082019050614a75600083018561427b565b614a82602083018461427b565b8181036040830152614a938161450e565b90509392505050565b6000606082019050614ab1600083018561427b565b614abe602083018461427b565b8181036040830152614acf816145ea565b90509392505050565b6000606082019050614aed600083018561427b565b614afa602083018461427b565b8181036040830152614b0b81614658565b90509392505050565b6000604082019050614b29600083018461427b565b8181036020830152614b3a81614469565b905092915050565b6000604082019050614b57600083018461427b565b8181036020830152614b68816144a0565b905092915050565b6000604082019050614b85600083018461427b565b8181036020830152614b96816144d7565b905092915050565b6000604082019050614bb3600083018461427b565b8181036020830152614bc481614545565b905092915050565b6000604082019050614be1600083018461427b565b8181036020830152614bf28161457c565b905092915050565b6000604082019050614c0f600083018461427b565b8181036020830152614c20816145b3565b905092915050565b6000604082019050614c3d600083018461427b565b8181036020830152614c4e81614621565b905092915050565b6000604082019050614c6b600083018461427b565b8181036020830152614c7c8161468f565b905092915050565b6000604082019050614c99600083018461427b565b8181036020830152614caa816146c6565b905092915050565b60006020820190508181036000830152614ccc818461428a565b905092915050565b600061258082019050614cea600083018461439b565b92915050565b60006020820190508181036000830152614d0a81846143e6565b905092915050565b6000602082019050614d27600083018461444b565b92915050565b600060c082019050614d4260008301846146fd565b92915050565b60006020820190508181036000830152614d6281846147f3565b905092915050565b6000602082019050614d7f6000830184614a42565b92915050565b600061016082019050614d9b600083018e614a42565b614da8602083018d614a42565b614db5604083018c61427b565b614dc2606083018b614a51565b614dcf608083018a614a33565b614ddc60a0830189614a42565b614de960c0830188614a51565b614df660e0830187614a51565b614e04610100830186614a51565b614e1261012083018561444b565b614e2061014083018461445a565b9c9b505050505050505050505050565b600060c082019050614e456000830189614a42565b614e526020830188614a42565b614e5f6040830187614a51565b614e6c6060830186614a33565b614e796080830185614a42565b614e8660a083018461444b565b979650505050505050565b6000604051905081810181811067ffffffffffffffff82111715614eb457600080fd5b8060405250919050565b600067ffffffffffffffff821115614ed557600080fd5b602082029050602081019050919050565b6000602082019050919050565b6000602082019050919050565b6000602082019050919050565b6000819050919050565b6000819050919050565b600081519050919050565b600081519050919050565b600081519050919050565b600060329050919050565b600060329050919050565b6000602082019050919050565b6000602082019050919050565b6000602082019050919050565b6000602082019050919050565b6000602082019050919050565b6000614fa482614ff1565b9050919050565b60008115159050919050565b60007fff0000000000000000000000000000000000000000000000000000000000000082169050919050565b600061ffff82169050919050565b600073ffffffffffffffffffffffffffffffffffffffff82169050919050565b6000819050919050565b600067ffffffffffffffff82169050919050565b600061503a82614ff1565b9050919050565b600061504c82614ff1565b9050919050565b60008115159050919050565b600061ffff82169050919050565b600067ffffffffffffffff8216905091905056fea265627a7a72305820f606fb88ce13725358e5ea637e3e43e8fcbf16723651a4a82e1072cfba575b936c6578706572696d656e74616cf50037",
  "source": "/////////////////////////////////////////////////////////////////////////////////////\r\n//version 1.9.2\r\n//Author: Taurus\r\n//Copyright: tlu4@lsu.edu\r\n//\r\n//NOTE: non-view functions cannot return values, only possible way is event\r\n//Changes from v0.9x. Each node has unique address as identifier. All pools removed \r\n//All req and prov handled in the mapping.\r\n//update 12/12: pools cannot be removed, since we need to track who are active, cannot search in mapping.\r\n///////////////////////////////////////////////////////////////////////////////////////\r\npragma solidity ^0.5.0;\r\npragma experimental ABIEncoderV2;   //return self-defined type\r\n\r\ncontract TaskContract {\r\n    //list\r\n    mapping (address => Provider) public providerList;   //All here\r\n    mapping (address => Request)  public requestList;    //All here\r\n    mapping (address => uint256)  public balanceList;    //reqID => balance\r\n \r\n    //ID - counter\r\n    uint256 private providerCount;                       //+1 each time\r\n    uint256 private requestCount;\r\n\r\n    constructor() public {                               //sol 5.0 syntax\r\n        providerCount = 0;\r\n        requestCount = 0;\r\n    }\r\n\r\n    struct Request {\r\n        uint256 reqID;                      //requestID is not identifier \r\n        uint256 blockNumber;                //record the time of submition\r\n        address payable provider;           //record the provider assigned to this request\r\n        uint64  time;                       //time\r\n        uint16  target;                     //target 0-100.00\r\n        uint256 price;                      //the max amount he can pay\r\n        uint64  dataID;                     //dataID used to fetch the off-chain data\r\n        uint64  resultID;                   //dataID to fetch the result\r\n        uint64  numValidations;             //user defined the validation\r\n        address payable []  validators;     //multisignature from validations\r\n        bool[] signatures;                  //true or false array\r\n        bool    isValid;                    //the final flag\r\n        byte    status;                     //0: 'pending', 1:'providing', 2: validating, 3: complete\r\n    }\r\n\r\n    struct Provider {\r\n        uint256 provID;\r\n        uint256 blockNumber;\r\n        uint64  maxTime;                    //max time\r\n        uint16  maxTarget;                  //max target he need\r\n        uint256 minPrice;                   //lowest price can accept\r\n        bool    available;                  //if ready to be assigned\r\n    }\r\n\r\n    event SystemInfo        (address payable addr, bytes info);\r\n    event PairingInfo       (address payable reqAddr, address payable provAddr, bytes info);\r\n\r\n    address payable [] providerPool;\r\n    address payable [] pendingPool;\r\n    address payable [] providingPool;\r\n    address payable [] validatingPool;\r\n    /////////////////////////////////////////////////////////////////////////////////////\r\n\r\n    \r\n    // Function called to become a provider. New on List, Map and Pool. \r\n    // NOTE: cannot use to update. You must stop a previous one and start a new one.\r\n    // TIPS: gas cost: don't create local copy and write back, modify the storage directly.\r\n    //gas cost 165K without event / 167K with event / 92K overwrite\r\n    function startProviding(uint64 maxTime, uint16 maxTarget, uint64 minPrice) public returns (bool) {\r\n        if(providerList[msg.sender].blockNumber == 0){              //this is new\r\n            // register a new provider object in the List and map              \r\n            providerList[msg.sender].provID         = providerCount;    //cost 50k per item edit\r\n            providerList[msg.sender].blockNumber    = block.number;           \r\n            providerList[msg.sender].maxTime        = maxTime;\r\n            providerList[msg.sender].maxTime        = maxTime;       \r\n            providerList[msg.sender].maxTarget      = maxTarget;\r\n            providerList[msg.sender].minPrice       = minPrice;\r\n            providerList[msg.sender].available      = true;             //turn on the flag at LAST\r\n            // ready for the next       \r\n            providerPool.push(msg.sender);\r\n            emit SystemInfo (msg.sender, \"Provider Added\");\r\n            providerCount++;\r\n            assignProvider(msg.sender);\r\n            return true;\r\n        } else {\r\n            if(providerList[msg.sender].available == true){                //can only modify available provider\r\n                providerList[msg.sender].blockNumber    = block.number;         \r\n                providerList[msg.sender].maxTime        = maxTime;       \r\n                providerList[msg.sender].maxTarget      = maxTarget;\r\n                providerList[msg.sender].minPrice       = minPrice;\r\n                emit SystemInfo(msg.sender,'Provider Updated');\r\n                assignProvider(msg.sender);\r\n                return true;\r\n            }\r\n        }\r\n    }\r\n    // Stop a provider, if you know a provider ID. Get em using getProvID()\r\n    // Must be sent from the provider address or it will be failed.\r\n    function stopProviding() public returns (bool) {\r\n        // If the sender is currently an active provider\r\n        if (providerList[msg.sender].available == true){               //can only stop available provider            \r\n            delete providerList[msg.sender];                           //delete from List\r\n            return ArrayPop(providerPool, msg.sender);                 //delete from Pool    \r\n            emit SystemInfo(msg.sender, 'Provider Stopped');         \r\n        }\r\n    }\r\n    //update a provider, you must know the provID and must sent from right addr\r\n    function updateProvider(uint64 maxTime, uint16 maxTarget, uint64 minPrice) public returns (bool) {      \r\n        if(providerList[msg.sender].available == true){                //can only modify available provider\r\n            providerList[msg.sender].blockNumber    = block.number;         \r\n            providerList[msg.sender].maxTime        = maxTime;       \r\n            providerList[msg.sender].maxTarget      = maxTarget;\r\n            providerList[msg.sender].minPrice       = minPrice;\r\n            emit SystemInfo(msg.sender,'Provider Updated');\r\n            assignProvider(msg.sender);\r\n            return true;\r\n        }\r\n    }\r\n\r\n    // Send a request from user to blockchain.\r\n    // Assumes price is including the cost for verification\r\n    function startRequest(uint64 time, uint16 target, uint64 price, uint64 dataID) payable public returns (bool) {\r\n        if(requestList[msg.sender].blockNumber == 0){\r\n            //register on List\r\n            requestList[msg.sender].reqID         = requestCount;\r\n            requestList[msg.sender].blockNumber   = block.number;  \r\n            requestList[msg.sender].provider      = address(0);      \r\n            requestList[msg.sender].time          = time;    \r\n            requestList[msg.sender].target        = target;\r\n            requestList[msg.sender].price         = price;\r\n            requestList[msg.sender].dataID        = dataID;\r\n            requestList[msg.sender].numValidations = 1;\r\n            requestList[msg.sender].status = '0' ;     //pending 0x30, not 0\r\n            pendingPool.push(msg.sender);\r\n            emit SystemInfo (msg.sender, \"Request Added\");\r\n            \r\n            requestCount++;     \r\n            assignRequest(msg.sender);\r\n            return true;\r\n        } else {\r\n            if(requestList[msg.sender].status == '0' ){                   //can only update pending request\r\n                requestList[msg.sender].blockNumber    = block.number;         \r\n                requestList[msg.sender].time        = time;       \r\n                requestList[msg.sender].target      = target;\r\n                requestList[msg.sender].price       = price;\r\n                requestList[msg.sender].dataID      = dataID;\r\n                emit SystemInfo(msg.sender, 'Request Updated');\r\n                return true;\r\n            }\r\n        }\r\n    }\r\n    function stopRequest() public returns (bool){\r\n        if (requestList[msg.sender].status == '0'){                   //can only cancel owned pending request             \r\n            delete requestList[msg.sender];                           //delete from List             \r\n            emit SystemInfo(msg.sender, 'Request Stopped');\r\n            return ArrayPop(pendingPool, msg.sender);                 //delete from Pool   \r\n        }\r\n    }\r\n    function updateRequest(uint64 time, uint16 target, uint64 price, uint64 dataID) payable public returns (bool) {      \r\n        if(requestList[msg.sender].status == '0' ){                   //can only update pending request\r\n            requestList[msg.sender].blockNumber    = block.number;         \r\n            requestList[msg.sender].time        = time;       \r\n            requestList[msg.sender].target      = target;\r\n            requestList[msg.sender].price       = price;\r\n            requestList[msg.sender].dataID      = dataID;\r\n            emit SystemInfo(msg.sender, 'Request Updated');\r\n            return true;\r\n        }\r\n    }\r\n\r\n    // Search in the requestPool, find a job for current provider. Triggered by startProviding\r\n    // Return true if a match or false if not.\r\n    // Returns: 0: successfully assigned\r\n    //          1: searched all providers but find no match\r\n    //          2: no available provider right now\r\n    //          3: failure during poping pool\r\n    function assignProvider(address payable provAddr) private returns (byte){\r\n        if(pendingPool.length == 0) return '2';\r\n        else {\r\n            //search throught the requestPool\r\n            for (uint64 i = 0; i < pendingPool.length; i++){\r\n                //save the re-usable reqID , may save gas\r\n                address payable reqAddr = pendingPool[i];    \r\n                if( requestList[reqAddr].time     <= providerList[provAddr].maxTime &&\r\n                    requestList[reqAddr].target   <= providerList[provAddr].maxTarget &&\r\n                    requestList[reqAddr].price    >= providerList[provAddr].minPrice){\r\n                        //meet the requirement, assign the task\r\n                        //update provider\r\n                        providerList[provAddr].available = false;\r\n                        ArrayPop(providerPool, provAddr);\r\n\r\n                        //update request\r\n                        requestList[reqAddr].provider = provAddr;\r\n                        requestList[reqAddr].status = '1';    //providing\r\n                        ArrayPop(pendingPool, reqAddr);\r\n\r\n                        //update balanceList            addr here is requester's\r\n                        balanceList[reqAddr] += requestList[reqAddr].price; \r\n\r\n                        providingPool.push(reqAddr);                       \r\n                        //status move from pending to providing\r\n                        emit PairingInfo(reqAddr, provAddr, \"Request Assigned\");\r\n                        return '0';                   \r\n                }                \r\n            }\r\n            //after for loop and no match\r\n            return '1';\r\n        }\r\n    }\r\n\r\n    // Assigning one task to one of the available providers. Only called from requestTask (private)\r\n    // Search in the providerPool, if no match in the end, return false\r\n    //could only assign one task at a time\r\n    //auto sel the first searching result for now, no comparation between multiple availability.\r\n    //TODO: need ot add preference next patch\r\n    // Returns: 0: successfully assigned\r\n    //          1: searched all providers but find no match\r\n    //          2: no available provider right now\r\n    //          3: failure during poping pool\r\n    function assignRequest(address payable reqAddr) private returns (byte) {\r\n        //provider availability is checked in pool not in list\r\n        if (providerPool.length == 0)   return '2';\r\n        else {            //if any provider in pool\r\n            for (uint64 i = 0; i < providerPool.length; i++) {\r\n                // save the provider's addr, reusable and save gas cost\r\n                address payable provAddr  = providerPool[i];\r\n                if(provAddr != address(0) && providerList[provAddr].available == true){\r\n                    // Check if request conditions meet the providers requirements\r\n                    if (requestList[reqAddr].target <= providerList[provAddr].maxTarget && \r\n                        requestList[reqAddr].time <= providerList[provAddr].maxTime && \r\n                        requestList[reqAddr].price >= providerList[provAddr].minPrice) {\r\n                        \r\n                        //update provider:\r\n                        providerList[provAddr].available = false;\r\n                        ArrayPop(providerPool, provAddr);\r\n\r\n                        //update request\r\n                        requestList[reqAddr].provider = provAddr;\r\n                        requestList[reqAddr].status = '1';    //providing\r\n                        ArrayPop(pendingPool, reqAddr);\r\n\r\n                        //update balanceList              \r\n                        balanceList[reqAddr] += requestList[reqAddr].price; \r\n\r\n                        providingPool.push(reqAddr);\r\n                        emit PairingInfo(reqAddr, provAddr, \"Request Assigned\"); // Let provider listen for this event to see he was selected\r\n                        return '0';\r\n                    }\r\n                }\r\n            }\r\n            // No provider was found matching the criteria -- request failed\r\n            //requestList[reqID].addr.transfer(requestList[reqID].price); // Returns the ether to the sender\r\n            return '1';\r\n        }\r\n    }\r\n\r\n    // Provider will call this when they are done and the data is available.\r\n    // This will invoke the validation stage but only when the request got enough validators\r\n    // that req could be moved from pool and marked,\r\n    // Or that req stays providing\r\n    function completeRequest(address payable reqAddr, uint64 resultID) public returns (bool) {\r\n        // Confirm msg.sender is actually the provider of the task he claims\r\n        if (msg.sender == requestList[reqAddr].provider) {\r\n            //change request obj\r\n            requestList[reqAddr].status = '2';    //validating\r\n            requestList[reqAddr].resultID = resultID;\r\n            //move from providing pool to validating Pool.\r\n            ArrayPop(providingPool, reqAddr);\r\n            validatingPool.push(reqAddr);\r\n            //release provider (not necessarily depend on provider)\r\n            //providerList[providerID[msg.sender]].available = true;\r\n            emit SystemInfo(reqAddr, 'Request Computation Completed');\r\n            //start validation process\r\n            return validateRequest(reqAddr);\r\n        }\r\n        else {\r\n            return false;\r\n        }\r\n    }\r\n\r\n    // Called by assignRequest before finalizing stuff. Contract checks with validators\r\n    // Returns false if there wasnt enough free providers to send out the required number of validation requests\r\n    // need validation from 1/10 of nodes -- could change\r\n    function validateRequest(address payable reqAddr) public returns (bool) {\r\n        uint64 numValidatorsNeeded = requestList[reqAddr].numValidations; \r\n        //uint numValidators = providerCount / 10; \r\n        uint64 validatorsFound = 0;\r\n        //select # of available provider from the pool and force em to do the validation\r\n        for (uint64 i = 0; i < providerPool.length; i++) {\r\n            //get provider ID\r\n            address payable provID = providerPool[i];\r\n            if(provID != requestList[reqAddr].provider){   //validator and computer cannot be same\r\n                //EVENT: informs validator that they were selected and need to validate\r\n                emit PairingInfo(reqAddr, provID, 'Validation Assigned to Provider');\r\n                validatorsFound++;\r\n                //remove the providers availablity and pop from pool\r\n                providerList[provID].available = false;\r\n                ArrayPop(providerPool, provID);\r\n            } else continue;\r\n            //check whether got enough validator\r\n            if(validatorsFound < numValidatorsNeeded){\r\n                continue;\r\n            }\r\n            else{       //enough validator\r\n                emit SystemInfo(reqAddr, 'Enough Validators');\r\n                return true;\r\n                break;\r\n            }\r\n            //loop until certain # of validators selected\r\n        }   \r\n        //exit loop without enough validators    \r\n        emit SystemInfo(reqAddr, 'Not Enough Validators');\r\n    }\r\n\r\n    // needs to be more secure by ensuring the submission is coming from someone legit \r\n    // similar to completeTask but this will sign the validation list of the target Task\r\n    //TODO: the money part is ommited for now\r\n    function submitValidation(address payable reqAddr, bool result) public returns (bool) {\r\n        // Pay the validator \r\n        // uint partialPayment = requestList[reqID].price / 100; // amount each validator is paid\r\n        // msg.sender.transfer(partialPayment);\r\n        // balanceList[requestList[reqID].addr] -= partialPayment;\r\n        if(msg.sender != requestList[reqAddr].provider) {     //validator cannot be provider\r\n            requestList[reqAddr].validators.push(msg.sender);     //push array\r\n            requestList[reqAddr].signatures.push(result);     //edit mapping\r\n        }\r\n        //emit ValidationInfo(reqID, provID, 'Validator Signed');\r\n        //check if valid\r\n        \r\n        emit PairingInfo(reqAddr, msg.sender, 'Validator Signed');\r\n       \r\n        // If enough validations have been submitted\r\n        if (requestList[reqAddr].validators.length == requestList[reqAddr].numValidations) {\r\n            //return checkValidation(reqID, requestList[reqID].price - requestList[reqID].numValidationsNeeded * partialPayment);\r\n            //checkValidation(reqID);\r\n        }\r\n    }\r\n    \r\n    function checkValidation(address payable reqAddr) public returns (bool) {\r\n        // Add up successful validations\r\n        bool flag = false;\r\n        uint64 successCount = 0;\r\n        for (uint64 i=0; i<requestList[reqAddr].validators.length; i++) {\r\n            if (requestList[reqAddr].signatures[i] == true) successCount++;\r\n        }\r\n        // if 2/3 of validation attempts were successful\r\n        // TODO: determine the fraction\r\n        if (successCount  >= requestList[reqAddr].numValidations) { \r\n            // if 2/3 of validations were valid then provider gets remainder of money\r\n            //requestList[reqID].provider.transfer(payment); \r\n            //balanceList[requestList[reqID].addr] -= payment;\r\n            //TODO: [important] leave out the payment part for now.\r\n            requestList[reqAddr].isValid = true; // Task was successfully completed! \r\n            flag = true;\r\n        }\r\n        // otherwise, work was invalid, the providers payment goes back to requester\r\n        else {\r\n            //requestList[reqID].addr.transfer(payment);\r\n            //balanceList[requestList[reqID].addr] -= payment;\r\n        }\r\n        // EVENT: task is done whether successful or not\r\n        //emit TaskCompleted(requestList[reqID].addr, reqID);\r\n        emit SystemInfo(reqAddr, 'Validation Complete');\r\n        //popout from pool\r\n        flag = flag && ArrayPop(validatingPool, reqAddr);\r\n\r\n        return flag;\r\n    }\r\n\r\n/////////////////////////////////////////////////////////////////////\r\n    // Used to dynamically remove elements from array of open provider spaces. \r\n    // Using a swap and delete method, search for the desired addr throughout the whole array\r\n    // delete the desired and swap the whole with last element\r\n    function ArrayPop(address payable [] storage array, address payable target) private returns (bool) {\r\n        for(uint64 i = 0; i < array.length; i++){\r\n            if (array[i] == target) {\r\n                //swap last element with hole\r\n                array[i] = array[array.length-1];\r\n                //delete last item\r\n                delete array[array.length-1];\r\n                //decrease size\r\n                array.length -= 1;\r\n                return true;\r\n            }\r\n        }\r\n        return false;   //fail to search: no matching in pool\r\n    }\r\n    /////////////////////////////////////////////////////////////////////////////////\r\n    //some helpers defined here\r\n\r\n    function getProvider(address payable ID) public view returns(Provider memory){\r\n        return providerList[ID];\r\n    }\r\n    function getRequest(address payable ID) public view returns (Request memory){\r\n\t    return requestList[ID];\r\n    }\r\n    function getProviderCount() public view returns (uint256){\r\n        return providerCount;\r\n    }\r\n    function getRequestCount() public view returns (uint256){\r\n        return requestCount;\r\n    }\r\n\r\n    function getProviderPool() public view returns (address payable [] memory){\r\n        return providerPool;\r\n    }\r\n    function getPendingPool() public view returns (address payable [] memory){\r\n        return pendingPool;\r\n    }\r\n    function getValidatingPool() public view returns (address payable [] memory){\r\n        return validatingPool;\r\n    }\r\n    function getProvidingPool() public view returns (address payable [] memory){\r\n        return providingPool;\r\n    }\r\n\r\n    function getProviderPoolSize() public view returns (uint256){\r\n        return providerPool.length;\r\n    }\r\n    function getRequestPoolSize() public view returns (uint256){\r\n        return pendingPool.length;\r\n    }\r\n\r\n\r\n    //function getBalance(address addr) public view returns (uint256){\r\n    //    return balanceList[addr];\r\n    //}\r\n    function listRequests(address payable[] memory IDList) public view returns(Request[50] memory){\r\n\t    Request[50] memory allRequest;\r\n\t    for (uint64 i = 0; i < IDList.length; i++){\r\n\t\t    allRequest[i] = getRequest(IDList[i]);\r\n\t    }\r\n\t    return allRequest;\r\n    }\r\n    function listProviders(address payable[] memory IDList) public view returns(Provider[50] memory){\r\n        Provider[50] memory allProvider;\r\n        //address addr;\r\n        for (uint64 i = 0; i < IDList.length;i++){\r\n            allProvider[i] = getProvider(IDList[i]);\r\n        }\r\n        return allProvider;\r\n    }\r\n/*    function listAllRequests() public view returns(Request[50] memory){\r\n\t    Request[50] memory allRequest;\r\n\t    for (uint64 i = 0; i < requestCount; i++){\r\n\t\t    allRequest[i] = getRequest(i);\r\n\t    }\r\n\t    return allRequest;\r\n    }\r\n    function listAllProviders() public view returns(Provider[50] memory){\r\n\t    Provider[50] memory allProvider;\r\n\t    for (uint64 i = 0; i < providerCount; i++){\r\n\t\t    allProvider[i] = getProvider(i);\r\n\t    }\r\n\t    return allProvider;\r\n    }\r\n    function listProviders() public view returns(Provider[50] memory){\r\n        Provider[50] memory allProvider;\r\n        //address addr;\r\n        for (uint64 i = 0; i < providerCount;i++){\r\n            if(providerPool.length > 0) {\r\n                addr = providerPool[i];     \r\n            }else {\r\n                addr = address(0);\r\n            }\r\n            allProvider[i] = getProvider(i);\r\n        }\r\n        return allProvider;\r\n    }\r\n    /*function listTestProviders() public view returns(Provider[3] memory){\r\n        Provider[3] memory allProvider;\r\n        for (uint64 i = 0; i < 3;i++){\r\n            allProvider[i] = getTestProvider(i);\r\n        }\r\n        return allProvider;\r\n    }*/\r\n\r\n}\r\n",
  "sourcePath": "C:/Users/lutao/Documents/gitLab/bcai_v1.9/contracts/bcai_1.9.sol",
  "compiler": {
    "name": "solc",
    "version": "0.5.1+commit.c8a2cb62.Emscripten.clang"
  },
  "schemaVersion": "3.0.0-beta.2",
  "updatedAt": "2018-12-19T03:39:05.061Z",
  "devdoc": {
    "methods": {}
  },
  "userdoc": {
    "methods": {
      "getProvider(address)": {
        "notice": "//////////////////////////////////////////////////////////////////////////////"
      },
      "startProviding(uint64,uint16,uint64)": {
        "notice": "//////////////////////////////////////////////////////////////////////////////////"
      }
    }
  }
}