{
  "contractName": "TaskContract",
  "abi": [
    {
      "constant": true,
      "inputs": [
        {
          "name": "",
          "type": "address"
        }
      ],
      "name": "requestList",
      "outputs": [
        {
          "name": "reqID",
          "type": "uint256"
        },
        {
          "name": "blockNumber",
          "type": "uint256"
        },
        {
          "name": "provider",
          "type": "address"
        },
        {
          "name": "time",
          "type": "uint64"
        },
        {
          "name": "target",
          "type": "uint16"
        },
        {
          "name": "price",
          "type": "uint256"
        },
        {
          "name": "dataID",
          "type": "uint64"
        },
        {
          "name": "resultID",
          "type": "uint64"
        },
        {
          "name": "numValidationsNeeded",
          "type": "uint64"
        },
        {
          "name": "isValid",
          "type": "bool"
        },
        {
          "name": "status",
          "type": "bytes1"
        }
      ],
      "payable": false,
      "stateMutability": "view",
      "type": "function",
      "signature": "0x0708799e"
    },
    {
      "constant": true,
      "inputs": [
        {
          "name": "",
          "type": "address"
        }
      ],
      "name": "providerList",
      "outputs": [
        {
          "name": "provID",
          "type": "uint256"
        },
        {
          "name": "blockNumber",
          "type": "uint256"
        },
        {
          "name": "maxTime",
          "type": "uint64"
        },
        {
          "name": "maxTarget",
          "type": "uint16"
        },
        {
          "name": "minPrice",
          "type": "uint256"
        },
        {
          "name": "available",
          "type": "bool"
        }
      ],
      "payable": false,
      "stateMutability": "view",
      "type": "function",
      "signature": "0x0e1e4a3c"
    },
    {
      "constant": true,
      "inputs": [
        {
          "name": "",
          "type": "address"
        }
      ],
      "name": "balanceList",
      "outputs": [
        {
          "name": "",
          "type": "uint256"
        }
      ],
      "payable": false,
      "stateMutability": "view",
      "type": "function",
      "signature": "0x189258de"
    },
    {
      "inputs": [],
      "payable": false,
      "stateMutability": "nonpayable",
      "type": "constructor",
      "signature": "constructor"
    },
    {
      "anonymous": false,
      "inputs": [
        {
          "indexed": false,
          "name": "provID",
          "type": "uint256"
        },
        {
          "indexed": false,
          "name": "addr",
          "type": "address"
        }
      ],
      "name": "ProviderAdded",
      "type": "event",
      "signature": "0xafeb8d353a550fa93ee49e05f2ec51920688cec519f9c53be94a6ffffdf9a534"
    },
    {
      "anonymous": false,
      "inputs": [
        {
          "indexed": false,
          "name": "provID",
          "type": "uint256"
        },
        {
          "indexed": false,
          "name": "addr",
          "type": "address"
        }
      ],
      "name": "ProviderStopped",
      "type": "event",
      "signature": "0x37f095876e7fce8c776261edf08749c7a785891cfcdb3e45e1fe6f0a5085ddb0"
    },
    {
      "anonymous": false,
      "inputs": [
        {
          "indexed": false,
          "name": "provID",
          "type": "uint256"
        },
        {
          "indexed": false,
          "name": "addr",
          "type": "address"
        }
      ],
      "name": "ProviderUpdated",
      "type": "event",
      "signature": "0xd94c593c75e29861632520adc8ad754e10eb195d12baa4d1bf0bfcf23060b8b7"
    },
    {
      "anonymous": false,
      "inputs": [
        {
          "indexed": false,
          "name": "reqID",
          "type": "uint256"
        },
        {
          "indexed": false,
          "name": "provID",
          "type": "uint256"
        }
      ],
      "name": "TaskAssigned",
      "type": "event",
      "signature": "0x25e5c814bf9313a0efe86f97f5d6ad2921089c376aa35ab12fc2c495546755ee"
    },
    {
      "anonymous": false,
      "inputs": [
        {
          "indexed": false,
          "name": "reqID",
          "type": "uint256"
        },
        {
          "indexed": false,
          "name": "addr",
          "type": "address"
        }
      ],
      "name": "RequestAdded",
      "type": "event",
      "signature": "0x1547844676b0fd6479fc29c4babdeba187ee3bbc2b982bad5ad798b75675526d"
    },
    {
      "constant": false,
      "inputs": [
        {
          "name": "maxTime",
          "type": "uint64"
        },
        {
          "name": "maxTarget",
          "type": "uint16"
        },
        {
          "name": "minPrice",
          "type": "uint64"
        }
      ],
      "name": "startProviding",
      "outputs": [
        {
          "name": "",
          "type": "bytes1"
        }
      ],
      "payable": false,
      "stateMutability": "nonpayable",
      "type": "function",
      "signature": "0x2ddfdbcc"
    },
    {
      "constant": false,
      "inputs": [
        {
          "name": "dataID",
          "type": "uint64"
        },
        {
          "name": "target",
          "type": "uint16"
        },
        {
          "name": "time",
          "type": "uint64"
        }
      ],
      "name": "requestTask",
      "outputs": [
        {
          "name": "",
          "type": "bytes1"
        }
      ],
      "payable": true,
      "stateMutability": "payable",
      "type": "function",
      "signature": "0xa26ac6de"
    }
  ],
  "bytecode": "0x608060405234801561001057600080fd5b506005600061001f919061005e565b6006600061002d919061005e565b6009600061003b919061005e565b600a6000610049919061005e565b600060038190555060006004819055506100a4565b508054600082559060005260206000209081019061007c919061007f565b50565b6100a191905b8082111561009d576000816000905550600101610085565b5090565b90565b610dce806100b36000396000f3fe60806040526004361061006d576000357c0100000000000000000000000000000000000000000000000000000000900463ffffffff1680630708799e146100725780630e1e4a3c146100b9578063189258de146100fb5780632ddfdbcc14610138578063a26ac6de14610175575b600080fd5b34801561007e57600080fd5b5061009960048036036100949190810190610a8d565b6101a5565b6040516100b09b9a99989796959493929190610bbe565b60405180910390f35b3480156100c557600080fd5b506100e060048036036100db9190810190610a8d565b6102b6565b6040516100f296959493929190610c69565b60405180910390f35b34801561010757600080fd5b50610122600480360361011d9190810190610a8d565b610321565b60405161012f9190610b7a565b60405180910390f35b34801561014457600080fd5b5061015f600480360361015a9190810190610ab6565b610339565b60405161016c9190610b5f565b60405180910390f35b61018f600480360361018a9190810190610ab6565b610659565b60405161019c9190610b5f565b60405180910390f35b60016020528060005260406000206000915090508060000154908060010154908060020160009054906101000a900473ffffffffffffffffffffffffffffffffffffffff16908060020160149054906101000a900467ffffffffffffffff169080600201601c9054906101000a900461ffff16908060030154908060040160009054906101000a900467ffffffffffffffff16908060040160089054906101000a900467ffffffffffffffff16908060040160109054906101000a900467ffffffffffffffff16908060060160009054906101000a900460ff16908060060160019054906101000a90047f01000000000000000000000000000000000000000000000000000000000000000290508b565b60006020528060005260406000206000915090508060000154908060010154908060020160009054906101000a900467ffffffffffffffff16908060020160089054906101000a900461ffff16908060030154908060040160009054906101000a900460ff16905086565b60026020528060005260406000206000915090505481565b60006003546000803373ffffffffffffffffffffffffffffffffffffffff1673ffffffffffffffffffffffffffffffffffffffff16815260200190815260200160002060000181905550436000803373ffffffffffffffffffffffffffffffffffffffff1673ffffffffffffffffffffffffffffffffffffffff16815260200190815260200160002060010181905550836000803373ffffffffffffffffffffffffffffffffffffffff1673ffffffffffffffffffffffffffffffffffffffff16815260200190815260200160002060020160006101000a81548167ffffffffffffffff021916908367ffffffffffffffff160217905550836000803373ffffffffffffffffffffffffffffffffffffffff1673ffffffffffffffffffffffffffffffffffffffff16815260200190815260200160002060020160006101000a81548167ffffffffffffffff021916908367ffffffffffffffff160217905550826000803373ffffffffffffffffffffffffffffffffffffffff1673ffffffffffffffffffffffffffffffffffffffff16815260200190815260200160002060020160086101000a81548161ffff021916908361ffff1602179055508167ffffffffffffffff166000803373ffffffffffffffffffffffffffffffffffffffff1673ffffffffffffffffffffffffffffffffffffffff1681526020019081526020016000206003018190555060073390806001815401808255809150509060018203906000526020600020016000909192909190916101000a81548173ffffffffffffffffffffffffffffffffffffffff021916908373ffffffffffffffffffffffffffffffffffffffff1602179055505060016000803373ffffffffffffffffffffffffffffffffffffffff1673ffffffffffffffffffffffffffffffffffffffff16815260200190815260200160002060040160006101000a81548160ff0219169083151502179055507fafeb8d353a550fa93ee49e05f2ec51920688cec519f9c53be94a6ffffdf9a53460035433604051610638929190610b95565b60405180910390a16003600081548092919060010191905055509392505050565b6000600454600160003373ffffffffffffffffffffffffffffffffffffffff1673ffffffffffffffffffffffffffffffffffffffff1681526020019081526020016000206000018190555043600160003373ffffffffffffffffffffffffffffffffffffffff1673ffffffffffffffffffffffffffffffffffffffff168152602001908152602001600020600101819055506000600160003373ffffffffffffffffffffffffffffffffffffffff1673ffffffffffffffffffffffffffffffffffffffff16815260200190815260200160002060020160006101000a81548173ffffffffffffffffffffffffffffffffffffffff021916908373ffffffffffffffffffffffffffffffffffffffff16021790555081600160003373ffffffffffffffffffffffffffffffffffffffff1673ffffffffffffffffffffffffffffffffffffffff16815260200190815260200160002060020160146101000a81548167ffffffffffffffff021916908367ffffffffffffffff16021790555082600160003373ffffffffffffffffffffffffffffffffffffffff1673ffffffffffffffffffffffffffffffffffffffff168152602001908152602001600020600201601c6101000a81548161ffff021916908361ffff16021790555034600160003373ffffffffffffffffffffffffffffffffffffffff1673ffffffffffffffffffffffffffffffffffffffff1681526020019081526020016000206003018190555083600160003373ffffffffffffffffffffffffffffffffffffffff1673ffffffffffffffffffffffffffffffffffffffff16815260200190815260200160002060040160006101000a81548167ffffffffffffffff021916908367ffffffffffffffff16021790555060018060003373ffffffffffffffffffffffffffffffffffffffff1673ffffffffffffffffffffffffffffffffffffffff16815260200190815260200160002060040160106101000a81548167ffffffffffffffff021916908367ffffffffffffffff160217905550600660045490806001815401808255809150509060018203906000526020600020016000909192909190915055507f3000000000000000000000000000000000000000000000000000000000000000600160003373ffffffffffffffffffffffffffffffffffffffff1673ffffffffffffffffffffffffffffffffffffffff16815260200190815260200160002060060160016101000a81548160ff02191690837f0100000000000000000000000000000000000000000000000000000000000000900402179055506004600081548092919060010191905055507f300000000000000000000000000000000000000000000000000000000000000090509392505050565b6000610a5d8235610d60565b905092915050565b6000610a718235610d72565b905092915050565b6000610a858235610d80565b905092915050565b600060208284031215610a9f57600080fd5b6000610aad84828501610a51565b91505092915050565b600080600060608486031215610acb57600080fd5b6000610ad986828701610a79565b9350506020610aea86828701610a65565b9250506040610afb86828701610a79565b9150509250925092565b610b0e81610cca565b82525050565b610b1d81610cdc565b82525050565b610b2c81610ce8565b82525050565b610b3b81610d14565b82525050565b610b4a81610d42565b82525050565b610b5981610d4c565b82525050565b6000602082019050610b746000830184610b23565b92915050565b6000602082019050610b8f6000830184610b41565b92915050565b6000604082019050610baa6000830185610b41565b610bb76020830184610b05565b9392505050565b600061016082019050610bd4600083018e610b41565b610be1602083018d610b41565b610bee604083018c610b05565b610bfb606083018b610b50565b610c08608083018a610b32565b610c1560a0830189610b41565b610c2260c0830188610b50565b610c2f60e0830187610b50565b610c3d610100830186610b50565b610c4b610120830185610b14565b610c59610140830184610b23565b9c9b505050505050505050505050565b600060c082019050610c7e6000830189610b41565b610c8b6020830188610b41565b610c986040830187610b50565b610ca56060830186610b32565b610cb26080830185610b41565b610cbf60a0830184610b14565b979650505050505050565b6000610cd582610d22565b9050919050565b60008115159050919050565b60007fff0000000000000000000000000000000000000000000000000000000000000082169050919050565b600061ffff82169050919050565b600073ffffffffffffffffffffffffffffffffffffffff82169050919050565b6000819050919050565b600067ffffffffffffffff82169050919050565b6000610d6b82610d22565b9050919050565b600061ffff82169050919050565b600067ffffffffffffffff8216905091905056fea265627a7a72305820fd4590703b21b978cdc90dbebdb0c5436eff5b4979479c9131ebfc1d888705cb6c6578706572696d656e74616cf50037",
  "source": "//version 1.9.1\n//Author: Taurus, Landry\n//Copyright: tlu4@lsu.edu\n\n//NOTE: non-view functions cannot return values, only possible way is event\n\npragma solidity ^0.5.0;\npragma experimental ABIEncoderV2;   //return self-defined type\n\ncontract TaskContract {\n    //list\n    mapping (address => Provider) public providerList;  //history\n    mapping (address => Request) public requestList;    //history\n    \n    //mapping address with ID       //editing these mapping cost a lot\n    //mapping (address => uint256[])  public providerMap;\n    //mapping (address => uint256[])  public requestMap;\n \n    mapping (address => uint256) public balanceList;    //reqID => balance\n    //ID - counter\n    uint256 private providerCount;     //+1 each time\n    uint256 private requestCount;\n    //Pool\n    uint256 [] providerPool;\n    uint256 [] pendingPool;\n    address payable [] providerAddrPool;\n    address payable [] pendingAddrPool;\n    uint256[] providingPool;\n    uint256[] validatingPool;\n    \n\n    constructor() public {      //sol 5.0 syntax\n        delete providerPool;\n        delete pendingPool;\n        delete providingPool;\n        delete validatingPool;\n        providerCount = 0;\n        requestCount = 0;\n    }\n\n    struct Request {\n        uint256 reqID;              //requestID is the only identifier for each Request\n        uint256 blockNumber;\n        //address payable addr;       //payable is new feature from sol v5.0\n        //uint256 assignedProvider;\n        address payable provider;         //\n        //address payable provider;   //addr of worker\n        uint64  time;               //time\n        uint16  target;             //target 0-100.00\n        uint256 price;              //the max amount he can pay\n        uint64  dataID;             //dataID used to fetch the off-chain data\n        uint64  resultID;           //dataID to fetch the result\n        uint64  numValidationsNeeded;   //user defined the validation\n        bool[]  validations;        //multisignature from validations\n        bool    isValid;            //the final flag\n        byte    status;              //0: 'pending', 1:'providing', 2: validating, 3: complete\n    }\n\n    struct Provider {\n        uint256 provID;\n        uint256 blockNumber;\n        //address payable addr;       //providers address\n\n        \n                                    //TODO: the provider name registration.\n        uint64  maxTime;            //max time\n        uint16  maxTarget;          //max target he need\n        uint256 minPrice;           //lowest price can accept\n        bool    available;          // Used to determine if provider is already doing something\n    }\n\n    event ProviderAdded     (uint256 provID, address payable addr);\n    event ProviderStopped   (uint256 provID, address payable addr);\n    event ProviderUpdated   (uint256 provID, address payable addr);\n    event TaskAssigned          (uint256 reqID, uint256 provID);     // next step: call completeTask\n    event RequestAdded      (uint256 reqID, address payable addr);\n    \n    //event ValidationRequested   (address validator, uint128 reqID);    // next step: validator calls submitValidation\n    //event TaskCompleted         (address requestor, uint128 reqID);    // done\n    /////////////////////////////////////////////////////////////////////////////////////\n\n    \n    // Function called to become a provider. New on List, Map and Pool. \n    // NOTE: cannot use to update. You must stop a previous one and start a new one.\n    // TIPS: gas cost: don't create local copy and write back, modify the storage directly.\n    //gas cost 165K without event / \n    function startProviding(uint64 maxTime, uint16 maxTarget, uint64 minPrice) public returns (byte) {\n        // register a new provider object in the List and map              \n        providerList[msg.sender].provID         = providerCount;      //cost 50k per item edit\n        providerList[msg.sender].blockNumber    = block.number;\n            //providerList[msg.sender].addr           = msg.sender;             \n        providerList[msg.sender].maxTime        = maxTime;\n        providerList[msg.sender].maxTime        = maxTime;       \n        providerList[msg.sender].maxTarget      = maxTarget;\n        providerList[msg.sender].minPrice       = minPrice;\n        \n        // add to map       //TODO: this cost 70000 gas\n        //providerMap[msg.sender].push(providerCount);\n        // put it into the pool\n        //providerPool.push(providerCount);\n        providerAddrPool.push(msg.sender);\n        providerList[msg.sender].available      = true;  //turn on the flag at LAST\n        // ready for the next       \n        emit ProviderAdded(providerCount, msg.sender);\n        providerCount++;\n        \n    }\n    /*// Stop a provider, if you know a provider ID. Get em using getProvID()\n    // Must be sent from the provider address or it will be failed.\n    function stopProviding(uint256 provID) public returns (bool) {\n        // If the sender is currently an active provider\n        bool flag = false;\n        if (providerList[provID].available == true                 //can only stop available provider\n                && providerList[provID].addr == msg.sender) {      //you cannot delete other's provider            \n            delete providerList[provID];                           //delete from List\n            flag = ArrayPop(providerMap[msg.sender], provID);      //delete form Map\n            flag = ArrayPop(providerPool, provID) && flag;         //delete from Pool             \n        }\n        if(flag) emit ProviderStopped(provID, msg.sender);\n        return flag;\n    }\n    //update a provider, you must know the provID and must sent from right addr\n    function updateProvider(uint64 maxTime, uint16 maxTarget, uint64 minPrice, uint256 provID) public returns (bool) {      \n        bool flag = false;\n        if(providerList[provID].available == true           //can only modify available provider\n        && providerList[provID].addr != msg.sender){        //you are modify other's config\n            providerList[provID].blockNumber    = block.number;         \n            providerList[provID].maxTime        = maxTime;       \n            providerList[provID].maxTarget      = maxTarget;\n            providerList[provID].minPrice       = minPrice;\n            //update pool       -- pop then push , because we need to scan pool anyway\n            flag = ArrayPop(providerPool,provID);           // pop first                                      \n            providerPool.push(provID);                      // push in both case anyway\n            //update map -- no need provID not changed.\n            emit ProviderUpdated(provID, msg.sender);\n            return flag;\n        }\n    }*/\n\n    // Send a request from user to blockchain.\n    // Assumes price is including the cost for verification\n    function requestTask(uint64 dataID, uint16 target, uint64 time) payable public returns (byte) {\n        //register on List\n        requestList[msg.sender].reqID         = requestCount;\n        requestList[msg.sender].blockNumber   = block.number;  \n        //requestList[msg.sender].addr          = msg.sender;\n        requestList[msg.sender].provider      = address(0);      \n        requestList[msg.sender].time          = time;    \n        requestList[msg.sender].target        = target;\n        requestList[msg.sender].price         = msg.value;\n        requestList[msg.sender].dataID        = dataID;\n        //requestList[requestCount].resultID  = 0;\n        requestList[msg.sender].numValidationsNeeded = 1;\n        //requestList[requestCount].validations = emptyArray;\n        //requestList[requestCount].isValid   = false;\n        \n        //add new to map\n        //requestMap[msg.sender].push(requestCount);\n        \n        //add new to requestPool\n        pendingPool.push(requestCount);\n        requestList[msg.sender].status = '0' ;     //pending 0x30, not 0\n        //emit RequestAdded(requestCount,msg.sender);\n        \n        //update count\n        requestCount++;     \n        return '0';\n        //assignTask(requestCount -1);\n    }\n\n/*\n    // Used to be sure you are seen as available. e.g. power outage caused you to lose available status on network.\n    // Not to be called after stopProviding to resume -- startProviding used in this case.\n    //function restart() public returns (bool) {\n    //if (providerList[providerID[msg.sender]].addr == msg.sender) {\n    //     providers[providerID[msg.sender]].available = true;\n    //       return true;\n    //    }\n    //else {\n    //    return false; // provider wasnt found in mapping\n    //  }\n    //}\n\n\n    // Search in the requestPool, find a job for current provider. Triggered by startProviding\n    // Return true if a match or false if not.\n    // Returns: 0: successfully assigned\n    //          1: searched all providers but find no match\n    //          2: no available provider right now\n    //          3: failure during poping pool\n    function assignProvider(address payable addr) private returns (byte){\n        if(requestPool.length == 0) return '2';\n        else {\n            //search throught the requestPool\n            for (uint128 i = 0; i < requestPool.length; i++){\n                //save the re-usable reqID , may save gas\n                uint128 reqID = requestPool[i]; //     \n                if( requestList[reqID].time     < providerList[addr].maxTime &&\n                    requestList[reqID].target   < providerList[addr].maxTarget &&\n                    requestList[reqID].price    > providerList[addr].minPrice){\n                        //meet the requirement, assign the task\n                        //update provider\n                        providerList[addr].available = false;\n                        bool isPopped = providerPop(addr);\n                        if(!isPopped) return '3';\n\n                        //update request\n                        requestList[reqID].provider = addr;\n                        requestList[reqID].status = '1';    //providing\n                        isPopped = requestPop(reqID);\n                        if(!isPopped) return '3';\n\n                        //update balanceList            addr here is requester's\n                        balanceList[requestList[reqID].addr] += requestList[reqID].price; \n                                               \n                        //status move from pending to providing\n                        pendingCount--;\n                        providingCount++;\n                        emit TaskAssigned(addr, providerID[addr], reqID);\n                        return '0';                   \n                }                \n            }\n            //after for loop and no match\n            return '1';\n        }\n    }\n\n\n\n*/\n\n    \n\n    /*function requestTask(uint64 dataID, uint16 target, uint64 time) payable public returns (bool) {\n        bool[] memory emptyArray;\n        Request memory req = Request(           //create a temp memory var\n            msg.sender,             //addr\n            address(0),             //provider\n            requestCount,           //reqID\n            dataID,                 //dataID\n            time,                   //time    \n            target,                 //target   0-100\n            msg.value,              //price \n            0,                      //resultID\n            1,                      //numValidationsNeeded\n            emptyArray,             //sig list\n            false,                  //isValid\n            0                       //status  0-3 0: pending\n        );\n\n        //copy the mem var into storage\n        requestList[requestCount] = req;        //requestCount used as index here, from 0 to +++\n        //add new to requestPool\n        requestPool.push(requestCount);\n        //update requestID\n        requestID[msg.sender].push(requestCount);\n        //update count\n        requestCount++;     //count already stands for the # of req now.\n        pendingCount++;\n        return assignTask();\n    }\n\n\n    // Assigning one task to one of the available providers. Only called from requestTask (private)\n    // Search in the providerPool, if no match in the end, return false\n    //could only assign one task at a time\n    //auto sel the first searching result for now, no comparation between multiple availability.\n    //TODO: need ot add preference next patch\n    // Returns: 0: successfully assigned\n    //          1: searched all providers but find no match\n    //          2: no available provider right now\n    //          3: failure during poping pool\n    function assignTask(uint128 reqID) private returns (byte) {\n        //provider availability is checked in pool not in list\n        if (providerPool.length == 0)   return '2';\n        else {            //if any provider in pool\n            for (uint64 i = 0; i < providerPool.length; i++) {\n                // save the provider's addr, reusable and save gas cost\n                address payable addr  = providerPool[i];\n                if(addr != address(0) && providerList[addr].available == true){\n                    // Check if request conditions meet the providers requirements\n                    if (requestList[reqID].target <= providerList[addr].maxTarget && \n                        requestList[reqID].time <= providerList[addr].maxTime && \n                        requestList[reqID].price >= providerList[addr].minPrice) {\n                        \n                        //update provider:\n                        providerList[addr].available = false;\n                        bool isPopped = providerPop(addr);\n                        if(!isPopped) return '3';\n\n                        //update request\n                        requestList[reqID].provider = addr;\n                        requestList[reqID].status = '1';    //providing\n                        isPopped = requestPop(reqID);\n                        if(!isPopped) return '3';\n\n                        //update balanceList              \n                        balanceList[requestList[reqID].addr] += requestList[reqID].price; \n                                               \n                        //status move from pending to providing\n                        pendingCount--;\n                        providingCount++;\n                        //NOTE: assign existing task should not increase the # of requestCount\n\n                        //EVENT\n                        emit TaskAssigned(addr, providerID[addr], reqID); // Let provider listen for this event to see he was selected\n                        return '0';\n                    }\n                }\n            }\n            // No provider was found matching the criteria -- request failed\n            requestList[reqID].addr.transfer(requestList[reqID].price); // Returns the ether to the sender\n            return '1';\n        }\n    }\n\n\n\n/*\n\n    // Provider will call this when they are done and the data is available.\n    // This will invoke the validation stage\n    function completeTask(uint128 reqID, uint64 resultID) public returns (bool) {\n        // Confirm msg.sender is actually the provider of the task he claims\n        if (msg.sender == requestList[reqID].provider) {\n            requestList[reqID].isCompleted = true;\n            requestList[reqID].resultID = resultID;\n            providerList[providerID[msg.sender]].available = true;\n            return validateTask(reqID);\n        }\n        else {\n            return false;\n        }\n    }\n/*\n    // Called by completeTask before finalizing stuff. Contract checks with validators\n    // Returns false if there wasnt enough free providers to send out the required number of validation requests\n    function validateTask(uint128 reqID) private returns (bool) {\n        uint64 numValidators = 3; // need validation from 1/10 of nodes -- could change\n        //uint numValidators = providerCount / 10; \n        uint validatorsFound = 0;\n        requestList[reqID].numValidationsNeeded = numValidators;\n        for (uint64 i=0; i<providerCount + spaces.length && validatorsFound<numValidators; i++) {\n            if (providerList[i].addr == address(0)) {\n                continue;\n            }\n            if (providerList[i].available) {\n                // EVENT: informs validator that they were selected and need to validate\n                emit ValidationRequested(providerList[i].addr, reqID);\n                validatorsFound++;\n            }\n        }\n        if (validatorsFound == numValidators) {\n            return true;\n        }\n        return false;\n    }\n\n\n\n\n\n    // needs to be more secure by ensuring the submission is coming from someone legit \n    function submitValidation(uint128 reqID, bool result) public returns (bool) {\n        // Pay the validator \n        uint partialPayment = requestList[reqID].price / 100; // amount each validator is paid\n        msg.sender.transfer(partialPayment);\n        balanceList[requestList[reqID].addr] -= partialPayment;\n        // Put the result in the request struct\n        requestList[reqID].validations.push(result);\n        // If enough validations have been submitted\n        if (requestList[reqID].validations.length == requestList[reqID].numValidationsNeeded) {\n            return checkValidation(reqID, requestList[reqID].price - requestList[reqID].numValidationsNeeded * partialPayment);\n        }\n    }\n    \n    function checkValidation(uint128 reqID, uint payment) private returns (bool) {\n        // Add up successful validations\n        uint64 successCount = 0;\n        for (uint64 i=0; i<requestList[reqID].validations.length; i++) {\n            if (requestList[reqID].validations[i]) successCount++;\n        }\n        // if 2/3 of validation attempts were successful\n        if (successCount  >= requestList[reqID].numValidationsNeeded * 2 / 3  ) { \n            // if 2/3 of validations were valid then provider gets remainder of money\n            requestList[reqID].provider.transfer(payment); \n            balanceList[requestList[reqID].addr] -= payment;\n            requestList[reqID].isValid = true; // Task was successfully completed! \n        }\n        // otherwise, work was invalid, the providers payment goes back to requester\n        else {\n            requestList[reqID].addr.transfer(payment);\n            balanceList[requestList[reqID].addr] -= payment;\n        }\n        // EVENT: task is done whether successful or not\n        emit TaskCompleted(requestList[reqID].addr, reqID);\n        return requestList[reqID].isValid;\n    }\n*/\n/////////////////////////////////////////////////////////////////////\n // Used to dynamically remove elements from array of open provider spaces. \n    // Using a swap and delete method, search for the desired addr throughout the whole array\n    // delete the desired and swap the whole with last element\n    /*function AddrArrayPop(address payable [] storage addrArray, uint256 target) private returns(bool) {\n        for(uint64 i = 0; i < addrArray.length; i++){\n            if (addrArray[i] == target) {\n                //swap last element with hole\n                addrArray[i] = addrArray[addrArray.length-1];\n                //delete last item\n                delete addrArray[addrArray.length-1];\n                 //decrease size\n                addrArray.length--;\n                return true;\n            }\n        }\n        return false; //fail to search: no matching in pool\n    }*/\n\n    function ArrayPop(uint256[] storage array, uint256 target) private returns (bool) {\n        for(uint64 i = 0; i < array.length; i++){\n            if (array[i] == target) {\n                //swap last element with hole\n                array[i] = array[array.length-1];\n                //delete last item\n                delete array[array.length-1];\n                //decrease size\n                array.length--;\n                return true;\n            }\n        }\n        return false;   //fail to search: no matching in pool\n    } /*\n    function getMyProvID() public view returns (uint256[] memory){\n        return providerMap[msg.sender];\n    }\n    function getMyReqID() public view returns (uint256[] memory){\n        return requestMap[msg.sender];\n    }\n    function getProviderID(address addr) public view returns (uint256[] memory){\n        return providerMap[addr];\n    }\n    function getRequestID(address addr) public view returns (uint256[] memory){\n        return requestMap[addr];\n    }*/\n\n    /////////////////////////////////////////////////////////////////////////////////\n    //some helpers defined here\n    /*function testTask() public {\n        emit TaskAssigned(msg.sender, 11, 22);\n    }\n    function getProvider(uint256 ID) public view returns(Provider memory){\n        return providerList[ID];\n    }\n    function getRequest(uint256 ID) public view returns (Request memory){\n\t    return requestList[ID];\n    }\n    function getProviderCount() public view returns (uint256){\n        return providerCount;\n    }\n    function getRequestCount() public view returns (uint256){\n        return requestCount;\n    }\n    function getProviderPool() public view returns (uint256[] memory){\n        return providerPool;\n    }\n    function getRequestPool() public view returns (uint256[] memory){\n        return pendingPool;\n    }\n    function getProviderPoolSize() public view returns (uint256){\n        return providerPool.length;\n    }\n    function getRequestPoolSize() public view returns (uint256){\n        return pendingPool.length;\n    }\n    //function getBalance(address addr) public view returns (uint256){\n    //    return balanceList[addr];\n    //}\n    function listRequests(uint256[] memory IDList) public view returns(Request[50] memory){\n\t    Request[50] memory allRequest;\n\t    for (uint64 i = 0; i < IDList.length; i++){\n\t\t    allRequest[i] = getRequest(IDList[i]);\n\t    }\n\t    return allRequest;\n    }\n    function listProviders(uint256[] memory IDList) public view returns(Provider[50] memory){\n        Provider[50] memory allProvider;\n        //address addr;\n        for (uint64 i = 0; i < IDList.length;i++){\n            allProvider[i] = getProvider(IDList[i]);\n        }\n        return allProvider;\n    }\n    function listAllRequests() public view returns(Request[50] memory){\n\t    Request[50] memory allRequest;\n\t    for (uint64 i = 0; i < requestCount; i++){\n\t\t    allRequest[i] = getRequest(i);\n\t    }\n\t    return allRequest;\n    }\n    function listAllProviders() public view returns(Provider[50] memory){\n\t    Provider[50] memory allProvider;\n\t    for (uint64 i = 0; i < providerCount; i++){\n\t\t    allProvider[i] = getProvider(i);\n\t    }\n\t    return allProvider;\n    }\n    function listProviders() public view returns(Provider[50] memory){\n        Provider[50] memory allProvider;\n        //address addr;\n        for (uint64 i = 0; i < providerCount;i++){\n            if(providerPool.length > 0) {\n                addr = providerPool[i];     \n            }else {\n                addr = address(0);\n            }\n            allProvider[i] = getProvider(i);\n        }\n        return allProvider;\n    }\n    /*function listTestProviders() public view returns(Provider[3] memory){\n        Provider[3] memory allProvider;\n        for (uint64 i = 0; i < 3;i++){\n            allProvider[i] = getTestProvider(i);\n        }\n        return allProvider;\n    }*/\n\n}\n",
  "sourcePath": "/home/taurus/blockchain/gitLab/bcai_v1.9/contracts/bcai_1.9.1.sol",
  "compiler": {
    "name": "solc",
    "version": "0.5.0+commit.1d4f565a.Emscripten.clang"
  },
  "schemaVersion": "3.0.0-beta.2",
  "updatedAt": "2018-12-07T22:50:35.008Z",
  "devdoc": {
    "methods": {}
  },
  "userdoc": {
    "methods": {
      "startProviding(uint64,uint16,uint64)": {
        "notice": "//////////////////////////////////////////////////////////////////////////////////"
      }
    }
  }
}