{
  "contractName": "TaskContract",
  "abi": [
    {
      "constant": true,
      "inputs": [
        {
          "name": "",
          "type": "uint256"
        }
      ],
      "name": "requestList",
      "outputs": [
        {
          "name": "reqID",
          "type": "uint256"
        },
        {
          "name": "blockNumber",
          "type": "uint256"
        },
        {
          "name": "addr",
          "type": "address"
        },
        {
          "name": "provider",
          "type": "address"
        },
        {
          "name": "time",
          "type": "uint64"
        },
        {
          "name": "target",
          "type": "uint16"
        },
        {
          "name": "price",
          "type": "uint256"
        },
        {
          "name": "dataID",
          "type": "uint64"
        },
        {
          "name": "resultID",
          "type": "uint64"
        },
        {
          "name": "numValidations",
          "type": "uint64"
        },
        {
          "name": "isValid",
          "type": "bool"
        },
        {
          "name": "status",
          "type": "bytes1"
        }
      ],
      "payable": false,
      "stateMutability": "view",
      "type": "function",
      "signature": "0x02e9d43b"
    },
    {
      "constant": true,
      "inputs": [
        {
          "name": "",
          "type": "uint256"
        }
      ],
      "name": "providerList",
      "outputs": [
        {
          "name": "provID",
          "type": "uint256"
        },
        {
          "name": "blockNumber",
          "type": "uint256"
        },
        {
          "name": "addr",
          "type": "address"
        },
        {
          "name": "maxTime",
          "type": "uint64"
        },
        {
          "name": "maxTarget",
          "type": "uint16"
        },
        {
          "name": "minPrice",
          "type": "uint256"
        },
        {
          "name": "available",
          "type": "bool"
        }
      ],
      "payable": false,
      "stateMutability": "view",
      "type": "function",
      "signature": "0x390bfd3c"
    },
    {
      "constant": true,
      "inputs": [
        {
          "name": "",
          "type": "uint256"
        }
      ],
      "name": "balanceList",
      "outputs": [
        {
          "name": "",
          "type": "uint256"
        }
      ],
      "payable": false,
      "stateMutability": "view",
      "type": "function",
      "signature": "0x599b6808"
    },
    {
      "constant": true,
      "inputs": [
        {
          "name": "",
          "type": "address"
        },
        {
          "name": "",
          "type": "uint256"
        }
      ],
      "name": "providerMap",
      "outputs": [
        {
          "name": "",
          "type": "uint256"
        }
      ],
      "payable": false,
      "stateMutability": "view",
      "type": "function",
      "signature": "0xd2d5d74f"
    },
    {
      "constant": true,
      "inputs": [
        {
          "name": "",
          "type": "address"
        },
        {
          "name": "",
          "type": "uint256"
        }
      ],
      "name": "requestMap",
      "outputs": [
        {
          "name": "",
          "type": "uint256"
        }
      ],
      "payable": false,
      "stateMutability": "view",
      "type": "function",
      "signature": "0xd3cca02e"
    },
    {
      "inputs": [],
      "payable": false,
      "stateMutability": "nonpayable",
      "type": "constructor",
      "signature": "constructor"
    },
    {
      "anonymous": false,
      "inputs": [
        {
          "indexed": false,
          "name": "ID",
          "type": "uint256"
        },
        {
          "indexed": false,
          "name": "addr",
          "type": "address"
        },
        {
          "indexed": false,
          "name": "info",
          "type": "bytes"
        }
      ],
      "name": "SystemInfo",
      "type": "event",
      "signature": "0xa4c4c871d43d81be54f69ce74ea5bc289663a3cdf402d09baf09407085be0231"
    },
    {
      "anonymous": false,
      "inputs": [
        {
          "indexed": false,
          "name": "reqID",
          "type": "uint256"
        },
        {
          "indexed": false,
          "name": "reqAddr",
          "type": "address"
        },
        {
          "indexed": false,
          "name": "provID",
          "type": "uint256"
        },
        {
          "indexed": false,
          "name": "provAddr",
          "type": "address"
        },
        {
          "indexed": false,
          "name": "info",
          "type": "bytes"
        }
      ],
      "name": "PairingInfo",
      "type": "event",
      "signature": "0xc4f678ebfd7e29fd2b410c08e9adcef6a55d52ee8c9b379f90cb334d18438668"
    },
    {
      "constant": false,
      "inputs": [
        {
          "name": "maxTime",
          "type": "uint64"
        },
        {
          "name": "maxTarget",
          "type": "uint16"
        },
        {
          "name": "minPrice",
          "type": "uint64"
        }
      ],
      "name": "startProviding",
      "outputs": [
        {
          "name": "",
          "type": "bytes1"
        }
      ],
      "payable": false,
      "stateMutability": "nonpayable",
      "type": "function",
      "signature": "0x2ddfdbcc"
    },
    {
      "constant": false,
      "inputs": [
        {
          "name": "provID",
          "type": "uint256"
        }
      ],
      "name": "stopProviding",
      "outputs": [
        {
          "name": "",
          "type": "bool"
        }
      ],
      "payable": false,
      "stateMutability": "nonpayable",
      "type": "function",
      "signature": "0x15f14e89"
    },
    {
      "constant": false,
      "inputs": [
        {
          "name": "maxTime",
          "type": "uint64"
        },
        {
          "name": "maxTarget",
          "type": "uint16"
        },
        {
          "name": "minPrice",
          "type": "uint64"
        },
        {
          "name": "provID",
          "type": "uint256"
        }
      ],
      "name": "updateProvider",
      "outputs": [
        {
          "name": "",
          "type": "bool"
        }
      ],
      "payable": false,
      "stateMutability": "nonpayable",
      "type": "function",
      "signature": "0xdf4467ab"
    },
    {
      "constant": false,
      "inputs": [
        {
          "name": "time",
          "type": "uint64"
        },
        {
          "name": "target",
          "type": "uint16"
        },
        {
          "name": "price",
          "type": "uint64"
        },
        {
          "name": "dataID",
          "type": "uint64"
        }
      ],
      "name": "startRequest",
      "outputs": [
        {
          "name": "",
          "type": "bytes1"
        }
      ],
      "payable": true,
      "stateMutability": "payable",
      "type": "function",
      "signature": "0x7dbcb1de"
    },
    {
      "constant": false,
      "inputs": [
        {
          "name": "reqID",
          "type": "uint256"
        }
      ],
      "name": "stopRequest",
      "outputs": [
        {
          "name": "",
          "type": "bool"
        }
      ],
      "payable": false,
      "stateMutability": "nonpayable",
      "type": "function",
      "signature": "0x90c0375d"
    },
    {
      "constant": false,
      "inputs": [
        {
          "name": "time",
          "type": "uint64"
        },
        {
          "name": "target",
          "type": "uint16"
        },
        {
          "name": "reqID",
          "type": "uint256"
        }
      ],
      "name": "updateRequest",
      "outputs": [
        {
          "name": "",
          "type": "bool"
        }
      ],
      "payable": true,
      "stateMutability": "payable",
      "type": "function",
      "signature": "0x79a0bb95"
    },
    {
      "constant": false,
      "inputs": [
        {
          "name": "reqID",
          "type": "uint256"
        },
        {
          "name": "resultID",
          "type": "uint64"
        }
      ],
      "name": "completeRequest",
      "outputs": [
        {
          "name": "",
          "type": "bool"
        }
      ],
      "payable": false,
      "stateMutability": "nonpayable",
      "type": "function",
      "signature": "0x375e26f5"
    },
    {
      "constant": false,
      "inputs": [
        {
          "name": "reqID",
          "type": "uint256"
        }
      ],
      "name": "validateRequest",
      "outputs": [
        {
          "name": "",
          "type": "bool"
        }
      ],
      "payable": false,
      "stateMutability": "nonpayable",
      "type": "function",
      "signature": "0xe27d067b"
    },
    {
      "constant": false,
      "inputs": [
        {
          "name": "reqID",
          "type": "uint256"
        },
        {
          "name": "provID",
          "type": "uint256"
        },
        {
          "name": "result",
          "type": "bool"
        }
      ],
      "name": "submitValidation",
      "outputs": [
        {
          "name": "",
          "type": "bool"
        }
      ],
      "payable": false,
      "stateMutability": "nonpayable",
      "type": "function",
      "signature": "0x6fbea121"
    },
    {
      "constant": false,
      "inputs": [
        {
          "name": "reqID",
          "type": "uint256"
        }
      ],
      "name": "checkValidation",
      "outputs": [
        {
          "name": "",
          "type": "bool"
        }
      ],
      "payable": false,
      "stateMutability": "nonpayable",
      "type": "function",
      "signature": "0x7aad0435"
    },
    {
      "constant": true,
      "inputs": [],
      "name": "getMyProvID",
      "outputs": [
        {
          "name": "",
          "type": "uint256[]"
        }
      ],
      "payable": false,
      "stateMutability": "view",
      "type": "function",
      "signature": "0x34a7d799"
    },
    {
      "constant": true,
      "inputs": [],
      "name": "getMyReqID",
      "outputs": [
        {
          "name": "",
          "type": "uint256[]"
        }
      ],
      "payable": false,
      "stateMutability": "view",
      "type": "function",
      "signature": "0x269f3558"
    },
    {
      "constant": true,
      "inputs": [
        {
          "name": "addr",
          "type": "address"
        }
      ],
      "name": "getProviderID",
      "outputs": [
        {
          "name": "",
          "type": "uint256[]"
        }
      ],
      "payable": false,
      "stateMutability": "view",
      "type": "function",
      "signature": "0x91bbb902"
    },
    {
      "constant": true,
      "inputs": [
        {
          "name": "addr",
          "type": "address"
        }
      ],
      "name": "getRequestID",
      "outputs": [
        {
          "name": "",
          "type": "uint256[]"
        }
      ],
      "payable": false,
      "stateMutability": "view",
      "type": "function",
      "signature": "0x62e70505"
    },
    {
      "constant": true,
      "inputs": [
        {
          "name": "ID",
          "type": "uint256"
        }
      ],
      "name": "getProvider",
      "outputs": [
        {
          "components": [
            {
              "name": "provID",
              "type": "uint256"
            },
            {
              "name": "blockNumber",
              "type": "uint256"
            },
            {
              "name": "addr",
              "type": "address"
            },
            {
              "name": "maxTime",
              "type": "uint64"
            },
            {
              "name": "maxTarget",
              "type": "uint16"
            },
            {
              "name": "minPrice",
              "type": "uint256"
            },
            {
              "name": "available",
              "type": "bool"
            }
          ],
          "name": "",
          "type": "tuple"
        }
      ],
      "payable": false,
      "stateMutability": "view",
      "type": "function",
      "signature": "0x5c42d079"
    },
    {
      "constant": true,
      "inputs": [
        {
          "name": "ID",
          "type": "uint256"
        }
      ],
      "name": "getRequest",
      "outputs": [
        {
          "components": [
            {
              "name": "reqID",
              "type": "uint256"
            },
            {
              "name": "blockNumber",
              "type": "uint256"
            },
            {
              "name": "addr",
              "type": "address"
            },
            {
              "name": "provider",
              "type": "address"
            },
            {
              "name": "time",
              "type": "uint64"
            },
            {
              "name": "target",
              "type": "uint16"
            },
            {
              "name": "price",
              "type": "uint256"
            },
            {
              "name": "dataID",
              "type": "uint64"
            },
            {
              "name": "resultID",
              "type": "uint64"
            },
            {
              "name": "numValidations",
              "type": "uint64"
            },
            {
              "name": "signatures",
              "type": "bool[]"
            },
            {
              "name": "validators",
              "type": "uint256[]"
            },
            {
              "name": "isValid",
              "type": "bool"
            },
            {
              "name": "status",
              "type": "bytes1"
            }
          ],
          "name": "",
          "type": "tuple"
        }
      ],
      "payable": false,
      "stateMutability": "view",
      "type": "function",
      "signature": "0xc58343ef"
    },
    {
      "constant": true,
      "inputs": [],
      "name": "getProviderCount",
      "outputs": [
        {
          "name": "",
          "type": "uint256"
        }
      ],
      "payable": false,
      "stateMutability": "view",
      "type": "function",
      "signature": "0x46ce4175"
    },
    {
      "constant": true,
      "inputs": [],
      "name": "getRequestCount",
      "outputs": [
        {
          "name": "",
          "type": "uint256"
        }
      ],
      "payable": false,
      "stateMutability": "view",
      "type": "function",
      "signature": "0x3fad1834"
    },
    {
      "constant": true,
      "inputs": [],
      "name": "getProviderPool",
      "outputs": [
        {
          "name": "",
          "type": "uint256[]"
        }
      ],
      "payable": false,
      "stateMutability": "view",
      "type": "function",
      "signature": "0x9e723b97"
    },
    {
      "constant": true,
      "inputs": [],
      "name": "getPendingPool",
      "outputs": [
        {
          "name": "",
          "type": "uint256[]"
        }
      ],
      "payable": false,
      "stateMutability": "view",
      "type": "function",
      "signature": "0xa9ecaae7"
    },
    {
      "constant": true,
      "inputs": [],
      "name": "getProvidingPool",
      "outputs": [
        {
          "name": "",
          "type": "uint256[]"
        }
      ],
      "payable": false,
      "stateMutability": "view",
      "type": "function",
      "signature": "0x1f1dab45"
    },
    {
      "constant": true,
      "inputs": [],
      "name": "getValidatingPool",
      "outputs": [
        {
          "name": "",
          "type": "uint256[]"
        }
      ],
      "payable": false,
      "stateMutability": "view",
      "type": "function",
      "signature": "0x32c5200d"
    },
    {
      "constant": true,
      "inputs": [],
      "name": "getProviderPoolSize",
      "outputs": [
        {
          "name": "",
          "type": "uint256"
        }
      ],
      "payable": false,
      "stateMutability": "view",
      "type": "function",
      "signature": "0x353b2a1f"
    },
    {
      "constant": true,
      "inputs": [],
      "name": "getPendingPoolSize",
      "outputs": [
        {
          "name": "",
          "type": "uint256"
        }
      ],
      "payable": false,
      "stateMutability": "view",
      "type": "function",
      "signature": "0x53ed38e9"
    },
    {
      "constant": true,
      "inputs": [
        {
          "name": "IDList",
          "type": "uint256[]"
        }
      ],
      "name": "listRequests",
      "outputs": [
        {
          "components": [
            {
              "name": "reqID",
              "type": "uint256"
            },
            {
              "name": "blockNumber",
              "type": "uint256"
            },
            {
              "name": "addr",
              "type": "address"
            },
            {
              "name": "provider",
              "type": "address"
            },
            {
              "name": "time",
              "type": "uint64"
            },
            {
              "name": "target",
              "type": "uint16"
            },
            {
              "name": "price",
              "type": "uint256"
            },
            {
              "name": "dataID",
              "type": "uint64"
            },
            {
              "name": "resultID",
              "type": "uint64"
            },
            {
              "name": "numValidations",
              "type": "uint64"
            },
            {
              "name": "signatures",
              "type": "bool[]"
            },
            {
              "name": "validators",
              "type": "uint256[]"
            },
            {
              "name": "isValid",
              "type": "bool"
            },
            {
              "name": "status",
              "type": "bytes1"
            }
          ],
          "name": "",
          "type": "tuple[50]"
        }
      ],
      "payable": false,
      "stateMutability": "view",
      "type": "function",
      "signature": "0x0c9a90a3"
    },
    {
      "constant": true,
      "inputs": [
        {
          "name": "IDList",
          "type": "uint256[]"
        }
      ],
      "name": "listProviders",
      "outputs": [
        {
          "components": [
            {
              "name": "provID",
              "type": "uint256"
            },
            {
              "name": "blockNumber",
              "type": "uint256"
            },
            {
              "name": "addr",
              "type": "address"
            },
            {
              "name": "maxTime",
              "type": "uint64"
            },
            {
              "name": "maxTarget",
              "type": "uint16"
            },
            {
              "name": "minPrice",
              "type": "uint256"
            },
            {
              "name": "available",
              "type": "bool"
            }
          ],
          "name": "",
          "type": "tuple[50]"
        }
      ],
      "payable": false,
      "stateMutability": "view",
      "type": "function",
      "signature": "0xcac1125b"
    },
    {
      "constant": true,
      "inputs": [],
      "name": "listAllRequests",
      "outputs": [
        {
          "components": [
            {
              "name": "reqID",
              "type": "uint256"
            },
            {
              "name": "blockNumber",
              "type": "uint256"
            },
            {
              "name": "addr",
              "type": "address"
            },
            {
              "name": "provider",
              "type": "address"
            },
            {
              "name": "time",
              "type": "uint64"
            },
            {
              "name": "target",
              "type": "uint16"
            },
            {
              "name": "price",
              "type": "uint256"
            },
            {
              "name": "dataID",
              "type": "uint64"
            },
            {
              "name": "resultID",
              "type": "uint64"
            },
            {
              "name": "numValidations",
              "type": "uint64"
            },
            {
              "name": "signatures",
              "type": "bool[]"
            },
            {
              "name": "validators",
              "type": "uint256[]"
            },
            {
              "name": "isValid",
              "type": "bool"
            },
            {
              "name": "status",
              "type": "bytes1"
            }
          ],
          "name": "",
          "type": "tuple[50]"
        }
      ],
      "payable": false,
      "stateMutability": "view",
      "type": "function",
      "signature": "0xc02ac059"
    },
    {
      "constant": true,
      "inputs": [],
      "name": "listAllProviders",
      "outputs": [
        {
          "components": [
            {
              "name": "provID",
              "type": "uint256"
            },
            {
              "name": "blockNumber",
              "type": "uint256"
            },
            {
              "name": "addr",
              "type": "address"
            },
            {
              "name": "maxTime",
              "type": "uint64"
            },
            {
              "name": "maxTarget",
              "type": "uint16"
            },
            {
              "name": "minPrice",
              "type": "uint256"
            },
            {
              "name": "available",
              "type": "bool"
            }
          ],
          "name": "",
          "type": "tuple[50]"
        }
      ],
      "payable": false,
      "stateMutability": "view",
      "type": "function",
      "signature": "0x6302d071"
    }
  ],
  "bytecode": "0x608060405260016000806101000a81548160ff0219169083151502179055506001600060016101000a81548160ff02191690831515021790555060008060026101000a81548160ff0219169083151502179055503480156200006057600080fd5b5060086000620000719190620000b7565b60096000620000819190620000b7565b600a6000620000919190620000b7565b600c6000620000a19190620000b7565b6000600681905550600060078190555062000102565b5080546000825590600052602060002090810190620000d79190620000da565b50565b620000ff91905b80821115620000fb576000816000905550600101620000e1565b5090565b90565b614a5780620001126000396000f3fe60806040526004361061019b576000357c01000000000000000000000000000000000000000000000000000000009004806302e9d43b146101a05780630c9a90a3146101e857806315f14e89146102255780631f1dab4514610262578063269f35581461028d5780632ddfdbcc146102b857806332c5200d146102f557806334a7d79914610320578063353b2a1f1461034b578063375e26f514610376578063390bfd3c146103b35780633fad1834146103f657806346ce41751461042157806353ed38e91461044c578063599b6808146104775780635c42d079146104b457806362e70505146104f15780636302d0711461052e5780636fbea1211461055957806379a0bb95146105965780637aad0435146105c65780637dbcb1de1461060357806390c0375d1461063357806391bbb902146106705780639e723b97146106ad578063a9ecaae7146106d8578063c02ac05914610703578063c58343ef1461072e578063cac1125b1461076b578063d2d5d74f146107a8578063d3cca02e146107e5578063df4467ab14610822578063e27d067b1461085f575b600080fd5b3480156101ac57600080fd5b506101c760048036036101c2919081019061383a565b61089c565b6040516101df9c9b9a9998979695949392919061470c565b60405180910390f35b3480156101f457600080fd5b5061020f600480360361020a91908101906137f9565b6109d3565b60405161021c91906142da565b60405180910390f35b34801561023157600080fd5b5061024c6004803603610247919081019061383a565b610a5d565b604051610259919061431e565b60405180910390f35b34801561026e57600080fd5b50610277610be3565b60405161028491906142fc565b60405180910390f35b34801561029957600080fd5b506102a2610c3b565b6040516102af91906142fc565b60405180910390f35b3480156102c457600080fd5b506102df60048036036102da919081019061393d565b610cd0565b6040516102ec9190614339565b60405180910390f35b34801561030157600080fd5b5061030a610f45565b60405161031791906142fc565b60405180910390f35b34801561032c57600080fd5b50610335610f9d565b60405161034291906142fc565b60405180910390f35b34801561035757600080fd5b50610360611032565b60405161036d9190614391565b60405180910390f35b34801561038257600080fd5b5061039d600480360361039891908101906138b2565b61103f565b6040516103aa919061431e565b60405180910390f35b3480156103bf57600080fd5b506103da60048036036103d5919081019061383a565b611250565b6040516103ed97969594939291906147c6565b60405180910390f35b34801561040257600080fd5b5061040b6112e1565b6040516104189190614391565b60405180910390f35b34801561042d57600080fd5b506104366112eb565b6040516104439190614391565b60405180910390f35b34801561045857600080fd5b506104616112f5565b60405161046e9190614391565b60405180910390f35b34801561048357600080fd5b5061049e6004803603610499919081019061383a565b611302565b6040516104ab9190614391565b60405180910390f35b3480156104c057600080fd5b506104db60048036036104d6919081019061383a565b61131a565b6040516104e89190614354565b60405180910390f35b3480156104fd57600080fd5b5061051860048036036105139190810190613794565b611429565b60405161052591906142fc565b60405180910390f35b34801561053a57600080fd5b506105436114c0565b60405161055091906142be565b60405180910390f35b34801561056557600080fd5b50610580600480360361057b9190810190613863565b611532565b60405161058d919061431e565b60405180910390f35b6105b060048036036105ab91908101906138ee565b6117be565b6040516105bd919061431e565b60405180910390f35b3480156105d257600080fd5b506105ed60048036036105e8919081019061383a565b6119f4565b6040516105fa919061431e565b60405180910390f35b61061d600480360361061891908101906139ef565b611bb0565b60405161062a9190614339565b60405180910390f35b34801561063f57600080fd5b5061065a6004803603610655919081019061383a565b611ee6565b604051610667919061431e565b60405180910390f35b34801561067c57600080fd5b5061069760048036036106929190810190613794565b6120ff565b6040516106a491906142fc565b60405180910390f35b3480156106b957600080fd5b506106c2612196565b6040516106cf91906142fc565b60405180910390f35b3480156106e457600080fd5b506106ed6121ee565b6040516106fa91906142fc565b60405180910390f35b34801561070f57600080fd5b50610718612246565b60405161072591906142da565b60405180910390f35b34801561073a57600080fd5b506107556004803603610750919081019061383a565b6122b8565b604051610762919061436f565b60405180910390f35b34801561077757600080fd5b50610792600480360361078d91908101906137f9565b612603565b60405161079f91906142be565b60405180910390f35b3480156107b457600080fd5b506107cf60048036036107ca91908101906137bd565b61268d565b6040516107dc9190614391565b60405180910390f35b3480156107f157600080fd5b5061080c600480360361080791908101906137bd565b6126bd565b6040516108199190614391565b60405180910390f35b34801561082e57600080fd5b506108496004803603610844919081019061398c565b6126ed565b604051610856919061431e565b60405180910390f35b34801561086b57600080fd5b506108866004803603610881919081019061383a565b6128d4565b604051610893919061431e565b60405180910390f35b60026020528060005260406000206000915090508060000154908060010154908060020160009054906101000a900473ffffffffffffffffffffffffffffffffffffffff16908060030160009054906101000a900473ffffffffffffffffffffffffffffffffffffffff16908060030160149054906101000a900467ffffffffffffffff169080600301601c9054906101000a900461ffff16908060040154908060050160009054906101000a900467ffffffffffffffff16908060050160089054906101000a900467ffffffffffffffff16908060050160109054906101000a900467ffffffffffffffff16908060080160009054906101000a900460ff16908060080160019054906101000a90047f01000000000000000000000000000000000000000000000000000000000000000290508c565b6109db61335c565b6109e361335c565b60008090505b83518167ffffffffffffffff161015610a5357610a26848267ffffffffffffffff16815181101515610a1757fe5b906020019060200201516122b8565b828267ffffffffffffffff16603281101515610a3e57fe5b602002018190525080806001019150506109e9565b5080915050919050565b60008060009050600115156001600085815260200190815260200160002060040160009054906101000a900460ff161515148015610afc57503373ffffffffffffffffffffffffffffffffffffffff166001600085815260200190815260200160002060020160009054906101000a900473ffffffffffffffffffffffffffffffffffffffff1673ffffffffffffffffffffffffffffffffffffffff16145b15610b8d57610b49600360003373ffffffffffffffffffffffffffffffffffffffff1673ffffffffffffffffffffffffffffffffffffffff16815260200190815260200160002084612c22565b9050610b56600884612c22565b8015610b5f5750805b9050600015156001600085815260200190815260200160002060040160009054906101000a90505050610b97565b6000915050610bde565b8015610bd9577fa4c4c871d43d81be54f69ce74ea5bc289663a3cdf402d09baf09407085be023160065433604051610bd0929190614514565b60405180910390a15b809150505b919050565b6060600a805480602002602001604051908101604052809291908181526020018280548015610c3157602002820191906000526020600020905b815481526020019060010190808311610c1d575b5050505050905090565b6060600460003373ffffffffffffffffffffffffffffffffffffffff1673ffffffffffffffffffffffffffffffffffffffff168152602001908152602001600020805480602002602001604051908101604052809291908181526020018280548015610cc657602002820191906000526020600020905b815481526020019060010190808311610cb2575b5050505050905090565b60006006546001600060065481526020019081526020016000206000018190555043600160006006548152602001908152602001600020600101819055503360016000600654815260200190815260200160002060020160006101000a81548173ffffffffffffffffffffffffffffffffffffffff021916908373ffffffffffffffffffffffffffffffffffffffff1602179055508360016000600654815260200190815260200160002060020160146101000a81548167ffffffffffffffff021916908367ffffffffffffffff16021790555082600160006006548152602001908152602001600020600201601c6101000a81548161ffff021916908361ffff1602179055508167ffffffffffffffff1660016000600654815260200190815260200160002060030181905550600360003373ffffffffffffffffffffffffffffffffffffffff1673ffffffffffffffffffffffffffffffffffffffff1681526020019081526020016000206006549080600181540180825580915050906001820390600052602060002001600090919290919091505550600860065490806001815401808255809150509060018203906000526020600020016000909192909190915055506001806000600654815260200190815260200160002060040160006101000a81548160ff0219169083151502179055507fa4c4c871d43d81be54f69ce74ea5bc289663a3cdf402d09baf09407085be023160065433604051610efa9291906144d8565b60405180910390a16006600081548092919060010191905055506000809054906101000a900460ff1615610f3d57610f36600160065403612d0b565b9050610f3e565b5b9392505050565b6060600c805480602002602001604051908101604052809291908181526020018280548015610f9357602002820191906000526020600020905b815481526020019060010190808311610f7f575b5050505050905090565b6060600360003373ffffffffffffffffffffffffffffffffffffffff1673ffffffffffffffffffffffffffffffffffffffff16815260200190815260200160002080548060200260200160405190810160405280929190818152602001828054801561102857602002820191906000526020600020905b815481526020019060010190808311611014575b5050505050905090565b6000600880549050905090565b60006002600084815260200190815260200160002060030160009054906101000a900473ffffffffffffffffffffffffffffffffffffffff1673ffffffffffffffffffffffffffffffffffffffff163373ffffffffffffffffffffffffffffffffffffffff161415611245577f32000000000000000000000000000000000000000000000000000000000000006002600085815260200190815260200160002060080160016101000a81548160ff02191690837f010000000000000000000000000000000000000000000000000000000000000090040217905550816002600085815260200190815260200160002060050160086101000a81548167ffffffffffffffff021916908367ffffffffffffffff1602179055506000809050611167600a85612c22565b905080151561117a57600091505061124a565b600c8490806001815401808255809150509060018203906000526020600020016000909192909190915055507fa4c4c871d43d81be54f69ce74ea5bc289663a3cdf402d09baf09407085be0231846002600087815260200190815260200160002060020160009054906101000a900473ffffffffffffffffffffffffffffffffffffffff1660405161120d92919061449c565b60405180910390a1600060019054906101000a900460ff161561123b57611233846128d4565b91505061124a565b600191505061124a565b600090505b92915050565b60016020528060005260406000206000915090508060000154908060010154908060020160009054906101000a900473ffffffffffffffffffffffffffffffffffffffff16908060020160149054906101000a900467ffffffffffffffff169080600201601c9054906101000a900461ffff16908060030154908060040160009054906101000a900460ff16905087565b6000600754905090565b6000600654905090565b6000600980549050905090565b60056020528060005260406000206000915090505481565b61132261338b565b6001600083815260200190815260200160002060e0604051908101604052908160008201548152602001600182015481526020016002820160009054906101000a900473ffffffffffffffffffffffffffffffffffffffff1673ffffffffffffffffffffffffffffffffffffffff1673ffffffffffffffffffffffffffffffffffffffff1681526020016002820160149054906101000a900467ffffffffffffffff1667ffffffffffffffff1667ffffffffffffffff16815260200160028201601c9054906101000a900461ffff1661ffff1661ffff168152602001600382015481526020016004820160009054906101000a900460ff1615151515815250509050919050565b6060600460008373ffffffffffffffffffffffffffffffffffffffff1673ffffffffffffffffffffffffffffffffffffffff1681526020019081526020016000208054806020026020016040519081016040528092919081815260200182805480156114b457602002820191906000526020600020905b8154815260200190600101908083116114a0575b50505050509050919050565b6114c86133ef565b6114d06133ef565b60008090505b6006548167ffffffffffffffff16101561152a576114fd8167ffffffffffffffff1661131a565b828267ffffffffffffffff1660328110151561151557fe5b602002018190525080806001019150506114d6565b508091505090565b60006002600085815260200190815260200160002060030160009054906101000a900473ffffffffffffffffffffffffffffffffffffffff1673ffffffffffffffffffffffffffffffffffffffff163373ffffffffffffffffffffffffffffffffffffffff161415156116925760026000858152602001908152602001600020600701600360003373ffffffffffffffffffffffffffffffffffffffff1673ffffffffffffffffffffffffffffffffffffffff168152602001908152602001600020600081548110151561160257fe5b906000526020600020015490806001815401808255809150509060018203906000526020600020016000909192909190915055506002600085815260200190815260200160002060060182908060018154018082558091505090600182039060005260206000209060209182820401919006909192909190916101000a81548160ff021916908315150217905550505b7fc4f678ebfd7e29fd2b410c08e9adcef6a55d52ee8c9b379f90cb334d18438668846002600087815260200190815260200160002060020160009054906101000a900473ffffffffffffffffffffffffffffffffffffffff16856001600088815260200190815260200160002060020160009054906101000a900473ffffffffffffffffffffffffffffffffffffffff1660405161173394939291906146b4565b60405180910390a16002600085815260200190815260200160002060050160109054906101000a900467ffffffffffffffff1667ffffffffffffffff16600260008681526020019081526020016000206007018054905014156117b657600060029054906101000a900460ff16156117b5576117ae846119f4565b90506117b7565b5b5b9392505050565b600080600090506117d0600984612c22565b905080801561186257507f30000000000000000000000000000000000000000000000000000000000000006002600085815260200190815260200160002060080160019054906101000a90047f0100000000000000000000000000000000000000000000000000000000000000027effffffffffffffffffffffffffffffffffffffffffffffffffffffffffffff1916145b80156118cf57503373ffffffffffffffffffffffffffffffffffffffff166002600085815260200190815260200160002060020160009054906101000a900473ffffffffffffffffffffffffffffffffffffffff1673ffffffffffffffffffffffffffffffffffffffff16145b156119e757436002600085815260200190815260200160002060010181905550846002600085815260200190815260200160002060030160146101000a81548167ffffffffffffffff021916908367ffffffffffffffff1602179055508360026000858152602001908152602001600020600301601c6101000a81548161ffff021916908361ffff16021790555034600260008581526020019081526020016000206004018190555060098390806001815401808255809150509060018203906000526020600020016000909192909190915055507fa4c4c871d43d81be54f69ce74ea5bc289663a3cdf402d09baf09407085be023183336040516119d5929190614424565b60405180910390a160019150506119ed565b60009150505b9392505050565b60008060009050600080905060008090505b60026000868152602001908152602001600020600701805490508167ffffffffffffffff161015611aa05760011515600260008781526020019081526020016000206006018267ffffffffffffffff16815481101515611a6257fe5b90600052602060002090602091828204019190069054906101000a900460ff1615151415611a935781806001019250505b8080600101915050611a06565b506002600085815260200190815260200160002060050160109054906101000a900467ffffffffffffffff1667ffffffffffffffff168167ffffffffffffffff16101515611b205760016002600086815260200190815260200160002060080160006101000a81548160ff02191690831515021790555060019150611b21565b5b7fa4c4c871d43d81be54f69ce74ea5bc289663a3cdf402d09baf09407085be0231846002600087815260200190815260200160002060020160009054906101000a900473ffffffffffffffffffffffffffffffffffffffff16604051611b8892919061458c565b60405180910390a1818015611ba45750611ba3600c85612c22565b5b91508192505050919050565b60006007546002600060075481526020019081526020016000206000018190555043600260006007548152602001908152602001600020600101819055503360026000600754815260200190815260200160002060020160006101000a81548173ffffffffffffffffffffffffffffffffffffffff021916908373ffffffffffffffffffffffffffffffffffffffff1602179055508460026000600754815260200190815260200160002060030160146101000a81548167ffffffffffffffff021916908367ffffffffffffffff16021790555083600260006007548152602001908152602001600020600301601c6101000a81548161ffff021916908361ffff1602179055508267ffffffffffffffff16600260006007548152602001908152602001600020600401819055508160026000600754815260200190815260200160002060050160006101000a81548167ffffffffffffffff021916908367ffffffffffffffff160217905550600160026000600754815260200190815260200160002060050160106101000a81548167ffffffffffffffff021916908367ffffffffffffffff160217905550600460003373ffffffffffffffffffffffffffffffffffffffff1673ffffffffffffffffffffffffffffffffffffffff1681526020019081526020016000206007549080600181540180825580915050906001820390600052602060002001600090919290919091505550600960075490806001815401808255809150509060018203906000526020600020016000909192909190915055507f300000000000000000000000000000000000000000000000000000000000000060026000600754815260200190815260200160002060080160016101000a81548160ff02191690837f0100000000000000000000000000000000000000000000000000000000000000900402179055507fa4c4c871d43d81be54f69ce74ea5bc289663a3cdf402d09baf09407085be023160075433604051611e9a9291906145c8565b60405180910390a16007600081548092919060010191905055506000809054906101000a900460ff1615611edd57611ed6600160075403612ed7565b9050611ede565b5b949350505050565b600080600090507f30000000000000000000000000000000000000000000000000000000000000006002600085815260200190815260200160002060080160019054906101000a90047f0100000000000000000000000000000000000000000000000000000000000000027effffffffffffffffffffffffffffffffffffffffffffffffffffffffffffff1916148015611fe157503373ffffffffffffffffffffffffffffffffffffffff166002600085815260200190815260200160002060020160009054906101000a900473ffffffffffffffffffffffffffffffffffffffff1673ffffffffffffffffffffffffffffffffffffffff16145b156120b65761202e600460003373ffffffffffffffffffffffffffffffffffffffff1673ffffffffffffffffffffffffffffffffffffffff16815260200190815260200160002084612c22565b905061203b600984612c22565b80156120445750805b90507f37000000000000000000000000000000000000000000000000000000000000006002600085815260200190815260200160002060080160016101000a81548160ff02191690837f0100000000000000000000000000000000000000000000000000000000000000900402179055505b80156120f6577fa4c4c871d43d81be54f69ce74ea5bc289663a3cdf402d09baf09407085be023183336040516120ed929190614460565b60405180910390a15b80915050919050565b6060600360008373ffffffffffffffffffffffffffffffffffffffff1673ffffffffffffffffffffffffffffffffffffffff16815260200190815260200160002080548060200260200160405190810160405280929190818152602001828054801561218a57602002820191906000526020600020905b815481526020019060010190808311612176575b50505050509050919050565b606060088054806020026020016040519081016040528092919081815260200182805480156121e457602002820191906000526020600020905b8154815260200190600101908083116121d0575b5050505050905090565b6060600980548060200260200160405190810160405280929190818152602001828054801561223c57602002820191906000526020600020905b815481526020019060010190808311612228575b5050505050905090565b61224e61335c565b61225661335c565b60008090505b6007548167ffffffffffffffff1610156122b0576122838167ffffffffffffffff166122b8565b828267ffffffffffffffff1660328110151561229b57fe5b6020020181905250808060010191505061225c565b508091505090565b6122c061341e565b600260008381526020019081526020016000206101c0604051908101604052908160008201548152602001600182015481526020016002820160009054906101000a900473ffffffffffffffffffffffffffffffffffffffff1673ffffffffffffffffffffffffffffffffffffffff1673ffffffffffffffffffffffffffffffffffffffff1681526020016003820160009054906101000a900473ffffffffffffffffffffffffffffffffffffffff1673ffffffffffffffffffffffffffffffffffffffff1673ffffffffffffffffffffffffffffffffffffffff1681526020016003820160149054906101000a900467ffffffffffffffff1667ffffffffffffffff1667ffffffffffffffff16815260200160038201601c9054906101000a900461ffff1661ffff1661ffff168152602001600482015481526020016005820160009054906101000a900467ffffffffffffffff1667ffffffffffffffff1667ffffffffffffffff1681526020016005820160089054906101000a900467ffffffffffffffff1667ffffffffffffffff1667ffffffffffffffff1681526020016005820160109054906101000a900467ffffffffffffffff1667ffffffffffffffff1667ffffffffffffffff1681526020016006820180548060200260200160405190810160405280929190818152602001828054801561250657602002820191906000526020600020906000905b82829054906101000a900460ff161515815260200190600101906020826000010492830192600103820291508084116124d05790505b505050505081526020016007820180548060200260200160405190810160405280929190818152602001828054801561255e57602002820191906000526020600020905b81548152602001906001019080831161254a575b505050505081526020016008820160009054906101000a900460ff161515151581526020016008820160019054906101000a90047f0100000000000000000000000000000000000000000000000000000000000000027effffffffffffffffffffffffffffffffffffffffffffffffffffffffffffff19167effffffffffffffffffffffffffffffffffffffffffffffffffffffffffffff1916815250509050919050565b61260b6133ef565b6126136133ef565b60008090505b83518167ffffffffffffffff16101561268357612656848267ffffffffffffffff1681518110151561264757fe5b9060200190602002015161131a565b828267ffffffffffffffff1660328110151561266e57fe5b60200201819052508080600101915050612619565b5080915050919050565b6003602052816000526040600020818154811015156126a857fe5b90600052602060002001600091509150505481565b6004602052816000526040600020818154811015156126d857fe5b90600052602060002001600091509150505481565b600080600090506126ff600884612c22565b90508080156127355750600115156001600085815260200190815260200160002060040160009054906101000a900460ff161515145b80156127a257503373ffffffffffffffffffffffffffffffffffffffff166001600085815260200190815260200160002060020160009054906101000a900473ffffffffffffffffffffffffffffffffffffffff1673ffffffffffffffffffffffffffffffffffffffff16145b156128c657436001600085815260200190815260200160002060010181905550856001600085815260200190815260200160002060020160146101000a81548167ffffffffffffffff021916908367ffffffffffffffff1602179055508460016000858152602001908152602001600020600201601c6101000a81548161ffff021916908361ffff1602179055508367ffffffffffffffff16600160008581526020019081526020016000206003018190555060088390806001815401808255809150509060018203906000526020600020016000909192909190915055507fa4c4c871d43d81be54f69ce74ea5bc289663a3cdf402d09baf09407085be0231600654336040516128b49291906143e8565b60405180910390a160019150506128cc565b60009150505b949350505050565b6000806002600084815260200190815260200160002060050160109054906101000a900467ffffffffffffffff169050600080905060008090505b6008805490508167ffffffffffffffff161015612baa57600060088267ffffffffffffffff1681548110151561294157fe5b906000526020600020015490506002600087815260200190815260200160002060030160009054906101000a900473ffffffffffffffffffffffffffffffffffffffff1673ffffffffffffffffffffffffffffffffffffffff166001600083815260200190815260200160002060020160009054906101000a900473ffffffffffffffffffffffffffffffffffffffff1673ffffffffffffffffffffffffffffffffffffffff16141515612af9577fc4f678ebfd7e29fd2b410c08e9adcef6a55d52ee8c9b379f90cb334d18438668866002600089815260200190815260200160002060020160009054906101000a900473ffffffffffffffffffffffffffffffffffffffff16836001600086815260200190815260200160002060020160009054906101000a900473ffffffffffffffffffffffffffffffffffffffff16604051612a90949392919061465c565b60405180910390a1828060010193505060006001600083815260200190815260200160002060040160006101000a81548160ff0219169083151502179055506000612adc600883612c22565b9050801515612af357600095505050505050612c1d565b50612aff565b50612b9d565b8367ffffffffffffffff168367ffffffffffffffff161015612b215750612b9d565b7fa4c4c871d43d81be54f69ce74ea5bc289663a3cdf402d09baf09407085be0231866002600089815260200190815260200160002060020160009054906101000a900473ffffffffffffffffffffffffffffffffffffffff16604051612b889291906143ac565b60405180910390a16001945050505050612c1d565b808060010191505061290f565b507fa4c4c871d43d81be54f69ce74ea5bc289663a3cdf402d09baf09407085be0231846002600087815260200190815260200160002060020160009054906101000a900473ffffffffffffffffffffffffffffffffffffffff16604051612c12929190614550565b60405180910390a150505b919050565b600080600090505b83805490508167ffffffffffffffff161015612cff5782848267ffffffffffffffff16815481101515612c5957fe5b90600052602060002001541415612cf257836001858054905003815481101515612c7f57fe5b9060005260206000200154848267ffffffffffffffff16815481101515612ca257fe5b9060005260206000200181905550836001858054905003815481101515612cc557fe5b906000526020600020016000905583805480919060019003612ce7919061350a565b506001915050612d05565b8080600101915050612c2a565b50600090505b92915050565b6000806009805490501415612d42577f32000000000000000000000000000000000000000000000000000000000000009050612ed2565b60008090505b6009805490508167ffffffffffffffff161015612ead57600060098267ffffffffffffffff16815481101515612d7a57fe5b906000526020600020015490506001600085815260200190815260200160002060020160149054906101000a900467ffffffffffffffff1667ffffffffffffffff166002600083815260200190815260200160002060030160149054906101000a900467ffffffffffffffff1667ffffffffffffffff1611158015612e4f575060016000858152602001908152602001600020600201601c9054906101000a900461ffff1661ffff1660026000838152602001908152602001600020600301601c9054906101000a900461ffff1661ffff1611155b8015612e8757506001600085815260200190815260200160002060030154600260008381526020019081526020016000206004015410155b15612e9f57612e9681856130a3565b92505050612ed2565b508080600101915050612d48565b507f310000000000000000000000000000000000000000000000000000000000000090505b919050565b6000806008805490501415612f0e577f3200000000000000000000000000000000000000000000000000000000000000905061309e565b60008090505b6008805490508167ffffffffffffffff16101561307957600060088267ffffffffffffffff16815481101515612f4657fe5b906000526020600020015490506001600082815260200190815260200160002060020160149054906101000a900467ffffffffffffffff1667ffffffffffffffff166002600086815260200190815260200160002060030160149054906101000a900467ffffffffffffffff1667ffffffffffffffff161115801561301b575060016000828152602001908152602001600020600201601c9054906101000a900461ffff1661ffff1660026000868152602001908152602001600020600301601c9054906101000a900461ffff1661ffff1611155b801561305357506001600082815260200190815260200160002060030154600260008681526020019081526020016000206004015410155b1561306b5761306284826130a3565b9250505061309e565b508080600101915050612f14565b507f310000000000000000000000000000000000000000000000000000000000000090505b919050565b6000806001600084815260200190815260200160002060040160006101000a81548160ff0219169083151502179055506001600083815260200190815260200160002060020160009054906101000a900473ffffffffffffffffffffffffffffffffffffffff166002600085815260200190815260200160002060030160006101000a81548173ffffffffffffffffffffffffffffffffffffffff021916908373ffffffffffffffffffffffffffffffffffffffff1602179055507f31000000000000000000000000000000000000000000000000000000000000006002600085815260200190815260200160002060080160016101000a81548160ff02191690837f01000000000000000000000000000000000000000000000000000000000000009004021790555060008090506131dd600985612c22565b90506131ea600884612c22565b80156131f35750805b9050801515613225577f3300000000000000000000000000000000000000000000000000000000000000915050613356565b600a849080600181540180825580915050906001820390600052602060002001600090919290919091505550600260008581526020019081526020016000206004015460056000868152602001908152602001600020600082825401925050819055507fc4f678ebfd7e29fd2b410c08e9adcef6a55d52ee8c9b379f90cb334d18438668846002600087815260200190815260200160002060020160009054906101000a900473ffffffffffffffffffffffffffffffffffffffff16856001600088815260200190815260200160002060020160009054906101000a900473ffffffffffffffffffffffffffffffffffffffff166040516133299493929190614604565b60405180910390a17f30000000000000000000000000000000000000000000000000000000000000009150505b92915050565b615780604051908101604052806032905b613375613536565b81526020019060019003908161336d5790505090565b60e0604051908101604052806000815260200160008152602001600073ffffffffffffffffffffffffffffffffffffffff168152602001600067ffffffffffffffff168152602001600061ffff168152602001600081526020016000151581525090565b612bc0604051908101604052806032905b613408613622565b8152602001906001900390816134005790505090565b6101c0604051908101604052806000815260200160008152602001600073ffffffffffffffffffffffffffffffffffffffff168152602001600073ffffffffffffffffffffffffffffffffffffffff168152602001600067ffffffffffffffff168152602001600061ffff16815260200160008152602001600067ffffffffffffffff168152602001600067ffffffffffffffff168152602001600067ffffffffffffffff168152602001606081526020016060815260200160001515815260200160007effffffffffffffffffffffffffffffffffffffffffffffffffffffffffffff191681525090565b815481835581811115613531578183600052602060002091820191016135309190613686565b5b505050565b6101c0604051908101604052806000815260200160008152602001600073ffffffffffffffffffffffffffffffffffffffff168152602001600073ffffffffffffffffffffffffffffffffffffffff168152602001600067ffffffffffffffff168152602001600061ffff16815260200160008152602001600067ffffffffffffffff168152602001600067ffffffffffffffff168152602001600067ffffffffffffffff168152602001606081526020016060815260200160001515815260200160007effffffffffffffffffffffffffffffffffffffffffffffffffffffffffffff191681525090565b60e0604051908101604052806000815260200160008152602001600073ffffffffffffffffffffffffffffffffffffffff168152602001600067ffffffffffffffff168152602001600061ffff168152602001600081526020016000151581525090565b6136a891905b808211156136a457600081600090555060010161368c565b5090565b90565b60006136b782356149d3565b905092915050565b600082601f83011215156136d257600080fd5b81356136e56136e082614862565b614835565b9150818183526020840193506020810190508385602084028201111561370a57600080fd5b60005b8381101561373a5781613720888261376c565b84526020840193506020830192505060018101905061370d565b5050505092915050565b600061375082356149e5565b905092915050565b600061376482356149f1565b905092915050565b600061377882356149ff565b905092915050565b600061378c8235614a09565b905092915050565b6000602082840312156137a657600080fd5b60006137b4848285016136ab565b91505092915050565b600080604083850312156137d057600080fd5b60006137de858286016136ab565b92505060206137ef8582860161376c565b9150509250929050565b60006020828403121561380b57600080fd5b600082013567ffffffffffffffff81111561382557600080fd5b613831848285016136bf565b91505092915050565b60006020828403121561384c57600080fd5b600061385a8482850161376c565b91505092915050565b60008060006060848603121561387857600080fd5b60006138868682870161376c565b93505060206138978682870161376c565b92505060406138a886828701613744565b9150509250925092565b600080604083850312156138c557600080fd5b60006138d38582860161376c565b92505060206138e485828601613780565b9150509250929050565b60008060006060848603121561390357600080fd5b600061391186828701613780565b935050602061392286828701613758565b92505060406139338682870161376c565b9150509250925092565b60008060006060848603121561395257600080fd5b600061396086828701613780565b935050602061397186828701613758565b925050604061398286828701613780565b9150509250925092565b600080600080608085870312156139a257600080fd5b60006139b087828801613780565b94505060206139c187828801613758565b93505060406139d287828801613780565b92505060606139e38782880161376c565b91505092959194509250565b60008060008060808587031215613a0557600080fd5b6000613a1387828801613780565b9450506020613a2487828801613758565b9350506040613a3587828801613780565b9250506060613a4687828801613780565b91505092959194509250565b613a5b8161493d565b82525050565b6000613a6c826148c5565b808452602084019350613a7e8361488a565b60005b82811015613ab057613a94868351613c22565b613a9d826148fc565b9150602086019550600181019050613a81565b50849250505092915050565b613ac5816148d0565b613ace82614897565b60005b82811015613b0057613ae4858351613f99565b613aed82614909565b915060e085019450600181019050613ad1565b5050505050565b6000613b12826148db565b83602082028501613b22856148a1565b60005b84811015613b5b578383038852613b3d83835161415c565b9250613b4882614916565b9150602088019750600181019050613b25565b508196508694505050505092915050565b6000613b77826148f1565b808452602084019350613b89836148b8565b60005b82811015613bbb57613b9f8683516142a0565b613ba882614930565b9150602086019550600181019050613b8c565b50849250505092915050565b6000613bd2826148e6565b808452602084019350613be4836148ab565b60005b82811015613c1657613bfa8683516142a0565b613c0382614923565b9150602086019550600181019050613be7565b50849250505092915050565b613c2b8161494f565b82525050565b613c3a8161495b565b82525050565b6000601182527f456e6f7567682056616c696461746f72730000000000000000000000000000006020830152604082019050919050565b6000601082527f50726f76696465722055706461746564000000000000000000000000000000006020830152604082019050919050565b6000601c82527f526571756573742041737369676e656420746f2050726f7669646572000000006020830152604082019050919050565b6000600f82527f52657175657374205570646174656400000000000000000000000000000000006020830152604082019050919050565b6000601f82527f56616c69646174696f6e2041737369676e656420746f2050726f7669646572006020830152604082019050919050565b6000600f82527f526571756573742053746f7070656400000000000000000000000000000000006020830152604082019050919050565b6000601d82527f5265717565737420436f6d7075746174696f6e20436f6d706c657465640000006020830152604082019050919050565b6000600e82527f50726f76696465722041646465640000000000000000000000000000000000006020830152604082019050919050565b6000601082527f50726f76696465722053746f70706564000000000000000000000000000000006020830152604082019050919050565b6000601082527f56616c696461746f72205369676e6564000000000000000000000000000000006020830152604082019050919050565b6000601582527f4e6f7420456e6f7567682056616c696461746f727300000000000000000000006020830152604082019050919050565b6000601382527f56616c69646174696f6e20436f6d706c657465000000000000000000000000006020830152604082019050919050565b6000600d82527f52657175657374204164646564000000000000000000000000000000000000006020830152604082019050919050565b60e082016000820151613f2160008501826142a0565b506020820151613f3460208501826142a0565b506040820151613f476040850182613a52565b506060820151613f5a60608501826142af565b506080820151613f6d6080850182614291565b5060a0820151613f8060a08501826142a0565b5060c0820151613f9360c0850182613c22565b50505050565b60e082016000820151613faf60008501826142a0565b506020820151613fc260208501826142a0565b506040820151613fd56040850182613a52565b506060820151613fe860608501826142af565b506080820151613ffb6080850182614291565b5060a082015161400e60a08501826142a0565b5060c082015161402160c0850182613c22565b50505050565b60006101c08301600083015161404060008601826142a0565b50602083015161405360208601826142a0565b5060408301516140666040860182613a52565b5060608301516140796060860182613a52565b50608083015161408c60808601826142af565b5060a083015161409f60a0860182614291565b5060c08301516140b260c08601826142a0565b5060e08301516140c560e08601826142af565b506101008301516140da6101008601826142af565b506101208301516140ef6101208601826142af565b506101408301518482036101408601526141098282613a61565b9150506101608301518482036101608601526141258282613bc7565b91505061018083015161413c610180860182613c22565b506101a08301516141516101a0860182613c31565b508091505092915050565b60006101c08301600083015161417560008601826142a0565b50602083015161418860208601826142a0565b50604083015161419b6040860182613a52565b5060608301516141ae6060860182613a52565b5060808301516141c160808601826142af565b5060a08301516141d460a0860182614291565b5060c08301516141e760c08601826142a0565b5060e08301516141fa60e08601826142af565b5061010083015161420f6101008601826142af565b506101208301516142246101208601826142af565b5061014083015184820361014086015261423e8282613a61565b91505061016083015184820361016086015261425a8282613bc7565b915050610180830151614271610180860182613c22565b506101a08301516142866101a0860182613c31565b508091505092915050565b61429a81614987565b82525050565b6142a9816149b5565b82525050565b6142b8816149bf565b82525050565b6000612bc0820190506142d46000830184613abc565b92915050565b600060208201905081810360008301526142f48184613b07565b905092915050565b600060208201905081810360008301526143168184613b6c565b905092915050565b60006020820190506143336000830184613c22565b92915050565b600060208201905061434e6000830184613c31565b92915050565b600060e0820190506143696000830184613f0b565b92915050565b600060208201905081810360008301526143898184614027565b905092915050565b60006020820190506143a660008301846142a0565b92915050565b60006060820190506143c160008301856142a0565b6143ce6020830184613a52565b81810360408301526143df81613c40565b90509392505050565b60006060820190506143fd60008301856142a0565b61440a6020830184613a52565b818103604083015261441b81613c77565b90509392505050565b600060608201905061443960008301856142a0565b6144466020830184613a52565b818103604083015261445781613ce5565b90509392505050565b600060608201905061447560008301856142a0565b6144826020830184613a52565b818103604083015261449381613d53565b90509392505050565b60006060820190506144b160008301856142a0565b6144be6020830184613a52565b81810360408301526144cf81613d8a565b90509392505050565b60006060820190506144ed60008301856142a0565b6144fa6020830184613a52565b818103604083015261450b81613dc1565b90509392505050565b600060608201905061452960008301856142a0565b6145366020830184613a52565b818103604083015261454781613df8565b90509392505050565b600060608201905061456560008301856142a0565b6145726020830184613a52565b818103604083015261458381613e66565b90509392505050565b60006060820190506145a160008301856142a0565b6145ae6020830184613a52565b81810360408301526145bf81613e9d565b90509392505050565b60006060820190506145dd60008301856142a0565b6145ea6020830184613a52565b81810360408301526145fb81613ed4565b90509392505050565b600060a08201905061461960008301876142a0565b6146266020830186613a52565b61463360408301856142a0565b6146406060830184613a52565b818103608083015261465181613cae565b905095945050505050565b600060a08201905061467160008301876142a0565b61467e6020830186613a52565b61468b60408301856142a0565b6146986060830184613a52565b81810360808301526146a981613d1c565b905095945050505050565b600060a0820190506146c960008301876142a0565b6146d66020830186613a52565b6146e360408301856142a0565b6146f06060830184613a52565b818103608083015261470181613e2f565b905095945050505050565b600061018082019050614722600083018f6142a0565b61472f602083018e6142a0565b61473c604083018d613a52565b614749606083018c613a52565b614756608083018b6142af565b61476360a083018a614291565b61477060c08301896142a0565b61477d60e08301886142af565b61478b6101008301876142af565b6147996101208301866142af565b6147a7610140830185613c22565b6147b5610160830184613c31565b9d9c50505050505050505050505050565b600060e0820190506147db600083018a6142a0565b6147e860208301896142a0565b6147f56040830188613a52565b61480260608301876142af565b61480f6080830186614291565b61481c60a08301856142a0565b61482960c0830184613c22565b98975050505050505050565b6000604051905081810181811067ffffffffffffffff8211171561485857600080fd5b8060405250919050565b600067ffffffffffffffff82111561487957600080fd5b602082029050602081019050919050565b6000602082019050919050565b6000819050919050565b6000819050919050565b6000602082019050919050565b6000602082019050919050565b600081519050919050565b600060329050919050565b600060329050919050565b600081519050919050565b600081519050919050565b6000602082019050919050565b6000602082019050919050565b6000602082019050919050565b6000602082019050919050565b6000602082019050919050565b600061494882614995565b9050919050565b60008115159050919050565b60007fff0000000000000000000000000000000000000000000000000000000000000082169050919050565b600061ffff82169050919050565b600073ffffffffffffffffffffffffffffffffffffffff82169050919050565b6000819050919050565b600067ffffffffffffffff82169050919050565b60006149de82614995565b9050919050565b60008115159050919050565b600061ffff82169050919050565b6000819050919050565b600067ffffffffffffffff8216905091905056fea265627a7a7230582044f8a8efac07a59fe0036006919187490ce653d53bc7f2c10d0ccc12a555f4a16c6578706572696d656e74616cf50037",
  "source": "///////////////////////////////////////////////////////////////////////////////////\r\n//BCAI main solidity contract\r\n//Author: Taurus, Landry\r\n//Copyright: tlu4@lsu.edu\r\n//version 0.9.5\r\n//support validation;\r\n//\r\n// NOTE: functions sending TX cannot retrieve returnValues, only possible way is event\r\n// Instead function calls can return value directly.\r\n//////////////////////////////////////////////////////////////////////////////////\r\npragma solidity ^0.5.0;\r\npragma experimental ABIEncoderV2;   //return self-defined type\r\n\r\ncontract TaskContract {\r\n    //config\r\n    bool autoAssign = true;            //whether auto assign the task\r\n    bool autoValidate = true;          //whether auto pair validation\r\n    bool autoFinalization = false;\r\n    //uint8 validates = 8;\r\n    \r\n    \r\n    //list\r\n    mapping (uint256 => Provider) public providerList;  //history\r\n    mapping (uint256 => Request)  public requestList;   //history\r\n    \r\n    //mapping address with ID       //NOTE:editing these mapping cost a lot\r\n    mapping (address => uint256[])  public providerMap;\r\n    mapping (address => uint256[])  public requestMap;\r\n    mapping (uint256 => uint256) public balanceList;    //reqID => balance\r\n    \r\n    //ID - counter , +1 each new request or provider\r\n    uint256 private providerCount;     \r\n    uint256 private requestCount;\r\n    //Pool: providers can be removed from the pool but requests must be in one of the pool\r\n    uint256[] providerPool;     //providers\r\n    uint256[] pendingPool;      //requests  //wait to match \r\n    uint256[] providingPool;    //requests  //being computed\r\n    uint256[] postProvPool;     //requests  //done the computation, wait to be matched to validate.\r\n    uint256[] validatingPool;   //requests\r\n    uint256[] donePool;         //requests  //NOTE: [Important] this array could increase unlimitedly -- only for testing\r\n\r\n///////////////////////////////////////////////////////////////////////////////\r\n    constructor() public {      //sol 5.0 syntax\r\n        delete providerPool;\r\n        delete pendingPool;\r\n        delete providingPool;\r\n        delete validatingPool;\r\n        providerCount = 0;\r\n        requestCount = 0;\r\n    }\r\n    //structs\r\n    struct Request {\r\n        uint256 reqID;                  //requestID is the only identifier for each Request\r\n        uint256 blockNumber;\r\n        address payable addr;           //payable is new feature from sol v5.0\r\n        address payable provider;        \r\n        uint64  time;                   //time\r\n        uint16  target;                 //target 0-100.00\r\n        uint256 price;                  //the max amount he can pay\r\n        uint64  dataID;                 //dataID used to fetch the off-chain data\r\n        uint64  resultID;               //dataID to fetch the result\r\n        uint64  numValidations;         //user defined the validation\r\n        bool[]  signatures;\r\n        uint256[] validators;           //multisignature from validations\r\n        bool    isValid;                //the final flag\r\n        byte    status;                 //0: 'pending', 1:'providing', 2: validating, 3: complete, 7: done\r\n    }\r\n\r\n    struct Provider {\r\n        //TODO: the provider name registration.\r\n        uint256 provID;\r\n        uint256 blockNumber;\r\n        address payable addr;           //providers address    \r\n        uint64  maxTime;                //max time\r\n        uint16  maxTarget;              //max target he need\r\n        uint256 minPrice;               //lowest price can accept\r\n        bool    available;              //Used to determine if provider is already doing something\r\n    }\r\n    //event\r\n    event SystemInfo    (uint256 ID, address payable addr , bytes info);\r\n    event PairingInfo   (uint256 reqID, address payable reqAddr,\r\n                            uint256 provID, address payable provAddr, bytes info);\r\n    ////// Functions ///////////////////////////////////////////////////////////////////////////////\r\n    // startProviding called by client --worker mode to become a provider. \r\n    // init new struct on List, Map and Pool. \r\n    // NOTE: cannot use to update. You must stop a previous one and start a new one. (updateProvider)\r\n    // TIPS: gas cost: don't create local copy and write back, modify the storage directly.\r\n    function startProviding(uint64 maxTime, uint16 maxTarget, uint64 minPrice) public returns (byte) {\r\n        // register a new provider object in the List and map              \r\n        providerList[providerCount].provID         = providerCount;\r\n        providerList[providerCount].blockNumber    = block.number;\r\n        providerList[providerCount].addr           = msg.sender;             \r\n        providerList[providerCount].maxTime        = maxTime;       \r\n        providerList[providerCount].maxTarget      = maxTarget;\r\n        providerList[providerCount].minPrice       = minPrice;\r\n        // add to map & list, fire event  \r\n        providerMap[msg.sender].push(providerCount);\r\n        providerPool.push(providerCount);\r\n        providerList[providerCount].available      = true;      //turn on the flag at LAST   \r\n        emit SystemInfo(providerCount, msg.sender, 'Provider Added');\r\n        providerCount++;\r\n        //try assign and handle return value\r\n        if(autoAssign) return assignProvider(providerCount-1);  //assign the new provider   \r\n    }\r\n    // Stop a provider, Must be sent from the provider address or it will be failed.\r\n    function stopProviding(uint256 provID) public returns (bool) {\r\n        // If the sender is currently an active provider\r\n        bool flag = false;\r\n        if (providerList[provID].available == true                 //can only stop available provider\r\n                && providerList[provID].addr == msg.sender) {      //you cannot delete other's provider            \r\n            //delete providerList[provID];                         //do NOT delete from List, keep a record\r\n            flag = ArrayPop(providerMap[msg.sender], provID);      //delete form Map\r\n            flag = ArrayPop(providerPool, provID) && flag;         //delete from Pool\r\n            providerList[provID].available == false;             \r\n        } else return false;                                       //update requirement not met\r\n        if(flag) //{emit ProviderStopped(provID, msg.sender);\r\n            emit SystemInfo(providerCount, msg.sender, 'Provider Stopped');\r\n        return flag;\r\n    }\r\n    //update a provider, you must know the provID and must sent from right addr\r\n    //provider to be update must in the provider pool\r\n    function updateProvider(uint64 maxTime, uint16 maxTarget, uint64 minPrice, uint256 provID) public returns (bool) {      \r\n        bool flag = false;\r\n        flag = ArrayPop(providerPool, provID);              //provider must be in pool\r\n        if(flag && providerList[provID].available == true   //can only modify available provider\r\n        && providerList[provID].addr == msg.sender){        //you cannot modify other's config\r\n            providerList[provID].blockNumber    = block.number;         \r\n            providerList[provID].maxTime        = maxTime;       \r\n            providerList[provID].maxTarget      = maxTarget;\r\n            providerList[provID].minPrice       = minPrice;\r\n            //update pool                                         \r\n            providerPool.push(provID);                      // push in both case anyway\r\n            //update map -- no need provID not changed.\r\n            emit SystemInfo(providerCount, msg.sender, 'Provider Updated');\r\n            return true;\r\n        } else return false;\r\n    }\r\n\r\n    // Send a request from user to blockchain. (legacy name : RequestTask)\r\n    // Assumes price is including the cost for verification\r\n    function startRequest(uint64 time, uint16 target, uint64 price, uint64 dataID) payable public returns (byte) {\r\n        //register on List\r\n        requestList[requestCount].reqID         = requestCount;\r\n        requestList[requestCount].blockNumber   = block.number;  \r\n        requestList[requestCount].addr          = msg.sender;     \r\n        requestList[requestCount].time          = time;    \r\n        requestList[requestCount].target        = target;\r\n        requestList[requestCount].price         = price;\r\n        requestList[requestCount].dataID        = dataID;\r\n        requestList[requestCount].numValidations = 1;\r\n        \r\n        //add new to map\r\n        requestMap[msg.sender].push(requestCount);\r\n        \r\n        //add new to requestPool\r\n        pendingPool.push(requestCount);\r\n        requestList[requestCount].status = '0' ;     //web3.toAscii([hex])\r\n        //emit RequestAdded(requestCount, msg.sender);       \r\n        emit SystemInfo(requestCount, msg.sender,'Request Added');\r\n        requestCount++;\r\n        //try assign and handle return value\r\n        if (autoAssign) return assignRequest(requestCount-1);\r\n    }\r\n    function stopRequest(uint256 reqID) public returns (bool){\r\n        bool flag = false;\r\n        if (requestList[reqID].status == '0'                       //can only cancel pending request\r\n                && requestList[reqID].addr == msg.sender) {        //you cannot delete other's provider            \r\n            //delete requestList[reqID];                           //do NOT delete from List, keep a record\r\n            flag = ArrayPop(requestMap[msg.sender], reqID);        //delete form Map\r\n            flag = ArrayPop(pendingPool, reqID) && flag;           //delete from Pool             \r\n            requestList[reqID].status = '7';                       //'done'\r\n        }\r\n        if(flag) \r\n        //emit RequestCanceled(reqID, msg.sender);\r\n            emit SystemInfo(reqID, msg.sender, 'Request Stopped');\r\n        return flag;\r\n    }\r\n    function updateRequest(uint64 time, uint16 target, uint256 reqID) payable public returns (bool) {      \r\n        bool flag = false;\r\n        flag = ArrayPop(pendingPool,reqID);                 // pop first  \r\n        if(flag && requestList[reqID].status == '0'         //can only update pending request\r\n        && requestList[reqID].addr == msg.sender){          //you cannot modify other's config\r\n            requestList[reqID].blockNumber = block.number;         \r\n            requestList[reqID].time        = time;       \r\n            requestList[reqID].target      = target;\r\n            requestList[reqID].price       = msg.value;                         \r\n            pendingPool.push(reqID);                        //update pool\r\n            //update map -- no need provID not changed.\r\n            //emit RequestUpdated(reqID, msg.sender);\r\n            emit SystemInfo(reqID, msg.sender, 'Request Updated');\r\n            return true;\r\n        } else return false;\r\n    }\r\n\r\n    /////////////////////////////////////////////////////////////////////////////////////////////////\r\n    // assignProvider: Search in the pendingPool, find a job for current provider. Triggered by startProviding\r\n    // Input: uint256 provider ID\r\n    // Returns: 0: successfully assigned\r\n    //          1: searched all providers but find no match\r\n    //          2: no available provider right now\r\n    //          3: failure during poping pool\r\n    function assignProvider(uint256 provID) private returns (byte){\r\n        //check whether there exists pending requests\r\n        if(pendingPool.length == 0) return '2';\r\n        else {\r\n            //search throught the pendingPool\r\n            for (uint64 i = 0; i < pendingPool.length; i++){\r\n                //save the re-usable reqID , may save gas\r\n                uint256 reqID = pendingPool[i]; //\r\n                if( requestList[reqID].time     <= providerList[provID].maxTime &&\r\n                    requestList[reqID].target   <= providerList[provID].maxTarget &&\r\n                    requestList[reqID].price    >= providerList[provID].minPrice)\r\n                    return assign(reqID, provID);         //emit here btw       \r\n            }\r\n            //after for loop and no match\r\n            return '1';\r\n        }\r\n    }\r\n    \r\n    // assignRequest: Assigning one task to one of the available providers. Only called from startRequest (private)\r\n    // Search in the providerPool, could only assign one task at a time\r\n    // TODO: need to add preference next patch\r\n    // Returns: 0: successfully assigned\r\n    //          1: searched all providers but find no match\r\n    //          2: no available provider right now\r\n    //          3: failure during poping pool\r\n    function assignRequest(uint256 reqID) private returns (byte) {\r\n        //provider availability is checked in pool not in list\r\n        if (providerPool.length == 0)   return '2';\r\n        else {            //if any provider in pool\r\n            for (uint64 i = 0; i < providerPool.length; i++) {\r\n                // save the provider's addr, reusable and save gas cost\r\n                uint256 provID  = providerPool[i];\r\n                if( requestList[reqID].time     <= providerList[provID].maxTime &&\r\n                    requestList[reqID].target   <=providerList[provID].maxTarget &&\r\n                    requestList[reqID].price    >= providerList[provID].minPrice)\r\n                    return assign(reqID, provID);   //emit here btw\r\n            }\r\n            // No provider was found matching the criteria -- request failed\r\n            //requestList[reqID].addr.transfer(requestList[reqID].price); // Returns the ether to the sender\r\n            return '1';\r\n        }       \r\n    }\r\n    \r\n    //supporting function :triggered by assignRequest or assignProvider, do the state change and pool move\r\n    function assign(uint256 reqID, uint256 provID) private returns (byte) {\r\n        //update provider\r\n        providerList[provID].available = false;\r\n        //update request\r\n        requestList[reqID].provider = providerList[provID].addr;\r\n        requestList[reqID].status = '1';    //providing\r\n        //update the pool, move ID#\r\n        bool isPopped = false;\r\n        isPopped = ArrayPop(pendingPool, reqID);\r\n        isPopped = ArrayPop(providerPool, provID) && isPopped;\r\n        if(!isPopped) return '3';\r\n        providingPool.push(reqID);\r\n        \r\n        //update balanceList            addr here is requester's\r\n        balanceList[reqID] += requestList[reqID].price; \r\n        //emit TaskAssigned(reqID,requestList[reqID].addr,  \r\n        //                provID, providerList[provID].addr);\r\n        emit PairingInfo (reqID,requestList[reqID].addr,  \r\n                provID, providerList[provID].addr, 'Request Assigned to Provider');\r\n        return '0';   \r\n    }\r\n\r\n\r\n    ////////////////////////////////////////////////////////////////////////////////////////\r\n    // off-chain actions happen here!\r\n    // After assignment, provider will fetch off-chain data and \r\n    // update this action by sending a confirm online, (not necessarily).\r\n    // TODO: function providerGotData() public returns (byte){}\r\n    //\r\n    // Then provider will start computation right now.\r\n    // ....\r\n    // Return the result and call completeRequest\r\n    ////////////////////////////////////////////////////////////////////////////////////////\r\n    //Exceptions: \r\n    // 1.Computation aborted/fail == retry within time limit\r\n    // 2.timeout == refund request / status: providing -> pending\r\n    // ##$$ Golden Rule: Costomer is God, whoever PAYED must got result or refund.\r\n    // Deal with money using extreme caution!\r\n\r\n\r\n    // Provider will call this when they are done and the data is available.\r\n    // This will invoke the validation stage but only when the request got enough validators\r\n    // that req could be moved from pool and marked,\r\n    // Or that req stays providing\r\n    function completeRequest(uint256 reqID, uint64 resultID) public returns (bool) {\r\n        // Confirm msg.sender is actually the provider of the task he claims\r\n        if (msg.sender == requestList[reqID].provider) {\r\n            //change request obj\r\n            requestList[reqID].status = '2';    //validating\r\n            requestList[reqID].resultID = resultID;\r\n            //move from providing pool to validating Pool.\r\n            bool flag = false;\r\n            flag = ArrayPop(providingPool, reqID);\r\n            if(!flag) return false;\r\n            validatingPool.push(reqID);\r\n            //release provider (not necessarily depend on provider)\r\n            //providerList[providerID[msg.sender]].available = true;\r\n            //emit assignRequest(reqID, msg.sender);\r\n            emit SystemInfo(reqID, requestList[reqID].addr, 'Request Computation Completed');\r\n            //start validation process\r\n            if(autoValidate){\r\n                return validateRequest(reqID);\r\n            }else return true;\r\n        }\r\n        else {      //msg.sender != provider\r\n            return false;\r\n        }\r\n    }\r\n\r\n    // Called by assignRequest before finalizing stuff. Contract checks with validators\r\n    // Returns false if there wasnt enough free providers to send out the required number of validation requests\r\n    // need validation from 1/10 of nodes -- could change\r\n    function validateRequest(uint256 reqID) public returns (bool) {\r\n        uint64 numValidatorsNeeded = requestList[reqID].numValidations; \r\n        //uint numValidators = providerCount / 10; \r\n        uint64 validatorsFound = 0;\r\n        //select # of available provider from the pool and force em to do the validation\r\n        for (uint64 i = 0; i < providerPool.length; i++) {\r\n            //get provider ID\r\n            uint256 provID = providerPool[i];\r\n            if(providerList[provID].addr != requestList[reqID].provider){   //validator and computer cannot be same\r\n                //EVENT: informs validator that they were selected and need to validate\r\n                emit PairingInfo(reqID, requestList[reqID].addr, \r\n                        provID, providerList[provID].addr, 'Validation Assigned to Provider');\r\n                validatorsFound++;\r\n                //remove the providers availablity and pop from pool\r\n                providerList[provID].available = false;\r\n                bool flag = ArrayPop(providerPool, provID);\r\n                if (!flag) return false;\r\n            } else continue;\r\n            //check whether got enough validator\r\n            if(validatorsFound < numValidatorsNeeded){\r\n                continue;\r\n            }\r\n            else{       //enough validator\r\n                emit SystemInfo(reqID, requestList[reqID].addr, 'Enough Validators');\r\n                return true;\r\n                break;\r\n            }\r\n            //loop until certain # of validators selected\r\n        }   \r\n        //exit loop without enough validators\r\n        //emit NotEnoughValidation(reqID);    \r\n        emit SystemInfo(reqID, requestList[reqID].addr, 'Not Enough Validators');\r\n    }\r\n    //////////////////////////////////////////////////////////////\r\n    // some cases here:\r\n    //  1. req is actually false\r\n    //      a. claim true   : cheating\r\n    //      b. claim false  : honest\r\n    //  2. req is actually true\r\n    //      a. claim true   : honest\r\n    //      b. claim false  : not likely\r\n    //////////////////////////////////////////////////////////////\r\n\r\n\r\n    // needs to be more secure by ensuring the submission is coming from someone legit \r\n    // similar to completeTask but this will sign the validation list of the target Task\r\n    //TODO: the money part is ommited for now\r\n    function submitValidation(uint256 reqID, uint256 provID, bool result) public returns (bool) {\r\n        // Pay the validator \r\n        // uint partialPayment = requestList[reqID].price / 100; // amount each validator is paid\r\n        // msg.sender.transfer(partialPayment);\r\n        // balanceList[requestList[reqID].addr] -= partialPayment;\r\n\r\n        // edit array and pool\r\n        if(msg.sender != requestList[reqID].provider) {     //validator cannot be provider\r\n            requestList[reqID].validators.push(providerMap[msg.sender][0]);     //push array\r\n            requestList[reqID].signatures.push(result);     //edit mapping\r\n        }\r\n        emit PairingInfo(reqID, requestList[reqID].addr, \r\n                    provID, providerList[provID].addr, 'Validator Signed');\r\n       \r\n        // If enough validations have been submitted\r\n        if (requestList[reqID].validators.length == requestList[reqID].numValidations) {\r\n            //return checkValidation(reqID, requestList[reqID].price - requestList[reqID].numValidationsNeeded * partialPayment);\r\n            if(autoFinalization) return checkValidation(reqID);\r\n        }\r\n    }\r\n    \r\n    function checkValidation(uint256 reqID) public returns (bool) {\r\n        // Add up successful validations\r\n        bool flag = false;\r\n        uint64 successCount = 0;\r\n        for (uint64 i=0; i<requestList[reqID].validators.length; i++) {\r\n            if (requestList[reqID].signatures[i] == true) successCount++;\r\n        }\r\n        // if 2/3 of validation attempts were successful\r\n        // TODO: determine the fraction\r\n        if (successCount  >= requestList[reqID].numValidations) { \r\n            // if 2/3 of validations were valid then provider gets remainder of money\r\n            //requestList[reqID].provider.transfer(payment); \r\n            //balanceList[requestList[reqID].addr] -= payment;\r\n            //TODO: [important] leave out the payment part for now.\r\n            requestList[reqID].isValid = true; // Task was successfully completed! \r\n            flag = true;\r\n        }\r\n        // otherwise, work was invalid, the providers payment goes back to requester\r\n        else {\r\n            //requestList[reqID].addr.transfer(payment);\r\n            //balanceList[requestList[reqID].addr] -= payment;\r\n        }\r\n        // EVENT: task is done whether successful or not\r\n        //emit TaskCompleted(requestList[reqID].addr, reqID);\r\n        emit SystemInfo(reqID, requestList[reqID].addr, 'Validation Complete');\r\n        //popout from pool\r\n        flag = flag && ArrayPop(validatingPool, reqID);\r\n        return flag;\r\n    }\r\n\r\n//////////////////////////////////////////////////////////////////////\r\n/*  function startRequest(uint64 dataID, uint16 target, uint64 time) payable public returns (bool) {\r\n    //a legacy version of startRequest, using a local memory copy and write back\r\n    //NOTE: [important] this method may take most gas cost. Take this as an example\r\n    //Conclusion: only modify the necessary mapping item.\r\n        bool[] memory emptyArray;\r\n        Request memory req = Request(           //create a temp memory var\r\n            msg.sender,             //addr\r\n            address(0),             //provider\r\n            requestCount,           //reqID\r\n            dataID,                 //dataID\r\n            time,                   //time    \r\n            target,                 //target   0-100\r\n            msg.value,              //price \r\n            0,                      //resultID\r\n            1,                      //numValidationsNeeded\r\n            emptyArray,             //sig list\r\n            false,                  //isValid\r\n            0                       //status  0-3 0: pending\r\n        );\r\n\r\n        //copy the mem var into storage\r\n        requestList[requestCount] = req;        //requestCount used as index here, from 0 to +++\r\n        //add new to requestPool\r\n        requestPool.push(requestCount);\r\n        //update requestID\r\n        requestID[msg.sender].push(requestCount);\r\n        //update count\r\n        requestCount++;     //count already stands for the # of req now.\r\n        pendingCount++;\r\n        return assignRequest();\r\n    }\r\n*/\r\n/////////////////////////////////////////////////////////////////////\r\n    // Used to dynamically remove elements from array of open provider spaces. \r\n    // Using a swap and delete method, search for the desired addr throughout the whole array\r\n    // delete the desired and swap the whole with last element\r\n    function ArrayPop(uint256[] storage array, uint256 target) private returns (bool) {\r\n        for(uint64 i = 0; i < array.length; i++){\r\n            if (array[i] == target) {\r\n                //swap last element with hole\r\n                array[i] = array[array.length-1];\r\n                //delete last item\r\n                delete array[array.length-1];\r\n                //decrease size\r\n                array.length--;\r\n                return true;\r\n            }\r\n        }\r\n        return false;   //fail to search: no matching in pool\r\n    } \r\n    function getMyProvID() public view returns (uint256[] memory){\r\n        return providerMap[msg.sender];\r\n    }\r\n    function getMyReqID() public view returns (uint256[] memory){\r\n        return requestMap[msg.sender];\r\n    }\r\n    function getProviderID(address addr) public view returns (uint256[] memory){\r\n        return providerMap[addr];\r\n    }\r\n    function getRequestID(address addr) public view returns (uint256[] memory){\r\n        return requestMap[addr];\r\n    }\r\n\r\n    /////////////////////////////////////////////////////////////////////////////////\r\n    //some helpers defined here\r\n    function getProvider(uint256 ID) public view returns(Provider memory){\r\n        return providerList[ID];\r\n    }\r\n    function getRequest(uint256 ID) public view returns (Request memory){\r\n\t    return requestList[ID];\r\n    }\r\n    function getProviderCount() public view returns (uint256){\r\n        return providerCount;\r\n    }\r\n    function getRequestCount() public view returns (uint256){\r\n        return requestCount;\r\n    }\r\n    function getProviderPool() public view returns (uint256[] memory){\r\n        return providerPool;\r\n    }\r\n    function getPendingPool() public view returns (uint256[] memory){\r\n        return pendingPool;\r\n    }\r\n    function getProvidingPool() public view returns (uint256[] memory){\r\n        return providingPool;\r\n    }\r\n    function getValidatingPool() public view returns (uint256[] memory){\r\n        return validatingPool;\r\n    }\r\n    function getProviderPoolSize() public view returns (uint256){\r\n        return providerPool.length;\r\n    }\r\n    function getPendingPoolSize() public view returns (uint256){\r\n        return pendingPool.length;\r\n    }\r\n    \r\n    //function getBalance(address addr) public view returns (uint256){\r\n    //    return balanceList[addr];\r\n    //}\r\n    //list out structs using IDlist\r\n    function listRequests(uint256[] memory IDList) public view returns(Request[50] memory){\r\n\t    Request[50] memory allRequest;\r\n\t    for (uint64 i = 0; i < IDList.length; i++){\r\n\t\t    allRequest[i] = getRequest(IDList[i]);\r\n\t    }\r\n\t    return allRequest;\r\n    }\r\n    function listProviders(uint256[] memory IDList) public view returns(Provider[50] memory){\r\n        Provider[50] memory allProvider;\r\n        //address addr;\r\n        for (uint64 i = 0; i < IDList.length;i++){\r\n            allProvider[i] = getProvider(IDList[i]);\r\n        }\r\n        return allProvider;\r\n    }\r\n    function listAllRequests() public view returns(Request[50] memory){\r\n\t    Request[50] memory allRequest;\r\n\t    for (uint64 i = 0; i < requestCount; i++){\r\n\t\t    allRequest[i] = getRequest(i);\r\n\t    }\r\n\t    return allRequest;\r\n    }\r\n    function listAllProviders() public view returns(Provider[50] memory){\r\n\t    Provider[50] memory allProvider;\r\n\t    for (uint64 i = 0; i < providerCount; i++){\r\n\t\t    allProvider[i] = getProvider(i);\r\n\t    }\r\n\t    return allProvider;\r\n    }\r\n}\r\n",
  "sourcePath": "C:/Users/lutao/Documents/gitLab/bcai_v0.9/contracts/bcai_0.9.sol",
  "compiler": {
    "name": "solc",
    "version": "0.5.1+commit.c8a2cb62.Emscripten.clang"
  },
  "schemaVersion": "3.0.0-beta.2",
  "updatedAt": "2018-12-20T21:44:00.260Z",
  "devdoc": {
    "methods": {}
  },
  "userdoc": {
    "methods": {
      "completeRequest(uint256,uint64)": {
        "notice": "/////////////////////////////////////////////////////////////////////////////////////"
      },
      "constructor": "////////////////////////////////////////////////////////////////////////////",
      "getProvider(uint256)": {
        "notice": "//////////////////////////////////////////////////////////////////////////////"
      },
      "startProviding(uint64,uint16,uint64)": {
        "notice": "/// Functions ///////////////////////////////////////////////////////////////////////////////"
      },
      "submitValidation(uint256,uint256,bool)": {
        "notice": "///////////////////////////////////////////////////////////"
      }
    }
  }
}