{
  "contractName": "TaskContract",
  "abi": [
    {
      "constant": true,
      "inputs": [
        {
          "name": "",
          "type": "uint256"
        }
      ],
      "name": "requestList",
      "outputs": [
        {
          "name": "reqID",
          "type": "uint256"
        },
        {
          "name": "blockNumber",
          "type": "uint256"
        },
        {
          "name": "addr",
          "type": "address"
        },
        {
          "name": "provider",
          "type": "address"
        },
        {
          "name": "time",
          "type": "uint64"
        },
        {
          "name": "target",
          "type": "uint16"
        },
        {
          "name": "price",
          "type": "uint256"
        },
        {
          "name": "dataID",
          "type": "uint64"
        },
        {
          "name": "resultID",
          "type": "uint64"
        },
        {
          "name": "numValidations",
          "type": "uint64"
        },
        {
          "name": "isValid",
          "type": "bool"
        },
        {
          "name": "status",
          "type": "bytes1"
        }
      ],
      "payable": false,
      "stateMutability": "view",
      "type": "function",
      "signature": "0x02e9d43b"
    },
    {
      "constant": true,
      "inputs": [
        {
          "name": "",
          "type": "uint256"
        }
      ],
      "name": "providerList",
      "outputs": [
        {
          "name": "provID",
          "type": "uint256"
        },
        {
          "name": "blockNumber",
          "type": "uint256"
        },
        {
          "name": "addr",
          "type": "address"
        },
        {
          "name": "maxTime",
          "type": "uint64"
        },
        {
          "name": "maxTarget",
          "type": "uint16"
        },
        {
          "name": "minPrice",
          "type": "uint256"
        },
        {
          "name": "available",
          "type": "bool"
        }
      ],
      "payable": false,
      "stateMutability": "view",
      "type": "function",
      "signature": "0x390bfd3c"
    },
    {
      "constant": true,
      "inputs": [
        {
          "name": "",
          "type": "uint256"
        }
      ],
      "name": "balanceList",
      "outputs": [
        {
          "name": "",
          "type": "uint256"
        }
      ],
      "payable": false,
      "stateMutability": "view",
      "type": "function",
      "signature": "0x599b6808"
    },
    {
      "constant": true,
      "inputs": [
        {
          "name": "",
          "type": "address"
        },
        {
          "name": "",
          "type": "uint256"
        }
      ],
      "name": "providerMap",
      "outputs": [
        {
          "name": "",
          "type": "uint256"
        }
      ],
      "payable": false,
      "stateMutability": "view",
      "type": "function",
      "signature": "0xd2d5d74f"
    },
    {
      "constant": true,
      "inputs": [
        {
          "name": "",
          "type": "address"
        },
        {
          "name": "",
          "type": "uint256"
        }
      ],
      "name": "requestMap",
      "outputs": [
        {
          "name": "",
          "type": "uint256"
        }
      ],
      "payable": false,
      "stateMutability": "view",
      "type": "function",
      "signature": "0xd3cca02e"
    },
    {
      "inputs": [],
      "payable": false,
      "stateMutability": "nonpayable",
      "type": "constructor",
      "signature": "constructor"
    },
    {
      "anonymous": false,
      "inputs": [
        {
          "indexed": false,
          "name": "provID",
          "type": "uint256"
        },
        {
          "indexed": false,
          "name": "addr",
          "type": "address"
        }
      ],
      "name": "ProviderAdded",
      "type": "event",
      "signature": "0xafeb8d353a550fa93ee49e05f2ec51920688cec519f9c53be94a6ffffdf9a534"
    },
    {
      "anonymous": false,
      "inputs": [
        {
          "indexed": false,
          "name": "provID",
          "type": "uint256"
        },
        {
          "indexed": false,
          "name": "addr",
          "type": "address"
        }
      ],
      "name": "ProviderStopped",
      "type": "event",
      "signature": "0x37f095876e7fce8c776261edf08749c7a785891cfcdb3e45e1fe6f0a5085ddb0"
    },
    {
      "anonymous": false,
      "inputs": [
        {
          "indexed": false,
          "name": "provID",
          "type": "uint256"
        },
        {
          "indexed": false,
          "name": "addr",
          "type": "address"
        }
      ],
      "name": "ProviderUpdated",
      "type": "event",
      "signature": "0xd94c593c75e29861632520adc8ad754e10eb195d12baa4d1bf0bfcf23060b8b7"
    },
    {
      "anonymous": false,
      "inputs": [
        {
          "indexed": false,
          "name": "reqID",
          "type": "uint256"
        },
        {
          "indexed": false,
          "name": "reqAddr",
          "type": "address"
        },
        {
          "indexed": false,
          "name": "provID",
          "type": "uint256"
        },
        {
          "indexed": false,
          "name": "provAddr",
          "type": "address"
        }
      ],
      "name": "TaskAssigned",
      "type": "event",
      "signature": "0xc5e0672f97da4dc0ce37a461d9430942f96b915f315d4751d97368f4aa014363"
    },
    {
      "anonymous": false,
      "inputs": [
        {
          "indexed": false,
          "name": "reqID",
          "type": "uint256"
        },
        {
          "indexed": false,
          "name": "addr",
          "type": "address"
        }
      ],
      "name": "RequestAdded",
      "type": "event",
      "signature": "0x1547844676b0fd6479fc29c4babdeba187ee3bbc2b982bad5ad798b75675526d"
    },
    {
      "anonymous": false,
      "inputs": [
        {
          "indexed": false,
          "name": "reqID",
          "type": "uint256"
        },
        {
          "indexed": false,
          "name": "addr",
          "type": "address"
        }
      ],
      "name": "RequestUpdated",
      "type": "event",
      "signature": "0x4872ad1ba2f7842ef7ee71f43ab3c3ee611e2cfe5ea6bc4f5a3d5c77cfa48563"
    },
    {
      "anonymous": false,
      "inputs": [
        {
          "indexed": false,
          "name": "reqID",
          "type": "uint256"
        },
        {
          "indexed": false,
          "name": "addr",
          "type": "address"
        }
      ],
      "name": "RequestCanceled",
      "type": "event",
      "signature": "0x7e8e70bf979070497c1e07bfd1131dd24e7117f289dbb8cc96f57a367db6b317"
    },
    {
      "anonymous": false,
      "inputs": [
        {
          "indexed": false,
          "name": "reqID",
          "type": "uint256"
        },
        {
          "indexed": false,
          "name": "provID",
          "type": "uint256"
        },
        {
          "indexed": false,
          "name": "addr",
          "type": "address"
        }
      ],
      "name": "ValidationAssigned",
      "type": "event",
      "signature": "0xd92b3644be79c3a217633fd06de3db2935f0d8b41bd13ec4112727ec9451efc7"
    },
    {
      "anonymous": false,
      "inputs": [
        {
          "indexed": false,
          "name": "reqID",
          "type": "uint256"
        }
      ],
      "name": "NotEnoughValidation",
      "type": "event",
      "signature": "0x7ac9ad79ee3efb861e4bed1fb754239e30da48a583570606f05f892e3ce5857b"
    },
    {
      "anonymous": false,
      "inputs": [
        {
          "indexed": false,
          "name": "ID",
          "type": "uint256"
        },
        {
          "indexed": false,
          "name": "addr",
          "type": "address"
        },
        {
          "indexed": false,
          "name": "info",
          "type": "bytes"
        }
      ],
      "name": "SystemInfo",
      "type": "event",
      "signature": "0xa4c4c871d43d81be54f69ce74ea5bc289663a3cdf402d09baf09407085be0231"
    },
    {
      "anonymous": false,
      "inputs": [
        {
          "indexed": false,
          "name": "reqID",
          "type": "uint256"
        },
        {
          "indexed": false,
          "name": "reqAddr",
          "type": "address"
        },
        {
          "indexed": false,
          "name": "provID",
          "type": "uint256"
        },
        {
          "indexed": false,
          "name": "provAddr",
          "type": "address"
        },
        {
          "indexed": false,
          "name": "info",
          "type": "bytes"
        }
      ],
      "name": "PairingInfo",
      "type": "event",
      "signature": "0xc4f678ebfd7e29fd2b410c08e9adcef6a55d52ee8c9b379f90cb334d18438668"
    },
    {
      "anonymous": false,
      "inputs": [
        {
          "indexed": false,
          "name": "reqID",
          "type": "uint256"
        },
        {
          "indexed": false,
          "name": "info",
          "type": "bytes"
        }
      ],
      "name": "UpdateInfo",
      "type": "event",
      "signature": "0x32e8745b1198a29ee11e0cbdbdaad4a01afae317e0d96d682345f5a53ac79b32"
    },
    {
      "constant": false,
      "inputs": [
        {
          "name": "maxTime",
          "type": "uint64"
        },
        {
          "name": "maxTarget",
          "type": "uint16"
        },
        {
          "name": "minPrice",
          "type": "uint64"
        }
      ],
      "name": "startProviding",
      "outputs": [
        {
          "name": "",
          "type": "bytes1"
        }
      ],
      "payable": false,
      "stateMutability": "nonpayable",
      "type": "function",
      "signature": "0x2ddfdbcc"
    },
    {
      "constant": false,
      "inputs": [
        {
          "name": "provID",
          "type": "uint256"
        }
      ],
      "name": "stopProviding",
      "outputs": [
        {
          "name": "",
          "type": "bool"
        }
      ],
      "payable": false,
      "stateMutability": "nonpayable",
      "type": "function",
      "signature": "0x15f14e89"
    },
    {
      "constant": false,
      "inputs": [
        {
          "name": "maxTime",
          "type": "uint64"
        },
        {
          "name": "maxTarget",
          "type": "uint16"
        },
        {
          "name": "minPrice",
          "type": "uint64"
        },
        {
          "name": "provID",
          "type": "uint256"
        }
      ],
      "name": "updateProvider",
      "outputs": [
        {
          "name": "",
          "type": "bool"
        }
      ],
      "payable": false,
      "stateMutability": "nonpayable",
      "type": "function",
      "signature": "0xdf4467ab"
    },
    {
      "constant": false,
      "inputs": [
        {
          "name": "dataID",
          "type": "uint64"
        },
        {
          "name": "target",
          "type": "uint16"
        },
        {
          "name": "time",
          "type": "uint64"
        }
      ],
      "name": "startRequest",
      "outputs": [
        {
          "name": "",
          "type": "bytes1"
        }
      ],
      "payable": true,
      "stateMutability": "payable",
      "type": "function",
      "signature": "0x58b93e0f"
    },
    {
      "constant": false,
      "inputs": [
        {
          "name": "reqID",
          "type": "uint256"
        }
      ],
      "name": "stopRequest",
      "outputs": [
        {
          "name": "",
          "type": "bool"
        }
      ],
      "payable": false,
      "stateMutability": "nonpayable",
      "type": "function",
      "signature": "0x90c0375d"
    },
    {
      "constant": false,
      "inputs": [
        {
          "name": "time",
          "type": "uint64"
        },
        {
          "name": "target",
          "type": "uint16"
        },
        {
          "name": "reqID",
          "type": "uint256"
        }
      ],
      "name": "updateRequest",
      "outputs": [
        {
          "name": "",
          "type": "bool"
        }
      ],
      "payable": true,
      "stateMutability": "payable",
      "type": "function",
      "signature": "0x79a0bb95"
    },
    {
      "constant": false,
      "inputs": [
        {
          "name": "reqID",
          "type": "uint256"
        },
        {
          "name": "resultID",
          "type": "uint64"
        }
      ],
      "name": "completeRequest",
      "outputs": [
        {
          "name": "",
          "type": "bool"
        }
      ],
      "payable": false,
      "stateMutability": "nonpayable",
      "type": "function",
      "signature": "0x375e26f5"
    },
    {
      "constant": false,
      "inputs": [
        {
          "name": "reqID",
          "type": "uint256"
        },
        {
          "name": "provID",
          "type": "uint256"
        },
        {
          "name": "result",
          "type": "bool"
        }
      ],
      "name": "submitValidation",
      "outputs": [
        {
          "name": "",
          "type": "bool"
        }
      ],
      "payable": false,
      "stateMutability": "nonpayable",
      "type": "function",
      "signature": "0x6fbea121"
    },
    {
      "constant": true,
      "inputs": [],
      "name": "getMyProvID",
      "outputs": [
        {
          "name": "",
          "type": "uint256[]"
        }
      ],
      "payable": false,
      "stateMutability": "view",
      "type": "function",
      "signature": "0x34a7d799"
    },
    {
      "constant": true,
      "inputs": [],
      "name": "getMyReqID",
      "outputs": [
        {
          "name": "",
          "type": "uint256[]"
        }
      ],
      "payable": false,
      "stateMutability": "view",
      "type": "function",
      "signature": "0x269f3558"
    },
    {
      "constant": true,
      "inputs": [
        {
          "name": "addr",
          "type": "address"
        }
      ],
      "name": "getProviderID",
      "outputs": [
        {
          "name": "",
          "type": "uint256[]"
        }
      ],
      "payable": false,
      "stateMutability": "view",
      "type": "function",
      "signature": "0x91bbb902"
    },
    {
      "constant": true,
      "inputs": [
        {
          "name": "addr",
          "type": "address"
        }
      ],
      "name": "getRequestID",
      "outputs": [
        {
          "name": "",
          "type": "uint256[]"
        }
      ],
      "payable": false,
      "stateMutability": "view",
      "type": "function",
      "signature": "0x62e70505"
    },
    {
      "constant": true,
      "inputs": [
        {
          "name": "ID",
          "type": "uint256"
        }
      ],
      "name": "getProvider",
      "outputs": [
        {
          "components": [
            {
              "name": "provID",
              "type": "uint256"
            },
            {
              "name": "blockNumber",
              "type": "uint256"
            },
            {
              "name": "addr",
              "type": "address"
            },
            {
              "name": "maxTime",
              "type": "uint64"
            },
            {
              "name": "maxTarget",
              "type": "uint16"
            },
            {
              "name": "minPrice",
              "type": "uint256"
            },
            {
              "name": "available",
              "type": "bool"
            }
          ],
          "name": "",
          "type": "tuple"
        }
      ],
      "payable": false,
      "stateMutability": "view",
      "type": "function",
      "signature": "0x5c42d079"
    },
    {
      "constant": true,
      "inputs": [
        {
          "name": "ID",
          "type": "uint256"
        }
      ],
      "name": "getRequest",
      "outputs": [
        {
          "components": [
            {
              "name": "reqID",
              "type": "uint256"
            },
            {
              "name": "blockNumber",
              "type": "uint256"
            },
            {
              "name": "addr",
              "type": "address"
            },
            {
              "name": "provider",
              "type": "address"
            },
            {
              "name": "time",
              "type": "uint64"
            },
            {
              "name": "target",
              "type": "uint16"
            },
            {
              "name": "price",
              "type": "uint256"
            },
            {
              "name": "dataID",
              "type": "uint64"
            },
            {
              "name": "resultID",
              "type": "uint64"
            },
            {
              "name": "numValidations",
              "type": "uint64"
            },
            {
              "name": "signatures",
              "type": "bool[]"
            },
            {
              "name": "validators",
              "type": "uint256[]"
            },
            {
              "name": "isValid",
              "type": "bool"
            },
            {
              "name": "status",
              "type": "bytes1"
            }
          ],
          "name": "",
          "type": "tuple"
        }
      ],
      "payable": false,
      "stateMutability": "view",
      "type": "function",
      "signature": "0xc58343ef"
    },
    {
      "constant": true,
      "inputs": [],
      "name": "getProviderCount",
      "outputs": [
        {
          "name": "",
          "type": "uint256"
        }
      ],
      "payable": false,
      "stateMutability": "view",
      "type": "function",
      "signature": "0x46ce4175"
    },
    {
      "constant": true,
      "inputs": [],
      "name": "getRequestCount",
      "outputs": [
        {
          "name": "",
          "type": "uint256"
        }
      ],
      "payable": false,
      "stateMutability": "view",
      "type": "function",
      "signature": "0x3fad1834"
    },
    {
      "constant": true,
      "inputs": [],
      "name": "getProviderPool",
      "outputs": [
        {
          "name": "",
          "type": "uint256[]"
        }
      ],
      "payable": false,
      "stateMutability": "view",
      "type": "function",
      "signature": "0x9e723b97"
    },
    {
      "constant": true,
      "inputs": [],
      "name": "getRequestPool",
      "outputs": [
        {
          "name": "",
          "type": "uint256[]"
        }
      ],
      "payable": false,
      "stateMutability": "view",
      "type": "function",
      "signature": "0xe1a9daef"
    },
    {
      "constant": true,
      "inputs": [],
      "name": "getProvidingPool",
      "outputs": [
        {
          "name": "",
          "type": "uint256[]"
        }
      ],
      "payable": false,
      "stateMutability": "view",
      "type": "function",
      "signature": "0x1f1dab45"
    },
    {
      "constant": true,
      "inputs": [],
      "name": "getValidatingPool",
      "outputs": [
        {
          "name": "",
          "type": "uint256[]"
        }
      ],
      "payable": false,
      "stateMutability": "view",
      "type": "function",
      "signature": "0x32c5200d"
    },
    {
      "constant": true,
      "inputs": [],
      "name": "getProviderPoolSize",
      "outputs": [
        {
          "name": "",
          "type": "uint256"
        }
      ],
      "payable": false,
      "stateMutability": "view",
      "type": "function",
      "signature": "0x353b2a1f"
    },
    {
      "constant": true,
      "inputs": [],
      "name": "getRequestPoolSize",
      "outputs": [
        {
          "name": "",
          "type": "uint256"
        }
      ],
      "payable": false,
      "stateMutability": "view",
      "type": "function",
      "signature": "0x5c4c8c4e"
    },
    {
      "constant": true,
      "inputs": [
        {
          "name": "IDList",
          "type": "uint256[]"
        }
      ],
      "name": "listRequests",
      "outputs": [
        {
          "components": [
            {
              "name": "reqID",
              "type": "uint256"
            },
            {
              "name": "blockNumber",
              "type": "uint256"
            },
            {
              "name": "addr",
              "type": "address"
            },
            {
              "name": "provider",
              "type": "address"
            },
            {
              "name": "time",
              "type": "uint64"
            },
            {
              "name": "target",
              "type": "uint16"
            },
            {
              "name": "price",
              "type": "uint256"
            },
            {
              "name": "dataID",
              "type": "uint64"
            },
            {
              "name": "resultID",
              "type": "uint64"
            },
            {
              "name": "numValidations",
              "type": "uint64"
            },
            {
              "name": "signatures",
              "type": "bool[]"
            },
            {
              "name": "validators",
              "type": "uint256[]"
            },
            {
              "name": "isValid",
              "type": "bool"
            },
            {
              "name": "status",
              "type": "bytes1"
            }
          ],
          "name": "",
          "type": "tuple[50]"
        }
      ],
      "payable": false,
      "stateMutability": "view",
      "type": "function",
      "signature": "0x0c9a90a3"
    },
    {
      "constant": true,
      "inputs": [],
      "name": "listAllRequests",
      "outputs": [
        {
          "components": [
            {
              "name": "reqID",
              "type": "uint256"
            },
            {
              "name": "blockNumber",
              "type": "uint256"
            },
            {
              "name": "addr",
              "type": "address"
            },
            {
              "name": "provider",
              "type": "address"
            },
            {
              "name": "time",
              "type": "uint64"
            },
            {
              "name": "target",
              "type": "uint16"
            },
            {
              "name": "price",
              "type": "uint256"
            },
            {
              "name": "dataID",
              "type": "uint64"
            },
            {
              "name": "resultID",
              "type": "uint64"
            },
            {
              "name": "numValidations",
              "type": "uint64"
            },
            {
              "name": "signatures",
              "type": "bool[]"
            },
            {
              "name": "validators",
              "type": "uint256[]"
            },
            {
              "name": "isValid",
              "type": "bool"
            },
            {
              "name": "status",
              "type": "bytes1"
            }
          ],
          "name": "",
          "type": "tuple[50]"
        }
      ],
      "payable": false,
      "stateMutability": "view",
      "type": "function",
      "signature": "0xc02ac059"
    },
    {
      "constant": true,
      "inputs": [],
      "name": "listAllProviders",
      "outputs": [
        {
          "components": [
            {
              "name": "provID",
              "type": "uint256"
            },
            {
              "name": "blockNumber",
              "type": "uint256"
            },
            {
              "name": "addr",
              "type": "address"
            },
            {
              "name": "maxTime",
              "type": "uint64"
            },
            {
              "name": "maxTarget",
              "type": "uint16"
            },
            {
              "name": "minPrice",
              "type": "uint256"
            },
            {
              "name": "available",
              "type": "bool"
            }
          ],
          "name": "",
          "type": "tuple[50]"
        }
      ],
      "payable": false,
      "stateMutability": "view",
      "type": "function",
      "signature": "0x6302d071"
    },
    {
      "constant": true,
      "inputs": [],
      "name": "listProviders",
      "outputs": [
        {
          "components": [
            {
              "name": "provID",
              "type": "uint256"
            },
            {
              "name": "blockNumber",
              "type": "uint256"
            },
            {
              "name": "addr",
              "type": "address"
            },
            {
              "name": "maxTime",
              "type": "uint64"
            },
            {
              "name": "maxTarget",
              "type": "uint16"
            },
            {
              "name": "minPrice",
              "type": "uint256"
            },
            {
              "name": "available",
              "type": "bool"
            }
          ],
          "name": "",
          "type": "tuple[50]"
        }
      ],
      "payable": false,
      "stateMutability": "view",
      "type": "function",
      "signature": "0x2bd395a0"
    },
    {
      "constant": true,
      "inputs": [
        {
          "name": "IDList",
          "type": "uint256[]"
        }
      ],
      "name": "listProviders",
      "outputs": [
        {
          "components": [
            {
              "name": "provID",
              "type": "uint256"
            },
            {
              "name": "blockNumber",
              "type": "uint256"
            },
            {
              "name": "addr",
              "type": "address"
            },
            {
              "name": "maxTime",
              "type": "uint64"
            },
            {
              "name": "maxTarget",
              "type": "uint16"
            },
            {
              "name": "minPrice",
              "type": "uint256"
            },
            {
              "name": "available",
              "type": "bool"
            }
          ],
          "name": "",
          "type": "tuple[50]"
        }
      ],
      "payable": false,
      "stateMutability": "view",
      "type": "function",
      "signature": "0xcac1125b"
    }
  ],
  "bytecode": "0x608060405260016000806101000a81548160ff02191690831515021790555060008060016101000a81548160ff02191690831515021790555060008060026101000a81548160ff0219169083151502179055503480156200005f57600080fd5b5060086000620000709190620000b6565b60096000620000809190620000b6565b600a6000620000909190620000b6565b600b6000620000a09190620000b6565b6000600681905550600060078190555062000101565b5080546000825590600052602060002090810190620000d69190620000d9565b50565b620000fe91905b80821115620000fa576000816000905550600101620000e0565b5090565b90565b61487280620001116000396000f3fe608060405260043610610190576000357c01000000000000000000000000000000000000000000000000000000009004806302e9d43b146101955780630c9a90a3146101dd57806315f14e891461021a5780631f1dab4514610257578063269f3558146102825780632bd395a0146102ad5780632ddfdbcc146102d857806332c5200d1461031557806334a7d79914610340578063353b2a1f1461036b578063375e26f514610396578063390bfd3c146103d35780633fad18341461041657806346ce41751461044157806358b93e0f1461046c578063599b68081461049c5780635c42d079146104d95780635c4c8c4e1461051657806362e70505146105415780636302d0711461057e5780636fbea121146105a957806379a0bb95146105e657806390c0375d1461061657806391bbb902146106535780639e723b9714610690578063c02ac059146106bb578063c58343ef146106e6578063cac1125b14610723578063d2d5d74f14610760578063d3cca02e1461079d578063df4467ab146107da578063e1a9daef14610817575b600080fd5b3480156101a157600080fd5b506101bc60048036036101b7919081019061372f565b610842565b6040516101d49c9b9a99989796959493929190614527565b60405180910390f35b3480156101e957600080fd5b5061020460048036036101ff91908101906136ee565b610979565b604051610211919061415b565b60405180910390f35b34801561022657600080fd5b50610241600480360361023c919081019061372f565b610a03565b60405161024e919061419f565b60405180910390f35b34801561026357600080fd5b5061026c610b7a565b604051610279919061417d565b60405180910390f35b34801561028e57600080fd5b50610297610bd2565b6040516102a4919061417d565b60405180910390f35b3480156102b957600080fd5b506102c2610c67565b6040516102cf919061413f565b60405180910390f35b3480156102e457600080fd5b506102ff60048036036102fa9190810190613832565b610cd9565b60405161030c91906141ba565b60405180910390f35b34801561032157600080fd5b5061032a610f4e565b604051610337919061417d565b60405180910390f35b34801561034c57600080fd5b50610355610fa6565b604051610362919061417d565b60405180910390f35b34801561037757600080fd5b5061038061103b565b60405161038d9190614212565b60405180910390f35b3480156103a257600080fd5b506103bd60048036036103b891908101906137a7565b611048565b6040516103ca919061419f565b60405180910390f35b3480156103df57600080fd5b506103fa60048036036103f5919081019061372f565b611221565b60405161040d97969594939291906145e1565b60405180910390f35b34801561042257600080fd5b5061042b6112b2565b6040516104389190614212565b60405180910390f35b34801561044d57600080fd5b506104566112bc565b6040516104639190614212565b60405180910390f35b61048660048036036104819190810190613832565b6112c6565b60405161049391906141ba565b60405180910390f35b3480156104a857600080fd5b506104c360048036036104be919081019061372f565b611649565b6040516104d09190614212565b60405180910390f35b3480156104e557600080fd5b5061050060048036036104fb919081019061372f565b611661565b60405161050d91906141d5565b60405180910390f35b34801561052257600080fd5b5061052b611770565b6040516105389190614212565b60405180910390f35b34801561054d57600080fd5b5061056860048036036105639190810190613689565b61177d565b604051610575919061417d565b60405180910390f35b34801561058a57600080fd5b50610593611814565b6040516105a0919061413f565b60405180910390f35b3480156105b557600080fd5b506105d060048036036105cb9190810190613758565b611886565b6040516105dd919061419f565b60405180910390f35b61060060048036036105fb91908101906137e3565b611af1565b60405161060d919061419f565b60405180910390f35b34801561062257600080fd5b5061063d6004803603610638919081019061372f565b611d19565b60405161064a919061419f565b60405180910390f35b34801561065f57600080fd5b5061067a60048036036106759190810190613689565b611f32565b604051610687919061417d565b60405180910390f35b34801561069c57600080fd5b506106a5611fc9565b6040516106b2919061417d565b60405180910390f35b3480156106c757600080fd5b506106d0612021565b6040516106dd919061415b565b60405180910390f35b3480156106f257600080fd5b5061070d6004803603610708919081019061372f565b612093565b60405161071a91906141f0565b60405180910390f35b34801561072f57600080fd5b5061074a600480360361074591908101906136ee565b6123de565b604051610757919061413f565b60405180910390f35b34801561076c57600080fd5b50610787600480360361078291908101906136b2565b612468565b6040516107949190614212565b60405180910390f35b3480156107a957600080fd5b506107c460048036036107bf91908101906136b2565b612498565b6040516107d19190614212565b60405180910390f35b3480156107e657600080fd5b5061080160048036036107fc9190810190613881565b6124c8565b60405161080e919061419f565b60405180910390f35b34801561082357600080fd5b5061082c6126a1565b604051610839919061417d565b60405180910390f35b60026020528060005260406000206000915090508060000154908060010154908060020160009054906101000a900473ffffffffffffffffffffffffffffffffffffffff16908060030160009054906101000a900473ffffffffffffffffffffffffffffffffffffffff16908060030160149054906101000a900467ffffffffffffffff169080600301601c9054906101000a900461ffff16908060040154908060050160009054906101000a900467ffffffffffffffff16908060050160089054906101000a900467ffffffffffffffff16908060050160109054906101000a900467ffffffffffffffff16908060080160009054906101000a900460ff16908060080160019054906101000a90047f01000000000000000000000000000000000000000000000000000000000000000290508c565b610981613251565b610989613251565b60008090505b83518167ffffffffffffffff1610156109f9576109cc848267ffffffffffffffff168151811015156109bd57fe5b90602001906020020151612093565b828267ffffffffffffffff166032811015156109e457fe5b6020020181905250808060010191505061098f565b5080915050919050565b60008060009050600115156001600085815260200190815260200160002060040160009054906101000a900460ff161515148015610aa257503373ffffffffffffffffffffffffffffffffffffffff166001600085815260200190815260200160002060020160009054906101000a900473ffffffffffffffffffffffffffffffffffffffff1673ffffffffffffffffffffffffffffffffffffffff16145b15610b2f57610aef600360003373ffffffffffffffffffffffffffffffffffffffff1673ffffffffffffffffffffffffffffffffffffffff168152602001908152602001600020846126f9565b9050610afc6008846126f9565b8015610b055750805b9050600015156001600085815260200190815260200160002060040160009054906101000a905050505b8015610b71577fa4c4c871d43d81be54f69ce74ea5bc289663a3cdf402d09baf09407085be023160065433604051610b6892919061431d565b60405180910390a15b80915050919050565b6060600a805480602002602001604051908101604052809291908181526020018280548015610bc857602002820191906000526020600020905b815481526020019060010190808311610bb4575b5050505050905090565b6060600460003373ffffffffffffffffffffffffffffffffffffffff1673ffffffffffffffffffffffffffffffffffffffff168152602001908152602001600020805480602002602001604051908101604052809291908181526020018280548015610c5d57602002820191906000526020600020905b815481526020019060010190808311610c49575b5050505050905090565b610c6f613280565b610c77613280565b60008090505b6006548167ffffffffffffffff161015610cd157610ca48167ffffffffffffffff16611661565b828267ffffffffffffffff16603281101515610cbc57fe5b60200201819052508080600101915050610c7d565b508091505090565b60006006546001600060065481526020019081526020016000206000018190555043600160006006548152602001908152602001600020600101819055503360016000600654815260200190815260200160002060020160006101000a81548173ffffffffffffffffffffffffffffffffffffffff021916908373ffffffffffffffffffffffffffffffffffffffff1602179055508360016000600654815260200190815260200160002060020160146101000a81548167ffffffffffffffff021916908367ffffffffffffffff16021790555082600160006006548152602001908152602001600020600201601c6101000a81548161ffff021916908361ffff1602179055508167ffffffffffffffff1660016000600654815260200190815260200160002060030181905550600360003373ffffffffffffffffffffffffffffffffffffffff1673ffffffffffffffffffffffffffffffffffffffff1681526020019081526020016000206006549080600181540180825580915050906001820390600052602060002001600090919290919091505550600860065490806001815401808255809150509060018203906000526020600020016000909192909190915055506001806000600654815260200190815260200160002060040160006101000a81548160ff0219169083151502179055507fa4c4c871d43d81be54f69ce74ea5bc289663a3cdf402d09baf09407085be023160065433604051610f039291906142e1565b60405180910390a16006600081548092919060010191905055506000809054906101000a900460ff1615610f4657610f3f6001600654036127e2565b9050610f47565b5b9392505050565b6060600b805480602002602001604051908101604052809291908181526020018280548015610f9c57602002820191906000526020600020905b815481526020019060010190808311610f88575b5050505050905090565b6060600360003373ffffffffffffffffffffffffffffffffffffffff1673ffffffffffffffffffffffffffffffffffffffff16815260200190815260200160002080548060200260200160405190810160405280929190818152602001828054801561103157602002820191906000526020600020905b81548152602001906001019080831161101d575b5050505050905090565b6000600880549050905090565b60006002600084815260200190815260200160002060030160009054906101000a900473ffffffffffffffffffffffffffffffffffffffff1673ffffffffffffffffffffffffffffffffffffffff163373ffffffffffffffffffffffffffffffffffffffff161415611216577f32000000000000000000000000000000000000000000000000000000000000006002600085815260200190815260200160002060080160016101000a81548160ff02191690837f010000000000000000000000000000000000000000000000000000000000000090040217905550816002600085815260200190815260200160002060050160086101000a81548167ffffffffffffffff021916908367ffffffffffffffff1602179055506000809050611170600a856126f9565b905080151561118357600091505061121b565b600b8490806001815401808255809150509060018203906000526020600020016000909192909190915055507f32e8745b1198a29ee11e0cbdbdaad4a01afae317e0d96d682345f5a53ac79b32846040516111de91906144cb565b60405180910390a1600060019054906101000a900460ff161561120c57611204846129ab565b91505061121b565b600191505061121b565b600090505b92915050565b60016020528060005260406000206000915090508060000154908060010154908060020160009054906101000a900473ffffffffffffffffffffffffffffffffffffffff16908060020160149054906101000a900467ffffffffffffffff169080600201601c9054906101000a900461ffff16908060030154908060040160009054906101000a900460ff16905087565b6000600754905090565b6000600654905090565b60006007546002600060075481526020019081526020016000206000018190555043600260006007548152602001908152602001600020600101819055503360026000600754815260200190815260200160002060020160006101000a81548173ffffffffffffffffffffffffffffffffffffffff021916908373ffffffffffffffffffffffffffffffffffffffff160217905550600060026000600754815260200190815260200160002060030160006101000a81548173ffffffffffffffffffffffffffffffffffffffff021916908373ffffffffffffffffffffffffffffffffffffffff1602179055508160026000600754815260200190815260200160002060030160146101000a81548167ffffffffffffffff021916908367ffffffffffffffff16021790555082600260006007548152602001908152602001600020600301601c6101000a81548161ffff021916908361ffff16021790555034600260006007548152602001908152602001600020600401819055508360026000600754815260200190815260200160002060050160006101000a81548167ffffffffffffffff021916908367ffffffffffffffff160217905550600160026000600754815260200190815260200160002060050160106101000a81548167ffffffffffffffff021916908367ffffffffffffffff160217905550600460003373ffffffffffffffffffffffffffffffffffffffff1673ffffffffffffffffffffffffffffffffffffffff1681526020019081526020016000206007549080600181540180825580915050906001820390600052602060002001600090919290919091505550600960075490806001815401808255809150509060018203906000526020600020016000909192909190915055507f300000000000000000000000000000000000000000000000000000000000000060026000600754815260200190815260200160002060080160016101000a81548160ff02191690837f0100000000000000000000000000000000000000000000000000000000000000900402179055507fa4c4c871d43d81be54f69ce74ea5bc289663a3cdf402d09baf09407085be0231600754336040516115fe929190614359565b60405180910390a16007600081548092919060010191905055506000809054906101000a900460ff16156116415761163a600160075403612c48565b9050611642565b5b9392505050565b60056020528060005260406000206000915090505481565b6116696132af565b6001600083815260200190815260200160002060e0604051908101604052908160008201548152602001600182015481526020016002820160009054906101000a900473ffffffffffffffffffffffffffffffffffffffff1673ffffffffffffffffffffffffffffffffffffffff1673ffffffffffffffffffffffffffffffffffffffff1681526020016002820160149054906101000a900467ffffffffffffffff1667ffffffffffffffff1667ffffffffffffffff16815260200160028201601c9054906101000a900461ffff1661ffff1661ffff168152602001600382015481526020016004820160009054906101000a900460ff1615151515815250509050919050565b6000600980549050905090565b6060600460008373ffffffffffffffffffffffffffffffffffffffff1673ffffffffffffffffffffffffffffffffffffffff16815260200190815260200160002080548060200260200160405190810160405280929190818152602001828054801561180857602002820191906000526020600020905b8154815260200190600101908083116117f4575b50505050509050919050565b61181c613280565b611824613280565b60008090505b6006548167ffffffffffffffff16101561187e576118518167ffffffffffffffff16611661565b828267ffffffffffffffff1660328110151561186957fe5b6020020181905250808060010191505061182a565b508091505090565b60006002600085815260200190815260200160002060030160009054906101000a900473ffffffffffffffffffffffffffffffffffffffff1673ffffffffffffffffffffffffffffffffffffffff166001600085815260200190815260200160002060020160009054906101000a900473ffffffffffffffffffffffffffffffffffffffff1673ffffffffffffffffffffffffffffffffffffffff161415156119c557600260008581526020019081526020016000206007018390806001815401808255809150509060018203906000526020600020016000909192909190915055506002600085815260200190815260200160002060060182908060018154018082558091505090600182039060005260206000209060209182820401919006909192909190916101000a81548160ff021916908315150217905550505b7fc4f678ebfd7e29fd2b410c08e9adcef6a55d52ee8c9b379f90cb334d18438668846002600087815260200190815260200160002060020160009054906101000a900473ffffffffffffffffffffffffffffffffffffffff16856001600088815260200190815260200160002060020160009054906101000a900473ffffffffffffffffffffffffffffffffffffffff16604051611a669493929190614445565b60405180910390a16002600085815260200190815260200160002060050160109054906101000a900467ffffffffffffffff1667ffffffffffffffff1660026000868152602001908152602001600020600701805490501415611ae957600060029054906101000a900460ff1615611ae857611ae184612e11565b9050611aea565b5b5b9392505050565b600080600090507f30000000000000000000000000000000000000000000000000000000000000006002600085815260200190815260200160002060080160019054906101000a90047f0100000000000000000000000000000000000000000000000000000000000000027effffffffffffffffffffffffffffffffffffffffffffffffffffffffffffff1916148015611bec57503373ffffffffffffffffffffffffffffffffffffffff166002600085815260200190815260200160002060020160009054906101000a900473ffffffffffffffffffffffffffffffffffffffff1673ffffffffffffffffffffffffffffffffffffffff16145b15611d1057436002600085815260200190815260200160002060010181905550846002600085815260200190815260200160002060030160146101000a81548167ffffffffffffffff021916908367ffffffffffffffff1602179055508360026000858152602001908152602001600020600301601c6101000a81548161ffff021916908361ffff160217905550346002600085815260200190815260200160002060040181905550611ca06009846126f9565b905060098390806001815401808255809150509060018203906000526020600020016000909192909190915055507fa4c4c871d43d81be54f69ce74ea5bc289663a3cdf402d09baf09407085be02318333604051611cff929190614269565b60405180910390a180915050611d12565b505b9392505050565b600080600090507f30000000000000000000000000000000000000000000000000000000000000006002600085815260200190815260200160002060080160019054906101000a90047f0100000000000000000000000000000000000000000000000000000000000000027effffffffffffffffffffffffffffffffffffffffffffffffffffffffffffff1916148015611e1457503373ffffffffffffffffffffffffffffffffffffffff166002600085815260200190815260200160002060020160009054906101000a900473ffffffffffffffffffffffffffffffffffffffff1673ffffffffffffffffffffffffffffffffffffffff16145b15611ee957611e61600460003373ffffffffffffffffffffffffffffffffffffffff1673ffffffffffffffffffffffffffffffffffffffff168152602001908152602001600020846126f9565b9050611e6e6009846126f9565b8015611e775750805b90507f37000000000000000000000000000000000000000000000000000000000000006002600085815260200190815260200160002060080160016101000a81548160ff02191690837f0100000000000000000000000000000000000000000000000000000000000000900402179055505b8015611f29577fa4c4c871d43d81be54f69ce74ea5bc289663a3cdf402d09baf09407085be02318333604051611f209291906142a5565b60405180910390a15b80915050919050565b6060600360008373ffffffffffffffffffffffffffffffffffffffff1673ffffffffffffffffffffffffffffffffffffffff168152602001908152602001600020805480602002602001604051908101604052809291908181526020018280548015611fbd57602002820191906000526020600020905b815481526020019060010190808311611fa9575b50505050509050919050565b6060600880548060200260200160405190810160405280929190818152602001828054801561201757602002820191906000526020600020905b815481526020019060010190808311612003575b5050505050905090565b612029613251565b612031613251565b60008090505b6007548167ffffffffffffffff16101561208b5761205e8167ffffffffffffffff16612093565b828267ffffffffffffffff1660328110151561207657fe5b60200201819052508080600101915050612037565b508091505090565b61209b613313565b600260008381526020019081526020016000206101c0604051908101604052908160008201548152602001600182015481526020016002820160009054906101000a900473ffffffffffffffffffffffffffffffffffffffff1673ffffffffffffffffffffffffffffffffffffffff1673ffffffffffffffffffffffffffffffffffffffff1681526020016003820160009054906101000a900473ffffffffffffffffffffffffffffffffffffffff1673ffffffffffffffffffffffffffffffffffffffff1673ffffffffffffffffffffffffffffffffffffffff1681526020016003820160149054906101000a900467ffffffffffffffff1667ffffffffffffffff1667ffffffffffffffff16815260200160038201601c9054906101000a900461ffff1661ffff1661ffff168152602001600482015481526020016005820160009054906101000a900467ffffffffffffffff1667ffffffffffffffff1667ffffffffffffffff1681526020016005820160089054906101000a900467ffffffffffffffff1667ffffffffffffffff1667ffffffffffffffff1681526020016005820160109054906101000a900467ffffffffffffffff1667ffffffffffffffff1667ffffffffffffffff168152602001600682018054806020026020016040519081016040528092919081815260200182805480156122e157602002820191906000526020600020906000905b82829054906101000a900460ff161515815260200190600101906020826000010492830192600103820291508084116122ab5790505b505050505081526020016007820180548060200260200160405190810160405280929190818152602001828054801561233957602002820191906000526020600020905b815481526020019060010190808311612325575b505050505081526020016008820160009054906101000a900460ff161515151581526020016008820160019054906101000a90047f0100000000000000000000000000000000000000000000000000000000000000027effffffffffffffffffffffffffffffffffffffffffffffffffffffffffffff19167effffffffffffffffffffffffffffffffffffffffffffffffffffffffffffff1916815250509050919050565b6123e6613280565b6123ee613280565b60008090505b83518167ffffffffffffffff16101561245e57612431848267ffffffffffffffff1681518110151561242257fe5b90602001906020020151611661565b828267ffffffffffffffff1660328110151561244957fe5b602002018190525080806001019150506123f4565b5080915050919050565b60036020528160005260406000208181548110151561248357fe5b90600052602060002001600091509150505481565b6004602052816000526040600020818154811015156124b357fe5b90600052602060002001600091509150505481565b60008060009050600115156001600085815260200190815260200160002060040160009054906101000a900460ff16151514801561256757503373ffffffffffffffffffffffffffffffffffffffff166001600085815260200190815260200160002060020160009054906101000a900473ffffffffffffffffffffffffffffffffffffffff1673ffffffffffffffffffffffffffffffffffffffff16145b1561269757436001600085815260200190815260200160002060010181905550856001600085815260200190815260200160002060020160146101000a81548167ffffffffffffffff021916908367ffffffffffffffff1602179055508460016000858152602001908152602001600020600201601c6101000a81548161ffff021916908361ffff1602179055508367ffffffffffffffff1660016000858152602001908152602001600020600301819055506126256008846126f9565b905060088390806001815401808255809150509060018203906000526020600020016000909192909190915055507fa4c4c871d43d81be54f69ce74ea5bc289663a3cdf402d09baf09407085be02316006543360405161268692919061422d565b60405180910390a180915050612699565b505b949350505050565b606060098054806020026020016040519081016040528092919081815260200182805480156126ef57602002820191906000526020600020905b8154815260200190600101908083116126db575b5050505050905090565b600080600090505b83805490508167ffffffffffffffff1610156127d65782848267ffffffffffffffff1681548110151561273057fe5b906000526020600020015414156127c95783600185805490500381548110151561275657fe5b9060005260206000200154848267ffffffffffffffff1681548110151561277957fe5b906000526020600020018190555083600185805490500381548110151561279c57fe5b9060005260206000200160009055838054809190600190036127be91906133ff565b5060019150506127dc565b8080600101915050612701565b50600090505b92915050565b6000806009805490501415612819577f320000000000000000000000000000000000000000000000000000000000000090506129a6565b60008090505b6009805490508167ffffffffffffffff16101561298157600060098267ffffffffffffffff1681548110151561285157fe5b906000526020600020015490506001600085815260200190815260200160002060020160149054906101000a900467ffffffffffffffff1667ffffffffffffffff166002600083815260200190815260200160002060030160149054906101000a900467ffffffffffffffff1667ffffffffffffffff16108015612924575060016000858152602001908152602001600020600201601c9054906101000a900461ffff1661ffff1660026000838152602001908152602001600020600301601c9054906101000a900461ffff1661ffff16105b801561295b575060016000858152602001908152602001600020600301546002600083815260200190815260200160002060040154115b156129735761296a8185612f98565b925050506129a6565b50808060010191505061281f565b507f310000000000000000000000000000000000000000000000000000000000000090505b919050565b6000806002600084815260200190815260200160002060050160109054906101000a900467ffffffffffffffff169050600080905060008090505b6008805490508167ffffffffffffffff161015612c0857600060088267ffffffffffffffff16815481101515612a1857fe5b906000526020600020015490508367ffffffffffffffff168367ffffffffffffffff161015612bed576002600087815260200190815260200160002060030160009054906101000a900473ffffffffffffffffffffffffffffffffffffffff1673ffffffffffffffffffffffffffffffffffffffff166001600083815260200190815260200160002060020160009054906101000a900473ffffffffffffffffffffffffffffffffffffffff1673ffffffffffffffffffffffffffffffffffffffff16141515612be8577fc4f678ebfd7e29fd2b410c08e9adcef6a55d52ee8c9b379f90cb334d18438668866002600089815260200190815260200160002060020160009054906101000a900473ffffffffffffffffffffffffffffffffffffffff16836001600086815260200190815260200160002060020160009054906101000a900473ffffffffffffffffffffffffffffffffffffffff16604051612b8394939291906143ed565b60405180910390a1828060010193505060006001600083815260200190815260200160002060040160006101000a81548160ff0219169083151502179055506000612bcf6008836126f9565b9050801515612be657600095505050505050612c43565b505b612bfa565b6001945050505050612c43565b5080806001019150506129e6565b507f32e8745b1198a29ee11e0cbdbdaad4a01afae317e0d96d682345f5a53ac79b3284604051612c38919061449d565b60405180910390a150505b919050565b6000806008805490501415612c7f577f32000000000000000000000000000000000000000000000000000000000000009050612e0c565b60008090505b6008805490508167ffffffffffffffff161015612de757600060088267ffffffffffffffff16815481101515612cb757fe5b906000526020600020015490506001600082815260200190815260200160002060020160149054906101000a900467ffffffffffffffff1667ffffffffffffffff166002600086815260200190815260200160002060030160149054906101000a900467ffffffffffffffff1667ffffffffffffffff16108015612d8a575060016000828152602001908152602001600020600201601c9054906101000a900461ffff1661ffff1660026000868152602001908152602001600020600301601c9054906101000a900461ffff1661ffff16105b8015612dc1575060016000828152602001908152602001600020600301546002600086815260200190815260200160002060040154115b15612dd957612dd08482612f98565b92505050612e0c565b508080600101915050612c85565b507f310000000000000000000000000000000000000000000000000000000000000090505b919050565b6000806000905060008090505b60026000858152602001908152602001600020600701805490508167ffffffffffffffff161015612eb85760011515600260008681526020019081526020016000206006018267ffffffffffffffff16815481101515612e7a57fe5b90600052602060002090602091828204019190069054906101000a900460ff1615151415612eab5781806001019250505b8080600101915050612e1e565b506002600084815260200190815260200160002060050160109054906101000a900467ffffffffffffffff1667ffffffffffffffff168167ffffffffffffffff16101515612f345760016002600085815260200190815260200160002060080160006101000a81548160ff021916908315150217905550612f35565b5b7f32e8745b1198a29ee11e0cbdbdaad4a01afae317e0d96d682345f5a53ac79b3283604051612f6491906144f9565b60405180910390a16002600084815260200190815260200160002060080160009054906101000a900460ff16915050919050565b6000806001600084815260200190815260200160002060040160006101000a81548160ff0219169083151502179055506001600083815260200190815260200160002060020160009054906101000a900473ffffffffffffffffffffffffffffffffffffffff166002600085815260200190815260200160002060030160006101000a81548173ffffffffffffffffffffffffffffffffffffffff021916908373ffffffffffffffffffffffffffffffffffffffff1602179055507f31000000000000000000000000000000000000000000000000000000000000006002600085815260200190815260200160002060080160016101000a81548160ff02191690837f01000000000000000000000000000000000000000000000000000000000000009004021790555060008090506130d26009856126f9565b90506130df6008846126f9565b80156130e85750805b905080151561311a577f330000000000000000000000000000000000000000000000000000000000000091505061324b565b600a849080600181540180825580915050906001820390600052602060002001600090919290919091505550600260008581526020019081526020016000206004015460056000868152602001908152602001600020600082825401925050819055507fc4f678ebfd7e29fd2b410c08e9adcef6a55d52ee8c9b379f90cb334d18438668846002600087815260200190815260200160002060020160009054906101000a900473ffffffffffffffffffffffffffffffffffffffff16856001600088815260200190815260200160002060020160009054906101000a900473ffffffffffffffffffffffffffffffffffffffff1660405161321e9493929190614395565b60405180910390a17f30000000000000000000000000000000000000000000000000000000000000009150505b92915050565b615780604051908101604052806032905b61326a61342b565b8152602001906001900390816132625790505090565b612bc0604051908101604052806032905b613299613517565b8152602001906001900390816132915790505090565b60e0604051908101604052806000815260200160008152602001600073ffffffffffffffffffffffffffffffffffffffff168152602001600067ffffffffffffffff168152602001600061ffff168152602001600081526020016000151581525090565b6101c0604051908101604052806000815260200160008152602001600073ffffffffffffffffffffffffffffffffffffffff168152602001600073ffffffffffffffffffffffffffffffffffffffff168152602001600067ffffffffffffffff168152602001600061ffff16815260200160008152602001600067ffffffffffffffff168152602001600067ffffffffffffffff168152602001600067ffffffffffffffff168152602001606081526020016060815260200160001515815260200160007effffffffffffffffffffffffffffffffffffffffffffffffffffffffffffff191681525090565b81548183558181111561342657818360005260206000209182019101613425919061357b565b5b505050565b6101c0604051908101604052806000815260200160008152602001600073ffffffffffffffffffffffffffffffffffffffff168152602001600073ffffffffffffffffffffffffffffffffffffffff168152602001600067ffffffffffffffff168152602001600061ffff16815260200160008152602001600067ffffffffffffffff168152602001600067ffffffffffffffff168152602001600067ffffffffffffffff168152602001606081526020016060815260200160001515815260200160007effffffffffffffffffffffffffffffffffffffffffffffffffffffffffffff191681525090565b60e0604051908101604052806000815260200160008152602001600073ffffffffffffffffffffffffffffffffffffffff168152602001600067ffffffffffffffff168152602001600061ffff168152602001600081526020016000151581525090565b61359d91905b80821115613599576000816000905550600101613581565b5090565b90565b60006135ac82356147ee565b905092915050565b600082601f83011215156135c757600080fd5b81356135da6135d58261467d565b614650565b915081818352602084019350602081019050838560208402820111156135ff57600080fd5b60005b8381101561362f57816136158882613661565b845260208401935060208301925050600181019050613602565b5050505092915050565b60006136458235614800565b905092915050565b6000613659823561480c565b905092915050565b600061366d823561481a565b905092915050565b60006136818235614824565b905092915050565b60006020828403121561369b57600080fd5b60006136a9848285016135a0565b91505092915050565b600080604083850312156136c557600080fd5b60006136d3858286016135a0565b92505060206136e485828601613661565b9150509250929050565b60006020828403121561370057600080fd5b600082013567ffffffffffffffff81111561371a57600080fd5b613726848285016135b4565b91505092915050565b60006020828403121561374157600080fd5b600061374f84828501613661565b91505092915050565b60008060006060848603121561376d57600080fd5b600061377b86828701613661565b935050602061378c86828701613661565b925050604061379d86828701613639565b9150509250925092565b600080604083850312156137ba57600080fd5b60006137c885828601613661565b92505060206137d985828601613675565b9150509250929050565b6000806000606084860312156137f857600080fd5b600061380686828701613675565b93505060206138178682870161364d565b925050604061382886828701613661565b9150509250925092565b60008060006060848603121561384757600080fd5b600061385586828701613675565b93505060206138668682870161364d565b925050604061387786828701613675565b9150509250925092565b6000806000806080858703121561389757600080fd5b60006138a587828801613675565b94505060206138b68782880161364d565b93505060406138c787828801613675565b92505060606138d887828801613661565b91505092959194509250565b6138ed81614758565b82525050565b60006138fe826146e0565b808452602084019350613910836146a5565b60005b8281101561394257613926868351613ab4565b61392f82614717565b9150602086019550600181019050613913565b50849250505092915050565b613957816146eb565b613960826146b2565b60005b8281101561399257613976858351613e1a565b61397f82614724565b915060e085019450600181019050613963565b5050505050565b60006139a4826146f6565b836020820285016139b4856146bc565b60005b848110156139ed5783830388526139cf838351613fdd565b92506139da82614731565b91506020880197506001810190506139b7565b508196508694505050505092915050565b6000613a098261470c565b808452602084019350613a1b836146d3565b60005b82811015613a4d57613a31868351614121565b613a3a8261474b565b9150602086019550600181019050613a1e565b50849250505092915050565b6000613a6482614701565b808452602084019350613a76836146c6565b60005b82811015613aa857613a8c868351614121565b613a958261473e565b9150602086019550600181019050613a79565b50849250505092915050565b613abd8161476a565b82525050565b613acc81614776565b82525050565b6000601c82527f526571756573742061737369676e656420746f2050726f7669646572000000006020830152604082019050919050565b6000601082527f50726f76696465722055706461746564000000000000000000000000000000006020830152604082019050919050565b6000600f82527f52657175657374205570646174656400000000000000000000000000000000006020830152604082019050919050565b6000602382527f5265717565737420676f7420696e73756666696369656e742076616c6964617460208301527f696f6e00000000000000000000000000000000000000000000000000000000006040830152606082019050919050565b6000601f82527f56616c69646174696f6e2041737369676e656420746f2050726f7669646572006020830152604082019050919050565b6000600f82527f526571756573742053746f7070656400000000000000000000000000000000006020830152604082019050919050565b6000601d82527f5265717565737420436f6d7075746174696f6e20436f6d706c657465640000006020830152604082019050919050565b6000600e82527f50726f76696465722041646465640000000000000000000000000000000000006020830152604082019050919050565b6000601082527f50726f76696465722053746f70706564000000000000000000000000000000006020830152604082019050919050565b6000601082527f56616c696461746f72205369676e6564000000000000000000000000000000006020830152604082019050919050565b6000601382527f56616c69646174696f6e20436f6d706c657465000000000000000000000000006020830152604082019050919050565b6000600d82527f52657175657374204164646564000000000000000000000000000000000000006020830152604082019050919050565b60e082016000820151613da26000850182614121565b506020820151613db56020850182614121565b506040820151613dc860408501826138e4565b506060820151613ddb6060850182614130565b506080820151613dee6080850182614112565b5060a0820151613e0160a0850182614121565b5060c0820151613e1460c0850182613ab4565b50505050565b60e082016000820151613e306000850182614121565b506020820151613e436020850182614121565b506040820151613e5660408501826138e4565b506060820151613e696060850182614130565b506080820151613e7c6080850182614112565b5060a0820151613e8f60a0850182614121565b5060c0820151613ea260c0850182613ab4565b50505050565b60006101c083016000830151613ec16000860182614121565b506020830151613ed46020860182614121565b506040830151613ee760408601826138e4565b506060830151613efa60608601826138e4565b506080830151613f0d6080860182614130565b5060a0830151613f2060a0860182614112565b5060c0830151613f3360c0860182614121565b5060e0830151613f4660e0860182614130565b50610100830151613f5b610100860182614130565b50610120830151613f70610120860182614130565b50610140830151848203610140860152613f8a82826138f3565b915050610160830151848203610160860152613fa68282613a59565b915050610180830151613fbd610180860182613ab4565b506101a0830151613fd26101a0860182613ac3565b508091505092915050565b60006101c083016000830151613ff66000860182614121565b5060208301516140096020860182614121565b50604083015161401c60408601826138e4565b50606083015161402f60608601826138e4565b5060808301516140426080860182614130565b5060a083015161405560a0860182614112565b5060c083015161406860c0860182614121565b5060e083015161407b60e0860182614130565b50610100830151614090610100860182614130565b506101208301516140a5610120860182614130565b506101408301518482036101408601526140bf82826138f3565b9150506101608301518482036101608601526140db8282613a59565b9150506101808301516140f2610180860182613ab4565b506101a08301516141076101a0860182613ac3565b508091505092915050565b61411b816147a2565b82525050565b61412a816147d0565b82525050565b614139816147da565b82525050565b6000612bc082019050614155600083018461394e565b92915050565b600060208201905081810360008301526141758184613999565b905092915050565b6000602082019050818103600083015261419781846139fe565b905092915050565b60006020820190506141b46000830184613ab4565b92915050565b60006020820190506141cf6000830184613ac3565b92915050565b600060e0820190506141ea6000830184613d8c565b92915050565b6000602082019050818103600083015261420a8184613ea8565b905092915050565b60006020820190506142276000830184614121565b92915050565b60006060820190506142426000830185614121565b61424f60208301846138e4565b818103604083015261426081613b09565b90509392505050565b600060608201905061427e6000830185614121565b61428b60208301846138e4565b818103604083015261429c81613b40565b90509392505050565b60006060820190506142ba6000830185614121565b6142c760208301846138e4565b81810360408301526142d881613c0b565b90509392505050565b60006060820190506142f66000830185614121565b61430360208301846138e4565b818103604083015261431481613c79565b90509392505050565b60006060820190506143326000830185614121565b61433f60208301846138e4565b818103604083015261435081613cb0565b90509392505050565b600060608201905061436e6000830185614121565b61437b60208301846138e4565b818103604083015261438c81613d55565b90509392505050565b600060a0820190506143aa6000830187614121565b6143b760208301866138e4565b6143c46040830185614121565b6143d160608301846138e4565b81810360808301526143e281613ad2565b905095945050505050565b600060a0820190506144026000830187614121565b61440f60208301866138e4565b61441c6040830185614121565b61442960608301846138e4565b818103608083015261443a81613bd4565b905095945050505050565b600060a08201905061445a6000830187614121565b61446760208301866138e4565b6144746040830185614121565b61448160608301846138e4565b818103608083015261449281613ce7565b905095945050505050565b60006040820190506144b26000830184614121565b81810360208301526144c381613b77565b905092915050565b60006040820190506144e06000830184614121565b81810360208301526144f181613c42565b905092915050565b600060408201905061450e6000830184614121565b818103602083015261451f81613d1e565b905092915050565b60006101808201905061453d600083018f614121565b61454a602083018e614121565b614557604083018d6138e4565b614564606083018c6138e4565b614571608083018b614130565b61457e60a083018a614112565b61458b60c0830189614121565b61459860e0830188614130565b6145a6610100830187614130565b6145b4610120830186614130565b6145c2610140830185613ab4565b6145d0610160830184613ac3565b9d9c50505050505050505050505050565b600060e0820190506145f6600083018a614121565b6146036020830189614121565b61461060408301886138e4565b61461d6060830187614130565b61462a6080830186614112565b61463760a0830185614121565b61464460c0830184613ab4565b98975050505050505050565b6000604051905081810181811067ffffffffffffffff8211171561467357600080fd5b8060405250919050565b600067ffffffffffffffff82111561469457600080fd5b602082029050602081019050919050565b6000602082019050919050565b6000819050919050565b6000819050919050565b6000602082019050919050565b6000602082019050919050565b600081519050919050565b600060329050919050565b600060329050919050565b600081519050919050565b600081519050919050565b6000602082019050919050565b6000602082019050919050565b6000602082019050919050565b6000602082019050919050565b6000602082019050919050565b6000614763826147b0565b9050919050565b60008115159050919050565b60007fff0000000000000000000000000000000000000000000000000000000000000082169050919050565b600061ffff82169050919050565b600073ffffffffffffffffffffffffffffffffffffffff82169050919050565b6000819050919050565b600067ffffffffffffffff82169050919050565b60006147f9826147b0565b9050919050565b60008115159050919050565b600061ffff82169050919050565b6000819050919050565b600067ffffffffffffffff8216905091905056fea265627a7a72305820aa24e88aa637fcd8cd27122436c970c61b335420924263ea6681f840160995f46c6578706572696d656e74616cf50037",
  "source": "//BCAI main solidity contract\r\n//Author: Taurus, Landry\r\n//Copyright: tlu4@lsu.edu\r\n\r\n//version 0.9.5\r\n//support validation;\r\n\r\n//NOTE: functions sending TX cannot retrieve returnValues, only possible way is event\r\n// Instead function calls can return value directly.\r\n\r\npragma solidity ^0.5.0;\r\npragma experimental ABIEncoderV2;   //return self-defined type\r\n\r\ncontract TaskContract {\r\n    //config\r\n    bool autoAssign = true;            //whether auto assign the task\r\n    bool autoValidate = false;         //whether auto pair validation\r\n    bool autoFinalization = false;\r\n    //uint8 validates = 8;\r\n    \r\n    \r\n    //list\r\n    mapping (uint256 => Provider) public providerList;  //history\r\n    mapping (uint256 => Request) public requestList;    //history\r\n    \r\n    //mapping address with ID       //editing these mapping cost a lot\r\n    mapping (address => uint256[])  public providerMap;\r\n    mapping (address => uint256[])  public requestMap;\r\n \r\n    mapping (uint256 => uint256) public balanceList;    //reqID => balance\r\n    \r\n    //ID - counter\r\n    uint256 private providerCount;     //+1 each time\r\n    uint256 private requestCount;\r\n    //Pool: providers can be removed from the pool but requests must be in one of the pool\r\n    uint256[] providerPool;     //providers\r\n    uint256[] pendingPool;      //requests\r\n    uint256[] providingPool;    //requests\r\n    uint256[] validatingPool;   //requests\r\n    uint256[] donePool;         //requests  //NOTE: [Important] this array could increase unlimitedly -- only for testing\r\n\r\n    \r\n    \r\n\r\n    constructor() public {      //sol 5.0 syntax\r\n        delete providerPool;\r\n        delete pendingPool;\r\n        delete providingPool;\r\n        delete validatingPool;\r\n        providerCount = 0;\r\n        requestCount = 0;\r\n    }\r\n\r\n    struct Request {\r\n        uint256 reqID;                  //requestID is the only identifier for each Request\r\n        uint256 blockNumber;\r\n        address payable addr;           //payable is new feature from sol v5.0\r\n        //uint256 assignedProvider;\r\n        address payable provider;        \r\n        //address payable provider;     //addr of worker\r\n        uint64  time;                   //time\r\n        uint16  target;                 //target 0-100.00\r\n        uint256 price;                  //the max amount he can pay\r\n        uint64  dataID;                 //dataID used to fetch the off-chain data\r\n        uint64  resultID;               //dataID to fetch the result\r\n        uint64  numValidations;         //user defined the validation\r\n        //mapping (uint256 => bool) validationList;\r\n        bool[] signatures;\r\n        uint256 [] validators; //multisignature from validations\r\n        bool    isValid;                //the final flag\r\n        byte    status;                 //0: 'pending', 1:'providing', 2: validating, 3: complete, 7: deleted\r\n    }\r\n\r\n    struct Provider {\r\n        uint256 provID;\r\n        uint256 blockNumber;\r\n        address payable addr;       //providers address    \r\n                                    //TODO: the provider name registration.\r\n        uint64  maxTime;            //max time\r\n        uint16  maxTarget;          //max target he need\r\n        uint256 minPrice;           //lowest price can accept\r\n        bool    available;          //Used to determine if provider is already doing something\r\n    }\r\n    //event\r\n    //TODO: events optimization: many events have the similar structure, may be combined\r\n    event ProviderAdded     (uint256 provID, address payable addr);\r\n    event ProviderStopped   (uint256 provID, address payable addr);\r\n    event ProviderUpdated   (uint256 provID, address payable addr);\r\n    event TaskAssigned      (uint256 reqID, address payable reqAddr,\r\n                            uint256 provID, address payable provAddr);     // next step: call assignRequest\r\n    \r\n    event RequestAdded      (uint256 reqID, address payable addr);\r\n    event RequestUpdated    (uint256 reqID, address payable addr);\r\n    event RequestCanceled   (uint256 reqID, address payable addr);\r\n    \r\n    //event assignRequest      (uint256 reqID, address payable addr);\r\n    event ValidationAssigned(uint256 reqID, uint256 provID, address payable addr);    // next step: validator calls submitValidation\r\n    event NotEnoughValidation(uint256 reqID);\r\n    //event TaskCompleted         (address requestor, uint128 reqID);    // done\r\n    /////////////////////////////////////////////////////////////////////////////////////\r\n    event SystemInfo        (uint256 ID, address payable addr , bytes info);  //NOTE: bytes32 saves up to 32 charactors ONLY\r\n    event PairingInfo        (uint256 reqID, address payable reqAddr,\r\n                            uint256 provID, address payable provAddr, bytes info);\r\n    event UpdateInfo        (uint256 reqID, bytes info);\r\n    /////////////////////////////////////////////////////////////////////////////////////\r\n    // Function called to become a provider. New on List, Map and Pool. \r\n    // NOTE: cannot use to update. You must stop a previous one and start a new one.\r\n    // TIPS: gas cost: don't create local copy and write back, modify the storage directly.\r\n    function startProviding(uint64 maxTime, uint16 maxTarget, uint64 minPrice) public returns (byte) {\r\n        // register a new provider object in the List and map              \r\n        providerList[providerCount].provID         = providerCount;\r\n        providerList[providerCount].blockNumber    = block.number;\r\n        providerList[providerCount].addr           = msg.sender;             \r\n        providerList[providerCount].maxTime        = maxTime;       \r\n        providerList[providerCount].maxTarget      = maxTarget;\r\n        providerList[providerCount].minPrice       = minPrice;\r\n        \r\n        // add to map       //TODO: this cost 70000 gas\r\n        providerMap[msg.sender].push(providerCount);\r\n        // put it into the pool\r\n        providerPool.push(providerCount);\r\n        providerList[providerCount].available      = true;  //turn on the flag at LAST\r\n        // ready for the next       \r\n        //emit ProviderAdded(providerCount, msg.sender);\r\n        emit SystemInfo(providerCount, msg.sender, 'Provider Added');\r\n        providerCount++;\r\n        //try assign and handle return value\r\n        if(autoAssign) return assignProvider(providerCount-1);\r\n\r\n        \r\n    }\r\n    // Stop a provider, Must be sent from the provider address or it will be failed.\r\n    function stopProviding(uint256 provID) public returns (bool) {\r\n        // If the sender is currently an active provider\r\n        bool flag = false;\r\n        if (providerList[provID].available == true                 //can only stop available provider\r\n                && providerList[provID].addr == msg.sender) {      //you cannot delete other's provider            \r\n            //delete providerList[provID];                         //do NOT delete from List, keep a record\r\n            flag = ArrayPop(providerMap[msg.sender], provID);      //delete form Map\r\n            flag = ArrayPop(providerPool, provID) && flag;         //delete from Pool\r\n            providerList[provID].available == false;             \r\n        }\r\n        if(flag) //{emit ProviderStopped(provID, msg.sender);\r\n            emit SystemInfo(providerCount, msg.sender, 'Provider Stopped');\r\n        return flag;\r\n    }\r\n    //update a provider, you must know the provID and must sent from right addr\r\n    function updateProvider(uint64 maxTime, uint16 maxTarget, uint64 minPrice, uint256 provID) public returns (bool) {      \r\n        bool flag = false;\r\n        if(providerList[provID].available == true           //can only modify available provider\r\n        && providerList[provID].addr == msg.sender){        //you cannot modify other's config\r\n            providerList[provID].blockNumber    = block.number;         \r\n            providerList[provID].maxTime        = maxTime;       \r\n            providerList[provID].maxTarget      = maxTarget;\r\n            providerList[provID].minPrice       = minPrice;\r\n            //update pool       -- pop then push , because we need to scan pool anyway\r\n            flag = ArrayPop(providerPool,provID);           // pop first                                      \r\n            providerPool.push(provID);                      // push in both case anyway\r\n            //update map -- no need provID not changed.\r\n            //emit ProviderUpdated(provID, msg.sender);\r\n            emit SystemInfo(providerCount, msg.sender, 'Provider Updated');\r\n            return flag;\r\n        }\r\n    }\r\n\r\n    // Send a request from user to blockchain. (legacy name : RequestTask)\r\n    // Assumes price is including the cost for verification\r\n    function startRequest(uint64 dataID, uint16 target, uint64 time) payable public returns (byte) {\r\n        //register on List\r\n        requestList[requestCount].reqID         = requestCount;\r\n        requestList[requestCount].blockNumber   = block.number;  \r\n        requestList[requestCount].addr          = msg.sender;\r\n        requestList[requestCount].provider      = address(0);      \r\n        requestList[requestCount].time          = time;    \r\n        requestList[requestCount].target        = target;\r\n        requestList[requestCount].price         = msg.value;\r\n        requestList[requestCount].dataID        = dataID;\r\n        //requestList[requestCount].resultID  = 0;\r\n        requestList[requestCount].numValidations = 1;\r\n        //requestList[requestCount].validations = emptyArray;\r\n        //requestList[requestCount].isValid   = false;\r\n        \r\n        //add new to map\r\n        requestMap[msg.sender].push(requestCount);\r\n        \r\n        //add new to requestPool\r\n        pendingPool.push(requestCount);\r\n        requestList[requestCount].status = '0' ;     //web3.toAscii([hex])\r\n        //emit RequestAdded(requestCount, msg.sender);       \r\n        emit SystemInfo(requestCount, msg.sender,'Request Added');\r\n        requestCount++;\r\n        //try assign and handle return value\r\n        if (autoAssign) return assignRequest(requestCount-1);\r\n    }\r\n    function stopRequest(uint256 reqID) public returns (bool){\r\n        bool flag = false;\r\n        if (requestList[reqID].status == '0'                       //can only cancel pending request\r\n                && requestList[reqID].addr == msg.sender) {        //you cannot delete other's provider            \r\n            //delete requestList[reqID];                           //do NOT delete from List, keep a record\r\n            flag = ArrayPop(requestMap[msg.sender], reqID);        //delete form Map\r\n            flag = ArrayPop(pendingPool, reqID) && flag;           //delete from Pool             \r\n            requestList[reqID].status = '7';                       //'deleted'\r\n        }\r\n        if(flag) \r\n        //emit RequestCanceled(reqID, msg.sender);\r\n            emit SystemInfo(reqID, msg.sender, 'Request Stopped');\r\n        return flag;\r\n    }\r\n    function updateRequest(uint64 time, uint16 target, uint256 reqID) payable public returns (bool) {      \r\n        bool flag = false;\r\n        if(requestList[reqID].status == '0'                 //can only update pending request\r\n        && requestList[reqID].addr == msg.sender){          //you cannot modify other's config\r\n            requestList[reqID].blockNumber    = block.number;         \r\n            requestList[reqID].time        = time;       \r\n            requestList[reqID].target      = target;\r\n            requestList[reqID].price       = msg.value;\r\n            //update pool       -- pop then push , because we need to scan pool anyway\r\n            flag = ArrayPop(pendingPool,reqID);           // pop first                                      \r\n            pendingPool.push(reqID);                      // push in both case anyway\r\n            //update map -- no need provID not changed.\r\n            //emit RequestUpdated(reqID, msg.sender);\r\n            emit SystemInfo(reqID, msg.sender, 'Request Updated');\r\n            return flag;\r\n        }\r\n    }\r\n\r\n    /////////////////////////////////////////////////////////////////////////////////////////////////\r\n\r\n    // Search in the pendingPool, find a job for current provider. Triggered by startProviding\r\n    // Input: uint256 provider ID\r\n    // Returns: 0: successfully assigned\r\n    //          1: searched all providers but find no match\r\n    //          2: no available provider right now\r\n    //          3: failure during poping pool\r\n    function assignProvider(uint256 provID) private returns (byte){\r\n        //check whether there exists pending requests\r\n        if(pendingPool.length == 0) return '2';\r\n        else {\r\n            //search throught the pendingPool\r\n            for (uint64 i = 0; i < pendingPool.length; i++){\r\n                //save the re-usable reqID , may save gas\r\n                uint256 reqID = pendingPool[i]; //\r\n                if( requestList[reqID].time     < providerList[provID].maxTime &&\r\n                    requestList[reqID].target   < providerList[provID].maxTarget &&\r\n                    requestList[reqID].price    > providerList[provID].minPrice)\r\n                    return assign(reqID, provID);         //emit here btw       \r\n            }\r\n            //after for loop and no match\r\n            return '1';\r\n        }\r\n    }\r\n    \r\n    // Assigning one task to one of the available providers. Only called from startRequest (private)\r\n    // Search in the providerPool, could only assign one task at a time\r\n    // TODO: need to add preference next patch\r\n    // Returns: 0: successfully assigned\r\n    //          1: searched all providers but find no match\r\n    //          2: no available provider right now\r\n    //          3: failure during poping pool\r\n    function assignRequest(uint256 reqID) private returns (byte) {\r\n        //provider availability is checked in pool not in list\r\n        if (providerPool.length == 0)   return '2';\r\n        else {            //if any provider in pool\r\n            for (uint64 i = 0; i < providerPool.length; i++) {\r\n                // save the provider's addr, reusable and save gas cost\r\n                uint256 provID  = providerPool[i];\r\n                if( requestList[reqID].time     < providerList[provID].maxTime &&\r\n                    requestList[reqID].target   < providerList[provID].maxTarget &&\r\n                    requestList[reqID].price    > providerList[provID].minPrice)\r\n                    return assign(reqID, provID);   //emit here btw\r\n            }\r\n            // No provider was found matching the criteria -- request failed\r\n            //requestList[reqID].addr.transfer(requestList[reqID].price); // Returns the ether to the sender\r\n            return '1';\r\n        }       \r\n    }\r\n    \r\n    //supporting function :triggered by assignRequest or assignProvider, do the state change and pool move\r\n    function assign(uint256 reqID, uint256 provID) private returns (byte) {\r\n        //update provider\r\n        providerList[provID].available = false;\r\n        //update request\r\n        requestList[reqID].provider = providerList[provID].addr;\r\n        requestList[reqID].status = '1';    //providing\r\n        //update the pool, move ID#\r\n        bool isPopped = false;\r\n        isPopped = ArrayPop(pendingPool, reqID);\r\n        isPopped = ArrayPop(providerPool, provID) && isPopped;\r\n        if(!isPopped) return '3';\r\n        providingPool.push(reqID);\r\n        \r\n        //update balanceList            addr here is requester's\r\n        balanceList[reqID] += requestList[reqID].price; \r\n        //emit TaskAssigned(reqID,requestList[reqID].addr,  \r\n        //                provID, providerList[provID].addr);\r\n        emit PairingInfo (reqID,requestList[reqID].addr,  \r\n                provID, providerList[provID].addr, 'Request assigned to Provider');\r\n        return '0';   \r\n    }\r\n\r\n\r\n    ////////////////////////////////////////////////////////////////////////////////////////\r\n    // off-chain actions happen here!\r\n    // After assignment, provider will fetch off-chain data and \r\n    // update this action by sending a confirm online, (not necessarily).\r\n    // TODO: function providerGotData() public returns (byte){}\r\n    //\r\n    // Then provider will start computation right now.\r\n    // ....\r\n    // Return the result and call completeRequest\r\n    ////////////////////////////////////////////////////////////////////////////////////////\r\n    //Exceptions: \r\n    // 1.Computation aborted/fail == retry within time limit\r\n    // 2.timeout == refund request / status: providing -> pending\r\n    // ##$$ Golden Rule: Costomer is God, whoever PAYED must got result or refund.\r\n    // Deal with money using extreme caution!\r\n\r\n\r\n    // Provider will call this when they are done and the data is available.\r\n    // This will invoke the validation stage\r\n    function completeRequest(uint256 reqID, uint64 resultID) public returns (bool) {\r\n        // Confirm msg.sender is actually the provider of the task he claims\r\n        if (msg.sender == requestList[reqID].provider) {\r\n            //change request obj\r\n            requestList[reqID].status = '2';    //validating\r\n            requestList[reqID].resultID = resultID;\r\n            //move in pool\r\n            bool flag = false;\r\n            flag = ArrayPop(providingPool, reqID);\r\n            if(!flag) return false;\r\n            validatingPool.push(reqID);\r\n            //release provider (not necessarily depend on provider)\r\n            //providerList[providerID[msg.sender]].available = true;\r\n            //emit assignRequest(reqID, msg.sender);\r\n            emit UpdateInfo(reqID, 'Request Computation Completed');\r\n            //start validation process\r\n            if(autoValidate){\r\n                return validateRequest(reqID);\r\n            }else return true;\r\n        }\r\n        else {\r\n            return false;\r\n        }\r\n    }\r\n\r\n    // Called by assignRequest before finalizing stuff. Contract checks with validators\r\n    // Returns false if there wasnt enough free providers to send out the required number of validation requests\r\n    // need validation from 1/10 of nodes -- could change\r\n    function validateRequest(uint256 reqID) private returns (bool) {\r\n        uint64 numValidatorsNeeded = requestList[reqID].numValidations; \r\n        //uint numValidators = providerCount / 10; \r\n        uint64 validatorsFound = 0;\r\n        //requestList[reqID].numValidationsNeeded = numValidators;\r\n        //select # of available provider from the pool and force em to do the validation\r\n        for (uint64 i = 0; i < providerPool.length; i++) {\r\n            //get provider ID\r\n            uint256 provID = providerPool[i];\r\n            //validator and computer cannot be same\r\n            if(validatorsFound < numValidatorsNeeded){\r\n                if(providerList[provID].addr != requestList[reqID].provider){\r\n                    //qualified validator\r\n                    //EVENT: informs validator that they were selected and need to validate\r\n                    //emit ValidationAssigned(reqID, provID, providerList[provID].addr);\r\n                    emit PairingInfo(reqID, requestList[reqID].addr, \r\n                            provID, providerList[provID].addr, 'Validation Assigned to Provider');\r\n                    validatorsFound++;\r\n                    //remove the providers availablity and pop from pool\r\n                    providerList[provID].available = false;\r\n                    bool flag = ArrayPop(providerPool, provID);\r\n                    if (!flag) return false;\r\n                }       //else continue\r\n            }\r\n            else{       //enough validator\r\n                return true;\r\n                break;\r\n            }\r\n            //loop until certain # of validators selected\r\n        }   \r\n        //exit loop without enough validators\r\n        //emit NotEnoughValidation(reqID);    \r\n        emit UpdateInfo(reqID, 'Request got insufficient validation');\r\n    }\r\n    //////////////////////////////////////////////////////////////\r\n    // some cases here:\r\n    //  1. req is actually false\r\n    //      a. claim true   : cheating\r\n    //      b. claim false  : honest\r\n    //  2. req is actually true\r\n    //      a. claim true   : honest\r\n    //      b. claim false  : not likely\r\n    //////////////////////////////////////////////////////////////\r\n\r\n\r\n    // needs to be more secure by ensuring the submission is coming from someone legit \r\n    // similar to completeTask but this will sign the validation list of the target Task\r\n    //TODO: the money part is ommited for now\r\n    function submitValidation(uint256 reqID, uint256 provID, bool result) public returns (bool) {\r\n        // Pay the validator \r\n        // uint partialPayment = requestList[reqID].price / 100; // amount each validator is paid\r\n        // msg.sender.transfer(partialPayment);\r\n        // balanceList[requestList[reqID].addr] -= partialPayment;\r\n        if(\r\n            //requestList[reqID].addr != providerList[provID]    //validator can be requester\r\n            providerList[provID].addr != requestList[reqID].provider) //validator cannot be provider\r\n        {\r\n            requestList[reqID].validators.push(provID);             //push array\r\n            requestList[reqID].signatures.push(result);     //edit mapping\r\n        }\r\n        //emit ValidationInfo(reqID, provID, 'Validator Signed');\r\n        //check if valid\r\n        \r\n        emit PairingInfo(reqID, requestList[reqID].addr, \r\n                    provID, providerList[provID].addr, 'Validator Signed');\r\n       \r\n        // If enough validations have been submitted\r\n        if (requestList[reqID].validators.length == requestList[reqID].numValidations) {\r\n            //return checkValidation(reqID, requestList[reqID].price - requestList[reqID].numValidationsNeeded * partialPayment);\r\n            if(autoFinalization) return checkValidation(reqID);\r\n        }\r\n    }\r\n    \r\n    function checkValidation(uint256 reqID) private returns (bool) {\r\n        // Add up successful validations\r\n        uint64 successCount = 0;\r\n        for (uint64 i=0; i<requestList[reqID].validators.length; i++) {\r\n            if (requestList[reqID].signatures[i] == true) successCount++;\r\n        }\r\n        // if 2/3 of validation attempts were successful\r\n        // TODO: determine the fraction\r\n        if (successCount  >= requestList[reqID].numValidations) { \r\n            // if 2/3 of validations were valid then provider gets remainder of money\r\n            //requestList[reqID].provider.transfer(payment); \r\n            //balanceList[requestList[reqID].addr] -= payment;\r\n            //TODO: [important] leave out the payment part for now.\r\n            requestList[reqID].isValid = true; // Task was successfully completed! \r\n        }\r\n        // otherwise, work was invalid, the providers payment goes back to requester\r\n        else {\r\n            //requestList[reqID].addr.transfer(payment);\r\n            //balanceList[requestList[reqID].addr] -= payment;\r\n        }\r\n        // EVENT: task is done whether successful or not\r\n        //emit TaskCompleted(requestList[reqID].addr, reqID);\r\n        emit UpdateInfo(reqID, 'Validation Complete');\r\n        return requestList[reqID].isValid;\r\n    }\r\n\r\n//////////////////////////////////////////////////////////////////////\r\n/*  function startRequest(uint64 dataID, uint16 target, uint64 time) payable public returns (bool) {\r\n    //a legacy version of startRequest, using a local memory copy and write back\r\n    //NOTE: [important] this method may take most gas cost. Take this as an example\r\n    //Conclusion: only modify the necessary mapping item.\r\n        bool[] memory emptyArray;\r\n        Request memory req = Request(           //create a temp memory var\r\n            msg.sender,             //addr\r\n            address(0),             //provider\r\n            requestCount,           //reqID\r\n            dataID,                 //dataID\r\n            time,                   //time    \r\n            target,                 //target   0-100\r\n            msg.value,              //price \r\n            0,                      //resultID\r\n            1,                      //numValidationsNeeded\r\n            emptyArray,             //sig list\r\n            false,                  //isValid\r\n            0                       //status  0-3 0: pending\r\n        );\r\n\r\n        //copy the mem var into storage\r\n        requestList[requestCount] = req;        //requestCount used as index here, from 0 to +++\r\n        //add new to requestPool\r\n        requestPool.push(requestCount);\r\n        //update requestID\r\n        requestID[msg.sender].push(requestCount);\r\n        //update count\r\n        requestCount++;     //count already stands for the # of req now.\r\n        pendingCount++;\r\n        return assignRequest();\r\n    }\r\n*/\r\n/////////////////////////////////////////////////////////////////////\r\n    // Used to dynamically remove elements from array of open provider spaces. \r\n    // Using a swap and delete method, search for the desired addr throughout the whole array\r\n    // delete the desired and swap the whole with last element\r\n    function ArrayPop(uint256[] storage array, uint256 target) private returns (bool) {\r\n        for(uint64 i = 0; i < array.length; i++){\r\n            if (array[i] == target) {\r\n                //swap last element with hole\r\n                array[i] = array[array.length-1];\r\n                //delete last item\r\n                delete array[array.length-1];\r\n                //decrease size\r\n                array.length--;\r\n                return true;\r\n            }\r\n        }\r\n        return false;   //fail to search: no matching in pool\r\n    } \r\n    function getMyProvID() public view returns (uint256[] memory){\r\n        return providerMap[msg.sender];\r\n    }\r\n    function getMyReqID() public view returns (uint256[] memory){\r\n        return requestMap[msg.sender];\r\n    }\r\n    function getProviderID(address addr) public view returns (uint256[] memory){\r\n        return providerMap[addr];\r\n    }\r\n    function getRequestID(address addr) public view returns (uint256[] memory){\r\n        return requestMap[addr];\r\n    }\r\n\r\n    /////////////////////////////////////////////////////////////////////////////////\r\n    //some helpers defined here\r\n    /*function testTask() public {\r\n        emit TaskAssigned(msg.sender, 11, 22);\r\n    }*/\r\n    function getProvider(uint256 ID) public view returns(Provider memory){\r\n        return providerList[ID];\r\n    }\r\n    function getRequest(uint256 ID) public view returns (Request memory){\r\n\t    return requestList[ID];\r\n    }\r\n    function getProviderCount() public view returns (uint256){\r\n        return providerCount;\r\n    }\r\n    function getRequestCount() public view returns (uint256){\r\n        return requestCount;\r\n    }\r\n    function getProviderPool() public view returns (uint256[] memory){\r\n        return providerPool;\r\n    }\r\n    function getRequestPool() public view returns (uint256[] memory){\r\n        return pendingPool;\r\n    }\r\n    function getProvidingPool() public view returns (uint256[] memory){\r\n        return providingPool;\r\n    }\r\n    function getValidatingPool() public view returns (uint256[] memory){\r\n        return validatingPool;\r\n    }\r\n    function getProviderPoolSize() public view returns (uint256){\r\n        return providerPool.length;\r\n    }\r\n    function getRequestPoolSize() public view returns (uint256){\r\n        return pendingPool.length;\r\n    }\r\n    //function getBalance(address addr) public view returns (uint256){\r\n    //    return balanceList[addr];\r\n    //}\r\n    function listRequests(uint256[] memory IDList) public view returns(Request[50] memory){\r\n\t    Request[50] memory allRequest;\r\n\t    for (uint64 i = 0; i < IDList.length; i++){\r\n\t\t    allRequest[i] = getRequest(IDList[i]);\r\n\t    }\r\n\t    return allRequest;\r\n    }\r\n    function listProviders(uint256[] memory IDList) public view returns(Provider[50] memory){\r\n        Provider[50] memory allProvider;\r\n        //address addr;\r\n        for (uint64 i = 0; i < IDList.length;i++){\r\n            allProvider[i] = getProvider(IDList[i]);\r\n        }\r\n        return allProvider;\r\n    }\r\n    function listAllRequests() public view returns(Request[50] memory){\r\n\t    Request[50] memory allRequest;\r\n\t    for (uint64 i = 0; i < requestCount; i++){\r\n\t\t    allRequest[i] = getRequest(i);\r\n\t    }\r\n\t    return allRequest;\r\n    }\r\n    function listAllProviders() public view returns(Provider[50] memory){\r\n\t    Provider[50] memory allProvider;\r\n\t    for (uint64 i = 0; i < providerCount; i++){\r\n\t\t    allProvider[i] = getProvider(i);\r\n\t    }\r\n\t    return allProvider;\r\n    }\r\n    function listProviders() public view returns(Provider[50] memory){\r\n        Provider[50] memory allProvider;\r\n        //address addr;\r\n        for (uint64 i = 0; i < providerCount;i++){\r\n            /*if(providerPool.length > 0) {\r\n                addr = providerPool[i];     \r\n            }else {\r\n                addr = address(0);\r\n            }*/\r\n            allProvider[i] = getProvider(i);\r\n        }\r\n        return allProvider;\r\n    }\r\n    /*function listTestProviders() public view returns(Provider[3] memory){\r\n        Provider[3] memory allProvider;\r\n        for (uint64 i = 0; i < 3;i++){\r\n            allProvider[i] = getTestProvider(i);\r\n        }\r\n        return allProvider;\r\n    }*/\r\n\r\n}\r\n",
  "sourcePath": "F:/01-Academy/04-LSU ECE/Develop/gitLab/bcai_v0.9/contracts/bcai_0.9.4.sol",
  "compiler": {
    "name": "solc",
    "version": "0.5.1+commit.c8a2cb62.Emscripten.clang"
  },
  "schemaVersion": "3.0.0-beta.2",
  "updatedAt": "2018-12-11T01:52:46.091Z",
  "devdoc": {
    "methods": {}
  },
  "userdoc": {
    "methods": {
      "completeRequest(uint256,uint64)": {
        "notice": "/////////////////////////////////////////////////////////////////////////////////////"
      },
      "getProvider(uint256)": {
        "notice": "//////////////////////////////////////////////////////////////////////////////"
      },
      "startProviding(uint64,uint16,uint64)": {
        "notice": "//////////////////////////////////////////////////////////////////////////////////"
      },
      "submitValidation(uint256,uint256,bool)": {
        "notice": "///////////////////////////////////////////////////////////"
      }
    }
  }
}