{
  "contractName": "TaskContract",
  "abi": [
    {
      "constant": true,
      "inputs": [
        {
          "name": "",
          "type": "uint256"
        }
      ],
      "name": "requestList",
      "outputs": [
        {
          "name": "reqID",
          "type": "uint256"
        },
        {
          "name": "blockNumber",
          "type": "uint256"
        },
        {
          "name": "addr",
          "type": "address"
        },
        {
          "name": "provider",
          "type": "address"
        },
        {
          "name": "time",
          "type": "uint64"
        },
        {
          "name": "target",
          "type": "uint16"
        },
        {
          "name": "price",
          "type": "uint256"
        },
        {
          "name": "dataID",
          "type": "uint64"
        },
        {
          "name": "resultID",
          "type": "uint64"
        },
        {
          "name": "numValidations",
          "type": "uint64"
        },
        {
          "name": "isValid",
          "type": "bool"
        },
        {
          "name": "status",
          "type": "bytes1"
        }
      ],
      "payable": false,
      "stateMutability": "view",
      "type": "function",
      "signature": "0x02e9d43b"
    },
    {
      "constant": true,
      "inputs": [
        {
          "name": "",
          "type": "uint256"
        }
      ],
      "name": "providerList",
      "outputs": [
        {
          "name": "provID",
          "type": "uint256"
        },
        {
          "name": "blockNumber",
          "type": "uint256"
        },
        {
          "name": "addr",
          "type": "address"
        },
        {
          "name": "maxTime",
          "type": "uint64"
        },
        {
          "name": "maxTarget",
          "type": "uint16"
        },
        {
          "name": "minPrice",
          "type": "uint256"
        },
        {
          "name": "available",
          "type": "bool"
        }
      ],
      "payable": false,
      "stateMutability": "view",
      "type": "function",
      "signature": "0x390bfd3c"
    },
    {
      "constant": true,
      "inputs": [
        {
          "name": "",
          "type": "uint256"
        }
      ],
      "name": "balanceList",
      "outputs": [
        {
          "name": "",
          "type": "uint256"
        }
      ],
      "payable": false,
      "stateMutability": "view",
      "type": "function",
      "signature": "0x599b6808"
    },
    {
      "constant": true,
      "inputs": [
        {
          "name": "",
          "type": "address"
        },
        {
          "name": "",
          "type": "uint256"
        }
      ],
      "name": "providerMap",
      "outputs": [
        {
          "name": "",
          "type": "uint256"
        }
      ],
      "payable": false,
      "stateMutability": "view",
      "type": "function",
      "signature": "0xd2d5d74f"
    },
    {
      "constant": true,
      "inputs": [
        {
          "name": "",
          "type": "address"
        },
        {
          "name": "",
          "type": "uint256"
        }
      ],
      "name": "requestMap",
      "outputs": [
        {
          "name": "",
          "type": "uint256"
        }
      ],
      "payable": false,
      "stateMutability": "view",
      "type": "function",
      "signature": "0xd3cca02e"
    },
    {
      "inputs": [],
      "payable": false,
      "stateMutability": "nonpayable",
      "type": "constructor",
      "signature": "constructor"
    },
    {
      "anonymous": false,
      "inputs": [
        {
          "indexed": false,
          "name": "provID",
          "type": "uint256"
        },
        {
          "indexed": false,
          "name": "addr",
          "type": "address"
        }
      ],
      "name": "ProviderAdded",
      "type": "event",
      "signature": "0xafeb8d353a550fa93ee49e05f2ec51920688cec519f9c53be94a6ffffdf9a534"
    },
    {
      "anonymous": false,
      "inputs": [
        {
          "indexed": false,
          "name": "provID",
          "type": "uint256"
        },
        {
          "indexed": false,
          "name": "addr",
          "type": "address"
        }
      ],
      "name": "ProviderStopped",
      "type": "event",
      "signature": "0x37f095876e7fce8c776261edf08749c7a785891cfcdb3e45e1fe6f0a5085ddb0"
    },
    {
      "anonymous": false,
      "inputs": [
        {
          "indexed": false,
          "name": "provID",
          "type": "uint256"
        },
        {
          "indexed": false,
          "name": "addr",
          "type": "address"
        }
      ],
      "name": "ProviderUpdated",
      "type": "event",
      "signature": "0xd94c593c75e29861632520adc8ad754e10eb195d12baa4d1bf0bfcf23060b8b7"
    },
    {
      "anonymous": false,
      "inputs": [
        {
          "indexed": false,
          "name": "reqID",
          "type": "uint256"
        },
        {
          "indexed": false,
          "name": "reqAddr",
          "type": "address"
        },
        {
          "indexed": false,
          "name": "provID",
          "type": "uint256"
        },
        {
          "indexed": false,
          "name": "provAddr",
          "type": "address"
        }
      ],
      "name": "TaskAssigned",
      "type": "event",
      "signature": "0xc5e0672f97da4dc0ce37a461d9430942f96b915f315d4751d97368f4aa014363"
    },
    {
      "anonymous": false,
      "inputs": [
        {
          "indexed": false,
          "name": "reqID",
          "type": "uint256"
        },
        {
          "indexed": false,
          "name": "addr",
          "type": "address"
        }
      ],
      "name": "RequestAdded",
      "type": "event",
      "signature": "0x1547844676b0fd6479fc29c4babdeba187ee3bbc2b982bad5ad798b75675526d"
    },
    {
      "anonymous": false,
      "inputs": [
        {
          "indexed": false,
          "name": "reqID",
          "type": "uint256"
        },
        {
          "indexed": false,
          "name": "addr",
          "type": "address"
        }
      ],
      "name": "RequestUpdated",
      "type": "event",
      "signature": "0x4872ad1ba2f7842ef7ee71f43ab3c3ee611e2cfe5ea6bc4f5a3d5c77cfa48563"
    },
    {
      "anonymous": false,
      "inputs": [
        {
          "indexed": false,
          "name": "reqID",
          "type": "uint256"
        },
        {
          "indexed": false,
          "name": "addr",
          "type": "address"
        }
      ],
      "name": "RequestCanceled",
      "type": "event",
      "signature": "0x7e8e70bf979070497c1e07bfd1131dd24e7117f289dbb8cc96f57a367db6b317"
    },
    {
      "anonymous": false,
      "inputs": [
        {
          "indexed": false,
          "name": "reqID",
          "type": "uint256"
        },
        {
          "indexed": false,
          "name": "provID",
          "type": "uint256"
        },
        {
          "indexed": false,
          "name": "addr",
          "type": "address"
        }
      ],
      "name": "ValidationAssigned",
      "type": "event",
      "signature": "0xd92b3644be79c3a217633fd06de3db2935f0d8b41bd13ec4112727ec9451efc7"
    },
    {
      "anonymous": false,
      "inputs": [
        {
          "indexed": false,
          "name": "reqID",
          "type": "uint256"
        }
      ],
      "name": "NotEnoughValidation",
      "type": "event",
      "signature": "0x7ac9ad79ee3efb861e4bed1fb754239e30da48a583570606f05f892e3ce5857b"
    },
    {
      "anonymous": false,
      "inputs": [
        {
          "indexed": false,
          "name": "ID",
          "type": "uint256"
        },
        {
          "indexed": false,
          "name": "addr",
          "type": "address"
        },
        {
          "indexed": false,
          "name": "info",
          "type": "bytes"
        }
      ],
      "name": "SystemInfo",
      "type": "event",
      "signature": "0xa4c4c871d43d81be54f69ce74ea5bc289663a3cdf402d09baf09407085be0231"
    },
    {
      "anonymous": false,
      "inputs": [
        {
          "indexed": false,
          "name": "reqID",
          "type": "uint256"
        },
        {
          "indexed": false,
          "name": "reqAddr",
          "type": "address"
        },
        {
          "indexed": false,
          "name": "provID",
          "type": "uint256"
        },
        {
          "indexed": false,
          "name": "provAddr",
          "type": "address"
        },
        {
          "indexed": false,
          "name": "info",
          "type": "bytes"
        }
      ],
      "name": "PairingInfo",
      "type": "event",
      "signature": "0xc4f678ebfd7e29fd2b410c08e9adcef6a55d52ee8c9b379f90cb334d18438668"
    },
    {
      "constant": false,
      "inputs": [
        {
          "name": "maxTime",
          "type": "uint64"
        },
        {
          "name": "maxTarget",
          "type": "uint16"
        },
        {
          "name": "minPrice",
          "type": "uint64"
        }
      ],
      "name": "startProviding",
      "outputs": [
        {
          "name": "",
          "type": "bytes1"
        }
      ],
      "payable": false,
      "stateMutability": "nonpayable",
      "type": "function",
      "signature": "0x2ddfdbcc"
    },
    {
      "constant": false,
      "inputs": [
        {
          "name": "provID",
          "type": "uint256"
        }
      ],
      "name": "stopProviding",
      "outputs": [
        {
          "name": "",
          "type": "bool"
        }
      ],
      "payable": false,
      "stateMutability": "nonpayable",
      "type": "function",
      "signature": "0x15f14e89"
    },
    {
      "constant": false,
      "inputs": [
        {
          "name": "maxTime",
          "type": "uint64"
        },
        {
          "name": "maxTarget",
          "type": "uint16"
        },
        {
          "name": "minPrice",
          "type": "uint64"
        },
        {
          "name": "provID",
          "type": "uint256"
        }
      ],
      "name": "updateProvider",
      "outputs": [
        {
          "name": "",
          "type": "bool"
        }
      ],
      "payable": false,
      "stateMutability": "nonpayable",
      "type": "function",
      "signature": "0xdf4467ab"
    },
    {
      "constant": false,
      "inputs": [
        {
          "name": "dataID",
          "type": "uint64"
        },
        {
          "name": "target",
          "type": "uint16"
        },
        {
          "name": "time",
          "type": "uint64"
        }
      ],
      "name": "startRequest",
      "outputs": [
        {
          "name": "",
          "type": "bytes1"
        }
      ],
      "payable": true,
      "stateMutability": "payable",
      "type": "function",
      "signature": "0x58b93e0f"
    },
    {
      "constant": false,
      "inputs": [
        {
          "name": "reqID",
          "type": "uint256"
        }
      ],
      "name": "stopRequest",
      "outputs": [
        {
          "name": "",
          "type": "bool"
        }
      ],
      "payable": false,
      "stateMutability": "nonpayable",
      "type": "function",
      "signature": "0x90c0375d"
    },
    {
      "constant": false,
      "inputs": [
        {
          "name": "time",
          "type": "uint64"
        },
        {
          "name": "target",
          "type": "uint16"
        },
        {
          "name": "reqID",
          "type": "uint256"
        }
      ],
      "name": "updateRequest",
      "outputs": [
        {
          "name": "",
          "type": "bool"
        }
      ],
      "payable": true,
      "stateMutability": "payable",
      "type": "function",
      "signature": "0x79a0bb95"
    },
    {
      "constant": false,
      "inputs": [
        {
          "name": "reqID",
          "type": "uint256"
        },
        {
          "name": "resultID",
          "type": "uint64"
        }
      ],
      "name": "completeRequest",
      "outputs": [
        {
          "name": "",
          "type": "bool"
        }
      ],
      "payable": false,
      "stateMutability": "nonpayable",
      "type": "function",
      "signature": "0x375e26f5"
    },
    {
      "constant": true,
      "inputs": [],
      "name": "getMyProvID",
      "outputs": [
        {
          "name": "",
          "type": "uint256[]"
        }
      ],
      "payable": false,
      "stateMutability": "view",
      "type": "function",
      "signature": "0x34a7d799"
    },
    {
      "constant": true,
      "inputs": [],
      "name": "getMyReqID",
      "outputs": [
        {
          "name": "",
          "type": "uint256[]"
        }
      ],
      "payable": false,
      "stateMutability": "view",
      "type": "function",
      "signature": "0x269f3558"
    },
    {
      "constant": true,
      "inputs": [
        {
          "name": "addr",
          "type": "address"
        }
      ],
      "name": "getProviderID",
      "outputs": [
        {
          "name": "",
          "type": "uint256[]"
        }
      ],
      "payable": false,
      "stateMutability": "view",
      "type": "function",
      "signature": "0x91bbb902"
    },
    {
      "constant": true,
      "inputs": [
        {
          "name": "addr",
          "type": "address"
        }
      ],
      "name": "getRequestID",
      "outputs": [
        {
          "name": "",
          "type": "uint256[]"
        }
      ],
      "payable": false,
      "stateMutability": "view",
      "type": "function",
      "signature": "0x62e70505"
    },
    {
      "constant": true,
      "inputs": [
        {
          "name": "ID",
          "type": "uint256"
        }
      ],
      "name": "getProvider",
      "outputs": [
        {
          "components": [
            {
              "name": "provID",
              "type": "uint256"
            },
            {
              "name": "blockNumber",
              "type": "uint256"
            },
            {
              "name": "addr",
              "type": "address"
            },
            {
              "name": "maxTime",
              "type": "uint64"
            },
            {
              "name": "maxTarget",
              "type": "uint16"
            },
            {
              "name": "minPrice",
              "type": "uint256"
            },
            {
              "name": "available",
              "type": "bool"
            }
          ],
          "name": "",
          "type": "tuple"
        }
      ],
      "payable": false,
      "stateMutability": "view",
      "type": "function",
      "signature": "0x5c42d079"
    },
    {
      "constant": true,
      "inputs": [
        {
          "name": "ID",
          "type": "uint256"
        }
      ],
      "name": "getRequest",
      "outputs": [
        {
          "components": [
            {
              "name": "reqID",
              "type": "uint256"
            },
            {
              "name": "blockNumber",
              "type": "uint256"
            },
            {
              "name": "addr",
              "type": "address"
            },
            {
              "name": "provider",
              "type": "address"
            },
            {
              "name": "time",
              "type": "uint64"
            },
            {
              "name": "target",
              "type": "uint16"
            },
            {
              "name": "price",
              "type": "uint256"
            },
            {
              "name": "dataID",
              "type": "uint64"
            },
            {
              "name": "resultID",
              "type": "uint64"
            },
            {
              "name": "numValidations",
              "type": "uint64"
            },
            {
              "name": "validations",
              "type": "bool[]"
            },
            {
              "name": "isValid",
              "type": "bool"
            },
            {
              "name": "status",
              "type": "bytes1"
            }
          ],
          "name": "",
          "type": "tuple"
        }
      ],
      "payable": false,
      "stateMutability": "view",
      "type": "function",
      "signature": "0xc58343ef"
    },
    {
      "constant": true,
      "inputs": [],
      "name": "getProviderCount",
      "outputs": [
        {
          "name": "",
          "type": "uint256"
        }
      ],
      "payable": false,
      "stateMutability": "view",
      "type": "function",
      "signature": "0x46ce4175"
    },
    {
      "constant": true,
      "inputs": [],
      "name": "getRequestCount",
      "outputs": [
        {
          "name": "",
          "type": "uint256"
        }
      ],
      "payable": false,
      "stateMutability": "view",
      "type": "function",
      "signature": "0x3fad1834"
    },
    {
      "constant": true,
      "inputs": [],
      "name": "getProviderPool",
      "outputs": [
        {
          "name": "",
          "type": "uint256[]"
        }
      ],
      "payable": false,
      "stateMutability": "view",
      "type": "function",
      "signature": "0x9e723b97"
    },
    {
      "constant": true,
      "inputs": [],
      "name": "getRequestPool",
      "outputs": [
        {
          "name": "",
          "type": "uint256[]"
        }
      ],
      "payable": false,
      "stateMutability": "view",
      "type": "function",
      "signature": "0xe1a9daef"
    },
    {
      "constant": true,
      "inputs": [],
      "name": "getProviderPoolSize",
      "outputs": [
        {
          "name": "",
          "type": "uint256"
        }
      ],
      "payable": false,
      "stateMutability": "view",
      "type": "function",
      "signature": "0x353b2a1f"
    },
    {
      "constant": true,
      "inputs": [],
      "name": "getRequestPoolSize",
      "outputs": [
        {
          "name": "",
          "type": "uint256"
        }
      ],
      "payable": false,
      "stateMutability": "view",
      "type": "function",
      "signature": "0x5c4c8c4e"
    },
    {
      "constant": true,
      "inputs": [
        {
          "name": "IDList",
          "type": "uint256[]"
        }
      ],
      "name": "listRequests",
      "outputs": [
        {
          "components": [
            {
              "name": "reqID",
              "type": "uint256"
            },
            {
              "name": "blockNumber",
              "type": "uint256"
            },
            {
              "name": "addr",
              "type": "address"
            },
            {
              "name": "provider",
              "type": "address"
            },
            {
              "name": "time",
              "type": "uint64"
            },
            {
              "name": "target",
              "type": "uint16"
            },
            {
              "name": "price",
              "type": "uint256"
            },
            {
              "name": "dataID",
              "type": "uint64"
            },
            {
              "name": "resultID",
              "type": "uint64"
            },
            {
              "name": "numValidations",
              "type": "uint64"
            },
            {
              "name": "validations",
              "type": "bool[]"
            },
            {
              "name": "isValid",
              "type": "bool"
            },
            {
              "name": "status",
              "type": "bytes1"
            }
          ],
          "name": "",
          "type": "tuple[50]"
        }
      ],
      "payable": false,
      "stateMutability": "view",
      "type": "function",
      "signature": "0x0c9a90a3"
    },
    {
      "constant": true,
      "inputs": [],
      "name": "listAllRequests",
      "outputs": [
        {
          "components": [
            {
              "name": "reqID",
              "type": "uint256"
            },
            {
              "name": "blockNumber",
              "type": "uint256"
            },
            {
              "name": "addr",
              "type": "address"
            },
            {
              "name": "provider",
              "type": "address"
            },
            {
              "name": "time",
              "type": "uint64"
            },
            {
              "name": "target",
              "type": "uint16"
            },
            {
              "name": "price",
              "type": "uint256"
            },
            {
              "name": "dataID",
              "type": "uint64"
            },
            {
              "name": "resultID",
              "type": "uint64"
            },
            {
              "name": "numValidations",
              "type": "uint64"
            },
            {
              "name": "validations",
              "type": "bool[]"
            },
            {
              "name": "isValid",
              "type": "bool"
            },
            {
              "name": "status",
              "type": "bytes1"
            }
          ],
          "name": "",
          "type": "tuple[50]"
        }
      ],
      "payable": false,
      "stateMutability": "view",
      "type": "function",
      "signature": "0xc02ac059"
    },
    {
      "constant": true,
      "inputs": [],
      "name": "listAllProviders",
      "outputs": [
        {
          "components": [
            {
              "name": "provID",
              "type": "uint256"
            },
            {
              "name": "blockNumber",
              "type": "uint256"
            },
            {
              "name": "addr",
              "type": "address"
            },
            {
              "name": "maxTime",
              "type": "uint64"
            },
            {
              "name": "maxTarget",
              "type": "uint16"
            },
            {
              "name": "minPrice",
              "type": "uint256"
            },
            {
              "name": "available",
              "type": "bool"
            }
          ],
          "name": "",
          "type": "tuple[50]"
        }
      ],
      "payable": false,
      "stateMutability": "view",
      "type": "function",
      "signature": "0x6302d071"
    },
    {
      "constant": true,
      "inputs": [],
      "name": "listProviders",
      "outputs": [
        {
          "components": [
            {
              "name": "provID",
              "type": "uint256"
            },
            {
              "name": "blockNumber",
              "type": "uint256"
            },
            {
              "name": "addr",
              "type": "address"
            },
            {
              "name": "maxTime",
              "type": "uint64"
            },
            {
              "name": "maxTarget",
              "type": "uint16"
            },
            {
              "name": "minPrice",
              "type": "uint256"
            },
            {
              "name": "available",
              "type": "bool"
            }
          ],
          "name": "",
          "type": "tuple[50]"
        }
      ],
      "payable": false,
      "stateMutability": "view",
      "type": "function",
      "signature": "0x2bd395a0"
    },
    {
      "constant": true,
      "inputs": [
        {
          "name": "IDList",
          "type": "uint256[]"
        }
      ],
      "name": "listProviders",
      "outputs": [
        {
          "components": [
            {
              "name": "provID",
              "type": "uint256"
            },
            {
              "name": "blockNumber",
              "type": "uint256"
            },
            {
              "name": "addr",
              "type": "address"
            },
            {
              "name": "maxTime",
              "type": "uint64"
            },
            {
              "name": "maxTarget",
              "type": "uint16"
            },
            {
              "name": "minPrice",
              "type": "uint256"
            },
            {
              "name": "available",
              "type": "bool"
            }
          ],
          "name": "",
          "type": "tuple[50]"
        }
      ],
      "payable": false,
      "stateMutability": "view",
      "type": "function",
      "signature": "0xcac1125b"
    }
  ],
  "bytecode": "0x608060405260016000806101000a81548160ff02191690831515021790555060008060016101000a81548160ff0219169083151502179055503480156200004557600080fd5b50600860006200005691906200009c565b600960006200006691906200009c565b600a60006200007691906200009c565b600b60006200008691906200009c565b60006006819055506000600781905550620000e7565b5080546000825590600052602060002090810190620000bc9190620000bf565b50565b620000e491905b80821115620000e0576000816000905550600101620000c6565b5090565b90565b61425780620000f76000396000f3fe608060405260043610610175576000357c0100000000000000000000000000000000000000000000000000000000900463ffffffff16806302e9d43b1461017a5780630c9a90a3146101c257806315f14e89146101ff578063269f35581461023c5780632bd395a0146102675780632ddfdbcc1461029257806334a7d799146102cf578063353b2a1f146102fa578063375e26f514610325578063390bfd3c146103625780633fad1834146103a557806346ce4175146103d057806358b93e0f146103fb578063599b68081461042b5780635c42d079146104685780635c4c8c4e146104a557806362e70505146104d05780636302d0711461050d57806379a0bb951461053857806390c0375d1461056857806391bbb902146105a55780639e723b97146105e2578063c02ac0591461060d578063c58343ef14610638578063cac1125b14610675578063d2d5d74f146106b2578063d3cca02e146106ef578063df4467ab1461072c578063e1a9daef14610769575b600080fd5b34801561018657600080fd5b506101a1600480360361019c91908101906132ff565b610794565b6040516101b99c9b9a99989796959493929190613f3d565b60405180910390f35b3480156101ce57600080fd5b506101e960048036036101e491908101906132be565b6108cb565b6040516101f69190613bdb565b60405180910390f35b34801561020b57600080fd5b50610226600480360361022191908101906132ff565b610955565b6040516102339190613c1f565b60405180910390f35b34801561024857600080fd5b50610251610b3e565b60405161025e9190613bfd565b60405180910390f35b34801561027357600080fd5b5061027c610bd3565b6040516102899190613bbf565b60405180910390f35b34801561029e57600080fd5b506102b960048036036102b491908101906133b3565b610c45565b6040516102c69190613c3a565b60405180910390f35b3480156102db57600080fd5b506102e4610eba565b6040516102f19190613bfd565b60405180910390f35b34801561030657600080fd5b5061030f610f4f565b60405161031c9190613c92565b60405180910390f35b34801561033157600080fd5b5061034c60048036036103479190810190613328565b610f5c565b6040516103599190613c1f565b60405180910390f35b34801561036e57600080fd5b50610389600480360361038491908101906132ff565b611137565b60405161039c9796959493929190613ff7565b60405180910390f35b3480156103b157600080fd5b506103ba6111c8565b6040516103c79190613c92565b60405180910390f35b3480156103dc57600080fd5b506103e56111d2565b6040516103f29190613c92565b60405180910390f35b610415600480360361041091908101906133b3565b6111dc565b6040516104229190613c3a565b60405180910390f35b34801561043757600080fd5b50610452600480360361044d91908101906132ff565b61155f565b60405161045f9190613c92565b60405180910390f35b34801561047457600080fd5b5061048f600480360361048a91908101906132ff565b611577565b60405161049c9190613c55565b60405180910390f35b3480156104b157600080fd5b506104ba611686565b6040516104c79190613c92565b60405180910390f35b3480156104dc57600080fd5b506104f760048036036104f29190810190613259565b611693565b6040516105049190613bfd565b60405180910390f35b34801561051957600080fd5b5061052261172a565b60405161052f9190613bbf565b60405180910390f35b610552600480360361054d9190810190613364565b61179c565b60405161055f9190613c1f565b60405180910390f35b34801561057457600080fd5b5061058f600480360361058a91908101906132ff565b6119c4565b60405161059c9190613c1f565b60405180910390f35b3480156105b157600080fd5b506105cc60048036036105c79190810190613259565b611ca3565b6040516105d99190613bfd565b60405180910390f35b3480156105ee57600080fd5b506105f7611d3a565b6040516106049190613bfd565b60405180910390f35b34801561061957600080fd5b50610622611d92565b60405161062f9190613bdb565b60405180910390f35b34801561064457600080fd5b5061065f600480360361065a91908101906132ff565b611e04565b60405161066c9190613c70565b60405180910390f35b34801561068157600080fd5b5061069c600480360361069791908101906132be565b6120f7565b6040516106a99190613bbf565b60405180910390f35b3480156106be57600080fd5b506106d960048036036106d49190810190613282565b612181565b6040516106e69190613c92565b60405180910390f35b3480156106fb57600080fd5b5061071660048036036107119190810190613282565b6121b1565b6040516107239190613c92565b60405180910390f35b34801561073857600080fd5b50610753600480360361074e9190810190613402565b6121e1565b6040516107609190613c1f565b60405180910390f35b34801561077557600080fd5b5061077e6123ba565b60405161078b9190613bfd565b60405180910390f35b60026020528060005260406000206000915090508060000154908060010154908060020160009054906101000a900473ffffffffffffffffffffffffffffffffffffffff16908060030160009054906101000a900473ffffffffffffffffffffffffffffffffffffffff16908060030160149054906101000a900467ffffffffffffffff169080600301601c9054906101000a900461ffff16908060040154908060050160009054906101000a900467ffffffffffffffff16908060050160089054906101000a900467ffffffffffffffff16908060050160109054906101000a900467ffffffffffffffff16908060070160009054906101000a900460ff16908060070160019054906101000a90047f01000000000000000000000000000000000000000000000000000000000000000290508c565b6108d3612e1b565b6108db612e1b565b60008090505b83518167ffffffffffffffff16101561094b5761091e848267ffffffffffffffff1681518110151561090f57fe5b90602001906020020151611e04565b828267ffffffffffffffff1660328110151561093657fe5b602002018190525080806001019150506108e1565b5080915050919050565b60008060009050600115156001600085815260200190815260200160002060040160009054906101000a900460ff1615151480156109f457503373ffffffffffffffffffffffffffffffffffffffff166001600085815260200190815260200160002060020160009054906101000a900473ffffffffffffffffffffffffffffffffffffffff1673ffffffffffffffffffffffffffffffffffffffff16145b15610af3576001600084815260200190815260200160002060008082016000905560018201600090556002820160006101000a81549073ffffffffffffffffffffffffffffffffffffffff02191690556002820160146101000a81549067ffffffffffffffff021916905560028201601c6101000a81549061ffff021916905560038201600090556004820160006101000a81549060ff02191690555050610ada600360003373ffffffffffffffffffffffffffffffffffffffff1673ffffffffffffffffffffffffffffffffffffffff16815260200190815260200160002084612412565b9050610ae7600884612412565b8015610af05750805b90505b8015610b35577fa4c4c871d43d81be54f69ce74ea5bc289663a3cdf402d09baf09407085be023160065433604051610b2c929190613e15565b60405180910390a15b80915050919050565b6060600460003373ffffffffffffffffffffffffffffffffffffffff1673ffffffffffffffffffffffffffffffffffffffff168152602001908152602001600020805480602002602001604051908101604052809291908181526020018280548015610bc957602002820191906000526020600020905b815481526020019060010190808311610bb5575b5050505050905090565b610bdb612e4a565b610be3612e4a565b60008090505b6006548167ffffffffffffffff161015610c3d57610c108167ffffffffffffffff16611577565b828267ffffffffffffffff16603281101515610c2857fe5b60200201819052508080600101915050610be9565b508091505090565b60006006546001600060065481526020019081526020016000206000018190555043600160006006548152602001908152602001600020600101819055503360016000600654815260200190815260200160002060020160006101000a81548173ffffffffffffffffffffffffffffffffffffffff021916908373ffffffffffffffffffffffffffffffffffffffff1602179055508360016000600654815260200190815260200160002060020160146101000a81548167ffffffffffffffff021916908367ffffffffffffffff16021790555082600160006006548152602001908152602001600020600201601c6101000a81548161ffff021916908361ffff1602179055508167ffffffffffffffff1660016000600654815260200190815260200160002060030181905550600360003373ffffffffffffffffffffffffffffffffffffffff1673ffffffffffffffffffffffffffffffffffffffff1681526020019081526020016000206006549080600181540180825580915050906001820390600052602060002001600090919290919091505550600860065490806001815401808255809150509060018203906000526020600020016000909192909190915055506001806000600654815260200190815260200160002060040160006101000a81548160ff0219169083151502179055507fa4c4c871d43d81be54f69ce74ea5bc289663a3cdf402d09baf09407085be023160065433604051610e6f929190613dd9565b60405180910390a16006600081548092919060010191905055506000809054906101000a900460ff1615610eb257610eab6001600654036124fb565b9050610eb3565b5b9392505050565b6060600360003373ffffffffffffffffffffffffffffffffffffffff1673ffffffffffffffffffffffffffffffffffffffff168152602001908152602001600020805480602002602001604051908101604052809291908181526020018280548015610f4557602002820191906000526020600020905b815481526020019060010190808311610f31575b5050505050905090565b6000600880549050905090565b60006002600084815260200190815260200160002060030160009054906101000a900473ffffffffffffffffffffffffffffffffffffffff1673ffffffffffffffffffffffffffffffffffffffff163373ffffffffffffffffffffffffffffffffffffffff16141561112c577f32000000000000000000000000000000000000000000000000000000000000006002600085815260200190815260200160002060070160016101000a81548160ff02191690837f010000000000000000000000000000000000000000000000000000000000000090040217905550816002600085815260200190815260200160002060050160086101000a81548167ffffffffffffffff021916908367ffffffffffffffff1602179055506000809050611084600a85612412565b9050801515611097576000915050611131565b600b8490806001815401808255809150509060018203906000526020600020016000909192909190915055507fa4c4c871d43d81be54f69ce74ea5bc289663a3cdf402d09baf09407085be023184336040516110f4929190613d9d565b60405180910390a1600060019054906101000a900460ff16156111225761111a846126c4565b915050611131565b6001915050611131565b600090505b92915050565b60016020528060005260406000206000915090508060000154908060010154908060020160009054906101000a900473ffffffffffffffffffffffffffffffffffffffff16908060020160149054906101000a900467ffffffffffffffff169080600201601c9054906101000a900461ffff16908060030154908060040160009054906101000a900460ff16905087565b6000600754905090565b6000600654905090565b60006007546002600060075481526020019081526020016000206000018190555043600260006007548152602001908152602001600020600101819055503360026000600754815260200190815260200160002060020160006101000a81548173ffffffffffffffffffffffffffffffffffffffff021916908373ffffffffffffffffffffffffffffffffffffffff160217905550600060026000600754815260200190815260200160002060030160006101000a81548173ffffffffffffffffffffffffffffffffffffffff021916908373ffffffffffffffffffffffffffffffffffffffff1602179055508160026000600754815260200190815260200160002060030160146101000a81548167ffffffffffffffff021916908367ffffffffffffffff16021790555082600260006007548152602001908152602001600020600301601c6101000a81548161ffff021916908361ffff16021790555034600260006007548152602001908152602001600020600401819055508360026000600754815260200190815260200160002060050160006101000a81548167ffffffffffffffff021916908367ffffffffffffffff160217905550600160026000600754815260200190815260200160002060050160106101000a81548167ffffffffffffffff021916908367ffffffffffffffff160217905550600460003373ffffffffffffffffffffffffffffffffffffffff1673ffffffffffffffffffffffffffffffffffffffff1681526020019081526020016000206007549080600181540180825580915050906001820390600052602060002001600090919290919091505550600960075490806001815401808255809150509060018203906000526020600020016000909192909190915055507f300000000000000000000000000000000000000000000000000000000000000060026000600754815260200190815260200160002060070160016101000a81548160ff02191690837f0100000000000000000000000000000000000000000000000000000000000000900402179055507fa4c4c871d43d81be54f69ce74ea5bc289663a3cdf402d09baf09407085be023160075433604051611514929190613e51565b60405180910390a16007600081548092919060010191905055506000809054906101000a900460ff161561155757611550600160075403612999565b9050611558565b5b9392505050565b60056020528060005260406000206000915090505481565b61157f612e79565b6001600083815260200190815260200160002060e0604051908101604052908160008201548152602001600182015481526020016002820160009054906101000a900473ffffffffffffffffffffffffffffffffffffffff1673ffffffffffffffffffffffffffffffffffffffff1673ffffffffffffffffffffffffffffffffffffffff1681526020016002820160149054906101000a900467ffffffffffffffff1667ffffffffffffffff1667ffffffffffffffff16815260200160028201601c9054906101000a900461ffff1661ffff1661ffff168152602001600382015481526020016004820160009054906101000a900460ff1615151515815250509050919050565b6000600980549050905090565b6060600460008373ffffffffffffffffffffffffffffffffffffffff1673ffffffffffffffffffffffffffffffffffffffff16815260200190815260200160002080548060200260200160405190810160405280929190818152602001828054801561171e57602002820191906000526020600020905b81548152602001906001019080831161170a575b50505050509050919050565b611732612e4a565b61173a612e4a565b60008090505b6006548167ffffffffffffffff161015611794576117678167ffffffffffffffff16611577565b828267ffffffffffffffff1660328110151561177f57fe5b60200201819052508080600101915050611740565b508091505090565b600080600090507f30000000000000000000000000000000000000000000000000000000000000006002600085815260200190815260200160002060070160019054906101000a90047f0100000000000000000000000000000000000000000000000000000000000000027effffffffffffffffffffffffffffffffffffffffffffffffffffffffffffff191614801561189757503373ffffffffffffffffffffffffffffffffffffffff166002600085815260200190815260200160002060020160009054906101000a900473ffffffffffffffffffffffffffffffffffffffff1673ffffffffffffffffffffffffffffffffffffffff16145b156119bb57436002600085815260200190815260200160002060010181905550846002600085815260200190815260200160002060030160146101000a81548167ffffffffffffffff021916908367ffffffffffffffff1602179055508360026000858152602001908152602001600020600301601c6101000a81548161ffff021916908361ffff16021790555034600260008581526020019081526020016000206004018190555061194b600984612412565b905060098390806001815401808255809150509060018203906000526020600020016000909192909190915055507fa4c4c871d43d81be54f69ce74ea5bc289663a3cdf402d09baf09407085be023183336040516119aa929190613ce9565b60405180910390a1809150506119bd565b505b9392505050565b600080600090507f30000000000000000000000000000000000000000000000000000000000000006002600085815260200190815260200160002060070160019054906101000a90047f0100000000000000000000000000000000000000000000000000000000000000027effffffffffffffffffffffffffffffffffffffffffffffffffffffffffffff1916148015611abf57503373ffffffffffffffffffffffffffffffffffffffff166002600085815260200190815260200160002060020160009054906101000a900473ffffffffffffffffffffffffffffffffffffffff1673ffffffffffffffffffffffffffffffffffffffff16145b15611c5a576002600084815260200190815260200160002060008082016000905560018201600090556002820160006101000a81549073ffffffffffffffffffffffffffffffffffffffff02191690556003820160006101000a81549073ffffffffffffffffffffffffffffffffffffffff02191690556003820160146101000a81549067ffffffffffffffff021916905560038201601c6101000a81549061ffff021916905560048201600090556005820160006101000a81549067ffffffffffffffff02191690556005820160086101000a81549067ffffffffffffffff02191690556005820160106101000a81549067ffffffffffffffff0219169055600682016000611bcf9190612edd565b6007820160006101000a81549060ff02191690556007820160016101000a81549060ff02191690555050611c41600460003373ffffffffffffffffffffffffffffffffffffffff1673ffffffffffffffffffffffffffffffffffffffff16815260200190815260200160002084612412565b9050611c4e600984612412565b8015611c575750805b90505b8015611c9a577fa4c4c871d43d81be54f69ce74ea5bc289663a3cdf402d09baf09407085be02318333604051611c91929190613d25565b60405180910390a15b80915050919050565b6060600360008373ffffffffffffffffffffffffffffffffffffffff1673ffffffffffffffffffffffffffffffffffffffff168152602001908152602001600020805480602002602001604051908101604052809291908181526020018280548015611d2e57602002820191906000526020600020905b815481526020019060010190808311611d1a575b50505050509050919050565b60606008805480602002602001604051908101604052809291908181526020018280548015611d8857602002820191906000526020600020905b815481526020019060010190808311611d74575b5050505050905090565b611d9a612e1b565b611da2612e1b565b60008090505b6007548167ffffffffffffffff161015611dfc57611dcf8167ffffffffffffffff16611e04565b828267ffffffffffffffff16603281101515611de757fe5b60200201819052508080600101915050611da8565b508091505090565b611e0c612f05565b600260008381526020019081526020016000206101a0604051908101604052908160008201548152602001600182015481526020016002820160009054906101000a900473ffffffffffffffffffffffffffffffffffffffff1673ffffffffffffffffffffffffffffffffffffffff1673ffffffffffffffffffffffffffffffffffffffff1681526020016003820160009054906101000a900473ffffffffffffffffffffffffffffffffffffffff1673ffffffffffffffffffffffffffffffffffffffff1673ffffffffffffffffffffffffffffffffffffffff1681526020016003820160149054906101000a900467ffffffffffffffff1667ffffffffffffffff1667ffffffffffffffff16815260200160038201601c9054906101000a900461ffff1661ffff1661ffff168152602001600482015481526020016005820160009054906101000a900467ffffffffffffffff1667ffffffffffffffff1667ffffffffffffffff1681526020016005820160089054906101000a900467ffffffffffffffff1667ffffffffffffffff1667ffffffffffffffff1681526020016005820160109054906101000a900467ffffffffffffffff1667ffffffffffffffff1667ffffffffffffffff1681526020016006820180548060200260200160405190810160405280929190818152602001828054801561205257602002820191906000526020600020906000905b82829054906101000a900460ff1615158152602001906001019060208260000104928301926001038202915080841161201c5790505b505050505081526020016007820160009054906101000a900460ff161515151581526020016007820160019054906101000a90047f0100000000000000000000000000000000000000000000000000000000000000027effffffffffffffffffffffffffffffffffffffffffffffffffffffffffffff19167effffffffffffffffffffffffffffffffffffffffffffffffffffffffffffff1916815250509050919050565b6120ff612e4a565b612107612e4a565b60008090505b83518167ffffffffffffffff1610156121775761214a848267ffffffffffffffff1681518110151561213b57fe5b90602001906020020151611577565b828267ffffffffffffffff1660328110151561216257fe5b6020020181905250808060010191505061210d565b5080915050919050565b60036020528160005260406000208181548110151561219c57fe5b90600052602060002001600091509150505481565b6004602052816000526040600020818154811015156121cc57fe5b90600052602060002001600091509150505481565b60008060009050600115156001600085815260200190815260200160002060040160009054906101000a900460ff16151514801561228057503373ffffffffffffffffffffffffffffffffffffffff166001600085815260200190815260200160002060020160009054906101000a900473ffffffffffffffffffffffffffffffffffffffff1673ffffffffffffffffffffffffffffffffffffffff16145b156123b057436001600085815260200190815260200160002060010181905550856001600085815260200190815260200160002060020160146101000a81548167ffffffffffffffff021916908367ffffffffffffffff1602179055508460016000858152602001908152602001600020600201601c6101000a81548161ffff021916908361ffff1602179055508367ffffffffffffffff16600160008581526020019081526020016000206003018190555061233e600884612412565b905060088390806001815401808255809150509060018203906000526020600020016000909192909190915055507fa4c4c871d43d81be54f69ce74ea5bc289663a3cdf402d09baf09407085be02316006543360405161239f929190613cad565b60405180910390a1809150506123b2565b505b949350505050565b6060600980548060200260200160405190810160405280929190818152602001828054801561240857602002820191906000526020600020905b8154815260200190600101908083116123f4575b5050505050905090565b600080600090505b83805490508167ffffffffffffffff1610156124ef5782848267ffffffffffffffff1681548110151561244957fe5b906000526020600020015414156124e25783600185805490500381548110151561246f57fe5b9060005260206000200154848267ffffffffffffffff1681548110151561249257fe5b90600052602060002001819055508360018580549050038154811015156124b557fe5b9060005260206000200160009055838054809190600190036124d79190612fea565b5060019150506124f5565b808060010191505061241a565b50600090505b92915050565b6000806009805490501415612532577f320000000000000000000000000000000000000000000000000000000000000090506126bf565b60008090505b6009805490508167ffffffffffffffff16101561269a57600060098267ffffffffffffffff1681548110151561256a57fe5b906000526020600020015490506001600085815260200190815260200160002060020160149054906101000a900467ffffffffffffffff1667ffffffffffffffff166002600083815260200190815260200160002060030160149054906101000a900467ffffffffffffffff1667ffffffffffffffff1610801561263d575060016000858152602001908152602001600020600201601c9054906101000a900461ffff1661ffff1660026000838152602001908152602001600020600301601c9054906101000a900461ffff1661ffff16105b8015612674575060016000858152602001908152602001600020600301546002600083815260200190815260200160002060040154115b1561268c576126838185612b62565b925050506126bf565b508080600101915050612538565b507f310000000000000000000000000000000000000000000000000000000000000090505b919050565b6000806002600084815260200190815260200160002060050160109054906101000a900467ffffffffffffffff169050600080905060008090505b6008805490508167ffffffffffffffff16101561292157600060088267ffffffffffffffff1681548110151561273157fe5b906000526020600020015490508367ffffffffffffffff168367ffffffffffffffff161015612906576002600087815260200190815260200160002060030160009054906101000a900473ffffffffffffffffffffffffffffffffffffffff1673ffffffffffffffffffffffffffffffffffffffff166001600083815260200190815260200160002060020160009054906101000a900473ffffffffffffffffffffffffffffffffffffffff1673ffffffffffffffffffffffffffffffffffffffff16141515612901577fc4f678ebfd7e29fd2b410c08e9adcef6a55d52ee8c9b379f90cb334d18438668866002600089815260200190815260200160002060020160009054906101000a900473ffffffffffffffffffffffffffffffffffffffff16836001600086815260200190815260200160002060020160009054906101000a900473ffffffffffffffffffffffffffffffffffffffff1660405161289c9493929190613ee5565b60405180910390a1828060010193505060006001600083815260200190815260200160002060040160006101000a81548160ff02191690831515021790555060006128e8600883612412565b90508015156128ff57600095505050505050612994565b505b612913565b6001945050505050612994565b5080806001019150506126ff565b507fa4c4c871d43d81be54f69ce74ea5bc289663a3cdf402d09baf09407085be0231846002600087815260200190815260200160002060020160009054906101000a900473ffffffffffffffffffffffffffffffffffffffff16604051612989929190613d61565b60405180910390a150505b919050565b60008060088054905014156129d0577f32000000000000000000000000000000000000000000000000000000000000009050612b5d565b60008090505b6008805490508167ffffffffffffffff161015612b3857600060088267ffffffffffffffff16815481101515612a0857fe5b906000526020600020015490506001600082815260200190815260200160002060020160149054906101000a900467ffffffffffffffff1667ffffffffffffffff166002600086815260200190815260200160002060030160149054906101000a900467ffffffffffffffff1667ffffffffffffffff16108015612adb575060016000828152602001908152602001600020600201601c9054906101000a900461ffff1661ffff1660026000868152602001908152602001600020600301601c9054906101000a900461ffff1661ffff16105b8015612b12575060016000828152602001908152602001600020600301546002600086815260200190815260200160002060040154115b15612b2a57612b218482612b62565b92505050612b5d565b5080806001019150506129d6565b507f310000000000000000000000000000000000000000000000000000000000000090505b919050565b6000806001600084815260200190815260200160002060040160006101000a81548160ff0219169083151502179055506001600083815260200190815260200160002060020160009054906101000a900473ffffffffffffffffffffffffffffffffffffffff166002600085815260200190815260200160002060030160006101000a81548173ffffffffffffffffffffffffffffffffffffffff021916908373ffffffffffffffffffffffffffffffffffffffff1602179055507f31000000000000000000000000000000000000000000000000000000000000006002600085815260200190815260200160002060070160016101000a81548160ff02191690837f0100000000000000000000000000000000000000000000000000000000000000900402179055506000809050612c9c600985612412565b9050612ca9600884612412565b8015612cb25750805b9050801515612ce4577f3300000000000000000000000000000000000000000000000000000000000000915050612e15565b600a849080600181540180825580915050906001820390600052602060002001600090919290919091505550600260008581526020019081526020016000206004015460056000868152602001908152602001600020600082825401925050819055507fc4f678ebfd7e29fd2b410c08e9adcef6a55d52ee8c9b379f90cb334d18438668846002600087815260200190815260200160002060020160009054906101000a900473ffffffffffffffffffffffffffffffffffffffff16856001600088815260200190815260200160002060020160009054906101000a900473ffffffffffffffffffffffffffffffffffffffff16604051612de89493929190613e8d565b60405180910390a17f30000000000000000000000000000000000000000000000000000000000000009150505b92915050565b615140604051908101604052806032905b612e34613016565b815260200190600190039081612e2c5790505090565b612bc0604051908101604052806032905b612e636130fb565b815260200190600190039081612e5b5790505090565b60e0604051908101604052806000815260200160008152602001600073ffffffffffffffffffffffffffffffffffffffff168152602001600067ffffffffffffffff168152602001600061ffff168152602001600081526020016000151581525090565b50805460008255601f016020900490600052602060002090810190612f02919061315f565b50565b6101a0604051908101604052806000815260200160008152602001600073ffffffffffffffffffffffffffffffffffffffff168152602001600073ffffffffffffffffffffffffffffffffffffffff168152602001600067ffffffffffffffff168152602001600061ffff16815260200160008152602001600067ffffffffffffffff168152602001600067ffffffffffffffff168152602001600067ffffffffffffffff1681526020016060815260200160001515815260200160007effffffffffffffffffffffffffffffffffffffffffffffffffffffffffffff191681525090565b81548183558181111561301157818360005260206000209182019101613010919061315f565b5b505050565b6101a0604051908101604052806000815260200160008152602001600073ffffffffffffffffffffffffffffffffffffffff168152602001600073ffffffffffffffffffffffffffffffffffffffff168152602001600067ffffffffffffffff168152602001600061ffff16815260200160008152602001600067ffffffffffffffff168152602001600067ffffffffffffffff168152602001600067ffffffffffffffff1681526020016060815260200160001515815260200160007effffffffffffffffffffffffffffffffffffffffffffffffffffffffffffff191681525090565b60e0604051908101604052806000815260200160008152602001600073ffffffffffffffffffffffffffffffffffffffff168152602001600067ffffffffffffffff168152602001600061ffff168152602001600081526020016000151581525090565b61318191905b8082111561317d576000816000905550600101613165565b5090565b90565b600061319082356141df565b905092915050565b600082601f83011215156131ab57600080fd5b81356131be6131b982614093565b614066565b915081818352602084019350602081019050838560208402820111156131e357600080fd5b60005b8381101561321357816131f98882613231565b8452602084019350602083019250506001810190506131e6565b5050505092915050565b600061322982356141f1565b905092915050565b600061323d82356141ff565b905092915050565b60006132518235614209565b905092915050565b60006020828403121561326b57600080fd5b600061327984828501613184565b91505092915050565b6000806040838503121561329557600080fd5b60006132a385828601613184565b92505060206132b485828601613231565b9150509250929050565b6000602082840312156132d057600080fd5b600082013567ffffffffffffffff8111156132ea57600080fd5b6132f684828501613198565b91505092915050565b60006020828403121561331157600080fd5b600061331f84828501613231565b91505092915050565b6000806040838503121561333b57600080fd5b600061334985828601613231565b925050602061335a85828601613245565b9150509250929050565b60008060006060848603121561337957600080fd5b600061338786828701613245565b93505060206133988682870161321d565b92505060406133a986828701613231565b9150509250925092565b6000806000606084860312156133c857600080fd5b60006133d686828701613245565b93505060206133e78682870161321d565b92505060406133f886828701613245565b9150509250925092565b6000806000806080858703121561341857600080fd5b600061342687828801613245565b94505060206134378782880161321d565b935050604061344887828801613245565b925050606061345987828801613231565b91505092959194509250565b61346e81614149565b82525050565b600061347f826140e9565b808452602084019350613491836140bb565b60005b828110156134c3576134a78683516135da565b6134b082614115565b9150602086019550600181019050613494565b50849250505092915050565b6134d8816140f4565b6134e1826140c8565b60005b82811015613513576134f78583516138d2565b61350082614122565b915060e0850194506001810190506134e4565b5050505050565b6000613525826140ff565b83602082028501613535856140d2565b60005b8481101561356e578383038852613550838351613a79565b925061355b8261412f565b9150602088019750600181019050613538565b508196508694505050505092915050565b600061358a8261410a565b80845260208401935061359c836140dc565b60005b828110156135ce576135b2868351613ba1565b6135bb8261413c565b915060208601955060018101905061359f565b50849250505092915050565b6135e38161415b565b82525050565b6135f281614167565b82525050565b6000601c82527f526571756573742061737369676e656420746f2050726f7669646572000000006020830152604082019050919050565b6000601082527f50726f76696465722055706461746564000000000000000000000000000000006020830152604082019050919050565b6000600f82527f52657175657374205570646174656400000000000000000000000000000000006020830152604082019050919050565b6000601082527f526571756573742043616e63656c6564000000000000000000000000000000006020830152604082019050919050565b6000602382527f5265717565737420676f7420696e73756666696369656e742076616c6964617460208301527f696f6e00000000000000000000000000000000000000000000000000000000006040830152606082019050919050565b6000601f82527f56616c69646174696f6e2041737369676e656420746f2050726f7669646572006020830152604082019050919050565b6000601d82527f5265717565737420436f6d7075746174696f6e20436f6d706c657465640000006020830152604082019050919050565b6000600e82527f50726f76696465722041646465640000000000000000000000000000000000006020830152604082019050919050565b6000601082527f50726f76696465722053746f70706564000000000000000000000000000000006020830152604082019050919050565b6000600d82527f52657175657374204164646564000000000000000000000000000000000000006020830152604082019050919050565b60e08201600082015161385a6000850182613ba1565b50602082015161386d6020850182613ba1565b5060408201516138806040850182613465565b5060608201516138936060850182613bb0565b5060808201516138a66080850182613b92565b5060a08201516138b960a0850182613ba1565b5060c08201516138cc60c08501826135da565b50505050565b60e0820160008201516138e86000850182613ba1565b5060208201516138fb6020850182613ba1565b50604082015161390e6040850182613465565b5060608201516139216060850182613bb0565b5060808201516139346080850182613b92565b5060a082015161394760a0850182613ba1565b5060c082015161395a60c08501826135da565b50505050565b60006101a0830160008301516139796000860182613ba1565b50602083015161398c6020860182613ba1565b50604083015161399f6040860182613465565b5060608301516139b26060860182613465565b5060808301516139c56080860182613bb0565b5060a08301516139d860a0860182613b92565b5060c08301516139eb60c0860182613ba1565b5060e08301516139fe60e0860182613bb0565b50610100830151613a13610100860182613bb0565b50610120830151613a28610120860182613bb0565b50610140830151848203610140860152613a428282613474565b915050610160830151613a596101608601826135da565b50610180830151613a6e6101808601826135e9565b508091505092915050565b60006101a083016000830151613a926000860182613ba1565b506020830151613aa56020860182613ba1565b506040830151613ab86040860182613465565b506060830151613acb6060860182613465565b506080830151613ade6080860182613bb0565b5060a0830151613af160a0860182613b92565b5060c0830151613b0460c0860182613ba1565b5060e0830151613b1760e0860182613bb0565b50610100830151613b2c610100860182613bb0565b50610120830151613b41610120860182613bb0565b50610140830151848203610140860152613b5b8282613474565b915050610160830151613b726101608601826135da565b50610180830151613b876101808601826135e9565b508091505092915050565b613b9b81614193565b82525050565b613baa816141c1565b82525050565b613bb9816141cb565b82525050565b6000612bc082019050613bd560008301846134cf565b92915050565b60006020820190508181036000830152613bf5818461351a565b905092915050565b60006020820190508181036000830152613c17818461357f565b905092915050565b6000602082019050613c3460008301846135da565b92915050565b6000602082019050613c4f60008301846135e9565b92915050565b600060e082019050613c6a6000830184613844565b92915050565b60006020820190508181036000830152613c8a8184613960565b905092915050565b6000602082019050613ca76000830184613ba1565b92915050565b6000606082019050613cc26000830185613ba1565b613ccf6020830184613465565b8181036040830152613ce08161362f565b90509392505050565b6000606082019050613cfe6000830185613ba1565b613d0b6020830184613465565b8181036040830152613d1c81613666565b90509392505050565b6000606082019050613d3a6000830185613ba1565b613d476020830184613465565b8181036040830152613d588161369d565b90509392505050565b6000606082019050613d766000830185613ba1565b613d836020830184613465565b8181036040830152613d94816136d4565b90509392505050565b6000606082019050613db26000830185613ba1565b613dbf6020830184613465565b8181036040830152613dd081613768565b90509392505050565b6000606082019050613dee6000830185613ba1565b613dfb6020830184613465565b8181036040830152613e0c8161379f565b90509392505050565b6000606082019050613e2a6000830185613ba1565b613e376020830184613465565b8181036040830152613e48816137d6565b90509392505050565b6000606082019050613e666000830185613ba1565b613e736020830184613465565b8181036040830152613e848161380d565b90509392505050565b600060a082019050613ea26000830187613ba1565b613eaf6020830186613465565b613ebc6040830185613ba1565b613ec96060830184613465565b8181036080830152613eda816135f8565b905095945050505050565b600060a082019050613efa6000830187613ba1565b613f076020830186613465565b613f146040830185613ba1565b613f216060830184613465565b8181036080830152613f3281613731565b905095945050505050565b600061018082019050613f53600083018f613ba1565b613f60602083018e613ba1565b613f6d604083018d613465565b613f7a606083018c613465565b613f87608083018b613bb0565b613f9460a083018a613b92565b613fa160c0830189613ba1565b613fae60e0830188613bb0565b613fbc610100830187613bb0565b613fca610120830186613bb0565b613fd86101408301856135da565b613fe66101608301846135e9565b9d9c50505050505050505050505050565b600060e08201905061400c600083018a613ba1565b6140196020830189613ba1565b6140266040830188613465565b6140336060830187613bb0565b6140406080830186613b92565b61404d60a0830185613ba1565b61405a60c08301846135da565b98975050505050505050565b6000604051905081810181811067ffffffffffffffff8211171561408957600080fd5b8060405250919050565b600067ffffffffffffffff8211156140aa57600080fd5b602082029050602081019050919050565b6000602082019050919050565b6000819050919050565b6000819050919050565b6000602082019050919050565b600081519050919050565b600060329050919050565b600060329050919050565b600081519050919050565b6000602082019050919050565b6000602082019050919050565b6000602082019050919050565b6000602082019050919050565b6000614154826141a1565b9050919050565b60008115159050919050565b60007fff0000000000000000000000000000000000000000000000000000000000000082169050919050565b600061ffff82169050919050565b600073ffffffffffffffffffffffffffffffffffffffff82169050919050565b6000819050919050565b600067ffffffffffffffff82169050919050565b60006141ea826141a1565b9050919050565b600061ffff82169050919050565b6000819050919050565b600067ffffffffffffffff8216905091905056fea265627a7a72305820e16ee2921308fc67e7bf9b6714720fed5adedb08d4714f8ce9113174b7d1ce196c6578706572696d656e74616cf50037",
  "source": "//version 0.9.3\n//Author: Taurus, Landry\n//Copyright: tlu4@lsu.edu\n\n//NOTE: functions sending TX cannot retrieve returnValues, only possible way is event\n// Instead function calls can return value directly.\n\npragma solidity ^0.5.0;\npragma experimental ABIEncoderV2;   //return self-defined type\n\ncontract TaskContract {\n    //config\n    bool autoAssign = true;            //whether auto assign the task\n    bool autoValidate = false;         //whether auto pair validation\n    \n    \n    //list\n    mapping (uint256 => Provider) public providerList;  //history\n    mapping (uint256 => Request) public requestList;    //history\n    \n    //mapping address with ID       //editing these mapping cost a lot\n    mapping (address => uint256[])  public providerMap;\n    mapping (address => uint256[])  public requestMap;\n \n    mapping (uint256 => uint256) public balanceList;    //reqID => balance\n    //ID - counter\n    uint256 private providerCount;     //+1 each time\n    uint256 private requestCount;\n    //Pool\n    uint256[] providerPool;     //providers\n    uint256[] pendingPool;      //requests\n    uint256[] providingPool;    //requests\n    uint256[] validatingPool;   //requests\n\n    \n    \n\n    constructor() public {      //sol 5.0 syntax\n        delete providerPool;\n        delete pendingPool;\n        delete providingPool;\n        delete validatingPool;\n        providerCount = 0;\n        requestCount = 0;\n    }\n\n    struct Request {\n        uint256 reqID;                  //requestID is the only identifier for each Request\n        uint256 blockNumber;\n        address payable addr;           //payable is new feature from sol v5.0\n        //uint256 assignedProvider;\n        address payable provider;        \n        //address payable provider;     //addr of worker\n        uint64  time;                   //time\n        uint16  target;                 //target 0-100.00\n        uint256 price;                  //the max amount he can pay\n        uint64  dataID;                 //dataID used to fetch the off-chain data\n        uint64  resultID;               //dataID to fetch the result\n        uint64  numValidations;         //user defined the validation\n        bool[]  validations;            //multisignature from validations\n        bool    isValid;                //the final flag\n        byte    status;                 //0: 'pending', 1:'providing', 2: validating, 3: complete\n    }\n\n    struct Provider {\n        uint256 provID;\n        uint256 blockNumber;\n        address payable addr;       //providers address    \n                                    //TODO: the provider name registration.\n        uint64  maxTime;            //max time\n        uint16  maxTarget;          //max target he need\n        uint256 minPrice;           //lowest price can accept\n        bool    available;          //Used to determine if provider is already doing something\n    }\n    //event\n    //TODO: events optimization: many events have the similar structure, may be combined\n    event ProviderAdded     (uint256 provID, address payable addr);\n    event ProviderStopped   (uint256 provID, address payable addr);\n    event ProviderUpdated   (uint256 provID, address payable addr);\n    event TaskAssigned      (uint256 reqID, address payable reqAddr,\n                            uint256 provID, address payable provAddr);     // next step: call assignRequest\n    \n    event RequestAdded      (uint256 reqID, address payable addr);\n    event RequestUpdated    (uint256 reqID, address payable addr);\n    event RequestCanceled   (uint256 reqID, address payable addr);\n    \n    //event assignRequest      (uint256 reqID, address payable addr);\n    event ValidationAssigned(uint256 reqID, uint256 provID, address payable addr);    // next step: validator calls submitValidation\n    event NotEnoughValidation(uint256 reqID);\n    //event TaskCompleted         (address requestor, uint128 reqID);    // done\n    /////////////////////////////////////////////////////////////////////////////////////\n    event SystemInfo        (uint256 ID, address payable addr , bytes info);  //NOTE: bytes32 saves up to 32 charactors ONLY\n    event PairingInfo        (uint256 reqID, address payable reqAddr,\n                            uint256 provID, address payable provAddr, bytes info);\n    /////////////////////////////////////////////////////////////////////////////////////\n    // Function called to become a provider. New on List, Map and Pool. \n    // NOTE: cannot use to update. You must stop a previous one and start a new one.\n    // TIPS: gas cost: don't create local copy and write back, modify the storage directly.\n    function startProviding(uint64 maxTime, uint16 maxTarget, uint64 minPrice) public returns (byte) {\n        // register a new provider object in the List and map              \n        providerList[providerCount].provID         = providerCount;\n        providerList[providerCount].blockNumber    = block.number;\n        providerList[providerCount].addr           = msg.sender;             \n        providerList[providerCount].maxTime        = maxTime;       \n        providerList[providerCount].maxTarget      = maxTarget;\n        providerList[providerCount].minPrice       = minPrice;\n        \n        // add to map       //TODO: this cost 70000 gas\n        providerMap[msg.sender].push(providerCount);\n        // put it into the pool\n        providerPool.push(providerCount);\n        providerList[providerCount].available      = true;  //turn on the flag at LAST\n        // ready for the next       \n        //emit ProviderAdded(providerCount, msg.sender);\n        emit SystemInfo(providerCount, msg.sender, 'Provider Added');\n        providerCount++;\n        //try assign and handle return value\n        if(autoAssign) return assignProvider(providerCount-1);\n\n        \n    }\n    // Stop a provider, Must be sent from the provider address or it will be failed.\n    function stopProviding(uint256 provID) public returns (bool) {\n        // If the sender is currently an active provider\n        bool flag = false;\n        if (providerList[provID].available == true                 //can only stop available provider\n                && providerList[provID].addr == msg.sender) {      //you cannot delete other's provider            \n            delete providerList[provID];                           //delete from List\n            flag = ArrayPop(providerMap[msg.sender], provID);      //delete form Map\n            flag = ArrayPop(providerPool, provID) && flag;         //delete from Pool             \n        }\n        if(flag) //{emit ProviderStopped(provID, msg.sender);\n            emit SystemInfo(providerCount, msg.sender, 'Provider Stopped');\n        return flag;\n    }\n    //update a provider, you must know the provID and must sent from right addr\n    function updateProvider(uint64 maxTime, uint16 maxTarget, uint64 minPrice, uint256 provID) public returns (bool) {      \n        bool flag = false;\n        if(providerList[provID].available == true           //can only modify available provider\n        && providerList[provID].addr == msg.sender){        //you cannot modify other's config\n            providerList[provID].blockNumber    = block.number;         \n            providerList[provID].maxTime        = maxTime;       \n            providerList[provID].maxTarget      = maxTarget;\n            providerList[provID].minPrice       = minPrice;\n            //update pool       -- pop then push , because we need to scan pool anyway\n            flag = ArrayPop(providerPool,provID);           // pop first                                      \n            providerPool.push(provID);                      // push in both case anyway\n            //update map -- no need provID not changed.\n            //emit ProviderUpdated(provID, msg.sender);\n            emit SystemInfo(providerCount, msg.sender, 'Provider Updated');\n            return flag;\n        }\n    }\n\n    // Send a request from user to blockchain. (legacy name : RequestTask)\n    // Assumes price is including the cost for verification\n    function startRequest(uint64 dataID, uint16 target, uint64 time) payable public returns (byte) {\n        //register on List\n        requestList[requestCount].reqID         = requestCount;\n        requestList[requestCount].blockNumber   = block.number;  \n        requestList[requestCount].addr          = msg.sender;\n        requestList[requestCount].provider      = address(0);      \n        requestList[requestCount].time          = time;    \n        requestList[requestCount].target        = target;\n        requestList[requestCount].price         = msg.value;\n        requestList[requestCount].dataID        = dataID;\n        //requestList[requestCount].resultID  = 0;\n        requestList[requestCount].numValidations = 1;\n        //requestList[requestCount].validations = emptyArray;\n        //requestList[requestCount].isValid   = false;\n        \n        //add new to map\n        requestMap[msg.sender].push(requestCount);\n        \n        //add new to requestPool\n        pendingPool.push(requestCount);\n        requestList[requestCount].status = '0' ;     //web3.toAscii([hex])\n        //emit RequestAdded(requestCount, msg.sender);       \n        emit SystemInfo(requestCount, msg.sender,'Request Added');\n        requestCount++;\n        //try assign and handle return value\n        if (autoAssign) return assignRequest(requestCount-1);\n    }\n    function stopRequest(uint256 reqID) public returns (bool){\n        bool flag = false;\n        if (requestList[reqID].status == '0'                       //can only cancel pending request\n                && requestList[reqID].addr == msg.sender) {        //you cannot delete other's provider            \n            delete requestList[reqID];                             //delete from List\n            flag = ArrayPop(requestMap[msg.sender], reqID);        //delete form Map\n            flag = ArrayPop(pendingPool, reqID) && flag;           //delete from Pool             \n        }\n        if(flag) \n        //emit RequestCanceled(reqID, msg.sender);\n            emit SystemInfo(reqID, msg.sender, 'Request Canceled');\n        return flag;\n    }\n    function updateRequest(uint64 time, uint16 target, uint256 reqID) payable public returns (bool) {      \n        bool flag = false;\n        if(requestList[reqID].status == '0'                 //can only update pending request\n        && requestList[reqID].addr == msg.sender){          //you cannot modify other's config\n            requestList[reqID].blockNumber    = block.number;         \n            requestList[reqID].time        = time;       \n            requestList[reqID].target      = target;\n            requestList[reqID].price       = msg.value;\n            //update pool       -- pop then push , because we need to scan pool anyway\n            flag = ArrayPop(pendingPool,reqID);           // pop first                                      \n            pendingPool.push(reqID);                      // push in both case anyway\n            //update map -- no need provID not changed.\n            //emit RequestUpdated(reqID, msg.sender);\n            emit SystemInfo(reqID, msg.sender, 'Request Updated');\n            return flag;\n        }\n    }\n\n    \n\n    // Search in the pendingPool, find a job for current provider. Triggered by startProviding\n    // Input: uint256 provider ID\n    // Returns: 0: successfully assigned\n    //          1: searched all providers but find no match\n    //          2: no available provider right now\n    //          3: failure during poping pool\n    function assignProvider(uint256 provID) private returns (byte){\n        //check whether there exists pending requests\n        if(pendingPool.length == 0) return '2';\n        else {\n            //search throught the pendingPool\n            for (uint64 i = 0; i < pendingPool.length; i++){\n                //save the re-usable reqID , may save gas\n                uint256 reqID = pendingPool[i]; //\n                if( requestList[reqID].time     < providerList[provID].maxTime &&\n                    requestList[reqID].target   < providerList[provID].maxTarget &&\n                    requestList[reqID].price    > providerList[provID].minPrice)\n                    return assign(reqID, provID);         //emit here btw       \n            }\n            //after for loop and no match\n            return '1';\n        }\n    }\n    \n    // Assigning one task to one of the available providers. Only called from startRequest (private)\n    // Search in the providerPool, could only assign one task at a time\n    // TODO: need to add preference next patch\n    // Returns: 0: successfully assigned\n    //          1: searched all providers but find no match\n    //          2: no available provider right now\n    //          3: failure during poping pool\n    function assignRequest(uint256 reqID) private returns (byte) {\n        //provider availability is checked in pool not in list\n        if (providerPool.length == 0)   return '2';\n        else {            //if any provider in pool\n            for (uint64 i = 0; i < providerPool.length; i++) {\n                // save the provider's addr, reusable and save gas cost\n                uint256 provID  = providerPool[i];\n                if( requestList[reqID].time     < providerList[provID].maxTime &&\n                    requestList[reqID].target   < providerList[provID].maxTarget &&\n                    requestList[reqID].price    > providerList[provID].minPrice)\n                    return assign(reqID, provID);   //emit here btw\n            }\n            // No provider was found matching the criteria -- request failed\n            //requestList[reqID].addr.transfer(requestList[reqID].price); // Returns the ether to the sender\n            return '1';\n        }       \n    }\n    \n    //supporting function :triggered by assignRequest or assignProvider, do the state change and pool move\n    function assign(uint256 reqID, uint256 provID) private returns (byte) {\n        //update provider\n        providerList[provID].available = false;\n        //update request\n        requestList[reqID].provider = providerList[provID].addr;\n        requestList[reqID].status = '1';    //providing\n        //update the pool, move ID#\n        bool isPopped = false;\n        isPopped = ArrayPop(pendingPool, reqID);\n        isPopped = ArrayPop(providerPool, provID) && isPopped;\n        if(!isPopped) return '3';\n        providingPool.push(reqID);\n        \n        //update balanceList            addr here is requester's\n        balanceList[reqID] += requestList[reqID].price; \n        //emit TaskAssigned(reqID,requestList[reqID].addr,  \n        //                provID, providerList[provID].addr);\n        emit PairingInfo (reqID,requestList[reqID].addr,  \n                provID, providerList[provID].addr, 'Request assigned to Provider');\n        return '0';   \n    }\n\n\n    ////////////////////////////////////////////////////////////////////////////////////////\n    // off-chain actions happen here!\n    // After assignment, provider will fetch off-chain data and \n    // update this action by sending a confirm online, (not necessarily).\n    // TODO: function providerGotData() public returns (byte){}\n    //\n    // Then provider will start computation right now.\n    // ....\n    // Return the result and call completeRequest\n    ////////////////////////////////////////////////////////////////////////////////////////\n    //Exceptions: \n    // 1.Computation aborted/fail == retry within time limit\n    // 2.timeout == refund request / status: providing -> pending\n    // ##$$ Golden Rule: Costomer is God, whoever PAYED must got result or refund.\n    // Deal with money using extreme caution!\n\n\n    // Provider will call this when they are done and the data is available.\n    // This will invoke the validation stage\n    function completeRequest(uint256 reqID, uint64 resultID) public returns (bool) {\n        // Confirm msg.sender is actually the provider of the task he claims\n        if (msg.sender == requestList[reqID].provider) {\n            //change request obj\n            requestList[reqID].status = '2';    //validating\n            requestList[reqID].resultID = resultID;\n            //move in pool\n            bool flag = false;\n            flag = ArrayPop(providingPool, reqID);\n            if(!flag) return false;\n            validatingPool.push(reqID);\n            //release provider (not necessarily depend on provider)\n            //providerList[providerID[msg.sender]].available = true;\n            //emit assignRequest(reqID, msg.sender);\n            emit SystemInfo(reqID, msg.sender, 'Request Computation Completed');\n            //start validation process\n            if(autoValidate){\n                return validateRequest(reqID);\n            }else return true;\n        }\n        else {\n            return false;\n        }\n    }\n\n    // Called by assignRequest before finalizing stuff. Contract checks with validators\n    // Returns false if there wasnt enough free providers to send out the required number of validation requests\n    // need validation from 1/10 of nodes -- could change\n    function validateRequest(uint256 reqID) private returns (bool) {\n        uint64 numValidatorsNeeded = requestList[reqID].numValidations; \n        //uint numValidators = providerCount / 10; \n        uint64 validatorsFound = 0;\n        //requestList[reqID].numValidationsNeeded = numValidators;\n        //select # of available provider from the pool and force em to do the validation\n        for (uint64 i = 0; i < providerPool.length; i++) {\n            //get provider ID\n            uint256 provID = providerPool[i];\n            //validator and computer cannot be same\n            if(validatorsFound < numValidatorsNeeded){\n                if(providerList[provID].addr != requestList[reqID].provider){\n                    //qualified validator\n                    //EVENT: informs validator that they were selected and need to validate\n                    //emit ValidationAssigned(reqID, provID, providerList[provID].addr);\n                    emit PairingInfo(reqID, requestList[reqID].addr, \n                            provID, providerList[provID].addr, 'Validation Assigned to Provider');\n                    validatorsFound++;\n                    //remove the providers availablity and pop from pool\n                    providerList[provID].available = false;\n                    bool flag = ArrayPop(providerPool, provID);\n                    if (!flag) return false;\n                }       //else continue\n            }\n            else{       //enough validator\n                return true;\n                break;\n            }\n            //loop until certain # of validators selected\n        }   \n        //exit loop without enough validators\n        //emit NotEnoughValidation(reqID);    \n        emit SystemInfo(reqID, requestList[reqID].addr, 'Request got insufficient validation');\n    }\n\n\n/*\n\n    // needs to be more secure by ensuring the submission is coming from someone legit \n    function submitValidation(uint128 reqID, bool result) public returns (bool) {\n        // Pay the validator \n        uint partialPayment = requestList[reqID].price / 100; // amount each validator is paid\n        msg.sender.transfer(partialPayment);\n        balanceList[requestList[reqID].addr] -= partialPayment;\n        // Put the result in the request struct\n        requestList[reqID].validations.push(result);\n        // If enough validations have been submitted\n        if (requestList[reqID].validations.length == requestList[reqID].numValidationsNeeded) {\n            return checkValidation(reqID, requestList[reqID].price - requestList[reqID].numValidationsNeeded * partialPayment);\n        }\n    }\n    \n    function checkValidation(uint128 reqID, uint payment) private returns (bool) {\n        // Add up successful validations\n        uint64 successCount = 0;\n        for (uint64 i=0; i<requestList[reqID].validations.length; i++) {\n            if (requestList[reqID].validations[i]) successCount++;\n        }\n        // if 2/3 of validation attempts were successful\n        if (successCount  >= requestList[reqID].numValidationsNeeded * 2 / 3  ) { \n            // if 2/3 of validations were valid then provider gets remainder of money\n            requestList[reqID].provider.transfer(payment); \n            balanceList[requestList[reqID].addr] -= payment;\n            requestList[reqID].isValid = true; // Task was successfully completed! \n        }\n        // otherwise, work was invalid, the providers payment goes back to requester\n        else {\n            requestList[reqID].addr.transfer(payment);\n            balanceList[requestList[reqID].addr] -= payment;\n        }\n        // EVENT: task is done whether successful or not\n        emit TaskCompleted(requestList[reqID].addr, reqID);\n        return requestList[reqID].isValid;\n    }\n*/\n//////////////////////////////////////////////////////////////////////\n/*  function startRequest(uint64 dataID, uint16 target, uint64 time) payable public returns (bool) {\n    //a legacy version of startRequest, using a local memory copy and write back\n        bool[] memory emptyArray;\n        Request memory req = Request(           //create a temp memory var\n            msg.sender,             //addr\n            address(0),             //provider\n            requestCount,           //reqID\n            dataID,                 //dataID\n            time,                   //time    \n            target,                 //target   0-100\n            msg.value,              //price \n            0,                      //resultID\n            1,                      //numValidationsNeeded\n            emptyArray,             //sig list\n            false,                  //isValid\n            0                       //status  0-3 0: pending\n        );\n\n        //copy the mem var into storage\n        requestList[requestCount] = req;        //requestCount used as index here, from 0 to +++\n        //add new to requestPool\n        requestPool.push(requestCount);\n        //update requestID\n        requestID[msg.sender].push(requestCount);\n        //update count\n        requestCount++;     //count already stands for the # of req now.\n        pendingCount++;\n        return assignRequest();\n    }\n*/\n\n/////////////////////////////////////////////////////////////////////\n // Used to dynamically remove elements from array of open provider spaces. \n    // Using a swap and delete method, search for the desired addr throughout the whole array\n    // delete the desired and swap the whole with last element\n    /*function AddrArrayPop(address payable [] storage addrArray, uint256 target) private returns(bool) {\n        for(uint64 i = 0; i < addrArray.length; i++){\n            if (addrArray[i] == target) {\n                //swap last element with hole\n                addrArray[i] = addrArray[addrArray.length-1];\n                //delete last item\n                delete addrArray[addrArray.length-1];\n                 //decrease size\n                addrArray.length--;\n                return true;\n            }\n        }\n        return false; //fail to search: no matching in pool\n    }*/\n\n    function ArrayPop(uint256[] storage array, uint256 target) private returns (bool) {\n        for(uint64 i = 0; i < array.length; i++){\n            if (array[i] == target) {\n                //swap last element with hole\n                array[i] = array[array.length-1];\n                //delete last item\n                delete array[array.length-1];\n                //decrease size\n                array.length--;\n                return true;\n            }\n        }\n        return false;   //fail to search: no matching in pool\n    } \n    function getMyProvID() public view returns (uint256[] memory){\n        return providerMap[msg.sender];\n    }\n    function getMyReqID() public view returns (uint256[] memory){\n        return requestMap[msg.sender];\n    }\n    function getProviderID(address addr) public view returns (uint256[] memory){\n        return providerMap[addr];\n    }\n    function getRequestID(address addr) public view returns (uint256[] memory){\n        return requestMap[addr];\n    }\n\n    /////////////////////////////////////////////////////////////////////////////////\n    //some helpers defined here\n    /*function testTask() public {\n        emit TaskAssigned(msg.sender, 11, 22);\n    }*/\n    function getProvider(uint256 ID) public view returns(Provider memory){\n        return providerList[ID];\n    }\n    function getRequest(uint256 ID) public view returns (Request memory){\n\t    return requestList[ID];\n    }\n    function getProviderCount() public view returns (uint256){\n        return providerCount;\n    }\n    function getRequestCount() public view returns (uint256){\n        return requestCount;\n    }\n    function getProviderPool() public view returns (uint256[] memory){\n        return providerPool;\n    }\n    function getRequestPool() public view returns (uint256[] memory){\n        return pendingPool;\n    }\n    function getProviderPoolSize() public view returns (uint256){\n        return providerPool.length;\n    }\n    function getRequestPoolSize() public view returns (uint256){\n        return pendingPool.length;\n    }\n    //function getBalance(address addr) public view returns (uint256){\n    //    return balanceList[addr];\n    //}\n    function listRequests(uint256[] memory IDList) public view returns(Request[50] memory){\n\t    Request[50] memory allRequest;\n\t    for (uint64 i = 0; i < IDList.length; i++){\n\t\t    allRequest[i] = getRequest(IDList[i]);\n\t    }\n\t    return allRequest;\n    }\n    function listProviders(uint256[] memory IDList) public view returns(Provider[50] memory){\n        Provider[50] memory allProvider;\n        //address addr;\n        for (uint64 i = 0; i < IDList.length;i++){\n            allProvider[i] = getProvider(IDList[i]);\n        }\n        return allProvider;\n    }\n    function listAllRequests() public view returns(Request[50] memory){\n\t    Request[50] memory allRequest;\n\t    for (uint64 i = 0; i < requestCount; i++){\n\t\t    allRequest[i] = getRequest(i);\n\t    }\n\t    return allRequest;\n    }\n    function listAllProviders() public view returns(Provider[50] memory){\n\t    Provider[50] memory allProvider;\n\t    for (uint64 i = 0; i < providerCount; i++){\n\t\t    allProvider[i] = getProvider(i);\n\t    }\n\t    return allProvider;\n    }\n    function listProviders() public view returns(Provider[50] memory){\n        Provider[50] memory allProvider;\n        //address addr;\n        for (uint64 i = 0; i < providerCount;i++){\n            /*if(providerPool.length > 0) {\n                addr = providerPool[i];     \n            }else {\n                addr = address(0);\n            }*/\n            allProvider[i] = getProvider(i);\n        }\n        return allProvider;\n    }\n    /*function listTestProviders() public view returns(Provider[3] memory){\n        Provider[3] memory allProvider;\n        for (uint64 i = 0; i < 3;i++){\n            allProvider[i] = getTestProvider(i);\n        }\n        return allProvider;\n    }*/\n\n}\n",
  "sourcePath": "/home/taurus/blockchain/gitLab/bcai_v0.9/contracts/bcai_0.9.3.sol",
  "compiler": {
    "name": "solc",
    "version": "0.5.0+commit.1d4f565a.Emscripten.clang"
  },
  "schemaVersion": "3.0.0-beta.2",
  "updatedAt": "2018-12-10T01:01:27.285Z",
  "devdoc": {
    "methods": {}
  },
  "userdoc": {
    "methods": {
      "completeRequest(uint256,uint64)": {
        "notice": "/////////////////////////////////////////////////////////////////////////////////////"
      },
      "getProvider(uint256)": {
        "notice": "//////////////////////////////////////////////////////////////////////////////"
      },
      "startProviding(uint64,uint16,uint64)": {
        "notice": "//////////////////////////////////////////////////////////////////////////////////"
      }
    }
  }
}