{
  "contractName": "TaskContract",
  "abi": [
    {
      "constant": true,
      "inputs": [
        {
          "name": "",
          "type": "uint256"
        }
      ],
      "name": "requestList",
      "outputs": [
        {
          "name": "reqID",
          "type": "uint256"
        },
        {
          "name": "blockNumber",
          "type": "uint256"
        },
        {
          "name": "addr",
          "type": "address"
        },
        {
          "name": "provider",
          "type": "address"
        },
        {
          "name": "time",
          "type": "uint64"
        },
        {
          "name": "target",
          "type": "uint16"
        },
        {
          "name": "price",
          "type": "uint256"
        },
        {
          "name": "dataID",
          "type": "uint64"
        },
        {
          "name": "resultID",
          "type": "uint64"
        },
        {
          "name": "numValidations",
          "type": "uint64"
        },
        {
          "name": "isValid",
          "type": "bool"
        },
        {
          "name": "status",
          "type": "bytes1"
        }
      ],
      "payable": false,
      "stateMutability": "view",
      "type": "function",
      "signature": "0x02e9d43b"
    },
    {
      "constant": true,
      "inputs": [
        {
          "name": "",
          "type": "uint256"
        }
      ],
      "name": "providerList",
      "outputs": [
        {
          "name": "provID",
          "type": "uint256"
        },
        {
          "name": "blockNumber",
          "type": "uint256"
        },
        {
          "name": "addr",
          "type": "address"
        },
        {
          "name": "maxTime",
          "type": "uint64"
        },
        {
          "name": "maxTarget",
          "type": "uint16"
        },
        {
          "name": "minPrice",
          "type": "uint256"
        },
        {
          "name": "available",
          "type": "bool"
        }
      ],
      "payable": false,
      "stateMutability": "view",
      "type": "function",
      "signature": "0x390bfd3c"
    },
    {
      "constant": true,
      "inputs": [
        {
          "name": "",
          "type": "uint256"
        }
      ],
      "name": "balanceList",
      "outputs": [
        {
          "name": "",
          "type": "uint256"
        }
      ],
      "payable": false,
      "stateMutability": "view",
      "type": "function",
      "signature": "0x599b6808"
    },
    {
      "constant": true,
      "inputs": [
        {
          "name": "",
          "type": "address"
        },
        {
          "name": "",
          "type": "uint256"
        }
      ],
      "name": "providerMap",
      "outputs": [
        {
          "name": "",
          "type": "uint256"
        }
      ],
      "payable": false,
      "stateMutability": "view",
      "type": "function",
      "signature": "0xd2d5d74f"
    },
    {
      "constant": true,
      "inputs": [
        {
          "name": "",
          "type": "address"
        },
        {
          "name": "",
          "type": "uint256"
        }
      ],
      "name": "requestMap",
      "outputs": [
        {
          "name": "",
          "type": "uint256"
        }
      ],
      "payable": false,
      "stateMutability": "view",
      "type": "function",
      "signature": "0xd3cca02e"
    },
    {
      "inputs": [],
      "payable": false,
      "stateMutability": "nonpayable",
      "type": "constructor",
      "signature": "constructor"
    },
    {
      "anonymous": false,
      "inputs": [
        {
          "indexed": false,
          "name": "provID",
          "type": "uint256"
        },
        {
          "indexed": false,
          "name": "addr",
          "type": "address"
        }
      ],
      "name": "ProviderAdded",
      "type": "event",
      "signature": "0xafeb8d353a550fa93ee49e05f2ec51920688cec519f9c53be94a6ffffdf9a534"
    },
    {
      "anonymous": false,
      "inputs": [
        {
          "indexed": false,
          "name": "provID",
          "type": "uint256"
        },
        {
          "indexed": false,
          "name": "addr",
          "type": "address"
        }
      ],
      "name": "ProviderStopped",
      "type": "event",
      "signature": "0x37f095876e7fce8c776261edf08749c7a785891cfcdb3e45e1fe6f0a5085ddb0"
    },
    {
      "anonymous": false,
      "inputs": [
        {
          "indexed": false,
          "name": "provID",
          "type": "uint256"
        },
        {
          "indexed": false,
          "name": "addr",
          "type": "address"
        }
      ],
      "name": "ProviderUpdated",
      "type": "event",
      "signature": "0xd94c593c75e29861632520adc8ad754e10eb195d12baa4d1bf0bfcf23060b8b7"
    },
    {
      "anonymous": false,
      "inputs": [
        {
          "indexed": false,
          "name": "reqID",
          "type": "uint256"
        },
        {
          "indexed": false,
          "name": "reqAddr",
          "type": "address"
        },
        {
          "indexed": false,
          "name": "provID",
          "type": "uint256"
        },
        {
          "indexed": false,
          "name": "provAddr",
          "type": "address"
        }
      ],
      "name": "TaskAssigned",
      "type": "event",
      "signature": "0xc5e0672f97da4dc0ce37a461d9430942f96b915f315d4751d97368f4aa014363"
    },
    {
      "anonymous": false,
      "inputs": [
        {
          "indexed": false,
          "name": "reqID",
          "type": "uint256"
        },
        {
          "indexed": false,
          "name": "addr",
          "type": "address"
        }
      ],
      "name": "RequestAdded",
      "type": "event",
      "signature": "0x1547844676b0fd6479fc29c4babdeba187ee3bbc2b982bad5ad798b75675526d"
    },
    {
      "anonymous": false,
      "inputs": [
        {
          "indexed": false,
          "name": "reqID",
          "type": "uint256"
        },
        {
          "indexed": false,
          "name": "addr",
          "type": "address"
        }
      ],
      "name": "RequestUpdated",
      "type": "event",
      "signature": "0x4872ad1ba2f7842ef7ee71f43ab3c3ee611e2cfe5ea6bc4f5a3d5c77cfa48563"
    },
    {
      "anonymous": false,
      "inputs": [
        {
          "indexed": false,
          "name": "reqID",
          "type": "uint256"
        },
        {
          "indexed": false,
          "name": "addr",
          "type": "address"
        }
      ],
      "name": "RequestCanceled",
      "type": "event",
      "signature": "0x7e8e70bf979070497c1e07bfd1131dd24e7117f289dbb8cc96f57a367db6b317"
    },
    {
      "anonymous": false,
      "inputs": [
        {
          "indexed": false,
          "name": "reqID",
          "type": "uint256"
        },
        {
          "indexed": false,
          "name": "provID",
          "type": "uint256"
        },
        {
          "indexed": false,
          "name": "addr",
          "type": "address"
        }
      ],
      "name": "ValidationAssigned",
      "type": "event",
      "signature": "0xd92b3644be79c3a217633fd06de3db2935f0d8b41bd13ec4112727ec9451efc7"
    },
    {
      "anonymous": false,
      "inputs": [
        {
          "indexed": false,
          "name": "reqID",
          "type": "uint256"
        }
      ],
      "name": "NotEnoughValidation",
      "type": "event",
      "signature": "0x7ac9ad79ee3efb861e4bed1fb754239e30da48a583570606f05f892e3ce5857b"
    },
    {
      "anonymous": false,
      "inputs": [
        {
          "indexed": false,
          "name": "ID",
          "type": "uint256"
        },
        {
          "indexed": false,
          "name": "addr",
          "type": "address"
        },
        {
          "indexed": false,
          "name": "info",
          "type": "bytes"
        }
      ],
      "name": "SystemInfo",
      "type": "event",
      "signature": "0xa4c4c871d43d81be54f69ce74ea5bc289663a3cdf402d09baf09407085be0231"
    },
    {
      "anonymous": false,
      "inputs": [
        {
          "indexed": false,
          "name": "reqID",
          "type": "uint256"
        },
        {
          "indexed": false,
          "name": "reqAddr",
          "type": "address"
        },
        {
          "indexed": false,
          "name": "provID",
          "type": "uint256"
        },
        {
          "indexed": false,
          "name": "provAddr",
          "type": "address"
        },
        {
          "indexed": false,
          "name": "info",
          "type": "bytes"
        }
      ],
      "name": "PairingInfo",
      "type": "event",
      "signature": "0xc4f678ebfd7e29fd2b410c08e9adcef6a55d52ee8c9b379f90cb334d18438668"
    },
    {
      "anonymous": false,
      "inputs": [
        {
          "indexed": false,
          "name": "reqID",
          "type": "uint256"
        },
        {
          "indexed": false,
          "name": "info",
          "type": "bytes"
        }
      ],
      "name": "UpdateInfo",
      "type": "event",
      "signature": "0x32e8745b1198a29ee11e0cbdbdaad4a01afae317e0d96d682345f5a53ac79b32"
    },
    {
      "constant": false,
      "inputs": [
        {
          "name": "maxTime",
          "type": "uint64"
        },
        {
          "name": "maxTarget",
          "type": "uint16"
        },
        {
          "name": "minPrice",
          "type": "uint64"
        }
      ],
      "name": "startProviding",
      "outputs": [
        {
          "name": "",
          "type": "bytes1"
        }
      ],
      "payable": false,
      "stateMutability": "nonpayable",
      "type": "function",
      "signature": "0x2ddfdbcc"
    },
    {
      "constant": false,
      "inputs": [
        {
          "name": "provID",
          "type": "uint256"
        }
      ],
      "name": "stopProviding",
      "outputs": [
        {
          "name": "",
          "type": "bool"
        }
      ],
      "payable": false,
      "stateMutability": "nonpayable",
      "type": "function",
      "signature": "0x15f14e89"
    },
    {
      "constant": false,
      "inputs": [
        {
          "name": "maxTime",
          "type": "uint64"
        },
        {
          "name": "maxTarget",
          "type": "uint16"
        },
        {
          "name": "minPrice",
          "type": "uint64"
        },
        {
          "name": "provID",
          "type": "uint256"
        }
      ],
      "name": "updateProvider",
      "outputs": [
        {
          "name": "",
          "type": "bool"
        }
      ],
      "payable": false,
      "stateMutability": "nonpayable",
      "type": "function",
      "signature": "0xdf4467ab"
    },
    {
      "constant": false,
      "inputs": [
        {
          "name": "dataID",
          "type": "uint64"
        },
        {
          "name": "target",
          "type": "uint16"
        },
        {
          "name": "time",
          "type": "uint64"
        }
      ],
      "name": "startRequest",
      "outputs": [
        {
          "name": "",
          "type": "bytes1"
        }
      ],
      "payable": true,
      "stateMutability": "payable",
      "type": "function",
      "signature": "0x58b93e0f"
    },
    {
      "constant": false,
      "inputs": [
        {
          "name": "reqID",
          "type": "uint256"
        }
      ],
      "name": "stopRequest",
      "outputs": [
        {
          "name": "",
          "type": "bool"
        }
      ],
      "payable": false,
      "stateMutability": "nonpayable",
      "type": "function",
      "signature": "0x90c0375d"
    },
    {
      "constant": false,
      "inputs": [
        {
          "name": "time",
          "type": "uint64"
        },
        {
          "name": "target",
          "type": "uint16"
        },
        {
          "name": "reqID",
          "type": "uint256"
        }
      ],
      "name": "updateRequest",
      "outputs": [
        {
          "name": "",
          "type": "bool"
        }
      ],
      "payable": true,
      "stateMutability": "payable",
      "type": "function",
      "signature": "0x79a0bb95"
    },
    {
      "constant": false,
      "inputs": [
        {
          "name": "reqID",
          "type": "uint256"
        },
        {
          "name": "resultID",
          "type": "uint64"
        }
      ],
      "name": "completeRequest",
      "outputs": [
        {
          "name": "",
          "type": "bool"
        }
      ],
      "payable": false,
      "stateMutability": "nonpayable",
      "type": "function",
      "signature": "0x375e26f5"
    },
    {
      "constant": false,
      "inputs": [
        {
          "name": "reqID",
          "type": "uint256"
        },
        {
          "name": "provID",
          "type": "uint256"
        },
        {
          "name": "result",
          "type": "bool"
        }
      ],
      "name": "submitValidation",
      "outputs": [
        {
          "name": "",
          "type": "bool"
        }
      ],
      "payable": false,
      "stateMutability": "nonpayable",
      "type": "function",
      "signature": "0x6fbea121"
    },
    {
      "constant": true,
      "inputs": [],
      "name": "getMyProvID",
      "outputs": [
        {
          "name": "",
          "type": "uint256[]"
        }
      ],
      "payable": false,
      "stateMutability": "view",
      "type": "function",
      "signature": "0x34a7d799"
    },
    {
      "constant": true,
      "inputs": [],
      "name": "getMyReqID",
      "outputs": [
        {
          "name": "",
          "type": "uint256[]"
        }
      ],
      "payable": false,
      "stateMutability": "view",
      "type": "function",
      "signature": "0x269f3558"
    },
    {
      "constant": true,
      "inputs": [
        {
          "name": "addr",
          "type": "address"
        }
      ],
      "name": "getProviderID",
      "outputs": [
        {
          "name": "",
          "type": "uint256[]"
        }
      ],
      "payable": false,
      "stateMutability": "view",
      "type": "function",
      "signature": "0x91bbb902"
    },
    {
      "constant": true,
      "inputs": [
        {
          "name": "addr",
          "type": "address"
        }
      ],
      "name": "getRequestID",
      "outputs": [
        {
          "name": "",
          "type": "uint256[]"
        }
      ],
      "payable": false,
      "stateMutability": "view",
      "type": "function",
      "signature": "0x62e70505"
    },
    {
      "constant": true,
      "inputs": [
        {
          "name": "ID",
          "type": "uint256"
        }
      ],
      "name": "getProvider",
      "outputs": [
        {
          "components": [
            {
              "name": "provID",
              "type": "uint256"
            },
            {
              "name": "blockNumber",
              "type": "uint256"
            },
            {
              "name": "addr",
              "type": "address"
            },
            {
              "name": "maxTime",
              "type": "uint64"
            },
            {
              "name": "maxTarget",
              "type": "uint16"
            },
            {
              "name": "minPrice",
              "type": "uint256"
            },
            {
              "name": "available",
              "type": "bool"
            }
          ],
          "name": "",
          "type": "tuple"
        }
      ],
      "payable": false,
      "stateMutability": "view",
      "type": "function",
      "signature": "0x5c42d079"
    },
    {
      "constant": true,
      "inputs": [
        {
          "name": "ID",
          "type": "uint256"
        }
      ],
      "name": "getRequest",
      "outputs": [
        {
          "components": [
            {
              "name": "reqID",
              "type": "uint256"
            },
            {
              "name": "blockNumber",
              "type": "uint256"
            },
            {
              "name": "addr",
              "type": "address"
            },
            {
              "name": "provider",
              "type": "address"
            },
            {
              "name": "time",
              "type": "uint64"
            },
            {
              "name": "target",
              "type": "uint16"
            },
            {
              "name": "price",
              "type": "uint256"
            },
            {
              "name": "dataID",
              "type": "uint64"
            },
            {
              "name": "resultID",
              "type": "uint64"
            },
            {
              "name": "numValidations",
              "type": "uint64"
            },
            {
              "name": "signatures",
              "type": "bool[]"
            },
            {
              "name": "validators",
              "type": "uint256[]"
            },
            {
              "name": "isValid",
              "type": "bool"
            },
            {
              "name": "status",
              "type": "bytes1"
            }
          ],
          "name": "",
          "type": "tuple"
        }
      ],
      "payable": false,
      "stateMutability": "view",
      "type": "function",
      "signature": "0xc58343ef"
    },
    {
      "constant": true,
      "inputs": [],
      "name": "getProviderCount",
      "outputs": [
        {
          "name": "",
          "type": "uint256"
        }
      ],
      "payable": false,
      "stateMutability": "view",
      "type": "function",
      "signature": "0x46ce4175"
    },
    {
      "constant": true,
      "inputs": [],
      "name": "getRequestCount",
      "outputs": [
        {
          "name": "",
          "type": "uint256"
        }
      ],
      "payable": false,
      "stateMutability": "view",
      "type": "function",
      "signature": "0x3fad1834"
    },
    {
      "constant": true,
      "inputs": [],
      "name": "getProviderPool",
      "outputs": [
        {
          "name": "",
          "type": "uint256[]"
        }
      ],
      "payable": false,
      "stateMutability": "view",
      "type": "function",
      "signature": "0x9e723b97"
    },
    {
      "constant": true,
      "inputs": [],
      "name": "getRequestPool",
      "outputs": [
        {
          "name": "",
          "type": "uint256[]"
        }
      ],
      "payable": false,
      "stateMutability": "view",
      "type": "function",
      "signature": "0xe1a9daef"
    },
    {
      "constant": true,
      "inputs": [],
      "name": "getProvidingPool",
      "outputs": [
        {
          "name": "",
          "type": "uint256[]"
        }
      ],
      "payable": false,
      "stateMutability": "view",
      "type": "function",
      "signature": "0x1f1dab45"
    },
    {
      "constant": true,
      "inputs": [],
      "name": "getValidatingPool",
      "outputs": [
        {
          "name": "",
          "type": "uint256[]"
        }
      ],
      "payable": false,
      "stateMutability": "view",
      "type": "function",
      "signature": "0x32c5200d"
    },
    {
      "constant": true,
      "inputs": [],
      "name": "getProviderPoolSize",
      "outputs": [
        {
          "name": "",
          "type": "uint256"
        }
      ],
      "payable": false,
      "stateMutability": "view",
      "type": "function",
      "signature": "0x353b2a1f"
    },
    {
      "constant": true,
      "inputs": [],
      "name": "getRequestPoolSize",
      "outputs": [
        {
          "name": "",
          "type": "uint256"
        }
      ],
      "payable": false,
      "stateMutability": "view",
      "type": "function",
      "signature": "0x5c4c8c4e"
    },
    {
      "constant": true,
      "inputs": [
        {
          "name": "IDList",
          "type": "uint256[]"
        }
      ],
      "name": "listRequests",
      "outputs": [
        {
          "components": [
            {
              "name": "reqID",
              "type": "uint256"
            },
            {
              "name": "blockNumber",
              "type": "uint256"
            },
            {
              "name": "addr",
              "type": "address"
            },
            {
              "name": "provider",
              "type": "address"
            },
            {
              "name": "time",
              "type": "uint64"
            },
            {
              "name": "target",
              "type": "uint16"
            },
            {
              "name": "price",
              "type": "uint256"
            },
            {
              "name": "dataID",
              "type": "uint64"
            },
            {
              "name": "resultID",
              "type": "uint64"
            },
            {
              "name": "numValidations",
              "type": "uint64"
            },
            {
              "name": "signatures",
              "type": "bool[]"
            },
            {
              "name": "validators",
              "type": "uint256[]"
            },
            {
              "name": "isValid",
              "type": "bool"
            },
            {
              "name": "status",
              "type": "bytes1"
            }
          ],
          "name": "",
          "type": "tuple[50]"
        }
      ],
      "payable": false,
      "stateMutability": "view",
      "type": "function",
      "signature": "0x0c9a90a3"
    },
    {
      "constant": true,
      "inputs": [],
      "name": "listAllRequests",
      "outputs": [
        {
          "components": [
            {
              "name": "reqID",
              "type": "uint256"
            },
            {
              "name": "blockNumber",
              "type": "uint256"
            },
            {
              "name": "addr",
              "type": "address"
            },
            {
              "name": "provider",
              "type": "address"
            },
            {
              "name": "time",
              "type": "uint64"
            },
            {
              "name": "target",
              "type": "uint16"
            },
            {
              "name": "price",
              "type": "uint256"
            },
            {
              "name": "dataID",
              "type": "uint64"
            },
            {
              "name": "resultID",
              "type": "uint64"
            },
            {
              "name": "numValidations",
              "type": "uint64"
            },
            {
              "name": "signatures",
              "type": "bool[]"
            },
            {
              "name": "validators",
              "type": "uint256[]"
            },
            {
              "name": "isValid",
              "type": "bool"
            },
            {
              "name": "status",
              "type": "bytes1"
            }
          ],
          "name": "",
          "type": "tuple[50]"
        }
      ],
      "payable": false,
      "stateMutability": "view",
      "type": "function",
      "signature": "0xc02ac059"
    },
    {
      "constant": true,
      "inputs": [],
      "name": "listAllProviders",
      "outputs": [
        {
          "components": [
            {
              "name": "provID",
              "type": "uint256"
            },
            {
              "name": "blockNumber",
              "type": "uint256"
            },
            {
              "name": "addr",
              "type": "address"
            },
            {
              "name": "maxTime",
              "type": "uint64"
            },
            {
              "name": "maxTarget",
              "type": "uint16"
            },
            {
              "name": "minPrice",
              "type": "uint256"
            },
            {
              "name": "available",
              "type": "bool"
            }
          ],
          "name": "",
          "type": "tuple[50]"
        }
      ],
      "payable": false,
      "stateMutability": "view",
      "type": "function",
      "signature": "0x6302d071"
    },
    {
      "constant": true,
      "inputs": [],
      "name": "listProviders",
      "outputs": [
        {
          "components": [
            {
              "name": "provID",
              "type": "uint256"
            },
            {
              "name": "blockNumber",
              "type": "uint256"
            },
            {
              "name": "addr",
              "type": "address"
            },
            {
              "name": "maxTime",
              "type": "uint64"
            },
            {
              "name": "maxTarget",
              "type": "uint16"
            },
            {
              "name": "minPrice",
              "type": "uint256"
            },
            {
              "name": "available",
              "type": "bool"
            }
          ],
          "name": "",
          "type": "tuple[50]"
        }
      ],
      "payable": false,
      "stateMutability": "view",
      "type": "function",
      "signature": "0x2bd395a0"
    },
    {
      "constant": true,
      "inputs": [
        {
          "name": "IDList",
          "type": "uint256[]"
        }
      ],
      "name": "listProviders",
      "outputs": [
        {
          "components": [
            {
              "name": "provID",
              "type": "uint256"
            },
            {
              "name": "blockNumber",
              "type": "uint256"
            },
            {
              "name": "addr",
              "type": "address"
            },
            {
              "name": "maxTime",
              "type": "uint64"
            },
            {
              "name": "maxTarget",
              "type": "uint16"
            },
            {
              "name": "minPrice",
              "type": "uint256"
            },
            {
              "name": "available",
              "type": "bool"
            }
          ],
          "name": "",
          "type": "tuple[50]"
        }
      ],
      "payable": false,
      "stateMutability": "view",
      "type": "function",
      "signature": "0xcac1125b"
    }
  ],
  "bytecode": "0x608060405260016000806101000a81548160ff02191690831515021790555060008060016101000a81548160ff02191690831515021790555060008060026101000a81548160ff0219169083151502179055503480156200005f57600080fd5b5060086000620000709190620000b6565b60096000620000809190620000b6565b600a6000620000909190620000b6565b600b6000620000a09190620000b6565b6000600681905550600060078190555062000101565b5080546000825590600052602060002090810190620000d69190620000d9565b50565b620000fe91905b80821115620000fa576000816000905550600101620000e0565b5090565b90565b61487880620001116000396000f3fe608060405260043610610196576000357c0100000000000000000000000000000000000000000000000000000000900463ffffffff16806302e9d43b1461019b5780630c9a90a3146101e357806315f14e89146102205780631f1dab451461025d578063269f3558146102885780632bd395a0146102b35780632ddfdbcc146102de57806332c5200d1461031b57806334a7d79914610346578063353b2a1f14610371578063375e26f51461039c578063390bfd3c146103d95780633fad18341461041c57806346ce41751461044757806358b93e0f14610472578063599b6808146104a25780635c42d079146104df5780635c4c8c4e1461051c57806362e70505146105475780636302d071146105845780636fbea121146105af57806379a0bb95146105ec57806390c0375d1461061c57806391bbb902146106595780639e723b9714610696578063c02ac059146106c1578063c58343ef146106ec578063cac1125b14610729578063d2d5d74f14610766578063d3cca02e146107a3578063df4467ab146107e0578063e1a9daef1461081d575b600080fd5b3480156101a757600080fd5b506101c260048036036101bd9190810190613735565b610848565b6040516101da9c9b9a9998979695949392919061452d565b60405180910390f35b3480156101ef57600080fd5b5061020a600480360361020591908101906136f4565b61097f565b6040516102179190614161565b60405180910390f35b34801561022c57600080fd5b5061024760048036036102429190810190613735565b610a09565b60405161025491906141a5565b60405180910390f35b34801561026957600080fd5b50610272610b80565b60405161027f9190614183565b60405180910390f35b34801561029457600080fd5b5061029d610bd8565b6040516102aa9190614183565b60405180910390f35b3480156102bf57600080fd5b506102c8610c6d565b6040516102d59190614145565b60405180910390f35b3480156102ea57600080fd5b5061030560048036036103009190810190613838565b610cdf565b60405161031291906141c0565b60405180910390f35b34801561032757600080fd5b50610330610f54565b60405161033d9190614183565b60405180910390f35b34801561035257600080fd5b5061035b610fac565b6040516103689190614183565b60405180910390f35b34801561037d57600080fd5b50610386611041565b6040516103939190614218565b60405180910390f35b3480156103a857600080fd5b506103c360048036036103be91908101906137ad565b61104e565b6040516103d091906141a5565b60405180910390f35b3480156103e557600080fd5b5061040060048036036103fb9190810190613735565b611227565b60405161041397969594939291906145e7565b60405180910390f35b34801561042857600080fd5b506104316112b8565b60405161043e9190614218565b60405180910390f35b34801561045357600080fd5b5061045c6112c2565b6040516104699190614218565b60405180910390f35b61048c60048036036104879190810190613838565b6112cc565b60405161049991906141c0565b60405180910390f35b3480156104ae57600080fd5b506104c960048036036104c49190810190613735565b61164f565b6040516104d69190614218565b60405180910390f35b3480156104eb57600080fd5b5061050660048036036105019190810190613735565b611667565b60405161051391906141db565b60405180910390f35b34801561052857600080fd5b50610531611776565b60405161053e9190614218565b60405180910390f35b34801561055357600080fd5b5061056e6004803603610569919081019061368f565b611783565b60405161057b9190614183565b60405180910390f35b34801561059057600080fd5b5061059961181a565b6040516105a69190614145565b60405180910390f35b3480156105bb57600080fd5b506105d660048036036105d1919081019061375e565b61188c565b6040516105e391906141a5565b60405180910390f35b610606600480360361060191908101906137e9565b611af7565b60405161061391906141a5565b60405180910390f35b34801561062857600080fd5b50610643600480360361063e9190810190613735565b611d1f565b60405161065091906141a5565b60405180910390f35b34801561066557600080fd5b50610680600480360361067b919081019061368f565b611f38565b60405161068d9190614183565b60405180910390f35b3480156106a257600080fd5b506106ab611fcf565b6040516106b89190614183565b60405180910390f35b3480156106cd57600080fd5b506106d6612027565b6040516106e39190614161565b60405180910390f35b3480156106f857600080fd5b50610713600480360361070e9190810190613735565b612099565b60405161072091906141f6565b60405180910390f35b34801561073557600080fd5b50610750600480360361074b91908101906136f4565b6123e4565b60405161075d9190614145565b60405180910390f35b34801561077257600080fd5b5061078d600480360361078891908101906136b8565b61246e565b60405161079a9190614218565b60405180910390f35b3480156107af57600080fd5b506107ca60048036036107c591908101906136b8565b61249e565b6040516107d79190614218565b60405180910390f35b3480156107ec57600080fd5b5061080760048036036108029190810190613887565b6124ce565b60405161081491906141a5565b60405180910390f35b34801561082957600080fd5b506108326126a7565b60405161083f9190614183565b60405180910390f35b60026020528060005260406000206000915090508060000154908060010154908060020160009054906101000a900473ffffffffffffffffffffffffffffffffffffffff16908060030160009054906101000a900473ffffffffffffffffffffffffffffffffffffffff16908060030160149054906101000a900467ffffffffffffffff169080600301601c9054906101000a900461ffff16908060040154908060050160009054906101000a900467ffffffffffffffff16908060050160089054906101000a900467ffffffffffffffff16908060050160109054906101000a900467ffffffffffffffff16908060080160009054906101000a900460ff16908060080160019054906101000a90047f01000000000000000000000000000000000000000000000000000000000000000290508c565b610987613257565b61098f613257565b60008090505b83518167ffffffffffffffff1610156109ff576109d2848267ffffffffffffffff168151811015156109c357fe5b90602001906020020151612099565b828267ffffffffffffffff166032811015156109ea57fe5b60200201819052508080600101915050610995565b5080915050919050565b60008060009050600115156001600085815260200190815260200160002060040160009054906101000a900460ff161515148015610aa857503373ffffffffffffffffffffffffffffffffffffffff166001600085815260200190815260200160002060020160009054906101000a900473ffffffffffffffffffffffffffffffffffffffff1673ffffffffffffffffffffffffffffffffffffffff16145b15610b3557610af5600360003373ffffffffffffffffffffffffffffffffffffffff1673ffffffffffffffffffffffffffffffffffffffff168152602001908152602001600020846126ff565b9050610b026008846126ff565b8015610b0b5750805b9050600015156001600085815260200190815260200160002060040160009054906101000a905050505b8015610b77577fa4c4c871d43d81be54f69ce74ea5bc289663a3cdf402d09baf09407085be023160065433604051610b6e929190614323565b60405180910390a15b80915050919050565b6060600a805480602002602001604051908101604052809291908181526020018280548015610bce57602002820191906000526020600020905b815481526020019060010190808311610bba575b5050505050905090565b6060600460003373ffffffffffffffffffffffffffffffffffffffff1673ffffffffffffffffffffffffffffffffffffffff168152602001908152602001600020805480602002602001604051908101604052809291908181526020018280548015610c6357602002820191906000526020600020905b815481526020019060010190808311610c4f575b5050505050905090565b610c75613286565b610c7d613286565b60008090505b6006548167ffffffffffffffff161015610cd757610caa8167ffffffffffffffff16611667565b828267ffffffffffffffff16603281101515610cc257fe5b60200201819052508080600101915050610c83565b508091505090565b60006006546001600060065481526020019081526020016000206000018190555043600160006006548152602001908152602001600020600101819055503360016000600654815260200190815260200160002060020160006101000a81548173ffffffffffffffffffffffffffffffffffffffff021916908373ffffffffffffffffffffffffffffffffffffffff1602179055508360016000600654815260200190815260200160002060020160146101000a81548167ffffffffffffffff021916908367ffffffffffffffff16021790555082600160006006548152602001908152602001600020600201601c6101000a81548161ffff021916908361ffff1602179055508167ffffffffffffffff1660016000600654815260200190815260200160002060030181905550600360003373ffffffffffffffffffffffffffffffffffffffff1673ffffffffffffffffffffffffffffffffffffffff1681526020019081526020016000206006549080600181540180825580915050906001820390600052602060002001600090919290919091505550600860065490806001815401808255809150509060018203906000526020600020016000909192909190915055506001806000600654815260200190815260200160002060040160006101000a81548160ff0219169083151502179055507fa4c4c871d43d81be54f69ce74ea5bc289663a3cdf402d09baf09407085be023160065433604051610f099291906142e7565b60405180910390a16006600081548092919060010191905055506000809054906101000a900460ff1615610f4c57610f456001600654036127e8565b9050610f4d565b5b9392505050565b6060600b805480602002602001604051908101604052809291908181526020018280548015610fa257602002820191906000526020600020905b815481526020019060010190808311610f8e575b5050505050905090565b6060600360003373ffffffffffffffffffffffffffffffffffffffff1673ffffffffffffffffffffffffffffffffffffffff16815260200190815260200160002080548060200260200160405190810160405280929190818152602001828054801561103757602002820191906000526020600020905b815481526020019060010190808311611023575b5050505050905090565b6000600880549050905090565b60006002600084815260200190815260200160002060030160009054906101000a900473ffffffffffffffffffffffffffffffffffffffff1673ffffffffffffffffffffffffffffffffffffffff163373ffffffffffffffffffffffffffffffffffffffff16141561121c577f32000000000000000000000000000000000000000000000000000000000000006002600085815260200190815260200160002060080160016101000a81548160ff02191690837f010000000000000000000000000000000000000000000000000000000000000090040217905550816002600085815260200190815260200160002060050160086101000a81548167ffffffffffffffff021916908367ffffffffffffffff1602179055506000809050611176600a856126ff565b9050801515611189576000915050611221565b600b8490806001815401808255809150509060018203906000526020600020016000909192909190915055507f32e8745b1198a29ee11e0cbdbdaad4a01afae317e0d96d682345f5a53ac79b32846040516111e491906144d1565b60405180910390a1600060019054906101000a900460ff16156112125761120a846129b1565b915050611221565b6001915050611221565b600090505b92915050565b60016020528060005260406000206000915090508060000154908060010154908060020160009054906101000a900473ffffffffffffffffffffffffffffffffffffffff16908060020160149054906101000a900467ffffffffffffffff169080600201601c9054906101000a900461ffff16908060030154908060040160009054906101000a900460ff16905087565b6000600754905090565b6000600654905090565b60006007546002600060075481526020019081526020016000206000018190555043600260006007548152602001908152602001600020600101819055503360026000600754815260200190815260200160002060020160006101000a81548173ffffffffffffffffffffffffffffffffffffffff021916908373ffffffffffffffffffffffffffffffffffffffff160217905550600060026000600754815260200190815260200160002060030160006101000a81548173ffffffffffffffffffffffffffffffffffffffff021916908373ffffffffffffffffffffffffffffffffffffffff1602179055508160026000600754815260200190815260200160002060030160146101000a81548167ffffffffffffffff021916908367ffffffffffffffff16021790555082600260006007548152602001908152602001600020600301601c6101000a81548161ffff021916908361ffff16021790555034600260006007548152602001908152602001600020600401819055508360026000600754815260200190815260200160002060050160006101000a81548167ffffffffffffffff021916908367ffffffffffffffff160217905550600160026000600754815260200190815260200160002060050160106101000a81548167ffffffffffffffff021916908367ffffffffffffffff160217905550600460003373ffffffffffffffffffffffffffffffffffffffff1673ffffffffffffffffffffffffffffffffffffffff1681526020019081526020016000206007549080600181540180825580915050906001820390600052602060002001600090919290919091505550600960075490806001815401808255809150509060018203906000526020600020016000909192909190915055507f300000000000000000000000000000000000000000000000000000000000000060026000600754815260200190815260200160002060080160016101000a81548160ff02191690837f0100000000000000000000000000000000000000000000000000000000000000900402179055507fa4c4c871d43d81be54f69ce74ea5bc289663a3cdf402d09baf09407085be02316007543360405161160492919061435f565b60405180910390a16007600081548092919060010191905055506000809054906101000a900460ff161561164757611640600160075403612c4e565b9050611648565b5b9392505050565b60056020528060005260406000206000915090505481565b61166f6132b5565b6001600083815260200190815260200160002060e0604051908101604052908160008201548152602001600182015481526020016002820160009054906101000a900473ffffffffffffffffffffffffffffffffffffffff1673ffffffffffffffffffffffffffffffffffffffff1673ffffffffffffffffffffffffffffffffffffffff1681526020016002820160149054906101000a900467ffffffffffffffff1667ffffffffffffffff1667ffffffffffffffff16815260200160028201601c9054906101000a900461ffff1661ffff1661ffff168152602001600382015481526020016004820160009054906101000a900460ff1615151515815250509050919050565b6000600980549050905090565b6060600460008373ffffffffffffffffffffffffffffffffffffffff1673ffffffffffffffffffffffffffffffffffffffff16815260200190815260200160002080548060200260200160405190810160405280929190818152602001828054801561180e57602002820191906000526020600020905b8154815260200190600101908083116117fa575b50505050509050919050565b611822613286565b61182a613286565b60008090505b6006548167ffffffffffffffff161015611884576118578167ffffffffffffffff16611667565b828267ffffffffffffffff1660328110151561186f57fe5b60200201819052508080600101915050611830565b508091505090565b60006002600085815260200190815260200160002060030160009054906101000a900473ffffffffffffffffffffffffffffffffffffffff1673ffffffffffffffffffffffffffffffffffffffff166001600085815260200190815260200160002060020160009054906101000a900473ffffffffffffffffffffffffffffffffffffffff1673ffffffffffffffffffffffffffffffffffffffff161415156119cb57600260008581526020019081526020016000206007018390806001815401808255809150509060018203906000526020600020016000909192909190915055506002600085815260200190815260200160002060060182908060018154018082558091505090600182039060005260206000209060209182820401919006909192909190916101000a81548160ff021916908315150217905550505b7fc4f678ebfd7e29fd2b410c08e9adcef6a55d52ee8c9b379f90cb334d18438668846002600087815260200190815260200160002060020160009054906101000a900473ffffffffffffffffffffffffffffffffffffffff16856001600088815260200190815260200160002060020160009054906101000a900473ffffffffffffffffffffffffffffffffffffffff16604051611a6c949392919061444b565b60405180910390a16002600085815260200190815260200160002060050160109054906101000a900467ffffffffffffffff1667ffffffffffffffff1660026000868152602001908152602001600020600701805490501415611aef57600060029054906101000a900460ff1615611aee57611ae784612e17565b9050611af0565b5b5b9392505050565b600080600090507f30000000000000000000000000000000000000000000000000000000000000006002600085815260200190815260200160002060080160019054906101000a90047f0100000000000000000000000000000000000000000000000000000000000000027effffffffffffffffffffffffffffffffffffffffffffffffffffffffffffff1916148015611bf257503373ffffffffffffffffffffffffffffffffffffffff166002600085815260200190815260200160002060020160009054906101000a900473ffffffffffffffffffffffffffffffffffffffff1673ffffffffffffffffffffffffffffffffffffffff16145b15611d1657436002600085815260200190815260200160002060010181905550846002600085815260200190815260200160002060030160146101000a81548167ffffffffffffffff021916908367ffffffffffffffff1602179055508360026000858152602001908152602001600020600301601c6101000a81548161ffff021916908361ffff160217905550346002600085815260200190815260200160002060040181905550611ca66009846126ff565b905060098390806001815401808255809150509060018203906000526020600020016000909192909190915055507fa4c4c871d43d81be54f69ce74ea5bc289663a3cdf402d09baf09407085be02318333604051611d0592919061426f565b60405180910390a180915050611d18565b505b9392505050565b600080600090507f30000000000000000000000000000000000000000000000000000000000000006002600085815260200190815260200160002060080160019054906101000a90047f0100000000000000000000000000000000000000000000000000000000000000027effffffffffffffffffffffffffffffffffffffffffffffffffffffffffffff1916148015611e1a57503373ffffffffffffffffffffffffffffffffffffffff166002600085815260200190815260200160002060020160009054906101000a900473ffffffffffffffffffffffffffffffffffffffff1673ffffffffffffffffffffffffffffffffffffffff16145b15611eef57611e67600460003373ffffffffffffffffffffffffffffffffffffffff1673ffffffffffffffffffffffffffffffffffffffff168152602001908152602001600020846126ff565b9050611e746009846126ff565b8015611e7d5750805b90507f37000000000000000000000000000000000000000000000000000000000000006002600085815260200190815260200160002060080160016101000a81548160ff02191690837f0100000000000000000000000000000000000000000000000000000000000000900402179055505b8015611f2f577fa4c4c871d43d81be54f69ce74ea5bc289663a3cdf402d09baf09407085be02318333604051611f269291906142ab565b60405180910390a15b80915050919050565b6060600360008373ffffffffffffffffffffffffffffffffffffffff1673ffffffffffffffffffffffffffffffffffffffff168152602001908152602001600020805480602002602001604051908101604052809291908181526020018280548015611fc357602002820191906000526020600020905b815481526020019060010190808311611faf575b50505050509050919050565b6060600880548060200260200160405190810160405280929190818152602001828054801561201d57602002820191906000526020600020905b815481526020019060010190808311612009575b5050505050905090565b61202f613257565b612037613257565b60008090505b6007548167ffffffffffffffff161015612091576120648167ffffffffffffffff16612099565b828267ffffffffffffffff1660328110151561207c57fe5b6020020181905250808060010191505061203d565b508091505090565b6120a1613319565b600260008381526020019081526020016000206101c0604051908101604052908160008201548152602001600182015481526020016002820160009054906101000a900473ffffffffffffffffffffffffffffffffffffffff1673ffffffffffffffffffffffffffffffffffffffff1673ffffffffffffffffffffffffffffffffffffffff1681526020016003820160009054906101000a900473ffffffffffffffffffffffffffffffffffffffff1673ffffffffffffffffffffffffffffffffffffffff1673ffffffffffffffffffffffffffffffffffffffff1681526020016003820160149054906101000a900467ffffffffffffffff1667ffffffffffffffff1667ffffffffffffffff16815260200160038201601c9054906101000a900461ffff1661ffff1661ffff168152602001600482015481526020016005820160009054906101000a900467ffffffffffffffff1667ffffffffffffffff1667ffffffffffffffff1681526020016005820160089054906101000a900467ffffffffffffffff1667ffffffffffffffff1667ffffffffffffffff1681526020016005820160109054906101000a900467ffffffffffffffff1667ffffffffffffffff1667ffffffffffffffff168152602001600682018054806020026020016040519081016040528092919081815260200182805480156122e757602002820191906000526020600020906000905b82829054906101000a900460ff161515815260200190600101906020826000010492830192600103820291508084116122b15790505b505050505081526020016007820180548060200260200160405190810160405280929190818152602001828054801561233f57602002820191906000526020600020905b81548152602001906001019080831161232b575b505050505081526020016008820160009054906101000a900460ff161515151581526020016008820160019054906101000a90047f0100000000000000000000000000000000000000000000000000000000000000027effffffffffffffffffffffffffffffffffffffffffffffffffffffffffffff19167effffffffffffffffffffffffffffffffffffffffffffffffffffffffffffff1916815250509050919050565b6123ec613286565b6123f4613286565b60008090505b83518167ffffffffffffffff16101561246457612437848267ffffffffffffffff1681518110151561242857fe5b90602001906020020151611667565b828267ffffffffffffffff1660328110151561244f57fe5b602002018190525080806001019150506123fa565b5080915050919050565b60036020528160005260406000208181548110151561248957fe5b90600052602060002001600091509150505481565b6004602052816000526040600020818154811015156124b957fe5b90600052602060002001600091509150505481565b60008060009050600115156001600085815260200190815260200160002060040160009054906101000a900460ff16151514801561256d57503373ffffffffffffffffffffffffffffffffffffffff166001600085815260200190815260200160002060020160009054906101000a900473ffffffffffffffffffffffffffffffffffffffff1673ffffffffffffffffffffffffffffffffffffffff16145b1561269d57436001600085815260200190815260200160002060010181905550856001600085815260200190815260200160002060020160146101000a81548167ffffffffffffffff021916908367ffffffffffffffff1602179055508460016000858152602001908152602001600020600201601c6101000a81548161ffff021916908361ffff1602179055508367ffffffffffffffff16600160008581526020019081526020016000206003018190555061262b6008846126ff565b905060088390806001815401808255809150509060018203906000526020600020016000909192909190915055507fa4c4c871d43d81be54f69ce74ea5bc289663a3cdf402d09baf09407085be02316006543360405161268c929190614233565b60405180910390a18091505061269f565b505b949350505050565b606060098054806020026020016040519081016040528092919081815260200182805480156126f557602002820191906000526020600020905b8154815260200190600101908083116126e1575b5050505050905090565b600080600090505b83805490508167ffffffffffffffff1610156127dc5782848267ffffffffffffffff1681548110151561273657fe5b906000526020600020015414156127cf5783600185805490500381548110151561275c57fe5b9060005260206000200154848267ffffffffffffffff1681548110151561277f57fe5b90600052602060002001819055508360018580549050038154811015156127a257fe5b9060005260206000200160009055838054809190600190036127c49190613405565b5060019150506127e2565b8080600101915050612707565b50600090505b92915050565b600080600980549050141561281f577f320000000000000000000000000000000000000000000000000000000000000090506129ac565b60008090505b6009805490508167ffffffffffffffff16101561298757600060098267ffffffffffffffff1681548110151561285757fe5b906000526020600020015490506001600085815260200190815260200160002060020160149054906101000a900467ffffffffffffffff1667ffffffffffffffff166002600083815260200190815260200160002060030160149054906101000a900467ffffffffffffffff1667ffffffffffffffff1610801561292a575060016000858152602001908152602001600020600201601c9054906101000a900461ffff1661ffff1660026000838152602001908152602001600020600301601c9054906101000a900461ffff1661ffff16105b8015612961575060016000858152602001908152602001600020600301546002600083815260200190815260200160002060040154115b15612979576129708185612f9e565b925050506129ac565b508080600101915050612825565b507f310000000000000000000000000000000000000000000000000000000000000090505b919050565b6000806002600084815260200190815260200160002060050160109054906101000a900467ffffffffffffffff169050600080905060008090505b6008805490508167ffffffffffffffff161015612c0e57600060088267ffffffffffffffff16815481101515612a1e57fe5b906000526020600020015490508367ffffffffffffffff168367ffffffffffffffff161015612bf3576002600087815260200190815260200160002060030160009054906101000a900473ffffffffffffffffffffffffffffffffffffffff1673ffffffffffffffffffffffffffffffffffffffff166001600083815260200190815260200160002060020160009054906101000a900473ffffffffffffffffffffffffffffffffffffffff1673ffffffffffffffffffffffffffffffffffffffff16141515612bee577fc4f678ebfd7e29fd2b410c08e9adcef6a55d52ee8c9b379f90cb334d18438668866002600089815260200190815260200160002060020160009054906101000a900473ffffffffffffffffffffffffffffffffffffffff16836001600086815260200190815260200160002060020160009054906101000a900473ffffffffffffffffffffffffffffffffffffffff16604051612b8994939291906143f3565b60405180910390a1828060010193505060006001600083815260200190815260200160002060040160006101000a81548160ff0219169083151502179055506000612bd56008836126ff565b9050801515612bec57600095505050505050612c49565b505b612c00565b6001945050505050612c49565b5080806001019150506129ec565b507f32e8745b1198a29ee11e0cbdbdaad4a01afae317e0d96d682345f5a53ac79b3284604051612c3e91906144a3565b60405180910390a150505b919050565b6000806008805490501415612c85577f32000000000000000000000000000000000000000000000000000000000000009050612e12565b60008090505b6008805490508167ffffffffffffffff161015612ded57600060088267ffffffffffffffff16815481101515612cbd57fe5b906000526020600020015490506001600082815260200190815260200160002060020160149054906101000a900467ffffffffffffffff1667ffffffffffffffff166002600086815260200190815260200160002060030160149054906101000a900467ffffffffffffffff1667ffffffffffffffff16108015612d90575060016000828152602001908152602001600020600201601c9054906101000a900461ffff1661ffff1660026000868152602001908152602001600020600301601c9054906101000a900461ffff1661ffff16105b8015612dc7575060016000828152602001908152602001600020600301546002600086815260200190815260200160002060040154115b15612ddf57612dd68482612f9e565b92505050612e12565b508080600101915050612c8b565b507f310000000000000000000000000000000000000000000000000000000000000090505b919050565b6000806000905060008090505b60026000858152602001908152602001600020600701805490508167ffffffffffffffff161015612ebe5760011515600260008681526020019081526020016000206006018267ffffffffffffffff16815481101515612e8057fe5b90600052602060002090602091828204019190069054906101000a900460ff1615151415612eb15781806001019250505b8080600101915050612e24565b506002600084815260200190815260200160002060050160109054906101000a900467ffffffffffffffff1667ffffffffffffffff168167ffffffffffffffff16101515612f3a5760016002600085815260200190815260200160002060080160006101000a81548160ff021916908315150217905550612f3b565b5b7f32e8745b1198a29ee11e0cbdbdaad4a01afae317e0d96d682345f5a53ac79b3283604051612f6a91906144ff565b60405180910390a16002600084815260200190815260200160002060080160009054906101000a900460ff16915050919050565b6000806001600084815260200190815260200160002060040160006101000a81548160ff0219169083151502179055506001600083815260200190815260200160002060020160009054906101000a900473ffffffffffffffffffffffffffffffffffffffff166002600085815260200190815260200160002060030160006101000a81548173ffffffffffffffffffffffffffffffffffffffff021916908373ffffffffffffffffffffffffffffffffffffffff1602179055507f31000000000000000000000000000000000000000000000000000000000000006002600085815260200190815260200160002060080160016101000a81548160ff02191690837f01000000000000000000000000000000000000000000000000000000000000009004021790555060008090506130d86009856126ff565b90506130e56008846126ff565b80156130ee5750805b9050801515613120577f3300000000000000000000000000000000000000000000000000000000000000915050613251565b600a849080600181540180825580915050906001820390600052602060002001600090919290919091505550600260008581526020019081526020016000206004015460056000868152602001908152602001600020600082825401925050819055507fc4f678ebfd7e29fd2b410c08e9adcef6a55d52ee8c9b379f90cb334d18438668846002600087815260200190815260200160002060020160009054906101000a900473ffffffffffffffffffffffffffffffffffffffff16856001600088815260200190815260200160002060020160009054906101000a900473ffffffffffffffffffffffffffffffffffffffff16604051613224949392919061439b565b60405180910390a17f30000000000000000000000000000000000000000000000000000000000000009150505b92915050565b615780604051908101604052806032905b613270613431565b8152602001906001900390816132685790505090565b612bc0604051908101604052806032905b61329f61351d565b8152602001906001900390816132975790505090565b60e0604051908101604052806000815260200160008152602001600073ffffffffffffffffffffffffffffffffffffffff168152602001600067ffffffffffffffff168152602001600061ffff168152602001600081526020016000151581525090565b6101c0604051908101604052806000815260200160008152602001600073ffffffffffffffffffffffffffffffffffffffff168152602001600073ffffffffffffffffffffffffffffffffffffffff168152602001600067ffffffffffffffff168152602001600061ffff16815260200160008152602001600067ffffffffffffffff168152602001600067ffffffffffffffff168152602001600067ffffffffffffffff168152602001606081526020016060815260200160001515815260200160007effffffffffffffffffffffffffffffffffffffffffffffffffffffffffffff191681525090565b81548183558181111561342c5781836000526020600020918201910161342b9190613581565b5b505050565b6101c0604051908101604052806000815260200160008152602001600073ffffffffffffffffffffffffffffffffffffffff168152602001600073ffffffffffffffffffffffffffffffffffffffff168152602001600067ffffffffffffffff168152602001600061ffff16815260200160008152602001600067ffffffffffffffff168152602001600067ffffffffffffffff168152602001600067ffffffffffffffff168152602001606081526020016060815260200160001515815260200160007effffffffffffffffffffffffffffffffffffffffffffffffffffffffffffff191681525090565b60e0604051908101604052806000815260200160008152602001600073ffffffffffffffffffffffffffffffffffffffff168152602001600067ffffffffffffffff168152602001600061ffff168152602001600081526020016000151581525090565b6135a391905b8082111561359f576000816000905550600101613587565b5090565b90565b60006135b282356147f4565b905092915050565b600082601f83011215156135cd57600080fd5b81356135e06135db82614683565b614656565b9150818183526020840193506020810190508385602084028201111561360557600080fd5b60005b83811015613635578161361b8882613667565b845260208401935060208301925050600181019050613608565b5050505092915050565b600061364b8235614806565b905092915050565b600061365f8235614812565b905092915050565b60006136738235614820565b905092915050565b6000613687823561482a565b905092915050565b6000602082840312156136a157600080fd5b60006136af848285016135a6565b91505092915050565b600080604083850312156136cb57600080fd5b60006136d9858286016135a6565b92505060206136ea85828601613667565b9150509250929050565b60006020828403121561370657600080fd5b600082013567ffffffffffffffff81111561372057600080fd5b61372c848285016135ba565b91505092915050565b60006020828403121561374757600080fd5b600061375584828501613667565b91505092915050565b60008060006060848603121561377357600080fd5b600061378186828701613667565b935050602061379286828701613667565b92505060406137a38682870161363f565b9150509250925092565b600080604083850312156137c057600080fd5b60006137ce85828601613667565b92505060206137df8582860161367b565b9150509250929050565b6000806000606084860312156137fe57600080fd5b600061380c8682870161367b565b935050602061381d86828701613653565b925050604061382e86828701613667565b9150509250925092565b60008060006060848603121561384d57600080fd5b600061385b8682870161367b565b935050602061386c86828701613653565b925050604061387d8682870161367b565b9150509250925092565b6000806000806080858703121561389d57600080fd5b60006138ab8782880161367b565b94505060206138bc87828801613653565b93505060406138cd8782880161367b565b92505060606138de87828801613667565b91505092959194509250565b6138f38161475e565b82525050565b6000613904826146e6565b808452602084019350613916836146ab565b60005b828110156139485761392c868351613aba565b6139358261471d565b9150602086019550600181019050613919565b50849250505092915050565b61395d816146f1565b613966826146b8565b60005b828110156139985761397c858351613e20565b6139858261472a565b915060e085019450600181019050613969565b5050505050565b60006139aa826146fc565b836020820285016139ba856146c2565b60005b848110156139f35783830388526139d5838351613fe3565b92506139e082614737565b91506020880197506001810190506139bd565b508196508694505050505092915050565b6000613a0f82614712565b808452602084019350613a21836146d9565b60005b82811015613a5357613a37868351614127565b613a4082614751565b9150602086019550600181019050613a24565b50849250505092915050565b6000613a6a82614707565b808452602084019350613a7c836146cc565b60005b82811015613aae57613a92868351614127565b613a9b82614744565b9150602086019550600181019050613a7f565b50849250505092915050565b613ac381614770565b82525050565b613ad28161477c565b82525050565b6000601c82527f526571756573742061737369676e656420746f2050726f7669646572000000006020830152604082019050919050565b6000601082527f50726f76696465722055706461746564000000000000000000000000000000006020830152604082019050919050565b6000600f82527f52657175657374205570646174656400000000000000000000000000000000006020830152604082019050919050565b6000602382527f5265717565737420676f7420696e73756666696369656e742076616c6964617460208301527f696f6e00000000000000000000000000000000000000000000000000000000006040830152606082019050919050565b6000601f82527f56616c69646174696f6e2041737369676e656420746f2050726f7669646572006020830152604082019050919050565b6000600f82527f526571756573742053746f7070656400000000000000000000000000000000006020830152604082019050919050565b6000601d82527f5265717565737420436f6d7075746174696f6e20436f6d706c657465640000006020830152604082019050919050565b6000600e82527f50726f76696465722041646465640000000000000000000000000000000000006020830152604082019050919050565b6000601082527f50726f76696465722053746f70706564000000000000000000000000000000006020830152604082019050919050565b6000601082527f56616c696461746f72205369676e6564000000000000000000000000000000006020830152604082019050919050565b6000601382527f56616c69646174696f6e20436f6d706c657465000000000000000000000000006020830152604082019050919050565b6000600d82527f52657175657374204164646564000000000000000000000000000000000000006020830152604082019050919050565b60e082016000820151613da86000850182614127565b506020820151613dbb6020850182614127565b506040820151613dce60408501826138ea565b506060820151613de16060850182614136565b506080820151613df46080850182614118565b5060a0820151613e0760a0850182614127565b5060c0820151613e1a60c0850182613aba565b50505050565b60e082016000820151613e366000850182614127565b506020820151613e496020850182614127565b506040820151613e5c60408501826138ea565b506060820151613e6f6060850182614136565b506080820151613e826080850182614118565b5060a0820151613e9560a0850182614127565b5060c0820151613ea860c0850182613aba565b50505050565b60006101c083016000830151613ec76000860182614127565b506020830151613eda6020860182614127565b506040830151613eed60408601826138ea565b506060830151613f0060608601826138ea565b506080830151613f136080860182614136565b5060a0830151613f2660a0860182614118565b5060c0830151613f3960c0860182614127565b5060e0830151613f4c60e0860182614136565b50610100830151613f61610100860182614136565b50610120830151613f76610120860182614136565b50610140830151848203610140860152613f9082826138f9565b915050610160830151848203610160860152613fac8282613a5f565b915050610180830151613fc3610180860182613aba565b506101a0830151613fd86101a0860182613ac9565b508091505092915050565b60006101c083016000830151613ffc6000860182614127565b50602083015161400f6020860182614127565b50604083015161402260408601826138ea565b50606083015161403560608601826138ea565b5060808301516140486080860182614136565b5060a083015161405b60a0860182614118565b5060c083015161406e60c0860182614127565b5060e083015161408160e0860182614136565b50610100830151614096610100860182614136565b506101208301516140ab610120860182614136565b506101408301518482036101408601526140c582826138f9565b9150506101608301518482036101608601526140e18282613a5f565b9150506101808301516140f8610180860182613aba565b506101a083015161410d6101a0860182613ac9565b508091505092915050565b614121816147a8565b82525050565b614130816147d6565b82525050565b61413f816147e0565b82525050565b6000612bc08201905061415b6000830184613954565b92915050565b6000602082019050818103600083015261417b818461399f565b905092915050565b6000602082019050818103600083015261419d8184613a04565b905092915050565b60006020820190506141ba6000830184613aba565b92915050565b60006020820190506141d56000830184613ac9565b92915050565b600060e0820190506141f06000830184613d92565b92915050565b600060208201905081810360008301526142108184613eae565b905092915050565b600060208201905061422d6000830184614127565b92915050565b60006060820190506142486000830185614127565b61425560208301846138ea565b818103604083015261426681613b0f565b90509392505050565b60006060820190506142846000830185614127565b61429160208301846138ea565b81810360408301526142a281613b46565b90509392505050565b60006060820190506142c06000830185614127565b6142cd60208301846138ea565b81810360408301526142de81613c11565b90509392505050565b60006060820190506142fc6000830185614127565b61430960208301846138ea565b818103604083015261431a81613c7f565b90509392505050565b60006060820190506143386000830185614127565b61434560208301846138ea565b818103604083015261435681613cb6565b90509392505050565b60006060820190506143746000830185614127565b61438160208301846138ea565b818103604083015261439281613d5b565b90509392505050565b600060a0820190506143b06000830187614127565b6143bd60208301866138ea565b6143ca6040830185614127565b6143d760608301846138ea565b81810360808301526143e881613ad8565b905095945050505050565b600060a0820190506144086000830187614127565b61441560208301866138ea565b6144226040830185614127565b61442f60608301846138ea565b818103608083015261444081613bda565b905095945050505050565b600060a0820190506144606000830187614127565b61446d60208301866138ea565b61447a6040830185614127565b61448760608301846138ea565b818103608083015261449881613ced565b905095945050505050565b60006040820190506144b86000830184614127565b81810360208301526144c981613b7d565b905092915050565b60006040820190506144e66000830184614127565b81810360208301526144f781613c48565b905092915050565b60006040820190506145146000830184614127565b818103602083015261452581613d24565b905092915050565b600061018082019050614543600083018f614127565b614550602083018e614127565b61455d604083018d6138ea565b61456a606083018c6138ea565b614577608083018b614136565b61458460a083018a614118565b61459160c0830189614127565b61459e60e0830188614136565b6145ac610100830187614136565b6145ba610120830186614136565b6145c8610140830185613aba565b6145d6610160830184613ac9565b9d9c50505050505050505050505050565b600060e0820190506145fc600083018a614127565b6146096020830189614127565b61461660408301886138ea565b6146236060830187614136565b6146306080830186614118565b61463d60a0830185614127565b61464a60c0830184613aba565b98975050505050505050565b6000604051905081810181811067ffffffffffffffff8211171561467957600080fd5b8060405250919050565b600067ffffffffffffffff82111561469a57600080fd5b602082029050602081019050919050565b6000602082019050919050565b6000819050919050565b6000819050919050565b6000602082019050919050565b6000602082019050919050565b600081519050919050565b600060329050919050565b600060329050919050565b600081519050919050565b600081519050919050565b6000602082019050919050565b6000602082019050919050565b6000602082019050919050565b6000602082019050919050565b6000602082019050919050565b6000614769826147b6565b9050919050565b60008115159050919050565b60007fff0000000000000000000000000000000000000000000000000000000000000082169050919050565b600061ffff82169050919050565b600073ffffffffffffffffffffffffffffffffffffffff82169050919050565b6000819050919050565b600067ffffffffffffffff82169050919050565b60006147ff826147b6565b9050919050565b60008115159050919050565b600061ffff82169050919050565b6000819050919050565b600067ffffffffffffffff8216905091905056fea265627a7a723058205a872823770c8fe9b9dd49372c1fc10d57eff23c6557a752c13809505dfc258a6c6578706572696d656e74616cf50037",
  "source": "//version 0.9.4\n//Author: Taurus, Landry\n//Copyright: tlu4@lsu.edu\n\n//NOTE: functions sending TX cannot retrieve returnValues, only possible way is event\n// Instead function calls can return value directly.\n\npragma solidity ^0.5.0;\npragma experimental ABIEncoderV2;   //return self-defined type\n\ncontract TaskContract {\n    //config\n    bool autoAssign = true;            //whether auto assign the task\n    bool autoValidate = false;         //whether auto pair validation\n    bool autoFinalization = false;\n    //uint8 validates = 8;\n    \n    \n    //list\n    mapping (uint256 => Provider) public providerList;  //history\n    mapping (uint256 => Request) public requestList;    //history\n    \n    //mapping address with ID       //editing these mapping cost a lot\n    mapping (address => uint256[])  public providerMap;\n    mapping (address => uint256[])  public requestMap;\n \n    mapping (uint256 => uint256) public balanceList;    //reqID => balance\n    \n    //ID - counter\n    uint256 private providerCount;     //+1 each time\n    uint256 private requestCount;\n    //Pool: providers can be removed from the pool but requests must be in one of the pool\n    uint256[] providerPool;     //providers\n    uint256[] pendingPool;      //requests\n    uint256[] providingPool;    //requests\n    uint256[] validatingPool;   //requests\n    uint256[] donePool;         //requests  //NOTE: [Important] this array could increase unlimitedly -- only for testing\n\n    \n    \n\n    constructor() public {      //sol 5.0 syntax\n        delete providerPool;\n        delete pendingPool;\n        delete providingPool;\n        delete validatingPool;\n        providerCount = 0;\n        requestCount = 0;\n    }\n\n    struct Request {\n        uint256 reqID;                  //requestID is the only identifier for each Request\n        uint256 blockNumber;\n        address payable addr;           //payable is new feature from sol v5.0\n        //uint256 assignedProvider;\n        address payable provider;        \n        //address payable provider;     //addr of worker\n        uint64  time;                   //time\n        uint16  target;                 //target 0-100.00\n        uint256 price;                  //the max amount he can pay\n        uint64  dataID;                 //dataID used to fetch the off-chain data\n        uint64  resultID;               //dataID to fetch the result\n        uint64  numValidations;         //user defined the validation\n        //mapping (uint256 => bool) validationList;\n        bool[] signatures;\n        uint256 [] validators; //multisignature from validations\n        bool    isValid;                //the final flag\n        byte    status;                 //0: 'pending', 1:'providing', 2: validating, 3: complete, 7: deleted\n    }\n\n    struct Provider {\n        uint256 provID;\n        uint256 blockNumber;\n        address payable addr;       //providers address    \n                                    //TODO: the provider name registration.\n        uint64  maxTime;            //max time\n        uint16  maxTarget;          //max target he need\n        uint256 minPrice;           //lowest price can accept\n        bool    available;          //Used to determine if provider is already doing something\n    }\n    //event\n    //TODO: events optimization: many events have the similar structure, may be combined\n    event ProviderAdded     (uint256 provID, address payable addr);\n    event ProviderStopped   (uint256 provID, address payable addr);\n    event ProviderUpdated   (uint256 provID, address payable addr);\n    event TaskAssigned      (uint256 reqID, address payable reqAddr,\n                            uint256 provID, address payable provAddr);     // next step: call assignRequest\n    \n    event RequestAdded      (uint256 reqID, address payable addr);\n    event RequestUpdated    (uint256 reqID, address payable addr);\n    event RequestCanceled   (uint256 reqID, address payable addr);\n    \n    //event assignRequest      (uint256 reqID, address payable addr);\n    event ValidationAssigned(uint256 reqID, uint256 provID, address payable addr);    // next step: validator calls submitValidation\n    event NotEnoughValidation(uint256 reqID);\n    //event TaskCompleted         (address requestor, uint128 reqID);    // done\n    /////////////////////////////////////////////////////////////////////////////////////\n    event SystemInfo        (uint256 ID, address payable addr , bytes info);  //NOTE: bytes32 saves up to 32 charactors ONLY\n    event PairingInfo        (uint256 reqID, address payable reqAddr,\n                            uint256 provID, address payable provAddr, bytes info);\n    event UpdateInfo        (uint256 reqID, bytes info);\n    /////////////////////////////////////////////////////////////////////////////////////\n    // Function called to become a provider. New on List, Map and Pool. \n    // NOTE: cannot use to update. You must stop a previous one and start a new one.\n    // TIPS: gas cost: don't create local copy and write back, modify the storage directly.\n    function startProviding(uint64 maxTime, uint16 maxTarget, uint64 minPrice) public returns (byte) {\n        // register a new provider object in the List and map              \n        providerList[providerCount].provID         = providerCount;\n        providerList[providerCount].blockNumber    = block.number;\n        providerList[providerCount].addr           = msg.sender;             \n        providerList[providerCount].maxTime        = maxTime;       \n        providerList[providerCount].maxTarget      = maxTarget;\n        providerList[providerCount].minPrice       = minPrice;\n        \n        // add to map       //TODO: this cost 70000 gas\n        providerMap[msg.sender].push(providerCount);\n        // put it into the pool\n        providerPool.push(providerCount);\n        providerList[providerCount].available      = true;  //turn on the flag at LAST\n        // ready for the next       \n        //emit ProviderAdded(providerCount, msg.sender);\n        emit SystemInfo(providerCount, msg.sender, 'Provider Added');\n        providerCount++;\n        //try assign and handle return value\n        if(autoAssign) return assignProvider(providerCount-1);\n\n        \n    }\n    // Stop a provider, Must be sent from the provider address or it will be failed.\n    function stopProviding(uint256 provID) public returns (bool) {\n        // If the sender is currently an active provider\n        bool flag = false;\n        if (providerList[provID].available == true                 //can only stop available provider\n                && providerList[provID].addr == msg.sender) {      //you cannot delete other's provider            \n            //delete providerList[provID];                         //do NOT delete from List, keep a record\n            flag = ArrayPop(providerMap[msg.sender], provID);      //delete form Map\n            flag = ArrayPop(providerPool, provID) && flag;         //delete from Pool\n            providerList[provID].available == false;             \n        }\n        if(flag) //{emit ProviderStopped(provID, msg.sender);\n            emit SystemInfo(providerCount, msg.sender, 'Provider Stopped');\n        return flag;\n    }\n    //update a provider, you must know the provID and must sent from right addr\n    function updateProvider(uint64 maxTime, uint16 maxTarget, uint64 minPrice, uint256 provID) public returns (bool) {      \n        bool flag = false;\n        if(providerList[provID].available == true           //can only modify available provider\n        && providerList[provID].addr == msg.sender){        //you cannot modify other's config\n            providerList[provID].blockNumber    = block.number;         \n            providerList[provID].maxTime        = maxTime;       \n            providerList[provID].maxTarget      = maxTarget;\n            providerList[provID].minPrice       = minPrice;\n            //update pool       -- pop then push , because we need to scan pool anyway\n            flag = ArrayPop(providerPool,provID);           // pop first                                      \n            providerPool.push(provID);                      // push in both case anyway\n            //update map -- no need provID not changed.\n            //emit ProviderUpdated(provID, msg.sender);\n            emit SystemInfo(providerCount, msg.sender, 'Provider Updated');\n            return flag;\n        }\n    }\n\n    // Send a request from user to blockchain. (legacy name : RequestTask)\n    // Assumes price is including the cost for verification\n    function startRequest(uint64 dataID, uint16 target, uint64 time) payable public returns (byte) {\n        //register on List\n        requestList[requestCount].reqID         = requestCount;\n        requestList[requestCount].blockNumber   = block.number;  \n        requestList[requestCount].addr          = msg.sender;\n        requestList[requestCount].provider      = address(0);      \n        requestList[requestCount].time          = time;    \n        requestList[requestCount].target        = target;\n        requestList[requestCount].price         = msg.value;\n        requestList[requestCount].dataID        = dataID;\n        //requestList[requestCount].resultID  = 0;\n        requestList[requestCount].numValidations = 1;\n        //requestList[requestCount].validations = emptyArray;\n        //requestList[requestCount].isValid   = false;\n        \n        //add new to map\n        requestMap[msg.sender].push(requestCount);\n        \n        //add new to requestPool\n        pendingPool.push(requestCount);\n        requestList[requestCount].status = '0' ;     //web3.toAscii([hex])\n        //emit RequestAdded(requestCount, msg.sender);       \n        emit SystemInfo(requestCount, msg.sender,'Request Added');\n        requestCount++;\n        //try assign and handle return value\n        if (autoAssign) return assignRequest(requestCount-1);\n    }\n    function stopRequest(uint256 reqID) public returns (bool){\n        bool flag = false;\n        if (requestList[reqID].status == '0'                       //can only cancel pending request\n                && requestList[reqID].addr == msg.sender) {        //you cannot delete other's provider            \n            //delete requestList[reqID];                           //do NOT delete from List, keep a record\n            flag = ArrayPop(requestMap[msg.sender], reqID);        //delete form Map\n            flag = ArrayPop(pendingPool, reqID) && flag;           //delete from Pool             \n            requestList[reqID].status = '7';                       //'deleted'\n        }\n        if(flag) \n        //emit RequestCanceled(reqID, msg.sender);\n            emit SystemInfo(reqID, msg.sender, 'Request Stopped');\n        return flag;\n    }\n    function updateRequest(uint64 time, uint16 target, uint256 reqID) payable public returns (bool) {      \n        bool flag = false;\n        if(requestList[reqID].status == '0'                 //can only update pending request\n        && requestList[reqID].addr == msg.sender){          //you cannot modify other's config\n            requestList[reqID].blockNumber    = block.number;         \n            requestList[reqID].time        = time;       \n            requestList[reqID].target      = target;\n            requestList[reqID].price       = msg.value;\n            //update pool       -- pop then push , because we need to scan pool anyway\n            flag = ArrayPop(pendingPool,reqID);           // pop first                                      \n            pendingPool.push(reqID);                      // push in both case anyway\n            //update map -- no need provID not changed.\n            //emit RequestUpdated(reqID, msg.sender);\n            emit SystemInfo(reqID, msg.sender, 'Request Updated');\n            return flag;\n        }\n    }\n\n    /////////////////////////////////////////////////////////////////////////////////////////////////\n\n    // Search in the pendingPool, find a job for current provider. Triggered by startProviding\n    // Input: uint256 provider ID\n    // Returns: 0: successfully assigned\n    //          1: searched all providers but find no match\n    //          2: no available provider right now\n    //          3: failure during poping pool\n    function assignProvider(uint256 provID) private returns (byte){\n        //check whether there exists pending requests\n        if(pendingPool.length == 0) return '2';\n        else {\n            //search throught the pendingPool\n            for (uint64 i = 0; i < pendingPool.length; i++){\n                //save the re-usable reqID , may save gas\n                uint256 reqID = pendingPool[i]; //\n                if( requestList[reqID].time     < providerList[provID].maxTime &&\n                    requestList[reqID].target   < providerList[provID].maxTarget &&\n                    requestList[reqID].price    > providerList[provID].minPrice)\n                    return assign(reqID, provID);         //emit here btw       \n            }\n            //after for loop and no match\n            return '1';\n        }\n    }\n    \n    // Assigning one task to one of the available providers. Only called from startRequest (private)\n    // Search in the providerPool, could only assign one task at a time\n    // TODO: need to add preference next patch\n    // Returns: 0: successfully assigned\n    //          1: searched all providers but find no match\n    //          2: no available provider right now\n    //          3: failure during poping pool\n    function assignRequest(uint256 reqID) private returns (byte) {\n        //provider availability is checked in pool not in list\n        if (providerPool.length == 0)   return '2';\n        else {            //if any provider in pool\n            for (uint64 i = 0; i < providerPool.length; i++) {\n                // save the provider's addr, reusable and save gas cost\n                uint256 provID  = providerPool[i];\n                if( requestList[reqID].time     < providerList[provID].maxTime &&\n                    requestList[reqID].target   < providerList[provID].maxTarget &&\n                    requestList[reqID].price    > providerList[provID].minPrice)\n                    return assign(reqID, provID);   //emit here btw\n            }\n            // No provider was found matching the criteria -- request failed\n            //requestList[reqID].addr.transfer(requestList[reqID].price); // Returns the ether to the sender\n            return '1';\n        }       \n    }\n    \n    //supporting function :triggered by assignRequest or assignProvider, do the state change and pool move\n    function assign(uint256 reqID, uint256 provID) private returns (byte) {\n        //update provider\n        providerList[provID].available = false;\n        //update request\n        requestList[reqID].provider = providerList[provID].addr;\n        requestList[reqID].status = '1';    //providing\n        //update the pool, move ID#\n        bool isPopped = false;\n        isPopped = ArrayPop(pendingPool, reqID);\n        isPopped = ArrayPop(providerPool, provID) && isPopped;\n        if(!isPopped) return '3';\n        providingPool.push(reqID);\n        \n        //update balanceList            addr here is requester's\n        balanceList[reqID] += requestList[reqID].price; \n        //emit TaskAssigned(reqID,requestList[reqID].addr,  \n        //                provID, providerList[provID].addr);\n        emit PairingInfo (reqID,requestList[reqID].addr,  \n                provID, providerList[provID].addr, 'Request assigned to Provider');\n        return '0';   \n    }\n\n\n    ////////////////////////////////////////////////////////////////////////////////////////\n    // off-chain actions happen here!\n    // After assignment, provider will fetch off-chain data and \n    // update this action by sending a confirm online, (not necessarily).\n    // TODO: function providerGotData() public returns (byte){}\n    //\n    // Then provider will start computation right now.\n    // ....\n    // Return the result and call completeRequest\n    ////////////////////////////////////////////////////////////////////////////////////////\n    //Exceptions: \n    // 1.Computation aborted/fail == retry within time limit\n    // 2.timeout == refund request / status: providing -> pending\n    // ##$$ Golden Rule: Costomer is God, whoever PAYED must got result or refund.\n    // Deal with money using extreme caution!\n\n\n    // Provider will call this when they are done and the data is available.\n    // This will invoke the validation stage\n    function completeRequest(uint256 reqID, uint64 resultID) public returns (bool) {\n        // Confirm msg.sender is actually the provider of the task he claims\n        if (msg.sender == requestList[reqID].provider) {\n            //change request obj\n            requestList[reqID].status = '2';    //validating\n            requestList[reqID].resultID = resultID;\n            //move in pool\n            bool flag = false;\n            flag = ArrayPop(providingPool, reqID);\n            if(!flag) return false;\n            validatingPool.push(reqID);\n            //release provider (not necessarily depend on provider)\n            //providerList[providerID[msg.sender]].available = true;\n            //emit assignRequest(reqID, msg.sender);\n            emit UpdateInfo(reqID, 'Request Computation Completed');\n            //start validation process\n            if(autoValidate){\n                return validateRequest(reqID);\n            }else return true;\n        }\n        else {\n            return false;\n        }\n    }\n\n    // Called by assignRequest before finalizing stuff. Contract checks with validators\n    // Returns false if there wasnt enough free providers to send out the required number of validation requests\n    // need validation from 1/10 of nodes -- could change\n    function validateRequest(uint256 reqID) private returns (bool) {\n        uint64 numValidatorsNeeded = requestList[reqID].numValidations; \n        //uint numValidators = providerCount / 10; \n        uint64 validatorsFound = 0;\n        //requestList[reqID].numValidationsNeeded = numValidators;\n        //select # of available provider from the pool and force em to do the validation\n        for (uint64 i = 0; i < providerPool.length; i++) {\n            //get provider ID\n            uint256 provID = providerPool[i];\n            //validator and computer cannot be same\n            if(validatorsFound < numValidatorsNeeded){\n                if(providerList[provID].addr != requestList[reqID].provider){\n                    //qualified validator\n                    //EVENT: informs validator that they were selected and need to validate\n                    //emit ValidationAssigned(reqID, provID, providerList[provID].addr);\n                    emit PairingInfo(reqID, requestList[reqID].addr, \n                            provID, providerList[provID].addr, 'Validation Assigned to Provider');\n                    validatorsFound++;\n                    //remove the providers availablity and pop from pool\n                    providerList[provID].available = false;\n                    bool flag = ArrayPop(providerPool, provID);\n                    if (!flag) return false;\n                }       //else continue\n            }\n            else{       //enough validator\n                return true;\n                break;\n            }\n            //loop until certain # of validators selected\n        }   \n        //exit loop without enough validators\n        //emit NotEnoughValidation(reqID);    \n        emit UpdateInfo(reqID, 'Request got insufficient validation');\n    }\n    //////////////////////////////////////////////////////////////\n    // some cases here:\n    //  1. req is actually false\n    //      a. claim true   : cheating\n    //      b. claim false  : honest\n    //  2. req is actually true\n    //      a. claim true   : honest\n    //      b. claim false  : not likely\n    //////////////////////////////////////////////////////////////\n\n\n    // needs to be more secure by ensuring the submission is coming from someone legit \n    // similar to completeTask but this will sign the validation list of the target Task\n    //TODO: the money part is ommited for now\n    function submitValidation(uint256 reqID, uint256 provID, bool result) public returns (bool) {\n        // Pay the validator \n        // uint partialPayment = requestList[reqID].price / 100; // amount each validator is paid\n        // msg.sender.transfer(partialPayment);\n        // balanceList[requestList[reqID].addr] -= partialPayment;\n        if(\n            //requestList[reqID].addr != providerList[provID]    //validator can be requester\n            providerList[provID].addr != requestList[reqID].provider) //validator cannot be provider\n        {\n            requestList[reqID].validators.push(provID);             //push array\n            requestList[reqID].signatures.push(result);     //edit mapping\n        }\n        //emit ValidationInfo(reqID, provID, 'Validator Signed');\n        //check if valid\n        \n        emit PairingInfo(reqID, requestList[reqID].addr, \n                    provID, providerList[provID].addr, 'Validator Signed');\n       \n        // If enough validations have been submitted\n        if (requestList[reqID].validators.length == requestList[reqID].numValidations) {\n            //return checkValidation(reqID, requestList[reqID].price - requestList[reqID].numValidationsNeeded * partialPayment);\n            if(autoFinalization) return checkValidation(reqID);\n        }\n    }\n    \n    function checkValidation(uint256 reqID) private returns (bool) {\n        // Add up successful validations\n        uint64 successCount = 0;\n        for (uint64 i=0; i<requestList[reqID].validators.length; i++) {\n            if (requestList[reqID].signatures[i] == true) successCount++;\n        }\n        // if 2/3 of validation attempts were successful\n        // TODO: determine the fraction\n        if (successCount  >= requestList[reqID].numValidations) { \n            // if 2/3 of validations were valid then provider gets remainder of money\n            //requestList[reqID].provider.transfer(payment); \n            //balanceList[requestList[reqID].addr] -= payment;\n            //TODO: [important] leave out the payment part for now.\n            requestList[reqID].isValid = true; // Task was successfully completed! \n        }\n        // otherwise, work was invalid, the providers payment goes back to requester\n        else {\n            //requestList[reqID].addr.transfer(payment);\n            //balanceList[requestList[reqID].addr] -= payment;\n        }\n        // EVENT: task is done whether successful or not\n        //emit TaskCompleted(requestList[reqID].addr, reqID);\n        emit UpdateInfo(reqID, 'Validation Complete');\n        return requestList[reqID].isValid;\n    }\n\n//////////////////////////////////////////////////////////////////////\n/*  function startRequest(uint64 dataID, uint16 target, uint64 time) payable public returns (bool) {\n    //a legacy version of startRequest, using a local memory copy and write back\n        bool[] memory emptyArray;\n        Request memory req = Request(           //create a temp memory var\n            msg.sender,             //addr\n            address(0),             //provider\n            requestCount,           //reqID\n            dataID,                 //dataID\n            time,                   //time    \n            target,                 //target   0-100\n            msg.value,              //price \n            0,                      //resultID\n            1,                      //numValidationsNeeded\n            emptyArray,             //sig list\n            false,                  //isValid\n            0                       //status  0-3 0: pending\n        );\n\n        //copy the mem var into storage\n        requestList[requestCount] = req;        //requestCount used as index here, from 0 to +++\n        //add new to requestPool\n        requestPool.push(requestCount);\n        //update requestID\n        requestID[msg.sender].push(requestCount);\n        //update count\n        requestCount++;     //count already stands for the # of req now.\n        pendingCount++;\n        return assignRequest();\n    }\n*/\n\n/////////////////////////////////////////////////////////////////////\n    // Used to dynamically remove elements from array of open provider spaces. \n    // Using a swap and delete method, search for the desired addr throughout the whole array\n    // delete the desired and swap the whole with last element\n    function ArrayPop(uint256[] storage array, uint256 target) private returns (bool) {\n        for(uint64 i = 0; i < array.length; i++){\n            if (array[i] == target) {\n                //swap last element with hole\n                array[i] = array[array.length-1];\n                //delete last item\n                delete array[array.length-1];\n                //decrease size\n                array.length--;\n                return true;\n            }\n        }\n        return false;   //fail to search: no matching in pool\n    } \n    function getMyProvID() public view returns (uint256[] memory){\n        return providerMap[msg.sender];\n    }\n    function getMyReqID() public view returns (uint256[] memory){\n        return requestMap[msg.sender];\n    }\n    function getProviderID(address addr) public view returns (uint256[] memory){\n        return providerMap[addr];\n    }\n    function getRequestID(address addr) public view returns (uint256[] memory){\n        return requestMap[addr];\n    }\n\n    /////////////////////////////////////////////////////////////////////////////////\n    //some helpers defined here\n    /*function testTask() public {\n        emit TaskAssigned(msg.sender, 11, 22);\n    }*/\n    function getProvider(uint256 ID) public view returns(Provider memory){\n        return providerList[ID];\n    }\n    function getRequest(uint256 ID) public view returns (Request memory){\n\t    return requestList[ID];\n    }\n    function getProviderCount() public view returns (uint256){\n        return providerCount;\n    }\n    function getRequestCount() public view returns (uint256){\n        return requestCount;\n    }\n    function getProviderPool() public view returns (uint256[] memory){\n        return providerPool;\n    }\n    function getRequestPool() public view returns (uint256[] memory){\n        return pendingPool;\n    }\n    function getProvidingPool() public view returns (uint256[] memory){\n        return providingPool;\n    }\n    function getValidatingPool() public view returns (uint256[] memory){\n        return validatingPool;\n    }\n    function getProviderPoolSize() public view returns (uint256){\n        return providerPool.length;\n    }\n    function getRequestPoolSize() public view returns (uint256){\n        return pendingPool.length;\n    }\n    //function getBalance(address addr) public view returns (uint256){\n    //    return balanceList[addr];\n    //}\n    function listRequests(uint256[] memory IDList) public view returns(Request[50] memory){\n\t    Request[50] memory allRequest;\n\t    for (uint64 i = 0; i < IDList.length; i++){\n\t\t    allRequest[i] = getRequest(IDList[i]);\n\t    }\n\t    return allRequest;\n    }\n    function listProviders(uint256[] memory IDList) public view returns(Provider[50] memory){\n        Provider[50] memory allProvider;\n        //address addr;\n        for (uint64 i = 0; i < IDList.length;i++){\n            allProvider[i] = getProvider(IDList[i]);\n        }\n        return allProvider;\n    }\n    function listAllRequests() public view returns(Request[50] memory){\n\t    Request[50] memory allRequest;\n\t    for (uint64 i = 0; i < requestCount; i++){\n\t\t    allRequest[i] = getRequest(i);\n\t    }\n\t    return allRequest;\n    }\n    function listAllProviders() public view returns(Provider[50] memory){\n\t    Provider[50] memory allProvider;\n\t    for (uint64 i = 0; i < providerCount; i++){\n\t\t    allProvider[i] = getProvider(i);\n\t    }\n\t    return allProvider;\n    }\n    function listProviders() public view returns(Provider[50] memory){\n        Provider[50] memory allProvider;\n        //address addr;\n        for (uint64 i = 0; i < providerCount;i++){\n            /*if(providerPool.length > 0) {\n                addr = providerPool[i];     \n            }else {\n                addr = address(0);\n            }*/\n            allProvider[i] = getProvider(i);\n        }\n        return allProvider;\n    }\n    /*function listTestProviders() public view returns(Provider[3] memory){\n        Provider[3] memory allProvider;\n        for (uint64 i = 0; i < 3;i++){\n            allProvider[i] = getTestProvider(i);\n        }\n        return allProvider;\n    }*/\n\n}\n",
  "sourcePath": "/home/taurus/blockchain/gitLab/bcai_v0.9/contracts/bcai_0.9.4.sol",
  "compiler": {
    "name": "solc",
    "version": "0.5.0+commit.1d4f565a.Emscripten.clang"
  },
  "schemaVersion": "3.0.0-beta.2",
  "updatedAt": "2018-12-10T21:13:26.140Z",
  "devdoc": {
    "methods": {}
  },
  "userdoc": {
    "methods": {
      "completeRequest(uint256,uint64)": {
        "notice": "/////////////////////////////////////////////////////////////////////////////////////"
      },
      "getProvider(uint256)": {
        "notice": "//////////////////////////////////////////////////////////////////////////////"
      },
      "startProviding(uint64,uint16,uint64)": {
        "notice": "//////////////////////////////////////////////////////////////////////////////////"
      },
      "submitValidation(uint256,uint256,bool)": {
        "notice": "///////////////////////////////////////////////////////////"
      }
    }
  }
}