{
  "contractName": "TaskContract",
  "abi": [
    {
      "constant": true,
      "inputs": [
        {
          "name": "",
          "type": "uint256"
        }
      ],
      "name": "requestList",
      "outputs": [
        {
          "name": "reqID",
          "type": "uint256"
        },
        {
          "name": "blockNumber",
          "type": "uint256"
        },
        {
          "name": "addr",
          "type": "address"
        },
        {
          "name": "provider",
          "type": "address"
        },
        {
          "name": "time",
          "type": "uint64"
        },
        {
          "name": "target",
          "type": "uint16"
        },
        {
          "name": "price",
          "type": "uint256"
        },
        {
          "name": "dataID",
          "type": "uint64"
        },
        {
          "name": "resultID",
          "type": "uint64"
        },
        {
          "name": "numValidations",
          "type": "uint64"
        },
        {
          "name": "isValid",
          "type": "bool"
        },
        {
          "name": "status",
          "type": "bytes1"
        }
      ],
      "payable": false,
      "stateMutability": "view",
      "type": "function",
      "signature": "0x02e9d43b"
    },
    {
      "constant": true,
      "inputs": [
        {
          "name": "",
          "type": "uint256"
        }
      ],
      "name": "providerList",
      "outputs": [
        {
          "name": "provID",
          "type": "uint256"
        },
        {
          "name": "blockNumber",
          "type": "uint256"
        },
        {
          "name": "addr",
          "type": "address"
        },
        {
          "name": "maxTime",
          "type": "uint64"
        },
        {
          "name": "maxTarget",
          "type": "uint16"
        },
        {
          "name": "minPrice",
          "type": "uint256"
        },
        {
          "name": "available",
          "type": "bool"
        }
      ],
      "payable": false,
      "stateMutability": "view",
      "type": "function",
      "signature": "0x390bfd3c"
    },
    {
      "constant": true,
      "inputs": [
        {
          "name": "",
          "type": "uint256"
        }
      ],
      "name": "balanceList",
      "outputs": [
        {
          "name": "",
          "type": "uint256"
        }
      ],
      "payable": false,
      "stateMutability": "view",
      "type": "function",
      "signature": "0x599b6808"
    },
    {
      "constant": true,
      "inputs": [
        {
          "name": "",
          "type": "address"
        },
        {
          "name": "",
          "type": "uint256"
        }
      ],
      "name": "providerMap",
      "outputs": [
        {
          "name": "",
          "type": "uint256"
        }
      ],
      "payable": false,
      "stateMutability": "view",
      "type": "function",
      "signature": "0xd2d5d74f"
    },
    {
      "constant": true,
      "inputs": [
        {
          "name": "",
          "type": "address"
        },
        {
          "name": "",
          "type": "uint256"
        }
      ],
      "name": "requestMap",
      "outputs": [
        {
          "name": "",
          "type": "uint256"
        }
      ],
      "payable": false,
      "stateMutability": "view",
      "type": "function",
      "signature": "0xd3cca02e"
    },
    {
      "inputs": [],
      "payable": false,
      "stateMutability": "nonpayable",
      "type": "constructor",
      "signature": "constructor"
    },
    {
      "anonymous": false,
      "inputs": [
        {
          "indexed": false,
          "name": "ID",
          "type": "uint256"
        },
        {
          "indexed": false,
          "name": "addr",
          "type": "address"
        },
        {
          "indexed": false,
          "name": "info",
          "type": "bytes"
        }
      ],
      "name": "SystemInfo",
      "type": "event",
      "signature": "0xa4c4c871d43d81be54f69ce74ea5bc289663a3cdf402d09baf09407085be0231"
    },
    {
      "anonymous": false,
      "inputs": [
        {
          "indexed": false,
          "name": "reqID",
          "type": "uint256"
        },
        {
          "indexed": false,
          "name": "reqAddr",
          "type": "address"
        },
        {
          "indexed": false,
          "name": "provID",
          "type": "uint256"
        },
        {
          "indexed": false,
          "name": "provAddr",
          "type": "address"
        },
        {
          "indexed": false,
          "name": "info",
          "type": "bytes"
        }
      ],
      "name": "PairingInfo",
      "type": "event",
      "signature": "0xc4f678ebfd7e29fd2b410c08e9adcef6a55d52ee8c9b379f90cb334d18438668"
    },
    {
      "constant": false,
      "inputs": [
        {
          "name": "maxTime",
          "type": "uint64"
        },
        {
          "name": "maxTarget",
          "type": "uint16"
        },
        {
          "name": "minPrice",
          "type": "uint64"
        }
      ],
      "name": "startProviding",
      "outputs": [
        {
          "name": "",
          "type": "bytes1"
        }
      ],
      "payable": false,
      "stateMutability": "nonpayable",
      "type": "function",
      "signature": "0x2ddfdbcc"
    },
    {
      "constant": false,
      "inputs": [
        {
          "name": "provID",
          "type": "uint256"
        }
      ],
      "name": "stopProviding",
      "outputs": [
        {
          "name": "",
          "type": "bool"
        }
      ],
      "payable": false,
      "stateMutability": "nonpayable",
      "type": "function",
      "signature": "0x15f14e89"
    },
    {
      "constant": false,
      "inputs": [
        {
          "name": "maxTime",
          "type": "uint64"
        },
        {
          "name": "maxTarget",
          "type": "uint16"
        },
        {
          "name": "minPrice",
          "type": "uint64"
        },
        {
          "name": "provID",
          "type": "uint256"
        }
      ],
      "name": "updateProvider",
      "outputs": [
        {
          "name": "",
          "type": "bool"
        }
      ],
      "payable": false,
      "stateMutability": "nonpayable",
      "type": "function",
      "signature": "0xdf4467ab"
    },
    {
      "constant": false,
      "inputs": [
        {
          "name": "time",
          "type": "uint64"
        },
        {
          "name": "target",
          "type": "uint16"
        },
        {
          "name": "price",
          "type": "uint64"
        },
        {
          "name": "dataID",
          "type": "uint64"
        }
      ],
      "name": "startRequest",
      "outputs": [
        {
          "name": "",
          "type": "bytes1"
        }
      ],
      "payable": true,
      "stateMutability": "payable",
      "type": "function",
      "signature": "0x7dbcb1de"
    },
    {
      "constant": false,
      "inputs": [
        {
          "name": "reqID",
          "type": "uint256"
        }
      ],
      "name": "stopRequest",
      "outputs": [
        {
          "name": "",
          "type": "bool"
        }
      ],
      "payable": false,
      "stateMutability": "nonpayable",
      "type": "function",
      "signature": "0x90c0375d"
    },
    {
      "constant": false,
      "inputs": [
        {
          "name": "time",
          "type": "uint64"
        },
        {
          "name": "target",
          "type": "uint16"
        },
        {
          "name": "reqID",
          "type": "uint256"
        }
      ],
      "name": "updateRequest",
      "outputs": [
        {
          "name": "",
          "type": "bool"
        }
      ],
      "payable": true,
      "stateMutability": "payable",
      "type": "function",
      "signature": "0x79a0bb95"
    },
    {
      "constant": false,
      "inputs": [
        {
          "name": "reqID",
          "type": "uint256"
        },
        {
          "name": "resultID",
          "type": "uint64"
        }
      ],
      "name": "completeRequest",
      "outputs": [
        {
          "name": "",
          "type": "bool"
        }
      ],
      "payable": false,
      "stateMutability": "nonpayable",
      "type": "function",
      "signature": "0x375e26f5"
    },
    {
      "constant": false,
      "inputs": [
        {
          "name": "reqID",
          "type": "uint256"
        }
      ],
      "name": "validateRequest",
      "outputs": [
        {
          "name": "",
          "type": "bool"
        }
      ],
      "payable": false,
      "stateMutability": "nonpayable",
      "type": "function",
      "signature": "0xe27d067b"
    },
    {
      "constant": false,
      "inputs": [
        {
          "name": "reqID",
          "type": "uint256"
        },
        {
          "name": "provID",
          "type": "uint256"
        },
        {
          "name": "result",
          "type": "bool"
        }
      ],
      "name": "submitValidation",
      "outputs": [
        {
          "name": "",
          "type": "bool"
        }
      ],
      "payable": false,
      "stateMutability": "nonpayable",
      "type": "function",
      "signature": "0x6fbea121"
    },
    {
      "constant": false,
      "inputs": [
        {
          "name": "reqID",
          "type": "uint256"
        }
      ],
      "name": "checkValidation",
      "outputs": [
        {
          "name": "",
          "type": "bool"
        }
      ],
      "payable": false,
      "stateMutability": "nonpayable",
      "type": "function",
      "signature": "0x7aad0435"
    },
    {
      "constant": true,
      "inputs": [],
      "name": "getMyProvID",
      "outputs": [
        {
          "name": "",
          "type": "uint256[]"
        }
      ],
      "payable": false,
      "stateMutability": "view",
      "type": "function",
      "signature": "0x34a7d799"
    },
    {
      "constant": true,
      "inputs": [],
      "name": "getMyReqID",
      "outputs": [
        {
          "name": "",
          "type": "uint256[]"
        }
      ],
      "payable": false,
      "stateMutability": "view",
      "type": "function",
      "signature": "0x269f3558"
    },
    {
      "constant": true,
      "inputs": [
        {
          "name": "addr",
          "type": "address"
        }
      ],
      "name": "getProviderID",
      "outputs": [
        {
          "name": "",
          "type": "uint256[]"
        }
      ],
      "payable": false,
      "stateMutability": "view",
      "type": "function",
      "signature": "0x91bbb902"
    },
    {
      "constant": true,
      "inputs": [
        {
          "name": "addr",
          "type": "address"
        }
      ],
      "name": "getRequestID",
      "outputs": [
        {
          "name": "",
          "type": "uint256[]"
        }
      ],
      "payable": false,
      "stateMutability": "view",
      "type": "function",
      "signature": "0x62e70505"
    },
    {
      "constant": true,
      "inputs": [
        {
          "name": "ID",
          "type": "uint256"
        }
      ],
      "name": "getProvider",
      "outputs": [
        {
          "components": [
            {
              "name": "provID",
              "type": "uint256"
            },
            {
              "name": "blockNumber",
              "type": "uint256"
            },
            {
              "name": "addr",
              "type": "address"
            },
            {
              "name": "maxTime",
              "type": "uint64"
            },
            {
              "name": "maxTarget",
              "type": "uint16"
            },
            {
              "name": "minPrice",
              "type": "uint256"
            },
            {
              "name": "available",
              "type": "bool"
            }
          ],
          "name": "",
          "type": "tuple"
        }
      ],
      "payable": false,
      "stateMutability": "view",
      "type": "function",
      "signature": "0x5c42d079"
    },
    {
      "constant": true,
      "inputs": [
        {
          "name": "ID",
          "type": "uint256"
        }
      ],
      "name": "getRequest",
      "outputs": [
        {
          "components": [
            {
              "name": "reqID",
              "type": "uint256"
            },
            {
              "name": "blockNumber",
              "type": "uint256"
            },
            {
              "name": "addr",
              "type": "address"
            },
            {
              "name": "provider",
              "type": "address"
            },
            {
              "name": "time",
              "type": "uint64"
            },
            {
              "name": "target",
              "type": "uint16"
            },
            {
              "name": "price",
              "type": "uint256"
            },
            {
              "name": "dataID",
              "type": "uint64"
            },
            {
              "name": "resultID",
              "type": "uint64"
            },
            {
              "name": "numValidations",
              "type": "uint64"
            },
            {
              "name": "signatures",
              "type": "bool[]"
            },
            {
              "name": "validators",
              "type": "uint256[]"
            },
            {
              "name": "isValid",
              "type": "bool"
            },
            {
              "name": "status",
              "type": "bytes1"
            }
          ],
          "name": "",
          "type": "tuple"
        }
      ],
      "payable": false,
      "stateMutability": "view",
      "type": "function",
      "signature": "0xc58343ef"
    },
    {
      "constant": true,
      "inputs": [],
      "name": "getProviderCount",
      "outputs": [
        {
          "name": "",
          "type": "uint256"
        }
      ],
      "payable": false,
      "stateMutability": "view",
      "type": "function",
      "signature": "0x46ce4175"
    },
    {
      "constant": true,
      "inputs": [],
      "name": "getRequestCount",
      "outputs": [
        {
          "name": "",
          "type": "uint256"
        }
      ],
      "payable": false,
      "stateMutability": "view",
      "type": "function",
      "signature": "0x3fad1834"
    },
    {
      "constant": true,
      "inputs": [],
      "name": "getProviderPool",
      "outputs": [
        {
          "name": "",
          "type": "uint256[]"
        }
      ],
      "payable": false,
      "stateMutability": "view",
      "type": "function",
      "signature": "0x9e723b97"
    },
    {
      "constant": true,
      "inputs": [],
      "name": "getPendingPool",
      "outputs": [
        {
          "name": "",
          "type": "uint256[]"
        }
      ],
      "payable": false,
      "stateMutability": "view",
      "type": "function",
      "signature": "0xa9ecaae7"
    },
    {
      "constant": true,
      "inputs": [],
      "name": "getProvidingPool",
      "outputs": [
        {
          "name": "",
          "type": "uint256[]"
        }
      ],
      "payable": false,
      "stateMutability": "view",
      "type": "function",
      "signature": "0x1f1dab45"
    },
    {
      "constant": true,
      "inputs": [],
      "name": "getValidatingPool",
      "outputs": [
        {
          "name": "",
          "type": "uint256[]"
        }
      ],
      "payable": false,
      "stateMutability": "view",
      "type": "function",
      "signature": "0x32c5200d"
    },
    {
      "constant": true,
      "inputs": [],
      "name": "getProviderPoolSize",
      "outputs": [
        {
          "name": "",
          "type": "uint256"
        }
      ],
      "payable": false,
      "stateMutability": "view",
      "type": "function",
      "signature": "0x353b2a1f"
    },
    {
      "constant": true,
      "inputs": [],
      "name": "getPendingPoolSize",
      "outputs": [
        {
          "name": "",
          "type": "uint256"
        }
      ],
      "payable": false,
      "stateMutability": "view",
      "type": "function",
      "signature": "0x53ed38e9"
    },
    {
      "constant": true,
      "inputs": [
        {
          "name": "IDList",
          "type": "uint256[]"
        }
      ],
      "name": "listRequests",
      "outputs": [
        {
          "components": [
            {
              "name": "reqID",
              "type": "uint256"
            },
            {
              "name": "blockNumber",
              "type": "uint256"
            },
            {
              "name": "addr",
              "type": "address"
            },
            {
              "name": "provider",
              "type": "address"
            },
            {
              "name": "time",
              "type": "uint64"
            },
            {
              "name": "target",
              "type": "uint16"
            },
            {
              "name": "price",
              "type": "uint256"
            },
            {
              "name": "dataID",
              "type": "uint64"
            },
            {
              "name": "resultID",
              "type": "uint64"
            },
            {
              "name": "numValidations",
              "type": "uint64"
            },
            {
              "name": "signatures",
              "type": "bool[]"
            },
            {
              "name": "validators",
              "type": "uint256[]"
            },
            {
              "name": "isValid",
              "type": "bool"
            },
            {
              "name": "status",
              "type": "bytes1"
            }
          ],
          "name": "",
          "type": "tuple[50]"
        }
      ],
      "payable": false,
      "stateMutability": "view",
      "type": "function",
      "signature": "0x0c9a90a3"
    },
    {
      "constant": true,
      "inputs": [
        {
          "name": "IDList",
          "type": "uint256[]"
        }
      ],
      "name": "listProviders",
      "outputs": [
        {
          "components": [
            {
              "name": "provID",
              "type": "uint256"
            },
            {
              "name": "blockNumber",
              "type": "uint256"
            },
            {
              "name": "addr",
              "type": "address"
            },
            {
              "name": "maxTime",
              "type": "uint64"
            },
            {
              "name": "maxTarget",
              "type": "uint16"
            },
            {
              "name": "minPrice",
              "type": "uint256"
            },
            {
              "name": "available",
              "type": "bool"
            }
          ],
          "name": "",
          "type": "tuple[50]"
        }
      ],
      "payable": false,
      "stateMutability": "view",
      "type": "function",
      "signature": "0xcac1125b"
    },
    {
      "constant": true,
      "inputs": [],
      "name": "listAllRequests",
      "outputs": [
        {
          "components": [
            {
              "name": "reqID",
              "type": "uint256"
            },
            {
              "name": "blockNumber",
              "type": "uint256"
            },
            {
              "name": "addr",
              "type": "address"
            },
            {
              "name": "provider",
              "type": "address"
            },
            {
              "name": "time",
              "type": "uint64"
            },
            {
              "name": "target",
              "type": "uint16"
            },
            {
              "name": "price",
              "type": "uint256"
            },
            {
              "name": "dataID",
              "type": "uint64"
            },
            {
              "name": "resultID",
              "type": "uint64"
            },
            {
              "name": "numValidations",
              "type": "uint64"
            },
            {
              "name": "signatures",
              "type": "bool[]"
            },
            {
              "name": "validators",
              "type": "uint256[]"
            },
            {
              "name": "isValid",
              "type": "bool"
            },
            {
              "name": "status",
              "type": "bytes1"
            }
          ],
          "name": "",
          "type": "tuple[50]"
        }
      ],
      "payable": false,
      "stateMutability": "view",
      "type": "function",
      "signature": "0xc02ac059"
    },
    {
      "constant": true,
      "inputs": [],
      "name": "listAllProviders",
      "outputs": [
        {
          "components": [
            {
              "name": "provID",
              "type": "uint256"
            },
            {
              "name": "blockNumber",
              "type": "uint256"
            },
            {
              "name": "addr",
              "type": "address"
            },
            {
              "name": "maxTime",
              "type": "uint64"
            },
            {
              "name": "maxTarget",
              "type": "uint16"
            },
            {
              "name": "minPrice",
              "type": "uint256"
            },
            {
              "name": "available",
              "type": "bool"
            }
          ],
          "name": "",
          "type": "tuple[50]"
        }
      ],
      "payable": false,
      "stateMutability": "view",
      "type": "function",
      "signature": "0x6302d071"
    }
  ],
  "bytecode": "0x608060405260016000806101000a81548160ff0219169083151502179055506001600060016101000a81548160ff02191690831515021790555060008060026101000a81548160ff0219169083151502179055503480156200006057600080fd5b5060086000620000719190620000b7565b60096000620000819190620000b7565b600a6000620000919190620000b7565b600c6000620000a19190620000b7565b6000600681905550600060078190555062000102565b5080546000825590600052602060002090810190620000d79190620000da565b50565b620000ff91905b80821115620000fb576000816000905550600101620000e1565b5090565b90565b614a5d80620001126000396000f3fe6080604052600436106101a1576000357c0100000000000000000000000000000000000000000000000000000000900463ffffffff16806302e9d43b146101a65780630c9a90a3146101ee57806315f14e891461022b5780631f1dab4514610268578063269f3558146102935780632ddfdbcc146102be57806332c5200d146102fb57806334a7d79914610326578063353b2a1f14610351578063375e26f51461037c578063390bfd3c146103b95780633fad1834146103fc57806346ce41751461042757806353ed38e914610452578063599b68081461047d5780635c42d079146104ba57806362e70505146104f75780636302d071146105345780636fbea1211461055f57806379a0bb951461059c5780637aad0435146105cc5780637dbcb1de1461060957806390c0375d1461063957806391bbb902146106765780639e723b97146106b3578063a9ecaae7146106de578063c02ac05914610709578063c58343ef14610734578063cac1125b14610771578063d2d5d74f146107ae578063d3cca02e146107eb578063df4467ab14610828578063e27d067b14610865575b600080fd5b3480156101b257600080fd5b506101cd60048036036101c89190810190613840565b6108a2565b6040516101e59c9b9a99989796959493929190614712565b60405180910390f35b3480156101fa57600080fd5b50610215600480360361021091908101906137ff565b6109d9565b60405161022291906142e0565b60405180910390f35b34801561023757600080fd5b50610252600480360361024d9190810190613840565b610a63565b60405161025f9190614324565b60405180910390f35b34801561027457600080fd5b5061027d610be9565b60405161028a9190614302565b60405180910390f35b34801561029f57600080fd5b506102a8610c41565b6040516102b59190614302565b60405180910390f35b3480156102ca57600080fd5b506102e560048036036102e09190810190613943565b610cd6565b6040516102f2919061433f565b60405180910390f35b34801561030757600080fd5b50610310610f4b565b60405161031d9190614302565b60405180910390f35b34801561033257600080fd5b5061033b610fa3565b6040516103489190614302565b60405180910390f35b34801561035d57600080fd5b50610366611038565b6040516103739190614397565b60405180910390f35b34801561038857600080fd5b506103a3600480360361039e91908101906138b8565b611045565b6040516103b09190614324565b60405180910390f35b3480156103c557600080fd5b506103e060048036036103db9190810190613840565b611256565b6040516103f397969594939291906147cc565b60405180910390f35b34801561040857600080fd5b506104116112e7565b60405161041e9190614397565b60405180910390f35b34801561043357600080fd5b5061043c6112f1565b6040516104499190614397565b60405180910390f35b34801561045e57600080fd5b506104676112fb565b6040516104749190614397565b60405180910390f35b34801561048957600080fd5b506104a4600480360361049f9190810190613840565b611308565b6040516104b19190614397565b60405180910390f35b3480156104c657600080fd5b506104e160048036036104dc9190810190613840565b611320565b6040516104ee919061435a565b60405180910390f35b34801561050357600080fd5b5061051e6004803603610519919081019061379a565b61142f565b60405161052b9190614302565b60405180910390f35b34801561054057600080fd5b506105496114c6565b60405161055691906142c4565b60405180910390f35b34801561056b57600080fd5b5061058660048036036105819190810190613869565b611538565b6040516105939190614324565b60405180910390f35b6105b660048036036105b191908101906138f4565b6117c4565b6040516105c39190614324565b60405180910390f35b3480156105d857600080fd5b506105f360048036036105ee9190810190613840565b6119fa565b6040516106009190614324565b60405180910390f35b610623600480360361061e91908101906139f5565b611bb6565b604051610630919061433f565b60405180910390f35b34801561064557600080fd5b50610660600480360361065b9190810190613840565b611eec565b60405161066d9190614324565b60405180910390f35b34801561068257600080fd5b5061069d6004803603610698919081019061379a565b612105565b6040516106aa9190614302565b60405180910390f35b3480156106bf57600080fd5b506106c861219c565b6040516106d59190614302565b60405180910390f35b3480156106ea57600080fd5b506106f36121f4565b6040516107009190614302565b60405180910390f35b34801561071557600080fd5b5061071e61224c565b60405161072b91906142e0565b60405180910390f35b34801561074057600080fd5b5061075b60048036036107569190810190613840565b6122be565b6040516107689190614375565b60405180910390f35b34801561077d57600080fd5b50610798600480360361079391908101906137ff565b612609565b6040516107a591906142c4565b60405180910390f35b3480156107ba57600080fd5b506107d560048036036107d091908101906137c3565b612693565b6040516107e29190614397565b60405180910390f35b3480156107f757600080fd5b50610812600480360361080d91908101906137c3565b6126c3565b60405161081f9190614397565b60405180910390f35b34801561083457600080fd5b5061084f600480360361084a9190810190613992565b6126f3565b60405161085c9190614324565b60405180910390f35b34801561087157600080fd5b5061088c60048036036108879190810190613840565b6128da565b6040516108999190614324565b60405180910390f35b60026020528060005260406000206000915090508060000154908060010154908060020160009054906101000a900473ffffffffffffffffffffffffffffffffffffffff16908060030160009054906101000a900473ffffffffffffffffffffffffffffffffffffffff16908060030160149054906101000a900467ffffffffffffffff169080600301601c9054906101000a900461ffff16908060040154908060050160009054906101000a900467ffffffffffffffff16908060050160089054906101000a900467ffffffffffffffff16908060050160109054906101000a900467ffffffffffffffff16908060080160009054906101000a900460ff16908060080160019054906101000a90047f01000000000000000000000000000000000000000000000000000000000000000290508c565b6109e1613362565b6109e9613362565b60008090505b83518167ffffffffffffffff161015610a5957610a2c848267ffffffffffffffff16815181101515610a1d57fe5b906020019060200201516122be565b828267ffffffffffffffff16603281101515610a4457fe5b602002018190525080806001019150506109ef565b5080915050919050565b60008060009050600115156001600085815260200190815260200160002060040160009054906101000a900460ff161515148015610b0257503373ffffffffffffffffffffffffffffffffffffffff166001600085815260200190815260200160002060020160009054906101000a900473ffffffffffffffffffffffffffffffffffffffff1673ffffffffffffffffffffffffffffffffffffffff16145b15610b9357610b4f600360003373ffffffffffffffffffffffffffffffffffffffff1673ffffffffffffffffffffffffffffffffffffffff16815260200190815260200160002084612c28565b9050610b5c600884612c28565b8015610b655750805b9050600015156001600085815260200190815260200160002060040160009054906101000a90505050610b9d565b6000915050610be4565b8015610bdf577fa4c4c871d43d81be54f69ce74ea5bc289663a3cdf402d09baf09407085be023160065433604051610bd692919061451a565b60405180910390a15b809150505b919050565b6060600a805480602002602001604051908101604052809291908181526020018280548015610c3757602002820191906000526020600020905b815481526020019060010190808311610c23575b5050505050905090565b6060600460003373ffffffffffffffffffffffffffffffffffffffff1673ffffffffffffffffffffffffffffffffffffffff168152602001908152602001600020805480602002602001604051908101604052809291908181526020018280548015610ccc57602002820191906000526020600020905b815481526020019060010190808311610cb8575b5050505050905090565b60006006546001600060065481526020019081526020016000206000018190555043600160006006548152602001908152602001600020600101819055503360016000600654815260200190815260200160002060020160006101000a81548173ffffffffffffffffffffffffffffffffffffffff021916908373ffffffffffffffffffffffffffffffffffffffff1602179055508360016000600654815260200190815260200160002060020160146101000a81548167ffffffffffffffff021916908367ffffffffffffffff16021790555082600160006006548152602001908152602001600020600201601c6101000a81548161ffff021916908361ffff1602179055508167ffffffffffffffff1660016000600654815260200190815260200160002060030181905550600360003373ffffffffffffffffffffffffffffffffffffffff1673ffffffffffffffffffffffffffffffffffffffff1681526020019081526020016000206006549080600181540180825580915050906001820390600052602060002001600090919290919091505550600860065490806001815401808255809150509060018203906000526020600020016000909192909190915055506001806000600654815260200190815260200160002060040160006101000a81548160ff0219169083151502179055507fa4c4c871d43d81be54f69ce74ea5bc289663a3cdf402d09baf09407085be023160065433604051610f009291906144de565b60405180910390a16006600081548092919060010191905055506000809054906101000a900460ff1615610f4357610f3c600160065403612d11565b9050610f44565b5b9392505050565b6060600c805480602002602001604051908101604052809291908181526020018280548015610f9957602002820191906000526020600020905b815481526020019060010190808311610f85575b5050505050905090565b6060600360003373ffffffffffffffffffffffffffffffffffffffff1673ffffffffffffffffffffffffffffffffffffffff16815260200190815260200160002080548060200260200160405190810160405280929190818152602001828054801561102e57602002820191906000526020600020905b81548152602001906001019080831161101a575b5050505050905090565b6000600880549050905090565b60006002600084815260200190815260200160002060030160009054906101000a900473ffffffffffffffffffffffffffffffffffffffff1673ffffffffffffffffffffffffffffffffffffffff163373ffffffffffffffffffffffffffffffffffffffff16141561124b577f32000000000000000000000000000000000000000000000000000000000000006002600085815260200190815260200160002060080160016101000a81548160ff02191690837f010000000000000000000000000000000000000000000000000000000000000090040217905550816002600085815260200190815260200160002060050160086101000a81548167ffffffffffffffff021916908367ffffffffffffffff160217905550600080905061116d600a85612c28565b9050801515611180576000915050611250565b600c8490806001815401808255809150509060018203906000526020600020016000909192909190915055507fa4c4c871d43d81be54f69ce74ea5bc289663a3cdf402d09baf09407085be0231846002600087815260200190815260200160002060020160009054906101000a900473ffffffffffffffffffffffffffffffffffffffff166040516112139291906144a2565b60405180910390a1600060019054906101000a900460ff161561124157611239846128da565b915050611250565b6001915050611250565b600090505b92915050565b60016020528060005260406000206000915090508060000154908060010154908060020160009054906101000a900473ffffffffffffffffffffffffffffffffffffffff16908060020160149054906101000a900467ffffffffffffffff169080600201601c9054906101000a900461ffff16908060030154908060040160009054906101000a900460ff16905087565b6000600754905090565b6000600654905090565b6000600980549050905090565b60056020528060005260406000206000915090505481565b611328613391565b6001600083815260200190815260200160002060e0604051908101604052908160008201548152602001600182015481526020016002820160009054906101000a900473ffffffffffffffffffffffffffffffffffffffff1673ffffffffffffffffffffffffffffffffffffffff1673ffffffffffffffffffffffffffffffffffffffff1681526020016002820160149054906101000a900467ffffffffffffffff1667ffffffffffffffff1667ffffffffffffffff16815260200160028201601c9054906101000a900461ffff1661ffff1661ffff168152602001600382015481526020016004820160009054906101000a900460ff1615151515815250509050919050565b6060600460008373ffffffffffffffffffffffffffffffffffffffff1673ffffffffffffffffffffffffffffffffffffffff1681526020019081526020016000208054806020026020016040519081016040528092919081815260200182805480156114ba57602002820191906000526020600020905b8154815260200190600101908083116114a6575b50505050509050919050565b6114ce6133f5565b6114d66133f5565b60008090505b6006548167ffffffffffffffff161015611530576115038167ffffffffffffffff16611320565b828267ffffffffffffffff1660328110151561151b57fe5b602002018190525080806001019150506114dc565b508091505090565b60006002600085815260200190815260200160002060030160009054906101000a900473ffffffffffffffffffffffffffffffffffffffff1673ffffffffffffffffffffffffffffffffffffffff163373ffffffffffffffffffffffffffffffffffffffff161415156116985760026000858152602001908152602001600020600701600360003373ffffffffffffffffffffffffffffffffffffffff1673ffffffffffffffffffffffffffffffffffffffff168152602001908152602001600020600081548110151561160857fe5b906000526020600020015490806001815401808255809150509060018203906000526020600020016000909192909190915055506002600085815260200190815260200160002060060182908060018154018082558091505090600182039060005260206000209060209182820401919006909192909190916101000a81548160ff021916908315150217905550505b7fc4f678ebfd7e29fd2b410c08e9adcef6a55d52ee8c9b379f90cb334d18438668846002600087815260200190815260200160002060020160009054906101000a900473ffffffffffffffffffffffffffffffffffffffff16856001600088815260200190815260200160002060020160009054906101000a900473ffffffffffffffffffffffffffffffffffffffff1660405161173994939291906146ba565b60405180910390a16002600085815260200190815260200160002060050160109054906101000a900467ffffffffffffffff1667ffffffffffffffff16600260008681526020019081526020016000206007018054905014156117bc57600060029054906101000a900460ff16156117bb576117b4846119fa565b90506117bd565b5b5b9392505050565b600080600090506117d6600984612c28565b905080801561186857507f30000000000000000000000000000000000000000000000000000000000000006002600085815260200190815260200160002060080160019054906101000a90047f0100000000000000000000000000000000000000000000000000000000000000027effffffffffffffffffffffffffffffffffffffffffffffffffffffffffffff1916145b80156118d557503373ffffffffffffffffffffffffffffffffffffffff166002600085815260200190815260200160002060020160009054906101000a900473ffffffffffffffffffffffffffffffffffffffff1673ffffffffffffffffffffffffffffffffffffffff16145b156119ed57436002600085815260200190815260200160002060010181905550846002600085815260200190815260200160002060030160146101000a81548167ffffffffffffffff021916908367ffffffffffffffff1602179055508360026000858152602001908152602001600020600301601c6101000a81548161ffff021916908361ffff16021790555034600260008581526020019081526020016000206004018190555060098390806001815401808255809150509060018203906000526020600020016000909192909190915055507fa4c4c871d43d81be54f69ce74ea5bc289663a3cdf402d09baf09407085be023183336040516119db92919061442a565b60405180910390a160019150506119f3565b60009150505b9392505050565b60008060009050600080905060008090505b60026000868152602001908152602001600020600701805490508167ffffffffffffffff161015611aa65760011515600260008781526020019081526020016000206006018267ffffffffffffffff16815481101515611a6857fe5b90600052602060002090602091828204019190069054906101000a900460ff1615151415611a995781806001019250505b8080600101915050611a0c565b506002600085815260200190815260200160002060050160109054906101000a900467ffffffffffffffff1667ffffffffffffffff168167ffffffffffffffff16101515611b265760016002600086815260200190815260200160002060080160006101000a81548160ff02191690831515021790555060019150611b27565b5b7fa4c4c871d43d81be54f69ce74ea5bc289663a3cdf402d09baf09407085be0231846002600087815260200190815260200160002060020160009054906101000a900473ffffffffffffffffffffffffffffffffffffffff16604051611b8e929190614592565b60405180910390a1818015611baa5750611ba9600c85612c28565b5b91508192505050919050565b60006007546002600060075481526020019081526020016000206000018190555043600260006007548152602001908152602001600020600101819055503360026000600754815260200190815260200160002060020160006101000a81548173ffffffffffffffffffffffffffffffffffffffff021916908373ffffffffffffffffffffffffffffffffffffffff1602179055508460026000600754815260200190815260200160002060030160146101000a81548167ffffffffffffffff021916908367ffffffffffffffff16021790555083600260006007548152602001908152602001600020600301601c6101000a81548161ffff021916908361ffff1602179055508267ffffffffffffffff16600260006007548152602001908152602001600020600401819055508160026000600754815260200190815260200160002060050160006101000a81548167ffffffffffffffff021916908367ffffffffffffffff160217905550600160026000600754815260200190815260200160002060050160106101000a81548167ffffffffffffffff021916908367ffffffffffffffff160217905550600460003373ffffffffffffffffffffffffffffffffffffffff1673ffffffffffffffffffffffffffffffffffffffff1681526020019081526020016000206007549080600181540180825580915050906001820390600052602060002001600090919290919091505550600960075490806001815401808255809150509060018203906000526020600020016000909192909190915055507f300000000000000000000000000000000000000000000000000000000000000060026000600754815260200190815260200160002060080160016101000a81548160ff02191690837f0100000000000000000000000000000000000000000000000000000000000000900402179055507fa4c4c871d43d81be54f69ce74ea5bc289663a3cdf402d09baf09407085be023160075433604051611ea09291906145ce565b60405180910390a16007600081548092919060010191905055506000809054906101000a900460ff1615611ee357611edc600160075403612edd565b9050611ee4565b5b949350505050565b600080600090507f30000000000000000000000000000000000000000000000000000000000000006002600085815260200190815260200160002060080160019054906101000a90047f0100000000000000000000000000000000000000000000000000000000000000027effffffffffffffffffffffffffffffffffffffffffffffffffffffffffffff1916148015611fe757503373ffffffffffffffffffffffffffffffffffffffff166002600085815260200190815260200160002060020160009054906101000a900473ffffffffffffffffffffffffffffffffffffffff1673ffffffffffffffffffffffffffffffffffffffff16145b156120bc57612034600460003373ffffffffffffffffffffffffffffffffffffffff1673ffffffffffffffffffffffffffffffffffffffff16815260200190815260200160002084612c28565b9050612041600984612c28565b801561204a5750805b90507f37000000000000000000000000000000000000000000000000000000000000006002600085815260200190815260200160002060080160016101000a81548160ff02191690837f0100000000000000000000000000000000000000000000000000000000000000900402179055505b80156120fc577fa4c4c871d43d81be54f69ce74ea5bc289663a3cdf402d09baf09407085be023183336040516120f3929190614466565b60405180910390a15b80915050919050565b6060600360008373ffffffffffffffffffffffffffffffffffffffff1673ffffffffffffffffffffffffffffffffffffffff16815260200190815260200160002080548060200260200160405190810160405280929190818152602001828054801561219057602002820191906000526020600020905b81548152602001906001019080831161217c575b50505050509050919050565b606060088054806020026020016040519081016040528092919081815260200182805480156121ea57602002820191906000526020600020905b8154815260200190600101908083116121d6575b5050505050905090565b6060600980548060200260200160405190810160405280929190818152602001828054801561224257602002820191906000526020600020905b81548152602001906001019080831161222e575b5050505050905090565b612254613362565b61225c613362565b60008090505b6007548167ffffffffffffffff1610156122b6576122898167ffffffffffffffff166122be565b828267ffffffffffffffff166032811015156122a157fe5b60200201819052508080600101915050612262565b508091505090565b6122c6613424565b600260008381526020019081526020016000206101c0604051908101604052908160008201548152602001600182015481526020016002820160009054906101000a900473ffffffffffffffffffffffffffffffffffffffff1673ffffffffffffffffffffffffffffffffffffffff1673ffffffffffffffffffffffffffffffffffffffff1681526020016003820160009054906101000a900473ffffffffffffffffffffffffffffffffffffffff1673ffffffffffffffffffffffffffffffffffffffff1673ffffffffffffffffffffffffffffffffffffffff1681526020016003820160149054906101000a900467ffffffffffffffff1667ffffffffffffffff1667ffffffffffffffff16815260200160038201601c9054906101000a900461ffff1661ffff1661ffff168152602001600482015481526020016005820160009054906101000a900467ffffffffffffffff1667ffffffffffffffff1667ffffffffffffffff1681526020016005820160089054906101000a900467ffffffffffffffff1667ffffffffffffffff1667ffffffffffffffff1681526020016005820160109054906101000a900467ffffffffffffffff1667ffffffffffffffff1667ffffffffffffffff1681526020016006820180548060200260200160405190810160405280929190818152602001828054801561250c57602002820191906000526020600020906000905b82829054906101000a900460ff161515815260200190600101906020826000010492830192600103820291508084116124d65790505b505050505081526020016007820180548060200260200160405190810160405280929190818152602001828054801561256457602002820191906000526020600020905b815481526020019060010190808311612550575b505050505081526020016008820160009054906101000a900460ff161515151581526020016008820160019054906101000a90047f0100000000000000000000000000000000000000000000000000000000000000027effffffffffffffffffffffffffffffffffffffffffffffffffffffffffffff19167effffffffffffffffffffffffffffffffffffffffffffffffffffffffffffff1916815250509050919050565b6126116133f5565b6126196133f5565b60008090505b83518167ffffffffffffffff1610156126895761265c848267ffffffffffffffff1681518110151561264d57fe5b90602001906020020151611320565b828267ffffffffffffffff1660328110151561267457fe5b6020020181905250808060010191505061261f565b5080915050919050565b6003602052816000526040600020818154811015156126ae57fe5b90600052602060002001600091509150505481565b6004602052816000526040600020818154811015156126de57fe5b90600052602060002001600091509150505481565b60008060009050612705600884612c28565b905080801561273b5750600115156001600085815260200190815260200160002060040160009054906101000a900460ff161515145b80156127a857503373ffffffffffffffffffffffffffffffffffffffff166001600085815260200190815260200160002060020160009054906101000a900473ffffffffffffffffffffffffffffffffffffffff1673ffffffffffffffffffffffffffffffffffffffff16145b156128cc57436001600085815260200190815260200160002060010181905550856001600085815260200190815260200160002060020160146101000a81548167ffffffffffffffff021916908367ffffffffffffffff1602179055508460016000858152602001908152602001600020600201601c6101000a81548161ffff021916908361ffff1602179055508367ffffffffffffffff16600160008581526020019081526020016000206003018190555060088390806001815401808255809150509060018203906000526020600020016000909192909190915055507fa4c4c871d43d81be54f69ce74ea5bc289663a3cdf402d09baf09407085be0231600654336040516128ba9291906143ee565b60405180910390a160019150506128d2565b60009150505b949350505050565b6000806002600084815260200190815260200160002060050160109054906101000a900467ffffffffffffffff169050600080905060008090505b6008805490508167ffffffffffffffff161015612bb057600060088267ffffffffffffffff1681548110151561294757fe5b906000526020600020015490506002600087815260200190815260200160002060030160009054906101000a900473ffffffffffffffffffffffffffffffffffffffff1673ffffffffffffffffffffffffffffffffffffffff166001600083815260200190815260200160002060020160009054906101000a900473ffffffffffffffffffffffffffffffffffffffff1673ffffffffffffffffffffffffffffffffffffffff16141515612aff577fc4f678ebfd7e29fd2b410c08e9adcef6a55d52ee8c9b379f90cb334d18438668866002600089815260200190815260200160002060020160009054906101000a900473ffffffffffffffffffffffffffffffffffffffff16836001600086815260200190815260200160002060020160009054906101000a900473ffffffffffffffffffffffffffffffffffffffff16604051612a969493929190614662565b60405180910390a1828060010193505060006001600083815260200190815260200160002060040160006101000a81548160ff0219169083151502179055506000612ae2600883612c28565b9050801515612af957600095505050505050612c23565b50612b05565b50612ba3565b8367ffffffffffffffff168367ffffffffffffffff161015612b275750612ba3565b7fa4c4c871d43d81be54f69ce74ea5bc289663a3cdf402d09baf09407085be0231866002600089815260200190815260200160002060020160009054906101000a900473ffffffffffffffffffffffffffffffffffffffff16604051612b8e9291906143b2565b60405180910390a16001945050505050612c23565b8080600101915050612915565b507fa4c4c871d43d81be54f69ce74ea5bc289663a3cdf402d09baf09407085be0231846002600087815260200190815260200160002060020160009054906101000a900473ffffffffffffffffffffffffffffffffffffffff16604051612c18929190614556565b60405180910390a150505b919050565b600080600090505b83805490508167ffffffffffffffff161015612d055782848267ffffffffffffffff16815481101515612c5f57fe5b90600052602060002001541415612cf857836001858054905003815481101515612c8557fe5b9060005260206000200154848267ffffffffffffffff16815481101515612ca857fe5b9060005260206000200181905550836001858054905003815481101515612ccb57fe5b906000526020600020016000905583805480919060019003612ced9190613510565b506001915050612d0b565b8080600101915050612c30565b50600090505b92915050565b6000806009805490501415612d48577f32000000000000000000000000000000000000000000000000000000000000009050612ed8565b60008090505b6009805490508167ffffffffffffffff161015612eb357600060098267ffffffffffffffff16815481101515612d8057fe5b906000526020600020015490506001600085815260200190815260200160002060020160149054906101000a900467ffffffffffffffff1667ffffffffffffffff166002600083815260200190815260200160002060030160149054906101000a900467ffffffffffffffff1667ffffffffffffffff1611158015612e55575060016000858152602001908152602001600020600201601c9054906101000a900461ffff1661ffff1660026000838152602001908152602001600020600301601c9054906101000a900461ffff1661ffff1611155b8015612e8d57506001600085815260200190815260200160002060030154600260008381526020019081526020016000206004015410155b15612ea557612e9c81856130a9565b92505050612ed8565b508080600101915050612d4e565b507f310000000000000000000000000000000000000000000000000000000000000090505b919050565b6000806008805490501415612f14577f320000000000000000000000000000000000000000000000000000000000000090506130a4565b60008090505b6008805490508167ffffffffffffffff16101561307f57600060088267ffffffffffffffff16815481101515612f4c57fe5b906000526020600020015490506001600082815260200190815260200160002060020160149054906101000a900467ffffffffffffffff1667ffffffffffffffff166002600086815260200190815260200160002060030160149054906101000a900467ffffffffffffffff1667ffffffffffffffff1611158015613021575060016000828152602001908152602001600020600201601c9054906101000a900461ffff1661ffff1660026000868152602001908152602001600020600301601c9054906101000a900461ffff1661ffff1611155b801561305957506001600082815260200190815260200160002060030154600260008681526020019081526020016000206004015410155b156130715761306884826130a9565b925050506130a4565b508080600101915050612f1a565b507f310000000000000000000000000000000000000000000000000000000000000090505b919050565b6000806001600084815260200190815260200160002060040160006101000a81548160ff0219169083151502179055506001600083815260200190815260200160002060020160009054906101000a900473ffffffffffffffffffffffffffffffffffffffff166002600085815260200190815260200160002060030160006101000a81548173ffffffffffffffffffffffffffffffffffffffff021916908373ffffffffffffffffffffffffffffffffffffffff1602179055507f31000000000000000000000000000000000000000000000000000000000000006002600085815260200190815260200160002060080160016101000a81548160ff02191690837f01000000000000000000000000000000000000000000000000000000000000009004021790555060008090506131e3600985612c28565b90506131f0600884612c28565b80156131f95750805b905080151561322b577f330000000000000000000000000000000000000000000000000000000000000091505061335c565b600a849080600181540180825580915050906001820390600052602060002001600090919290919091505550600260008581526020019081526020016000206004015460056000868152602001908152602001600020600082825401925050819055507fc4f678ebfd7e29fd2b410c08e9adcef6a55d52ee8c9b379f90cb334d18438668846002600087815260200190815260200160002060020160009054906101000a900473ffffffffffffffffffffffffffffffffffffffff16856001600088815260200190815260200160002060020160009054906101000a900473ffffffffffffffffffffffffffffffffffffffff1660405161332f949392919061460a565b60405180910390a17f30000000000000000000000000000000000000000000000000000000000000009150505b92915050565b615780604051908101604052806032905b61337b61353c565b8152602001906001900390816133735790505090565b60e0604051908101604052806000815260200160008152602001600073ffffffffffffffffffffffffffffffffffffffff168152602001600067ffffffffffffffff168152602001600061ffff168152602001600081526020016000151581525090565b612bc0604051908101604052806032905b61340e613628565b8152602001906001900390816134065790505090565b6101c0604051908101604052806000815260200160008152602001600073ffffffffffffffffffffffffffffffffffffffff168152602001600073ffffffffffffffffffffffffffffffffffffffff168152602001600067ffffffffffffffff168152602001600061ffff16815260200160008152602001600067ffffffffffffffff168152602001600067ffffffffffffffff168152602001600067ffffffffffffffff168152602001606081526020016060815260200160001515815260200160007effffffffffffffffffffffffffffffffffffffffffffffffffffffffffffff191681525090565b81548183558181111561353757818360005260206000209182019101613536919061368c565b5b505050565b6101c0604051908101604052806000815260200160008152602001600073ffffffffffffffffffffffffffffffffffffffff168152602001600073ffffffffffffffffffffffffffffffffffffffff168152602001600067ffffffffffffffff168152602001600061ffff16815260200160008152602001600067ffffffffffffffff168152602001600067ffffffffffffffff168152602001600067ffffffffffffffff168152602001606081526020016060815260200160001515815260200160007effffffffffffffffffffffffffffffffffffffffffffffffffffffffffffff191681525090565b60e0604051908101604052806000815260200160008152602001600073ffffffffffffffffffffffffffffffffffffffff168152602001600067ffffffffffffffff168152602001600061ffff168152602001600081526020016000151581525090565b6136ae91905b808211156136aa576000816000905550600101613692565b5090565b90565b60006136bd82356149d9565b905092915050565b600082601f83011215156136d857600080fd5b81356136eb6136e682614868565b61483b565b9150818183526020840193506020810190508385602084028201111561371057600080fd5b60005b8381101561374057816137268882613772565b845260208401935060208301925050600181019050613713565b5050505092915050565b600061375682356149eb565b905092915050565b600061376a82356149f7565b905092915050565b600061377e8235614a05565b905092915050565b60006137928235614a0f565b905092915050565b6000602082840312156137ac57600080fd5b60006137ba848285016136b1565b91505092915050565b600080604083850312156137d657600080fd5b60006137e4858286016136b1565b92505060206137f585828601613772565b9150509250929050565b60006020828403121561381157600080fd5b600082013567ffffffffffffffff81111561382b57600080fd5b613837848285016136c5565b91505092915050565b60006020828403121561385257600080fd5b600061386084828501613772565b91505092915050565b60008060006060848603121561387e57600080fd5b600061388c86828701613772565b935050602061389d86828701613772565b92505060406138ae8682870161374a565b9150509250925092565b600080604083850312156138cb57600080fd5b60006138d985828601613772565b92505060206138ea85828601613786565b9150509250929050565b60008060006060848603121561390957600080fd5b600061391786828701613786565b93505060206139288682870161375e565b925050604061393986828701613772565b9150509250925092565b60008060006060848603121561395857600080fd5b600061396686828701613786565b93505060206139778682870161375e565b925050604061398886828701613786565b9150509250925092565b600080600080608085870312156139a857600080fd5b60006139b687828801613786565b94505060206139c78782880161375e565b93505060406139d887828801613786565b92505060606139e987828801613772565b91505092959194509250565b60008060008060808587031215613a0b57600080fd5b6000613a1987828801613786565b9450506020613a2a8782880161375e565b9350506040613a3b87828801613786565b9250506060613a4c87828801613786565b91505092959194509250565b613a6181614943565b82525050565b6000613a72826148cb565b808452602084019350613a8483614890565b60005b82811015613ab657613a9a868351613c28565b613aa382614902565b9150602086019550600181019050613a87565b50849250505092915050565b613acb816148d6565b613ad48261489d565b60005b82811015613b0657613aea858351613f9f565b613af38261490f565b915060e085019450600181019050613ad7565b5050505050565b6000613b18826148e1565b83602082028501613b28856148a7565b60005b84811015613b61578383038852613b43838351614162565b9250613b4e8261491c565b9150602088019750600181019050613b2b565b508196508694505050505092915050565b6000613b7d826148f7565b808452602084019350613b8f836148be565b60005b82811015613bc157613ba58683516142a6565b613bae82614936565b9150602086019550600181019050613b92565b50849250505092915050565b6000613bd8826148ec565b808452602084019350613bea836148b1565b60005b82811015613c1c57613c008683516142a6565b613c0982614929565b9150602086019550600181019050613bed565b50849250505092915050565b613c3181614955565b82525050565b613c4081614961565b82525050565b6000601182527f456e6f7567682056616c696461746f72730000000000000000000000000000006020830152604082019050919050565b6000601082527f50726f76696465722055706461746564000000000000000000000000000000006020830152604082019050919050565b6000601c82527f526571756573742041737369676e656420746f2050726f7669646572000000006020830152604082019050919050565b6000600f82527f52657175657374205570646174656400000000000000000000000000000000006020830152604082019050919050565b6000601f82527f56616c69646174696f6e2041737369676e656420746f2050726f7669646572006020830152604082019050919050565b6000600f82527f526571756573742053746f7070656400000000000000000000000000000000006020830152604082019050919050565b6000601d82527f5265717565737420436f6d7075746174696f6e20436f6d706c657465640000006020830152604082019050919050565b6000600e82527f50726f76696465722041646465640000000000000000000000000000000000006020830152604082019050919050565b6000601082527f50726f76696465722053746f70706564000000000000000000000000000000006020830152604082019050919050565b6000601082527f56616c696461746f72205369676e6564000000000000000000000000000000006020830152604082019050919050565b6000601582527f4e6f7420456e6f7567682056616c696461746f727300000000000000000000006020830152604082019050919050565b6000601382527f56616c69646174696f6e20436f6d706c657465000000000000000000000000006020830152604082019050919050565b6000600d82527f52657175657374204164646564000000000000000000000000000000000000006020830152604082019050919050565b60e082016000820151613f2760008501826142a6565b506020820151613f3a60208501826142a6565b506040820151613f4d6040850182613a58565b506060820151613f6060608501826142b5565b506080820151613f736080850182614297565b5060a0820151613f8660a08501826142a6565b5060c0820151613f9960c0850182613c28565b50505050565b60e082016000820151613fb560008501826142a6565b506020820151613fc860208501826142a6565b506040820151613fdb6040850182613a58565b506060820151613fee60608501826142b5565b5060808201516140016080850182614297565b5060a082015161401460a08501826142a6565b5060c082015161402760c0850182613c28565b50505050565b60006101c08301600083015161404660008601826142a6565b50602083015161405960208601826142a6565b50604083015161406c6040860182613a58565b50606083015161407f6060860182613a58565b50608083015161409260808601826142b5565b5060a08301516140a560a0860182614297565b5060c08301516140b860c08601826142a6565b5060e08301516140cb60e08601826142b5565b506101008301516140e06101008601826142b5565b506101208301516140f56101208601826142b5565b5061014083015184820361014086015261410f8282613a67565b91505061016083015184820361016086015261412b8282613bcd565b915050610180830151614142610180860182613c28565b506101a08301516141576101a0860182613c37565b508091505092915050565b60006101c08301600083015161417b60008601826142a6565b50602083015161418e60208601826142a6565b5060408301516141a16040860182613a58565b5060608301516141b46060860182613a58565b5060808301516141c760808601826142b5565b5060a08301516141da60a0860182614297565b5060c08301516141ed60c08601826142a6565b5060e083015161420060e08601826142b5565b506101008301516142156101008601826142b5565b5061012083015161422a6101208601826142b5565b506101408301518482036101408601526142448282613a67565b9150506101608301518482036101608601526142608282613bcd565b915050610180830151614277610180860182613c28565b506101a083015161428c6101a0860182613c37565b508091505092915050565b6142a08161498d565b82525050565b6142af816149bb565b82525050565b6142be816149c5565b82525050565b6000612bc0820190506142da6000830184613ac2565b92915050565b600060208201905081810360008301526142fa8184613b0d565b905092915050565b6000602082019050818103600083015261431c8184613b72565b905092915050565b60006020820190506143396000830184613c28565b92915050565b60006020820190506143546000830184613c37565b92915050565b600060e08201905061436f6000830184613f11565b92915050565b6000602082019050818103600083015261438f818461402d565b905092915050565b60006020820190506143ac60008301846142a6565b92915050565b60006060820190506143c760008301856142a6565b6143d46020830184613a58565b81810360408301526143e581613c46565b90509392505050565b600060608201905061440360008301856142a6565b6144106020830184613a58565b818103604083015261442181613c7d565b90509392505050565b600060608201905061443f60008301856142a6565b61444c6020830184613a58565b818103604083015261445d81613ceb565b90509392505050565b600060608201905061447b60008301856142a6565b6144886020830184613a58565b818103604083015261449981613d59565b90509392505050565b60006060820190506144b760008301856142a6565b6144c46020830184613a58565b81810360408301526144d581613d90565b90509392505050565b60006060820190506144f360008301856142a6565b6145006020830184613a58565b818103604083015261451181613dc7565b90509392505050565b600060608201905061452f60008301856142a6565b61453c6020830184613a58565b818103604083015261454d81613dfe565b90509392505050565b600060608201905061456b60008301856142a6565b6145786020830184613a58565b818103604083015261458981613e6c565b90509392505050565b60006060820190506145a760008301856142a6565b6145b46020830184613a58565b81810360408301526145c581613ea3565b90509392505050565b60006060820190506145e360008301856142a6565b6145f06020830184613a58565b818103604083015261460181613eda565b90509392505050565b600060a08201905061461f60008301876142a6565b61462c6020830186613a58565b61463960408301856142a6565b6146466060830184613a58565b818103608083015261465781613cb4565b905095945050505050565b600060a08201905061467760008301876142a6565b6146846020830186613a58565b61469160408301856142a6565b61469e6060830184613a58565b81810360808301526146af81613d22565b905095945050505050565b600060a0820190506146cf60008301876142a6565b6146dc6020830186613a58565b6146e960408301856142a6565b6146f66060830184613a58565b818103608083015261470781613e35565b905095945050505050565b600061018082019050614728600083018f6142a6565b614735602083018e6142a6565b614742604083018d613a58565b61474f606083018c613a58565b61475c608083018b6142b5565b61476960a083018a614297565b61477660c08301896142a6565b61478360e08301886142b5565b6147916101008301876142b5565b61479f6101208301866142b5565b6147ad610140830185613c28565b6147bb610160830184613c37565b9d9c50505050505050505050505050565b600060e0820190506147e1600083018a6142a6565b6147ee60208301896142a6565b6147fb6040830188613a58565b61480860608301876142b5565b6148156080830186614297565b61482260a08301856142a6565b61482f60c0830184613c28565b98975050505050505050565b6000604051905081810181811067ffffffffffffffff8211171561485e57600080fd5b8060405250919050565b600067ffffffffffffffff82111561487f57600080fd5b602082029050602081019050919050565b6000602082019050919050565b6000819050919050565b6000819050919050565b6000602082019050919050565b6000602082019050919050565b600081519050919050565b600060329050919050565b600060329050919050565b600081519050919050565b600081519050919050565b6000602082019050919050565b6000602082019050919050565b6000602082019050919050565b6000602082019050919050565b6000602082019050919050565b600061494e8261499b565b9050919050565b60008115159050919050565b60007fff0000000000000000000000000000000000000000000000000000000000000082169050919050565b600061ffff82169050919050565b600073ffffffffffffffffffffffffffffffffffffffff82169050919050565b6000819050919050565b600067ffffffffffffffff82169050919050565b60006149e48261499b565b9050919050565b60008115159050919050565b600061ffff82169050919050565b6000819050919050565b600067ffffffffffffffff8216905091905056fea265627a7a72305820a9b5bb7ccb37fed6e027332637a56bffa065339e6f02fff7c112feaf973f40416c6578706572696d656e74616cf50037",
  "source": "///////////////////////////////////////////////////////////////////////////////////\n//BCAI main solidity contract\n//Author: Taurus, Landry\n//Copyright: tlu4@lsu.edu\n//version 0.9.5\n//support validation;\n//\n// NOTE: functions sending TX cannot retrieve returnValues, only possible way is event\n// Instead function calls can return value directly.\n//////////////////////////////////////////////////////////////////////////////////\npragma solidity ^0.5.0;\npragma experimental ABIEncoderV2;   //return self-defined type\n\ncontract TaskContract {\n    //config\n    bool autoAssign = true;            //whether auto assign the task\n    bool autoValidate = true;          //whether auto pair validation\n    bool autoFinalization = false;\n    //uint8 validates = 8;\n    \n    \n    //list\n    mapping (uint256 => Provider) public providerList;  //history\n    mapping (uint256 => Request)  public requestList;   //history\n    \n    //mapping address with ID       //NOTE:editing these mapping cost a lot\n    mapping (address => uint256[])  public providerMap;\n    mapping (address => uint256[])  public requestMap;\n    mapping (uint256 => uint256) public balanceList;    //reqID => balance\n    \n    //ID - counter , +1 each new request or provider\n    uint256 private providerCount;     \n    uint256 private requestCount;\n    //Pool: providers can be removed from the pool but requests must be in one of the pool\n    uint256[] providerPool;     //providers\n    uint256[] pendingPool;      //requests  //wait to match \n    uint256[] providingPool;    //requests  //being computed\n    uint256[] postProvPool;     //requests  //done the computation, wait to be matched to validate.\n    uint256[] validatingPool;   //requests\n    uint256[] donePool;         //requests  //NOTE: [Important] this array could increase unlimitedly -- only for testing\n\n///////////////////////////////////////////////////////////////////////////////\n    constructor() public {      //sol 5.0 syntax\n        delete providerPool;\n        delete pendingPool;\n        delete providingPool;\n        delete validatingPool;\n        providerCount = 0;\n        requestCount = 0;\n    }\n    //structs\n    struct Request {\n        uint256 reqID;                  //requestID is the only identifier for each Request\n        uint256 blockNumber;\n        address payable addr;           //payable is new feature from sol v5.0\n        address payable provider;        \n        uint64  time;                   //time\n        uint16  target;                 //target 0-100.00\n        uint256 price;                  //the max amount he can pay\n        uint64  dataID;                 //dataID used to fetch the off-chain data\n        uint64  resultID;               //dataID to fetch the result\n        uint64  numValidations;         //user defined the validation\n        bool[]  signatures;\n        uint256[] validators;           //multisignature from validations\n        bool    isValid;                //the final flag\n        byte    status;                 //0: 'pending', 1:'providing', 2: validating, 3: complete, 7: done\n    }\n\n    struct Provider {\n        //TODO: the provider name registration.\n        uint256 provID;\n        uint256 blockNumber;\n        address payable addr;           //providers address    \n        uint64  maxTime;                //max time\n        uint16  maxTarget;              //max target he need\n        uint256 minPrice;               //lowest price can accept\n        bool    available;              //Used to determine if provider is already doing something\n    }\n    //event\n    event SystemInfo    (uint256 ID, address payable addr , bytes info);\n    event PairingInfo   (uint256 reqID, address payable reqAddr,\n                            uint256 provID, address payable provAddr, bytes info);\n    ////// Functions ///////////////////////////////////////////////////////////////////////////////\n    // startProviding called by client --worker mode to become a provider. \n    // init new struct on List, Map and Pool. \n    // NOTE: cannot use to update. You must stop a previous one and start a new one. (updateProvider)\n    // TIPS: gas cost: don't create local copy and write back, modify the storage directly.\n    function startProviding(uint64 maxTime, uint16 maxTarget, uint64 minPrice) public returns (byte) {\n        // register a new provider object in the List and map              \n        providerList[providerCount].provID         = providerCount;\n        providerList[providerCount].blockNumber    = block.number;\n        providerList[providerCount].addr           = msg.sender;             \n        providerList[providerCount].maxTime        = maxTime;       \n        providerList[providerCount].maxTarget      = maxTarget;\n        providerList[providerCount].minPrice       = minPrice;\n        // add to map & list, fire event  \n        providerMap[msg.sender].push(providerCount);\n        providerPool.push(providerCount);\n        providerList[providerCount].available      = true;      //turn on the flag at LAST   \n        emit SystemInfo(providerCount, msg.sender, 'Provider Added');\n        providerCount++;\n        //try assign and handle return value\n        if(autoAssign) return assignProvider(providerCount-1);  //assign the new provider   \n    }\n    // Stop a provider, Must be sent from the provider address or it will be failed.\n    function stopProviding(uint256 provID) public returns (bool) {\n        // If the sender is currently an active provider\n        bool flag = false;\n        if (providerList[provID].available == true                 //can only stop available provider\n                && providerList[provID].addr == msg.sender) {      //you cannot delete other's provider            \n            //delete providerList[provID];                         //do NOT delete from List, keep a record\n            flag = ArrayPop(providerMap[msg.sender], provID);      //delete form Map\n            flag = ArrayPop(providerPool, provID) && flag;         //delete from Pool\n            providerList[provID].available == false;             \n        } else return false;                                       //update requirement not met\n        if(flag) //{emit ProviderStopped(provID, msg.sender);\n            emit SystemInfo(providerCount, msg.sender, 'Provider Stopped');\n        return flag;\n    }\n    //update a provider, you must know the provID and must sent from right addr\n    //provider to be update must in the provider pool\n    function updateProvider(uint64 maxTime, uint16 maxTarget, uint64 minPrice, uint256 provID) public returns (bool) {      \n        bool flag = false;\n        flag = ArrayPop(providerPool, provID);              //provider must be in pool\n        if(flag && providerList[provID].available == true   //can only modify available provider\n        && providerList[provID].addr == msg.sender){        //you cannot modify other's config\n            providerList[provID].blockNumber    = block.number;         \n            providerList[provID].maxTime        = maxTime;       \n            providerList[provID].maxTarget      = maxTarget;\n            providerList[provID].minPrice       = minPrice;\n            //update pool                                         \n            providerPool.push(provID);                      // push in both case anyway\n            //update map -- no need provID not changed.\n            emit SystemInfo(providerCount, msg.sender, 'Provider Updated');\n            return true;\n        } else return false;\n    }\n\n    // Send a request from user to blockchain. (legacy name : RequestTask)\n    // Assumes price is including the cost for verification\n    function startRequest(uint64 time, uint16 target, uint64 price, uint64 dataID) payable public returns (byte) {\n        //register on List\n        requestList[requestCount].reqID         = requestCount;\n        requestList[requestCount].blockNumber   = block.number;  \n        requestList[requestCount].addr          = msg.sender;     \n        requestList[requestCount].time          = time;    \n        requestList[requestCount].target        = target;\n        requestList[requestCount].price         = price;\n        requestList[requestCount].dataID        = dataID;\n        requestList[requestCount].numValidations = 1;\n        \n        //add new to map\n        requestMap[msg.sender].push(requestCount);\n        \n        //add new to requestPool\n        pendingPool.push(requestCount);\n        requestList[requestCount].status = '0' ;     //web3.toAscii([hex])\n        //emit RequestAdded(requestCount, msg.sender);       \n        emit SystemInfo(requestCount, msg.sender,'Request Added');\n        requestCount++;\n        //try assign and handle return value\n        if (autoAssign) return assignRequest(requestCount-1);\n    }\n    function stopRequest(uint256 reqID) public returns (bool){\n        bool flag = false;\n        if (requestList[reqID].status == '0'                       //can only cancel pending request\n                && requestList[reqID].addr == msg.sender) {        //you cannot delete other's provider            \n            //delete requestList[reqID];                           //do NOT delete from List, keep a record\n            flag = ArrayPop(requestMap[msg.sender], reqID);        //delete form Map\n            flag = ArrayPop(pendingPool, reqID) && flag;           //delete from Pool             \n            requestList[reqID].status = '7';                       //'done'\n        }\n        if(flag) \n        //emit RequestCanceled(reqID, msg.sender);\n            emit SystemInfo(reqID, msg.sender, 'Request Stopped');\n        return flag;\n    }\n    function updateRequest(uint64 time, uint16 target, uint256 reqID) payable public returns (bool) {      \n        bool flag = false;\n        flag = ArrayPop(pendingPool,reqID);                 // pop first  \n        if(flag && requestList[reqID].status == '0'         //can only update pending request\n        && requestList[reqID].addr == msg.sender){          //you cannot modify other's config\n            requestList[reqID].blockNumber = block.number;         \n            requestList[reqID].time        = time;       \n            requestList[reqID].target      = target;\n            requestList[reqID].price       = msg.value;                         \n            pendingPool.push(reqID);                        //update pool\n            //update map -- no need provID not changed.\n            //emit RequestUpdated(reqID, msg.sender);\n            emit SystemInfo(reqID, msg.sender, 'Request Updated');\n            return true;\n        } else return false;\n    }\n\n    /////////////////////////////////////////////////////////////////////////////////////////////////\n    // assignProvider: Search in the pendingPool, find a job for current provider. Triggered by startProviding\n    // Input: uint256 provider ID\n    // Returns: 0: successfully assigned\n    //          1: searched all providers but find no match\n    //          2: no available provider right now\n    //          3: failure during poping pool\n    function assignProvider(uint256 provID) private returns (byte){\n        //check whether there exists pending requests\n        if(pendingPool.length == 0) return '2';\n        else {\n            //search throught the pendingPool\n            for (uint64 i = 0; i < pendingPool.length; i++){\n                //save the re-usable reqID , may save gas\n                uint256 reqID = pendingPool[i]; //\n                if( requestList[reqID].time     <= providerList[provID].maxTime &&\n                    requestList[reqID].target   <= providerList[provID].maxTarget &&\n                    requestList[reqID].price    >= providerList[provID].minPrice)\n                    return assign(reqID, provID);         //emit here btw       \n            }\n            //after for loop and no match\n            return '1';\n        }\n    }\n    \n    // assignRequest: Assigning one task to one of the available providers. Only called from startRequest (private)\n    // Search in the providerPool, could only assign one task at a time\n    // TODO: need to add preference next patch\n    // Returns: 0: successfully assigned\n    //          1: searched all providers but find no match\n    //          2: no available provider right now\n    //          3: failure during poping pool\n    function assignRequest(uint256 reqID) private returns (byte) {\n        //provider availability is checked in pool not in list\n        if (providerPool.length == 0)   return '2';\n        else {            //if any provider in pool\n            for (uint64 i = 0; i < providerPool.length; i++) {\n                // save the provider's addr, reusable and save gas cost\n                uint256 provID  = providerPool[i];\n                if( requestList[reqID].time     <= providerList[provID].maxTime &&\n                    requestList[reqID].target   <=providerList[provID].maxTarget &&\n                    requestList[reqID].price    >= providerList[provID].minPrice)\n                    return assign(reqID, provID);   //emit here btw\n            }\n            // No provider was found matching the criteria -- request failed\n            //requestList[reqID].addr.transfer(requestList[reqID].price); // Returns the ether to the sender\n            return '1';\n        }       \n    }\n    \n    //supporting function :triggered by assignRequest or assignProvider, do the state change and pool move\n    function assign(uint256 reqID, uint256 provID) private returns (byte) {\n        //update provider\n        providerList[provID].available = false;\n        //update request\n        requestList[reqID].provider = providerList[provID].addr;\n        requestList[reqID].status = '1';    //providing\n        //update the pool, move ID#\n        bool isPopped = false;\n        isPopped = ArrayPop(pendingPool, reqID);\n        isPopped = ArrayPop(providerPool, provID) && isPopped;\n        if(!isPopped) return '3';\n        providingPool.push(reqID);\n        \n        //update balanceList            addr here is requester's\n        balanceList[reqID] += requestList[reqID].price; \n        //emit TaskAssigned(reqID,requestList[reqID].addr,  \n        //                provID, providerList[provID].addr);\n        emit PairingInfo (reqID,requestList[reqID].addr,  \n                provID, providerList[provID].addr, 'Request Assigned to Provider');\n        return '0';   \n    }\n\n\n    ////////////////////////////////////////////////////////////////////////////////////////\n    // off-chain actions happen here!\n    // After assignment, provider will fetch off-chain data and \n    // update this action by sending a confirm online, (not necessarily).\n    // TODO: function providerGotData() public returns (byte){}\n    //\n    // Then provider will start computation right now.\n    // ....\n    // Return the result and call completeRequest\n    ////////////////////////////////////////////////////////////////////////////////////////\n    //Exceptions: \n    // 1.Computation aborted/fail == retry within time limit\n    // 2.timeout == refund request / status: providing -> pending\n    // ##$$ Golden Rule: Costomer is God, whoever PAYED must got result or refund.\n    // Deal with money using extreme caution!\n\n\n    // Provider will call this when they are done and the data is available.\n    // This will invoke the validation stage but only when the request got enough validators\n    // that req could be moved from pool and marked,\n    // Or that req stays providing\n    function completeRequest(uint256 reqID, uint64 resultID) public returns (bool) {\n        // Confirm msg.sender is actually the provider of the task he claims\n        if (msg.sender == requestList[reqID].provider) {\n            //change request obj\n            requestList[reqID].status = '2';    //validating\n            requestList[reqID].resultID = resultID;\n            //move from providing pool to validating Pool.\n            bool flag = false;\n            flag = ArrayPop(providingPool, reqID);\n            if(!flag) return false;\n            validatingPool.push(reqID);\n            //release provider (not necessarily depend on provider)\n            //providerList[providerID[msg.sender]].available = true;\n            //emit assignRequest(reqID, msg.sender);\n            emit SystemInfo(reqID, requestList[reqID].addr, 'Request Computation Completed');\n            //start validation process\n            if(autoValidate){\n                return validateRequest(reqID);\n            }else return true;\n        }\n        else {      //msg.sender != provider\n            return false;\n        }\n    }\n\n    // Called by assignRequest before finalizing stuff. Contract checks with validators\n    // Returns false if there wasnt enough free providers to send out the required number of validation requests\n    // need validation from 1/10 of nodes -- could change\n    function validateRequest(uint256 reqID) public returns (bool) {\n        uint64 numValidatorsNeeded = requestList[reqID].numValidations; \n        //uint numValidators = providerCount / 10; \n        uint64 validatorsFound = 0;\n        //select # of available provider from the pool and force em to do the validation\n        for (uint64 i = 0; i < providerPool.length; i++) {\n            //get provider ID\n            uint256 provID = providerPool[i];\n            if(providerList[provID].addr != requestList[reqID].provider){   //validator and computer cannot be same\n                //EVENT: informs validator that they were selected and need to validate\n                emit PairingInfo(reqID, requestList[reqID].addr, \n                        provID, providerList[provID].addr, 'Validation Assigned to Provider');\n                validatorsFound++;\n                //remove the providers availablity and pop from pool\n                providerList[provID].available = false;\n                bool flag = ArrayPop(providerPool, provID);\n                if (!flag) return false;\n            } else continue;\n            //check whether got enough validator\n            if(validatorsFound < numValidatorsNeeded){\n                continue;\n            }\n            else{       //enough validator\n                emit SystemInfo(reqID, requestList[reqID].addr, 'Enough Validators');\n                return true;\n                break;\n            }\n            //loop until certain # of validators selected\n        }   \n        //exit loop without enough validators\n        //emit NotEnoughValidation(reqID);    \n        emit SystemInfo(reqID, requestList[reqID].addr, 'Not Enough Validators');\n    }\n    //////////////////////////////////////////////////////////////\n    // some cases here:\n    //  1. req is actually false\n    //      a. claim true   : cheating\n    //      b. claim false  : honest\n    //  2. req is actually true\n    //      a. claim true   : honest\n    //      b. claim false  : not likely\n    //////////////////////////////////////////////////////////////\n\n\n    // needs to be more secure by ensuring the submission is coming from someone legit \n    // similar to completeTask but this will sign the validation list of the target Task\n    //TODO: the money part is ommited for now\n    function submitValidation(uint256 reqID, uint256 provID, bool result) public returns (bool) {\n        // Pay the validator \n        // uint partialPayment = requestList[reqID].price / 100; // amount each validator is paid\n        // msg.sender.transfer(partialPayment);\n        // balanceList[requestList[reqID].addr] -= partialPayment;\n\n        // edit array and pool\n        if(msg.sender != requestList[reqID].provider) {     //validator cannot be provider\n            requestList[reqID].validators.push(providerMap[msg.sender][0]);     //push array\n            requestList[reqID].signatures.push(result);     //edit mapping\n        }\n        emit PairingInfo(reqID, requestList[reqID].addr, \n                    provID, providerList[provID].addr, 'Validator Signed');\n       \n        // If enough validations have been submitted\n        if (requestList[reqID].validators.length == requestList[reqID].numValidations) {\n            //return checkValidation(reqID, requestList[reqID].price - requestList[reqID].numValidationsNeeded * partialPayment);\n            if(autoFinalization) return checkValidation(reqID);\n        }\n    }\n    \n    function checkValidation(uint256 reqID) public returns (bool) {\n        // Add up successful validations\n        bool flag = false;\n        uint64 successCount = 0;\n        for (uint64 i=0; i<requestList[reqID].validators.length; i++) {\n            if (requestList[reqID].signatures[i] == true) successCount++;\n        }\n        // if 2/3 of validation attempts were successful\n        // TODO: determine the fraction\n        if (successCount  >= requestList[reqID].numValidations) { \n            // if 2/3 of validations were valid then provider gets remainder of money\n            //requestList[reqID].provider.transfer(payment); \n            //balanceList[requestList[reqID].addr] -= payment;\n            //TODO: [important] leave out the payment part for now.\n            requestList[reqID].isValid = true; // Task was successfully completed! \n            flag = true;\n        }\n        // otherwise, work was invalid, the providers payment goes back to requester\n        else {\n            //requestList[reqID].addr.transfer(payment);\n            //balanceList[requestList[reqID].addr] -= payment;\n        }\n        // EVENT: task is done whether successful or not\n        //emit TaskCompleted(requestList[reqID].addr, reqID);\n        emit SystemInfo(reqID, requestList[reqID].addr, 'Validation Complete');\n        //popout from pool\n        flag = flag && ArrayPop(validatingPool, reqID);\n        return flag;\n    }\n\n//////////////////////////////////////////////////////////////////////\n/*  function startRequest(uint64 dataID, uint16 target, uint64 time) payable public returns (bool) {\n    //a legacy version of startRequest, using a local memory copy and write back\n    //NOTE: [important] this method may take most gas cost. Take this as an example\n    //Conclusion: only modify the necessary mapping item.\n        bool[] memory emptyArray;\n        Request memory req = Request(           //create a temp memory var\n            msg.sender,             //addr\n            address(0),             //provider\n            requestCount,           //reqID\n            dataID,                 //dataID\n            time,                   //time    \n            target,                 //target   0-100\n            msg.value,              //price \n            0,                      //resultID\n            1,                      //numValidationsNeeded\n            emptyArray,             //sig list\n            false,                  //isValid\n            0                       //status  0-3 0: pending\n        );\n\n        //copy the mem var into storage\n        requestList[requestCount] = req;        //requestCount used as index here, from 0 to +++\n        //add new to requestPool\n        requestPool.push(requestCount);\n        //update requestID\n        requestID[msg.sender].push(requestCount);\n        //update count\n        requestCount++;     //count already stands for the # of req now.\n        pendingCount++;\n        return assignRequest();\n    }\n*/\n/////////////////////////////////////////////////////////////////////\n    // Used to dynamically remove elements from array of open provider spaces. \n    // Using a swap and delete method, search for the desired addr throughout the whole array\n    // delete the desired and swap the whole with last element\n    function ArrayPop(uint256[] storage array, uint256 target) private returns (bool) {\n        for(uint64 i = 0; i < array.length; i++){\n            if (array[i] == target) {\n                //swap last element with hole\n                array[i] = array[array.length-1];\n                //delete last item\n                delete array[array.length-1];\n                //decrease size\n                array.length--;\n                return true;\n            }\n        }\n        return false;   //fail to search: no matching in pool\n    } \n    function getMyProvID() public view returns (uint256[] memory){\n        return providerMap[msg.sender];\n    }\n    function getMyReqID() public view returns (uint256[] memory){\n        return requestMap[msg.sender];\n    }\n    function getProviderID(address addr) public view returns (uint256[] memory){\n        return providerMap[addr];\n    }\n    function getRequestID(address addr) public view returns (uint256[] memory){\n        return requestMap[addr];\n    }\n\n    /////////////////////////////////////////////////////////////////////////////////\n    //some helpers defined here\n    function getProvider(uint256 ID) public view returns(Provider memory){\n        return providerList[ID];\n    }\n    function getRequest(uint256 ID) public view returns (Request memory){\n\t    return requestList[ID];\n    }\n    function getProviderCount() public view returns (uint256){\n        return providerCount;\n    }\n    function getRequestCount() public view returns (uint256){\n        return requestCount;\n    }\n    function getProviderPool() public view returns (uint256[] memory){\n        return providerPool;\n    }\n    function getPendingPool() public view returns (uint256[] memory){\n        return pendingPool;\n    }\n    function getProvidingPool() public view returns (uint256[] memory){\n        return providingPool;\n    }\n    function getValidatingPool() public view returns (uint256[] memory){\n        return validatingPool;\n    }\n    function getProviderPoolSize() public view returns (uint256){\n        return providerPool.length;\n    }\n    function getPendingPoolSize() public view returns (uint256){\n        return pendingPool.length;\n    }\n    \n    //function getBalance(address addr) public view returns (uint256){\n    //    return balanceList[addr];\n    //}\n    //list out structs using IDlist\n    function listRequests(uint256[] memory IDList) public view returns(Request[50] memory){\n\t    Request[50] memory allRequest;\n\t    for (uint64 i = 0; i < IDList.length; i++){\n\t\t    allRequest[i] = getRequest(IDList[i]);\n\t    }\n\t    return allRequest;\n    }\n    function listProviders(uint256[] memory IDList) public view returns(Provider[50] memory){\n        Provider[50] memory allProvider;\n        //address addr;\n        for (uint64 i = 0; i < IDList.length;i++){\n            allProvider[i] = getProvider(IDList[i]);\n        }\n        return allProvider;\n    }\n    function listAllRequests() public view returns(Request[50] memory){\n\t    Request[50] memory allRequest;\n\t    for (uint64 i = 0; i < requestCount; i++){\n\t\t    allRequest[i] = getRequest(i);\n\t    }\n\t    return allRequest;\n    }\n    function listAllProviders() public view returns(Provider[50] memory){\n\t    Provider[50] memory allProvider;\n\t    for (uint64 i = 0; i < providerCount; i++){\n\t\t    allProvider[i] = getProvider(i);\n\t    }\n\t    return allProvider;\n    }\n}\n",
  "sourcePath": "/home/taurus/blockchain/gitLab/bcai_v0.9/contracts/bcai_0.9.sol",
  "compiler": {
    "name": "solc",
    "version": "0.5.0+commit.1d4f565a.Emscripten.clang"
  },
  "schemaVersion": "3.0.0-beta.2",
  "updatedAt": "2018-12-20T23:14:21.562Z",
  "devdoc": {
    "methods": {}
  },
  "userdoc": {
    "methods": {
      "completeRequest(uint256,uint64)": {
        "notice": "/////////////////////////////////////////////////////////////////////////////////////"
      },
      "constructor": "////////////////////////////////////////////////////////////////////////////",
      "getProvider(uint256)": {
        "notice": "//////////////////////////////////////////////////////////////////////////////"
      },
      "startProviding(uint64,uint16,uint64)": {
        "notice": "/// Functions ///////////////////////////////////////////////////////////////////////////////"
      },
      "submitValidation(uint256,uint256,bool)": {
        "notice": "///////////////////////////////////////////////////////////"
      }
    }
  }
}