{
  "contractName": "TaskContract",
  "abi": [
    {
      "constant": true,
      "inputs": [
        {
          "name": "",
          "type": "uint256"
        }
      ],
      "name": "requestList",
      "outputs": [
        {
          "name": "reqID",
          "type": "uint256"
        },
        {
          "name": "blockNumber",
          "type": "uint256"
        },
        {
          "name": "addr",
          "type": "address"
        },
        {
          "name": "provider",
          "type": "address"
        },
        {
          "name": "time",
          "type": "uint64"
        },
        {
          "name": "target",
          "type": "uint16"
        },
        {
          "name": "price",
          "type": "uint256"
        },
        {
          "name": "dataID",
          "type": "uint64"
        },
        {
          "name": "resultID",
          "type": "uint64"
        },
        {
          "name": "numValidations",
          "type": "uint64"
        },
        {
          "name": "isValid",
          "type": "bool"
        },
        {
          "name": "status",
          "type": "bytes1"
        }
      ],
      "payable": false,
      "stateMutability": "view",
      "type": "function",
      "signature": "0x02e9d43b"
    },
    {
      "constant": true,
      "inputs": [
        {
          "name": "",
          "type": "uint256"
        }
      ],
      "name": "providerList",
      "outputs": [
        {
          "name": "provID",
          "type": "uint256"
        },
        {
          "name": "blockNumber",
          "type": "uint256"
        },
        {
          "name": "addr",
          "type": "address"
        },
        {
          "name": "maxTime",
          "type": "uint64"
        },
        {
          "name": "maxTarget",
          "type": "uint16"
        },
        {
          "name": "minPrice",
          "type": "uint256"
        },
        {
          "name": "available",
          "type": "bool"
        }
      ],
      "payable": false,
      "stateMutability": "view",
      "type": "function",
      "signature": "0x390bfd3c"
    },
    {
      "constant": true,
      "inputs": [
        {
          "name": "",
          "type": "uint256"
        }
      ],
      "name": "balanceList",
      "outputs": [
        {
          "name": "",
          "type": "uint256"
        }
      ],
      "payable": false,
      "stateMutability": "view",
      "type": "function",
      "signature": "0x599b6808"
    },
    {
      "constant": true,
      "inputs": [
        {
          "name": "",
          "type": "address"
        },
        {
          "name": "",
          "type": "uint256"
        }
      ],
      "name": "providerMap",
      "outputs": [
        {
          "name": "",
          "type": "uint256"
        }
      ],
      "payable": false,
      "stateMutability": "view",
      "type": "function",
      "signature": "0xd2d5d74f"
    },
    {
      "constant": true,
      "inputs": [
        {
          "name": "",
          "type": "address"
        },
        {
          "name": "",
          "type": "uint256"
        }
      ],
      "name": "requestMap",
      "outputs": [
        {
          "name": "",
          "type": "uint256"
        }
      ],
      "payable": false,
      "stateMutability": "view",
      "type": "function",
      "signature": "0xd3cca02e"
    },
    {
      "inputs": [],
      "payable": false,
      "stateMutability": "nonpayable",
      "type": "constructor",
      "signature": "constructor"
    },
    {
      "anonymous": false,
      "inputs": [
        {
          "indexed": false,
          "name": "provID",
          "type": "uint256"
        },
        {
          "indexed": false,
          "name": "addr",
          "type": "address"
        }
      ],
      "name": "ProviderAdded",
      "type": "event",
      "signature": "0xafeb8d353a550fa93ee49e05f2ec51920688cec519f9c53be94a6ffffdf9a534"
    },
    {
      "anonymous": false,
      "inputs": [
        {
          "indexed": false,
          "name": "provID",
          "type": "uint256"
        },
        {
          "indexed": false,
          "name": "addr",
          "type": "address"
        }
      ],
      "name": "ProviderStopped",
      "type": "event",
      "signature": "0x37f095876e7fce8c776261edf08749c7a785891cfcdb3e45e1fe6f0a5085ddb0"
    },
    {
      "anonymous": false,
      "inputs": [
        {
          "indexed": false,
          "name": "provID",
          "type": "uint256"
        },
        {
          "indexed": false,
          "name": "addr",
          "type": "address"
        }
      ],
      "name": "ProviderUpdated",
      "type": "event",
      "signature": "0xd94c593c75e29861632520adc8ad754e10eb195d12baa4d1bf0bfcf23060b8b7"
    },
    {
      "anonymous": false,
      "inputs": [
        {
          "indexed": false,
          "name": "reqID",
          "type": "uint256"
        },
        {
          "indexed": false,
          "name": "reqAddr",
          "type": "address"
        },
        {
          "indexed": false,
          "name": "provID",
          "type": "uint256"
        },
        {
          "indexed": false,
          "name": "provAddr",
          "type": "address"
        }
      ],
      "name": "TaskAssigned",
      "type": "event",
      "signature": "0xc5e0672f97da4dc0ce37a461d9430942f96b915f315d4751d97368f4aa014363"
    },
    {
      "anonymous": false,
      "inputs": [
        {
          "indexed": false,
          "name": "reqID",
          "type": "uint256"
        },
        {
          "indexed": false,
          "name": "addr",
          "type": "address"
        }
      ],
      "name": "RequestAdded",
      "type": "event",
      "signature": "0x1547844676b0fd6479fc29c4babdeba187ee3bbc2b982bad5ad798b75675526d"
    },
    {
      "anonymous": false,
      "inputs": [
        {
          "indexed": false,
          "name": "reqID",
          "type": "uint256"
        },
        {
          "indexed": false,
          "name": "addr",
          "type": "address"
        }
      ],
      "name": "RequestUpdated",
      "type": "event",
      "signature": "0x4872ad1ba2f7842ef7ee71f43ab3c3ee611e2cfe5ea6bc4f5a3d5c77cfa48563"
    },
    {
      "anonymous": false,
      "inputs": [
        {
          "indexed": false,
          "name": "reqID",
          "type": "uint256"
        },
        {
          "indexed": false,
          "name": "addr",
          "type": "address"
        }
      ],
      "name": "RequestCanceled",
      "type": "event",
      "signature": "0x7e8e70bf979070497c1e07bfd1131dd24e7117f289dbb8cc96f57a367db6b317"
    },
    {
      "anonymous": false,
      "inputs": [
        {
          "indexed": false,
          "name": "reqID",
          "type": "uint256"
        },
        {
          "indexed": false,
          "name": "addr",
          "type": "address"
        }
      ],
      "name": "CompleteTask",
      "type": "event",
      "signature": "0x60a37d5c5d09d4817f0ecdd6f184f930e7d87a7f2daed3edcf4b1f0f978ff222"
    },
    {
      "anonymous": false,
      "inputs": [
        {
          "indexed": false,
          "name": "reqID",
          "type": "uint256"
        },
        {
          "indexed": false,
          "name": "provID",
          "type": "uint256"
        },
        {
          "indexed": false,
          "name": "addr",
          "type": "address"
        }
      ],
      "name": "ValidationAssigned",
      "type": "event",
      "signature": "0xd92b3644be79c3a217633fd06de3db2935f0d8b41bd13ec4112727ec9451efc7"
    },
    {
      "anonymous": false,
      "inputs": [
        {
          "indexed": false,
          "name": "reqID",
          "type": "uint256"
        }
      ],
      "name": "NotEnoughValidation",
      "type": "event",
      "signature": "0x7ac9ad79ee3efb861e4bed1fb754239e30da48a583570606f05f892e3ce5857b"
    },
    {
      "anonymous": false,
      "inputs": [
        {
          "indexed": false,
          "name": "ID",
          "type": "uint256"
        },
        {
          "indexed": false,
          "name": "addr",
          "type": "address"
        },
        {
          "indexed": false,
          "name": "info",
          "type": "bytes20"
        }
      ],
      "name": "SystemInfo",
      "type": "event",
      "signature": "0x172579419e59fdf753121df810b39ff1773b0cfc23d978973a9b82deab243a37"
    },
    {
      "anonymous": false,
      "inputs": [
        {
          "indexed": false,
          "name": "reqID",
          "type": "uint256"
        },
        {
          "indexed": false,
          "name": "reqAddr",
          "type": "address"
        },
        {
          "indexed": false,
          "name": "provID",
          "type": "uint256"
        },
        {
          "indexed": false,
          "name": "provAddr",
          "type": "address"
        },
        {
          "indexed": false,
          "name": "info",
          "type": "bytes"
        }
      ],
      "name": "PairingInfo",
      "type": "event",
      "signature": "0xc4f678ebfd7e29fd2b410c08e9adcef6a55d52ee8c9b379f90cb334d18438668"
    },
    {
      "constant": false,
      "inputs": [
        {
          "name": "maxTime",
          "type": "uint64"
        },
        {
          "name": "maxTarget",
          "type": "uint16"
        },
        {
          "name": "minPrice",
          "type": "uint64"
        }
      ],
      "name": "startProviding",
      "outputs": [
        {
          "name": "",
          "type": "bytes1"
        }
      ],
      "payable": false,
      "stateMutability": "nonpayable",
      "type": "function",
      "signature": "0x2ddfdbcc"
    },
    {
      "constant": false,
      "inputs": [
        {
          "name": "provID",
          "type": "uint256"
        }
      ],
      "name": "stopProviding",
      "outputs": [
        {
          "name": "",
          "type": "bool"
        }
      ],
      "payable": false,
      "stateMutability": "nonpayable",
      "type": "function",
      "signature": "0x15f14e89"
    },
    {
      "constant": false,
      "inputs": [
        {
          "name": "maxTime",
          "type": "uint64"
        },
        {
          "name": "maxTarget",
          "type": "uint16"
        },
        {
          "name": "minPrice",
          "type": "uint64"
        },
        {
          "name": "provID",
          "type": "uint256"
        }
      ],
      "name": "updateProvider",
      "outputs": [
        {
          "name": "",
          "type": "bool"
        }
      ],
      "payable": false,
      "stateMutability": "nonpayable",
      "type": "function",
      "signature": "0xdf4467ab"
    },
    {
      "constant": false,
      "inputs": [
        {
          "name": "dataID",
          "type": "uint64"
        },
        {
          "name": "target",
          "type": "uint16"
        },
        {
          "name": "time",
          "type": "uint64"
        }
      ],
      "name": "requestTask",
      "outputs": [
        {
          "name": "",
          "type": "bytes1"
        }
      ],
      "payable": true,
      "stateMutability": "payable",
      "type": "function",
      "signature": "0xa26ac6de"
    },
    {
      "constant": false,
      "inputs": [
        {
          "name": "reqID",
          "type": "uint256"
        }
      ],
      "name": "cancelTask",
      "outputs": [
        {
          "name": "",
          "type": "bool"
        }
      ],
      "payable": false,
      "stateMutability": "nonpayable",
      "type": "function",
      "signature": "0x7eec20a8"
    },
    {
      "constant": false,
      "inputs": [
        {
          "name": "time",
          "type": "uint64"
        },
        {
          "name": "target",
          "type": "uint16"
        },
        {
          "name": "reqID",
          "type": "uint256"
        }
      ],
      "name": "updateRequest",
      "outputs": [
        {
          "name": "",
          "type": "bool"
        }
      ],
      "payable": true,
      "stateMutability": "payable",
      "type": "function",
      "signature": "0x79a0bb95"
    },
    {
      "constant": false,
      "inputs": [
        {
          "name": "reqID",
          "type": "uint256"
        },
        {
          "name": "resultID",
          "type": "uint64"
        }
      ],
      "name": "completeTask",
      "outputs": [
        {
          "name": "",
          "type": "bool"
        }
      ],
      "payable": false,
      "stateMutability": "nonpayable",
      "type": "function",
      "signature": "0x0e411e13"
    },
    {
      "constant": true,
      "inputs": [],
      "name": "getMyProvID",
      "outputs": [
        {
          "name": "",
          "type": "uint256[]"
        }
      ],
      "payable": false,
      "stateMutability": "view",
      "type": "function",
      "signature": "0x34a7d799"
    },
    {
      "constant": true,
      "inputs": [],
      "name": "getMyReqID",
      "outputs": [
        {
          "name": "",
          "type": "uint256[]"
        }
      ],
      "payable": false,
      "stateMutability": "view",
      "type": "function",
      "signature": "0x269f3558"
    },
    {
      "constant": true,
      "inputs": [
        {
          "name": "addr",
          "type": "address"
        }
      ],
      "name": "getProviderID",
      "outputs": [
        {
          "name": "",
          "type": "uint256[]"
        }
      ],
      "payable": false,
      "stateMutability": "view",
      "type": "function",
      "signature": "0x91bbb902"
    },
    {
      "constant": true,
      "inputs": [
        {
          "name": "addr",
          "type": "address"
        }
      ],
      "name": "getRequestID",
      "outputs": [
        {
          "name": "",
          "type": "uint256[]"
        }
      ],
      "payable": false,
      "stateMutability": "view",
      "type": "function",
      "signature": "0x62e70505"
    },
    {
      "constant": true,
      "inputs": [
        {
          "name": "ID",
          "type": "uint256"
        }
      ],
      "name": "getProvider",
      "outputs": [
        {
          "components": [
            {
              "name": "provID",
              "type": "uint256"
            },
            {
              "name": "blockNumber",
              "type": "uint256"
            },
            {
              "name": "addr",
              "type": "address"
            },
            {
              "name": "maxTime",
              "type": "uint64"
            },
            {
              "name": "maxTarget",
              "type": "uint16"
            },
            {
              "name": "minPrice",
              "type": "uint256"
            },
            {
              "name": "available",
              "type": "bool"
            }
          ],
          "name": "",
          "type": "tuple"
        }
      ],
      "payable": false,
      "stateMutability": "view",
      "type": "function",
      "signature": "0x5c42d079"
    },
    {
      "constant": true,
      "inputs": [
        {
          "name": "ID",
          "type": "uint256"
        }
      ],
      "name": "getRequest",
      "outputs": [
        {
          "components": [
            {
              "name": "reqID",
              "type": "uint256"
            },
            {
              "name": "blockNumber",
              "type": "uint256"
            },
            {
              "name": "addr",
              "type": "address"
            },
            {
              "name": "provider",
              "type": "address"
            },
            {
              "name": "time",
              "type": "uint64"
            },
            {
              "name": "target",
              "type": "uint16"
            },
            {
              "name": "price",
              "type": "uint256"
            },
            {
              "name": "dataID",
              "type": "uint64"
            },
            {
              "name": "resultID",
              "type": "uint64"
            },
            {
              "name": "numValidations",
              "type": "uint64"
            },
            {
              "name": "validations",
              "type": "bool[]"
            },
            {
              "name": "isValid",
              "type": "bool"
            },
            {
              "name": "status",
              "type": "bytes1"
            }
          ],
          "name": "",
          "type": "tuple"
        }
      ],
      "payable": false,
      "stateMutability": "view",
      "type": "function",
      "signature": "0xc58343ef"
    },
    {
      "constant": true,
      "inputs": [],
      "name": "getProviderCount",
      "outputs": [
        {
          "name": "",
          "type": "uint256"
        }
      ],
      "payable": false,
      "stateMutability": "view",
      "type": "function",
      "signature": "0x46ce4175"
    },
    {
      "constant": true,
      "inputs": [],
      "name": "getRequestCount",
      "outputs": [
        {
          "name": "",
          "type": "uint256"
        }
      ],
      "payable": false,
      "stateMutability": "view",
      "type": "function",
      "signature": "0x3fad1834"
    },
    {
      "constant": true,
      "inputs": [],
      "name": "getProviderPool",
      "outputs": [
        {
          "name": "",
          "type": "uint256[]"
        }
      ],
      "payable": false,
      "stateMutability": "view",
      "type": "function",
      "signature": "0x9e723b97"
    },
    {
      "constant": true,
      "inputs": [],
      "name": "getRequestPool",
      "outputs": [
        {
          "name": "",
          "type": "uint256[]"
        }
      ],
      "payable": false,
      "stateMutability": "view",
      "type": "function",
      "signature": "0xe1a9daef"
    },
    {
      "constant": true,
      "inputs": [],
      "name": "getProviderPoolSize",
      "outputs": [
        {
          "name": "",
          "type": "uint256"
        }
      ],
      "payable": false,
      "stateMutability": "view",
      "type": "function",
      "signature": "0x353b2a1f"
    },
    {
      "constant": true,
      "inputs": [],
      "name": "getRequestPoolSize",
      "outputs": [
        {
          "name": "",
          "type": "uint256"
        }
      ],
      "payable": false,
      "stateMutability": "view",
      "type": "function",
      "signature": "0x5c4c8c4e"
    },
    {
      "constant": true,
      "inputs": [
        {
          "name": "IDList",
          "type": "uint256[]"
        }
      ],
      "name": "listRequests",
      "outputs": [
        {
          "components": [
            {
              "name": "reqID",
              "type": "uint256"
            },
            {
              "name": "blockNumber",
              "type": "uint256"
            },
            {
              "name": "addr",
              "type": "address"
            },
            {
              "name": "provider",
              "type": "address"
            },
            {
              "name": "time",
              "type": "uint64"
            },
            {
              "name": "target",
              "type": "uint16"
            },
            {
              "name": "price",
              "type": "uint256"
            },
            {
              "name": "dataID",
              "type": "uint64"
            },
            {
              "name": "resultID",
              "type": "uint64"
            },
            {
              "name": "numValidations",
              "type": "uint64"
            },
            {
              "name": "validations",
              "type": "bool[]"
            },
            {
              "name": "isValid",
              "type": "bool"
            },
            {
              "name": "status",
              "type": "bytes1"
            }
          ],
          "name": "",
          "type": "tuple[50]"
        }
      ],
      "payable": false,
      "stateMutability": "view",
      "type": "function",
      "signature": "0x0c9a90a3"
    },
    {
      "constant": true,
      "inputs": [],
      "name": "listAllRequests",
      "outputs": [
        {
          "components": [
            {
              "name": "reqID",
              "type": "uint256"
            },
            {
              "name": "blockNumber",
              "type": "uint256"
            },
            {
              "name": "addr",
              "type": "address"
            },
            {
              "name": "provider",
              "type": "address"
            },
            {
              "name": "time",
              "type": "uint64"
            },
            {
              "name": "target",
              "type": "uint16"
            },
            {
              "name": "price",
              "type": "uint256"
            },
            {
              "name": "dataID",
              "type": "uint64"
            },
            {
              "name": "resultID",
              "type": "uint64"
            },
            {
              "name": "numValidations",
              "type": "uint64"
            },
            {
              "name": "validations",
              "type": "bool[]"
            },
            {
              "name": "isValid",
              "type": "bool"
            },
            {
              "name": "status",
              "type": "bytes1"
            }
          ],
          "name": "",
          "type": "tuple[50]"
        }
      ],
      "payable": false,
      "stateMutability": "view",
      "type": "function",
      "signature": "0xc02ac059"
    },
    {
      "constant": true,
      "inputs": [],
      "name": "listAllProviders",
      "outputs": [
        {
          "components": [
            {
              "name": "provID",
              "type": "uint256"
            },
            {
              "name": "blockNumber",
              "type": "uint256"
            },
            {
              "name": "addr",
              "type": "address"
            },
            {
              "name": "maxTime",
              "type": "uint64"
            },
            {
              "name": "maxTarget",
              "type": "uint16"
            },
            {
              "name": "minPrice",
              "type": "uint256"
            },
            {
              "name": "available",
              "type": "bool"
            }
          ],
          "name": "",
          "type": "tuple[50]"
        }
      ],
      "payable": false,
      "stateMutability": "view",
      "type": "function",
      "signature": "0x6302d071"
    },
    {
      "constant": true,
      "inputs": [],
      "name": "listProviders",
      "outputs": [
        {
          "components": [
            {
              "name": "provID",
              "type": "uint256"
            },
            {
              "name": "blockNumber",
              "type": "uint256"
            },
            {
              "name": "addr",
              "type": "address"
            },
            {
              "name": "maxTime",
              "type": "uint64"
            },
            {
              "name": "maxTarget",
              "type": "uint16"
            },
            {
              "name": "minPrice",
              "type": "uint256"
            },
            {
              "name": "available",
              "type": "bool"
            }
          ],
          "name": "",
          "type": "tuple[50]"
        }
      ],
      "payable": false,
      "stateMutability": "view",
      "type": "function",
      "signature": "0x2bd395a0"
    },
    {
      "constant": true,
      "inputs": [
        {
          "name": "IDList",
          "type": "uint256[]"
        }
      ],
      "name": "listProviders",
      "outputs": [
        {
          "components": [
            {
              "name": "provID",
              "type": "uint256"
            },
            {
              "name": "blockNumber",
              "type": "uint256"
            },
            {
              "name": "addr",
              "type": "address"
            },
            {
              "name": "maxTime",
              "type": "uint64"
            },
            {
              "name": "maxTarget",
              "type": "uint16"
            },
            {
              "name": "minPrice",
              "type": "uint256"
            },
            {
              "name": "available",
              "type": "bool"
            }
          ],
          "name": "",
          "type": "tuple[50]"
        }
      ],
      "payable": false,
      "stateMutability": "view",
      "type": "function",
      "signature": "0xcac1125b"
    }
  ],
  "bytecode": "0x608060405260016000806101000a81548160ff0219169083151502179055503480156200002b57600080fd5b50600860006200003c919062000082565b600960006200004c919062000082565b600a60006200005c919062000082565b600b60006200006c919062000082565b60006006819055506000600781905550620000cd565b5080546000825590600052602060002090810190620000a29190620000a5565b50565b620000ca91905b80821115620000c6576000816000905550600101620000ac565b5090565b90565b613ffd80620000dd6000396000f3fe608060405260043610610175576000357c0100000000000000000000000000000000000000000000000000000000900463ffffffff16806302e9d43b1461017a5780630c9a90a3146101c25780630e411e13146101ff57806315f14e891461023c578063269f3558146102795780632bd395a0146102a45780632ddfdbcc146102cf57806334a7d7991461030c578063353b2a1f14610337578063390bfd3c146103625780633fad1834146103a557806346ce4175146103d0578063599b6808146103fb5780635c42d079146104385780635c4c8c4e1461047557806362e70505146104a05780636302d071146104dd57806379a0bb95146105085780637eec20a81461053857806391bbb902146105755780639e723b97146105b2578063a26ac6de146105dd578063c02ac0591461060d578063c58343ef14610638578063cac1125b14610675578063d2d5d74f146106b2578063d3cca02e146106ef578063df4467ab1461072c578063e1a9daef14610769575b600080fd5b34801561018657600080fd5b506101a1600480360361019c9190810190613270565b610794565b6040516101b99c9b9a99989796959493929190613ce3565b60405180910390f35b3480156101ce57600080fd5b506101e960048036036101e4919081019061322f565b6108cb565b6040516101f69190613a1b565b60405180910390f35b34801561020b57600080fd5b5061022660048036036102219190810190613299565b610955565b6040516102339190613a5f565b60405180910390f35b34801561024857600080fd5b50610263600480360361025e9190810190613270565b610b11565b6040516102709190613a5f565b60405180910390f35b34801561028557600080fd5b5061028e610cfa565b60405161029b9190613a3d565b60405180910390f35b3480156102b057600080fd5b506102b9610d8f565b6040516102c691906139ff565b60405180910390f35b3480156102db57600080fd5b506102f660048036036102f19190810190613324565b610e01565b6040516103039190613a7a565b60405180910390f35b34801561031857600080fd5b50610321611076565b60405161032e9190613a3d565b60405180910390f35b34801561034357600080fd5b5061034c61110b565b6040516103599190613ad2565b60405180910390f35b34801561036e57600080fd5b5061038960048036036103849190810190613270565b611118565b60405161039c9796959493929190613d9d565b60405180910390f35b3480156103b157600080fd5b506103ba6111a9565b6040516103c79190613ad2565b60405180910390f35b3480156103dc57600080fd5b506103e56111b3565b6040516103f29190613ad2565b60405180910390f35b34801561040757600080fd5b50610422600480360361041d9190810190613270565b6111bd565b60405161042f9190613ad2565b60405180910390f35b34801561044457600080fd5b5061045f600480360361045a9190810190613270565b6111d5565b60405161046c9190613a95565b60405180910390f35b34801561048157600080fd5b5061048a6112e4565b6040516104979190613ad2565b60405180910390f35b3480156104ac57600080fd5b506104c760048036036104c291908101906131ca565b6112f1565b6040516104d49190613a3d565b60405180910390f35b3480156104e957600080fd5b506104f2611388565b6040516104ff91906139ff565b60405180910390f35b610522600480360361051d91908101906132d5565b6113fa565b60405161052f9190613a5f565b60405180910390f35b34801561054457600080fd5b5061055f600480360361055a9190810190613270565b611622565b60405161056c9190613a5f565b60405180910390f35b34801561058157600080fd5b5061059c600480360361059791908101906131ca565b611901565b6040516105a99190613a3d565b60405180910390f35b3480156105be57600080fd5b506105c7611998565b6040516105d49190613a3d565b60405180910390f35b6105f760048036036105f29190810190613324565b6119f0565b6040516106049190613a7a565b60405180910390f35b34801561061957600080fd5b50610622611d73565b60405161062f9190613a1b565b60405180910390f35b34801561064457600080fd5b5061065f600480360361065a9190810190613270565b611de5565b60405161066c9190613ab0565b60405180910390f35b34801561068157600080fd5b5061069c6004803603610697919081019061322f565b6120d8565b6040516106a991906139ff565b60405180910390f35b3480156106be57600080fd5b506106d960048036036106d491908101906131f3565b612162565b6040516106e69190613ad2565b60405180910390f35b3480156106fb57600080fd5b50610716600480360361071191908101906131f3565b612192565b6040516107239190613ad2565b60405180910390f35b34801561073857600080fd5b50610753600480360361074e9190810190613373565b6121c2565b6040516107609190613a5f565b60405180910390f35b34801561077557600080fd5b5061077e61239b565b60405161078b9190613a3d565b60405180910390f35b60026020528060005260406000206000915090508060000154908060010154908060020160009054906101000a900473ffffffffffffffffffffffffffffffffffffffff16908060030160009054906101000a900473ffffffffffffffffffffffffffffffffffffffff16908060030160149054906101000a900467ffffffffffffffff169080600301601c9054906101000a900461ffff16908060040154908060050160009054906101000a900467ffffffffffffffff16908060050160089054906101000a900467ffffffffffffffff16908060050160109054906101000a900467ffffffffffffffff16908060070160009054906101000a900460ff16908060070160019054906101000a90047f01000000000000000000000000000000000000000000000000000000000000000290508c565b6108d3612d8c565b6108db612d8c565b60008090505b83518167ffffffffffffffff16101561094b5761091e848267ffffffffffffffff1681518110151561090f57fe5b90602001906020020151611de5565b828267ffffffffffffffff1660328110151561093657fe5b602002018190525080806001019150506108e1565b5080915050919050565b60006002600084815260200190815260200160002060030160009054906101000a900473ffffffffffffffffffffffffffffffffffffffff1673ffffffffffffffffffffffffffffffffffffffff163373ffffffffffffffffffffffffffffffffffffffff161415610b06577f32000000000000000000000000000000000000000000000000000000000000006002600085815260200190815260200160002060070160016101000a81548160ff02191690837f010000000000000000000000000000000000000000000000000000000000000090040217905550816002600085815260200190815260200160002060050160086101000a81548167ffffffffffffffff021916908367ffffffffffffffff1602179055506000809050610a7d600a856123f3565b9050801515610a90576000915050610b0b565b600b8490806001815401808255809150509060018203906000526020600020016000909192909190915055507f60a37d5c5d09d4817f0ecdd6f184f930e7d87a7f2daed3edcf4b1f0f978ff2228433604051610aed929190613aed565b60405180910390a1610afe846124dc565b915050610b0b565b600090505b92915050565b60008060009050600115156001600085815260200190815260200160002060040160009054906101000a900460ff161515148015610bb057503373ffffffffffffffffffffffffffffffffffffffff166001600085815260200190815260200160002060020160009054906101000a900473ffffffffffffffffffffffffffffffffffffffff1673ffffffffffffffffffffffffffffffffffffffff16145b15610caf576001600084815260200190815260200160002060008082016000905560018201600090556002820160006101000a81549073ffffffffffffffffffffffffffffffffffffffff02191690556002820160146101000a81549067ffffffffffffffff021916905560028201601c6101000a81549061ffff021916905560038201600090556004820160006101000a81549060ff02191690555050610c96600360003373ffffffffffffffffffffffffffffffffffffffff1673ffffffffffffffffffffffffffffffffffffffff168152602001908152602001600020846123f3565b9050610ca36008846123f3565b8015610cac5750805b90505b8015610cf1577f172579419e59fdf753121df810b39ff1773b0cfc23d978973a9b82deab243a3760065433604051610ce8929190613bea565b60405180910390a15b80915050919050565b6060600460003373ffffffffffffffffffffffffffffffffffffffff1673ffffffffffffffffffffffffffffffffffffffff168152602001908152602001600020805480602002602001604051908101604052809291908181526020018280548015610d8557602002820191906000526020600020905b815481526020019060010190808311610d71575b5050505050905090565b610d97612dbb565b610d9f612dbb565b60008090505b6006548167ffffffffffffffff161015610df957610dcc8167ffffffffffffffff166111d5565b828267ffffffffffffffff16603281101515610de457fe5b60200201819052508080600101915050610da5565b508091505090565b60006006546001600060065481526020019081526020016000206000018190555043600160006006548152602001908152602001600020600101819055503360016000600654815260200190815260200160002060020160006101000a81548173ffffffffffffffffffffffffffffffffffffffff021916908373ffffffffffffffffffffffffffffffffffffffff1602179055508360016000600654815260200190815260200160002060020160146101000a81548167ffffffffffffffff021916908367ffffffffffffffff16021790555082600160006006548152602001908152602001600020600201601c6101000a81548161ffff021916908361ffff1602179055508167ffffffffffffffff1660016000600654815260200190815260200160002060030181905550600360003373ffffffffffffffffffffffffffffffffffffffff1673ffffffffffffffffffffffffffffffffffffffff1681526020019081526020016000206006549080600181540180825580915050906001820390600052602060002001600090919290919091505550600860065490806001815401808255809150509060018203906000526020600020016000909192909190915055506001806000600654815260200190815260200160002060040160006101000a81548160ff0219169083151502179055507f172579419e59fdf753121df810b39ff1773b0cfc23d978973a9b82deab243a376006543360405161102b929190613bb5565b60405180910390a16006600081548092919060010191905055506000809054906101000a900460ff161561106e57611067600160065403612741565b905061106f565b5b9392505050565b6060600360003373ffffffffffffffffffffffffffffffffffffffff1673ffffffffffffffffffffffffffffffffffffffff16815260200190815260200160002080548060200260200160405190810160405280929190818152602001828054801561110157602002820191906000526020600020905b8154815260200190600101908083116110ed575b5050505050905090565b6000600880549050905090565b60016020528060005260406000206000915090508060000154908060010154908060020160009054906101000a900473ffffffffffffffffffffffffffffffffffffffff16908060020160149054906101000a900467ffffffffffffffff169080600201601c9054906101000a900461ffff16908060030154908060040160009054906101000a900460ff16905087565b6000600754905090565b6000600654905090565b60056020528060005260406000206000915090505481565b6111dd612dea565b6001600083815260200190815260200160002060e0604051908101604052908160008201548152602001600182015481526020016002820160009054906101000a900473ffffffffffffffffffffffffffffffffffffffff1673ffffffffffffffffffffffffffffffffffffffff1673ffffffffffffffffffffffffffffffffffffffff1681526020016002820160149054906101000a900467ffffffffffffffff1667ffffffffffffffff1667ffffffffffffffff16815260200160028201601c9054906101000a900461ffff1661ffff1661ffff168152602001600382015481526020016004820160009054906101000a900460ff1615151515815250509050919050565b6000600980549050905090565b6060600460008373ffffffffffffffffffffffffffffffffffffffff1673ffffffffffffffffffffffffffffffffffffffff16815260200190815260200160002080548060200260200160405190810160405280929190818152602001828054801561137c57602002820191906000526020600020905b815481526020019060010190808311611368575b50505050509050919050565b611390612dbb565b611398612dbb565b60008090505b6006548167ffffffffffffffff1610156113f2576113c58167ffffffffffffffff166111d5565b828267ffffffffffffffff166032811015156113dd57fe5b6020020181905250808060010191505061139e565b508091505090565b600080600090507f30000000000000000000000000000000000000000000000000000000000000006002600085815260200190815260200160002060070160019054906101000a90047f0100000000000000000000000000000000000000000000000000000000000000027effffffffffffffffffffffffffffffffffffffffffffffffffffffffffffff19161480156114f557503373ffffffffffffffffffffffffffffffffffffffff166002600085815260200190815260200160002060020160009054906101000a900473ffffffffffffffffffffffffffffffffffffffff1673ffffffffffffffffffffffffffffffffffffffff16145b1561161957436002600085815260200190815260200160002060010181905550846002600085815260200190815260200160002060030160146101000a81548167ffffffffffffffff021916908367ffffffffffffffff1602179055508360026000858152602001908152602001600020600301601c6101000a81548161ffff021916908361ffff1602179055503460026000858152602001908152602001600020600401819055506115a96009846123f3565b905060098390806001815401808255809150509060018203906000526020600020016000909192909190915055507f172579419e59fdf753121df810b39ff1773b0cfc23d978973a9b82deab243a378333604051611608929190613b4b565b60405180910390a18091505061161b565b505b9392505050565b600080600090507f30000000000000000000000000000000000000000000000000000000000000006002600085815260200190815260200160002060070160019054906101000a90047f0100000000000000000000000000000000000000000000000000000000000000027effffffffffffffffffffffffffffffffffffffffffffffffffffffffffffff191614801561171d57503373ffffffffffffffffffffffffffffffffffffffff166002600085815260200190815260200160002060020160009054906101000a900473ffffffffffffffffffffffffffffffffffffffff1673ffffffffffffffffffffffffffffffffffffffff16145b156118b8576002600084815260200190815260200160002060008082016000905560018201600090556002820160006101000a81549073ffffffffffffffffffffffffffffffffffffffff02191690556003820160006101000a81549073ffffffffffffffffffffffffffffffffffffffff02191690556003820160146101000a81549067ffffffffffffffff021916905560038201601c6101000a81549061ffff021916905560048201600090556005820160006101000a81549067ffffffffffffffff02191690556005820160086101000a81549067ffffffffffffffff02191690556005820160106101000a81549067ffffffffffffffff021916905560068201600061182d9190612e4e565b6007820160006101000a81549060ff02191690556007820160016101000a81549060ff0219169055505061189f600460003373ffffffffffffffffffffffffffffffffffffffff1673ffffffffffffffffffffffffffffffffffffffff168152602001908152602001600020846123f3565b90506118ac6009846123f3565b80156118b55750805b90505b80156118f8577f172579419e59fdf753121df810b39ff1773b0cfc23d978973a9b82deab243a3783336040516118ef929190613b80565b60405180910390a15b80915050919050565b6060600360008373ffffffffffffffffffffffffffffffffffffffff1673ffffffffffffffffffffffffffffffffffffffff16815260200190815260200160002080548060200260200160405190810160405280929190818152602001828054801561198c57602002820191906000526020600020905b815481526020019060010190808311611978575b50505050509050919050565b606060088054806020026020016040519081016040528092919081815260200182805480156119e657602002820191906000526020600020905b8154815260200190600101908083116119d2575b5050505050905090565b60006007546002600060075481526020019081526020016000206000018190555043600260006007548152602001908152602001600020600101819055503360026000600754815260200190815260200160002060020160006101000a81548173ffffffffffffffffffffffffffffffffffffffff021916908373ffffffffffffffffffffffffffffffffffffffff160217905550600060026000600754815260200190815260200160002060030160006101000a81548173ffffffffffffffffffffffffffffffffffffffff021916908373ffffffffffffffffffffffffffffffffffffffff1602179055508160026000600754815260200190815260200160002060030160146101000a81548167ffffffffffffffff021916908367ffffffffffffffff16021790555082600260006007548152602001908152602001600020600301601c6101000a81548161ffff021916908361ffff16021790555034600260006007548152602001908152602001600020600401819055508360026000600754815260200190815260200160002060050160006101000a81548167ffffffffffffffff021916908367ffffffffffffffff160217905550600160026000600754815260200190815260200160002060050160106101000a81548167ffffffffffffffff021916908367ffffffffffffffff160217905550600460003373ffffffffffffffffffffffffffffffffffffffff1673ffffffffffffffffffffffffffffffffffffffff1681526020019081526020016000206007549080600181540180825580915050906001820390600052602060002001600090919290919091505550600960075490806001815401808255809150509060018203906000526020600020016000909192909190915055507f300000000000000000000000000000000000000000000000000000000000000060026000600754815260200190815260200160002060070160016101000a81548160ff02191690837f0100000000000000000000000000000000000000000000000000000000000000900402179055507f172579419e59fdf753121df810b39ff1773b0cfc23d978973a9b82deab243a3760075433604051611d28929190613c1f565b60405180910390a16007600081548092919060010191905055506000809054906101000a900460ff1615611d6b57611d6460016007540361290a565b9050611d6c565b5b9392505050565b611d7b612d8c565b611d83612d8c565b60008090505b6007548167ffffffffffffffff161015611ddd57611db08167ffffffffffffffff16611de5565b828267ffffffffffffffff16603281101515611dc857fe5b60200201819052508080600101915050611d89565b508091505090565b611ded612e76565b600260008381526020019081526020016000206101a0604051908101604052908160008201548152602001600182015481526020016002820160009054906101000a900473ffffffffffffffffffffffffffffffffffffffff1673ffffffffffffffffffffffffffffffffffffffff1673ffffffffffffffffffffffffffffffffffffffff1681526020016003820160009054906101000a900473ffffffffffffffffffffffffffffffffffffffff1673ffffffffffffffffffffffffffffffffffffffff1673ffffffffffffffffffffffffffffffffffffffff1681526020016003820160149054906101000a900467ffffffffffffffff1667ffffffffffffffff1667ffffffffffffffff16815260200160038201601c9054906101000a900461ffff1661ffff1661ffff168152602001600482015481526020016005820160009054906101000a900467ffffffffffffffff1667ffffffffffffffff1667ffffffffffffffff1681526020016005820160089054906101000a900467ffffffffffffffff1667ffffffffffffffff1667ffffffffffffffff1681526020016005820160109054906101000a900467ffffffffffffffff1667ffffffffffffffff1667ffffffffffffffff1681526020016006820180548060200260200160405190810160405280929190818152602001828054801561203357602002820191906000526020600020906000905b82829054906101000a900460ff16151581526020019060010190602082600001049283019260010382029150808411611ffd5790505b505050505081526020016007820160009054906101000a900460ff161515151581526020016007820160019054906101000a90047f0100000000000000000000000000000000000000000000000000000000000000027effffffffffffffffffffffffffffffffffffffffffffffffffffffffffffff19167effffffffffffffffffffffffffffffffffffffffffffffffffffffffffffff1916815250509050919050565b6120e0612dbb565b6120e8612dbb565b60008090505b83518167ffffffffffffffff1610156121585761212b848267ffffffffffffffff1681518110151561211c57fe5b906020019060200201516111d5565b828267ffffffffffffffff1660328110151561214357fe5b602002018190525080806001019150506120ee565b5080915050919050565b60036020528160005260406000208181548110151561217d57fe5b90600052602060002001600091509150505481565b6004602052816000526040600020818154811015156121ad57fe5b90600052602060002001600091509150505481565b60008060009050600115156001600085815260200190815260200160002060040160009054906101000a900460ff16151514801561226157503373ffffffffffffffffffffffffffffffffffffffff166001600085815260200190815260200160002060020160009054906101000a900473ffffffffffffffffffffffffffffffffffffffff1673ffffffffffffffffffffffffffffffffffffffff16145b1561239157436001600085815260200190815260200160002060010181905550856001600085815260200190815260200160002060020160146101000a81548167ffffffffffffffff021916908367ffffffffffffffff1602179055508460016000858152602001908152602001600020600201601c6101000a81548161ffff021916908361ffff1602179055508367ffffffffffffffff16600160008581526020019081526020016000206003018190555061231f6008846123f3565b905060088390806001815401808255809150509060018203906000526020600020016000909192909190915055507f172579419e59fdf753121df810b39ff1773b0cfc23d978973a9b82deab243a3760065433604051612380929190613b16565b60405180910390a180915050612393565b505b949350505050565b606060098054806020026020016040519081016040528092919081815260200182805480156123e957602002820191906000526020600020905b8154815260200190600101908083116123d5575b5050505050905090565b600080600090505b83805490508167ffffffffffffffff1610156124d05782848267ffffffffffffffff1681548110151561242a57fe5b906000526020600020015414156124c35783600185805490500381548110151561245057fe5b9060005260206000200154848267ffffffffffffffff1681548110151561247357fe5b906000526020600020018190555083600185805490500381548110151561249657fe5b9060005260206000200160009055838054809190600190036124b89190612f5b565b5060019150506124d6565b80806001019150506123fb565b50600090505b92915050565b6000806002600084815260200190815260200160002060050160109054906101000a900467ffffffffffffffff169050600080905060008090505b6008805490508167ffffffffffffffff16101561270157600060088267ffffffffffffffff1681548110151561254957fe5b906000526020600020015490508367ffffffffffffffff168367ffffffffffffffff1610156126e6576002600087815260200190815260200160002060030160009054906101000a900473ffffffffffffffffffffffffffffffffffffffff1673ffffffffffffffffffffffffffffffffffffffff166001600083815260200190815260200160002060020160009054906101000a900473ffffffffffffffffffffffffffffffffffffffff1673ffffffffffffffffffffffffffffffffffffffff161415156126e1577fd92b3644be79c3a217633fd06de3db2935f0d8b41bd13ec4112727ec9451efc786826001600085815260200190815260200160002060020160009054906101000a900473ffffffffffffffffffffffffffffffffffffffff1660405161267c93929190613cac565b60405180910390a1828060010193505060006001600083815260200190815260200160002060040160006101000a81548160ff02191690831515021790555060006126c86008836123f3565b90508015156126df5760009550505050505061273c565b505b6126f3565b600194505050505061273c565b508080600101915050612517565b507f7ac9ad79ee3efb861e4bed1fb754239e30da48a583570606f05f892e3ce5857b846040516127319190613ad2565b60405180910390a150505b919050565b6000806009805490501415612778577f32000000000000000000000000000000000000000000000000000000000000009050612905565b60008090505b6009805490508167ffffffffffffffff1610156128e057600060098267ffffffffffffffff168154811015156127b057fe5b906000526020600020015490506001600085815260200190815260200160002060020160149054906101000a900467ffffffffffffffff1667ffffffffffffffff166002600083815260200190815260200160002060030160149054906101000a900467ffffffffffffffff1667ffffffffffffffff16108015612883575060016000858152602001908152602001600020600201601c9054906101000a900461ffff1661ffff1660026000838152602001908152602001600020600301601c9054906101000a900461ffff1661ffff16105b80156128ba575060016000858152602001908152602001600020600301546002600083815260200190815260200160002060040154115b156128d2576128c98185612ad3565b92505050612905565b50808060010191505061277e565b507f310000000000000000000000000000000000000000000000000000000000000090505b919050565b6000806008805490501415612941577f32000000000000000000000000000000000000000000000000000000000000009050612ace565b60008090505b6008805490508167ffffffffffffffff161015612aa957600060088267ffffffffffffffff1681548110151561297957fe5b906000526020600020015490506001600082815260200190815260200160002060020160149054906101000a900467ffffffffffffffff1667ffffffffffffffff166002600086815260200190815260200160002060030160149054906101000a900467ffffffffffffffff1667ffffffffffffffff16108015612a4c575060016000828152602001908152602001600020600201601c9054906101000a900461ffff1661ffff1660026000868152602001908152602001600020600301601c9054906101000a900461ffff1661ffff16105b8015612a83575060016000828152602001908152602001600020600301546002600086815260200190815260200160002060040154115b15612a9b57612a928482612ad3565b92505050612ace565b508080600101915050612947565b507f310000000000000000000000000000000000000000000000000000000000000090505b919050565b6000806001600084815260200190815260200160002060040160006101000a81548160ff0219169083151502179055506001600083815260200190815260200160002060020160009054906101000a900473ffffffffffffffffffffffffffffffffffffffff166002600085815260200190815260200160002060030160006101000a81548173ffffffffffffffffffffffffffffffffffffffff021916908373ffffffffffffffffffffffffffffffffffffffff1602179055507f31000000000000000000000000000000000000000000000000000000000000006002600085815260200190815260200160002060070160016101000a81548160ff02191690837f0100000000000000000000000000000000000000000000000000000000000000900402179055506000809050612c0d6009856123f3565b9050612c1a6008846123f3565b8015612c235750805b9050801515612c55577f3300000000000000000000000000000000000000000000000000000000000000915050612d86565b600a849080600181540180825580915050906001820390600052602060002001600090919290919091505550600260008581526020019081526020016000206004015460056000868152602001908152602001600020600082825401925050819055507fc4f678ebfd7e29fd2b410c08e9adcef6a55d52ee8c9b379f90cb334d18438668846002600087815260200190815260200160002060020160009054906101000a900473ffffffffffffffffffffffffffffffffffffffff16856001600088815260200190815260200160002060020160009054906101000a900473ffffffffffffffffffffffffffffffffffffffff16604051612d599493929190613c54565b60405180910390a17f30000000000000000000000000000000000000000000000000000000000000009150505b92915050565b615140604051908101604052806032905b612da5612f87565b815260200190600190039081612d9d5790505090565b612bc0604051908101604052806032905b612dd461306c565b815260200190600190039081612dcc5790505090565b60e0604051908101604052806000815260200160008152602001600073ffffffffffffffffffffffffffffffffffffffff168152602001600067ffffffffffffffff168152602001600061ffff168152602001600081526020016000151581525090565b50805460008255601f016020900490600052602060002090810190612e7391906130d0565b50565b6101a0604051908101604052806000815260200160008152602001600073ffffffffffffffffffffffffffffffffffffffff168152602001600073ffffffffffffffffffffffffffffffffffffffff168152602001600067ffffffffffffffff168152602001600061ffff16815260200160008152602001600067ffffffffffffffff168152602001600067ffffffffffffffff168152602001600067ffffffffffffffff1681526020016060815260200160001515815260200160007effffffffffffffffffffffffffffffffffffffffffffffffffffffffffffff191681525090565b815481835581811115612f8257818360005260206000209182019101612f8191906130d0565b5b505050565b6101a0604051908101604052806000815260200160008152602001600073ffffffffffffffffffffffffffffffffffffffff168152602001600073ffffffffffffffffffffffffffffffffffffffff168152602001600067ffffffffffffffff168152602001600061ffff16815260200160008152602001600067ffffffffffffffff168152602001600067ffffffffffffffff168152602001600067ffffffffffffffff1681526020016060815260200160001515815260200160007effffffffffffffffffffffffffffffffffffffffffffffffffffffffffffff191681525090565b60e0604051908101604052806000815260200160008152602001600073ffffffffffffffffffffffffffffffffffffffff168152602001600067ffffffffffffffff168152602001600061ffff168152602001600081526020016000151581525090565b6130f291905b808211156130ee5760008160009055506001016130d6565b5090565b90565b60006131018235613f85565b905092915050565b600082601f830112151561311c57600080fd5b813561312f61312a82613e39565b613e0c565b9150818183526020840193506020810190508385602084028201111561315457600080fd5b60005b83811015613184578161316a88826131a2565b845260208401935060208301925050600181019050613157565b5050505092915050565b600061319a8235613f97565b905092915050565b60006131ae8235613fa5565b905092915050565b60006131c28235613faf565b905092915050565b6000602082840312156131dc57600080fd5b60006131ea848285016130f5565b91505092915050565b6000806040838503121561320657600080fd5b6000613214858286016130f5565b9250506020613225858286016131a2565b9150509250929050565b60006020828403121561324157600080fd5b600082013567ffffffffffffffff81111561325b57600080fd5b61326784828501613109565b91505092915050565b60006020828403121561328257600080fd5b6000613290848285016131a2565b91505092915050565b600080604083850312156132ac57600080fd5b60006132ba858286016131a2565b92505060206132cb858286016131b6565b9150509250929050565b6000806000606084860312156132ea57600080fd5b60006132f8868287016131b6565b93505060206133098682870161318e565b925050604061331a868287016131a2565b9150509250925092565b60008060006060848603121561333957600080fd5b6000613347868287016131b6565b93505060206133588682870161318e565b9250506040613369868287016131b6565b9150509250925092565b6000806000806080858703121561338957600080fd5b6000613397878288016131b6565b94505060206133a88782880161318e565b93505060406133b9878288016131b6565b92505060606133ca878288016131a2565b91505092959194509250565b6133df81613eef565b82525050565b60006133f082613e8f565b80845260208401935061340283613e61565b60005b828110156134345761341886835161354b565b61342182613ebb565b9150602086019550600181019050613405565b50849250505092915050565b61344981613e9a565b61345282613e6e565b60005b8281101561348457613468858351613712565b61347182613ec8565b915060e085019450600181019050613455565b5050505050565b600061349682613ea5565b836020820285016134a685613e78565b60005b848110156134df5783830388526134c18383516138b9565b92506134cc82613ed5565b91506020880197506001810190506134a9565b508196508694505050505092915050565b60006134fb82613eb0565b80845260208401935061350d83613e82565b60005b8281101561353f576135238683516139e1565b61352c82613ee2565b9150602086019550600181019050613510565b50849250505092915050565b61355481613f01565b82525050565b61356381613f0d565b82525050565b6000601c82527f526571756573742061737369676e656420746f2050726f7669646572000000006020830152604082019050919050565b7f50726f7669646572205570646174656400000000000000000000000000000000815250565b7f5265717565737420557064617465640000000000000000000000000000000000815250565b7f526571756573742043616e63656c656400000000000000000000000000000000815250565b7f50726f7669646572204164646564000000000000000000000000000000000000815250565b7f50726f76696465722053746f7070656400000000000000000000000000000000815250565b7f5265717565737420416464656400000000000000000000000000000000000000815250565b60e08201600082015161369a60008501826139e1565b5060208201516136ad60208501826139e1565b5060408201516136c060408501826133d6565b5060608201516136d360608501826139f0565b5060808201516136e660808501826139d2565b5060a08201516136f960a08501826139e1565b5060c082015161370c60c085018261354b565b50505050565b60e08201600082015161372860008501826139e1565b50602082015161373b60208501826139e1565b50604082015161374e60408501826133d6565b50606082015161376160608501826139f0565b50608082015161377460808501826139d2565b5060a082015161378760a08501826139e1565b5060c082015161379a60c085018261354b565b50505050565b60006101a0830160008301516137b960008601826139e1565b5060208301516137cc60208601826139e1565b5060408301516137df60408601826133d6565b5060608301516137f260608601826133d6565b50608083015161380560808601826139f0565b5060a083015161381860a08601826139d2565b5060c083015161382b60c08601826139e1565b5060e083015161383e60e08601826139f0565b506101008301516138536101008601826139f0565b506101208301516138686101208601826139f0565b5061014083015184820361014086015261388282826133e5565b91505061016083015161389961016086018261354b565b506101808301516138ae61018086018261355a565b508091505092915050565b60006101a0830160008301516138d260008601826139e1565b5060208301516138e560208601826139e1565b5060408301516138f860408601826133d6565b50606083015161390b60608601826133d6565b50608083015161391e60808601826139f0565b5060a083015161393160a08601826139d2565b5060c083015161394460c08601826139e1565b5060e083015161395760e08601826139f0565b5061010083015161396c6101008601826139f0565b506101208301516139816101208601826139f0565b5061014083015184820361014086015261399b82826133e5565b9150506101608301516139b261016086018261354b565b506101808301516139c761018086018261355a565b508091505092915050565b6139db81613f39565b82525050565b6139ea81613f67565b82525050565b6139f981613f71565b82525050565b6000612bc082019050613a156000830184613440565b92915050565b60006020820190508181036000830152613a35818461348b565b905092915050565b60006020820190508181036000830152613a5781846134f0565b905092915050565b6000602082019050613a74600083018461354b565b92915050565b6000602082019050613a8f600083018461355a565b92915050565b600060e082019050613aaa6000830184613684565b92915050565b60006020820190508181036000830152613aca81846137a0565b905092915050565b6000602082019050613ae760008301846139e1565b92915050565b6000604082019050613b0260008301856139e1565b613b0f60208301846133d6565b9392505050565b6000606082019050613b2b60008301856139e1565b613b3860208301846133d6565b613b44604083016135a0565b9392505050565b6000606082019050613b6060008301856139e1565b613b6d60208301846133d6565b613b79604083016135c6565b9392505050565b6000606082019050613b9560008301856139e1565b613ba260208301846133d6565b613bae604083016135ec565b9392505050565b6000606082019050613bca60008301856139e1565b613bd760208301846133d6565b613be360408301613612565b9392505050565b6000606082019050613bff60008301856139e1565b613c0c60208301846133d6565b613c1860408301613638565b9392505050565b6000606082019050613c3460008301856139e1565b613c4160208301846133d6565b613c4d6040830161365e565b9392505050565b600060a082019050613c6960008301876139e1565b613c7660208301866133d6565b613c8360408301856139e1565b613c9060608301846133d6565b8181036080830152613ca181613569565b905095945050505050565b6000606082019050613cc160008301866139e1565b613cce60208301856139e1565b613cdb60408301846133d6565b949350505050565b600061018082019050613cf9600083018f6139e1565b613d06602083018e6139e1565b613d13604083018d6133d6565b613d20606083018c6133d6565b613d2d608083018b6139f0565b613d3a60a083018a6139d2565b613d4760c08301896139e1565b613d5460e08301886139f0565b613d626101008301876139f0565b613d706101208301866139f0565b613d7e61014083018561354b565b613d8c61016083018461355a565b9d9c50505050505050505050505050565b600060e082019050613db2600083018a6139e1565b613dbf60208301896139e1565b613dcc60408301886133d6565b613dd960608301876139f0565b613de660808301866139d2565b613df360a08301856139e1565b613e0060c083018461354b565b98975050505050505050565b6000604051905081810181811067ffffffffffffffff82111715613e2f57600080fd5b8060405250919050565b600067ffffffffffffffff821115613e5057600080fd5b602082029050602081019050919050565b6000602082019050919050565b6000819050919050565b6000819050919050565b6000602082019050919050565b600081519050919050565b600060329050919050565b600060329050919050565b600081519050919050565b6000602082019050919050565b6000602082019050919050565b6000602082019050919050565b6000602082019050919050565b6000613efa82613f47565b9050919050565b60008115159050919050565b60007fff0000000000000000000000000000000000000000000000000000000000000082169050919050565b600061ffff82169050919050565b600073ffffffffffffffffffffffffffffffffffffffff82169050919050565b6000819050919050565b600067ffffffffffffffff82169050919050565b6000613f9082613f47565b9050919050565b600061ffff82169050919050565b6000819050919050565b600067ffffffffffffffff8216905091905056fea265627a7a723058204c49223c52aff1b80e0ac70c20e65def32aabb191cf039de1a855963c7fb0af66c6578706572696d656e74616cf50037",
  "source": "//version 0.9.3\n//Author: Taurus, Landry\n//Copyright: tlu4@lsu.edu\n\n//NOTE: non-view functions cannot return values, only possible way is event\n\npragma solidity ^0.5.0;\npragma experimental ABIEncoderV2;   //return self-defined type\n\ncontract TaskContract {\n    //config\n    bool autoAssign = true;            //whether auto assign the task\n    \n    \n    //list\n    mapping (uint256 => Provider) public providerList;  //history\n    mapping (uint256 => Request) public requestList;    //history\n    \n    //mapping address with ID       //editing these mapping cost a lot\n    mapping (address => uint256[])  public providerMap;\n    mapping (address => uint256[])  public requestMap;\n \n    mapping (uint256 => uint256) public balanceList;    //reqID => balance\n    //ID - counter\n    uint256 private providerCount;     //+1 each time\n    uint256 private requestCount;\n    //Pool\n    uint256[] providerPool;     //providers\n    uint256[] pendingPool;      //requests\n    uint256[] providingPool;    //requests\n    uint256[] validatingPool;   //requests\n\n    \n    \n\n    constructor() public {      //sol 5.0 syntax\n        delete providerPool;\n        delete pendingPool;\n        delete providingPool;\n        delete validatingPool;\n        providerCount = 0;\n        requestCount = 0;\n    }\n\n    struct Request {\n        uint256 reqID;                  //requestID is the only identifier for each Request\n        uint256 blockNumber;\n        address payable addr;           //payable is new feature from sol v5.0\n        //uint256 assignedProvider;\n        address payable provider;        \n        //address payable provider;     //addr of worker\n        uint64  time;                   //time\n        uint16  target;                 //target 0-100.00\n        uint256 price;                  //the max amount he can pay\n        uint64  dataID;                 //dataID used to fetch the off-chain data\n        uint64  resultID;               //dataID to fetch the result\n        uint64  numValidations;         //user defined the validation\n        bool[]  validations;            //multisignature from validations\n        bool    isValid;                //the final flag\n        byte    status;                 //0: 'pending', 1:'providing', 2: validating, 3: complete\n    }\n\n    struct Provider {\n        uint256 provID;\n        uint256 blockNumber;\n        address payable addr;       //providers address    \n                                    //TODO: the provider name registration.\n        uint64  maxTime;            //max time\n        uint16  maxTarget;          //max target he need\n        uint256 minPrice;           //lowest price can accept\n        bool    available;          //Used to determine if provider is already doing something\n    }\n    //event\n    //TODO: events optimization: many events have the similar structure, may be combined\n    event ProviderAdded     (uint256 provID, address payable addr);\n    event ProviderStopped   (uint256 provID, address payable addr);\n    event ProviderUpdated   (uint256 provID, address payable addr);\n    event TaskAssigned      (uint256 reqID, address payable reqAddr,\n                            uint256 provID, address payable provAddr);     // next step: call completeTask\n    \n    event RequestAdded      (uint256 reqID, address payable addr);\n    event RequestUpdated    (uint256 reqID, address payable addr);\n    event RequestCanceled   (uint256 reqID, address payable addr);\n    \n    event CompleteTask      (uint256 reqID, address payable addr);\n    event ValidationAssigned(uint256 reqID, uint256 provID, address payable addr);    // next step: validator calls submitValidation\n    event NotEnoughValidation(uint256 reqID);\n    //event TaskCompleted         (address requestor, uint128 reqID);    // done\n    /////////////////////////////////////////////////////////////////////////////////////\n    event SystemInfo        (uint256 ID, address payable addr , bytes20 info);  //NOTE: bytes32 saves up to 32 charactors ONLY\n    event PairingInfo        (uint256 reqID, address payable reqAddr,\n                            uint256 provID, address payable provAddr, bytes info);\n    /////////////////////////////////////////////////////////////////////////////////////\n    // Function called to become a provider. New on List, Map and Pool. \n    // NOTE: cannot use to update. You must stop a previous one and start a new one.\n    // TIPS: gas cost: don't create local copy and write back, modify the storage directly.\n    function startProviding(uint64 maxTime, uint16 maxTarget, uint64 minPrice) public returns (byte) {\n        // register a new provider object in the List and map              \n        providerList[providerCount].provID         = providerCount;\n        providerList[providerCount].blockNumber    = block.number;\n        providerList[providerCount].addr           = msg.sender;             \n        providerList[providerCount].maxTime        = maxTime;       \n        providerList[providerCount].maxTarget      = maxTarget;\n        providerList[providerCount].minPrice       = minPrice;\n        \n        // add to map       //TODO: this cost 70000 gas\n        providerMap[msg.sender].push(providerCount);\n        // put it into the pool\n        providerPool.push(providerCount);\n        providerList[providerCount].available      = true;  //turn on the flag at LAST\n        // ready for the next       \n        //emit ProviderAdded(providerCount, msg.sender);\n        emit SystemInfo(providerCount, msg.sender, 'Provider Added');\n        providerCount++;\n        //try assign and handle return value\n        if(autoAssign) return assignProvider(providerCount-1);\n\n        \n    }\n    // Stop a provider, Must be sent from the provider address or it will be failed.\n    function stopProviding(uint256 provID) public returns (bool) {\n        // If the sender is currently an active provider\n        bool flag = false;\n        if (providerList[provID].available == true                 //can only stop available provider\n                && providerList[provID].addr == msg.sender) {      //you cannot delete other's provider            \n            delete providerList[provID];                           //delete from List\n            flag = ArrayPop(providerMap[msg.sender], provID);      //delete form Map\n            flag = ArrayPop(providerPool, provID) && flag;         //delete from Pool             \n        }\n        if(flag) //{emit ProviderStopped(provID, msg.sender);\n            emit SystemInfo(providerCount, msg.sender, 'Provider Stopped');\n        return flag;\n    }\n    //update a provider, you must know the provID and must sent from right addr\n    function updateProvider(uint64 maxTime, uint16 maxTarget, uint64 minPrice, uint256 provID) public returns (bool) {      \n        bool flag = false;\n        if(providerList[provID].available == true           //can only modify available provider\n        && providerList[provID].addr == msg.sender){        //you cannot modify other's config\n            providerList[provID].blockNumber    = block.number;         \n            providerList[provID].maxTime        = maxTime;       \n            providerList[provID].maxTarget      = maxTarget;\n            providerList[provID].minPrice       = minPrice;\n            //update pool       -- pop then push , because we need to scan pool anyway\n            flag = ArrayPop(providerPool,provID);           // pop first                                      \n            providerPool.push(provID);                      // push in both case anyway\n            //update map -- no need provID not changed.\n            //emit ProviderUpdated(provID, msg.sender);\n            emit SystemInfo(providerCount, msg.sender, 'Provider Updated');\n            return flag;\n        }\n    }\n\n    // Send a request from user to blockchain.\n    // Assumes price is including the cost for verification\n    function requestTask(uint64 dataID, uint16 target, uint64 time) payable public returns (byte) {\n        //register on List\n        requestList[requestCount].reqID         = requestCount;\n        requestList[requestCount].blockNumber   = block.number;  \n        requestList[requestCount].addr          = msg.sender;\n        requestList[requestCount].provider      = address(0);      \n        requestList[requestCount].time          = time;    \n        requestList[requestCount].target        = target;\n        requestList[requestCount].price         = msg.value;\n        requestList[requestCount].dataID        = dataID;\n        //requestList[requestCount].resultID  = 0;\n        requestList[requestCount].numValidations = 1;\n        //requestList[requestCount].validations = emptyArray;\n        //requestList[requestCount].isValid   = false;\n        \n        //add new to map\n        requestMap[msg.sender].push(requestCount);\n        \n        //add new to requestPool\n        pendingPool.push(requestCount);\n        requestList[requestCount].status = '0' ;     //web3.toAscii([hex])\n        //emit RequestAdded(requestCount, msg.sender);       \n        emit SystemInfo(requestCount, msg.sender,'Request Added');\n        requestCount++;\n        //try assign and handle return value\n        if (autoAssign) return assignTask(requestCount-1);\n    }\n    function cancelTask(uint256 reqID) public returns (bool){\n        bool flag = false;\n        if (requestList[reqID].status == '0'                       //can only cancel pending request\n                && requestList[reqID].addr == msg.sender) {        //you cannot delete other's provider            \n            delete requestList[reqID];                             //delete from List\n            flag = ArrayPop(requestMap[msg.sender], reqID);        //delete form Map\n            flag = ArrayPop(pendingPool, reqID) && flag;           //delete from Pool             \n        }\n        if(flag) \n        //emit RequestCanceled(reqID, msg.sender);\n            emit SystemInfo(reqID, msg.sender, 'Request Canceled');\n        return flag;\n    }\n    function updateRequest(uint64 time, uint16 target, uint256 reqID) payable public returns (bool) {      \n        bool flag = false;\n        if(requestList[reqID].status == '0'                 //can only update pending request\n        && requestList[reqID].addr == msg.sender){          //you cannot modify other's config\n            requestList[reqID].blockNumber    = block.number;         \n            requestList[reqID].time        = time;       \n            requestList[reqID].target      = target;\n            requestList[reqID].price       = msg.value;\n            //update pool       -- pop then push , because we need to scan pool anyway\n            flag = ArrayPop(pendingPool,reqID);           // pop first                                      \n            pendingPool.push(reqID);                      // push in both case anyway\n            //update map -- no need provID not changed.\n            //emit RequestUpdated(reqID, msg.sender);\n            emit SystemInfo(reqID, msg.sender, 'Request Updated');\n            return flag;\n        }\n    }\n\n    \n\n    // Search in the pendingPool, find a job for current provider. Triggered by startProviding\n    // Input: uint256 provider ID\n    // Returns: 0: successfully assigned\n    //          1: searched all providers but find no match\n    //          2: no available provider right now\n    //          3: failure during poping pool\n    function assignProvider(uint256 provID) private returns (byte){\n        //check whether there exists pending requests\n        if(pendingPool.length == 0) return '2';\n        else {\n            //search throught the pendingPool\n            for (uint64 i = 0; i < pendingPool.length; i++){\n                //save the re-usable reqID , may save gas\n                uint256 reqID = pendingPool[i]; //\n                if( requestList[reqID].time     < providerList[provID].maxTime &&\n                    requestList[reqID].target   < providerList[provID].maxTarget &&\n                    requestList[reqID].price    > providerList[provID].minPrice)\n                    return assign(reqID, provID);         //emit here btw       \n            }\n            //after for loop and no match\n            return '1';\n        }\n    }\n    \n    // Assigning one task to one of the available providers. Only called from requestTask (private)\n    // Search in the providerPool, could only assign one task at a time\n    // TODO: need to add preference next patch\n    // Returns: 0: successfully assigned\n    //          1: searched all providers but find no match\n    //          2: no available provider right now\n    //          3: failure during poping pool\n    function assignTask(uint256 reqID) private returns (byte) {\n        //provider availability is checked in pool not in list\n        if (providerPool.length == 0)   return '2';\n        else {            //if any provider in pool\n            for (uint64 i = 0; i < providerPool.length; i++) {\n                // save the provider's addr, reusable and save gas cost\n                uint256 provID  = providerPool[i];\n                if( requestList[reqID].time     < providerList[provID].maxTime &&\n                    requestList[reqID].target   < providerList[provID].maxTarget &&\n                    requestList[reqID].price    > providerList[provID].minPrice)\n                    return assign(reqID, provID);   //emit here btw\n            }\n            // No provider was found matching the criteria -- request failed\n            //requestList[reqID].addr.transfer(requestList[reqID].price); // Returns the ether to the sender\n            return '1';\n        }       \n    }\n    \n    //supporting function :triggered by assignTask or assignProvider, do the state change and pool move\n    function assign(uint256 reqID, uint256 provID) private returns (byte) {\n        //update provider\n        providerList[provID].available = false;\n        //update request\n        requestList[reqID].provider = providerList[provID].addr;\n        requestList[reqID].status = '1';    //providing\n        //update the pool, move ID#\n        bool isPopped = false;\n        isPopped = ArrayPop(pendingPool, reqID);\n        isPopped = ArrayPop(providerPool, provID) && isPopped;\n        if(!isPopped) return '3';\n        providingPool.push(reqID);\n        \n        //update balanceList            addr here is requester's\n        balanceList[reqID] += requestList[reqID].price; \n        //emit TaskAssigned(reqID,requestList[reqID].addr,  \n        //                provID, providerList[provID].addr);\n        emit PairingInfo (reqID,requestList[reqID].addr,  \n                provID, providerList[provID].addr, 'Request assigned to Provider');\n        return '0';   \n    }\n\n\n    ////////////////////////////////////////////////////////////////////////////////////////\n    // off-chain actions happen here!\n    // After assignment, provider will fetch off-chain data and \n    // update this action by sending a confirm online, (not necessarily).\n    //\n    // TODO: function providerGotData() public returns (byte){}\n    //\n    // Then provider will start computation right now.\n    // Return the result adn call completeTask\n    ////////////////////////////////////////////////////////////////////////////////////////\n    //Exceptions: \n    // 1.Computation aborted/fail == retry within time limit\n    // 2.timeout == refund request / status: providing -> pending\n    // ##$$ Golden Rule: Costomer is God, whoever PAYED must got result or refund.\n    // Deal with money using extreme caution!\n\n\n    // Provider will call this when they are done and the data is available.\n    // This will invoke the validation stage\n    function completeTask(uint256 reqID, uint64 resultID) public returns (bool) {\n        // Confirm msg.sender is actually the provider of the task he claims\n        if (msg.sender == requestList[reqID].provider) {\n            //change request obj\n            requestList[reqID].status = '2';    //validating\n            requestList[reqID].resultID = resultID;\n            //move in pool\n            bool flag = false;\n            flag = ArrayPop(providingPool, reqID);\n            if(!flag) return false;\n            validatingPool.push(reqID);\n            //release provider (not necessarily depend on provider)\n            //providerList[providerID[msg.sender]].available = true;\n            emit CompleteTask(reqID, msg.sender);\n            //start validation process\n            return validateTask(reqID);\n        }\n        else {\n            return false;\n        }\n    }\n\n    // Called by completeTask before finalizing stuff. Contract checks with validators\n    // Returns false if there wasnt enough free providers to send out the required number of validation requests\n    // need validation from 1/10 of nodes -- could change\n    function validateTask(uint256 reqID) private returns (bool) {\n        uint64 numValidatorsNeeded = requestList[reqID].numValidations; \n        //uint numValidators = providerCount / 10; \n        uint64 validatorsFound = 0;\n        //requestList[reqID].numValidationsNeeded = numValidators;\n        //select # of available provider from the pool and force em to do the validation\n        for (uint64 i = 0; i < providerPool.length; i++) {\n            //get provider ID\n            uint256 provID = providerPool[i];\n            //validator and computer cannot be same\n            if(validatorsFound < numValidatorsNeeded){\n                if(providerList[provID].addr != requestList[reqID].provider){\n                    //qualified validator\n                    emit ValidationAssigned(reqID, provID, providerList[provID].addr);\n                    validatorsFound++;\n                    //remove the providers availablity and pop from pool\n                    providerList[provID].available = false;\n                    bool flag = ArrayPop(providerPool, provID);\n                    if (!flag) return false;\n                }       //else continue\n            }\n            else{       //enough validator\n                return true;\n                break;\n            }\n            //loop until certain # of validators selected\n        }   \n        //exit loop without enough validators\n        emit NotEnoughValidation(reqID);    \n\n        \n\n            // if (providerList[i].addr == address(0)) {   //not happen\n            //     continue;\n            // }\n            // if (providerList[i].available) {\n            //     // EVENT: informs validator that they were selected and need to validate\n            //     emit ValidationRequested(providerList[i].addr, reqID);\n            //     validatorsFound++;\n            // }\n    }\n\n\n/*\n\n    // needs to be more secure by ensuring the submission is coming from someone legit \n    function submitValidation(uint128 reqID, bool result) public returns (bool) {\n        // Pay the validator \n        uint partialPayment = requestList[reqID].price / 100; // amount each validator is paid\n        msg.sender.transfer(partialPayment);\n        balanceList[requestList[reqID].addr] -= partialPayment;\n        // Put the result in the request struct\n        requestList[reqID].validations.push(result);\n        // If enough validations have been submitted\n        if (requestList[reqID].validations.length == requestList[reqID].numValidationsNeeded) {\n            return checkValidation(reqID, requestList[reqID].price - requestList[reqID].numValidationsNeeded * partialPayment);\n        }\n    }\n    \n    function checkValidation(uint128 reqID, uint payment) private returns (bool) {\n        // Add up successful validations\n        uint64 successCount = 0;\n        for (uint64 i=0; i<requestList[reqID].validations.length; i++) {\n            if (requestList[reqID].validations[i]) successCount++;\n        }\n        // if 2/3 of validation attempts were successful\n        if (successCount  >= requestList[reqID].numValidationsNeeded * 2 / 3  ) { \n            // if 2/3 of validations were valid then provider gets remainder of money\n            requestList[reqID].provider.transfer(payment); \n            balanceList[requestList[reqID].addr] -= payment;\n            requestList[reqID].isValid = true; // Task was successfully completed! \n        }\n        // otherwise, work was invalid, the providers payment goes back to requester\n        else {\n            requestList[reqID].addr.transfer(payment);\n            balanceList[requestList[reqID].addr] -= payment;\n        }\n        // EVENT: task is done whether successful or not\n        emit TaskCompleted(requestList[reqID].addr, reqID);\n        return requestList[reqID].isValid;\n    }\n*/\n//////////////////////////////////////////////////////////////////////\n/*  function requestTask(uint64 dataID, uint16 target, uint64 time) payable public returns (bool) {\n    //a legacy version of requestTask, using a local memory copy and write back\n        bool[] memory emptyArray;\n        Request memory req = Request(           //create a temp memory var\n            msg.sender,             //addr\n            address(0),             //provider\n            requestCount,           //reqID\n            dataID,                 //dataID\n            time,                   //time    \n            target,                 //target   0-100\n            msg.value,              //price \n            0,                      //resultID\n            1,                      //numValidationsNeeded\n            emptyArray,             //sig list\n            false,                  //isValid\n            0                       //status  0-3 0: pending\n        );\n\n        //copy the mem var into storage\n        requestList[requestCount] = req;        //requestCount used as index here, from 0 to +++\n        //add new to requestPool\n        requestPool.push(requestCount);\n        //update requestID\n        requestID[msg.sender].push(requestCount);\n        //update count\n        requestCount++;     //count already stands for the # of req now.\n        pendingCount++;\n        return assignTask();\n    }\n*/\n\n/////////////////////////////////////////////////////////////////////\n // Used to dynamically remove elements from array of open provider spaces. \n    // Using a swap and delete method, search for the desired addr throughout the whole array\n    // delete the desired and swap the whole with last element\n    /*function AddrArrayPop(address payable [] storage addrArray, uint256 target) private returns(bool) {\n        for(uint64 i = 0; i < addrArray.length; i++){\n            if (addrArray[i] == target) {\n                //swap last element with hole\n                addrArray[i] = addrArray[addrArray.length-1];\n                //delete last item\n                delete addrArray[addrArray.length-1];\n                 //decrease size\n                addrArray.length--;\n                return true;\n            }\n        }\n        return false; //fail to search: no matching in pool\n    }*/\n\n    function ArrayPop(uint256[] storage array, uint256 target) private returns (bool) {\n        for(uint64 i = 0; i < array.length; i++){\n            if (array[i] == target) {\n                //swap last element with hole\n                array[i] = array[array.length-1];\n                //delete last item\n                delete array[array.length-1];\n                //decrease size\n                array.length--;\n                return true;\n            }\n        }\n        return false;   //fail to search: no matching in pool\n    } \n    function getMyProvID() public view returns (uint256[] memory){\n        return providerMap[msg.sender];\n    }\n    function getMyReqID() public view returns (uint256[] memory){\n        return requestMap[msg.sender];\n    }\n    function getProviderID(address addr) public view returns (uint256[] memory){\n        return providerMap[addr];\n    }\n    function getRequestID(address addr) public view returns (uint256[] memory){\n        return requestMap[addr];\n    }\n\n    /////////////////////////////////////////////////////////////////////////////////\n    //some helpers defined here\n    /*function testTask() public {\n        emit TaskAssigned(msg.sender, 11, 22);\n    }*/\n    function getProvider(uint256 ID) public view returns(Provider memory){\n        return providerList[ID];\n    }\n    function getRequest(uint256 ID) public view returns (Request memory){\n\t    return requestList[ID];\n    }\n    function getProviderCount() public view returns (uint256){\n        return providerCount;\n    }\n    function getRequestCount() public view returns (uint256){\n        return requestCount;\n    }\n    function getProviderPool() public view returns (uint256[] memory){\n        return providerPool;\n    }\n    function getRequestPool() public view returns (uint256[] memory){\n        return pendingPool;\n    }\n    function getProviderPoolSize() public view returns (uint256){\n        return providerPool.length;\n    }\n    function getRequestPoolSize() public view returns (uint256){\n        return pendingPool.length;\n    }\n    //function getBalance(address addr) public view returns (uint256){\n    //    return balanceList[addr];\n    //}\n    function listRequests(uint256[] memory IDList) public view returns(Request[50] memory){\n\t    Request[50] memory allRequest;\n\t    for (uint64 i = 0; i < IDList.length; i++){\n\t\t    allRequest[i] = getRequest(IDList[i]);\n\t    }\n\t    return allRequest;\n    }\n    function listProviders(uint256[] memory IDList) public view returns(Provider[50] memory){\n        Provider[50] memory allProvider;\n        //address addr;\n        for (uint64 i = 0; i < IDList.length;i++){\n            allProvider[i] = getProvider(IDList[i]);\n        }\n        return allProvider;\n    }\n    function listAllRequests() public view returns(Request[50] memory){\n\t    Request[50] memory allRequest;\n\t    for (uint64 i = 0; i < requestCount; i++){\n\t\t    allRequest[i] = getRequest(i);\n\t    }\n\t    return allRequest;\n    }\n    function listAllProviders() public view returns(Provider[50] memory){\n\t    Provider[50] memory allProvider;\n\t    for (uint64 i = 0; i < providerCount; i++){\n\t\t    allProvider[i] = getProvider(i);\n\t    }\n\t    return allProvider;\n    }\n    function listProviders() public view returns(Provider[50] memory){\n        Provider[50] memory allProvider;\n        //address addr;\n        for (uint64 i = 0; i < providerCount;i++){\n            /*if(providerPool.length > 0) {\n                addr = providerPool[i];     \n            }else {\n                addr = address(0);\n            }*/\n            allProvider[i] = getProvider(i);\n        }\n        return allProvider;\n    }\n    /*function listTestProviders() public view returns(Provider[3] memory){\n        Provider[3] memory allProvider;\n        for (uint64 i = 0; i < 3;i++){\n            allProvider[i] = getTestProvider(i);\n        }\n        return allProvider;\n    }*/\n\n}\n",
  "sourcePath": "/home/taurus/blockchain/gitLab/bcai_v0.9/contracts/bcai_0.9.3.sol",
  "compiler": {
    "name": "solc",
    "version": "0.5.0+commit.1d4f565a.Emscripten.clang"
  },
  "schemaVersion": "3.0.0-beta.2",
  "updatedAt": "2018-12-09T19:20:57.645Z",
  "devdoc": {
    "methods": {}
  },
  "userdoc": {
    "methods": {
      "completeTask(uint256,uint64)": {
        "notice": "/////////////////////////////////////////////////////////////////////////////////////"
      },
      "getProvider(uint256)": {
        "notice": "//////////////////////////////////////////////////////////////////////////////"
      },
      "startProviding(uint64,uint16,uint64)": {
        "notice": "//////////////////////////////////////////////////////////////////////////////////"
      }
    }
  }
}