{
  "contractName": "TaskContract",
  "abi": [
    {
      "constant": true,
      "inputs": [
        {
          "name": "",
          "type": "address"
        }
      ],
      "name": "requestList",
      "outputs": [
        {
          "name": "reqID",
          "type": "uint256"
        },
        {
          "name": "blockNumber",
          "type": "uint256"
        },
        {
          "name": "provider",
          "type": "address"
        },
        {
          "name": "time",
          "type": "uint64"
        },
        {
          "name": "target",
          "type": "uint16"
        },
        {
          "name": "price",
          "type": "uint256"
        },
        {
          "name": "dataID",
          "type": "bytes"
        },
        {
          "name": "resultID",
          "type": "bytes"
        },
        {
          "name": "numValidations",
          "type": "uint64"
        },
        {
          "name": "isValid",
          "type": "bool"
        },
        {
          "name": "status",
          "type": "bytes1"
        }
      ],
      "payable": false,
      "stateMutability": "view",
      "type": "function",
      "signature": "0x0708799e"
    },
    {
      "constant": true,
      "inputs": [
        {
          "name": "",
          "type": "address"
        }
      ],
      "name": "providerList",
      "outputs": [
        {
          "name": "provID",
          "type": "uint256"
        },
        {
          "name": "blockNumber",
          "type": "uint256"
        },
        {
          "name": "maxTime",
          "type": "uint64"
        },
        {
          "name": "maxTarget",
          "type": "uint16"
        },
        {
          "name": "minPrice",
          "type": "uint256"
        },
        {
          "name": "available",
          "type": "bool"
        }
      ],
      "payable": false,
      "stateMutability": "view",
      "type": "function",
      "signature": "0x0e1e4a3c"
    },
    {
      "constant": true,
      "inputs": [
        {
          "name": "",
          "type": "address"
        }
      ],
      "name": "balanceList",
      "outputs": [
        {
          "name": "",
          "type": "uint256"
        }
      ],
      "payable": false,
      "stateMutability": "view",
      "type": "function",
      "signature": "0x189258de"
    },
    {
      "inputs": [],
      "payable": false,
      "stateMutability": "nonpayable",
      "type": "constructor",
      "signature": "constructor"
    },
    {
      "anonymous": false,
      "inputs": [
        {
          "indexed": false,
          "name": "addr",
          "type": "address"
        },
        {
          "indexed": false,
          "name": "info",
          "type": "bytes"
        }
      ],
      "name": "SystemInfo",
      "type": "event",
      "signature": "0xa332e7b06782060530f8d1575fcf83b5e831fe3dd09c85e53b0351a7c38ceeac"
    },
    {
      "anonymous": false,
      "inputs": [
        {
          "indexed": false,
          "name": "reqAddr",
          "type": "address"
        },
        {
          "indexed": false,
          "name": "provAddr",
          "type": "address"
        },
        {
          "indexed": false,
          "name": "info",
          "type": "bytes"
        }
      ],
      "name": "PairingInfo",
      "type": "event",
      "signature": "0x654163525cabcfa0ce95ecb1f232c75746c89688c42e7e2d52df90d770fc9e57"
    },
    {
      "constant": false,
      "inputs": [
        {
          "name": "maxTime",
          "type": "uint64"
        },
        {
          "name": "maxTarget",
          "type": "uint16"
        },
        {
          "name": "minPrice",
          "type": "uint64"
        }
      ],
      "name": "startProviding",
      "outputs": [
        {
          "name": "",
          "type": "bool"
        }
      ],
      "payable": false,
      "stateMutability": "nonpayable",
      "type": "function",
      "signature": "0x2ddfdbcc"
    },
    {
      "constant": false,
      "inputs": [],
      "name": "stopProviding",
      "outputs": [
        {
          "name": "",
          "type": "bool"
        }
      ],
      "payable": false,
      "stateMutability": "nonpayable",
      "type": "function",
      "signature": "0xb2774934"
    },
    {
      "constant": false,
      "inputs": [
        {
          "name": "maxTime",
          "type": "uint64"
        },
        {
          "name": "maxTarget",
          "type": "uint16"
        },
        {
          "name": "minPrice",
          "type": "uint64"
        }
      ],
      "name": "updateProvider",
      "outputs": [
        {
          "name": "",
          "type": "bool"
        }
      ],
      "payable": false,
      "stateMutability": "nonpayable",
      "type": "function",
      "signature": "0x08931765"
    },
    {
      "constant": false,
      "inputs": [
        {
          "name": "time",
          "type": "uint64"
        },
        {
          "name": "target",
          "type": "uint16"
        },
        {
          "name": "price",
          "type": "uint64"
        },
        {
          "name": "dataID",
          "type": "bytes"
        }
      ],
      "name": "startRequest",
      "outputs": [
        {
          "name": "",
          "type": "bool"
        }
      ],
      "payable": true,
      "stateMutability": "payable",
      "type": "function",
      "signature": "0x0b6dbd5f"
    },
    {
      "constant": false,
      "inputs": [],
      "name": "stopRequest",
      "outputs": [
        {
          "name": "",
          "type": "bool"
        }
      ],
      "payable": false,
      "stateMutability": "nonpayable",
      "type": "function",
      "signature": "0x040d2762"
    },
    {
      "constant": false,
      "inputs": [
        {
          "name": "time",
          "type": "uint64"
        },
        {
          "name": "target",
          "type": "uint16"
        },
        {
          "name": "price",
          "type": "uint64"
        },
        {
          "name": "dataID",
          "type": "bytes"
        }
      ],
      "name": "updateRequest",
      "outputs": [
        {
          "name": "",
          "type": "bool"
        }
      ],
      "payable": true,
      "stateMutability": "payable",
      "type": "function",
      "signature": "0xdafcc3b2"
    },
    {
      "constant": false,
      "inputs": [
        {
          "name": "reqAddr",
          "type": "address"
        },
        {
          "name": "resultID",
          "type": "bytes"
        }
      ],
      "name": "completeRequest",
      "outputs": [
        {
          "name": "",
          "type": "bool"
        }
      ],
      "payable": false,
      "stateMutability": "nonpayable",
      "type": "function",
      "signature": "0x6ca43b8d"
    },
    {
      "constant": false,
      "inputs": [
        {
          "name": "reqAddr",
          "type": "address"
        }
      ],
      "name": "validateRequest",
      "outputs": [
        {
          "name": "",
          "type": "bool"
        }
      ],
      "payable": false,
      "stateMutability": "nonpayable",
      "type": "function",
      "signature": "0xaaef4a62"
    },
    {
      "constant": false,
      "inputs": [
        {
          "name": "reqAddr",
          "type": "address"
        },
        {
          "name": "result",
          "type": "bool"
        }
      ],
      "name": "submitValidation",
      "outputs": [
        {
          "name": "",
          "type": "bool"
        }
      ],
      "payable": false,
      "stateMutability": "nonpayable",
      "type": "function",
      "signature": "0x3432d0f5"
    },
    {
      "constant": false,
      "inputs": [
        {
          "name": "reqAddr",
          "type": "address"
        }
      ],
      "name": "checkValidation",
      "outputs": [
        {
          "name": "",
          "type": "bool"
        }
      ],
      "payable": false,
      "stateMutability": "nonpayable",
      "type": "function",
      "signature": "0x566b2474"
    },
    {
      "constant": true,
      "inputs": [
        {
          "name": "ID",
          "type": "address"
        }
      ],
      "name": "getProvider",
      "outputs": [
        {
          "components": [
            {
              "name": "provID",
              "type": "uint256"
            },
            {
              "name": "blockNumber",
              "type": "uint256"
            },
            {
              "name": "maxTime",
              "type": "uint64"
            },
            {
              "name": "maxTarget",
              "type": "uint16"
            },
            {
              "name": "minPrice",
              "type": "uint256"
            },
            {
              "name": "available",
              "type": "bool"
            }
          ],
          "name": "",
          "type": "tuple"
        }
      ],
      "payable": false,
      "stateMutability": "view",
      "type": "function",
      "signature": "0x55f21eb7"
    },
    {
      "constant": true,
      "inputs": [
        {
          "name": "ID",
          "type": "address"
        }
      ],
      "name": "getRequest",
      "outputs": [
        {
          "components": [
            {
              "name": "reqID",
              "type": "uint256"
            },
            {
              "name": "blockNumber",
              "type": "uint256"
            },
            {
              "name": "provider",
              "type": "address"
            },
            {
              "name": "time",
              "type": "uint64"
            },
            {
              "name": "target",
              "type": "uint16"
            },
            {
              "name": "price",
              "type": "uint256"
            },
            {
              "name": "dataID",
              "type": "bytes"
            },
            {
              "name": "resultID",
              "type": "bytes"
            },
            {
              "name": "numValidations",
              "type": "uint64"
            },
            {
              "name": "validators",
              "type": "address[]"
            },
            {
              "name": "signatures",
              "type": "bool[]"
            },
            {
              "name": "isValid",
              "type": "bool"
            },
            {
              "name": "status",
              "type": "bytes1"
            }
          ],
          "name": "",
          "type": "tuple"
        }
      ],
      "payable": false,
      "stateMutability": "view",
      "type": "function",
      "signature": "0x63c1dff7"
    },
    {
      "constant": true,
      "inputs": [],
      "name": "getProviderCount",
      "outputs": [
        {
          "name": "",
          "type": "uint256"
        }
      ],
      "payable": false,
      "stateMutability": "view",
      "type": "function",
      "signature": "0x46ce4175"
    },
    {
      "constant": true,
      "inputs": [],
      "name": "getRequestCount",
      "outputs": [
        {
          "name": "",
          "type": "uint256"
        }
      ],
      "payable": false,
      "stateMutability": "view",
      "type": "function",
      "signature": "0x3fad1834"
    },
    {
      "constant": true,
      "inputs": [],
      "name": "getProviderPool",
      "outputs": [
        {
          "name": "",
          "type": "address[]"
        }
      ],
      "payable": false,
      "stateMutability": "view",
      "type": "function",
      "signature": "0x9e723b97"
    },
    {
      "constant": true,
      "inputs": [],
      "name": "getPendingPool",
      "outputs": [
        {
          "name": "",
          "type": "address[]"
        }
      ],
      "payable": false,
      "stateMutability": "view",
      "type": "function",
      "signature": "0xa9ecaae7"
    },
    {
      "constant": true,
      "inputs": [],
      "name": "getValidatingPool",
      "outputs": [
        {
          "name": "",
          "type": "address[]"
        }
      ],
      "payable": false,
      "stateMutability": "view",
      "type": "function",
      "signature": "0x32c5200d"
    },
    {
      "constant": true,
      "inputs": [],
      "name": "getProvidingPool",
      "outputs": [
        {
          "name": "",
          "type": "address[]"
        }
      ],
      "payable": false,
      "stateMutability": "view",
      "type": "function",
      "signature": "0x1f1dab45"
    },
    {
      "constant": true,
      "inputs": [],
      "name": "getProviderPoolSize",
      "outputs": [
        {
          "name": "",
          "type": "uint256"
        }
      ],
      "payable": false,
      "stateMutability": "view",
      "type": "function",
      "signature": "0x353b2a1f"
    },
    {
      "constant": true,
      "inputs": [],
      "name": "getRequestPoolSize",
      "outputs": [
        {
          "name": "",
          "type": "uint256"
        }
      ],
      "payable": false,
      "stateMutability": "view",
      "type": "function",
      "signature": "0x5c4c8c4e"
    },
    {
      "constant": true,
      "inputs": [
        {
          "name": "IDList",
          "type": "address[]"
        }
      ],
      "name": "listRequests",
      "outputs": [
        {
          "components": [
            {
              "name": "reqID",
              "type": "uint256"
            },
            {
              "name": "blockNumber",
              "type": "uint256"
            },
            {
              "name": "provider",
              "type": "address"
            },
            {
              "name": "time",
              "type": "uint64"
            },
            {
              "name": "target",
              "type": "uint16"
            },
            {
              "name": "price",
              "type": "uint256"
            },
            {
              "name": "dataID",
              "type": "bytes"
            },
            {
              "name": "resultID",
              "type": "bytes"
            },
            {
              "name": "numValidations",
              "type": "uint64"
            },
            {
              "name": "validators",
              "type": "address[]"
            },
            {
              "name": "signatures",
              "type": "bool[]"
            },
            {
              "name": "isValid",
              "type": "bool"
            },
            {
              "name": "status",
              "type": "bytes1"
            }
          ],
          "name": "",
          "type": "tuple[50]"
        }
      ],
      "payable": false,
      "stateMutability": "view",
      "type": "function",
      "signature": "0xc052c4db"
    },
    {
      "constant": true,
      "inputs": [
        {
          "name": "IDList",
          "type": "address[]"
        }
      ],
      "name": "listProviders",
      "outputs": [
        {
          "components": [
            {
              "name": "provID",
              "type": "uint256"
            },
            {
              "name": "blockNumber",
              "type": "uint256"
            },
            {
              "name": "maxTime",
              "type": "uint64"
            },
            {
              "name": "maxTarget",
              "type": "uint16"
            },
            {
              "name": "minPrice",
              "type": "uint256"
            },
            {
              "name": "available",
              "type": "bool"
            }
          ],
          "name": "",
          "type": "tuple[50]"
        }
      ],
      "payable": false,
      "stateMutability": "view",
      "type": "function",
      "signature": "0x2d3272d3"
    }
  ],
  "bytecode": "0x608060405234801561001057600080fd5b5060006003819055506000600481905550615455806100306000396000f3fe608060405260043610610143576000357c010000000000000000000000000000000000000000000000000000000090048063040d2762146101485780630708799e1461017357806308931765146101ba5780630b6dbd5f146101f75780630e1e4a3c14610227578063189258de146102695780631f1dab45146102a65780632d3272d3146102d15780632ddfdbcc1461030e57806332c5200d1461034b5780633432d0f514610376578063353b2a1f146103b35780633fad1834146103de57806346ce41751461040957806355f21eb714610434578063566b2474146104715780635c4c8c4e146104ae57806363c1dff7146104d95780636ca43b8d146105165780639e723b9714610553578063a9ecaae71461057e578063aaef4a62146105a9578063b2774934146105e6578063c052c4db14610611578063dafcc3b21461064e575b600080fd5b34801561015457600080fd5b5061015d61067e565b60405161016a9190615014565b60405180910390f35b34801561017f57600080fd5b5061019a6004803603610195919081019061433e565b6108b9565b6040516101b19b9a99989796959493929190615087565b60405180910390f35b3480156101c657600080fd5b506101e160048036036101dc9190810190614461565b610ad2565b6040516101ee9190615014565b60405180910390f35b610211600480360361020c91908101906144b0565b610cdb565b60405161021e9190615014565b60405180910390f35b34801561023357600080fd5b5061024e6004803603610249919081019061433e565b611423565b60405161026096959493929190615140565b60405180910390f35b34801561027557600080fd5b50610290600480360361028b919081019061433e565b61148e565b60405161029d919061506c565b60405180910390f35b3480156102b257600080fd5b506102bb6114a6565b6040516102c89190614fb4565b60405180910390f35b3480156102dd57600080fd5b506102f860048036036102f39190810190614420565b611534565b6040516103059190614fd6565b60405180910390f35b34801561031a57600080fd5b5061033560048036036103309190810190614461565b6115be565b6040516103429190615014565b60405180910390f35b34801561035757600080fd5b50610360611b36565b60405161036d9190614fb4565b60405180910390f35b34801561038257600080fd5b5061039d60048036036103989190810190614390565b611bc4565b6040516103aa9190615014565b60405180910390f35b3480156103bf57600080fd5b506103c8611e73565b6040516103d5919061506c565b60405180910390f35b3480156103ea57600080fd5b506103f3611e80565b604051610400919061506c565b60405180910390f35b34801561041557600080fd5b5061041e611e8a565b60405161042b919061506c565b60405180910390f35b34801561044057600080fd5b5061045b60048036036104569190810190614367565b611e94565b604051610468919061502f565b60405180910390f35b34801561047d57600080fd5b5061049860048036036104939190810190614367565b611f78565b6040516104a59190615014565b60405180910390f35b3480156104ba57600080fd5b506104c36121ab565b6040516104d0919061506c565b60405180910390f35b3480156104e557600080fd5b5061050060048036036104fb9190810190614367565b6121b8565b60405161050d919061504a565b60405180910390f35b34801561052257600080fd5b5061053d600480360361053891908101906143cc565b6125ef565b60405161054a9190615014565b60405180910390f35b34801561055f57600080fd5b5061056861283d565b6040516105759190614fb4565b60405180910390f35b34801561058a57600080fd5b506105936128cb565b6040516105a09190614fb4565b60405180910390f35b3480156105b557600080fd5b506105d060048036036105cb9190810190614367565b612959565b6040516105dd9190615014565b60405180910390f35b3480156105f257600080fd5b506105fb612c1b565b6040516106089190615014565b60405180910390f35b34801561061d57600080fd5b5061063860048036036106339190810190614420565b612d2b565b6040516106459190614ff2565b60405180910390f35b610668600480360361066391908101906144b0565b612db5565b6040516106759190615014565b60405180910390f35b60007f3000000000000000000000000000000000000000000000000000000000000000600160003373ffffffffffffffffffffffffffffffffffffffff1673ffffffffffffffffffffffffffffffffffffffff16815260200190815260200160002060090160019054906101000a90047f0100000000000000000000000000000000000000000000000000000000000000027effffffffffffffffffffffffffffffffffffffffffffffffffffffffffffff191614156108b557600160003373ffffffffffffffffffffffffffffffffffffffff1673ffffffffffffffffffffffffffffffffffffffff16815260200190815260200160002060008082016000905560018201600090556002820160006101000a81549073ffffffffffffffffffffffffffffffffffffffff02191690556002820160146101000a81549067ffffffffffffffff021916905560028201601c6101000a81549061ffff021916905560038201600090556004820160006107f79190613e3b565b6005820160006108079190613e3b565b6006820160006101000a81549067ffffffffffffffff02191690556007820160006108329190613e83565b6008820160006108429190613ea4565b6009820160006101000a81549060ff02191690556009820160016101000a81549060ff021916905550507fa332e7b06782060530f8d1575fcf83b5e831fe3dd09c85e53b0351a7c38ceeac3360405161089b9190614ea0565b60405180910390a16108ae60063361306d565b90506108b6565b5b90565b60016020528060005260406000206000915090508060000154908060010154908060020160009054906101000a900473ffffffffffffffffffffffffffffffffffffffff16908060020160149054906101000a900467ffffffffffffffff169080600201601c9054906101000a900461ffff1690806003015490806004018054600181600116156101000203166002900480601f0160208091040260200160405190810160405280929190818152602001828054600181600116156101000203166002900480156109cb5780601f106109a0576101008083540402835291602001916109cb565b820191906000526020600020905b8154815290600101906020018083116109ae57829003601f168201915b505050505090806005018054600181600116156101000203166002900480601f016020809104026020016040519081016040528092919081815260200182805460018160011615610100020316600290048015610a695780601f10610a3e57610100808354040283529160200191610a69565b820191906000526020600020905b815481529060010190602001808311610a4c57829003601f168201915b5050505050908060060160009054906101000a900467ffffffffffffffff16908060090160009054906101000a900460ff16908060090160019054906101000a90047f01000000000000000000000000000000000000000000000000000000000000000290508b565b6000600115156000803373ffffffffffffffffffffffffffffffffffffffff1673ffffffffffffffffffffffffffffffffffffffff16815260200190815260200160002060040160009054906101000a900460ff1615151415610cd357436000803373ffffffffffffffffffffffffffffffffffffffff1673ffffffffffffffffffffffffffffffffffffffff16815260200190815260200160002060010181905550836000803373ffffffffffffffffffffffffffffffffffffffff1673ffffffffffffffffffffffffffffffffffffffff16815260200190815260200160002060020160006101000a81548167ffffffffffffffff021916908367ffffffffffffffff160217905550826000803373ffffffffffffffffffffffffffffffffffffffff1673ffffffffffffffffffffffffffffffffffffffff16815260200190815260200160002060020160086101000a81548161ffff021916908361ffff1602179055508167ffffffffffffffff166000803373ffffffffffffffffffffffffffffffffffffffff1673ffffffffffffffffffffffffffffffffffffffff168152602001908152602001600020600301819055507fa332e7b06782060530f8d1575fcf83b5e831fe3dd09c85e53b0351a7c38ceeac33604051610cb89190614e44565b60405180910390a1610cc93361321e565b5060019050610cd4565b5b9392505050565b600080600160003373ffffffffffffffffffffffffffffffffffffffff1673ffffffffffffffffffffffffffffffffffffffff16815260200190815260200160002060010154141561116d57600454600160003373ffffffffffffffffffffffffffffffffffffffff1673ffffffffffffffffffffffffffffffffffffffff1681526020019081526020016000206000018190555043600160003373ffffffffffffffffffffffffffffffffffffffff1673ffffffffffffffffffffffffffffffffffffffff168152602001908152602001600020600101819055506000600160003373ffffffffffffffffffffffffffffffffffffffff1673ffffffffffffffffffffffffffffffffffffffff16815260200190815260200160002060020160006101000a81548173ffffffffffffffffffffffffffffffffffffffff021916908373ffffffffffffffffffffffffffffffffffffffff16021790555084600160003373ffffffffffffffffffffffffffffffffffffffff1673ffffffffffffffffffffffffffffffffffffffff16815260200190815260200160002060020160146101000a81548167ffffffffffffffff021916908367ffffffffffffffff16021790555083600160003373ffffffffffffffffffffffffffffffffffffffff1673ffffffffffffffffffffffffffffffffffffffff168152602001908152602001600020600201601c6101000a81548161ffff021916908361ffff1602179055508267ffffffffffffffff16600160003373ffffffffffffffffffffffffffffffffffffffff1673ffffffffffffffffffffffffffffffffffffffff1681526020019081526020016000206003018190555081600160003373ffffffffffffffffffffffffffffffffffffffff1673ffffffffffffffffffffffffffffffffffffffff1681526020019081526020016000206004019080519060200190610fa6929190613ecc565b5060018060003373ffffffffffffffffffffffffffffffffffffffff1673ffffffffffffffffffffffffffffffffffffffff16815260200190815260200160002060060160006101000a81548167ffffffffffffffff021916908367ffffffffffffffff1602179055507f3000000000000000000000000000000000000000000000000000000000000000600160003373ffffffffffffffffffffffffffffffffffffffff1673ffffffffffffffffffffffffffffffffffffffff16815260200190815260200160002060090160016101000a81548160ff02191690837f01000000000000000000000000000000000000000000000000000000000000009004021790555060063390806001815401808255809150509060018203906000526020600020016000909192909190916101000a81548173ffffffffffffffffffffffffffffffffffffffff021916908373ffffffffffffffffffffffffffffffffffffffff160217905550507fa332e7b06782060530f8d1575fcf83b5e831fe3dd09c85e53b0351a7c38ceeac336040516111409190614f86565b60405180910390a1600460008154809291906001019190505550611163336137e2565b506001905061141b565b7f3000000000000000000000000000000000000000000000000000000000000000600160003373ffffffffffffffffffffffffffffffffffffffff1673ffffffffffffffffffffffffffffffffffffffff16815260200190815260200160002060090160019054906101000a90047f0100000000000000000000000000000000000000000000000000000000000000027effffffffffffffffffffffffffffffffffffffffffffffffffffffffffffff1916141561141a5743600160003373ffffffffffffffffffffffffffffffffffffffff1673ffffffffffffffffffffffffffffffffffffffff1681526020019081526020016000206001018190555084600160003373ffffffffffffffffffffffffffffffffffffffff1673ffffffffffffffffffffffffffffffffffffffff16815260200190815260200160002060020160146101000a81548167ffffffffffffffff021916908367ffffffffffffffff16021790555083600160003373ffffffffffffffffffffffffffffffffffffffff1673ffffffffffffffffffffffffffffffffffffffff168152602001908152602001600020600201601c6101000a81548161ffff021916908361ffff1602179055508267ffffffffffffffff16600160003373ffffffffffffffffffffffffffffffffffffffff1673ffffffffffffffffffffffffffffffffffffffff1681526020019081526020016000206003018190555081600160003373ffffffffffffffffffffffffffffffffffffffff1673ffffffffffffffffffffffffffffffffffffffff16815260200190815260200160002060040190805190602001906113d9929190613ecc565b507fa332e7b06782060530f8d1575fcf83b5e831fe3dd09c85e53b0351a7c38ceeac336040516114099190614e72565b60405180910390a16001905061141b565b5b949350505050565b60006020528060005260406000206000915090508060000154908060010154908060020160009054906101000a900467ffffffffffffffff16908060020160089054906101000a900461ffff16908060030154908060040160009054906101000a900460ff16905086565b60026020528060005260406000206000915090505481565b6060600780548060200260200160405190810160405280929190818152602001828054801561152a57602002820191906000526020600020905b8160009054906101000a900473ffffffffffffffffffffffffffffffffffffffff1673ffffffffffffffffffffffffffffffffffffffff16815260200190600101908083116114e0575b5050505050905090565b61153c613f4c565b611544613f4c565b60008090505b83518167ffffffffffffffff1610156115b457611587848267ffffffffffffffff1681518110151561157857fe5b90602001906020020151611e94565b828267ffffffffffffffff1660328110151561159f57fe5b6020020181905250808060010191505061154a565b5080915050919050565b6000806000803373ffffffffffffffffffffffffffffffffffffffff1673ffffffffffffffffffffffffffffffffffffffff16815260200190815260200160002060010154141561192f576003546000803373ffffffffffffffffffffffffffffffffffffffff1673ffffffffffffffffffffffffffffffffffffffff16815260200190815260200160002060000181905550436000803373ffffffffffffffffffffffffffffffffffffffff1673ffffffffffffffffffffffffffffffffffffffff16815260200190815260200160002060010181905550836000803373ffffffffffffffffffffffffffffffffffffffff1673ffffffffffffffffffffffffffffffffffffffff16815260200190815260200160002060020160006101000a81548167ffffffffffffffff021916908367ffffffffffffffff160217905550836000803373ffffffffffffffffffffffffffffffffffffffff1673ffffffffffffffffffffffffffffffffffffffff16815260200190815260200160002060020160006101000a81548167ffffffffffffffff021916908367ffffffffffffffff160217905550826000803373ffffffffffffffffffffffffffffffffffffffff1673ffffffffffffffffffffffffffffffffffffffff16815260200190815260200160002060020160086101000a81548161ffff021916908361ffff1602179055508167ffffffffffffffff166000803373ffffffffffffffffffffffffffffffffffffffff1673ffffffffffffffffffffffffffffffffffffffff1681526020019081526020016000206003018190555060016000803373ffffffffffffffffffffffffffffffffffffffff1673ffffffffffffffffffffffffffffffffffffffff16815260200190815260200160002060040160006101000a81548160ff02191690831515021790555060053390806001815401808255809150509060018203906000526020600020016000909192909190916101000a81548173ffffffffffffffffffffffffffffffffffffffff021916908373ffffffffffffffffffffffffffffffffffffffff160217905550507fa332e7b06782060530f8d1575fcf83b5e831fe3dd09c85e53b0351a7c38ceeac336040516119029190614efc565b60405180910390a16003600081548092919060010191905055506119253361321e565b5060019050611b2f565b600115156000803373ffffffffffffffffffffffffffffffffffffffff1673ffffffffffffffffffffffffffffffffffffffff16815260200190815260200160002060040160009054906101000a900460ff1615151415611b2e57436000803373ffffffffffffffffffffffffffffffffffffffff1673ffffffffffffffffffffffffffffffffffffffff16815260200190815260200160002060010181905550836000803373ffffffffffffffffffffffffffffffffffffffff1673ffffffffffffffffffffffffffffffffffffffff16815260200190815260200160002060020160006101000a81548167ffffffffffffffff021916908367ffffffffffffffff160217905550826000803373ffffffffffffffffffffffffffffffffffffffff1673ffffffffffffffffffffffffffffffffffffffff16815260200190815260200160002060020160086101000a81548161ffff021916908361ffff1602179055508167ffffffffffffffff166000803373ffffffffffffffffffffffffffffffffffffffff1673ffffffffffffffffffffffffffffffffffffffff168152602001908152602001600020600301819055507fa332e7b06782060530f8d1575fcf83b5e831fe3dd09c85e53b0351a7c38ceeac33604051611b139190614e44565b60405180910390a1611b243361321e565b5060019050611b2f565b5b9392505050565b60606008805480602002602001604051908101604052809291908181526020018280548015611bba57602002820191906000526020600020905b8160009054906101000a900473ffffffffffffffffffffffffffffffffffffffff1673ffffffffffffffffffffffffffffffffffffffff1681526020019060010190808311611b70575b5050505050905090565b6000600160008473ffffffffffffffffffffffffffffffffffffffff1673ffffffffffffffffffffffffffffffffffffffff16815260200190815260200160002060020160009054906101000a900473ffffffffffffffffffffffffffffffffffffffff1673ffffffffffffffffffffffffffffffffffffffff163373ffffffffffffffffffffffffffffffffffffffff16141515611d8b57600160008473ffffffffffffffffffffffffffffffffffffffff1673ffffffffffffffffffffffffffffffffffffffff1681526020019081526020016000206007013390806001815401808255809150509060018203906000526020600020016000909192909190916101000a81548173ffffffffffffffffffffffffffffffffffffffff021916908373ffffffffffffffffffffffffffffffffffffffff16021790555050600160008473ffffffffffffffffffffffffffffffffffffffff1673ffffffffffffffffffffffffffffffffffffffff16815260200190815260200160002060080182908060018154018082558091505090600182039060005260206000209060209182820401919006909192909190916101000a81548160ff021916908315150217905550505b7f654163525cabcfa0ce95ecb1f232c75746c89688c42e7e2d52df90d770fc9e578333604051611dbc929190614d9e565b60405180910390a1600160008473ffffffffffffffffffffffffffffffffffffffff1673ffffffffffffffffffffffffffffffffffffffff16815260200190815260200160002060060160009054906101000a900467ffffffffffffffff1667ffffffffffffffff16600160008573ffffffffffffffffffffffffffffffffffffffff1673ffffffffffffffffffffffffffffffffffffffff16815260200190815260200160002060070180549050505092915050565b6000600580549050905090565b6000600454905090565b6000600354905090565b611e9c613f7b565b6000808373ffffffffffffffffffffffffffffffffffffffff1673ffffffffffffffffffffffffffffffffffffffff16815260200190815260200160002060c0604051908101604052908160008201548152602001600182015481526020016002820160009054906101000a900467ffffffffffffffff1667ffffffffffffffff1667ffffffffffffffff1681526020016002820160089054906101000a900461ffff1661ffff1661ffff168152602001600382015481526020016004820160009054906101000a900460ff1615151515815250509050919050565b60008060009050600080905060008090505b600160008673ffffffffffffffffffffffffffffffffffffffff1673ffffffffffffffffffffffffffffffffffffffff168152602001908152602001600020600701805490508167ffffffffffffffff16101561207c5760011515600160008773ffffffffffffffffffffffffffffffffffffffff1673ffffffffffffffffffffffffffffffffffffffff1681526020019081526020016000206008018267ffffffffffffffff1681548110151561203e57fe5b90600052602060002090602091828204019190069054906101000a900460ff161515141561206f5781806001019250505b8080600101915050611f8a565b50600160008573ffffffffffffffffffffffffffffffffffffffff1673ffffffffffffffffffffffffffffffffffffffff16815260200190815260200160002060060160009054906101000a900467ffffffffffffffff1667ffffffffffffffff168167ffffffffffffffff161015156121535760018060008673ffffffffffffffffffffffffffffffffffffffff1673ffffffffffffffffffffffffffffffffffffffff16815260200190815260200160002060090160006101000a81548160ff02191690831515021790555060019150612154565b5b7fa332e7b06782060530f8d1575fcf83b5e831fe3dd09c85e53b0351a7c38ceeac846040516121839190614f58565b60405180910390a181801561219f575061219e60088561306d565b5b91508192505050919050565b6000600680549050905090565b6121c0613fc2565b600160008373ffffffffffffffffffffffffffffffffffffffff1673ffffffffffffffffffffffffffffffffffffffff1681526020019081526020016000206101a0604051908101604052908160008201548152602001600182015481526020016002820160009054906101000a900473ffffffffffffffffffffffffffffffffffffffff1673ffffffffffffffffffffffffffffffffffffffff1673ffffffffffffffffffffffffffffffffffffffff1681526020016002820160149054906101000a900467ffffffffffffffff1667ffffffffffffffff1667ffffffffffffffff16815260200160028201601c9054906101000a900461ffff1661ffff1661ffff16815260200160038201548152602001600482018054600181600116156101000203166002900480601f01602080910402602001604051908101604052809291908181526020018280546001816001161561010002031660029004801561236b5780601f106123405761010080835404028352916020019161236b565b820191906000526020600020905b81548152906001019060200180831161234e57829003601f168201915b50505050508152602001600582018054600181600116156101000203166002900480601f01602080910402602001604051908101604052809291908181526020018280546001816001161561010002031660029004801561240d5780601f106123e25761010080835404028352916020019161240d565b820191906000526020600020905b8154815290600101906020018083116123f057829003601f168201915b505050505081526020016006820160009054906101000a900467ffffffffffffffff1667ffffffffffffffff1667ffffffffffffffff168152602001600782018054806020026020016040519081016040528092919081815260200182805480156124cd57602002820191906000526020600020905b8160009054906101000a900473ffffffffffffffffffffffffffffffffffffffff1673ffffffffffffffffffffffffffffffffffffffff1681526020019060010190808311612483575b505050505081526020016008820180548060200260200160405190810160405280929190818152602001828054801561254a57602002820191906000526020600020906000905b82829054906101000a900460ff161515815260200190600101906020826000010492830192600103820291508084116125145790505b505050505081526020016009820160009054906101000a900460ff161515151581526020016009820160019054906101000a90047f0100000000000000000000000000000000000000000000000000000000000000027effffffffffffffffffffffffffffffffffffffffffffffffffffffffffffff19167effffffffffffffffffffffffffffffffffffffffffffffffffffffffffffff1916815250509050919050565b6000600160008473ffffffffffffffffffffffffffffffffffffffff1673ffffffffffffffffffffffffffffffffffffffff16815260200190815260200160002060020160009054906101000a900473ffffffffffffffffffffffffffffffffffffffff1673ffffffffffffffffffffffffffffffffffffffff163373ffffffffffffffffffffffffffffffffffffffff161415612832577f3200000000000000000000000000000000000000000000000000000000000000600160008573ffffffffffffffffffffffffffffffffffffffff1673ffffffffffffffffffffffffffffffffffffffff16815260200190815260200160002060090160016101000a81548160ff02191690837f01000000000000000000000000000000000000000000000000000000000000009004021790555081600160008573ffffffffffffffffffffffffffffffffffffffff1673ffffffffffffffffffffffffffffffffffffffff1681526020019081526020016000206005019080519060200190612778929190613ecc565b5061278460078461306d565b5060088390806001815401808255809150509060018203906000526020600020016000909192909190916101000a81548173ffffffffffffffffffffffffffffffffffffffff021916908373ffffffffffffffffffffffffffffffffffffffff160217905550507fa332e7b06782060530f8d1575fcf83b5e831fe3dd09c85e53b0351a7c38ceeac8360405161281a9190614ece565b60405180910390a161282b83612959565b9050612837565b600090505b92915050565b606060058054806020026020016040519081016040528092919081815260200182805480156128c157602002820191906000526020600020905b8160009054906101000a900473ffffffffffffffffffffffffffffffffffffffff1673ffffffffffffffffffffffffffffffffffffffff1681526020019060010190808311612877575b5050505050905090565b6060600680548060200260200160405190810160405280929190818152602001828054801561294f57602002820191906000526020600020905b8160009054906101000a900473ffffffffffffffffffffffffffffffffffffffff1673ffffffffffffffffffffffffffffffffffffffff1681526020019060010190808311612905575b5050505050905090565b600080600160008473ffffffffffffffffffffffffffffffffffffffff1673ffffffffffffffffffffffffffffffffffffffff16815260200190815260200160002060060160009054906101000a900467ffffffffffffffff169050600080905060008090505b6005805490508167ffffffffffffffff161015612bdb57600060058267ffffffffffffffff168154811015156129f257fe5b9060005260206000200160009054906101000a900473ffffffffffffffffffffffffffffffffffffffff169050600160008773ffffffffffffffffffffffffffffffffffffffff1673ffffffffffffffffffffffffffffffffffffffff16815260200190815260200160002060020160009054906101000a900473ffffffffffffffffffffffffffffffffffffffff1673ffffffffffffffffffffffffffffffffffffffff168173ffffffffffffffffffffffffffffffffffffffff16141515612b62577f654163525cabcfa0ce95ecb1f232c75746c89688c42e7e2d52df90d770fc9e578682604051612ae7929190614d62565b60405180910390a1828060010193505060008060008373ffffffffffffffffffffffffffffffffffffffff1673ffffffffffffffffffffffffffffffffffffffff16815260200190815260200160002060040160006101000a81548160ff021916908315150217905550612b5c60058261306d565b50612b68565b50612bce565b8367ffffffffffffffff168367ffffffffffffffff161015612b8a5750612bce565b7fa332e7b06782060530f8d1575fcf83b5e831fe3dd09c85e53b0351a7c38ceeac86604051612bb99190614e16565b60405180910390a16001945050505050612c16565b80806001019150506129c0565b507fa332e7b06782060530f8d1575fcf83b5e831fe3dd09c85e53b0351a7c38ceeac84604051612c0b9190614f2a565b60405180910390a150505b919050565b6000600115156000803373ffffffffffffffffffffffffffffffffffffffff1673ffffffffffffffffffffffffffffffffffffffff16815260200190815260200160002060040160009054906101000a900460ff1615151415612d27576000803373ffffffffffffffffffffffffffffffffffffffff1673ffffffffffffffffffffffffffffffffffffffff16815260200190815260200160002060008082016000905560018201600090556002820160006101000a81549067ffffffffffffffff02191690556002820160086101000a81549061ffff021916905560038201600090556004820160006101000a81549060ff02191690555050612d2060053361306d565b9050612d28565b5b90565b612d3361407d565b612d3b61407d565b60008090505b83518167ffffffffffffffff161015612dab57612d7e848267ffffffffffffffff16815181101515612d6f57fe5b906020019060200201516121b8565b828267ffffffffffffffff16603281101515612d9657fe5b60200201819052508080600101915050612d41565b5080915050919050565b60007f3000000000000000000000000000000000000000000000000000000000000000600160003373ffffffffffffffffffffffffffffffffffffffff1673ffffffffffffffffffffffffffffffffffffffff16815260200190815260200160002060090160019054906101000a90047f0100000000000000000000000000000000000000000000000000000000000000027effffffffffffffffffffffffffffffffffffffffffffffffffffffffffffff191614156130645743600160003373ffffffffffffffffffffffffffffffffffffffff1673ffffffffffffffffffffffffffffffffffffffff1681526020019081526020016000206001018190555084600160003373ffffffffffffffffffffffffffffffffffffffff1673ffffffffffffffffffffffffffffffffffffffff16815260200190815260200160002060020160146101000a81548167ffffffffffffffff021916908367ffffffffffffffff16021790555083600160003373ffffffffffffffffffffffffffffffffffffffff1673ffffffffffffffffffffffffffffffffffffffff168152602001908152602001600020600201601c6101000a81548161ffff021916908361ffff1602179055508267ffffffffffffffff16600160003373ffffffffffffffffffffffffffffffffffffffff1673ffffffffffffffffffffffffffffffffffffffff1681526020019081526020016000206003018190555081600160003373ffffffffffffffffffffffffffffffffffffffff1673ffffffffffffffffffffffffffffffffffffffff1681526020019081526020016000206004019080519060200190613023929190613ecc565b507fa332e7b06782060530f8d1575fcf83b5e831fe3dd09c85e53b0351a7c38ceeac336040516130539190614e72565b60405180910390a160019050613065565b5b949350505050565b600080600090505b83805490508167ffffffffffffffff161015613212578273ffffffffffffffffffffffffffffffffffffffff16848267ffffffffffffffff168154811015156130ba57fe5b9060005260206000200160009054906101000a900473ffffffffffffffffffffffffffffffffffffffff1673ffffffffffffffffffffffffffffffffffffffff1614156132055783600185805490500381548110151561311657fe5b9060005260206000200160009054906101000a900473ffffffffffffffffffffffffffffffffffffffff16848267ffffffffffffffff1681548110151561315957fe5b9060005260206000200160006101000a81548173ffffffffffffffffffffffffffffffffffffffff021916908373ffffffffffffffffffffffffffffffffffffffff1602179055508360018580549050038154811015156131b657fe5b9060005260206000200160006101000a81549073ffffffffffffffffffffffffffffffffffffffff0219169055600184818180549050039150816131fa91906140ac565b506001915050613218565b8080600101915050613075565b50600090505b92915050565b6000806006805490501415613255577f320000000000000000000000000000000000000000000000000000000000000090506137dd565b60008090505b6006805490508167ffffffffffffffff1610156137b857600060068267ffffffffffffffff1681548110151561328d57fe5b9060005260206000200160009054906101000a900473ffffffffffffffffffffffffffffffffffffffff1690506000808573ffffffffffffffffffffffffffffffffffffffff1673ffffffffffffffffffffffffffffffffffffffff16815260200190815260200160002060020160009054906101000a900467ffffffffffffffff1667ffffffffffffffff16600160008373ffffffffffffffffffffffffffffffffffffffff1673ffffffffffffffffffffffffffffffffffffffff16815260200190815260200160002060020160149054906101000a900467ffffffffffffffff1667ffffffffffffffff161115801561343057506000808573ffffffffffffffffffffffffffffffffffffffff1673ffffffffffffffffffffffffffffffffffffffff16815260200190815260200160002060020160089054906101000a900461ffff1661ffff16600160008373ffffffffffffffffffffffffffffffffffffffff1673ffffffffffffffffffffffffffffffffffffffff168152602001908152602001600020600201601c9054906101000a900461ffff1661ffff1611155b80156134bf57506000808573ffffffffffffffffffffffffffffffffffffffff1673ffffffffffffffffffffffffffffffffffffffff16815260200190815260200160002060030154600160008373ffffffffffffffffffffffffffffffffffffffff1673ffffffffffffffffffffffffffffffffffffffff1681526020019081526020016000206003015410155b156137aa5760008060008673ffffffffffffffffffffffffffffffffffffffff1673ffffffffffffffffffffffffffffffffffffffff16815260200190815260200160002060040160006101000a81548160ff02191690831515021790555061352960058561306d565b5083600160008373ffffffffffffffffffffffffffffffffffffffff1673ffffffffffffffffffffffffffffffffffffffff16815260200190815260200160002060020160006101000a81548173ffffffffffffffffffffffffffffffffffffffff021916908373ffffffffffffffffffffffffffffffffffffffff1602179055507f3100000000000000000000000000000000000000000000000000000000000000600160008373ffffffffffffffffffffffffffffffffffffffff1673ffffffffffffffffffffffffffffffffffffffff16815260200190815260200160002060090160016101000a81548160ff02191690837f01000000000000000000000000000000000000000000000000000000000000009004021790555061365160068261306d565b50600160008273ffffffffffffffffffffffffffffffffffffffff1673ffffffffffffffffffffffffffffffffffffffff16815260200190815260200160002060030154600260008373ffffffffffffffffffffffffffffffffffffffff1673ffffffffffffffffffffffffffffffffffffffff1681526020019081526020016000206000828254019250508190555060078190806001815401808255809150509060018203906000526020600020016000909192909190916101000a81548173ffffffffffffffffffffffffffffffffffffffff021916908373ffffffffffffffffffffffffffffffffffffffff160217905550507f654163525cabcfa0ce95ecb1f232c75746c89688c42e7e2d52df90d770fc9e578185604051613778929190614dda565b60405180910390a17f3000000000000000000000000000000000000000000000000000000000000000925050506137dd565b50808060010191505061325b565b507f310000000000000000000000000000000000000000000000000000000000000090505b919050565b6000806005805490501415613819577f32000000000000000000000000000000000000000000000000000000000000009050613e36565b60008090505b6005805490508167ffffffffffffffff161015613e1157600060058267ffffffffffffffff1681548110151561385157fe5b9060005260206000200160009054906101000a900473ffffffffffffffffffffffffffffffffffffffff169050600073ffffffffffffffffffffffffffffffffffffffff168173ffffffffffffffffffffffffffffffffffffffff161415801561390d5750600115156000808373ffffffffffffffffffffffffffffffffffffffff1673ffffffffffffffffffffffffffffffffffffffff16815260200190815260200160002060040160009054906101000a900460ff161515145b15613e03576000808273ffffffffffffffffffffffffffffffffffffffff1673ffffffffffffffffffffffffffffffffffffffff16815260200190815260200160002060020160089054906101000a900461ffff1661ffff16600160008673ffffffffffffffffffffffffffffffffffffffff1673ffffffffffffffffffffffffffffffffffffffff168152602001908152602001600020600201601c9054906101000a900461ffff1661ffff1611158015613a8857506000808273ffffffffffffffffffffffffffffffffffffffff1673ffffffffffffffffffffffffffffffffffffffff16815260200190815260200160002060020160009054906101000a900467ffffffffffffffff1667ffffffffffffffff16600160008673ffffffffffffffffffffffffffffffffffffffff1673ffffffffffffffffffffffffffffffffffffffff16815260200190815260200160002060020160149054906101000a900467ffffffffffffffff1667ffffffffffffffff1611155b8015613b1757506000808273ffffffffffffffffffffffffffffffffffffffff1673ffffffffffffffffffffffffffffffffffffffff16815260200190815260200160002060030154600160008673ffffffffffffffffffffffffffffffffffffffff1673ffffffffffffffffffffffffffffffffffffffff1681526020019081526020016000206003015410155b15613e025760008060008373ffffffffffffffffffffffffffffffffffffffff1673ffffffffffffffffffffffffffffffffffffffff16815260200190815260200160002060040160006101000a81548160ff021916908315150217905550613b8160058261306d565b5080600160008673ffffffffffffffffffffffffffffffffffffffff1673ffffffffffffffffffffffffffffffffffffffff16815260200190815260200160002060020160006101000a81548173ffffffffffffffffffffffffffffffffffffffff021916908373ffffffffffffffffffffffffffffffffffffffff1602179055507f3100000000000000000000000000000000000000000000000000000000000000600160008673ffffffffffffffffffffffffffffffffffffffff1673ffffffffffffffffffffffffffffffffffffffff16815260200190815260200160002060090160016101000a81548160ff02191690837f010000000000000000000000000000000000000000000000000000000000000090040217905550613ca960068561306d565b50600160008573ffffffffffffffffffffffffffffffffffffffff1673ffffffffffffffffffffffffffffffffffffffff16815260200190815260200160002060030154600260008673ffffffffffffffffffffffffffffffffffffffff1673ffffffffffffffffffffffffffffffffffffffff1681526020019081526020016000206000828254019250508190555060078490806001815401808255809150509060018203906000526020600020016000909192909190916101000a81548173ffffffffffffffffffffffffffffffffffffffff021916908373ffffffffffffffffffffffffffffffffffffffff160217905550507f654163525cabcfa0ce95ecb1f232c75746c89688c42e7e2d52df90d770fc9e578482604051613dd0929190614dda565b60405180910390a17f300000000000000000000000000000000000000000000000000000000000000092505050613e36565b5b50808060010191505061381f565b507f310000000000000000000000000000000000000000000000000000000000000090505b919050565b50805460018160011615610100020316600290046000825580601f10613e615750613e80565b601f016020900490600052602060002090810190613e7f91906140d8565b5b50565b5080546000825590600052602060002090810190613ea191906140d8565b50565b50805460008255601f016020900490600052602060002090810190613ec991906140d8565b50565b828054600181600116156101000203166002900490600052602060002090601f016020900481019282601f10613f0d57805160ff1916838001178555613f3b565b82800160010185558215613f3b579182015b82811115613f3a578251825591602001919060010190613f1f565b5b509050613f4891906140d8565b5090565b612580604051908101604052806032905b613f656140fd565b815260200190600190039081613f5d5790505090565b60c0604051908101604052806000815260200160008152602001600067ffffffffffffffff168152602001600061ffff168152602001600081526020016000151581525090565b6101a0604051908101604052806000815260200160008152602001600073ffffffffffffffffffffffffffffffffffffffff168152602001600067ffffffffffffffff168152602001600061ffff168152602001600081526020016060815260200160608152602001600067ffffffffffffffff168152602001606081526020016060815260200160001515815260200160007effffffffffffffffffffffffffffffffffffffffffffffffffffffffffffff191681525090565b615140604051908101604052806032905b614096614144565b81526020019060019003908161408e5790505090565b8154818355818111156140d3578183600052602060002091820191016140d291906140d8565b5b505050565b6140fa91905b808211156140f65760008160009055506001016140de565b5090565b90565b60c0604051908101604052806000815260200160008152602001600067ffffffffffffffff168152602001600061ffff168152602001600081526020016000151581525090565b6101a0604051908101604052806000815260200160008152602001600073ffffffffffffffffffffffffffffffffffffffff168152602001600067ffffffffffffffff168152602001600061ffff168152602001600081526020016060815260200160608152602001600067ffffffffffffffff168152602001606081526020016060815260200160001515815260200160007effffffffffffffffffffffffffffffffffffffffffffffffffffffffffffff191681525090565b600061420b8235615376565b905092915050565b600061421f8235615388565b905092915050565b600082601f830112151561423a57600080fd5b813561424d614248826151ce565b6151a1565b9150818183526020840193506020810190508385602084028201111561427257600080fd5b60005b838110156142a257816142888882614213565b845260208401935060208301925050600181019050614275565b5050505092915050565b60006142b8823561539a565b905092915050565b600082601f83011215156142d357600080fd5b81356142e66142e1826151f6565b6151a1565b9150808252602083016020830185838301111561430257600080fd5b61430d8382846153c8565b50505092915050565b600061432282356153a6565b905092915050565b600061433682356153b4565b905092915050565b60006020828403121561435057600080fd5b600061435e848285016141ff565b91505092915050565b60006020828403121561437957600080fd5b600061438784828501614213565b91505092915050565b600080604083850312156143a357600080fd5b60006143b185828601614213565b92505060206143c2858286016142ac565b9150509250929050565b600080604083850312156143df57600080fd5b60006143ed85828601614213565b925050602083013567ffffffffffffffff81111561440a57600080fd5b614416858286016142c0565b9150509250929050565b60006020828403121561443257600080fd5b600082013567ffffffffffffffff81111561444c57600080fd5b61445884828501614227565b91505092915050565b60008060006060848603121561447657600080fd5b60006144848682870161432a565b935050602061449586828701614316565b92505060406144a68682870161432a565b9150509250925092565b600080600080608085870312156144c657600080fd5b60006144d48782880161432a565b94505060206144e587828801614316565b93505060406144f68782880161432a565b925050606085013567ffffffffffffffff81111561451357600080fd5b61451f878288016142c0565b91505092959194509250565b614534816152e0565b82525050565b600061454582615268565b8084526020840193506145578361522f565b60005b828110156145895761456d86835161452b565b614576826152ac565b915060208601955060018101905061455a565b50849250505092915050565b60006145a08261525d565b8084526020840193506145b283615222565b60005b828110156145e4576145c886835161452b565b6145d18261529f565b91506020860195506001810190506145b5565b50849250505092915050565b60006145fb82615273565b80845260208401935061460d8361523c565b60005b8281101561463f576146238683516146fb565b61462c826152b9565b9150602086019550600181019050614610565b50849250505092915050565b6146548161527e565b61465d82615249565b60005b8281101561468f57614673858351614a5e565b61467c826152c6565b915060c085019450600181019050614660565b5050505050565b60006146a182615289565b836020820285016146b185615253565b60005b848110156146ea5783830388526146cc838351614c07565b92506146d7826152d3565b91506020880197506001810190506146b4565b508196508694505050505092915050565b614704816152f2565b82525050565b614713816152fe565b82525050565b600061472482615294565b8084526147388160208601602086016153d7565b6147418161540a565b602085010191505092915050565b6000601182527f456e6f7567682056616c696461746f72730000000000000000000000000000006020830152604082019050919050565b6000601082527f50726f76696465722055706461746564000000000000000000000000000000006020830152604082019050919050565b6000600f82527f52657175657374205570646174656400000000000000000000000000000000006020830152604082019050919050565b6000601f82527f56616c69646174696f6e2041737369676e656420746f2050726f7669646572006020830152604082019050919050565b6000600f82527f526571756573742053746f7070656400000000000000000000000000000000006020830152604082019050919050565b6000601d82527f5265717565737420436f6d7075746174696f6e20436f6d706c657465640000006020830152604082019050919050565b6000600e82527f50726f76696465722041646465640000000000000000000000000000000000006020830152604082019050919050565b6000601082527f56616c696461746f72205369676e6564000000000000000000000000000000006020830152604082019050919050565b6000601582527f4e6f7420456e6f7567682056616c696461746f727300000000000000000000006020830152604082019050919050565b6000601082527f526571756573742041737369676e6564000000000000000000000000000000006020830152604082019050919050565b6000601382527f56616c69646174696f6e20436f6d706c657465000000000000000000000000006020830152604082019050919050565b6000600d82527f52657175657374204164646564000000000000000000000000000000000000006020830152604082019050919050565b60c0820160008201516149f96000850182614d44565b506020820151614a0c6020850182614d44565b506040820151614a1f6040850182614d53565b506060820151614a326060850182614d35565b506080820151614a456080850182614d44565b5060a0820151614a5860a08501826146fb565b50505050565b60c082016000820151614a746000850182614d44565b506020820151614a876020850182614d44565b506040820151614a9a6040850182614d53565b506060820151614aad6060850182614d35565b506080820151614ac06080850182614d44565b5060a0820151614ad360a08501826146fb565b50505050565b60006101a083016000830151614af26000860182614d44565b506020830151614b056020860182614d44565b506040830151614b18604086018261452b565b506060830151614b2b6060860182614d53565b506080830151614b3e6080860182614d35565b5060a0830151614b5160a0860182614d44565b5060c083015184820360c0860152614b698282614719565b91505060e083015184820360e0860152614b838282614719565b915050610100830151614b9a610100860182614d53565b50610120830151848203610120860152614bb48282614595565b915050610140830151848203610140860152614bd082826145f0565b915050610160830151614be76101608601826146fb565b50610180830151614bfc61018086018261470a565b508091505092915050565b60006101a083016000830151614c206000860182614d44565b506020830151614c336020860182614d44565b506040830151614c46604086018261452b565b506060830151614c596060860182614d53565b506080830151614c6c6080860182614d35565b5060a0830151614c7f60a0860182614d44565b5060c083015184820360c0860152614c978282614719565b91505060e083015184820360e0860152614cb18282614719565b915050610100830151614cc8610100860182614d53565b50610120830151848203610120860152614ce28282614595565b915050610140830151848203610140860152614cfe82826145f0565b915050610160830151614d156101608601826146fb565b50610180830151614d2a61018086018261470a565b508091505092915050565b614d3e8161532a565b82525050565b614d4d81615358565b82525050565b614d5c81615362565b82525050565b6000606082019050614d77600083018561452b565b614d84602083018461452b565b8181036040830152614d95816147f4565b90509392505050565b6000606082019050614db3600083018561452b565b614dc0602083018461452b565b8181036040830152614dd1816148d0565b90509392505050565b6000606082019050614def600083018561452b565b614dfc602083018461452b565b8181036040830152614e0d8161493e565b90509392505050565b6000604082019050614e2b600083018461452b565b8181036020830152614e3c8161474f565b905092915050565b6000604082019050614e59600083018461452b565b8181036020830152614e6a81614786565b905092915050565b6000604082019050614e87600083018461452b565b8181036020830152614e98816147bd565b905092915050565b6000604082019050614eb5600083018461452b565b8181036020830152614ec68161482b565b905092915050565b6000604082019050614ee3600083018461452b565b8181036020830152614ef481614862565b905092915050565b6000604082019050614f11600083018461452b565b8181036020830152614f2281614899565b905092915050565b6000604082019050614f3f600083018461452b565b8181036020830152614f5081614907565b905092915050565b6000604082019050614f6d600083018461452b565b8181036020830152614f7e81614975565b905092915050565b6000604082019050614f9b600083018461452b565b8181036020830152614fac816149ac565b905092915050565b60006020820190508181036000830152614fce818461453a565b905092915050565b600061258082019050614fec600083018461464b565b92915050565b6000602082019050818103600083015261500c8184614696565b905092915050565b600060208201905061502960008301846146fb565b92915050565b600060c08201905061504460008301846149e3565b92915050565b600060208201905081810360008301526150648184614ad9565b905092915050565b60006020820190506150816000830184614d44565b92915050565b60006101608201905061509d600083018e614d44565b6150aa602083018d614d44565b6150b7604083018c61452b565b6150c4606083018b614d53565b6150d1608083018a614d35565b6150de60a0830189614d44565b81810360c08301526150f08188614719565b905081810360e08301526151048187614719565b9050615114610100830186614d53565b6151226101208301856146fb565b61513061014083018461470a565b9c9b505050505050505050505050565b600060c0820190506151556000830189614d44565b6151626020830188614d44565b61516f6040830187614d53565b61517c6060830186614d35565b6151896080830185614d44565b61519660a08301846146fb565b979650505050505050565b6000604051905081810181811067ffffffffffffffff821117156151c457600080fd5b8060405250919050565b600067ffffffffffffffff8211156151e557600080fd5b602082029050602081019050919050565b600067ffffffffffffffff82111561520d57600080fd5b601f19601f8301169050602081019050919050565b6000602082019050919050565b6000602082019050919050565b6000602082019050919050565b6000819050919050565b6000819050919050565b600081519050919050565b600081519050919050565b600081519050919050565b600060329050919050565b600060329050919050565b600081519050919050565b6000602082019050919050565b6000602082019050919050565b6000602082019050919050565b6000602082019050919050565b6000602082019050919050565b60006152eb82615338565b9050919050565b60008115159050919050565b60007fff0000000000000000000000000000000000000000000000000000000000000082169050919050565b600061ffff82169050919050565b600073ffffffffffffffffffffffffffffffffffffffff82169050919050565b6000819050919050565b600067ffffffffffffffff82169050919050565b600061538182615338565b9050919050565b600061539382615338565b9050919050565b60008115159050919050565b600061ffff82169050919050565b600067ffffffffffffffff82169050919050565b82818337600083830152505050565b60005b838110156153f55780820151818401526020810190506153da565b83811115615404576000848401525b50505050565b6000601f19601f830116905091905056fea265627a7a72305820aefb623a986bb21116e382870b87143b6c8e98eae3acbce2a2e33473835612586c6578706572696d656e74616cf50037",
  "source": "/////////////////////////////////////////////////////////////////////////////////////\r\n//version 2.0\r\n//Author: Taurus\r\n//Copyright: tlu4@lsu.edu\r\n//\r\n//NOTE: non-view functions cannot return values, only possible way is event\r\n//Changes from v0.9x. Each node has unique address as identifier. All pools removed \r\n//All req and prov handled in the mapping.\r\n//update 12/12: pools cannot be removed, since we need to track who are active, cannot search in mapping.\r\n///////////////////////////////////////////////////////////////////////////////////////\r\npragma solidity ^0.5.0;\r\npragma experimental ABIEncoderV2;   //return self-defined type\r\n\r\ncontract TaskContract {\r\n    //list\r\n    mapping (address => Provider) public providerList;   //All here\r\n    mapping (address => Request)  public requestList;    //All here\r\n    mapping (address => uint256)  public balanceList;    //reqID => balance\r\n \r\n    //ID - counter\r\n    uint256 private providerCount;                       //+1 each time\r\n    uint256 private requestCount;\r\n\r\n    constructor() public {                               //sol 5.0 syntax\r\n        providerCount = 0;\r\n        requestCount = 0;\r\n    }\r\n\r\n    struct Request {\r\n        uint256 reqID;                      //requestID is not identifier \r\n        uint256 blockNumber;                //record the time of submition\r\n        address payable provider;           //record the provider assigned to this request\r\n        uint64  time;                       //time\r\n        uint16  target;                     //target 0-100.00\r\n        uint256 price;                      //the max amount he can pay\r\n        bytes   dataID;                     //dataID used to fetch the off-chain data\r\n        bytes   resultID;                   //dataID to fetch the result\r\n        uint64  numValidations;             //user defined the validation\r\n        address payable []  validators;     //multisignature from validations\r\n        bool[]  signatures;                 //true or false array\r\n        bool    isValid;                    //the final flag\r\n        byte    status;                     //0: 'pending', 1:'providing', 2: validating, 3: complete\r\n    }\r\n\r\n    struct Provider {\r\n        uint256 provID;\r\n        uint256 blockNumber;\r\n        uint64  maxTime;                    //max time\r\n        uint16  maxTarget;                  //max target he need\r\n        uint256 minPrice;                   //lowest price can accept\r\n        bool    available;                  //if ready to be assigned\r\n    }\r\n\r\n    event SystemInfo        (address payable addr, bytes info);\r\n    event PairingInfo       (address payable reqAddr, address payable provAddr, bytes info);\r\n\r\n    address payable [] providerPool;\r\n    address payable [] pendingPool;\r\n    address payable [] providingPool;\r\n    address payable [] validatingPool;\r\n    /////////////////////////////////////////////////////////////////////////////////////\r\n\r\n    \r\n    // Function called to become a provider. New on List, Map and Pool. \r\n    // NOTE: cannot use to update. You must stop a previous one and start a new one.\r\n    // TIPS: gas cost: don't create local copy and write back, modify the storage directly.\r\n    //gas cost 165K without event / 167K with event / 92K overwrite\r\n    function startProviding(uint64 maxTime, uint16 maxTarget, uint64 minPrice) public returns (bool) {\r\n        if(providerList[msg.sender].blockNumber == 0){              //this is new\r\n            // register a new provider object in the List and map              \r\n            providerList[msg.sender].provID         = providerCount;    //cost 50k per item edit\r\n            providerList[msg.sender].blockNumber    = block.number;           \r\n            providerList[msg.sender].maxTime        = maxTime;\r\n            providerList[msg.sender].maxTime        = maxTime;       \r\n            providerList[msg.sender].maxTarget      = maxTarget;\r\n            providerList[msg.sender].minPrice       = minPrice;\r\n            providerList[msg.sender].available      = true;             //turn on the flag at LAST\r\n            // ready for the next       \r\n            providerPool.push(msg.sender);\r\n            emit SystemInfo (msg.sender, \"Provider Added\");\r\n            providerCount++;\r\n            assignProvider(msg.sender);\r\n            return true;\r\n        } else {\r\n            if(providerList[msg.sender].available == true){                //can only modify available provider\r\n                providerList[msg.sender].blockNumber    = block.number;         \r\n                providerList[msg.sender].maxTime        = maxTime;       \r\n                providerList[msg.sender].maxTarget      = maxTarget;\r\n                providerList[msg.sender].minPrice       = minPrice;\r\n                emit SystemInfo(msg.sender,'Provider Updated');\r\n                assignProvider(msg.sender);\r\n                return true;\r\n            }\r\n        }\r\n    }\r\n    // Stop a provider, if you know a provider ID. Get em using getProvID()\r\n    // Must be sent from the provider address or it will be failed.\r\n    function stopProviding() public returns (bool) {\r\n        // If the sender is currently an active provider\r\n        if (providerList[msg.sender].available == true){               //can only stop available provider            \r\n            delete providerList[msg.sender];                           //delete from List\r\n            return ArrayPop(providerPool, msg.sender);                 //delete from Pool    \r\n            emit SystemInfo(msg.sender, 'Provider Stopped');         \r\n        }\r\n    }\r\n    //update a provider, you must know the provID and must sent from right addr\r\n    function updateProvider(uint64 maxTime, uint16 maxTarget, uint64 minPrice) public returns (bool) {      \r\n        if(providerList[msg.sender].available == true){                //can only modify available provider\r\n            providerList[msg.sender].blockNumber    = block.number;         \r\n            providerList[msg.sender].maxTime        = maxTime;       \r\n            providerList[msg.sender].maxTarget      = maxTarget;\r\n            providerList[msg.sender].minPrice       = minPrice;\r\n            emit SystemInfo(msg.sender,'Provider Updated');\r\n            assignProvider(msg.sender);\r\n            return true;\r\n        }\r\n    }\r\n\r\n    // Send a request from user to blockchain.\r\n    // Assumes price is including the cost for verification\r\n    function startRequest(uint64 time, uint16 target, uint64 price, bytes memory dataID) payable public returns (bool) {\r\n        if(requestList[msg.sender].blockNumber == 0){\r\n            //register on List\r\n            requestList[msg.sender].reqID         = requestCount;\r\n            requestList[msg.sender].blockNumber   = block.number;  \r\n            requestList[msg.sender].provider      = address(0);      \r\n            requestList[msg.sender].time          = time;    \r\n            requestList[msg.sender].target        = target;\r\n            requestList[msg.sender].price         = price;\r\n            requestList[msg.sender].dataID        = dataID;\r\n            requestList[msg.sender].numValidations = 1;\r\n            requestList[msg.sender].status = '0' ;     //pending 0x30, not 0\r\n            pendingPool.push(msg.sender);\r\n            emit SystemInfo (msg.sender, \"Request Added\");\r\n            \r\n            requestCount++;     \r\n            assignRequest(msg.sender);\r\n            return true;\r\n        } else {\r\n            if(requestList[msg.sender].status == '0' ){                   //can only update pending request\r\n                requestList[msg.sender].blockNumber    = block.number;         \r\n                requestList[msg.sender].time        = time;       \r\n                requestList[msg.sender].target      = target;\r\n                requestList[msg.sender].price       = price;\r\n                requestList[msg.sender].dataID      = dataID;\r\n                emit SystemInfo(msg.sender, 'Request Updated');\r\n                return true;\r\n            }\r\n        }\r\n    }\r\n    function stopRequest() public returns (bool){\r\n        if (requestList[msg.sender].status == '0'){                   //can only cancel owned pending request             \r\n            delete requestList[msg.sender];                           //delete from List             \r\n            emit SystemInfo(msg.sender, 'Request Stopped');\r\n            return ArrayPop(pendingPool, msg.sender);                 //delete from Pool   \r\n        }\r\n    }\r\n    function updateRequest(uint64 time, uint16 target, uint64 price, bytes memory dataID) payable public returns (bool) {      \r\n        if(requestList[msg.sender].status == '0' ){                   //can only update pending request\r\n            requestList[msg.sender].blockNumber    = block.number;         \r\n            requestList[msg.sender].time        = time;       \r\n            requestList[msg.sender].target      = target;\r\n            requestList[msg.sender].price       = price;\r\n            requestList[msg.sender].dataID      = dataID;\r\n            emit SystemInfo(msg.sender, 'Request Updated');\r\n            return true;\r\n        }\r\n    }\r\n\r\n    // Search in the requestPool, find a job for current provider. Triggered by startProviding\r\n    // Return true if a match or false if not.\r\n    // Returns: 0: successfully assigned\r\n    //          1: searched all providers but find no match\r\n    //          2: no available provider right now\r\n    //          3: failure during poping pool\r\n    function assignProvider(address payable provAddr) private returns (byte){\r\n        if(pendingPool.length == 0) return '2';\r\n        else {\r\n            //search throught the requestPool\r\n            for (uint64 i = 0; i < pendingPool.length; i++){\r\n                //save the re-usable reqID , may save gas\r\n                address payable reqAddr = pendingPool[i];    \r\n                if( requestList[reqAddr].time     <= providerList[provAddr].maxTime &&\r\n                    requestList[reqAddr].target   <= providerList[provAddr].maxTarget &&\r\n                    requestList[reqAddr].price    >= providerList[provAddr].minPrice){\r\n                        //meet the requirement, assign the task\r\n                        //update provider\r\n                        providerList[provAddr].available = false;\r\n                        ArrayPop(providerPool, provAddr);\r\n\r\n                        //update request\r\n                        requestList[reqAddr].provider = provAddr;\r\n                        requestList[reqAddr].status = '1';    //providing\r\n                        ArrayPop(pendingPool, reqAddr);\r\n\r\n                        //update balanceList            addr here is requester's\r\n                        balanceList[reqAddr] += requestList[reqAddr].price; \r\n\r\n                        providingPool.push(reqAddr);                       \r\n                        //status move from pending to providing\r\n                        emit PairingInfo(reqAddr, provAddr, \"Request Assigned\");\r\n                        return '0';                   \r\n                }                \r\n            }\r\n            //after for loop and no match\r\n            return '1';\r\n        }\r\n    }\r\n\r\n    // Assigning one task to one of the available providers. Only called from requestTask (private)\r\n    // Search in the providerPool, if no match in the end, return false\r\n    //could only assign one task at a time\r\n    //auto sel the first searching result for now, no comparation between multiple availability.\r\n    //TODO: need ot add preference next patch\r\n    // Returns: 0: successfully assigned\r\n    //          1: searched all providers but find no match\r\n    //          2: no available provider right now\r\n    //          3: failure during poping pool\r\n    function assignRequest(address payable reqAddr) private returns (byte) {\r\n        //provider availability is checked in pool not in list\r\n        if (providerPool.length == 0)   return '2';\r\n        else {            //if any provider in pool\r\n            for (uint64 i = 0; i < providerPool.length; i++) {\r\n                // save the provider's addr, reusable and save gas cost\r\n                address payable provAddr  = providerPool[i];\r\n                if(provAddr != address(0) && providerList[provAddr].available == true){\r\n                    // Check if request conditions meet the providers requirements\r\n                    if (requestList[reqAddr].target <= providerList[provAddr].maxTarget && \r\n                        requestList[reqAddr].time <= providerList[provAddr].maxTime && \r\n                        requestList[reqAddr].price >= providerList[provAddr].minPrice) {\r\n                        \r\n                        //update provider:\r\n                        providerList[provAddr].available = false;\r\n                        ArrayPop(providerPool, provAddr);\r\n\r\n                        //update request\r\n                        requestList[reqAddr].provider = provAddr;\r\n                        requestList[reqAddr].status = '1';    //providing\r\n                        ArrayPop(pendingPool, reqAddr);\r\n\r\n                        //update balanceList              \r\n                        balanceList[reqAddr] += requestList[reqAddr].price; \r\n\r\n                        providingPool.push(reqAddr);\r\n                        emit PairingInfo(reqAddr, provAddr, \"Request Assigned\"); // Let provider listen for this event to see he was selected\r\n                        return '0';\r\n                    }\r\n                }\r\n            }\r\n            // No provider was found matching the criteria -- request failed\r\n            //requestList[reqID].addr.transfer(requestList[reqID].price); // Returns the ether to the sender\r\n            return '1';\r\n        }\r\n    }\r\n\r\n    // Provider will call this when they are done and the data is available.\r\n    // This will invoke the validation stage but only when the request got enough validators\r\n    // that req could be moved from pool and marked,\r\n    // Or that req stays providing\r\n    function completeRequest(address payable reqAddr, bytes memory resultID) public returns (bool) {\r\n        // Confirm msg.sender is actually the provider of the task he claims\r\n        if (msg.sender == requestList[reqAddr].provider) {\r\n            //change request obj\r\n            requestList[reqAddr].status = '2';    //validating\r\n            requestList[reqAddr].resultID = resultID;\r\n            //move from providing pool to validating Pool.\r\n            ArrayPop(providingPool, reqAddr);\r\n            validatingPool.push(reqAddr);\r\n            //release provider (not necessarily depend on provider)\r\n            //providerList[providerID[msg.sender]].available = true;\r\n            emit SystemInfo(reqAddr, 'Request Computation Completed');\r\n            //start validation process\r\n            return validateRequest(reqAddr);\r\n        }\r\n        else {\r\n            return false;\r\n        }\r\n    }\r\n\r\n    // Called by assignRequest before finalizing stuff. Contract checks with validators\r\n    // Returns false if there wasnt enough free providers to send out the required number of validation requests\r\n    // need validation from 1/10 of nodes -- could change\r\n    function validateRequest(address payable reqAddr) public returns (bool) {\r\n        uint64 numValidatorsNeeded = requestList[reqAddr].numValidations; \r\n        //uint numValidators = providerCount / 10; \r\n        uint64 validatorsFound = 0;\r\n        //select # of available provider from the pool and force em to do the validation\r\n        for (uint64 i = 0; i < providerPool.length; i++) {\r\n            //get provider ID\r\n            address payable provID = providerPool[i];\r\n            if(provID != requestList[reqAddr].provider){   //validator and computer cannot be same\r\n                //EVENT: informs validator that they were selected and need to validate\r\n                emit PairingInfo(reqAddr, provID, 'Validation Assigned to Provider');\r\n                validatorsFound++;\r\n                //remove the providers availablity and pop from pool\r\n                providerList[provID].available = false;\r\n                ArrayPop(providerPool, provID);\r\n            } else continue;\r\n            //check whether got enough validator\r\n            if(validatorsFound < numValidatorsNeeded){\r\n                continue;\r\n            }\r\n            else{       //enough validator\r\n                emit SystemInfo(reqAddr, 'Enough Validators');\r\n                return true;\r\n                break;\r\n            }\r\n            //loop until certain # of validators selected\r\n        }   \r\n        //exit loop without enough validators    \r\n        emit SystemInfo(reqAddr, 'Not Enough Validators');\r\n    }\r\n\r\n    // needs to be more secure by ensuring the submission is coming from someone legit \r\n    // similar to completeTask but this will sign the validation list of the target Task\r\n    //TODO: the money part is ommited for now\r\n    function submitValidation(address payable reqAddr, bool result) public returns (bool) {\r\n        // Pay the validator \r\n        // uint partialPayment = requestList[reqID].price / 100; // amount each validator is paid\r\n        // msg.sender.transfer(partialPayment);\r\n        // balanceList[requestList[reqID].addr] -= partialPayment;\r\n        if(msg.sender != requestList[reqAddr].provider) {     //validator cannot be provider\r\n            requestList[reqAddr].validators.push(msg.sender);     //push array\r\n            requestList[reqAddr].signatures.push(result);     //edit mapping\r\n        }\r\n        //emit ValidationInfo(reqID, provID, 'Validator Signed');\r\n        //check if valid\r\n        \r\n        emit PairingInfo(reqAddr, msg.sender, 'Validator Signed');\r\n       \r\n        // If enough validations have been submitted\r\n        if (requestList[reqAddr].validators.length == requestList[reqAddr].numValidations) {\r\n            //return checkValidation(reqID, requestList[reqID].price - requestList[reqID].numValidationsNeeded * partialPayment);\r\n            //checkValidation(reqID);\r\n        }\r\n    }\r\n    \r\n    function checkValidation(address payable reqAddr) public returns (bool) {\r\n        // Add up successful validations\r\n        bool flag = false;\r\n        uint64 successCount = 0;\r\n        for (uint64 i=0; i<requestList[reqAddr].validators.length; i++) {\r\n            if (requestList[reqAddr].signatures[i] == true) successCount++;\r\n        }\r\n        // if 2/3 of validation attempts were successful\r\n        // TODO: determine the fraction\r\n        if (successCount  >= requestList[reqAddr].numValidations) { \r\n            // if 2/3 of validations were valid then provider gets remainder of money\r\n            //requestList[reqID].provider.transfer(payment); \r\n            //balanceList[requestList[reqID].addr] -= payment;\r\n            //TODO: [important] leave out the payment part for now.\r\n            requestList[reqAddr].isValid = true; // Task was successfully completed! \r\n            flag = true;\r\n        }\r\n        // otherwise, work was invalid, the providers payment goes back to requester\r\n        else {\r\n            //requestList[reqID].addr.transfer(payment);\r\n            //balanceList[requestList[reqID].addr] -= payment;\r\n        }\r\n        // EVENT: task is done whether successful or not\r\n        //emit TaskCompleted(requestList[reqID].addr, reqID);\r\n        emit SystemInfo(reqAddr, 'Validation Complete');\r\n        //popout from pool\r\n        flag = flag && ArrayPop(validatingPool, reqAddr);\r\n\r\n        return flag;\r\n    }\r\n\r\n/////////////////////////////////////////////////////////////////////\r\n    // Used to dynamically remove elements from array of open provider spaces. \r\n    // Using a swap and delete method, search for the desired addr throughout the whole array\r\n    // delete the desired and swap the whole with last element\r\n    function ArrayPop(address payable [] storage array, address payable target) private returns (bool) {\r\n        for(uint64 i = 0; i < array.length; i++){\r\n            if (array[i] == target) {\r\n                //swap last element with hole\r\n                array[i] = array[array.length-1];\r\n                //delete last item\r\n                delete array[array.length-1];\r\n                //decrease size\r\n                array.length -= 1;\r\n                return true;\r\n            }\r\n        }\r\n        return false;   //fail to search: no matching in pool\r\n    }\r\n    /////////////////////////////////////////////////////////////////////////////////\r\n    //some helpers defined here\r\n\r\n    function getProvider(address payable ID) public view returns(Provider memory){\r\n        return providerList[ID];\r\n    }\r\n    function getRequest(address payable ID) public view returns (Request memory){\r\n\t    return requestList[ID];\r\n    }\r\n    function getProviderCount() public view returns (uint256){\r\n        return providerCount;\r\n    }\r\n    function getRequestCount() public view returns (uint256){\r\n        return requestCount;\r\n    }\r\n\r\n    function getProviderPool() public view returns (address payable [] memory){\r\n        return providerPool;\r\n    }\r\n    function getPendingPool() public view returns (address payable [] memory){\r\n        return pendingPool;\r\n    }\r\n    function getValidatingPool() public view returns (address payable [] memory){\r\n        return validatingPool;\r\n    }\r\n    function getProvidingPool() public view returns (address payable [] memory){\r\n        return providingPool;\r\n    }\r\n\r\n    function getProviderPoolSize() public view returns (uint256){\r\n        return providerPool.length;\r\n    }\r\n    function getRequestPoolSize() public view returns (uint256){\r\n        return pendingPool.length;\r\n    }\r\n\r\n\r\n    //function getBalance(address addr) public view returns (uint256){\r\n    //    return balanceList[addr];\r\n    //}\r\n    function listRequests(address payable[] memory IDList) public view returns(Request[50] memory){\r\n\t    Request[50] memory allRequest;\r\n\t    for (uint64 i = 0; i < IDList.length; i++){\r\n\t\t    allRequest[i] = getRequest(IDList[i]);\r\n\t    }\r\n\t    return allRequest;\r\n    }\r\n    function listProviders(address payable[] memory IDList) public view returns(Provider[50] memory){\r\n        Provider[50] memory allProvider;\r\n        //address addr;\r\n        for (uint64 i = 0; i < IDList.length;i++){\r\n            allProvider[i] = getProvider(IDList[i]);\r\n        }\r\n        return allProvider;\r\n    }\r\n/*    function listAllRequests() public view returns(Request[50] memory){\r\n\t    Request[50] memory allRequest;\r\n\t    for (uint64 i = 0; i < requestCount; i++){\r\n\t\t    allRequest[i] = getRequest(i);\r\n\t    }\r\n\t    return allRequest;\r\n    }\r\n    function listAllProviders() public view returns(Provider[50] memory){\r\n\t    Provider[50] memory allProvider;\r\n\t    for (uint64 i = 0; i < providerCount; i++){\r\n\t\t    allProvider[i] = getProvider(i);\r\n\t    }\r\n\t    return allProvider;\r\n    }\r\n*/\r\n\r\n}\r\n",
  "sourcePath": "C:/Users/lutao/Documents/gitLab/bcai_v2.0/contracts/bcai_2.0.sol",
  "compiler": {
    "name": "solc",
    "version": "0.5.1+commit.c8a2cb62.Emscripten.clang"
  },
  "schemaVersion": "3.0.0-beta.2",
  "updatedAt": "2018-12-19T19:33:55.465Z",
  "devdoc": {
    "methods": {}
  },
  "userdoc": {
    "methods": {
      "getProvider(address)": {
        "notice": "//////////////////////////////////////////////////////////////////////////////"
      },
      "startProviding(uint64,uint16,uint64)": {
        "notice": "//////////////////////////////////////////////////////////////////////////////////"
      }
    }
  }
}