{
  "contractName": "TaskContract",
  "abi": [
    {
      "constant": true,
      "inputs": [
        {
          "name": "",
          "type": "address"
        }
      ],
      "name": "requestList",
      "outputs": [
        {
          "name": "reqID",
          "type": "uint256"
        },
        {
          "name": "blockNumber",
          "type": "uint256"
        },
        {
          "name": "provider",
          "type": "address"
        },
        {
          "name": "time",
          "type": "uint64"
        },
        {
          "name": "target",
          "type": "uint16"
        },
        {
          "name": "price",
          "type": "uint256"
        },
        {
          "name": "dataID",
          "type": "bytes"
        },
        {
          "name": "resultID",
          "type": "bytes"
        },
        {
          "name": "numValidations",
          "type": "uint64"
        },
        {
          "name": "isValid",
          "type": "bool"
        },
        {
          "name": "status",
          "type": "bytes1"
        }
      ],
      "payable": false,
      "stateMutability": "view",
      "type": "function"
    },
    {
      "constant": true,
      "inputs": [
        {
          "name": "",
          "type": "address"
        }
      ],
      "name": "providerList",
      "outputs": [
        {
          "name": "provID",
          "type": "uint256"
        },
        {
          "name": "blockNumber",
          "type": "uint256"
        },
        {
          "name": "maxTime",
          "type": "uint64"
        },
        {
          "name": "maxTarget",
          "type": "uint16"
        },
        {
          "name": "minPrice",
          "type": "uint256"
        },
        {
          "name": "available",
          "type": "bool"
        }
      ],
      "payable": false,
      "stateMutability": "view",
      "type": "function"
    },
    {
      "constant": true,
      "inputs": [
        {
          "name": "",
          "type": "address"
        }
      ],
      "name": "balanceList",
      "outputs": [
        {
          "name": "",
          "type": "uint256"
        }
      ],
      "payable": false,
      "stateMutability": "view",
      "type": "function"
    },
    {
      "inputs": [],
      "payable": false,
      "stateMutability": "nonpayable",
      "type": "constructor"
    },
    {
      "anonymous": false,
      "inputs": [
        {
          "indexed": false,
          "name": "reqAddr",
          "type": "address"
        },
        {
          "indexed": false,
          "name": "info",
          "type": "bytes"
        },
        {
          "indexed": false,
          "name": "extra",
          "type": "bytes"
        }
      ],
      "name": "IPFSInfo",
      "type": "event"
    },
    {
      "anonymous": false,
      "inputs": [
        {
          "indexed": false,
          "name": "reqAddr",
          "type": "address"
        },
        {
          "indexed": false,
          "name": "info",
          "type": "bytes"
        }
      ],
      "name": "SystemInfo",
      "type": "event"
    },
    {
      "anonymous": false,
      "inputs": [
        {
          "indexed": false,
          "name": "reqAddr",
          "type": "address"
        },
        {
          "indexed": false,
          "name": "provAddr",
          "type": "address"
        },
        {
          "indexed": false,
          "name": "info",
          "type": "bytes"
        }
      ],
      "name": "PairingInfo",
      "type": "event"
    },
    {
      "anonymous": false,
      "inputs": [
        {
          "indexed": false,
          "name": "reqAddr",
          "type": "address"
        },
        {
          "indexed": false,
          "name": "provAddr",
          "type": "address"
        },
        {
          "indexed": false,
          "name": "info",
          "type": "bytes"
        },
        {
          "indexed": false,
          "name": "extra",
          "type": "bytes"
        }
      ],
      "name": "PairingInfoLong",
      "type": "event"
    },
    {
      "constant": false,
      "inputs": [
        {
          "name": "maxTime",
          "type": "uint64"
        },
        {
          "name": "maxTarget",
          "type": "uint16"
        },
        {
          "name": "minPrice",
          "type": "uint64"
        }
      ],
      "name": "startProviding",
      "outputs": [
        {
          "name": "",
          "type": "bool"
        }
      ],
      "payable": false,
      "stateMutability": "nonpayable",
      "type": "function"
    },
    {
      "constant": false,
      "inputs": [],
      "name": "stopProviding",
      "outputs": [
        {
          "name": "",
          "type": "bool"
        }
      ],
      "payable": false,
      "stateMutability": "nonpayable",
      "type": "function"
    },
    {
      "constant": false,
      "inputs": [
        {
          "name": "maxTime",
          "type": "uint64"
        },
        {
          "name": "maxTarget",
          "type": "uint16"
        },
        {
          "name": "minPrice",
          "type": "uint64"
        }
      ],
      "name": "updateProvider",
      "outputs": [
        {
          "name": "",
          "type": "bool"
        }
      ],
      "payable": false,
      "stateMutability": "nonpayable",
      "type": "function"
    },
    {
      "constant": false,
      "inputs": [
        {
          "name": "time",
          "type": "uint64"
        },
        {
          "name": "target",
          "type": "uint16"
        },
        {
          "name": "price",
          "type": "uint64"
        },
        {
          "name": "dataID",
          "type": "bytes"
        }
      ],
      "name": "startRequest",
      "outputs": [
        {
          "name": "",
          "type": "bool"
        }
      ],
      "payable": true,
      "stateMutability": "payable",
      "type": "function"
    },
    {
      "constant": false,
      "inputs": [],
      "name": "stopRequest",
      "outputs": [
        {
          "name": "",
          "type": "bool"
        }
      ],
      "payable": false,
      "stateMutability": "nonpayable",
      "type": "function"
    },
    {
      "constant": false,
      "inputs": [
        {
          "name": "time",
          "type": "uint64"
        },
        {
          "name": "target",
          "type": "uint16"
        },
        {
          "name": "price",
          "type": "uint64"
        },
        {
          "name": "dataID",
          "type": "bytes"
        }
      ],
      "name": "updateRequest",
      "outputs": [
        {
          "name": "",
          "type": "bool"
        }
      ],
      "payable": true,
      "stateMutability": "payable",
      "type": "function"
    },
    {
      "constant": false,
      "inputs": [
        {
          "name": "reqAddr",
          "type": "address"
        },
        {
          "name": "resultID",
          "type": "bytes"
        }
      ],
      "name": "completeRequest",
      "outputs": [
        {
          "name": "",
          "type": "bool"
        }
      ],
      "payable": false,
      "stateMutability": "nonpayable",
      "type": "function"
    },
    {
      "constant": false,
      "inputs": [
        {
          "name": "reqAddr",
          "type": "address"
        },
        {
          "name": "result",
          "type": "bool"
        }
      ],
      "name": "submitValidation",
      "outputs": [
        {
          "name": "",
          "type": "bool"
        }
      ],
      "payable": false,
      "stateMutability": "nonpayable",
      "type": "function"
    },
    {
      "constant": true,
      "inputs": [
        {
          "name": "ID",
          "type": "address"
        }
      ],
      "name": "getProvider",
      "outputs": [
        {
          "components": [
            {
              "name": "provID",
              "type": "uint256"
            },
            {
              "name": "blockNumber",
              "type": "uint256"
            },
            {
              "name": "maxTime",
              "type": "uint64"
            },
            {
              "name": "maxTarget",
              "type": "uint16"
            },
            {
              "name": "minPrice",
              "type": "uint256"
            },
            {
              "name": "available",
              "type": "bool"
            }
          ],
          "name": "",
          "type": "tuple"
        }
      ],
      "payable": false,
      "stateMutability": "view",
      "type": "function"
    },
    {
      "constant": true,
      "inputs": [
        {
          "name": "ID",
          "type": "address"
        }
      ],
      "name": "getRequest",
      "outputs": [
        {
          "components": [
            {
              "name": "reqID",
              "type": "uint256"
            },
            {
              "name": "blockNumber",
              "type": "uint256"
            },
            {
              "name": "provider",
              "type": "address"
            },
            {
              "name": "time",
              "type": "uint64"
            },
            {
              "name": "target",
              "type": "uint16"
            },
            {
              "name": "price",
              "type": "uint256"
            },
            {
              "name": "dataID",
              "type": "bytes"
            },
            {
              "name": "resultID",
              "type": "bytes"
            },
            {
              "name": "numValidations",
              "type": "uint64"
            },
            {
              "name": "validators",
              "type": "address[]"
            },
            {
              "name": "signatures",
              "type": "bool[]"
            },
            {
              "name": "isValid",
              "type": "bool"
            },
            {
              "name": "status",
              "type": "bytes1"
            }
          ],
          "name": "",
          "type": "tuple"
        }
      ],
      "payable": false,
      "stateMutability": "view",
      "type": "function"
    },
    {
      "constant": true,
      "inputs": [],
      "name": "getProviderCount",
      "outputs": [
        {
          "name": "",
          "type": "uint256"
        }
      ],
      "payable": false,
      "stateMutability": "view",
      "type": "function"
    },
    {
      "constant": true,
      "inputs": [],
      "name": "getRequestCount",
      "outputs": [
        {
          "name": "",
          "type": "uint256"
        }
      ],
      "payable": false,
      "stateMutability": "view",
      "type": "function"
    },
    {
      "constant": true,
      "inputs": [
        {
          "name": "IDList",
          "type": "address[]"
        }
      ],
      "name": "listRequests",
      "outputs": [
        {
          "components": [
            {
              "name": "reqID",
              "type": "uint256"
            },
            {
              "name": "blockNumber",
              "type": "uint256"
            },
            {
              "name": "provider",
              "type": "address"
            },
            {
              "name": "time",
              "type": "uint64"
            },
            {
              "name": "target",
              "type": "uint16"
            },
            {
              "name": "price",
              "type": "uint256"
            },
            {
              "name": "dataID",
              "type": "bytes"
            },
            {
              "name": "resultID",
              "type": "bytes"
            },
            {
              "name": "numValidations",
              "type": "uint64"
            },
            {
              "name": "validators",
              "type": "address[]"
            },
            {
              "name": "signatures",
              "type": "bool[]"
            },
            {
              "name": "isValid",
              "type": "bool"
            },
            {
              "name": "status",
              "type": "bytes1"
            }
          ],
          "name": "",
          "type": "tuple[50]"
        }
      ],
      "payable": false,
      "stateMutability": "view",
      "type": "function"
    },
    {
      "constant": true,
      "inputs": [
        {
          "name": "IDList",
          "type": "address[]"
        }
      ],
      "name": "listProviders",
      "outputs": [
        {
          "components": [
            {
              "name": "provID",
              "type": "uint256"
            },
            {
              "name": "blockNumber",
              "type": "uint256"
            },
            {
              "name": "maxTime",
              "type": "uint64"
            },
            {
              "name": "maxTarget",
              "type": "uint16"
            },
            {
              "name": "minPrice",
              "type": "uint256"
            },
            {
              "name": "available",
              "type": "bool"
            }
          ],
          "name": "",
          "type": "tuple[50]"
        }
      ],
      "payable": false,
      "stateMutability": "view",
      "type": "function"
    }
  ],
  "bytecode": "0x608060405234801561001057600080fd5b5060006003819055506000600481905550615cb180620000316000396000f3fe6080604052600436106100fe5760003560e01c80633432d0f51161009557806363c1dff71161006457806363c1dff7146103ab5780636ca43b8d146103e8578063b277493414610425578063c052c4db14610450578063dafcc3b21461048d576100fe565b80633432d0f5146102db5780633fad18341461031857806346ce41751461034357806355f21eb71461036e576100fe565b80630e1e4a3c116100d15780630e1e4a3c146101e2578063189258de146102245780632d3272d3146102615780632ddfdbcc1461029e576100fe565b8063040d2762146101035780630708799e1461012e57806308931765146101755780630b6dbd5f146101b2575b600080fd5b34801561010f57600080fd5b506101186104bd565b60405161012591906157eb565b60405180910390f35b34801561013a57600080fd5b50610155600480360361015091908101906146bb565b610714565b60405161016c9b9a9998979695949392919061585e565b60405180910390f35b34801561018157600080fd5b5061019c600480360361019791908101906147de565b61090e565b6040516101a991906157eb565b60405180910390f35b6101cc60048036036101c7919081019061482d565b610b52565b6040516101d991906157eb565b60405180910390f35b3480156101ee57600080fd5b50610209600480360361020491908101906146bb565b610fde565b60405161021b96959493929190615917565b60405180910390f35b34801561023057600080fd5b5061024b600480360361024691908101906146bb565b611049565b6040516102589190615843565b60405180910390f35b34801561026d57600080fd5b506102886004803603610283919081019061479d565b611061565b60405161029591906157ad565b60405180910390f35b3480156102aa57600080fd5b506102c560048036036102c091908101906147de565b6110e5565b6040516102d291906157eb565b60405180910390f35b3480156102e757600080fd5b5061030260048036036102fd919081019061470d565b611482565b60405161030f91906157eb565b60405180910390f35b34801561032457600080fd5b5061032d611863565b60405161033a9190615843565b60405180910390f35b34801561034f57600080fd5b5061035861186d565b6040516103659190615843565b60405180910390f35b34801561037a57600080fd5b50610395600480360361039091908101906146e4565b611877565b6040516103a29190615806565b60405180910390f35b3480156103b757600080fd5b506103d260048036036103cd91908101906146e4565b61195a565b6040516103df9190615821565b60405180910390f35b3480156103f457600080fd5b5061040f600480360361040a9190810190614749565b611d71565b60405161041c91906157eb565b60405180910390f35b34801561043157600080fd5b5061043a6120a2565b60405161044791906157eb565b60405180910390f35b34801561045c57600080fd5b506104776004803603610472919081019061479d565b612224565b60405161048491906157c9565b60405180910390f35b6104a760048036036104a2919081019061482d565b6122a8565b6040516104b491906157eb565b60405180910390f35b60007f3000000000000000000000000000000000000000000000000000000000000000600160003373ffffffffffffffffffffffffffffffffffffffff1673ffffffffffffffffffffffffffffffffffffffff16815260200190815260200160002060090160019054906101000a900460f81b7effffffffffffffffffffffffffffffffffffffffffffffffffffffffffffff191614156106d557600160003373ffffffffffffffffffffffffffffffffffffffff1673ffffffffffffffffffffffffffffffffffffffff16815260200190815260200160002060008082016000905560018201600090556002820160006101000a81549073ffffffffffffffffffffffffffffffffffffffff02191690556002820160146101000a81549067ffffffffffffffff021916905560028201601c6101000a81549061ffff0219169055600382016000905560048201600061061791906141bd565b60058201600061062791906141bd565b6006820160006101000a81549067ffffffffffffffff02191690556007820160006106529190614205565b6008820160006106629190614226565b6009820160006101000a81549060ff02191690556009820160016101000a81549060ff021916905550507fa332e7b06782060530f8d1575fcf83b5e831fe3dd09c85e53b0351a7c38ceeac336040516106bb91906155d0565b60405180910390a16106ce60063361257c565b9050610711565b7fa332e7b06782060530f8d1575fcf83b5e831fe3dd09c85e53b0351a7c38ceeac3360405161070491906155fe565b60405180910390a1600090505b90565b60016020528060005260406000206000915090508060000154908060010154908060020160009054906101000a900473ffffffffffffffffffffffffffffffffffffffff16908060020160149054906101000a900467ffffffffffffffff169080600201601c9054906101000a900461ffff1690806003015490806004018054600181600116156101000203166002900480601f0160208091040260200160405190810160405280929190818152602001828054600181600116156101000203166002900480156108265780601f106107fb57610100808354040283529160200191610826565b820191906000526020600020905b81548152906001019060200180831161080957829003601f168201915b505050505090806005018054600181600116156101000203166002900480601f0160208091040260200160405190810160405280929190818152602001828054600181600116156101000203166002900480156108c45780601f10610899576101008083540402835291602001916108c4565b820191906000526020600020905b8154815290600101906020018083116108a757829003601f168201915b5050505050908060060160009054906101000a900467ffffffffffffffff16908060090160009054906101000a900460ff16908060090160019054906101000a900460f81b90508b565b6000600115156000803373ffffffffffffffffffffffffffffffffffffffff1673ffffffffffffffffffffffffffffffffffffffff16815260200190815260200160002060040160009054906101000a900460ff1615151415610b0f57436000803373ffffffffffffffffffffffffffffffffffffffff1673ffffffffffffffffffffffffffffffffffffffff16815260200190815260200160002060010181905550836000803373ffffffffffffffffffffffffffffffffffffffff1673ffffffffffffffffffffffffffffffffffffffff16815260200190815260200160002060020160006101000a81548167ffffffffffffffff021916908367ffffffffffffffff160217905550826000803373ffffffffffffffffffffffffffffffffffffffff1673ffffffffffffffffffffffffffffffffffffffff16815260200190815260200160002060020160086101000a81548161ffff021916908361ffff1602179055508167ffffffffffffffff166000803373ffffffffffffffffffffffffffffffffffffffff1673ffffffffffffffffffffffffffffffffffffffff168152602001908152602001600020600301819055507fa332e7b06782060530f8d1575fcf83b5e831fe3dd09c85e53b0351a7c38ceeac33604051610af49190615574565b60405180910390a1610b0533612725565b5060019050610b4b565b7fa332e7b06782060530f8d1575fcf83b5e831fe3dd09c85e53b0351a7c38ceeac33604051610b3e91906154ea565b60405180910390a1600090505b9392505050565b600080600160003373ffffffffffffffffffffffffffffffffffffffff1673ffffffffffffffffffffffffffffffffffffffff168152602001908152602001600020600101541415610fc757600454600160003373ffffffffffffffffffffffffffffffffffffffff1673ffffffffffffffffffffffffffffffffffffffff1681526020019081526020016000206000018190555043600160003373ffffffffffffffffffffffffffffffffffffffff1673ffffffffffffffffffffffffffffffffffffffff168152602001908152602001600020600101819055506000600160003373ffffffffffffffffffffffffffffffffffffffff1673ffffffffffffffffffffffffffffffffffffffff16815260200190815260200160002060020160006101000a81548173ffffffffffffffffffffffffffffffffffffffff021916908373ffffffffffffffffffffffffffffffffffffffff16021790555084600160003373ffffffffffffffffffffffffffffffffffffffff1673ffffffffffffffffffffffffffffffffffffffff16815260200190815260200160002060020160146101000a81548167ffffffffffffffff021916908367ffffffffffffffff16021790555083600160003373ffffffffffffffffffffffffffffffffffffffff1673ffffffffffffffffffffffffffffffffffffffff168152602001908152602001600020600201601c6101000a81548161ffff021916908361ffff1602179055508267ffffffffffffffff16600160003373ffffffffffffffffffffffffffffffffffffffff1673ffffffffffffffffffffffffffffffffffffffff1681526020019081526020016000206003018190555081600160003373ffffffffffffffffffffffffffffffffffffffff1673ffffffffffffffffffffffffffffffffffffffff1681526020019081526020016000206004019080519060200190610e1d92919061424e565b506003600160003373ffffffffffffffffffffffffffffffffffffffff1673ffffffffffffffffffffffffffffffffffffffff16815260200190815260200160002060060160006101000a81548167ffffffffffffffff021916908367ffffffffffffffff1602179055507f3000000000000000000000000000000000000000000000000000000000000000600160003373ffffffffffffffffffffffffffffffffffffffff1673ffffffffffffffffffffffffffffffffffffffff16815260200190815260200160002060090160016101000a81548160ff021916908360f81c021790555060063390806001815401808255809150509060018203906000526020600020016000909192909190916101000a81548173ffffffffffffffffffffffffffffffffffffffff021916908373ffffffffffffffffffffffffffffffffffffffff160217905550507fecb395b2a2ceb57177a24a711e761771826a6a5c10c88fcba80bceca4a92e4463383604051610f9a92919061576a565b60405180910390a1600460008154809291906001019190505550610fbd33612de0565b5060019050610fd6565b610fd3858585856122a8565b90505b949350505050565b60006020528060005260406000206000915090508060000154908060010154908060020160009054906101000a900467ffffffffffffffff16908060020160089054906101000a900461ffff16908060030154908060040160009054906101000a900460ff16905086565b60026020528060005260406000206000915090505481565b6110696142ce565b6110716142ce565b60008090505b83518167ffffffffffffffff1610156110db576110b0848267ffffffffffffffff16815181106110a357fe5b6020026020010151611877565b828267ffffffffffffffff16603281106110c657fe5b60200201819052508080600101915050611077565b5080915050919050565b6000806000803373ffffffffffffffffffffffffffffffffffffffff1673ffffffffffffffffffffffffffffffffffffffff16815260200190815260200160002060010154141561146d576003546000803373ffffffffffffffffffffffffffffffffffffffff1673ffffffffffffffffffffffffffffffffffffffff16815260200190815260200160002060000181905550436000803373ffffffffffffffffffffffffffffffffffffffff1673ffffffffffffffffffffffffffffffffffffffff16815260200190815260200160002060010181905550836000803373ffffffffffffffffffffffffffffffffffffffff1673ffffffffffffffffffffffffffffffffffffffff16815260200190815260200160002060020160006101000a81548167ffffffffffffffff021916908367ffffffffffffffff160217905550836000803373ffffffffffffffffffffffffffffffffffffffff1673ffffffffffffffffffffffffffffffffffffffff16815260200190815260200160002060020160006101000a81548167ffffffffffffffff021916908367ffffffffffffffff160217905550826000803373ffffffffffffffffffffffffffffffffffffffff1673ffffffffffffffffffffffffffffffffffffffff16815260200190815260200160002060020160086101000a81548161ffff021916908361ffff1602179055508167ffffffffffffffff166000803373ffffffffffffffffffffffffffffffffffffffff1673ffffffffffffffffffffffffffffffffffffffff1681526020019081526020016000206003018190555060016000803373ffffffffffffffffffffffffffffffffffffffff1673ffffffffffffffffffffffffffffffffffffffff16815260200190815260200160002060040160006101000a81548160ff02191690831515021790555060053390806001815401808255809150509060018203906000526020600020016000909192909190916101000a81548173ffffffffffffffffffffffffffffffffffffffff021916908373ffffffffffffffffffffffffffffffffffffffff160217905550507fa332e7b06782060530f8d1575fcf83b5e831fe3dd09c85e53b0351a7c38ceeac33604051611429919061566f565b60405180910390a160036000815480929190600101919050555060006008805490501461145a576114593361345a565b5b61146333612725565b506001905061147b565b61147884848461090e565b90505b9392505050565b6000600160008473ffffffffffffffffffffffffffffffffffffffff1673ffffffffffffffffffffffffffffffffffffffff16815260200190815260200160002060020160009054906101000a900473ffffffffffffffffffffffffffffffffffffffff1673ffffffffffffffffffffffffffffffffffffffff163373ffffffffffffffffffffffffffffffffffffffff16146118535760008090505b600160008573ffffffffffffffffffffffffffffffffffffffff1673ffffffffffffffffffffffffffffffffffffffff168152602001908152602001600020600701805490508167ffffffffffffffff161015611843573373ffffffffffffffffffffffffffffffffffffffff16600160008673ffffffffffffffffffffffffffffffffffffffff1673ffffffffffffffffffffffffffffffffffffffff1681526020019081526020016000206007018267ffffffffffffffff16815481106115e457fe5b9060005260206000200160009054906101000a900473ffffffffffffffffffffffffffffffffffffffff1673ffffffffffffffffffffffffffffffffffffffff161480156116ac575060001515600160008673ffffffffffffffffffffffffffffffffffffffff1673ffffffffffffffffffffffffffffffffffffffff1681526020019081526020016000206008018267ffffffffffffffff168154811061168857fe5b90600052602060002090602091828204019190069054906101000a900460ff161515145b156118305782600160008673ffffffffffffffffffffffffffffffffffffffff1673ffffffffffffffffffffffffffffffffffffffff1681526020019081526020016000206008018267ffffffffffffffff168154811061170957fe5b90600052602060002090602091828204019190066101000a81548160ff02191690831515021790555060016000803373ffffffffffffffffffffffffffffffffffffffff1673ffffffffffffffffffffffffffffffffffffffff16815260200190815260200160002060040160006101000a81548160ff02191690831515021790555060053390806001815401808255809150509060018203906000526020600020016000909192909190916101000a81548173ffffffffffffffffffffffffffffffffffffffff021916908373ffffffffffffffffffffffffffffffffffffffff160217905550507f654163525cabcfa0ce95ecb1f232c75746c89688c42e7e2d52df90d770fc9e57843360405161182392919061545d565b60405180910390a1611835565b611836565b5b808060010191505061151f565b5061184d8361399a565b5061185c565b6000905061185d565b5b92915050565b6000600454905090565b6000600354905090565b61187f6142fc565b6000808373ffffffffffffffffffffffffffffffffffffffff1673ffffffffffffffffffffffffffffffffffffffff1681526020019081526020016000206040518060c001604052908160008201548152602001600182015481526020016002820160009054906101000a900467ffffffffffffffff1667ffffffffffffffff1667ffffffffffffffff1681526020016002820160089054906101000a900461ffff1661ffff1661ffff168152602001600382015481526020016004820160009054906101000a900460ff1615151515815250509050919050565b611962614342565b600160008373ffffffffffffffffffffffffffffffffffffffff1673ffffffffffffffffffffffffffffffffffffffff168152602001908152602001600020604051806101a001604052908160008201548152602001600182015481526020016002820160009054906101000a900473ffffffffffffffffffffffffffffffffffffffff1673ffffffffffffffffffffffffffffffffffffffff1673ffffffffffffffffffffffffffffffffffffffff1681526020016002820160149054906101000a900467ffffffffffffffff1667ffffffffffffffff1667ffffffffffffffff16815260200160028201601c9054906101000a900461ffff1661ffff1661ffff16815260200160038201548152602001600482018054600181600116156101000203166002900480601f016020809104026020016040519081016040528092919081815260200182805460018160011615610100020316600290048015611b0c5780601f10611ae157610100808354040283529160200191611b0c565b820191906000526020600020905b815481529060010190602001808311611aef57829003601f168201915b50505050508152602001600582018054600181600116156101000203166002900480601f016020809104026020016040519081016040528092919081815260200182805460018160011615610100020316600290048015611bae5780601f10611b8357610100808354040283529160200191611bae565b820191906000526020600020905b815481529060010190602001808311611b9157829003601f168201915b505050505081526020016006820160009054906101000a900467ffffffffffffffff1667ffffffffffffffff1667ffffffffffffffff16815260200160078201805480602002602001604051908101604052809291908181526020018280548015611c6e57602002820191906000526020600020905b8160009054906101000a900473ffffffffffffffffffffffffffffffffffffffff1673ffffffffffffffffffffffffffffffffffffffff1681526020019060010190808311611c24575b5050505050815260200160088201805480602002602001604051908101604052809291908181526020018280548015611ceb57602002820191906000526020600020906000905b82829054906101000a900460ff16151581526020019060010190602082600001049283019260010382029150808411611cb55790505b505050505081526020016009820160009054906101000a900460ff161515151581526020016009820160019054906101000a900460f81b7effffffffffffffffffffffffffffffffffffffffffffffffffffffffffffff19167effffffffffffffffffffffffffffffffffffffffffffffffffffffffffffff1916815250509050919050565b6000600160008473ffffffffffffffffffffffffffffffffffffffff1673ffffffffffffffffffffffffffffffffffffffff16815260200190815260200160002060020160009054906101000a900473ffffffffffffffffffffffffffffffffffffffff1673ffffffffffffffffffffffffffffffffffffffff163373ffffffffffffffffffffffffffffffffffffffff161415612097577f3200000000000000000000000000000000000000000000000000000000000000600160008573ffffffffffffffffffffffffffffffffffffffff1673ffffffffffffffffffffffffffffffffffffffff16815260200190815260200160002060090160016101000a81548160ff021916908360f81c021790555081600160008573ffffffffffffffffffffffffffffffffffffffff1673ffffffffffffffffffffffffffffffffffffffff1681526020019081526020016000206005019080519060200190611eda92919061424e565b50611ee660078461257c565b5060088390806001815401808255809150509060018203906000526020600020016000909192909190916101000a81548173ffffffffffffffffffffffffffffffffffffffff021916908373ffffffffffffffffffffffffffffffffffffffff1602179055505060016000803373ffffffffffffffffffffffffffffffffffffffff1673ffffffffffffffffffffffffffffffffffffffff16815260200190815260200160002060040160006101000a81548160ff02191690831515021790555060053390806001815401808255809150509060018203906000526020600020016000909192909190916101000a81548173ffffffffffffffffffffffffffffffffffffffff021916908373ffffffffffffffffffffffffffffffffffffffff160217905550507fecb395b2a2ceb57177a24a711e761771826a6a5c10c88fcba80bceca4a92e44683600160008673ffffffffffffffffffffffffffffffffffffffff1673ffffffffffffffffffffffffffffffffffffffff16815260200190815260200160002060050160405161207f92919061562c565b60405180910390a161209083613bf5565b905061209c565b600090505b92915050565b6000600115156000803373ffffffffffffffffffffffffffffffffffffffff1673ffffffffffffffffffffffffffffffffffffffff16815260200190815260200160002060040160009054906101000a900460ff16151514156121e5576000803373ffffffffffffffffffffffffffffffffffffffff1673ffffffffffffffffffffffffffffffffffffffff16815260200190815260200160002060008082016000905560018201600090556002820160006101000a81549067ffffffffffffffff02191690556002820160086101000a81549061ffff021916905560038201600090556004820160006101000a81549060ff021916905550507fa332e7b06782060530f8d1575fcf83b5e831fe3dd09c85e53b0351a7c38ceeac336040516121cb919061569d565b60405180910390a16121de60053361257c565b9050612221565b7fa332e7b06782060530f8d1575fcf83b5e831fe3dd09c85e53b0351a7c38ceeac3360405161221491906156cb565b60405180910390a1600090505b90565b61222c6143fc565b6122346143fc565b60008090505b83518167ffffffffffffffff16101561229e57612273848267ffffffffffffffff168151811061226657fe5b602002602001015161195a565b828267ffffffffffffffff166032811061228957fe5b6020020181905250808060010191505061223a565b5080915050919050565b60007f3000000000000000000000000000000000000000000000000000000000000000600160003373ffffffffffffffffffffffffffffffffffffffff1673ffffffffffffffffffffffffffffffffffffffff16815260200190815260200160002060090160019054906101000a900460f81b7effffffffffffffffffffffffffffffffffffffffffffffffffffffffffffff191614156125385743600160003373ffffffffffffffffffffffffffffffffffffffff1673ffffffffffffffffffffffffffffffffffffffff1681526020019081526020016000206001018190555084600160003373ffffffffffffffffffffffffffffffffffffffff1673ffffffffffffffffffffffffffffffffffffffff16815260200190815260200160002060020160146101000a81548167ffffffffffffffff021916908367ffffffffffffffff16021790555083600160003373ffffffffffffffffffffffffffffffffffffffff1673ffffffffffffffffffffffffffffffffffffffff168152602001908152602001600020600201601c6101000a81548161ffff021916908361ffff1602179055508267ffffffffffffffff16600160003373ffffffffffffffffffffffffffffffffffffffff1673ffffffffffffffffffffffffffffffffffffffff1681526020019081526020016000206003018190555081600160003373ffffffffffffffffffffffffffffffffffffffff1673ffffffffffffffffffffffffffffffffffffffff16815260200190815260200160002060040190805190602001906124f792919061424e565b507fa332e7b06782060530f8d1575fcf83b5e831fe3dd09c85e53b0351a7c38ceeac3360405161252791906155a2565b60405180910390a160019050612574565b7fa332e7b06782060530f8d1575fcf83b5e831fe3dd09c85e53b0351a7c38ceeac336040516125679190615518565b60405180910390a1600090505b949350505050565b600080600090505b83805490508167ffffffffffffffff161015612719578273ffffffffffffffffffffffffffffffffffffffff16848267ffffffffffffffff16815481106125c757fe5b9060005260206000200160009054906101000a900473ffffffffffffffffffffffffffffffffffffffff1673ffffffffffffffffffffffffffffffffffffffff16141561270c578360018580549050038154811061262157fe5b9060005260206000200160009054906101000a900473ffffffffffffffffffffffffffffffffffffffff16848267ffffffffffffffff168154811061266257fe5b9060005260206000200160006101000a81548173ffffffffffffffffffffffffffffffffffffffff021916908373ffffffffffffffffffffffffffffffffffffffff160217905550836001858054905003815481106126bd57fe5b9060005260206000200160006101000a81549073ffffffffffffffffffffffffffffffffffffffff021916905560018481818054905003915081612701919061442a565b50600191505061271f565b8080600101915050612584565b50600090505b92915050565b600080600680549050141561275c577f32000000000000000000000000000000000000000000000000000000000000009050612ddb565b60008090505b6006805490508167ffffffffffffffff161015612db657600060068267ffffffffffffffff168154811061279257fe5b9060005260206000200160009054906101000a900473ffffffffffffffffffffffffffffffffffffffff169050600073ffffffffffffffffffffffffffffffffffffffff168173ffffffffffffffffffffffffffffffffffffffff161415801561288d57507f3100000000000000000000000000000000000000000000000000000000000000600160008373ffffffffffffffffffffffffffffffffffffffff1673ffffffffffffffffffffffffffffffffffffffff16815260200190815260200160002060090160019054906101000a900460f81b7effffffffffffffffffffffffffffffffffffffffffffffffffffffffffffff191614155b801561295857506000808573ffffffffffffffffffffffffffffffffffffffff1673ffffffffffffffffffffffffffffffffffffffff16815260200190815260200160002060020160009054906101000a900467ffffffffffffffff1667ffffffffffffffff16600160008373ffffffffffffffffffffffffffffffffffffffff1673ffffffffffffffffffffffffffffffffffffffff16815260200190815260200160002060020160149054906101000a900467ffffffffffffffff1667ffffffffffffffff1611155b8015612a0b57506000808573ffffffffffffffffffffffffffffffffffffffff1673ffffffffffffffffffffffffffffffffffffffff16815260200190815260200160002060020160089054906101000a900461ffff1661ffff16600160008373ffffffffffffffffffffffffffffffffffffffff1673ffffffffffffffffffffffffffffffffffffffff168152602001908152602001600020600201601c9054906101000a900461ffff1661ffff1611155b8015612a9a57506000808573ffffffffffffffffffffffffffffffffffffffff1673ffffffffffffffffffffffffffffffffffffffff16815260200190815260200160002060030154600160008373ffffffffffffffffffffffffffffffffffffffff1673ffffffffffffffffffffffffffffffffffffffff1681526020019081526020016000206003015410155b15612da85760008060008673ffffffffffffffffffffffffffffffffffffffff1673ffffffffffffffffffffffffffffffffffffffff16815260200190815260200160002060040160006101000a81548160ff021916908315150217905550612b0460058561257c565b5083600160008373ffffffffffffffffffffffffffffffffffffffff1673ffffffffffffffffffffffffffffffffffffffff16815260200190815260200160002060020160006101000a81548173ffffffffffffffffffffffffffffffffffffffff021916908373ffffffffffffffffffffffffffffffffffffffff1602179055507f3100000000000000000000000000000000000000000000000000000000000000600160008373ffffffffffffffffffffffffffffffffffffffff1673ffffffffffffffffffffffffffffffffffffffff16815260200190815260200160002060090160016101000a81548160ff021916908360f81c0217905550612c0c60068261257c565b50600160008273ffffffffffffffffffffffffffffffffffffffff1673ffffffffffffffffffffffffffffffffffffffff16815260200190815260200160002060030154600260008373ffffffffffffffffffffffffffffffffffffffff1673ffffffffffffffffffffffffffffffffffffffff1681526020019081526020016000206000828254019250508190555060078190806001815401808255809150509060018203906000526020600020016000909192909190916101000a81548173ffffffffffffffffffffffffffffffffffffffff021916908373ffffffffffffffffffffffffffffffffffffffff160217905550507f2b88768874d596259d3041253784b3217c58817182fb311f4152008bc32b6f398185600160008573ffffffffffffffffffffffffffffffffffffffff1673ffffffffffffffffffffffffffffffffffffffff168152602001908152602001600020600401604051612d7693929190615499565b60405180910390a17f300000000000000000000000000000000000000000000000000000000000000092505050612ddb565b508080600101915050612762565b507f310000000000000000000000000000000000000000000000000000000000000090505b919050565b6000806005805490501415612e17577f32000000000000000000000000000000000000000000000000000000000000009050613455565b60008090505b6005805490508167ffffffffffffffff16101561343057600060058267ffffffffffffffff1681548110612e4d57fe5b9060005260206000200160009054906101000a900473ffffffffffffffffffffffffffffffffffffffff169050600073ffffffffffffffffffffffffffffffffffffffff168173ffffffffffffffffffffffffffffffffffffffff1614158015612f095750600115156000808373ffffffffffffffffffffffffffffffffffffffff1673ffffffffffffffffffffffffffffffffffffffff16815260200190815260200160002060040160009054906101000a900460ff161515145b15613422576000808273ffffffffffffffffffffffffffffffffffffffff1673ffffffffffffffffffffffffffffffffffffffff16815260200190815260200160002060020160089054906101000a900461ffff1661ffff16600160008673ffffffffffffffffffffffffffffffffffffffff1673ffffffffffffffffffffffffffffffffffffffff168152602001908152602001600020600201601c9054906101000a900461ffff1661ffff161115801561308457506000808273ffffffffffffffffffffffffffffffffffffffff1673ffffffffffffffffffffffffffffffffffffffff16815260200190815260200160002060020160009054906101000a900467ffffffffffffffff1667ffffffffffffffff16600160008673ffffffffffffffffffffffffffffffffffffffff1673ffffffffffffffffffffffffffffffffffffffff16815260200190815260200160002060020160149054906101000a900467ffffffffffffffff1667ffffffffffffffff1611155b801561311357506000808273ffffffffffffffffffffffffffffffffffffffff1673ffffffffffffffffffffffffffffffffffffffff16815260200190815260200160002060030154600160008673ffffffffffffffffffffffffffffffffffffffff1673ffffffffffffffffffffffffffffffffffffffff1681526020019081526020016000206003015410155b156134215760008060008373ffffffffffffffffffffffffffffffffffffffff1673ffffffffffffffffffffffffffffffffffffffff16815260200190815260200160002060040160006101000a81548160ff02191690831515021790555061317d60058261257c565b5080600160008673ffffffffffffffffffffffffffffffffffffffff1673ffffffffffffffffffffffffffffffffffffffff16815260200190815260200160002060020160006101000a81548173ffffffffffffffffffffffffffffffffffffffff021916908373ffffffffffffffffffffffffffffffffffffffff1602179055507f3100000000000000000000000000000000000000000000000000000000000000600160008673ffffffffffffffffffffffffffffffffffffffff1673ffffffffffffffffffffffffffffffffffffffff16815260200190815260200160002060090160016101000a81548160ff021916908360f81c021790555061328560068561257c565b50600160008573ffffffffffffffffffffffffffffffffffffffff1673ffffffffffffffffffffffffffffffffffffffff16815260200190815260200160002060030154600260008673ffffffffffffffffffffffffffffffffffffffff1673ffffffffffffffffffffffffffffffffffffffff1681526020019081526020016000206000828254019250508190555060078490806001815401808255809150509060018203906000526020600020016000909192909190916101000a81548173ffffffffffffffffffffffffffffffffffffffff021916908373ffffffffffffffffffffffffffffffffffffffff160217905550507f2b88768874d596259d3041253784b3217c58817182fb311f4152008bc32b6f398482600160008873ffffffffffffffffffffffffffffffffffffffff1673ffffffffffffffffffffffffffffffffffffffff1681526020019081526020016000206004016040516133ef93929190615499565b60405180910390a17f300000000000000000000000000000000000000000000000000000000000000092505050613455565b5b508080600101915050612e1d565b507f310000000000000000000000000000000000000000000000000000000000000090505b919050565b60008090505b6008805490508167ffffffffffffffff16101561399657600060088267ffffffffffffffff168154811061349057fe5b9060005260206000200160009054906101000a900473ffffffffffffffffffffffffffffffffffffffff169050600160008273ffffffffffffffffffffffffffffffffffffffff1673ffffffffffffffffffffffffffffffffffffffff16815260200190815260200160002060070180549050600160008373ffffffffffffffffffffffffffffffffffffffff1673ffffffffffffffffffffffffffffffffffffffff16815260200190815260200160002060060160009054906101000a900467ffffffffffffffff1667ffffffffffffffff16111561398157600160008273ffffffffffffffffffffffffffffffffffffffff1673ffffffffffffffffffffffffffffffffffffffff16815260200190815260200160002060020160009054906101000a900473ffffffffffffffffffffffffffffffffffffffff1673ffffffffffffffffffffffffffffffffffffffff168373ffffffffffffffffffffffffffffffffffffffff161461397c577f2b88768874d596259d3041253784b3217c58817182fb311f4152008bc32b6f398184600160008573ffffffffffffffffffffffffffffffffffffffff1673ffffffffffffffffffffffffffffffffffffffff1681526020019081526020016000206005016040516136739392919061540c565b60405180910390a1600160008273ffffffffffffffffffffffffffffffffffffffff1673ffffffffffffffffffffffffffffffffffffffff1681526020019081526020016000206007018390806001815401808255809150509060018203906000526020600020016000909192909190916101000a81548173ffffffffffffffffffffffffffffffffffffffff021916908373ffffffffffffffffffffffffffffffffffffffff16021790555050600160008273ffffffffffffffffffffffffffffffffffffffff1673ffffffffffffffffffffffffffffffffffffffff1681526020019081526020016000206008016000908060018154018082558091505090600182039060005260206000209060209182820401919006909192909190916101000a81548160ff0219169083151502179055505060008060008573ffffffffffffffffffffffffffffffffffffffff1673ffffffffffffffffffffffffffffffffffffffff16815260200190815260200160002060040160006101000a81548160ff02191690831515021790555061380e60058461257c565b506001600060088467ffffffffffffffff168154811061382a57fe5b9060005260206000200160009054906101000a900473ffffffffffffffffffffffffffffffffffffffff1673ffffffffffffffffffffffffffffffffffffffff1673ffffffffffffffffffffffffffffffffffffffff16815260200190815260200160002060060160009054906101000a900467ffffffffffffffff1667ffffffffffffffff166001600060088567ffffffffffffffff16815481106138cc57fe5b9060005260206000200160009054906101000a900473ffffffffffffffffffffffffffffffffffffffff1673ffffffffffffffffffffffffffffffffffffffff1673ffffffffffffffffffffffffffffffffffffffff168152602001908152602001600020600701805490501415613976577fa332e7b06782060530f8d1575fcf83b5e831fe3dd09c85e53b0351a7c38ceeac8160405161396d9190615546565b60405180910390a15b50613996565b613987565b50613989565b505b8080600101915050613460565b5050565b60008060009050600080905060008090505b600160008673ffffffffffffffffffffffffffffffffffffffff1673ffffffffffffffffffffffffffffffffffffffff168152602001908152602001600020600801805490508167ffffffffffffffff161015613a9a5760011515600160008773ffffffffffffffffffffffffffffffffffffffff1673ffffffffffffffffffffffffffffffffffffffff1681526020019081526020016000206008018267ffffffffffffffff1681548110613a5e57fe5b90600052602060002090602091828204019190069054906101000a900460ff1615151415613a8d576001820191505b80806001019150506139ac565b50600160008573ffffffffffffffffffffffffffffffffffffffff1673ffffffffffffffffffffffffffffffffffffffff16815260200190815260200160002060060160009054906101000a900467ffffffffffffffff1667ffffffffffffffff168167ffffffffffffffff1610613beb5760018060008673ffffffffffffffffffffffffffffffffffffffff1673ffffffffffffffffffffffffffffffffffffffff16815260200190815260200160002060090160006101000a81548160ff0219169083151502179055507fecb395b2a2ceb57177a24a711e761771826a6a5c10c88fcba80bceca4a92e44684600160008773ffffffffffffffffffffffffffffffffffffffff1673ffffffffffffffffffffffffffffffffffffffff168152602001908152602001600020600501604051613bd8929190615727565b60405180910390a1613be984614034565b505b8192505050919050565b600080600160008473ffffffffffffffffffffffffffffffffffffffff1673ffffffffffffffffffffffffffffffffffffffff16815260200190815260200160002060060160009054906101000a900467ffffffffffffffff16905060008090506000600190505b6005805490508167ffffffffffffffff1611613ff057600060056001830367ffffffffffffffff1681548110613c8f57fe5b9060005260206000200160009054906101000a900473ffffffffffffffffffffffffffffffffffffffff169050600160008773ffffffffffffffffffffffffffffffffffffffff1673ffffffffffffffffffffffffffffffffffffffff16815260200190815260200160002060020160009054906101000a900473ffffffffffffffffffffffffffffffffffffffff1673ffffffffffffffffffffffffffffffffffffffff168173ffffffffffffffffffffffffffffffffffffffff1614613f77577f2b88768874d596259d3041253784b3217c58817182fb311f4152008bc32b6f398682600160008a73ffffffffffffffffffffffffffffffffffffffff1673ffffffffffffffffffffffffffffffffffffffff168152602001908152602001600020600501604051613dc59392919061540c565b60405180910390a18280600101935050600160008773ffffffffffffffffffffffffffffffffffffffff1673ffffffffffffffffffffffffffffffffffffffff1681526020019081526020016000206007018190806001815401808255809150509060018203906000526020600020016000909192909190916101000a81548173ffffffffffffffffffffffffffffffffffffffff021916908373ffffffffffffffffffffffffffffffffffffffff16021790555050600160008773ffffffffffffffffffffffffffffffffffffffff1673ffffffffffffffffffffffffffffffffffffffff1681526020019081526020016000206008016000908060018154018082558091505090600182039060005260206000209060209182820401919006909192909190916101000a81548160ff0219169083151502179055505060008060008373ffffffffffffffffffffffffffffffffffffffff1673ffffffffffffffffffffffffffffffffffffffff16815260200190815260200160002060040160006101000a81548160ff021916908315150217905550613f6860058261257c565b50818060019003925050613f7d565b50613fe3565b8367ffffffffffffffff168367ffffffffffffffff161015613f9f5750613fe3565b7fa332e7b06782060530f8d1575fcf83b5e831fe3dd09c85e53b0351a7c38ceeac86604051613fce9190615546565b60405180910390a1600194505050505061402f565b8080600101915050613c5d565b507fa332e7b06782060530f8d1575fcf83b5e831fe3dd09c85e53b0351a7c38ceeac8460405161402091906156f9565b60405180910390a16000925050505b919050565b600061404160088361257c565b506000600160008473ffffffffffffffffffffffffffffffffffffffff1673ffffffffffffffffffffffffffffffffffffffff168152602001908152602001600020600101819055506000600290505b60008167ffffffffffffffff16106141b757600160008473ffffffffffffffffffffffffffffffffffffffff1673ffffffffffffffffffffffffffffffffffffffff1681526020019081526020016000206007018167ffffffffffffffff16815481106140fa57fe5b9060005260206000200160006101000a81549073ffffffffffffffffffffffffffffffffffffffff02191690556000600160008573ffffffffffffffffffffffffffffffffffffffff1673ffffffffffffffffffffffffffffffffffffffff1681526020019081526020016000206008018267ffffffffffffffff168154811061418057fe5b90600052602060002090602091828204019190066101000a81548160ff021916908315150217905550808060019003915050614091565b50919050565b50805460018160011615610100020316600290046000825580601f106141e35750614202565b601f0160209004906000526020600020908101906142019190614456565b5b50565b50805460008255906000526020600020908101906142239190614456565b50565b50805460008255601f01602090049060005260206000209081019061424b9190614456565b50565b828054600181600116156101000203166002900490600052602060002090601f016020900481019282601f1061428f57805160ff19168380011785556142bd565b828001600101855582156142bd579182015b828111156142bc5782518255916020019190600101906142a1565b5b5090506142ca9190614456565b5090565b6040518061258001604052806032905b6142e661447b565b8152602001906001900390816142de5790505090565b6040518060c001604052806000815260200160008152602001600067ffffffffffffffff168152602001600061ffff168152602001600081526020016000151581525090565b604051806101a001604052806000815260200160008152602001600073ffffffffffffffffffffffffffffffffffffffff168152602001600067ffffffffffffffff168152602001600061ffff168152602001600081526020016060815260200160608152602001600067ffffffffffffffff168152602001606081526020016060815260200160001515815260200160007effffffffffffffffffffffffffffffffffffffffffffffffffffffffffffff191681525090565b6040518061514001604052806032905b6144146144c1565b81526020019060019003908161440c5790505090565b815481835581811115614451578183600052602060002091820191016144509190614456565b5b505050565b61447891905b8082111561447457600081600090555060010161445c565b5090565b90565b6040518060c001604052806000815260200160008152602001600067ffffffffffffffff168152602001600061ffff168152602001600081526020016000151581525090565b604051806101a001604052806000815260200160008152602001600073ffffffffffffffffffffffffffffffffffffffff168152602001600067ffffffffffffffff168152602001600061ffff168152602001600081526020016060815260200160608152602001600067ffffffffffffffff168152602001606081526020016060815260200160001515815260200160007effffffffffffffffffffffffffffffffffffffffffffffffffffffffffffff191681525090565b60008135905061458a81615c04565b92915050565b60008135905061459f81615c1b565b92915050565b600082601f8301126145b657600080fd5b81356145c96145c4826159a5565b615978565b915081818352602084019350602081019050838560208402820111156145ee57600080fd5b60005b8381101561461e57816146048882614590565b8452602084019350602083019250506001810190506145f1565b5050505092915050565b60008135905061463781615c32565b92915050565b600082601f83011261464e57600080fd5b813561466161465c826159cd565b615978565b9150808252602083016020830185838301111561467d57600080fd5b614688838284615bb1565b50505092915050565b6000813590506146a081615c49565b92915050565b6000813590506146b581615c60565b92915050565b6000602082840312156146cd57600080fd5b60006146db8482850161457b565b91505092915050565b6000602082840312156146f657600080fd5b600061470484828501614590565b91505092915050565b6000806040838503121561472057600080fd5b600061472e85828601614590565b925050602061473f85828601614628565b9150509250929050565b6000806040838503121561475c57600080fd5b600061476a85828601614590565b925050602083013567ffffffffffffffff81111561478757600080fd5b6147938582860161463d565b9150509250929050565b6000602082840312156147af57600080fd5b600082013567ffffffffffffffff8111156147c957600080fd5b6147d5848285016145a5565b91505092915050565b6000806000606084860312156147f357600080fd5b6000614801868287016146a6565b935050602061481286828701614691565b9250506040614823868287016146a6565b9150509250925092565b6000806000806080858703121561484357600080fd5b6000614851878288016146a6565b945050602061486287828801614691565b9350506040614873878288016146a6565b925050606085013567ffffffffffffffff81111561489057600080fd5b61489c8782880161463d565b91505092959194509250565b60006148b48383614904565b60208301905092915050565b60006148cc8383614aaa565b60208301905092915050565b60006148e483836150db565b60c08301905092915050565b60006148fc8383615284565b905092915050565b61490d81615b1b565b82525050565b61491c81615b1b565b82525050565b600061492d82615a39565b6149378185615aaf565b9350614942836159f9565b8060005b8381101561497357815161495a88826148a8565b975061496583615a7b565b925050600181019050614946565b5085935050505092915050565b600061498b82615a44565b6149958185615ac0565b93506149a083615a06565b8060005b838110156149d15781516149b888826148c0565b97506149c383615a88565b9250506001810190506149a4565b5085935050505092915050565b6149e781615a4f565b6149f18184615ad1565b92506149fc82615a13565b8060005b83811015614a2d578151614a1487826148d8565b9650614a1f83615a95565b925050600181019050614a00565b505050505050565b6000614a4082615a5a565b614a4a8185615adc565b935083602082028501614a5c85615a1d565b8060005b85811015614a985784840389528151614a7985826148f0565b9450614a8483615aa2565b925060208a01995050600181019050614a60565b50829750879550505050505092915050565b614ab381615b2d565b82525050565b614ac281615b2d565b82525050565b614ad181615b39565b82525050565b614ae081615b39565b82525050565b6000614af182615a70565b614afb8185615af8565b9350614b0b818560208601615bc0565b614b1481615bf3565b840191505092915050565b6000614b2a82615a65565b614b348185615ae7565b9350614b44818560208601615bc0565b614b4d81615bf3565b840191505092915050565b6000614b6382615a65565b614b6d8185615af8565b9350614b7d818560208601615bc0565b614b8681615bf3565b840191505092915050565b600081546001811660008114614bae5760018114614bd457614c18565b607f6002830416614bbf8187615af8565b955060ff198316865260208601935050614c18565b60028204614be28187615af8565b9550614bed85615a27565b60005b82811015614c0f57815481890152600182019150602081019050614bf0565b80880195505050505b505092915050565b6000614c2d601983615af8565b91507f50726f766964657220556e61626c6520746f20557064617465000000000000006000830152602082019050919050565b6000614c6d601883615af8565b91507f5265717565737420556e61626c6520746f2055706461746500000000000000006000830152602082019050919050565b6000614cad601183615af8565b91507f456e6f7567682056616c696461746f72730000000000000000000000000000006000830152602082019050919050565b6000614ced601083615af8565b91507f50726f76696465722055706461746564000000000000000000000000000000006000830152602082019050919050565b6000614d2d600f83615af8565b91507f52657175657374205570646174656400000000000000000000000000000000006000830152602082019050919050565b6000614d6d601f83615af8565b91507f56616c69646174696f6e2041737369676e656420746f2050726f7669646572006000830152602082019050919050565b6000614dad600f83615af8565b91507f526571756573742053746f7070656400000000000000000000000000000000006000830152602082019050919050565b6000614ded601683615af8565b91507f5265717565737420556e61626c6520746f2053746f70000000000000000000006000830152602082019050919050565b6000614e2d601d83615af8565b91507f5265717565737420436f6d7075746174696f6e20436f6d706c657465640000006000830152602082019050919050565b6000614e6d600e83615af8565b91507f50726f76696465722041646465640000000000000000000000000000000000006000830152602082019050919050565b6000614ead601083615af8565b91507f50726f76696465722053746f70706564000000000000000000000000000000006000830152602082019050919050565b6000614eed601083615af8565b91507f56616c696461746f72205369676e6564000000000000000000000000000000006000830152602082019050919050565b6000614f2d601783615af8565b91507f50726f766964657220556e61626c6520746f2053746f700000000000000000006000830152602082019050919050565b6000614f6d601583615af8565b91507f4e6f7420456e6f7567682056616c696461746f727300000000000000000000006000830152602082019050919050565b6000614fad601083615af8565b91507f526571756573742041737369676e6564000000000000000000000000000000006000830152602082019050919050565b6000614fed601383615af8565b91507f56616c69646174696f6e20436f6d706c657465000000000000000000000000006000830152602082019050919050565b600061502d600d83615af8565b91507f52657175657374204164646564000000000000000000000000000000000000006000830152602082019050919050565b60c08201600082015161507660008501826153d0565b50602082015161508960208501826153d0565b50604082015161509c60408501826153ee565b5060608201516150af60608501826153b2565b5060808201516150c260808501826153d0565b5060a08201516150d560a0850182614aaa565b50505050565b60c0820160008201516150f160008501826153d0565b50602082015161510460208501826153d0565b50604082015161511760408501826153ee565b50606082015161512a60608501826153b2565b50608082015161513d60808501826153d0565b5060a082015161515060a0850182614aaa565b50505050565b60006101a08301600083015161516f60008601826153d0565b50602083015161518260208601826153d0565b5060408301516151956040860182614904565b5060608301516151a860608601826153ee565b5060808301516151bb60808601826153b2565b5060a08301516151ce60a08601826153d0565b5060c083015184820360c08601526151e68282614b1f565b91505060e083015184820360e08601526152008282614b1f565b9150506101008301516152176101008601826153ee565b506101208301518482036101208601526152318282614922565b91505061014083015184820361014086015261524d8282614980565b915050610160830151615264610160860182614aaa565b50610180830151615279610180860182614ac8565b508091505092915050565b60006101a08301600083015161529d60008601826153d0565b5060208301516152b060208601826153d0565b5060408301516152c36040860182614904565b5060608301516152d660608601826153ee565b5060808301516152e960808601826153b2565b5060a08301516152fc60a08601826153d0565b5060c083015184820360c08601526153148282614b1f565b91505060e083015184820360e086015261532e8282614b1f565b9150506101008301516153456101008601826153ee565b5061012083015184820361012086015261535f8282614922565b91505061014083015184820361014086015261537b8282614980565b915050610160830151615392610160860182614aaa565b506101808301516153a7610180860182614ac8565b508091505092915050565b6153bb81615b65565b82525050565b6153ca81615b65565b82525050565b6153d981615b93565b82525050565b6153e881615b93565b82525050565b6153f781615b9d565b82525050565b61540681615b9d565b82525050565b60006080820190506154216000830186614913565b61542e6020830185614913565b818103604083015261543f81614d60565b905081810360608301526154538184614b91565b9050949350505050565b60006060820190506154726000830185614913565b61547f6020830184614913565b818103604083015261549081614ee0565b90509392505050565b60006080820190506154ae6000830186614913565b6154bb6020830185614913565b81810360408301526154cc81614fa0565b905081810360608301526154e08184614b91565b9050949350505050565b60006040820190506154ff6000830184614913565b818103602083015261551081614c20565b905092915050565b600060408201905061552d6000830184614913565b818103602083015261553e81614c60565b905092915050565b600060408201905061555b6000830184614913565b818103602083015261556c81614ca0565b905092915050565b60006040820190506155896000830184614913565b818103602083015261559a81614ce0565b905092915050565b60006040820190506155b76000830184614913565b81810360208301526155c881614d20565b905092915050565b60006040820190506155e56000830184614913565b81810360208301526155f681614da0565b905092915050565b60006040820190506156136000830184614913565b818103602083015261562481614de0565b905092915050565b60006060820190506156416000830185614913565b818103602083015261565281614e20565b905081810360408301526156668184614b91565b90509392505050565b60006040820190506156846000830184614913565b818103602083015261569581614e60565b905092915050565b60006040820190506156b26000830184614913565b81810360208301526156c381614ea0565b905092915050565b60006040820190506156e06000830184614913565b81810360208301526156f181614f20565b905092915050565b600060408201905061570e6000830184614913565b818103602083015261571f81614f60565b905092915050565b600060608201905061573c6000830185614913565b818103602083015261574d81614fe0565b905081810360408301526157618184614b91565b90509392505050565b600060608201905061577f6000830185614913565b818103602083015261579081615020565b905081810360408301526157a48184614ae6565b90509392505050565b6000612580820190506157c360008301846149de565b92915050565b600060208201905081810360008301526157e38184614a35565b905092915050565b60006020820190506158006000830184614ab9565b92915050565b600060c08201905061581b6000830184615060565b92915050565b6000602082019050818103600083015261583b8184615156565b905092915050565b600060208201905061585860008301846153df565b92915050565b600061016082019050615874600083018e6153df565b615881602083018d6153df565b61588e604083018c614913565b61589b606083018b6153fd565b6158a8608083018a6153c1565b6158b560a08301896153df565b81810360c08301526158c78188614b58565b905081810360e08301526158db8187614b58565b90506158eb6101008301866153fd565b6158f9610120830185614ab9565b615907610140830184614ad7565b9c9b505050505050505050505050565b600060c08201905061592c60008301896153df565b61593960208301886153df565b61594660408301876153fd565b61595360608301866153c1565b61596060808301856153df565b61596d60a0830184614ab9565b979650505050505050565b6000604051905081810181811067ffffffffffffffff8211171561599b57600080fd5b8060405250919050565b600067ffffffffffffffff8211156159bc57600080fd5b602082029050602081019050919050565b600067ffffffffffffffff8211156159e457600080fd5b601f19601f8301169050602081019050919050565b6000602082019050919050565b6000602082019050919050565b6000819050919050565b6000819050919050565b60008160005260206000209050919050565b600081519050919050565b600081519050919050565b600060329050919050565b600060329050919050565b600081519050919050565b600081519050919050565b6000602082019050919050565b6000602082019050919050565b6000602082019050919050565b6000602082019050919050565b600082825260208201905092915050565b600082825260208201905092915050565b600081905092915050565b600081905092915050565b600082825260208201905092915050565b600082825260208201905092915050565b6000615b1482615b73565b9050919050565b6000615b2682615b73565b9050919050565b60008115159050919050565b60007fff0000000000000000000000000000000000000000000000000000000000000082169050919050565b600061ffff82169050919050565b600073ffffffffffffffffffffffffffffffffffffffff82169050919050565b6000819050919050565b600067ffffffffffffffff82169050919050565b82818337600083830152505050565b60005b83811015615bde578082015181840152602081019050615bc3565b83811115615bed576000848401525b50505050565b6000601f19601f8301169050919050565b615c0d81615b09565b8114615c1857600080fd5b50565b615c2481615b1b565b8114615c2f57600080fd5b50565b615c3b81615b2d565b8114615c4657600080fd5b50565b615c5281615b65565b8114615c5d57600080fd5b50565b615c6981615b9d565b8114615c7457600080fd5b5056fea265627a7a72305820469127f884de5a02b6ac72ff5af302f0c2613fd1f0bf69a8f061d3d09f1a857d6c6578706572696d656e74616cf50037",
  "source": "/////////////////////////////////////////////////////////////////////////////////////\n//version 2.1.0\n//Author: Taurus, Samuel Pritchett\n//Copyright: tlu4@lsu.edu\n//\n//comments updated on Apr.2019\n//fixed validateReqeust Logic: validator list is updated when selection, \n//                      signature list is updated when result submiteed, to avoid multi-submission\n//did not change function parameter, should not break anything\n///////////////////////////////////////////////////////////////////////////////////////\n//NOTE:\n//This design uses account address as the identifier, meaning each address could only have one req/prov associated.\n//When submit new or update existing req/prov, previous record are overwriten.\n//Each address could only have one req or prov, not at same time.\n//On the other hand, reqID and provID is just a counter, not an identifier. Update or resubmition results in new reqID/provID.\n\n//TODO: add conflict detection of the address. Check whether existing req or prov from your address is 'not complete',(being proccessed).\n////////////////////////////////////////////////////////////////////////////////////\n\npragma solidity ^0.5.0;\npragma experimental ABIEncoderV2;           //enable returning self-defined type, \n                                            //do not disable, provider is returned for debuging reason.\n\ncontract TaskContract {\n    //list\n    mapping (address => Provider) public providerList;   //provAddr => provider struct\n    mapping (address => Request)  public requestList;    //reqAddr => request struct\n    mapping (address => uint256)  public balanceList;    //reqAddr => balance   \n \n    //ID - counter\n    uint256 private providerCount;                       //+1 each time\n    uint256 private requestCount;\n\n    constructor() public {                               //sol 5.0 syntax\n        providerCount = 0;\n        requestCount = 0;\n    }\n\n    struct Request {\n        uint256 reqID;                      //requestID is not identifier, just a counter\n        uint256 blockNumber;                //record the time of submission\n        address payable provider;           //record the provider assigned to this request\n        uint64  time;                       //maximum time requirements                 TODO: determine the unit and format\n        uint16  target;                     //target 0-100.00                           TODO: determine the unit and format\n        uint256 price;                      //the max amount he willing to pay          TODO: determine the unit and format\n        bytes   dataID;                     //dataID used to fetch the off-chain data, interact with ipfs\n        bytes   resultID;                   //dataID to fetch the off-chain result, via ipfs\n        uint64  numValidations;             //user defined the number of validation, TODO: fix this as 3 \n        address payable []  validators;     //validators' addr, update when assigned the task to validators\n        bool[]  signatures;                 //true or false array, update only when validator submit result\n        bool    isValid;                    //the final flag\n        byte    status;                     //one byte indicating the status: 0: 'pending', 1:'providing', 2: 'validating', 3: 'complete'\n        //mapping (address => bool)validationList;   //no way to know if a specific address is in this mapping\n                                                    //but this can be useful together with validator []array\n    }\n\n    struct Provider {\n        uint256 provID;                     //just a counter\n        uint256 blockNumber;                //record the time of submission\n        uint64  maxTime;                    //max time he is willing to accept, maxTime of Prov's should be larger than Req's to successfully assign\n        uint16  maxTarget;                  //max target he can provide\n        uint256 minPrice;                   //lowest price he can accept\n        bool    available;                  //if ready to be assigned\n    }\n\n\n    //two types of events, only difference is # of returned address\n    //no need seperate events for each type, just put whatever info passed in bytes info\n    event IPFSInfo          (address payable reqAddr, bytes info, bytes extra);\n    event SystemInfo        (address payable reqAddr, bytes info);\n    event PairingInfo       (address payable reqAddr, address payable provAddr, bytes info);\n    event PairingInfoLong   (address payable reqAddr, address payable provAddr, bytes info, bytes extra);\n\n\n    //Pools stores the address of req or prov, thus indicate the stages.\n    address payable [] providerPool;        //provAddr only when more providers > req, or empty\n    address payable [] pendingPool;         //reqAddr only when more requests > prov, or empty\n    address payable [] providingPool;       //reqAddr\n    address payable [] validatingPool;      //reqAddr\n    /////////////////////////////////////////////////////////////////////////////////////\n\n    \n    // Function called to become a provider. Add address on List, and Pool if not instantly assigned. \n    // NOTE: cannot use to update pending providers. \n    // TIPS on gas cost: don't create local copy and write back, modify the storage directly.\n    // gas cost 165K without event / 167K with event / 92K overwrite\n    function startProviding(uint64 maxTime, uint16 maxTarget, uint64 minPrice) public returns (bool) {\n        if(providerList[msg.sender].blockNumber == 0){                  //if this is new\n            // register a new provider object in the List and map              \n            providerList[msg.sender].provID         = providerCount;    //cost 50k per item edit\n            providerList[msg.sender].blockNumber    = block.number;           \n            providerList[msg.sender].maxTime        = maxTime;\n            providerList[msg.sender].maxTime        = maxTime;       \n            providerList[msg.sender].maxTarget      = maxTarget;\n            providerList[msg.sender].minPrice       = minPrice;\n            providerList[msg.sender].available      = true;             //turn on the flag at LAST in case error\n            // ready for the next       \n            providerPool.push(msg.sender);\n            emit SystemInfo (msg.sender, \"Provider Added\");\n            providerCount++;\n            if(validatingPool.length != 0){                           //need to update how validation works before we can prioritize it here\n                findValidation(msg.sender);\n            }\n            assignProvider(msg.sender);                                 //try an instant assignment trial\n            return true;\n        } \n        else {                                                          //this address has been recorded before\n            return updateProvider(maxTime, maxTarget, minPrice);               //this could be an update\n            /*  //this is deprecated, use updateFunction instead.\n            if(providerList[msg.sender].available == true){             //can only modify available provider\n                providerList[msg.sender].blockNumber    = block.number;         \n                providerList[msg.sender].maxTime        = maxTime;       \n                providerList[msg.sender].maxTarget      = maxTarget;\n                providerList[msg.sender].minPrice       = minPrice;\n                emit SystemInfo(msg.sender,'Provider Updated');\n                assignProvider(msg.sender);\n                return true;\n            }*/\n        }\n    }\n    // Stop a provider. Must be sent from the provider address or it will be failed.\n    function stopProviding() public returns (bool) {\n        // If the sender is currently an active provider\n        if (providerList[msg.sender].available == true){               //can only stop available provider              \n            delete providerList[msg.sender];                           //delete from List\n            emit SystemInfo(msg.sender, 'Provider Stopped');\n            return ArrayPop(providerPool, msg.sender);                 //delete from Pool                \n        }\n        else{   \n            emit SystemInfo(msg.sender, 'Provider Unable to Stop');\n            return false;\n        }\n    }\n    //update a provider, you must know the provID and must sent from right addr\n    function updateProvider(uint64 maxTime, uint16 maxTarget, uint64 minPrice) public returns (bool) {      \n        if(providerList[msg.sender].available == true){                //can only modify available provider\n            providerList[msg.sender].blockNumber    = block.number;         \n            providerList[msg.sender].maxTime        = maxTime;       \n            providerList[msg.sender].maxTarget      = maxTarget;\n            providerList[msg.sender].minPrice       = minPrice;\n            emit SystemInfo(msg.sender,'Provider Updated');\n            assignProvider(msg.sender);\n            return true;\n        }\n        else{\n            emit SystemInfo(msg.sender, 'Provider Unable to Update');\n            return false;\n        }\n    }\n\n    // Send a request from user to blockchain.\n    // Assumes price is including the cost for verification\n    function startRequest(uint64 time, uint16 target, uint64 price, bytes memory dataID) payable public returns (bool) {\n        if(requestList[msg.sender].blockNumber == 0){   //never submitted before\n            //register on List\n            requestList[msg.sender].reqID         = requestCount;\n            requestList[msg.sender].blockNumber   = block.number;  \n            requestList[msg.sender].provider      = address(0);      \n            requestList[msg.sender].time          = time;    \n            requestList[msg.sender].target        = target;\n            requestList[msg.sender].price         = price;\n            requestList[msg.sender].dataID        = dataID;\n            requestList[msg.sender].numValidations = 3;//fixed 3 for testing reasons\n            requestList[msg.sender].status = '0' ;     //pending = 0x30, is in ascii not number 0\n            pendingPool.push(msg.sender);\n            emit IPFSInfo (msg.sender, \"Request Added\", dataID);\n            \n            requestCount++;     \n            assignRequest(msg.sender);                  //try an instant assignment\n            return true;\n        } else {    //submitted before\n            return updateRequest(time, target, price, dataID);\n            /*if(requestList[msg.sender].status == '0' ){                   //can only update pending request\n                requestList[msg.sender].blockNumber    = block.number;         \n                requestList[msg.sender].time        = time;       \n                requestList[msg.sender].target      = target;\n                requestList[msg.sender].price       = price;\n                requestList[msg.sender].dataID      = dataID;\n                emit SystemInfo(msg.sender, 'Request Updated');\n                return true;\n            }*/\n        }\n    }\n    function stopRequest() public returns (bool){\n        if (requestList[msg.sender].status == '0'){                   //can only cancel owned pending request, ('0' = 0x30)            \n            delete requestList[msg.sender];                           //delete from List             \n            emit SystemInfo(msg.sender, 'Request Stopped');\n            return ArrayPop(pendingPool, msg.sender);                 //delete from Pool   \n        }\n        else{\n            emit SystemInfo(msg.sender, 'Request Unable to Stop');\n            return false;\n        }\n    }\n    function updateRequest(uint64 time, uint16 target, uint64 price, bytes memory dataID) payable public returns (bool) {      \n        if(requestList[msg.sender].status == '0' ){                   //can only update pending request\n            requestList[msg.sender].blockNumber    = block.number;         \n            requestList[msg.sender].time        = time;       \n            requestList[msg.sender].target      = target;\n            requestList[msg.sender].price       = price;\n            requestList[msg.sender].dataID      = dataID;\n            emit SystemInfo(msg.sender, 'Request Updated');\n            return true;\n        }\n        else{\n            emit SystemInfo(msg.sender, 'Request Unable to Update');\n            return false;\n        }\n    }\n\n    // Search in the requestPool, find a job for current provider. Triggered by startProviding\n    // Returns: note: return value all in ascii format\n    //          0: successfully assigned\n    //          1: searched all providers but find no match\n    //          2: no available provider right now\n    //          3: failure during poping pool\n    function assignProvider(address payable provAddr) private returns (byte){\n        if(pendingPool.length == 0) return '2';     //no pending requests\n        else {\n            //search throught the requestPool\n            for (uint64 i = 0; i < pendingPool.length; i++){  \n                address  payable reqAddr = pendingPool[i];     //save the re-usable reqID , save gas by avoiding multiple read\n                if( (reqAddr!= address(0) && requestList[reqAddr].status != '1') &&\n                    requestList[reqAddr].time     <= providerList[provAddr].maxTime &&\n                    requestList[reqAddr].target   <= providerList[provAddr].maxTarget &&\n                    requestList[reqAddr].price    >= providerList[provAddr].minPrice){\n                        //meet the requirement, assign the task\n                        //update provider\n                        providerList[provAddr].available = false;\n                        ArrayPop(providerPool, provAddr);\n\n                        //update request\n                        requestList[reqAddr].provider = provAddr;\n                        requestList[reqAddr].status = '1';    //providing\n                        ArrayPop(pendingPool, reqAddr);\n\n                        //update balanceList            addr here is requester's\n                        balanceList[reqAddr] += requestList[reqAddr].price; \n\n                        providingPool.push(reqAddr);                       \n                        //status move from pending to providing\n                        emit PairingInfoLong(reqAddr, provAddr, \"Request Assigned\", requestList[reqAddr].dataID);\n                        return '0';                   \n                }                \n            }\n            //after for loop and no match\n            return '1';\n        }\n    }\n\n    // Assigning one task to one of the available providers. Only called from requestTask (private)\n    // Search in the providerPool, if no match in the end, return false\n    //could only assign one task at a time\n    //auto sel the first searching result for now, no comparation between multiple availability.\n    //TODO: need ot add preference next patch\n    // Returns: 0: successfully assigned\n    //          1: searched all providers but find no match\n    //          2: no available provider right now\n    //          3: failure during poping pool\n    function assignRequest(address payable reqAddr) private returns (byte) {\n        //provider availability is checked in pool not in list\n        if (providerPool.length == 0)   return '2';\n        else {            //if any provider in pool\n            for (uint64 i = 0; i < providerPool.length; i++) {      \n                address payable provAddr  = providerPool[i];   // save the provider's addr, reusable and save gas cost\n                if (provAddr != address(0) && providerList[provAddr].available == true){\n                    // Check if request conditions meet the providers requirements\n                    if (requestList[reqAddr].target <= providerList[provAddr].maxTarget && \n                        requestList[reqAddr].time <= providerList[provAddr].maxTime && \n                        requestList[reqAddr].price >= providerList[provAddr].minPrice) {\n                        \n                        //update provider:\n                        providerList[provAddr].available = false;\n                        ArrayPop(providerPool, provAddr);\n\n                        //update request\n                        requestList[reqAddr].provider = provAddr;\n                        requestList[reqAddr].status = '1';    //providing\n                        ArrayPop(pendingPool, reqAddr);\n\n                        //update balanceList              \n                        balanceList[reqAddr] += requestList[reqAddr].price; \n\n                        providingPool.push(reqAddr);\n                        emit PairingInfoLong(reqAddr, provAddr, \"Request Assigned\", requestList[reqAddr].dataID); // Let provider listen for this event to see he was selected\n                        return '0';\n                    }\n                }\n            }\n            // No provider was found matching the criteria -- request failed\n            // TODO: how to return payment is to be discussed in future.\n            //requestList[reqID].addr.transfer(requestList[reqID].price); // Returns the ether to the sender\n            return '1';\n        }\n    }\n\n\n    // Provider will call this when they are done and the result data is available.\n    // This will invoke the validation stage. Only when the request got enough validators,\n    // that req could be moved from pool and marked. Or that req stays providing\n    function completeRequest(address payable reqAddr, bytes memory resultID) public returns (bool) {\n        // Confirm msg.sender is actually the provider of the task he claims\n        if (msg.sender == requestList[reqAddr].provider) {\n            //change request obj\n            requestList[reqAddr].status = '2';    //validating\n            requestList[reqAddr].resultID = resultID;\n            //move from providing pool to validating Pool.\n            ArrayPop(providingPool, reqAddr);\n            validatingPool.push(reqAddr);\n            //release provider (not necessarily depend on provider) back into providerPool\n            providerList[msg.sender].available = true;\n            providerPool.push(msg.sender);\n            emit IPFSInfo(reqAddr, 'Request Computation Completed',requestList[reqAddr].resultID);\n            //start validation process\n            return validateRequest(reqAddr);\n        }\n        else {\n            return false;\n        }\n    }\n    //this will be seperated in the futurte when timeing out is possilbe for connections and the provider must \n    //stay available untill the data has been passed to all who are involved in this transaction\n    /*function releaseProvieder() public {\n        providerList[msg.sender].available = true;\n        providerPool.push(msg.sender);\n    }\n    */\n\n    // Called by completeRequest before finalizing stuff. NOTE: must have no validators right now\n    // Try to find as many as possible qualified validators\n    // Returns false if there wasnt enough free providers to send out the required number of validation requests\n    // need validation from 1/10 of nodes -- could change\n    function validateRequest(address payable reqAddr) private returns (bool) {\n        uint64 numValidatorsNeeded = requestList[reqAddr].numValidations; \n        uint64 validatorsFound = 0;\n        //select # of available provider from the pool and force em to do the validation\n        for (uint64 i = 1; i <= providerPool.length; i++) {\n            address payable provID = providerPool[i - 1]; //get provider ID\n            //TODO: check whether selected validator capable with parameters (time, accuracy,....)\n            if(provID != requestList[reqAddr].provider){   //validator and computer cannot be same\n                emit PairingInfoLong(reqAddr, provID, 'Validation Assigned to Provider', requestList[reqAddr].resultID);\n                validatorsFound++;\n                //remove the providers availablity and pop from pool\n                requestList[reqAddr].validators.push(provID);\n                requestList[reqAddr].signatures.push(false);    //push false to hold position\n                providerList[provID].available = false;\n                ArrayPop(providerPool, provID);\n                i--;\n                     \n                //NOTE [IMPORTANT] : pop array while looping this array is very dangerous\n                //because popping will change the sequence of the elements thus will skip some item.\n                //[deprecated] ArrayPop(providerPool, provID);\n                //solution: only pop after looping through all the pool\n    \n            } else continue;    //skip the provider/computer itself\n            \n            //check whether got enough validator\n            if(validatorsFound < numValidatorsNeeded){\n                continue;\n            }\n            else{       //enough validator\n                emit SystemInfo(reqAddr, 'Enough Validators');\n               // ArrayPop(providerPool, requestList[reqAddr].validators);\n                return true;\n                break;\n            }\n            //loop until certain # of validators selected\n        }   \n        //exit loop without enough validators\n       // ArrayPopArray(providerPool, requestList[reqAddr].validators);  //not sure if necessary , for safety\n        emit SystemInfo(reqAddr, 'Not Enough Validators');\n        return false;\n    }\n\n    // needs to be more secure by ensuring the submission is coming from someone legit \n    // similar to completeTask but this will sign the validation list of the target Task\n    // TODO: the money part is ommited for now\n    function submitValidation(address payable reqAddr, bool result) public returns (bool) {       \n        if(msg.sender != requestList[reqAddr].provider) {     //validator cannot be provider\n            for (uint64 i = 0; i<requestList[reqAddr].validators.length; i++){\n                if(requestList[reqAddr].validators[i] == msg.sender     // vali must be previous validator assigned\n                && requestList[reqAddr].signatures[i] == false){    // not yet signed\n                    \n                    requestList[reqAddr].signatures[i] = result;        //length is matched, this prevent multi-submission and can update his own\n                    providerList[msg.sender].available = true;          //release validator\n                    providerPool.push(msg.sender);\n                    emit PairingInfo(reqAddr, msg.sender, 'Validator Signed');\n                }\n                else continue;   //either submitted already or not find , go for next\n            }\n            checkValidation(reqAddr);\n        }\n        else   //submit vali from provider\n            return false;\n\n        // Pay the validator \n        // uint partialPayment = requestList[reqID].price / 100; // amount each validator is paid\n        // msg.sender.transfer(partialPayment);\n        // balanceList[requestList[reqID].addr] -= partialPayment;\n    }\n    \n    //TODO: what if result is invalid, we got 3 false signature, will stuck here.\n    function checkValidation(address payable reqAddr) private returns (bool) {\n        // Add up successful validations\n        bool flag = false;\n        uint64 successCount = 0;\n        for (uint64 i=0; i<requestList[reqAddr].signatures.length; i++) {\n           if (requestList[reqAddr].signatures[i] == true) successCount += 1;\n        }\n        // if 2/3 of validation attempts were successful\n        // TODO: determine the fraction\n        \n        if (successCount  >= requestList[reqAddr].numValidations) { \n            // if 2/3 of validations were valid then provider gets remainder of money\n            //requestList[reqID].provider.transfer(payment); \n            //balanceList[requestList[reqID].addr] -= payment;\n            //TODO: [important] leave out the payment part for now.\n            requestList[reqAddr].isValid = true; // Task was successfully completed! \n            emit IPFSInfo(reqAddr, 'Validation Complete', requestList[reqAddr].resultID);\n            //flag = ArrayPop(validatingPool, reqAddr);\n            finalizeRequest(reqAddr);\n        }\n        /*\n        // otherwise, work was invalid, the providers payment goes back to requester\n        //else {\n            //requestList[reqID].addr.transfer(payment);\n            //balanceList[requestList[reqID].addr] -= payment;\n        //}\n        // EVENT: task is done whether successful or not\n        //emit TaskCompleted(requestList[reqID].addr, reqID);\n\n        // popout from pool\n        */\n        return flag;\n    }\n\n\n    // called by startProviding if the validatingPool is not empty\n    // assigns the new provider to validate a task\n    // IDEA: Could be modified so that any available provider could call. For now it assumes only used on new providers in startProviding\n    function findValidation(address payable provAddr) private {\n        for(uint64 i = 0; i < validatingPool.length; i++){  //search the entire validatingpool\n            address payable reqAddr = validatingPool[i]; //set reqAddr current task\n            if(requestList[reqAddr].numValidations > requestList[reqAddr].validators.length){ //check to see if the task has enough validators\n                //since the provAddr is a new provider, we don't need to check if he is already a validator, should be impossible unless bug exists\n                if(provAddr != requestList[reqAddr].provider){ //check to make sure he is not the computer\n                    emit PairingInfoLong(reqAddr, provAddr, 'Validation Assigned to Provider',requestList[reqAddr].resultID);\n                    requestList[reqAddr].validators.push(provAddr);\n                    requestList[reqAddr].signatures.push(false);    //extend length to match length of validator list\n                    providerList[provAddr].available = false;\n                    ArrayPop(providerPool, provAddr);\n\n\n                    //alert task owner if their task now has enough validators\n                    if(requestList[validatingPool[i]].validators.length == requestList[validatingPool[i]].numValidations){\n                        emit SystemInfo(reqAddr, 'Enough Validators');\n                    }\n\n                    break;\n\n                }\n                //else he is computer, did nothing\n            }\n            else continue; //this req has already got enough, check next\n        }\n    }\n\n    // finalize the completed result, move everything out of current pools\n    // TODO: handle any potential payment\n    function finalizeRequest(address payable reqAddr) private returns (bool) {\n        ArrayPop(validatingPool, reqAddr);\n        //delete related record\n        //requestList[reqAddr] = Request\n        requestList[reqAddr].blockNumber       = 0;\n        //requestList[reqAddr].validators.push(address(0));\n        for(uint64 i = 2 ; i >= 0 ; i--){\n          delete requestList[reqAddr].validators[i];\n          requestList[reqAddr].signatures[i] = false;  \n        }\n    }\n/////////////////////////////////////////////////////////////////////\n    // Used to dynamically remove elements from array of open provider spaces. \n    // Using a swap and delete method, search for the desired addr throughout the whole array\n    // delete the desired and swap the hole with last element\n    function ArrayPop(address payable [] storage array, address payable target) private returns (bool) {\n        for(uint64 i = 0; i < array.length; i++){\n            if (array[i] == target) {\n                //swap last element with hole\n                array[i] = array[array.length-1];\n                //delete last item\n                delete array[array.length-1];\n                //decrease size\n                array.length -= 1;\n                return true;\n            }\n        }\n        return false;   //fail to search: no matching in pool\n    }\n    function ArrayPopArray(address payable[] storage array, address payable[] memory targetArray) private returns (bool){\n        bool flag = true;\n        for (uint64 j = 0;j<targetArray.length;j++){\n            flag = flag && ArrayPop(array, targetArray[j]);\n        }\n        return flag;\n    }\n    /////////////////////////////////////////////////////////////////////////////////\n    //some helpers defined here\n\n    function getProvider(address payable ID) public view returns(Provider memory){\n        return providerList[ID];\n    }\n    function getRequest(address payable ID) public view returns (Request memory){\n\t    return requestList[ID];\n    }\n    function getProviderCount() public view returns (uint256){\n        return providerCount;\n    }\n    function getRequestCount() public view returns (uint256){\n        return requestCount;\n    }\n\n/*    function getProviderPool() public view returns (address payable[] memory){\n        return providerPool;\n    }\n    function getPendingPool() public view returns (address payable[] memory){\n        return pendingPool;\n    }\n    function getValidatingPool() public view returns (address payable[] memory){\n        return validatingPool;\n    }\n    function getProvidingPool() public view returns (address payable[] memory){\n        return providingPool;\n    }\n\n    function getProviderPoolSize() public view returns (uint256){\n        return providerPool.length;\n    }\n/*    function getRequestPoolSize() public view returns (uint256){\n        return pendingPool.length;\n    }\n*/\n\n    //function getBalance(address addr) public view returns (uint256){\n    //    return balanceList[addr];\n    //}\n    function listRequests(address payable[] memory IDList) public view returns(Request[50] memory){\n\t    Request[50] memory allRequest;\n\t    for (uint64 i = 0; i < IDList.length; i++){\n\t\t    allRequest[i] = getRequest(IDList[i]);\n\t    }\n\t    return allRequest;\n    }\n    function listProviders(address payable[] memory IDList) public view returns(Provider[50] memory){\n        Provider[50] memory allProvider;\n        //address addr;\n        for (uint64 i = 0; i < IDList.length;i++){\n            allProvider[i] = getProvider(IDList[i]);\n        }\n        return allProvider;\n    }\n/*    function listAllRequests() public view returns(Request[50] memory){\n\t    Request[50] memory allRequest;\n\t    for (uint64 i = 0; i < requestCount; i++){\n\t\t    allRequest[i] = getRequest(i);\n\t    }\n\t    return allRequest;\n    }\n    function listAllProviders() public view returns(Provider[50] memory){\n\t    Provider[50] memory allProvider;\n\t    for (uint64 i = 0; i < providerCount; i++){\n\t\t    allProvider[i] = getProvider(i);\n\t    }\n\t    return allProvider;\n    }\n*/\n\n}\n",
  "sourcePath": "/home/pedriv/Documents/gitLab/bcai_v2.0/contracts/bcai_2.0.sol",
  "compiler": {
    "name": "solc",
    "version": "0.5.8+commit.23d335f2.Emscripten.clang"
  },
  "schemaVersion": "3.0.10",
  "updatedAt": "2019-07-19T16:30:47.658Z",
  "devdoc": {
    "methods": {}
  },
  "userdoc": {
    "methods": {
      "getProvider(address)": {
        "notice": "//////////////////////////////////////////////////////////////////////////////"
      },
      "startProviding(uint64,uint16,uint64)": {
        "notice": "//////////////////////////////////////////////////////////////////////////////////"
      }
    }
  }
}