{
  "contractName": "TaskContract",
  "abi": [
    {
      "constant": true,
      "inputs": [
        {
          "name": "",
          "type": "address"
        }
      ],
      "name": "requestList",
      "outputs": [
        {
          "name": "reqID",
          "type": "uint256"
        },
        {
          "name": "blockNumber",
          "type": "uint256"
        },
        {
          "name": "provider",
          "type": "address"
        },
        {
          "name": "time",
          "type": "uint64"
        },
        {
          "name": "target",
          "type": "uint16"
        },
        {
          "name": "price",
          "type": "uint256"
        },
        {
          "name": "dataID",
          "type": "uint64"
        },
        {
          "name": "resultID",
          "type": "uint64"
        },
        {
          "name": "numValidations",
          "type": "uint64"
        },
        {
          "name": "isValid",
          "type": "bool"
        },
        {
          "name": "status",
          "type": "bytes1"
        }
      ],
      "payable": false,
      "stateMutability": "view",
      "type": "function",
      "signature": "0x0708799e"
    },
    {
      "constant": true,
      "inputs": [
        {
          "name": "",
          "type": "address"
        }
      ],
      "name": "providerList",
      "outputs": [
        {
          "name": "provID",
          "type": "uint256"
        },
        {
          "name": "blockNumber",
          "type": "uint256"
        },
        {
          "name": "maxTime",
          "type": "uint64"
        },
        {
          "name": "maxTarget",
          "type": "uint16"
        },
        {
          "name": "minPrice",
          "type": "uint256"
        },
        {
          "name": "available",
          "type": "bool"
        }
      ],
      "payable": false,
      "stateMutability": "view",
      "type": "function",
      "signature": "0x0e1e4a3c"
    },
    {
      "constant": true,
      "inputs": [
        {
          "name": "",
          "type": "address"
        }
      ],
      "name": "balanceList",
      "outputs": [
        {
          "name": "",
          "type": "uint256"
        }
      ],
      "payable": false,
      "stateMutability": "view",
      "type": "function",
      "signature": "0x189258de"
    },
    {
      "inputs": [],
      "payable": false,
      "stateMutability": "nonpayable",
      "type": "constructor",
      "signature": "constructor"
    },
    {
      "anonymous": false,
      "inputs": [
        {
          "indexed": false,
          "name": "addr",
          "type": "address"
        },
        {
          "indexed": false,
          "name": "info",
          "type": "bytes"
        }
      ],
      "name": "SystemInfo",
      "type": "event",
      "signature": "0xa332e7b06782060530f8d1575fcf83b5e831fe3dd09c85e53b0351a7c38ceeac"
    },
    {
      "anonymous": false,
      "inputs": [
        {
          "indexed": false,
          "name": "req",
          "type": "address"
        },
        {
          "indexed": false,
          "name": "prov",
          "type": "address"
        },
        {
          "indexed": false,
          "name": "info",
          "type": "bytes"
        }
      ],
      "name": "PairingInfo",
      "type": "event",
      "signature": "0x654163525cabcfa0ce95ecb1f232c75746c89688c42e7e2d52df90d770fc9e57"
    },
    {
      "constant": false,
      "inputs": [
        {
          "name": "maxTime",
          "type": "uint64"
        },
        {
          "name": "maxTarget",
          "type": "uint16"
        },
        {
          "name": "minPrice",
          "type": "uint64"
        }
      ],
      "name": "startProviding",
      "outputs": [
        {
          "name": "",
          "type": "bool"
        }
      ],
      "payable": false,
      "stateMutability": "nonpayable",
      "type": "function",
      "signature": "0x2ddfdbcc"
    },
    {
      "constant": false,
      "inputs": [
        {
          "name": "time",
          "type": "uint64"
        },
        {
          "name": "target",
          "type": "uint16"
        },
        {
          "name": "price",
          "type": "uint64"
        },
        {
          "name": "dataID",
          "type": "uint64"
        }
      ],
      "name": "startRequest",
      "outputs": [
        {
          "name": "",
          "type": "bool"
        }
      ],
      "payable": true,
      "stateMutability": "payable",
      "type": "function",
      "signature": "0x7dbcb1de"
    },
    {
      "constant": false,
      "inputs": [
        {
          "name": "reqID",
          "type": "address"
        },
        {
          "name": "resultID",
          "type": "uint64"
        }
      ],
      "name": "completeRequest",
      "outputs": [
        {
          "name": "",
          "type": "bool"
        }
      ],
      "payable": false,
      "stateMutability": "nonpayable",
      "type": "function",
      "signature": "0x9281e9ec"
    },
    {
      "constant": false,
      "inputs": [
        {
          "name": "reqID",
          "type": "address"
        }
      ],
      "name": "validateRequest",
      "outputs": [
        {
          "name": "",
          "type": "bool"
        }
      ],
      "payable": false,
      "stateMutability": "nonpayable",
      "type": "function",
      "signature": "0xaaef4a62"
    },
    {
      "constant": false,
      "inputs": [
        {
          "name": "reqID",
          "type": "address"
        },
        {
          "name": "result",
          "type": "bool"
        }
      ],
      "name": "submitValidation",
      "outputs": [
        {
          "name": "",
          "type": "bool"
        }
      ],
      "payable": false,
      "stateMutability": "nonpayable",
      "type": "function",
      "signature": "0x3432d0f5"
    },
    {
      "constant": false,
      "inputs": [
        {
          "name": "reqID",
          "type": "address"
        }
      ],
      "name": "checkValidation",
      "outputs": [
        {
          "name": "",
          "type": "bool"
        }
      ],
      "payable": false,
      "stateMutability": "nonpayable",
      "type": "function",
      "signature": "0x566b2474"
    },
    {
      "constant": true,
      "inputs": [
        {
          "name": "ID",
          "type": "address"
        }
      ],
      "name": "getProvider",
      "outputs": [
        {
          "components": [
            {
              "name": "provID",
              "type": "uint256"
            },
            {
              "name": "blockNumber",
              "type": "uint256"
            },
            {
              "name": "maxTime",
              "type": "uint64"
            },
            {
              "name": "maxTarget",
              "type": "uint16"
            },
            {
              "name": "minPrice",
              "type": "uint256"
            },
            {
              "name": "available",
              "type": "bool"
            }
          ],
          "name": "",
          "type": "tuple"
        }
      ],
      "payable": false,
      "stateMutability": "view",
      "type": "function",
      "signature": "0x55f21eb7"
    },
    {
      "constant": true,
      "inputs": [
        {
          "name": "ID",
          "type": "address"
        }
      ],
      "name": "getRequest",
      "outputs": [
        {
          "components": [
            {
              "name": "reqID",
              "type": "uint256"
            },
            {
              "name": "blockNumber",
              "type": "uint256"
            },
            {
              "name": "provider",
              "type": "address"
            },
            {
              "name": "time",
              "type": "uint64"
            },
            {
              "name": "target",
              "type": "uint16"
            },
            {
              "name": "price",
              "type": "uint256"
            },
            {
              "name": "dataID",
              "type": "uint64"
            },
            {
              "name": "resultID",
              "type": "uint64"
            },
            {
              "name": "numValidations",
              "type": "uint64"
            },
            {
              "name": "validators",
              "type": "address[]"
            },
            {
              "name": "signatures",
              "type": "bool[]"
            },
            {
              "name": "isValid",
              "type": "bool"
            },
            {
              "name": "status",
              "type": "bytes1"
            }
          ],
          "name": "",
          "type": "tuple"
        }
      ],
      "payable": false,
      "stateMutability": "view",
      "type": "function",
      "signature": "0x63c1dff7"
    },
    {
      "constant": true,
      "inputs": [],
      "name": "getProviderCount",
      "outputs": [
        {
          "name": "",
          "type": "uint256"
        }
      ],
      "payable": false,
      "stateMutability": "view",
      "type": "function",
      "signature": "0x46ce4175"
    },
    {
      "constant": true,
      "inputs": [],
      "name": "getRequestCount",
      "outputs": [
        {
          "name": "",
          "type": "uint256"
        }
      ],
      "payable": false,
      "stateMutability": "view",
      "type": "function",
      "signature": "0x3fad1834"
    },
    {
      "constant": true,
      "inputs": [],
      "name": "getProviderPool",
      "outputs": [
        {
          "name": "",
          "type": "address[]"
        }
      ],
      "payable": false,
      "stateMutability": "view",
      "type": "function",
      "signature": "0x9e723b97"
    },
    {
      "constant": true,
      "inputs": [],
      "name": "getPendingPool",
      "outputs": [
        {
          "name": "",
          "type": "address[]"
        }
      ],
      "payable": false,
      "stateMutability": "view",
      "type": "function",
      "signature": "0xa9ecaae7"
    },
    {
      "constant": true,
      "inputs": [],
      "name": "getValidatingPool",
      "outputs": [
        {
          "name": "",
          "type": "address[]"
        }
      ],
      "payable": false,
      "stateMutability": "view",
      "type": "function",
      "signature": "0x32c5200d"
    },
    {
      "constant": true,
      "inputs": [],
      "name": "getProvidingPool",
      "outputs": [
        {
          "name": "",
          "type": "address[]"
        }
      ],
      "payable": false,
      "stateMutability": "view",
      "type": "function",
      "signature": "0x1f1dab45"
    },
    {
      "constant": true,
      "inputs": [],
      "name": "getProviderPoolSize",
      "outputs": [
        {
          "name": "",
          "type": "uint256"
        }
      ],
      "payable": false,
      "stateMutability": "view",
      "type": "function",
      "signature": "0x353b2a1f"
    },
    {
      "constant": true,
      "inputs": [],
      "name": "getRequestPoolSize",
      "outputs": [
        {
          "name": "",
          "type": "uint256"
        }
      ],
      "payable": false,
      "stateMutability": "view",
      "type": "function",
      "signature": "0x5c4c8c4e"
    }
  ],
  "bytecode": "0x608060405234801561001057600080fd5b50600060038190555060006004819055506139c6806100306000396000f3fe608060405260043610610107576000357c0100000000000000000000000000000000000000000000000000000000900463ffffffff1680630708799e1461010c5780630e1e4a3c14610153578063189258de146101955780631f1dab45146101d25780632ddfdbcc146101fd57806332c5200d1461023a5780633432d0f514610265578063353b2a1f146102a25780633fad1834146102cd57806346ce4175146102f857806355f21eb714610323578063566b2474146103605780635c4c8c4e1461039d57806363c1dff7146103c85780637dbcb1de146104055780639281e9ec146104355780639e723b9714610472578063a9ecaae71461049d578063aaef4a62146104c8575b600080fd5b34801561011857600080fd5b50610133600480360361012e9190810190612e5b565b610505565b60405161014a9b9a99989796959493929190613729565b60405180910390f35b34801561015f57600080fd5b5061017a60048036036101759190810190612e5b565b610616565b60405161018c969594939291906137d4565b60405180910390f35b3480156101a157600080fd5b506101bc60048036036101b79190810190612e5b565b610681565b6040516101c9919061370e565b60405180910390f35b3480156101de57600080fd5b506101e7610699565b6040516101f49190613694565b60405180910390f35b34801561020957600080fd5b50610224600480360361021f9190810190612f25565b610727565b60405161023191906136b6565b60405180910390f35b34801561024657600080fd5b5061024f610a51565b60405161025c9190613694565b60405180910390f35b34801561027157600080fd5b5061028c60048036036102879190810190612ead565b610adf565b60405161029991906136b6565b60405180910390f35b3480156102ae57600080fd5b506102b7610d8e565b6040516102c4919061370e565b60405180910390f35b3480156102d957600080fd5b506102e2610d9b565b6040516102ef919061370e565b60405180910390f35b34801561030457600080fd5b5061030d610da5565b60405161031a919061370e565b60405180910390f35b34801561032f57600080fd5b5061034a60048036036103459190810190612e84565b610daf565b60405161035791906136d1565b60405180910390f35b34801561036c57600080fd5b5061038760048036036103829190810190612e84565b610e93565b60405161039491906136b6565b60405180910390f35b3480156103a957600080fd5b506103b26110c6565b6040516103bf919061370e565b60405180910390f35b3480156103d457600080fd5b506103ef60048036036103ea9190810190612e84565b6110d3565b6040516103fc91906136ec565b60405180910390f35b61041f600480360361041a9190810190612f74565b61142a565b60405161042c91906136b6565b60405180910390f35b34801561044157600080fd5b5061045c60048036036104579190810190612ee9565b611887565b60405161046991906136b6565b60405180910390f35b34801561047e57600080fd5b50610487611ae7565b6040516104949190613694565b60405180910390f35b3480156104a957600080fd5b506104b2611b75565b6040516104bf9190613694565b60405180910390f35b3480156104d457600080fd5b506104ef60048036036104ea9190810190612e84565b611c03565b6040516104fc91906136b6565b60405180910390f35b60016020528060005260406000206000915090508060000154908060010154908060020160009054906101000a900473ffffffffffffffffffffffffffffffffffffffff16908060020160149054906101000a900467ffffffffffffffff169080600201601c9054906101000a900461ffff16908060030154908060040160009054906101000a900467ffffffffffffffff16908060040160089054906101000a900467ffffffffffffffff16908060040160109054906101000a900467ffffffffffffffff16908060070160009054906101000a900460ff16908060070160019054906101000a90047f01000000000000000000000000000000000000000000000000000000000000000290508b565b60006020528060005260406000206000915090508060000154908060010154908060020160009054906101000a900467ffffffffffffffff16908060020160089054906101000a900461ffff16908060030154908060040160009054906101000a900460ff16905086565b60026020528060005260406000206000915090505481565b6060600780548060200260200160405190810160405280929190818152602001828054801561071d57602002820191906000526020600020905b8160009054906101000a900473ffffffffffffffffffffffffffffffffffffffff1673ffffffffffffffffffffffffffffffffffffffff16815260200190600101908083116106d3575b5050505050905090565b60006003546000803373ffffffffffffffffffffffffffffffffffffffff1673ffffffffffffffffffffffffffffffffffffffff16815260200190815260200160002060000181905550436000803373ffffffffffffffffffffffffffffffffffffffff1673ffffffffffffffffffffffffffffffffffffffff16815260200190815260200160002060010181905550836000803373ffffffffffffffffffffffffffffffffffffffff1673ffffffffffffffffffffffffffffffffffffffff16815260200190815260200160002060020160006101000a81548167ffffffffffffffff021916908367ffffffffffffffff160217905550836000803373ffffffffffffffffffffffffffffffffffffffff1673ffffffffffffffffffffffffffffffffffffffff16815260200190815260200160002060020160006101000a81548167ffffffffffffffff021916908367ffffffffffffffff160217905550826000803373ffffffffffffffffffffffffffffffffffffffff1673ffffffffffffffffffffffffffffffffffffffff16815260200190815260200160002060020160086101000a81548161ffff021916908361ffff1602179055508167ffffffffffffffff166000803373ffffffffffffffffffffffffffffffffffffffff1673ffffffffffffffffffffffffffffffffffffffff1681526020019081526020016000206003018190555060016000803373ffffffffffffffffffffffffffffffffffffffff1673ffffffffffffffffffffffffffffffffffffffff16815260200190815260200160002060040160006101000a81548160ff02191690831515021790555060053390806001815401808255809150509060018203906000526020600020016000909192909190916101000a81548173ffffffffffffffffffffffffffffffffffffffff021916908373ffffffffffffffffffffffffffffffffffffffff160217905550507fa332e7b06782060530f8d1575fcf83b5e831fe3dd09c85e53b0351a7c38ceeac33604051610a22919061360a565b60405180910390a1600360008154809291906001019190505550610a4533611ec5565b50600190509392505050565b60606008805480602002602001604051908101604052809291908181526020018280548015610ad557602002820191906000526020600020905b8160009054906101000a900473ffffffffffffffffffffffffffffffffffffffff1673ffffffffffffffffffffffffffffffffffffffff1681526020019060010190808311610a8b575b5050505050905090565b6000600160008473ffffffffffffffffffffffffffffffffffffffff1673ffffffffffffffffffffffffffffffffffffffff16815260200190815260200160002060020160009054906101000a900473ffffffffffffffffffffffffffffffffffffffff1673ffffffffffffffffffffffffffffffffffffffff163373ffffffffffffffffffffffffffffffffffffffff16141515610ca657600160008473ffffffffffffffffffffffffffffffffffffffff1673ffffffffffffffffffffffffffffffffffffffff1681526020019081526020016000206005013390806001815401808255809150509060018203906000526020600020016000909192909190916101000a81548173ffffffffffffffffffffffffffffffffffffffff021916908373ffffffffffffffffffffffffffffffffffffffff16021790555050600160008473ffffffffffffffffffffffffffffffffffffffff1673ffffffffffffffffffffffffffffffffffffffff16815260200190815260200160002060060182908060018154018082558091505090600182039060005260206000209060209182820401919006909192909190916101000a81548160ff021916908315150217905550505b7f654163525cabcfa0ce95ecb1f232c75746c89688c42e7e2d52df90d770fc9e578333604051610cd7929190613508565b60405180910390a1600160008473ffffffffffffffffffffffffffffffffffffffff1673ffffffffffffffffffffffffffffffffffffffff16815260200190815260200160002060040160109054906101000a900467ffffffffffffffff1667ffffffffffffffff16600160008573ffffffffffffffffffffffffffffffffffffffff1673ffffffffffffffffffffffffffffffffffffffff16815260200190815260200160002060050180549050505092915050565b6000600580549050905090565b6000600454905090565b6000600354905090565b610db7612c90565b6000808373ffffffffffffffffffffffffffffffffffffffff1673ffffffffffffffffffffffffffffffffffffffff16815260200190815260200160002060c0604051908101604052908160008201548152602001600182015481526020016002820160009054906101000a900467ffffffffffffffff1667ffffffffffffffff1667ffffffffffffffff1681526020016002820160089054906101000a900461ffff1661ffff1661ffff168152602001600382015481526020016004820160009054906101000a900460ff1615151515815250509050919050565b60008060009050600080905060008090505b600160008673ffffffffffffffffffffffffffffffffffffffff1673ffffffffffffffffffffffffffffffffffffffff168152602001908152602001600020600501805490508167ffffffffffffffff161015610f975760011515600160008773ffffffffffffffffffffffffffffffffffffffff1673ffffffffffffffffffffffffffffffffffffffff1681526020019081526020016000206006018267ffffffffffffffff16815481101515610f5957fe5b90600052602060002090602091828204019190069054906101000a900460ff1615151415610f8a5781806001019250505b8080600101915050610ea5565b50600160008573ffffffffffffffffffffffffffffffffffffffff1673ffffffffffffffffffffffffffffffffffffffff16815260200190815260200160002060040160109054906101000a900467ffffffffffffffff1667ffffffffffffffff168167ffffffffffffffff1610151561106e5760018060008673ffffffffffffffffffffffffffffffffffffffff1673ffffffffffffffffffffffffffffffffffffffff16815260200190815260200160002060070160006101000a81548160ff0219169083151502179055506001915061106f565b5b7fa332e7b06782060530f8d1575fcf83b5e831fe3dd09c85e53b0351a7c38ceeac8460405161109e9190613638565b60405180910390a18180156110ba57506110b9600885612486565b5b91508192505050919050565b6000600680549050905090565b6110db612cd7565b600160008373ffffffffffffffffffffffffffffffffffffffff1673ffffffffffffffffffffffffffffffffffffffff1681526020019081526020016000206101a0604051908101604052908160008201548152602001600182015481526020016002820160009054906101000a900473ffffffffffffffffffffffffffffffffffffffff1673ffffffffffffffffffffffffffffffffffffffff1673ffffffffffffffffffffffffffffffffffffffff1681526020016002820160149054906101000a900467ffffffffffffffff1667ffffffffffffffff1667ffffffffffffffff16815260200160028201601c9054906101000a900461ffff1661ffff1661ffff168152602001600382015481526020016004820160009054906101000a900467ffffffffffffffff1667ffffffffffffffff1667ffffffffffffffff1681526020016004820160089054906101000a900467ffffffffffffffff1667ffffffffffffffff1667ffffffffffffffff1681526020016004820160109054906101000a900467ffffffffffffffff1667ffffffffffffffff1667ffffffffffffffff1681526020016005820180548060200260200160405190810160405280929190818152602001828054801561130857602002820191906000526020600020905b8160009054906101000a900473ffffffffffffffffffffffffffffffffffffffff1673ffffffffffffffffffffffffffffffffffffffff16815260200190600101908083116112be575b505050505081526020016006820180548060200260200160405190810160405280929190818152602001828054801561138557602002820191906000526020600020906000905b82829054906101000a900460ff1615158152602001906001019060208260000104928301926001038202915080841161134f5790505b505050505081526020016007820160009054906101000a900460ff161515151581526020016007820160019054906101000a90047f0100000000000000000000000000000000000000000000000000000000000000027effffffffffffffffffffffffffffffffffffffffffffffffffffffffffffff19167effffffffffffffffffffffffffffffffffffffffffffffffffffffffffffff1916815250509050919050565b6000600454600160003373ffffffffffffffffffffffffffffffffffffffff1673ffffffffffffffffffffffffffffffffffffffff1681526020019081526020016000206000018190555043600160003373ffffffffffffffffffffffffffffffffffffffff1673ffffffffffffffffffffffffffffffffffffffff168152602001908152602001600020600101819055506000600160003373ffffffffffffffffffffffffffffffffffffffff1673ffffffffffffffffffffffffffffffffffffffff16815260200190815260200160002060020160006101000a81548173ffffffffffffffffffffffffffffffffffffffff021916908373ffffffffffffffffffffffffffffffffffffffff16021790555084600160003373ffffffffffffffffffffffffffffffffffffffff1673ffffffffffffffffffffffffffffffffffffffff16815260200190815260200160002060020160146101000a81548167ffffffffffffffff021916908367ffffffffffffffff16021790555083600160003373ffffffffffffffffffffffffffffffffffffffff1673ffffffffffffffffffffffffffffffffffffffff168152602001908152602001600020600201601c6101000a81548161ffff021916908361ffff1602179055508267ffffffffffffffff16600160003373ffffffffffffffffffffffffffffffffffffffff1673ffffffffffffffffffffffffffffffffffffffff1681526020019081526020016000206003018190555081600160003373ffffffffffffffffffffffffffffffffffffffff1673ffffffffffffffffffffffffffffffffffffffff16815260200190815260200160002060040160006101000a81548167ffffffffffffffff021916908367ffffffffffffffff16021790555060018060003373ffffffffffffffffffffffffffffffffffffffff1673ffffffffffffffffffffffffffffffffffffffff16815260200190815260200160002060040160106101000a81548167ffffffffffffffff021916908367ffffffffffffffff1602179055507f3000000000000000000000000000000000000000000000000000000000000000600160003373ffffffffffffffffffffffffffffffffffffffff1673ffffffffffffffffffffffffffffffffffffffff16815260200190815260200160002060070160016101000a81548160ff02191690837f01000000000000000000000000000000000000000000000000000000000000009004021790555060063390806001815401808255809150509060018203906000526020600020016000909192909190916101000a81548173ffffffffffffffffffffffffffffffffffffffff021916908373ffffffffffffffffffffffffffffffffffffffff160217905550507fa332e7b06782060530f8d1575fcf83b5e831fe3dd09c85e53b0351a7c38ceeac336040516118579190613666565b60405180910390a160046000815480929190600101919050555061187a33612637565b5060019050949350505050565b6000600160008473ffffffffffffffffffffffffffffffffffffffff1673ffffffffffffffffffffffffffffffffffffffff16815260200190815260200160002060020160009054906101000a900473ffffffffffffffffffffffffffffffffffffffff1673ffffffffffffffffffffffffffffffffffffffff163373ffffffffffffffffffffffffffffffffffffffff161415611adc577f3200000000000000000000000000000000000000000000000000000000000000600160008573ffffffffffffffffffffffffffffffffffffffff1673ffffffffffffffffffffffffffffffffffffffff16815260200190815260200160002060070160016101000a81548160ff02191690837f01000000000000000000000000000000000000000000000000000000000000009004021790555081600160008573ffffffffffffffffffffffffffffffffffffffff1673ffffffffffffffffffffffffffffffffffffffff16815260200190815260200160002060040160086101000a81548167ffffffffffffffff021916908367ffffffffffffffff160217905550611a2e600784612486565b5060088390806001815401808255809150509060018203906000526020600020016000909192909190916101000a81548173ffffffffffffffffffffffffffffffffffffffff021916908373ffffffffffffffffffffffffffffffffffffffff160217905550507fa332e7b06782060530f8d1575fcf83b5e831fe3dd09c85e53b0351a7c38ceeac83604051611ac491906135ae565b60405180910390a1611ad583611c03565b9050611ae1565b600090505b92915050565b60606005805480602002602001604051908101604052809291908181526020018280548015611b6b57602002820191906000526020600020905b8160009054906101000a900473ffffffffffffffffffffffffffffffffffffffff1673ffffffffffffffffffffffffffffffffffffffff1681526020019060010190808311611b21575b5050505050905090565b60606006805480602002602001604051908101604052809291908181526020018280548015611bf957602002820191906000526020600020905b8160009054906101000a900473ffffffffffffffffffffffffffffffffffffffff1673ffffffffffffffffffffffffffffffffffffffff1681526020019060010190808311611baf575b5050505050905090565b600080600160008473ffffffffffffffffffffffffffffffffffffffff1673ffffffffffffffffffffffffffffffffffffffff16815260200190815260200160002060040160109054906101000a900467ffffffffffffffff169050600080905060008090505b6005805490508167ffffffffffffffff161015611e8557600060058267ffffffffffffffff16815481101515611c9c57fe5b9060005260206000200160009054906101000a900473ffffffffffffffffffffffffffffffffffffffff169050600160008773ffffffffffffffffffffffffffffffffffffffff1673ffffffffffffffffffffffffffffffffffffffff16815260200190815260200160002060020160009054906101000a900473ffffffffffffffffffffffffffffffffffffffff1673ffffffffffffffffffffffffffffffffffffffff168173ffffffffffffffffffffffffffffffffffffffff16141515611e0c577f654163525cabcfa0ce95ecb1f232c75746c89688c42e7e2d52df90d770fc9e578682604051611d919291906134cc565b60405180910390a1828060010193505060008060008373ffffffffffffffffffffffffffffffffffffffff1673ffffffffffffffffffffffffffffffffffffffff16815260200190815260200160002060040160006101000a81548160ff021916908315150217905550611e06600582612486565b50611e12565b50611e78565b8367ffffffffffffffff168367ffffffffffffffff161015611e345750611e78565b7fa332e7b06782060530f8d1575fcf83b5e831fe3dd09c85e53b0351a7c38ceeac86604051611e6391906135dc565b60405180910390a16001945050505050611ec0565b8080600101915050611c6a565b507fa332e7b06782060530f8d1575fcf83b5e831fe3dd09c85e53b0351a7c38ceeac84604051611eb59190613580565b60405180910390a150505b919050565b6000806006805490501415611efc577f32000000000000000000000000000000000000000000000000000000000000009050612481565b60008090505b6006805490508167ffffffffffffffff16101561245c57600060068267ffffffffffffffff16815481101515611f3457fe5b9060005260206000200160009054906101000a900473ffffffffffffffffffffffffffffffffffffffff1690506000808573ffffffffffffffffffffffffffffffffffffffff1673ffffffffffffffffffffffffffffffffffffffff16815260200190815260200160002060020160009054906101000a900467ffffffffffffffff1667ffffffffffffffff16600160008373ffffffffffffffffffffffffffffffffffffffff1673ffffffffffffffffffffffffffffffffffffffff16815260200190815260200160002060020160149054906101000a900467ffffffffffffffff1667ffffffffffffffff161080156120d557506000808573ffffffffffffffffffffffffffffffffffffffff1673ffffffffffffffffffffffffffffffffffffffff16815260200190815260200160002060020160089054906101000a900461ffff1661ffff16600160008373ffffffffffffffffffffffffffffffffffffffff1673ffffffffffffffffffffffffffffffffffffffff168152602001908152602001600020600201601c9054906101000a900461ffff1661ffff16105b801561216357506000808573ffffffffffffffffffffffffffffffffffffffff1673ffffffffffffffffffffffffffffffffffffffff16815260200190815260200160002060030154600160008373ffffffffffffffffffffffffffffffffffffffff1673ffffffffffffffffffffffffffffffffffffffff16815260200190815260200160002060030154115b1561244e5760008060008673ffffffffffffffffffffffffffffffffffffffff1673ffffffffffffffffffffffffffffffffffffffff16815260200190815260200160002060040160006101000a81548160ff0219169083151502179055506121cd600585612486565b5083600160008373ffffffffffffffffffffffffffffffffffffffff1673ffffffffffffffffffffffffffffffffffffffff16815260200190815260200160002060020160006101000a81548173ffffffffffffffffffffffffffffffffffffffff021916908373ffffffffffffffffffffffffffffffffffffffff1602179055507f3100000000000000000000000000000000000000000000000000000000000000600160008373ffffffffffffffffffffffffffffffffffffffff1673ffffffffffffffffffffffffffffffffffffffff16815260200190815260200160002060070160016101000a81548160ff02191690837f0100000000000000000000000000000000000000000000000000000000000000900402179055506122f5600682612486565b50600160008273ffffffffffffffffffffffffffffffffffffffff1673ffffffffffffffffffffffffffffffffffffffff16815260200190815260200160002060030154600260008373ffffffffffffffffffffffffffffffffffffffff1673ffffffffffffffffffffffffffffffffffffffff1681526020019081526020016000206000828254019250508190555060078490806001815401808255809150509060018203906000526020600020016000909192909190916101000a81548173ffffffffffffffffffffffffffffffffffffffff021916908373ffffffffffffffffffffffffffffffffffffffff160217905550507f654163525cabcfa0ce95ecb1f232c75746c89688c42e7e2d52df90d770fc9e57818560405161241c929190613544565b60405180910390a17f300000000000000000000000000000000000000000000000000000000000000092505050612481565b508080600101915050611f02565b507f310000000000000000000000000000000000000000000000000000000000000090505b919050565b600080600090505b83805490508167ffffffffffffffff16101561262b578273ffffffffffffffffffffffffffffffffffffffff16848267ffffffffffffffff168154811015156124d357fe5b9060005260206000200160009054906101000a900473ffffffffffffffffffffffffffffffffffffffff1673ffffffffffffffffffffffffffffffffffffffff16141561261e5783600185805490500381548110151561252f57fe5b9060005260206000200160009054906101000a900473ffffffffffffffffffffffffffffffffffffffff16848267ffffffffffffffff1681548110151561257257fe5b9060005260206000200160006101000a81548173ffffffffffffffffffffffffffffffffffffffff021916908373ffffffffffffffffffffffffffffffffffffffff1602179055508360018580549050038154811015156125cf57fe5b9060005260206000200160006101000a81549073ffffffffffffffffffffffffffffffffffffffff0219169055600184818180549050039150816126139190612da6565b506001915050612631565b808060010191505061248e565b50600090505b92915050565b600080600580549050141561266e577f32000000000000000000000000000000000000000000000000000000000000009050612c8b565b60008090505b6005805490508167ffffffffffffffff161015612c6657600060058267ffffffffffffffff168154811015156126a657fe5b9060005260206000200160009054906101000a900473ffffffffffffffffffffffffffffffffffffffff169050600073ffffffffffffffffffffffffffffffffffffffff168173ffffffffffffffffffffffffffffffffffffffff16141580156127625750600115156000808373ffffffffffffffffffffffffffffffffffffffff1673ffffffffffffffffffffffffffffffffffffffff16815260200190815260200160002060040160009054906101000a900460ff161515145b15612c58576000808273ffffffffffffffffffffffffffffffffffffffff1673ffffffffffffffffffffffffffffffffffffffff16815260200190815260200160002060020160089054906101000a900461ffff1661ffff16600160008673ffffffffffffffffffffffffffffffffffffffff1673ffffffffffffffffffffffffffffffffffffffff168152602001908152602001600020600201601c9054906101000a900461ffff1661ffff16111580156128dd57506000808273ffffffffffffffffffffffffffffffffffffffff1673ffffffffffffffffffffffffffffffffffffffff16815260200190815260200160002060020160009054906101000a900467ffffffffffffffff1667ffffffffffffffff16600160008673ffffffffffffffffffffffffffffffffffffffff1673ffffffffffffffffffffffffffffffffffffffff16815260200190815260200160002060020160149054906101000a900467ffffffffffffffff1667ffffffffffffffff1611155b801561296c57506000808273ffffffffffffffffffffffffffffffffffffffff1673ffffffffffffffffffffffffffffffffffffffff16815260200190815260200160002060030154600160008673ffffffffffffffffffffffffffffffffffffffff1673ffffffffffffffffffffffffffffffffffffffff1681526020019081526020016000206003015410155b15612c575760008060008373ffffffffffffffffffffffffffffffffffffffff1673ffffffffffffffffffffffffffffffffffffffff16815260200190815260200160002060040160006101000a81548160ff0219169083151502179055506129d6600582612486565b5080600160008673ffffffffffffffffffffffffffffffffffffffff1673ffffffffffffffffffffffffffffffffffffffff16815260200190815260200160002060020160006101000a81548173ffffffffffffffffffffffffffffffffffffffff021916908373ffffffffffffffffffffffffffffffffffffffff1602179055507f3100000000000000000000000000000000000000000000000000000000000000600160008673ffffffffffffffffffffffffffffffffffffffff1673ffffffffffffffffffffffffffffffffffffffff16815260200190815260200160002060070160016101000a81548160ff02191690837f010000000000000000000000000000000000000000000000000000000000000090040217905550612afe600685612486565b50600160008573ffffffffffffffffffffffffffffffffffffffff1673ffffffffffffffffffffffffffffffffffffffff16815260200190815260200160002060030154600260008673ffffffffffffffffffffffffffffffffffffffff1673ffffffffffffffffffffffffffffffffffffffff1681526020019081526020016000206000828254019250508190555060078490806001815401808255809150509060018203906000526020600020016000909192909190916101000a81548173ffffffffffffffffffffffffffffffffffffffff021916908373ffffffffffffffffffffffffffffffffffffffff160217905550507f654163525cabcfa0ce95ecb1f232c75746c89688c42e7e2d52df90d770fc9e578482604051612c25929190613544565b60405180910390a17f300000000000000000000000000000000000000000000000000000000000000092505050612c8b565b5b508080600101915050612674565b507f310000000000000000000000000000000000000000000000000000000000000090505b919050565b60c0604051908101604052806000815260200160008152602001600067ffffffffffffffff168152602001600061ffff168152602001600081526020016000151581525090565b6101a0604051908101604052806000815260200160008152602001600073ffffffffffffffffffffffffffffffffffffffff168152602001600067ffffffffffffffff168152602001600061ffff16815260200160008152602001600067ffffffffffffffff168152602001600067ffffffffffffffff168152602001600067ffffffffffffffff168152602001606081526020016060815260200160001515815260200160007effffffffffffffffffffffffffffffffffffffffffffffffffffffffffffff191681525090565b815481835581811115612dcd57818360005260206000209182019101612dcc9190612dd2565b5b505050565b612df491905b80821115612df0576000816000905550600101612dd8565b5090565b90565b6000612e03823561393a565b905092915050565b6000612e17823561394c565b905092915050565b6000612e2b823561395e565b905092915050565b6000612e3f823561396a565b905092915050565b6000612e538235613978565b905092915050565b600060208284031215612e6d57600080fd5b6000612e7b84828501612df7565b91505092915050565b600060208284031215612e9657600080fd5b6000612ea484828501612e0b565b91505092915050565b60008060408385031215612ec057600080fd5b6000612ece85828601612e0b565b9250506020612edf85828601612e1f565b9150509250929050565b60008060408385031215612efc57600080fd5b6000612f0a85828601612e0b565b9250506020612f1b85828601612e47565b9150509250929050565b600080600060608486031215612f3a57600080fd5b6000612f4886828701612e47565b9350506020612f5986828701612e33565b9250506040612f6a86828701612e47565b9150509250925092565b60008060008060808587031215612f8a57600080fd5b6000612f9887828801612e47565b9450506020612fa987828801612e33565b9350506040612fba87828801612e47565b9250506060612fcb87828801612e47565b91505092959194509250565b612fe0816138a4565b82525050565b6000612ff182613867565b80845260208401935061300383613842565b60005b8281101561303557613019868351612fd7565b6130228261388a565b9150602086019550600181019050613006565b50849250505092915050565b600061304c8261385c565b80845260208401935061305e83613835565b60005b8281101561309057613074868351612fd7565b61307d8261387d565b9150602086019550600181019050613061565b50849250505092915050565b60006130a782613872565b8084526020840193506130b98361384f565b60005b828110156130eb576130cf8683516130f7565b6130d882613897565b91506020860195506001810190506130bc565b50849250505092915050565b613100816138b6565b82525050565b61310f816138c2565b82525050565b6000601582527f4e6f7420656e6f7567682076616c696461746f727300000000000000000000006020830152604082019050919050565b6000601f82527f56616c69646174696f6e2041737369676e656420746f2050726f7669646572006020830152604082019050919050565b6000601d82527f5265717565737420436f6d7075746174696f6e20436f6d706c657465640000006020830152604082019050919050565b6000601182527f456e6f7567682076616c696461746f72730000000000000000000000000000006020830152604082019050919050565b6000600e82527f50726f76696465722041646465640000000000000000000000000000000000006020830152604082019050919050565b6000601082527f56616c696461746f72205369676e6564000000000000000000000000000000006020830152604082019050919050565b6000601082527f526571756573742041737369676e6564000000000000000000000000000000006020830152604082019050919050565b6000601382527f56616c69646174696f6e20436f6d706c657465000000000000000000000000006020830152604082019050919050565b6000600d82527f52657175657374204164646564000000000000000000000000000000000000006020830152604082019050919050565b60c08201600082015161331a60008501826134ae565b50602082015161332d60208501826134ae565b50604082015161334060408501826134bd565b506060820151613353606085018261349f565b50608082015161336660808501826134ae565b5060a082015161337960a08501826130f7565b50505050565b60006101a08301600083015161339860008601826134ae565b5060208301516133ab60208601826134ae565b5060408301516133be6040860182612fd7565b5060608301516133d160608601826134bd565b5060808301516133e4608086018261349f565b5060a08301516133f760a08601826134ae565b5060c083015161340a60c08601826134bd565b5060e083015161341d60e08601826134bd565b506101008301516134326101008601826134bd565b5061012083015184820361012086015261344c8282613041565b915050610140830151848203610140860152613468828261309c565b91505061016083015161347f6101608601826130f7565b50610180830151613494610180860182613106565b508091505092915050565b6134a8816138ee565b82525050565b6134b78161391c565b82525050565b6134c681613926565b82525050565b60006060820190506134e16000830185612fd7565b6134ee6020830184612fd7565b81810360408301526134ff8161314c565b90509392505050565b600060608201905061351d6000830185612fd7565b61352a6020830184612fd7565b818103604083015261353b81613228565b90509392505050565b60006060820190506135596000830185612fd7565b6135666020830184612fd7565b81810360408301526135778161325f565b90509392505050565b60006040820190506135956000830184612fd7565b81810360208301526135a681613115565b905092915050565b60006040820190506135c36000830184612fd7565b81810360208301526135d481613183565b905092915050565b60006040820190506135f16000830184612fd7565b8181036020830152613602816131ba565b905092915050565b600060408201905061361f6000830184612fd7565b8181036020830152613630816131f1565b905092915050565b600060408201905061364d6000830184612fd7565b818103602083015261365e81613296565b905092915050565b600060408201905061367b6000830184612fd7565b818103602083015261368c816132cd565b905092915050565b600060208201905081810360008301526136ae8184612fe6565b905092915050565b60006020820190506136cb60008301846130f7565b92915050565b600060c0820190506136e66000830184613304565b92915050565b60006020820190508181036000830152613706818461337f565b905092915050565b600060208201905061372360008301846134ae565b92915050565b60006101608201905061373f600083018e6134ae565b61374c602083018d6134ae565b613759604083018c612fd7565b613766606083018b6134bd565b613773608083018a61349f565b61378060a08301896134ae565b61378d60c08301886134bd565b61379a60e08301876134bd565b6137a86101008301866134bd565b6137b66101208301856130f7565b6137c4610140830184613106565b9c9b505050505050505050505050565b600060c0820190506137e960008301896134ae565b6137f660208301886134ae565b61380360408301876134bd565b613810606083018661349f565b61381d60808301856134ae565b61382a60a08301846130f7565b979650505050505050565b6000602082019050919050565b6000602082019050919050565b6000602082019050919050565b600081519050919050565b600081519050919050565b600081519050919050565b6000602082019050919050565b6000602082019050919050565b6000602082019050919050565b60006138af826138fc565b9050919050565b60008115159050919050565b60007fff0000000000000000000000000000000000000000000000000000000000000082169050919050565b600061ffff82169050919050565b600073ffffffffffffffffffffffffffffffffffffffff82169050919050565b6000819050919050565b600067ffffffffffffffff82169050919050565b6000613945826138fc565b9050919050565b6000613957826138fc565b9050919050565b60008115159050919050565b600061ffff82169050919050565b600067ffffffffffffffff8216905091905056fea265627a7a72305820abca49cf8068a810e43df5440b594a4f76d0fb0706934c6414028c8ecec7b5ad6c6578706572696d656e74616cf50037",
  "source": "/////////////////////////////////////////////////////////////////////////////////////\n//version 1.9.1\n//Author: Taurus\n//Copyright: tlu4@lsu.edu\n//\n//NOTE: non-view functions cannot return values, only possible way is event\n//Changes from v0.9x. Each node has unique address as identifier. All pools removed \n//All req and prov handled in the mapping.\n//update 12/12: pools cannot be removed, since we need to track who are active, cannot search in mapping.\n///////////////////////////////////////////////////////////////////////////////////////\npragma solidity ^0.5.0;\npragma experimental ABIEncoderV2;   //return self-defined type\n\ncontract TaskContract {\n    //list\n    mapping (address => Provider) public providerList;   //All here\n    mapping (address => Request)  public requestList;    //All here\n    mapping (address => uint256)  public balanceList;    //reqID => balance\n \n    //ID - counter\n    uint256 private providerCount;     //+1 each time\n    uint256 private requestCount;\n\n    \n\n    constructor() public {      //sol 5.0 syntax\n        providerCount = 0;\n        requestCount = 0;\n    }\n\n    struct Request {\n        uint256 reqID;              //requestID is the only identifier for each Request\n        uint256 blockNumber;\n        //address payable addr;       //payable is new feature from sol v5.0\n        //uint256 assignedProvider;\n        address payable provider;         //\n        //address payable provider;   //addr of worker\n        uint64  time;               //time\n        uint16  target;             //target 0-100.00\n        uint256 price;              //the max amount he can pay\n        uint64  dataID;             //dataID used to fetch the off-chain data\n        uint64  resultID;           //dataID to fetch the result\n        uint64  numValidations;   //user defined the validation\n        address payable []  validators;        //multisignature from validations\n        bool[] signatures;\n        bool    isValid;            //the final flag\n        byte    status;              //0: 'pending', 1:'providing', 2: validating, 3: complete\n    }\n\n    struct Provider {\n        uint256 provID;\n        uint256 blockNumber;\n        //address payable addr;       //providers address   \n                                    //TODO: the provider name registration.\n        uint64  maxTime;            //max time\n        uint16  maxTarget;          //max target he need\n        uint256 minPrice;           //lowest price can accept\n        bool    available;          // Used to determine if provider is already doing something\n    }\n\n    event SystemInfo        (address payable addr, bytes info);\n    event PairingInfo       (address payable req, address payable prov, bytes info);\n\n    address payable [] providerPool;\n    address payable [] pendingPool;\n    address payable [] providingPool;\n    address payable [] validatingPool;\n    /////////////////////////////////////////////////////////////////////////////////////\n\n    \n    // Function called to become a provider. New on List, Map and Pool. \n    // NOTE: cannot use to update. You must stop a previous one and start a new one.\n    // TIPS: gas cost: don't create local copy and write back, modify the storage directly.\n    //gas cost 165K without event / 167K with event / 92K overwrite\n    function startProviding(uint64 maxTime, uint16 maxTarget, uint64 minPrice) public returns (bool) {\n        // register a new provider object in the List and map              \n        providerList[msg.sender].provID         = providerCount;      //cost 50k per item edit\n        providerList[msg.sender].blockNumber    = block.number;\n            //providerList[msg.sender].addr           = msg.sender;             \n        providerList[msg.sender].maxTime        = maxTime;\n        providerList[msg.sender].maxTime        = maxTime;       \n        providerList[msg.sender].maxTarget      = maxTarget;\n        providerList[msg.sender].minPrice       = minPrice;\n        providerList[msg.sender].available      = true;  //turn on the flag at LAST\n        // ready for the next       \n        providerPool.push(msg.sender);\n        emit SystemInfo (msg.sender, \"Provider Added\");\n        providerCount++;\n        assignProvider(msg.sender);\n        return true;\n    }\n    /*// Stop a provider, if you know a provider ID. Get em using getProvID()\n    // Must be sent from the provider address or it will be failed.\n    function stopProviding(uint256 provID) public returns (bool) {\n        // If the sender is currently an active provider\n        bool flag = false;\n        if (providerList[provID].available == true                 //can only stop available provider\n                && providerList[provID].addr == msg.sender) {      //you cannot delete other's provider            \n            delete providerList[provID];                           //delete from List\n            flag = ArrayPop(providerMap[msg.sender], provID);      //delete form Map\n            flag = ArrayPop(providerPool, provID) && flag;         //delete from Pool             \n        }\n        if(flag) emit ProviderStopped(provID, msg.sender);\n        return flag;\n    }\n    //update a provider, you must know the provID and must sent from right addr\n    function updateProvider(uint64 maxTime, uint16 maxTarget, uint64 minPrice, uint256 provID) public returns (bool) {      \n        bool flag = false;\n        if(providerList[provID].available == true           //can only modify available provider\n        && providerList[provID].addr != msg.sender){        //you are modify other's config\n            providerList[provID].blockNumber    = block.number;         \n            providerList[provID].maxTime        = maxTime;       \n            providerList[provID].maxTarget      = maxTarget;\n            providerList[provID].minPrice       = minPrice;\n            //update pool       -- pop then push , because we need to scan pool anyway\n            flag = ArrayPop(providerPool,provID);           // pop first                                      \n            providerPool.push(provID);                      // push in both case anyway\n            //update map -- no need provID not changed.\n            emit ProviderUpdated(provID, msg.sender);\n            return flag;\n        }\n    }*/\n\n    // Send a request from user to blockchain.\n    // Assumes price is including the cost for verification\n    function startRequest(uint64 time, uint16 target, uint64 price, uint64 dataID) payable public returns (bool) {\n        //register on List\n        requestList[msg.sender].reqID         = requestCount;\n        requestList[msg.sender].blockNumber   = block.number;  \n        requestList[msg.sender].provider      = address(0);      \n        requestList[msg.sender].time          = time;    \n        requestList[msg.sender].target        = target;\n        requestList[msg.sender].price         = price;\n        requestList[msg.sender].dataID        = dataID;\n        requestList[msg.sender].numValidations = 1;\n        requestList[msg.sender].status = '0' ;     //pending 0x30, not 0\n        pendingPool.push(msg.sender);\n        emit SystemInfo (msg.sender, \"Request Added\");\n        \n        //update count\n        requestCount++;     \n        \n        assignRequest(msg.sender);\n        return true;\n    }\n\n/*\n    // Used to be sure you are seen as available. e.g. power outage caused you to lose available status on network.\n    // Not to be called after stopProviding to resume -- startProviding used in this case.\n    //function restart() public returns (bool) {\n    //if (providerList[providerID[msg.sender]].addr == msg.sender) {\n    //     providers[providerID[msg.sender]].available = true;\n    //       return true;\n    //    }\n    //else {\n    //    return false; // provider wasnt found in mapping\n    //  }\n    //}\n*/\n\n    // Search in the requestPool, find a job for current provider. Triggered by startProviding\n    // Return true if a match or false if not.\n    // Returns: 0: successfully assigned\n    //          1: searched all providers but find no match\n    //          2: no available provider right now\n    //          3: failure during poping pool\n    function assignProvider(address payable addr) private returns (byte){\n        if(pendingPool.length == 0) return '2';\n        else {\n            //search throught the requestPool\n            for (uint64 i = 0; i < pendingPool.length; i++){\n                //save the re-usable reqID , may save gas\n                address payable reqAddr = pendingPool[i];    \n                if( requestList[reqAddr].time     < providerList[addr].maxTime &&\n                    requestList[reqAddr].target   < providerList[addr].maxTarget &&\n                    requestList[reqAddr].price    > providerList[addr].minPrice){\n                        //meet the requirement, assign the task\n                        //update provider\n                        providerList[addr].available = false;\n                        ArrayPop(providerPool, addr);\n\n                        //update request\n                        requestList[reqAddr].provider = addr;\n                        requestList[reqAddr].status = '1';    //providing\n                        ArrayPop(pendingPool, reqAddr);\n\n                        //update balanceList            addr here is requester's\n                        balanceList[reqAddr] += requestList[reqAddr].price; \n\n                        providingPool.push(addr);                       \n                        //status move from pending to providing\n                        emit PairingInfo(reqAddr, addr, \"Request Assigned\");\n                        return '0';                   \n                }                \n            }\n            //after for loop and no match\n            return '1';\n        }\n    }\n\n\n\n\n\n    \n\n    /*function requestTask(uint64 dataID, uint16 target, uint64 time) payable public returns (bool) {\n        bool[] memory emptyArray;\n        Request memory req = Request(           //create a temp memory var\n            msg.sender,             //addr\n            address(0),             //provider\n            requestCount,           //reqID\n            dataID,                 //dataID\n            time,                   //time    \n            target,                 //target   0-100\n            msg.value,              //price \n            0,                      //resultID\n            1,                      //numValidationsNeeded\n            emptyArray,             //sig list\n            false,                  //isValid\n            0                       //status  0-3 0: pending\n        );\n\n        //copy the mem var into storage\n        requestList[requestCount] = req;        //requestCount used as index here, from 0 to +++\n        //add new to requestPool\n        requestPool.push(requestCount);\n        //update requestID\n        requestID[msg.sender].push(requestCount);\n        //update count\n        requestCount++;     //count already stands for the # of req now.\n        pendingCount++;\n        return assignTask();\n    }\n*/\n\n    // Assigning one task to one of the available providers. Only called from requestTask (private)\n    // Search in the providerPool, if no match in the end, return false\n    //could only assign one task at a time\n    //auto sel the first searching result for now, no comparation between multiple availability.\n    //TODO: need ot add preference next patch\n    // Returns: 0: successfully assigned\n    //          1: searched all providers but find no match\n    //          2: no available provider right now\n    //          3: failure during poping pool\n    function assignRequest(address payable reqID) private returns (byte) {\n        //provider availability is checked in pool not in list\n        if (providerPool.length == 0)   return '2';\n        else {            //if any provider in pool\n            for (uint64 i = 0; i < providerPool.length; i++) {\n                // save the provider's addr, reusable and save gas cost\n                address payable addr  = providerPool[i];\n                if(addr != address(0) && providerList[addr].available == true){\n                    // Check if request conditions meet the providers requirements\n                    if (requestList[reqID].target <= providerList[addr].maxTarget && \n                        requestList[reqID].time <= providerList[addr].maxTime && \n                        requestList[reqID].price >= providerList[addr].minPrice) {\n                        \n                        //update provider:\n                        providerList[addr].available = false;\n                        ArrayPop(providerPool, addr);\n\n                        //update request\n                        requestList[reqID].provider = addr;\n                        requestList[reqID].status = '1';    //providing\n                        ArrayPop(pendingPool, reqID);\n\n                        //update balanceList              \n                        balanceList[reqID] += requestList[reqID].price; \n\n                        providingPool.push(reqID);\n                        //EVENT\n                        emit PairingInfo(reqID, addr, \"Request Assigned\"); // Let provider listen for this event to see he was selected\n                        return '0';\n                    }\n                }\n            }\n            // No provider was found matching the criteria -- request failed\n            //requestList[reqID].addr.transfer(requestList[reqID].price); // Returns the ether to the sender\n            return '1';\n        }\n    }\n\n\n\n\n\n    // Provider will call this when they are done and the data is available.\n    // This will invoke the validation stage but only when the request got enough validators\n    // that req could be moved from pool and marked,\n    // Or that req stays providing\n    function completeRequest(address payable reqID, uint64 resultID) public returns (bool) {\n        // Confirm msg.sender is actually the provider of the task he claims\n        if (msg.sender == requestList[reqID].provider) {\n            //change request obj\n            requestList[reqID].status = '2';    //validating\n            requestList[reqID].resultID = resultID;\n            //move from providing pool to validating Pool.\n            ArrayPop(providingPool, reqID);\n            validatingPool.push(reqID);\n            //release provider (not necessarily depend on provider)\n            //providerList[providerID[msg.sender]].available = true;\n            //emit assignRequest(reqID, msg.sender);\n            emit SystemInfo(reqID, 'Request Computation Completed');\n            //start validation process\n                return validateRequest(reqID);\n        }\n        else {\n            return false;\n        }\n    }\n\n    // Called by assignRequest before finalizing stuff. Contract checks with validators\n    // Returns false if there wasnt enough free providers to send out the required number of validation requests\n    // need validation from 1/10 of nodes -- could change\n    function validateRequest(address payable reqID) public returns (bool) {\n        uint64 numValidatorsNeeded = requestList[reqID].numValidations; \n        //uint numValidators = providerCount / 10; \n        uint64 validatorsFound = 0;\n        //requestList[reqID].numValidationsNeeded = numValidators;\n        //select # of available provider from the pool and force em to do the validation\n        for (uint64 i = 0; i < providerPool.length; i++) {\n            //get provider ID\n            address payable provID = providerPool[i];\n            if(provID != requestList[reqID].provider){   //validator and computer cannot be same\n                //EVENT: informs validator that they were selected and need to validate\n                emit PairingInfo(reqID, provID, 'Validation Assigned to Provider');\n                validatorsFound++;\n                //remove the providers availablity and pop from pool\n                providerList[provID].available = false;\n                ArrayPop(providerPool, provID);\n            } else continue;\n            //check whether got enough validator\n            if(validatorsFound < numValidatorsNeeded){\n                continue;\n            }\n            else{       //enough validator\n                emit SystemInfo(reqID, 'Enough validators');\n                return true;\n                break;\n            }\n            //loop until certain # of validators selected\n        }   \n        //exit loop without enough validators\n        //emit NotEnoughValidation(reqID);    \n        emit SystemInfo(reqID, 'Not enough validators');\n    }\n\n\n\n\n\n    // needs to be more secure by ensuring the submission is coming from someone legit \n    // similar to completeTask but this will sign the validation list of the target Task\n    //TODO: the money part is ommited for now\n    function submitValidation(address payable reqID, bool result) public returns (bool) {\n        // Pay the validator \n        // uint partialPayment = requestList[reqID].price / 100; // amount each validator is paid\n        // msg.sender.transfer(partialPayment);\n        // balanceList[requestList[reqID].addr] -= partialPayment;\n        if(msg.sender != requestList[reqID].provider) {     //validator cannot be provider\n            requestList[reqID].validators.push(msg.sender);     //push array\n            requestList[reqID].signatures.push(result);     //edit mapping\n        }\n        //emit ValidationInfo(reqID, provID, 'Validator Signed');\n        //check if valid\n        \n        emit PairingInfo(reqID, msg.sender, 'Validator Signed');\n       \n        // If enough validations have been submitted\n        if (requestList[reqID].validators.length == requestList[reqID].numValidations) {\n            //return checkValidation(reqID, requestList[reqID].price - requestList[reqID].numValidationsNeeded * partialPayment);\n            //checkValidation(reqID);\n        }\n    }\n    \n    function checkValidation(address payable reqID) public returns (bool) {\n        // Add up successful validations\n        bool flag = false;\n        uint64 successCount = 0;\n        for (uint64 i=0; i<requestList[reqID].validators.length; i++) {\n            if (requestList[reqID].signatures[i] == true) successCount++;\n        }\n        // if 2/3 of validation attempts were successful\n        // TODO: determine the fraction\n        if (successCount  >= requestList[reqID].numValidations) { \n            // if 2/3 of validations were valid then provider gets remainder of money\n            //requestList[reqID].provider.transfer(payment); \n            //balanceList[requestList[reqID].addr] -= payment;\n            //TODO: [important] leave out the payment part for now.\n            requestList[reqID].isValid = true; // Task was successfully completed! \n            flag = true;\n        }\n        // otherwise, work was invalid, the providers payment goes back to requester\n        else {\n            //requestList[reqID].addr.transfer(payment);\n            //balanceList[requestList[reqID].addr] -= payment;\n        }\n        // EVENT: task is done whether successful or not\n        //emit TaskCompleted(requestList[reqID].addr, reqID);\n        emit SystemInfo(reqID, 'Validation Complete');\n        //popout from pool\n        flag = flag && ArrayPop(validatingPool, reqID);\n\n        return flag;\n    }\n\n/////////////////////////////////////////////////////////////////////\n // Used to dynamically remove elements from array of open provider spaces. \n    // Using a swap and delete method, search for the desired addr throughout the whole array\n    // delete the desired and swap the whole with last element\n    /*function AddrArrayPop(address payable [] storage addrArray, uint256 target) private returns(bool) {\n        for(uint64 i = 0; i < addrArray.length; i++){\n            if (addrArray[i] == target) {\n                //swap last element with hole\n                addrArray[i] = addrArray[addrArray.length-1];\n                //delete last item\n                delete addrArray[addrArray.length-1];\n                 //decrease size\n                addrArray.length--;\n                return true;\n            }\n        }\n        return false; //fail to search: no matching in pool\n    }*/\n\n    function ArrayPop(address payable [] storage array, address payable target) private returns (bool) {\n        for(uint64 i = 0; i < array.length; i++){\n            if (array[i] == target) {\n                //swap last element with hole\n                array[i] = array[array.length-1];\n                //delete last item\n                delete array[array.length-1];\n                //decrease size\n                array.length -= 1;\n                return true;\n            }\n        }\n        return false;   //fail to search: no matching in pool\n    } /*\n    function getMyProvID() public view returns (uint256[] memory){\n        return providerMap[msg.sender];\n    }\n    function getMyReqID() public view returns (uint256[] memory){\n        return requestMap[msg.sender];\n    }\n    function getProviderID(address addr) public view returns (uint256[] memory){\n        return providerMap[addr];\n    }\n    function getRequestID(address addr) public view returns (uint256[] memory){\n        return requestMap[addr];\n    }*/\n\n    /////////////////////////////////////////////////////////////////////////////////\n    //some helpers defined here\n\n    function getProvider(address payable ID) public view returns(Provider memory){\n        return providerList[ID];\n    }\n    function getRequest(address payable ID) public view returns (Request memory){\n\t    return requestList[ID];\n    }\n    function getProviderCount() public view returns (uint256){\n        return providerCount;\n    }\n    function getRequestCount() public view returns (uint256){\n        return requestCount;\n    }\n\n    function getProviderPool() public view returns (address payable [] memory){\n        return providerPool;\n    }\n    function getPendingPool() public view returns (address payable [] memory){\n        return pendingPool;\n    }\n    function getValidatingPool() public view returns (address payable [] memory){\n        return validatingPool;\n    }\n    function getProvidingPool() public view returns (address payable [] memory){\n        return providingPool;\n    }\n\n    function getProviderPoolSize() public view returns (uint256){\n        return providerPool.length;\n    }\n    function getRequestPoolSize() public view returns (uint256){\n        return pendingPool.length;\n    }\n\n/*\n    //function getBalance(address addr) public view returns (uint256){\n    //    return balanceList[addr];\n    //}\n    function listRequests(uint256[] memory IDList) public view returns(Request[50] memory){\n\t    Request[50] memory allRequest;\n\t    for (uint64 i = 0; i < IDList.length; i++){\n\t\t    allRequest[i] = getRequest(IDList[i]);\n\t    }\n\t    return allRequest;\n    }\n    function listProviders(uint256[] memory IDList) public view returns(Provider[50] memory){\n        Provider[50] memory allProvider;\n        //address addr;\n        for (uint64 i = 0; i < IDList.length;i++){\n            allProvider[i] = getProvider(IDList[i]);\n        }\n        return allProvider;\n    }\n    function listAllRequests() public view returns(Request[50] memory){\n\t    Request[50] memory allRequest;\n\t    for (uint64 i = 0; i < requestCount; i++){\n\t\t    allRequest[i] = getRequest(i);\n\t    }\n\t    return allRequest;\n    }\n    function listAllProviders() public view returns(Provider[50] memory){\n\t    Provider[50] memory allProvider;\n\t    for (uint64 i = 0; i < providerCount; i++){\n\t\t    allProvider[i] = getProvider(i);\n\t    }\n\t    return allProvider;\n    }\n    function listProviders() public view returns(Provider[50] memory){\n        Provider[50] memory allProvider;\n        //address addr;\n        for (uint64 i = 0; i < providerCount;i++){\n            if(providerPool.length > 0) {\n                addr = providerPool[i];     \n            }else {\n                addr = address(0);\n            }\n            allProvider[i] = getProvider(i);\n        }\n        return allProvider;\n    }\n    /*function listTestProviders() public view returns(Provider[3] memory){\n        Provider[3] memory allProvider;\n        for (uint64 i = 0; i < 3;i++){\n            allProvider[i] = getTestProvider(i);\n        }\n        return allProvider;\n    }*/\n\n}\n",
  "sourcePath": "/home/taurus/blockchain/gitLab/bcai_v2.0/contracts/bcai_1.9.1.sol",
  "compiler": {
    "name": "solc",
    "version": "0.5.0+commit.1d4f565a.Emscripten.clang"
  },
  "schemaVersion": "3.0.0-beta.2",
  "updatedAt": "2018-12-13T22:35:23.986Z",
  "devdoc": {
    "methods": {}
  },
  "userdoc": {
    "methods": {
      "getProvider(address)": {
        "notice": "//////////////////////////////////////////////////////////////////////////////"
      },
      "startProviding(uint64,uint16,uint64)": {
        "notice": "//////////////////////////////////////////////////////////////////////////////////"
      }
    }
  }
}