{
  "contractName": "TaskContract",
  "abi": [
    {
      "constant": true,
      "inputs": [
        {
          "name": "",
          "type": "address"
        }
      ],
      "name": "requestList",
      "outputs": [
        {
          "name": "reqID",
          "type": "uint256"
        },
        {
          "name": "blockNumber",
          "type": "uint256"
        },
        {
          "name": "provider",
          "type": "address"
        },
        {
          "name": "time",
          "type": "uint64"
        },
        {
          "name": "target",
          "type": "uint16"
        },
        {
          "name": "price",
          "type": "uint256"
        },
        {
          "name": "dataID",
          "type": "bytes"
        },
        {
          "name": "resultID",
          "type": "bytes"
        },
        {
          "name": "numValidations",
          "type": "uint64"
        },
        {
          "name": "isValid",
          "type": "bool"
        },
        {
          "name": "status",
          "type": "bytes1"
        }
      ],
      "payable": false,
      "stateMutability": "view",
      "type": "function"
    },
    {
      "constant": true,
      "inputs": [
        {
          "name": "",
          "type": "address"
        }
      ],
      "name": "providerList",
      "outputs": [
        {
          "name": "provID",
          "type": "uint256"
        },
        {
          "name": "blockNumber",
          "type": "uint256"
        },
        {
          "name": "maxTime",
          "type": "uint64"
        },
        {
          "name": "maxTarget",
          "type": "uint16"
        },
        {
          "name": "minPrice",
          "type": "uint256"
        },
        {
          "name": "available",
          "type": "bool"
        }
      ],
      "payable": false,
      "stateMutability": "view",
      "type": "function"
    },
    {
      "constant": true,
      "inputs": [
        {
          "name": "",
          "type": "address"
        }
      ],
      "name": "balanceList",
      "outputs": [
        {
          "name": "",
          "type": "uint256"
        }
      ],
      "payable": false,
      "stateMutability": "view",
      "type": "function"
    },
    {
      "inputs": [],
      "payable": false,
      "stateMutability": "nonpayable",
      "type": "constructor"
    },
    {
      "anonymous": false,
      "inputs": [
        {
          "indexed": false,
          "name": "reqAddr",
          "type": "address"
        },
        {
          "indexed": false,
          "name": "info",
          "type": "bytes"
        },
        {
          "indexed": false,
          "name": "extra",
          "type": "bytes"
        }
      ],
      "name": "IPFSInfo",
      "type": "event"
    },
    {
      "anonymous": false,
      "inputs": [
        {
          "indexed": false,
          "name": "reqAddr",
          "type": "address"
        },
        {
          "indexed": false,
          "name": "info",
          "type": "bytes"
        }
      ],
      "name": "SystemInfo",
      "type": "event"
    },
    {
      "anonymous": false,
      "inputs": [
        {
          "indexed": false,
          "name": "reqAddr",
          "type": "address"
        },
        {
          "indexed": false,
          "name": "provAddr",
          "type": "address"
        },
        {
          "indexed": false,
          "name": "info",
          "type": "bytes"
        }
      ],
      "name": "PairingInfo",
      "type": "event"
    },
    {
      "anonymous": false,
      "inputs": [
        {
          "indexed": false,
          "name": "reqAddr",
          "type": "address"
        },
        {
          "indexed": false,
          "name": "provAddr",
          "type": "address"
        },
        {
          "indexed": false,
          "name": "info",
          "type": "bytes"
        },
        {
          "indexed": false,
          "name": "extra",
          "type": "bytes"
        }
      ],
      "name": "PairingInfoLong",
      "type": "event"
    },
    {
      "constant": false,
      "inputs": [
        {
          "name": "maxTime",
          "type": "uint64"
        },
        {
          "name": "maxTarget",
          "type": "uint16"
        },
        {
          "name": "minPrice",
          "type": "uint64"
        }
      ],
      "name": "startProviding",
      "outputs": [
        {
          "name": "",
          "type": "bool"
        }
      ],
      "payable": false,
      "stateMutability": "nonpayable",
      "type": "function"
    },
    {
      "constant": false,
      "inputs": [],
      "name": "stopProviding",
      "outputs": [
        {
          "name": "",
          "type": "bool"
        }
      ],
      "payable": false,
      "stateMutability": "nonpayable",
      "type": "function"
    },
    {
      "constant": false,
      "inputs": [
        {
          "name": "maxTime",
          "type": "uint64"
        },
        {
          "name": "maxTarget",
          "type": "uint16"
        },
        {
          "name": "minPrice",
          "type": "uint64"
        }
      ],
      "name": "updateProvider",
      "outputs": [
        {
          "name": "",
          "type": "bool"
        }
      ],
      "payable": false,
      "stateMutability": "nonpayable",
      "type": "function"
    },
    {
      "constant": false,
      "inputs": [
        {
          "name": "time",
          "type": "uint64"
        },
        {
          "name": "target",
          "type": "uint16"
        },
        {
          "name": "price",
          "type": "uint64"
        },
        {
          "name": "dataID",
          "type": "bytes"
        }
      ],
      "name": "startRequest",
      "outputs": [
        {
          "name": "",
          "type": "bool"
        }
      ],
      "payable": true,
      "stateMutability": "payable",
      "type": "function"
    },
    {
      "constant": false,
      "inputs": [],
      "name": "stopRequest",
      "outputs": [
        {
          "name": "",
          "type": "bool"
        }
      ],
      "payable": false,
      "stateMutability": "nonpayable",
      "type": "function"
    },
    {
      "constant": false,
      "inputs": [
        {
          "name": "time",
          "type": "uint64"
        },
        {
          "name": "target",
          "type": "uint16"
        },
        {
          "name": "price",
          "type": "uint64"
        },
        {
          "name": "dataID",
          "type": "bytes"
        }
      ],
      "name": "updateRequest",
      "outputs": [
        {
          "name": "",
          "type": "bool"
        }
      ],
      "payable": true,
      "stateMutability": "payable",
      "type": "function"
    },
    {
      "constant": false,
      "inputs": [
        {
          "name": "reqAddr",
          "type": "address"
        },
        {
          "name": "resultID",
          "type": "bytes"
        }
      ],
      "name": "completeRequest",
      "outputs": [
        {
          "name": "",
          "type": "bool"
        }
      ],
      "payable": false,
      "stateMutability": "nonpayable",
      "type": "function"
    },
    {
      "constant": false,
      "inputs": [],
      "name": "releaseProvieder",
      "outputs": [],
      "payable": false,
      "stateMutability": "nonpayable",
      "type": "function"
    },
    {
      "constant": false,
      "inputs": [
        {
          "name": "reqAddr",
          "type": "address"
        },
        {
          "name": "result",
          "type": "bool"
        }
      ],
      "name": "submitValidation",
      "outputs": [
        {
          "name": "",
          "type": "bool"
        }
      ],
      "payable": false,
      "stateMutability": "nonpayable",
      "type": "function"
    },
    {
      "constant": true,
      "inputs": [
        {
          "name": "ID",
          "type": "address"
        }
      ],
      "name": "getProvider",
      "outputs": [
        {
          "components": [
            {
              "name": "provID",
              "type": "uint256"
            },
            {
              "name": "blockNumber",
              "type": "uint256"
            },
            {
              "name": "maxTime",
              "type": "uint64"
            },
            {
              "name": "maxTarget",
              "type": "uint16"
            },
            {
              "name": "minPrice",
              "type": "uint256"
            },
            {
              "name": "available",
              "type": "bool"
            }
          ],
          "name": "",
          "type": "tuple"
        }
      ],
      "payable": false,
      "stateMutability": "view",
      "type": "function"
    },
    {
      "constant": true,
      "inputs": [
        {
          "name": "ID",
          "type": "address"
        }
      ],
      "name": "getRequest",
      "outputs": [
        {
          "components": [
            {
              "name": "reqID",
              "type": "uint256"
            },
            {
              "name": "blockNumber",
              "type": "uint256"
            },
            {
              "name": "provider",
              "type": "address"
            },
            {
              "name": "time",
              "type": "uint64"
            },
            {
              "name": "target",
              "type": "uint16"
            },
            {
              "name": "price",
              "type": "uint256"
            },
            {
              "name": "dataID",
              "type": "bytes"
            },
            {
              "name": "resultID",
              "type": "bytes"
            },
            {
              "name": "numValidations",
              "type": "uint64"
            },
            {
              "name": "validators",
              "type": "address[]"
            },
            {
              "name": "signatures",
              "type": "bool[]"
            },
            {
              "name": "isValid",
              "type": "bool"
            },
            {
              "name": "status",
              "type": "bytes1"
            }
          ],
          "name": "",
          "type": "tuple"
        }
      ],
      "payable": false,
      "stateMutability": "view",
      "type": "function"
    },
    {
      "constant": true,
      "inputs": [],
      "name": "getProviderCount",
      "outputs": [
        {
          "name": "",
          "type": "uint256"
        }
      ],
      "payable": false,
      "stateMutability": "view",
      "type": "function"
    },
    {
      "constant": true,
      "inputs": [],
      "name": "getRequestCount",
      "outputs": [
        {
          "name": "",
          "type": "uint256"
        }
      ],
      "payable": false,
      "stateMutability": "view",
      "type": "function"
    },
    {
      "constant": true,
      "inputs": [],
      "name": "getProviderPool",
      "outputs": [
        {
          "name": "",
          "type": "address[]"
        }
      ],
      "payable": false,
      "stateMutability": "view",
      "type": "function"
    },
    {
      "constant": true,
      "inputs": [],
      "name": "getPendingPool",
      "outputs": [
        {
          "name": "",
          "type": "address[]"
        }
      ],
      "payable": false,
      "stateMutability": "view",
      "type": "function"
    },
    {
      "constant": true,
      "inputs": [],
      "name": "getValidatingPool",
      "outputs": [
        {
          "name": "",
          "type": "address[]"
        }
      ],
      "payable": false,
      "stateMutability": "view",
      "type": "function"
    },
    {
      "constant": true,
      "inputs": [],
      "name": "getProvidingPool",
      "outputs": [
        {
          "name": "",
          "type": "address[]"
        }
      ],
      "payable": false,
      "stateMutability": "view",
      "type": "function"
    },
    {
      "constant": true,
      "inputs": [],
      "name": "getProviderPoolSize",
      "outputs": [
        {
          "name": "",
          "type": "uint256"
        }
      ],
      "payable": false,
      "stateMutability": "view",
      "type": "function"
    },
    {
      "constant": true,
      "inputs": [],
      "name": "getRequestPoolSize",
      "outputs": [
        {
          "name": "",
          "type": "uint256"
        }
      ],
      "payable": false,
      "stateMutability": "view",
      "type": "function"
    },
    {
      "constant": true,
      "inputs": [
        {
          "name": "IDList",
          "type": "address[]"
        }
      ],
      "name": "listRequests",
      "outputs": [
        {
          "components": [
            {
              "name": "reqID",
              "type": "uint256"
            },
            {
              "name": "blockNumber",
              "type": "uint256"
            },
            {
              "name": "provider",
              "type": "address"
            },
            {
              "name": "time",
              "type": "uint64"
            },
            {
              "name": "target",
              "type": "uint16"
            },
            {
              "name": "price",
              "type": "uint256"
            },
            {
              "name": "dataID",
              "type": "bytes"
            },
            {
              "name": "resultID",
              "type": "bytes"
            },
            {
              "name": "numValidations",
              "type": "uint64"
            },
            {
              "name": "validators",
              "type": "address[]"
            },
            {
              "name": "signatures",
              "type": "bool[]"
            },
            {
              "name": "isValid",
              "type": "bool"
            },
            {
              "name": "status",
              "type": "bytes1"
            }
          ],
          "name": "",
          "type": "tuple[50]"
        }
      ],
      "payable": false,
      "stateMutability": "view",
      "type": "function"
    },
    {
      "constant": true,
      "inputs": [
        {
          "name": "IDList",
          "type": "address[]"
        }
      ],
      "name": "listProviders",
      "outputs": [
        {
          "components": [
            {
              "name": "provID",
              "type": "uint256"
            },
            {
              "name": "blockNumber",
              "type": "uint256"
            },
            {
              "name": "maxTime",
              "type": "uint64"
            },
            {
              "name": "maxTarget",
              "type": "uint16"
            },
            {
              "name": "minPrice",
              "type": "uint256"
            },
            {
              "name": "available",
              "type": "bool"
            }
          ],
          "name": "",
          "type": "tuple[50]"
        }
      ],
      "payable": false,
      "stateMutability": "view",
      "type": "function"
    }
  ],
  "bytecode": "0x608060405234801561001057600080fd5b5060006003819055506000600481905550615f1680620000316000396000f3fe60806040526004361061014b5760003560e01c80633fad1834116100b65780639e723b971161006f5780639e723b971461051e578063a9ecaae714610549578063b277493414610574578063b7a84ebd1461059f578063c052c4db146105b6578063dafcc3b2146105f35761014b565b80633fad1834146103e657806346ce41751461041157806355f21eb71461043c5780635c4c8c4e1461047957806363c1dff7146104a45780636ca43b8d146104e15761014b565b80631f1dab45116101085780631f1dab45146102ae5780632d3272d3146102d95780632ddfdbcc1461031657806332c5200d146103535780633432d0f51461037e578063353b2a1f146103bb5761014b565b8063040d2762146101505780630708799e1461017b57806308931765146101c25780630b6dbd5f146101ff5780630e1e4a3c1461022f578063189258de14610271575b600080fd5b34801561015c57600080fd5b50610165610623565b6040516101729190615a1a565b60405180910390f35b34801561018757600080fd5b506101a2600480360361019d919081019061482e565b61087a565b6040516101b99b9a99989796959493929190615a8d565b60405180910390f35b3480156101ce57600080fd5b506101e960048036036101e49190810190614951565b610a74565b6040516101f69190615a1a565b60405180910390f35b610219600480360361021491908101906149a0565b610cb8565b6040516102269190615a1a565b60405180910390f35b34801561023b57600080fd5b506102566004803603610251919081019061482e565b611144565b60405161026896959493929190615b46565b60405180910390f35b34801561027d57600080fd5b506102986004803603610293919081019061482e565b6111af565b6040516102a59190615a72565b60405180910390f35b3480156102ba57600080fd5b506102c36111c7565b6040516102d091906159ba565b60405180910390f35b3480156102e557600080fd5b5061030060048036036102fb9190810190614910565b611255565b60405161030d91906159dc565b60405180910390f35b34801561032257600080fd5b5061033d60048036036103389190810190614951565b6112d9565b60405161034a9190615a1a565b60405180910390f35b34801561035f57600080fd5b50610368611676565b60405161037591906159ba565b60405180910390f35b34801561038a57600080fd5b506103a560048036036103a09190810190614880565b611704565b6040516103b29190615a1a565b60405180910390f35b3480156103c757600080fd5b506103d0611ae5565b6040516103dd9190615a72565b60405180910390f35b3480156103f257600080fd5b506103fb611af2565b6040516104089190615a72565b60405180910390f35b34801561041d57600080fd5b50610426611afc565b6040516104339190615a72565b60405180910390f35b34801561044857600080fd5b50610463600480360361045e9190810190614857565b611b06565b6040516104709190615a35565b60405180910390f35b34801561048557600080fd5b5061048e611be9565b60405161049b9190615a72565b60405180910390f35b3480156104b057600080fd5b506104cb60048036036104c69190810190614857565b611bf6565b6040516104d89190615a50565b60405180910390f35b3480156104ed57600080fd5b50610508600480360361050391908101906148bc565b61200d565b6040516105159190615a1a565b60405180910390f35b34801561052a57600080fd5b5061053361227e565b60405161054091906159ba565b60405180910390f35b34801561055557600080fd5b5061055e61230c565b60405161056b91906159ba565b60405180910390f35b34801561058057600080fd5b5061058961239a565b6040516105969190615a1a565b60405180910390f35b3480156105ab57600080fd5b506105b461251c565b005b3480156105c257600080fd5b506105dd60048036036105d89190810190614910565b6125de565b6040516105ea91906159f8565b60405180910390f35b61060d600480360361060891908101906149a0565b612662565b60405161061a9190615a1a565b60405180910390f35b60007f3000000000000000000000000000000000000000000000000000000000000000600160003373ffffffffffffffffffffffffffffffffffffffff1673ffffffffffffffffffffffffffffffffffffffff16815260200190815260200160002060090160019054906101000a900460f81b7effffffffffffffffffffffffffffffffffffffffffffffffffffffffffffff1916141561083b57600160003373ffffffffffffffffffffffffffffffffffffffff1673ffffffffffffffffffffffffffffffffffffffff16815260200190815260200160002060008082016000905560018201600090556002820160006101000a81549073ffffffffffffffffffffffffffffffffffffffff02191690556002820160146101000a81549067ffffffffffffffff021916905560028201601c6101000a81549061ffff0219169055600382016000905560048201600061077d9190614330565b60058201600061078d9190614330565b6006820160006101000a81549067ffffffffffffffff02191690556007820160006107b89190614378565b6008820160006107c89190614399565b6009820160006101000a81549060ff02191690556009820160016101000a81549060ff021916905550507fa332e7b06782060530f8d1575fcf83b5e831fe3dd09c85e53b0351a7c38ceeac3360405161082191906157dd565b60405180910390a1610834600633612936565b9050610877565b7fa332e7b06782060530f8d1575fcf83b5e831fe3dd09c85e53b0351a7c38ceeac3360405161086a919061580b565b60405180910390a1600090505b90565b60016020528060005260406000206000915090508060000154908060010154908060020160009054906101000a900473ffffffffffffffffffffffffffffffffffffffff16908060020160149054906101000a900467ffffffffffffffff169080600201601c9054906101000a900461ffff1690806003015490806004018054600181600116156101000203166002900480601f01602080910402602001604051908101604052809291908181526020018280546001816001161561010002031660029004801561098c5780601f106109615761010080835404028352916020019161098c565b820191906000526020600020905b81548152906001019060200180831161096f57829003601f168201915b505050505090806005018054600181600116156101000203166002900480601f016020809104026020016040519081016040528092919081815260200182805460018160011615610100020316600290048015610a2a5780601f106109ff57610100808354040283529160200191610a2a565b820191906000526020600020905b815481529060010190602001808311610a0d57829003601f168201915b5050505050908060060160009054906101000a900467ffffffffffffffff16908060090160009054906101000a900460ff16908060090160019054906101000a900460f81b90508b565b6000600115156000803373ffffffffffffffffffffffffffffffffffffffff1673ffffffffffffffffffffffffffffffffffffffff16815260200190815260200160002060040160009054906101000a900460ff1615151415610c7557436000803373ffffffffffffffffffffffffffffffffffffffff1673ffffffffffffffffffffffffffffffffffffffff16815260200190815260200160002060010181905550836000803373ffffffffffffffffffffffffffffffffffffffff1673ffffffffffffffffffffffffffffffffffffffff16815260200190815260200160002060020160006101000a81548167ffffffffffffffff021916908367ffffffffffffffff160217905550826000803373ffffffffffffffffffffffffffffffffffffffff1673ffffffffffffffffffffffffffffffffffffffff16815260200190815260200160002060020160086101000a81548161ffff021916908361ffff1602179055508167ffffffffffffffff166000803373ffffffffffffffffffffffffffffffffffffffff1673ffffffffffffffffffffffffffffffffffffffff168152602001908152602001600020600301819055507fa332e7b06782060530f8d1575fcf83b5e831fe3dd09c85e53b0351a7c38ceeac33604051610c5a9190615781565b60405180910390a1610c6b33612adf565b5060019050610cb1565b7fa332e7b06782060530f8d1575fcf83b5e831fe3dd09c85e53b0351a7c38ceeac33604051610ca491906156f7565b60405180910390a1600090505b9392505050565b600080600160003373ffffffffffffffffffffffffffffffffffffffff1673ffffffffffffffffffffffffffffffffffffffff16815260200190815260200160002060010154141561112d57600454600160003373ffffffffffffffffffffffffffffffffffffffff1673ffffffffffffffffffffffffffffffffffffffff1681526020019081526020016000206000018190555043600160003373ffffffffffffffffffffffffffffffffffffffff1673ffffffffffffffffffffffffffffffffffffffff168152602001908152602001600020600101819055506000600160003373ffffffffffffffffffffffffffffffffffffffff1673ffffffffffffffffffffffffffffffffffffffff16815260200190815260200160002060020160006101000a81548173ffffffffffffffffffffffffffffffffffffffff021916908373ffffffffffffffffffffffffffffffffffffffff16021790555084600160003373ffffffffffffffffffffffffffffffffffffffff1673ffffffffffffffffffffffffffffffffffffffff16815260200190815260200160002060020160146101000a81548167ffffffffffffffff021916908367ffffffffffffffff16021790555083600160003373ffffffffffffffffffffffffffffffffffffffff1673ffffffffffffffffffffffffffffffffffffffff168152602001908152602001600020600201601c6101000a81548161ffff021916908361ffff1602179055508267ffffffffffffffff16600160003373ffffffffffffffffffffffffffffffffffffffff1673ffffffffffffffffffffffffffffffffffffffff1681526020019081526020016000206003018190555081600160003373ffffffffffffffffffffffffffffffffffffffff1673ffffffffffffffffffffffffffffffffffffffff1681526020019081526020016000206004019080519060200190610f839291906143c1565b506003600160003373ffffffffffffffffffffffffffffffffffffffff1673ffffffffffffffffffffffffffffffffffffffff16815260200190815260200160002060060160006101000a81548167ffffffffffffffff021916908367ffffffffffffffff1602179055507f3000000000000000000000000000000000000000000000000000000000000000600160003373ffffffffffffffffffffffffffffffffffffffff1673ffffffffffffffffffffffffffffffffffffffff16815260200190815260200160002060090160016101000a81548160ff021916908360f81c021790555060063390806001815401808255809150509060018203906000526020600020016000909192909190916101000a81548173ffffffffffffffffffffffffffffffffffffffff021916908373ffffffffffffffffffffffffffffffffffffffff160217905550507fecb395b2a2ceb57177a24a711e761771826a6a5c10c88fcba80bceca4a92e4463383604051611100929190615977565b60405180910390a1600460008154809291906001019190505550611123336130c4565b506001905061113c565b61113985858585612662565b90505b949350505050565b60006020528060005260406000206000915090508060000154908060010154908060020160009054906101000a900467ffffffffffffffff16908060020160089054906101000a900461ffff16908060030154908060040160009054906101000a900460ff16905086565b60026020528060005260406000206000915090505481565b6060600780548060200260200160405190810160405280929190818152602001828054801561124b57602002820191906000526020600020905b8160009054906101000a900473ffffffffffffffffffffffffffffffffffffffff1673ffffffffffffffffffffffffffffffffffffffff1681526020019060010190808311611201575b5050505050905090565b61125d614441565b611265614441565b60008090505b83518167ffffffffffffffff1610156112cf576112a4848267ffffffffffffffff168151811061129757fe5b6020026020010151611b06565b828267ffffffffffffffff16603281106112ba57fe5b6020020181905250808060010191505061126b565b5080915050919050565b6000806000803373ffffffffffffffffffffffffffffffffffffffff1673ffffffffffffffffffffffffffffffffffffffff168152602001908152602001600020600101541415611661576003546000803373ffffffffffffffffffffffffffffffffffffffff1673ffffffffffffffffffffffffffffffffffffffff16815260200190815260200160002060000181905550436000803373ffffffffffffffffffffffffffffffffffffffff1673ffffffffffffffffffffffffffffffffffffffff16815260200190815260200160002060010181905550836000803373ffffffffffffffffffffffffffffffffffffffff1673ffffffffffffffffffffffffffffffffffffffff16815260200190815260200160002060020160006101000a81548167ffffffffffffffff021916908367ffffffffffffffff160217905550836000803373ffffffffffffffffffffffffffffffffffffffff1673ffffffffffffffffffffffffffffffffffffffff16815260200190815260200160002060020160006101000a81548167ffffffffffffffff021916908367ffffffffffffffff160217905550826000803373ffffffffffffffffffffffffffffffffffffffff1673ffffffffffffffffffffffffffffffffffffffff16815260200190815260200160002060020160086101000a81548161ffff021916908361ffff1602179055508167ffffffffffffffff166000803373ffffffffffffffffffffffffffffffffffffffff1673ffffffffffffffffffffffffffffffffffffffff1681526020019081526020016000206003018190555060016000803373ffffffffffffffffffffffffffffffffffffffff1673ffffffffffffffffffffffffffffffffffffffff16815260200190815260200160002060040160006101000a81548160ff02191690831515021790555060053390806001815401808255809150509060018203906000526020600020016000909192909190916101000a81548173ffffffffffffffffffffffffffffffffffffffff021916908373ffffffffffffffffffffffffffffffffffffffff160217905550507fa332e7b06782060530f8d1575fcf83b5e831fe3dd09c85e53b0351a7c38ceeac3360405161161d919061587c565b60405180910390a160036000815480929190600101919050555060006008805490501461164e5761164d336136fb565b5b61165733612adf565b506001905061166f565b61166c848484610a74565b90505b9392505050565b606060088054806020026020016040519081016040528092919081815260200182805480156116fa57602002820191906000526020600020905b8160009054906101000a900473ffffffffffffffffffffffffffffffffffffffff1673ffffffffffffffffffffffffffffffffffffffff16815260200190600101908083116116b0575b5050505050905090565b6000600160008473ffffffffffffffffffffffffffffffffffffffff1673ffffffffffffffffffffffffffffffffffffffff16815260200190815260200160002060020160009054906101000a900473ffffffffffffffffffffffffffffffffffffffff1673ffffffffffffffffffffffffffffffffffffffff163373ffffffffffffffffffffffffffffffffffffffff1614611ad55760008090505b600160008573ffffffffffffffffffffffffffffffffffffffff1673ffffffffffffffffffffffffffffffffffffffff168152602001908152602001600020600701805490508167ffffffffffffffff161015611ac5573373ffffffffffffffffffffffffffffffffffffffff16600160008673ffffffffffffffffffffffffffffffffffffffff1673ffffffffffffffffffffffffffffffffffffffff1681526020019081526020016000206007018267ffffffffffffffff168154811061186657fe5b9060005260206000200160009054906101000a900473ffffffffffffffffffffffffffffffffffffffff1673ffffffffffffffffffffffffffffffffffffffff1614801561192e575060001515600160008673ffffffffffffffffffffffffffffffffffffffff1673ffffffffffffffffffffffffffffffffffffffff1681526020019081526020016000206008018267ffffffffffffffff168154811061190a57fe5b90600052602060002090602091828204019190069054906101000a900460ff161515145b15611ab25782600160008673ffffffffffffffffffffffffffffffffffffffff1673ffffffffffffffffffffffffffffffffffffffff1681526020019081526020016000206008018267ffffffffffffffff168154811061198b57fe5b90600052602060002090602091828204019190066101000a81548160ff02191690831515021790555060016000803373ffffffffffffffffffffffffffffffffffffffff1673ffffffffffffffffffffffffffffffffffffffff16815260200190815260200160002060040160006101000a81548160ff02191690831515021790555060053390806001815401808255809150509060018203906000526020600020016000909192909190916101000a81548173ffffffffffffffffffffffffffffffffffffffff021916908373ffffffffffffffffffffffffffffffffffffffff160217905550507f654163525cabcfa0ce95ecb1f232c75746c89688c42e7e2d52df90d770fc9e578433604051611aa592919061562e565b60405180910390a1611ab7565b611ab8565b5b80806001019150506117a1565b50611acf83613c3b565b50611ade565b60009050611adf565b5b92915050565b6000600580549050905090565b6000600454905090565b6000600354905090565b611b0e61446f565b6000808373ffffffffffffffffffffffffffffffffffffffff1673ffffffffffffffffffffffffffffffffffffffff1681526020019081526020016000206040518060c001604052908160008201548152602001600182015481526020016002820160009054906101000a900467ffffffffffffffff1667ffffffffffffffff1667ffffffffffffffff1681526020016002820160089054906101000a900461ffff1661ffff1661ffff168152602001600382015481526020016004820160009054906101000a900460ff1615151515815250509050919050565b6000600680549050905090565b611bfe6144b5565b600160008373ffffffffffffffffffffffffffffffffffffffff1673ffffffffffffffffffffffffffffffffffffffff168152602001908152602001600020604051806101a001604052908160008201548152602001600182015481526020016002820160009054906101000a900473ffffffffffffffffffffffffffffffffffffffff1673ffffffffffffffffffffffffffffffffffffffff1673ffffffffffffffffffffffffffffffffffffffff1681526020016002820160149054906101000a900467ffffffffffffffff1667ffffffffffffffff1667ffffffffffffffff16815260200160028201601c9054906101000a900461ffff1661ffff1661ffff16815260200160038201548152602001600482018054600181600116156101000203166002900480601f016020809104026020016040519081016040528092919081815260200182805460018160011615610100020316600290048015611da85780601f10611d7d57610100808354040283529160200191611da8565b820191906000526020600020905b815481529060010190602001808311611d8b57829003601f168201915b50505050508152602001600582018054600181600116156101000203166002900480601f016020809104026020016040519081016040528092919081815260200182805460018160011615610100020316600290048015611e4a5780601f10611e1f57610100808354040283529160200191611e4a565b820191906000526020600020905b815481529060010190602001808311611e2d57829003601f168201915b505050505081526020016006820160009054906101000a900467ffffffffffffffff1667ffffffffffffffff1667ffffffffffffffff16815260200160078201805480602002602001604051908101604052809291908181526020018280548015611f0a57602002820191906000526020600020905b8160009054906101000a900473ffffffffffffffffffffffffffffffffffffffff1673ffffffffffffffffffffffffffffffffffffffff1681526020019060010190808311611ec0575b5050505050815260200160088201805480602002602001604051908101604052809291908181526020018280548015611f8757602002820191906000526020600020906000905b82829054906101000a900460ff16151581526020019060010190602082600001049283019260010382029150808411611f515790505b505050505081526020016009820160009054906101000a900460ff161515151581526020016009820160019054906101000a900460f81b7effffffffffffffffffffffffffffffffffffffffffffffffffffffffffffff19167effffffffffffffffffffffffffffffffffffffffffffffffffffffffffffff1916815250509050919050565b6000600160008473ffffffffffffffffffffffffffffffffffffffff1673ffffffffffffffffffffffffffffffffffffffff16815260200190815260200160002060020160009054906101000a900473ffffffffffffffffffffffffffffffffffffffff1673ffffffffffffffffffffffffffffffffffffffff163373ffffffffffffffffffffffffffffffffffffffff161415612273577f3200000000000000000000000000000000000000000000000000000000000000600160008573ffffffffffffffffffffffffffffffffffffffff1673ffffffffffffffffffffffffffffffffffffffff16815260200190815260200160002060090160016101000a81548160ff021916908360f81c021790555081600160008573ffffffffffffffffffffffffffffffffffffffff1673ffffffffffffffffffffffffffffffffffffffff16815260200190815260200160002060050190805190602001906121769291906143c1565b50612182600784612936565b5060088390806001815401808255809150509060018203906000526020600020016000909192909190916101000a81548173ffffffffffffffffffffffffffffffffffffffff021916908373ffffffffffffffffffffffffffffffffffffffff160217905550507fecb395b2a2ceb57177a24a711e761771826a6a5c10c88fcba80bceca4a92e44683600160008673ffffffffffffffffffffffffffffffffffffffff1673ffffffffffffffffffffffffffffffffffffffff16815260200190815260200160002060050160405161225b929190615839565b60405180910390a161226c83613e96565b9050612278565b600090505b92915050565b6060600580548060200260200160405190810160405280929190818152602001828054801561230257602002820191906000526020600020905b8160009054906101000a900473ffffffffffffffffffffffffffffffffffffffff1673ffffffffffffffffffffffffffffffffffffffff16815260200190600101908083116122b8575b5050505050905090565b6060600680548060200260200160405190810160405280929190818152602001828054801561239057602002820191906000526020600020905b8160009054906101000a900473ffffffffffffffffffffffffffffffffffffffff1673ffffffffffffffffffffffffffffffffffffffff1681526020019060010190808311612346575b5050505050905090565b6000600115156000803373ffffffffffffffffffffffffffffffffffffffff1673ffffffffffffffffffffffffffffffffffffffff16815260200190815260200160002060040160009054906101000a900460ff16151514156124dd576000803373ffffffffffffffffffffffffffffffffffffffff1673ffffffffffffffffffffffffffffffffffffffff16815260200190815260200160002060008082016000905560018201600090556002820160006101000a81549067ffffffffffffffff02191690556002820160086101000a81549061ffff021916905560038201600090556004820160006101000a81549060ff021916905550507fa332e7b06782060530f8d1575fcf83b5e831fe3dd09c85e53b0351a7c38ceeac336040516124c391906158aa565b60405180910390a16124d6600533612936565b9050612519565b7fa332e7b06782060530f8d1575fcf83b5e831fe3dd09c85e53b0351a7c38ceeac3360405161250c91906158d8565b60405180910390a1600090505b90565b60016000803373ffffffffffffffffffffffffffffffffffffffff1673ffffffffffffffffffffffffffffffffffffffff16815260200190815260200160002060040160006101000a81548160ff02191690831515021790555060053390806001815401808255809150509060018203906000526020600020016000909192909190916101000a81548173ffffffffffffffffffffffffffffffffffffffff021916908373ffffffffffffffffffffffffffffffffffffffff16021790555050565b6125e661456f565b6125ee61456f565b60008090505b83518167ffffffffffffffff1610156126585761262d848267ffffffffffffffff168151811061262057fe5b6020026020010151611bf6565b828267ffffffffffffffff166032811061264357fe5b602002018190525080806001019150506125f4565b5080915050919050565b60007f3000000000000000000000000000000000000000000000000000000000000000600160003373ffffffffffffffffffffffffffffffffffffffff1673ffffffffffffffffffffffffffffffffffffffff16815260200190815260200160002060090160019054906101000a900460f81b7effffffffffffffffffffffffffffffffffffffffffffffffffffffffffffff191614156128f25743600160003373ffffffffffffffffffffffffffffffffffffffff1673ffffffffffffffffffffffffffffffffffffffff1681526020019081526020016000206001018190555084600160003373ffffffffffffffffffffffffffffffffffffffff1673ffffffffffffffffffffffffffffffffffffffff16815260200190815260200160002060020160146101000a81548167ffffffffffffffff021916908367ffffffffffffffff16021790555083600160003373ffffffffffffffffffffffffffffffffffffffff1673ffffffffffffffffffffffffffffffffffffffff168152602001908152602001600020600201601c6101000a81548161ffff021916908361ffff1602179055508267ffffffffffffffff16600160003373ffffffffffffffffffffffffffffffffffffffff1673ffffffffffffffffffffffffffffffffffffffff1681526020019081526020016000206003018190555081600160003373ffffffffffffffffffffffffffffffffffffffff1673ffffffffffffffffffffffffffffffffffffffff16815260200190815260200160002060040190805190602001906128b19291906143c1565b507fa332e7b06782060530f8d1575fcf83b5e831fe3dd09c85e53b0351a7c38ceeac336040516128e191906157af565b60405180910390a16001905061292e565b7fa332e7b06782060530f8d1575fcf83b5e831fe3dd09c85e53b0351a7c38ceeac336040516129219190615725565b60405180910390a1600090505b949350505050565b600080600090505b83805490508167ffffffffffffffff161015612ad3578273ffffffffffffffffffffffffffffffffffffffff16848267ffffffffffffffff168154811061298157fe5b9060005260206000200160009054906101000a900473ffffffffffffffffffffffffffffffffffffffff1673ffffffffffffffffffffffffffffffffffffffff161415612ac657836001858054905003815481106129db57fe5b9060005260206000200160009054906101000a900473ffffffffffffffffffffffffffffffffffffffff16848267ffffffffffffffff1681548110612a1c57fe5b9060005260206000200160006101000a81548173ffffffffffffffffffffffffffffffffffffffff021916908373ffffffffffffffffffffffffffffffffffffffff16021790555083600185805490500381548110612a7757fe5b9060005260206000200160006101000a81549073ffffffffffffffffffffffffffffffffffffffff021916905560018481818054905003915081612abb919061459d565b506001915050612ad9565b808060010191505061293e565b50600090505b92915050565b6000806006805490501415612b16577f320000000000000000000000000000000000000000000000000000000000000090506130bf565b60008090505b6006805490508167ffffffffffffffff16101561309a57600060068267ffffffffffffffff1681548110612b4c57fe5b9060005260206000200160009054906101000a900473ffffffffffffffffffffffffffffffffffffffff1690506000808573ffffffffffffffffffffffffffffffffffffffff1673ffffffffffffffffffffffffffffffffffffffff16815260200190815260200160002060020160009054906101000a900467ffffffffffffffff1667ffffffffffffffff16600160008373ffffffffffffffffffffffffffffffffffffffff1673ffffffffffffffffffffffffffffffffffffffff16815260200190815260200160002060020160149054906101000a900467ffffffffffffffff1667ffffffffffffffff1611158015612cef57506000808573ffffffffffffffffffffffffffffffffffffffff1673ffffffffffffffffffffffffffffffffffffffff16815260200190815260200160002060020160089054906101000a900461ffff1661ffff16600160008373ffffffffffffffffffffffffffffffffffffffff1673ffffffffffffffffffffffffffffffffffffffff168152602001908152602001600020600201601c9054906101000a900461ffff1661ffff1611155b8015612d7e57506000808573ffffffffffffffffffffffffffffffffffffffff1673ffffffffffffffffffffffffffffffffffffffff16815260200190815260200160002060030154600160008373ffffffffffffffffffffffffffffffffffffffff1673ffffffffffffffffffffffffffffffffffffffff1681526020019081526020016000206003015410155b1561308c5760008060008673ffffffffffffffffffffffffffffffffffffffff1673ffffffffffffffffffffffffffffffffffffffff16815260200190815260200160002060040160006101000a81548160ff021916908315150217905550612de8600585612936565b5083600160008373ffffffffffffffffffffffffffffffffffffffff1673ffffffffffffffffffffffffffffffffffffffff16815260200190815260200160002060020160006101000a81548173ffffffffffffffffffffffffffffffffffffffff021916908373ffffffffffffffffffffffffffffffffffffffff1602179055507f3100000000000000000000000000000000000000000000000000000000000000600160008373ffffffffffffffffffffffffffffffffffffffff1673ffffffffffffffffffffffffffffffffffffffff16815260200190815260200160002060090160016101000a81548160ff021916908360f81c0217905550612ef0600682612936565b50600160008273ffffffffffffffffffffffffffffffffffffffff1673ffffffffffffffffffffffffffffffffffffffff16815260200190815260200160002060030154600260008373ffffffffffffffffffffffffffffffffffffffff1673ffffffffffffffffffffffffffffffffffffffff1681526020019081526020016000206000828254019250508190555060078190806001815401808255809150509060018203906000526020600020016000909192909190916101000a81548173ffffffffffffffffffffffffffffffffffffffff021916908373ffffffffffffffffffffffffffffffffffffffff160217905550507f2b88768874d596259d3041253784b3217c58817182fb311f4152008bc32b6f398185600160008573ffffffffffffffffffffffffffffffffffffffff1673ffffffffffffffffffffffffffffffffffffffff16815260200190815260200160002060040160405161305a939291906156a6565b60405180910390a17f3000000000000000000000000000000000000000000000000000000000000000925050506130bf565b508080600101915050612b1c565b507f310000000000000000000000000000000000000000000000000000000000000090505b919050565b60008060058054905014156130fb577f320000000000000000000000000000000000000000000000000000000000000090506136f6565b60008090505b6005805490508167ffffffffffffffff1610156136d157600060058267ffffffffffffffff168154811061313157fe5b9060005260206000200160009054906101000a900473ffffffffffffffffffffffffffffffffffffffff169050600073ffffffffffffffffffffffffffffffffffffffff168173ffffffffffffffffffffffffffffffffffffffff16141580156131ed5750600115156000808373ffffffffffffffffffffffffffffffffffffffff1673ffffffffffffffffffffffffffffffffffffffff16815260200190815260200160002060040160009054906101000a900460ff161515145b156136c3576000808273ffffffffffffffffffffffffffffffffffffffff1673ffffffffffffffffffffffffffffffffffffffff16815260200190815260200160002060020160089054906101000a900461ffff1661ffff16600160008673ffffffffffffffffffffffffffffffffffffffff1673ffffffffffffffffffffffffffffffffffffffff168152602001908152602001600020600201601c9054906101000a900461ffff1661ffff161115801561336857506000808273ffffffffffffffffffffffffffffffffffffffff1673ffffffffffffffffffffffffffffffffffffffff16815260200190815260200160002060020160009054906101000a900467ffffffffffffffff1667ffffffffffffffff16600160008673ffffffffffffffffffffffffffffffffffffffff1673ffffffffffffffffffffffffffffffffffffffff16815260200190815260200160002060020160149054906101000a900467ffffffffffffffff1667ffffffffffffffff1611155b80156133f757506000808273ffffffffffffffffffffffffffffffffffffffff1673ffffffffffffffffffffffffffffffffffffffff16815260200190815260200160002060030154600160008673ffffffffffffffffffffffffffffffffffffffff1673ffffffffffffffffffffffffffffffffffffffff1681526020019081526020016000206003015410155b156136c25760008060008373ffffffffffffffffffffffffffffffffffffffff1673ffffffffffffffffffffffffffffffffffffffff16815260200190815260200160002060040160006101000a81548160ff021916908315150217905550613461600582612936565b5080600160008673ffffffffffffffffffffffffffffffffffffffff1673ffffffffffffffffffffffffffffffffffffffff16815260200190815260200160002060020160006101000a81548173ffffffffffffffffffffffffffffffffffffffff021916908373ffffffffffffffffffffffffffffffffffffffff1602179055507f3100000000000000000000000000000000000000000000000000000000000000600160008673ffffffffffffffffffffffffffffffffffffffff1673ffffffffffffffffffffffffffffffffffffffff16815260200190815260200160002060090160016101000a81548160ff021916908360f81c0217905550613569600685612936565b50600160008573ffffffffffffffffffffffffffffffffffffffff1673ffffffffffffffffffffffffffffffffffffffff16815260200190815260200160002060030154600260008673ffffffffffffffffffffffffffffffffffffffff1673ffffffffffffffffffffffffffffffffffffffff1681526020019081526020016000206000828254019250508190555060078490806001815401808255809150509060018203906000526020600020016000909192909190916101000a81548173ffffffffffffffffffffffffffffffffffffffff021916908373ffffffffffffffffffffffffffffffffffffffff160217905550507f654163525cabcfa0ce95ecb1f232c75746c89688c42e7e2d52df90d770fc9e57848260405161369092919061566a565b60405180910390a17f3000000000000000000000000000000000000000000000000000000000000000925050506136f6565b5b508080600101915050613101565b507f310000000000000000000000000000000000000000000000000000000000000090505b919050565b60008090505b6008805490508167ffffffffffffffff161015613c3757600060088267ffffffffffffffff168154811061373157fe5b9060005260206000200160009054906101000a900473ffffffffffffffffffffffffffffffffffffffff169050600160008273ffffffffffffffffffffffffffffffffffffffff1673ffffffffffffffffffffffffffffffffffffffff16815260200190815260200160002060070180549050600160008373ffffffffffffffffffffffffffffffffffffffff1673ffffffffffffffffffffffffffffffffffffffff16815260200190815260200160002060060160009054906101000a900467ffffffffffffffff1667ffffffffffffffff161115613c2257600160008273ffffffffffffffffffffffffffffffffffffffff1673ffffffffffffffffffffffffffffffffffffffff16815260200190815260200160002060020160009054906101000a900473ffffffffffffffffffffffffffffffffffffffff1673ffffffffffffffffffffffffffffffffffffffff168373ffffffffffffffffffffffffffffffffffffffff1614613c1d577f2b88768874d596259d3041253784b3217c58817182fb311f4152008bc32b6f398184600160008573ffffffffffffffffffffffffffffffffffffffff1673ffffffffffffffffffffffffffffffffffffffff168152602001908152602001600020600501604051613914939291906155dd565b60405180910390a1600160008273ffffffffffffffffffffffffffffffffffffffff1673ffffffffffffffffffffffffffffffffffffffff1681526020019081526020016000206007018390806001815401808255809150509060018203906000526020600020016000909192909190916101000a81548173ffffffffffffffffffffffffffffffffffffffff021916908373ffffffffffffffffffffffffffffffffffffffff16021790555050600160008273ffffffffffffffffffffffffffffffffffffffff1673ffffffffffffffffffffffffffffffffffffffff1681526020019081526020016000206008016000908060018154018082558091505090600182039060005260206000209060209182820401919006909192909190916101000a81548160ff0219169083151502179055505060008060008573ffffffffffffffffffffffffffffffffffffffff1673ffffffffffffffffffffffffffffffffffffffff16815260200190815260200160002060040160006101000a81548160ff021916908315150217905550613aaf600584612936565b506001600060088467ffffffffffffffff1681548110613acb57fe5b9060005260206000200160009054906101000a900473ffffffffffffffffffffffffffffffffffffffff1673ffffffffffffffffffffffffffffffffffffffff1673ffffffffffffffffffffffffffffffffffffffff16815260200190815260200160002060060160009054906101000a900467ffffffffffffffff1667ffffffffffffffff166001600060088567ffffffffffffffff1681548110613b6d57fe5b9060005260206000200160009054906101000a900473ffffffffffffffffffffffffffffffffffffffff1673ffffffffffffffffffffffffffffffffffffffff1673ffffffffffffffffffffffffffffffffffffffff168152602001908152602001600020600701805490501415613c17577fa332e7b06782060530f8d1575fcf83b5e831fe3dd09c85e53b0351a7c38ceeac81604051613c0e9190615753565b60405180910390a15b50613c37565b613c28565b50613c2a565b505b8080600101915050613701565b5050565b60008060009050600080905060008090505b600160008673ffffffffffffffffffffffffffffffffffffffff1673ffffffffffffffffffffffffffffffffffffffff168152602001908152602001600020600801805490508167ffffffffffffffff161015613d3b5760011515600160008773ffffffffffffffffffffffffffffffffffffffff1673ffffffffffffffffffffffffffffffffffffffff1681526020019081526020016000206008018267ffffffffffffffff1681548110613cff57fe5b90600052602060002090602091828204019190069054906101000a900460ff1615151415613d2e576001820191505b8080600101915050613c4d565b50600160008573ffffffffffffffffffffffffffffffffffffffff1673ffffffffffffffffffffffffffffffffffffffff16815260200190815260200160002060060160009054906101000a900467ffffffffffffffff1667ffffffffffffffff168167ffffffffffffffff1610613e8c5760018060008673ffffffffffffffffffffffffffffffffffffffff1673ffffffffffffffffffffffffffffffffffffffff16815260200190815260200160002060090160006101000a81548160ff0219169083151502179055507fecb395b2a2ceb57177a24a711e761771826a6a5c10c88fcba80bceca4a92e44684600160008773ffffffffffffffffffffffffffffffffffffffff1673ffffffffffffffffffffffffffffffffffffffff168152602001908152602001600020600501604051613e79929190615934565b60405180910390a1613e8a846142d5565b505b8192505050919050565b600080600160008473ffffffffffffffffffffffffffffffffffffffff1673ffffffffffffffffffffffffffffffffffffffff16815260200190815260200160002060060160009054906101000a900467ffffffffffffffff16905060008090506000600190505b6005805490508167ffffffffffffffff161161429157600060056001830367ffffffffffffffff1681548110613f3057fe5b9060005260206000200160009054906101000a900473ffffffffffffffffffffffffffffffffffffffff169050600160008773ffffffffffffffffffffffffffffffffffffffff1673ffffffffffffffffffffffffffffffffffffffff16815260200190815260200160002060020160009054906101000a900473ffffffffffffffffffffffffffffffffffffffff1673ffffffffffffffffffffffffffffffffffffffff168173ffffffffffffffffffffffffffffffffffffffff1614614218577f2b88768874d596259d3041253784b3217c58817182fb311f4152008bc32b6f398682600160008a73ffffffffffffffffffffffffffffffffffffffff1673ffffffffffffffffffffffffffffffffffffffff168152602001908152602001600020600501604051614066939291906155dd565b60405180910390a18280600101935050600160008773ffffffffffffffffffffffffffffffffffffffff1673ffffffffffffffffffffffffffffffffffffffff1681526020019081526020016000206007018190806001815401808255809150509060018203906000526020600020016000909192909190916101000a81548173ffffffffffffffffffffffffffffffffffffffff021916908373ffffffffffffffffffffffffffffffffffffffff16021790555050600160008773ffffffffffffffffffffffffffffffffffffffff1673ffffffffffffffffffffffffffffffffffffffff1681526020019081526020016000206008016000908060018154018082558091505090600182039060005260206000209060209182820401919006909192909190916101000a81548160ff0219169083151502179055505060008060008373ffffffffffffffffffffffffffffffffffffffff1673ffffffffffffffffffffffffffffffffffffffff16815260200190815260200160002060040160006101000a81548160ff021916908315150217905550614209600582612936565b5081806001900392505061421e565b50614284565b8367ffffffffffffffff168367ffffffffffffffff1610156142405750614284565b7fa332e7b06782060530f8d1575fcf83b5e831fe3dd09c85e53b0351a7c38ceeac8660405161426f9190615753565b60405180910390a160019450505050506142d0565b8080600101915050613efe565b507fa332e7b06782060530f8d1575fcf83b5e831fe3dd09c85e53b0351a7c38ceeac846040516142c19190615906565b60405180910390a16000925050505b919050565b60006142e2600883612936565b506000600160008473ffffffffffffffffffffffffffffffffffffffff1673ffffffffffffffffffffffffffffffffffffffff16815260200190815260200160002060010181905550919050565b50805460018160011615610100020316600290046000825580601f106143565750614375565b601f01602090049060005260206000209081019061437491906145c9565b5b50565b508054600082559060005260206000209081019061439691906145c9565b50565b50805460008255601f0160209004906000526020600020908101906143be91906145c9565b50565b828054600181600116156101000203166002900490600052602060002090601f016020900481019282601f1061440257805160ff1916838001178555614430565b82800160010185558215614430579182015b8281111561442f578251825591602001919060010190614414565b5b50905061443d91906145c9565b5090565b6040518061258001604052806032905b6144596145ee565b8152602001906001900390816144515790505090565b6040518060c001604052806000815260200160008152602001600067ffffffffffffffff168152602001600061ffff168152602001600081526020016000151581525090565b604051806101a001604052806000815260200160008152602001600073ffffffffffffffffffffffffffffffffffffffff168152602001600067ffffffffffffffff168152602001600061ffff168152602001600081526020016060815260200160608152602001600067ffffffffffffffff168152602001606081526020016060815260200160001515815260200160007effffffffffffffffffffffffffffffffffffffffffffffffffffffffffffff191681525090565b6040518061514001604052806032905b614587614634565b81526020019060019003908161457f5790505090565b8154818355818111156145c4578183600052602060002091820191016145c391906145c9565b5b505050565b6145eb91905b808211156145e75760008160009055506001016145cf565b5090565b90565b6040518060c001604052806000815260200160008152602001600067ffffffffffffffff168152602001600061ffff168152602001600081526020016000151581525090565b604051806101a001604052806000815260200160008152602001600073ffffffffffffffffffffffffffffffffffffffff168152602001600067ffffffffffffffff168152602001600061ffff168152602001600081526020016060815260200160608152602001600067ffffffffffffffff168152602001606081526020016060815260200160001515815260200160007effffffffffffffffffffffffffffffffffffffffffffffffffffffffffffff191681525090565b6000813590506146fd81615e69565b92915050565b60008135905061471281615e80565b92915050565b600082601f83011261472957600080fd5b813561473c61473782615bd4565b615ba7565b9150818183526020840193506020810190508385602084028201111561476157600080fd5b60005b8381101561479157816147778882614703565b845260208401935060208301925050600181019050614764565b5050505092915050565b6000813590506147aa81615e97565b92915050565b600082601f8301126147c157600080fd5b81356147d46147cf82615bfc565b615ba7565b915080825260208301602083018583830111156147f057600080fd5b6147fb838284615e16565b50505092915050565b60008135905061481381615eae565b92915050565b60008135905061482881615ec5565b92915050565b60006020828403121561484057600080fd5b600061484e848285016146ee565b91505092915050565b60006020828403121561486957600080fd5b600061487784828501614703565b91505092915050565b6000806040838503121561489357600080fd5b60006148a185828601614703565b92505060206148b28582860161479b565b9150509250929050565b600080604083850312156148cf57600080fd5b60006148dd85828601614703565b925050602083013567ffffffffffffffff8111156148fa57600080fd5b614906858286016147b0565b9150509250929050565b60006020828403121561492257600080fd5b600082013567ffffffffffffffff81111561493c57600080fd5b61494884828501614718565b91505092915050565b60008060006060848603121561496657600080fd5b600061497486828701614819565b935050602061498586828701614804565b925050604061499686828701614819565b9150509250925092565b600080600080608085870312156149b657600080fd5b60006149c487828801614819565b94505060206149d587828801614804565b93505060406149e687828801614819565b925050606085013567ffffffffffffffff811115614a0357600080fd5b614a0f878288016147b0565b91505092959194509250565b6000614a278383614a77565b60208301905092915050565b6000614a3f8383614c7b565b60208301905092915050565b6000614a5783836152ac565b60c08301905092915050565b6000614a6f8383615455565b905092915050565b614a8081615d80565b82525050565b614a8f81615d80565b82525050565b6000614aa082615c80565b614aaa8185615d14565b9350614ab583615c35565b8060005b83811015614ae6578151614acd8882614a1b565b9750614ad883615ccf565b925050600181019050614ab9565b5085935050505092915050565b6000614afe82615c75565b614b088185615d03565b9350614b1383615c28565b8060005b83811015614b44578151614b2b8882614a1b565b9750614b3683615cc2565b925050600181019050614b17565b5085935050505092915050565b6000614b5c82615c8b565b614b668185615d25565b9350614b7183615c42565b8060005b83811015614ba2578151614b898882614a33565b9750614b9483615cdc565b925050600181019050614b75565b5085935050505092915050565b614bb881615c96565b614bc28184615d36565b9250614bcd82615c4f565b8060005b83811015614bfe578151614be58782614a4b565b9650614bf083615ce9565b925050600181019050614bd1565b505050505050565b6000614c1182615ca1565b614c1b8185615d41565b935083602082028501614c2d85615c59565b8060005b85811015614c695784840389528151614c4a8582614a63565b9450614c5583615cf6565b925060208a01995050600181019050614c31565b50829750879550505050505092915050565b614c8481615d92565b82525050565b614c9381615d92565b82525050565b614ca281615d9e565b82525050565b614cb181615d9e565b82525050565b6000614cc282615cb7565b614ccc8185615d5d565b9350614cdc818560208601615e25565b614ce581615e58565b840191505092915050565b6000614cfb82615cac565b614d058185615d4c565b9350614d15818560208601615e25565b614d1e81615e58565b840191505092915050565b6000614d3482615cac565b614d3e8185615d5d565b9350614d4e818560208601615e25565b614d5781615e58565b840191505092915050565b600081546001811660008114614d7f5760018114614da557614de9565b607f6002830416614d908187615d5d565b955060ff198316865260208601935050614de9565b60028204614db38187615d5d565b9550614dbe85615c63565b60005b82811015614de057815481890152600182019150602081019050614dc1565b80880195505050505b505092915050565b6000614dfe601983615d5d565b91507f50726f766964657220556e61626c6520746f20557064617465000000000000006000830152602082019050919050565b6000614e3e601883615d5d565b91507f5265717565737420556e61626c6520746f2055706461746500000000000000006000830152602082019050919050565b6000614e7e601183615d5d565b91507f456e6f7567682056616c696461746f72730000000000000000000000000000006000830152602082019050919050565b6000614ebe601083615d5d565b91507f50726f76696465722055706461746564000000000000000000000000000000006000830152602082019050919050565b6000614efe600f83615d5d565b91507f52657175657374205570646174656400000000000000000000000000000000006000830152602082019050919050565b6000614f3e601f83615d5d565b91507f56616c69646174696f6e2041737369676e656420746f2050726f7669646572006000830152602082019050919050565b6000614f7e600f83615d5d565b91507f526571756573742053746f7070656400000000000000000000000000000000006000830152602082019050919050565b6000614fbe601683615d5d565b91507f5265717565737420556e61626c6520746f2053746f70000000000000000000006000830152602082019050919050565b6000614ffe601d83615d5d565b91507f5265717565737420436f6d7075746174696f6e20436f6d706c657465640000006000830152602082019050919050565b600061503e600e83615d5d565b91507f50726f76696465722041646465640000000000000000000000000000000000006000830152602082019050919050565b600061507e601083615d5d565b91507f50726f76696465722053746f70706564000000000000000000000000000000006000830152602082019050919050565b60006150be601083615d5d565b91507f56616c696461746f72205369676e6564000000000000000000000000000000006000830152602082019050919050565b60006150fe601783615d5d565b91507f50726f766964657220556e61626c6520746f2053746f700000000000000000006000830152602082019050919050565b600061513e601583615d5d565b91507f4e6f7420456e6f7567682056616c696461746f727300000000000000000000006000830152602082019050919050565b600061517e601083615d5d565b91507f526571756573742041737369676e6564000000000000000000000000000000006000830152602082019050919050565b60006151be601383615d5d565b91507f56616c69646174696f6e20436f6d706c657465000000000000000000000000006000830152602082019050919050565b60006151fe600d83615d5d565b91507f52657175657374204164646564000000000000000000000000000000000000006000830152602082019050919050565b60c08201600082015161524760008501826155a1565b50602082015161525a60208501826155a1565b50604082015161526d60408501826155bf565b5060608201516152806060850182615583565b50608082015161529360808501826155a1565b5060a08201516152a660a0850182614c7b565b50505050565b60c0820160008201516152c260008501826155a1565b5060208201516152d560208501826155a1565b5060408201516152e860408501826155bf565b5060608201516152fb6060850182615583565b50608082015161530e60808501826155a1565b5060a082015161532160a0850182614c7b565b50505050565b60006101a08301600083015161534060008601826155a1565b50602083015161535360208601826155a1565b5060408301516153666040860182614a77565b50606083015161537960608601826155bf565b50608083015161538c6080860182615583565b5060a083015161539f60a08601826155a1565b5060c083015184820360c08601526153b78282614cf0565b91505060e083015184820360e08601526153d18282614cf0565b9150506101008301516153e86101008601826155bf565b506101208301518482036101208601526154028282614af3565b91505061014083015184820361014086015261541e8282614b51565b915050610160830151615435610160860182614c7b565b5061018083015161544a610180860182614c99565b508091505092915050565b60006101a08301600083015161546e60008601826155a1565b50602083015161548160208601826155a1565b5060408301516154946040860182614a77565b5060608301516154a760608601826155bf565b5060808301516154ba6080860182615583565b5060a08301516154cd60a08601826155a1565b5060c083015184820360c08601526154e58282614cf0565b91505060e083015184820360e08601526154ff8282614cf0565b9150506101008301516155166101008601826155bf565b506101208301518482036101208601526155308282614af3565b91505061014083015184820361014086015261554c8282614b51565b915050610160830151615563610160860182614c7b565b50610180830151615578610180860182614c99565b508091505092915050565b61558c81615dca565b82525050565b61559b81615dca565b82525050565b6155aa81615df8565b82525050565b6155b981615df8565b82525050565b6155c881615e02565b82525050565b6155d781615e02565b82525050565b60006080820190506155f26000830186614a86565b6155ff6020830185614a86565b818103604083015261561081614f31565b905081810360608301526156248184614d62565b9050949350505050565b60006060820190506156436000830185614a86565b6156506020830184614a86565b8181036040830152615661816150b1565b90509392505050565b600060608201905061567f6000830185614a86565b61568c6020830184614a86565b818103604083015261569d81615171565b90509392505050565b60006080820190506156bb6000830186614a86565b6156c86020830185614a86565b81810360408301526156d981615171565b905081810360608301526156ed8184614d62565b9050949350505050565b600060408201905061570c6000830184614a86565b818103602083015261571d81614df1565b905092915050565b600060408201905061573a6000830184614a86565b818103602083015261574b81614e31565b905092915050565b60006040820190506157686000830184614a86565b818103602083015261577981614e71565b905092915050565b60006040820190506157966000830184614a86565b81810360208301526157a781614eb1565b905092915050565b60006040820190506157c46000830184614a86565b81810360208301526157d581614ef1565b905092915050565b60006040820190506157f26000830184614a86565b818103602083015261580381614f71565b905092915050565b60006040820190506158206000830184614a86565b818103602083015261583181614fb1565b905092915050565b600060608201905061584e6000830185614a86565b818103602083015261585f81614ff1565b905081810360408301526158738184614d62565b90509392505050565b60006040820190506158916000830184614a86565b81810360208301526158a281615031565b905092915050565b60006040820190506158bf6000830184614a86565b81810360208301526158d081615071565b905092915050565b60006040820190506158ed6000830184614a86565b81810360208301526158fe816150f1565b905092915050565b600060408201905061591b6000830184614a86565b818103602083015261592c81615131565b905092915050565b60006060820190506159496000830185614a86565b818103602083015261595a816151b1565b9050818103604083015261596e8184614d62565b90509392505050565b600060608201905061598c6000830185614a86565b818103602083015261599d816151f1565b905081810360408301526159b18184614cb7565b90509392505050565b600060208201905081810360008301526159d48184614a95565b905092915050565b6000612580820190506159f26000830184614baf565b92915050565b60006020820190508181036000830152615a128184614c06565b905092915050565b6000602082019050615a2f6000830184614c8a565b92915050565b600060c082019050615a4a6000830184615231565b92915050565b60006020820190508181036000830152615a6a8184615327565b905092915050565b6000602082019050615a8760008301846155b0565b92915050565b600061016082019050615aa3600083018e6155b0565b615ab0602083018d6155b0565b615abd604083018c614a86565b615aca606083018b6155ce565b615ad7608083018a615592565b615ae460a08301896155b0565b81810360c0830152615af68188614d29565b905081810360e0830152615b0a8187614d29565b9050615b1a6101008301866155ce565b615b28610120830185614c8a565b615b36610140830184614ca8565b9c9b505050505050505050505050565b600060c082019050615b5b60008301896155b0565b615b6860208301886155b0565b615b7560408301876155ce565b615b826060830186615592565b615b8f60808301856155b0565b615b9c60a0830184614c8a565b979650505050505050565b6000604051905081810181811067ffffffffffffffff82111715615bca57600080fd5b8060405250919050565b600067ffffffffffffffff821115615beb57600080fd5b602082029050602081019050919050565b600067ffffffffffffffff821115615c1357600080fd5b601f19601f8301169050602081019050919050565b6000602082019050919050565b6000602082019050919050565b6000602082019050919050565b6000819050919050565b6000819050919050565b60008160005260206000209050919050565b600081519050919050565b600081519050919050565b600081519050919050565b600060329050919050565b600060329050919050565b600081519050919050565b600081519050919050565b6000602082019050919050565b6000602082019050919050565b6000602082019050919050565b6000602082019050919050565b6000602082019050919050565b600082825260208201905092915050565b600082825260208201905092915050565b600082825260208201905092915050565b600081905092915050565b600081905092915050565b600082825260208201905092915050565b600082825260208201905092915050565b6000615d7982615dd8565b9050919050565b6000615d8b82615dd8565b9050919050565b60008115159050919050565b60007fff0000000000000000000000000000000000000000000000000000000000000082169050919050565b600061ffff82169050919050565b600073ffffffffffffffffffffffffffffffffffffffff82169050919050565b6000819050919050565b600067ffffffffffffffff82169050919050565b82818337600083830152505050565b60005b83811015615e43578082015181840152602081019050615e28565b83811115615e52576000848401525b50505050565b6000601f19601f8301169050919050565b615e7281615d6e565b8114615e7d57600080fd5b50565b615e8981615d80565b8114615e9457600080fd5b50565b615ea081615d92565b8114615eab57600080fd5b50565b615eb781615dca565b8114615ec257600080fd5b50565b615ece81615e02565b8114615ed957600080fd5b5056fea265627a7a72305820b842977321315c5d3ad50555ecd4503f5509bb25f469f11ea3a4488052f2e1286c6578706572696d656e74616cf50037",
  "source": "/////////////////////////////////////////////////////////////////////////////////////\n//version 2.0.4\n//Author: Taurus, Samuel Pritchett\n//Copyright: tlu4@lsu.edu\n//\n//comments updated on Apr.2019\n//fixed validateReqeust Logic: validator list is updated when selection, \n//                      signature list is updated when result submiteed, to avoid multi-submission\n//did not change function parameter, should not break anything\n///////////////////////////////////////////////////////////////////////////////////////\n//NOTE:\n//This design uses account address as the identifier, meaning each address could only have one req/prov associated.\n//When submit new or update existing req/prov, previous record are overwriten.\n//Each address could only have one req or prov, not at same time.\n//On the other hand, reqID and provID is just a counter, not an identifier. Update or resubmition results in new reqID/provID.\n\n//TODO: add conflict detection of the address. Check whether existing req or prov from your address is 'not complete',(being proccessed).\n////////////////////////////////////////////////////////////////////////////////////\n\npragma solidity ^0.5.0;\npragma experimental ABIEncoderV2;           //enable returning self-defined type, \n                                            //do not disable, provider is returned for debuging reason.\n\ncontract TaskContract {\n    //list\n    mapping (address => Provider) public providerList;   //provAddr => provider struct\n    mapping (address => Request)  public requestList;    //reqAddr => request struct\n    mapping (address => uint256)  public balanceList;    //reqAddr => balance   \n \n    //ID - counter\n    uint256 private providerCount;                       //+1 each time\n    uint256 private requestCount;\n\n    constructor() public {                               //sol 5.0 syntax\n        providerCount = 0;\n        requestCount = 0;\n    }\n\n    struct Request {\n        uint256 reqID;                      //requestID is not identifier, just a counter\n        uint256 blockNumber;                //record the time of submission\n        address payable provider;           //record the provider assigned to this request\n        uint64  time;                       //maximum time requirements                 TODO: determine the unit and format\n        uint16  target;                     //target 0-100.00                           TODO: determine the unit and format\n        uint256 price;                      //the max amount he willing to pay          TODO: determine the unit and format\n        bytes   dataID;                     //dataID used to fetch the off-chain data, interact with ipfs\n        bytes   resultID;                   //dataID to fetch the off-chain result, via ipfs\n        uint64  numValidations;             //user defined the number of validation, TODO: fix this as 3 \n        address payable []  validators;     //validators' addr, update when assigned the task to validators\n        bool[]  signatures;                 //true or false array, update only when validator submit result\n        bool    isValid;                    //the final flag\n        byte    status;                     //one byte indicating the status: 0: 'pending', 1:'providing', 2: 'validating', 3: 'complete'\n        //mapping (address => bool)validationList;   //no way to know if a specific address is in this mapping\n                                                    //but this can be useful together with validator []array\n    }\n\n    struct Provider {\n        uint256 provID;                     //just a counter\n        uint256 blockNumber;                //record the time of submission\n        uint64  maxTime;                    //max time he is willing to accept, maxTime of Prov's should be larger than Req's to successfully assign\n        uint16  maxTarget;                  //max target he can provide\n        uint256 minPrice;                   //lowest price he can accept\n        bool    available;                  //if ready to be assigned\n    }\n\n\n    //two types of events, only difference is # of returned address\n    //no need seperate events for each type, just put whatever info passed in bytes info\n    event IPFSInfo          (address payable reqAddr, bytes info, bytes extra);\n    event SystemInfo        (address payable reqAddr, bytes info);\n    event PairingInfo       (address payable reqAddr, address payable provAddr, bytes info);\n    event PairingInfoLong   (address payable reqAddr, address payable provAddr, bytes info, bytes extra);\n\n\n    //Pools stores the address of req or prov, thus indicate the stages.\n    address payable [] providerPool;        //provAddr only when more providers > req, or empty\n    address payable [] pendingPool;         //reqAddr only when more requests > prov, or empty\n    address payable [] providingPool;       //reqAddr\n    address payable [] validatingPool;      //reqAddr\n    /////////////////////////////////////////////////////////////////////////////////////\n\n    \n    // Function called to become a provider. Add address on List, and Pool if not instantly assigned. \n    // NOTE: cannot use to update pending providers. \n    // TIPS on gas cost: don't create local copy and write back, modify the storage directly.\n    // gas cost 165K without event / 167K with event / 92K overwrite\n    function startProviding(uint64 maxTime, uint16 maxTarget, uint64 minPrice) public returns (bool) {\n        if(providerList[msg.sender].blockNumber == 0){                  //if this is new\n            // register a new provider object in the List and map              \n            providerList[msg.sender].provID         = providerCount;    //cost 50k per item edit\n            providerList[msg.sender].blockNumber    = block.number;           \n            providerList[msg.sender].maxTime        = maxTime;\n            providerList[msg.sender].maxTime        = maxTime;       \n            providerList[msg.sender].maxTarget      = maxTarget;\n            providerList[msg.sender].minPrice       = minPrice;\n            providerList[msg.sender].available      = true;             //turn on the flag at LAST in case error\n            // ready for the next       \n            providerPool.push(msg.sender);\n            emit SystemInfo (msg.sender, \"Provider Added\");\n            providerCount++;\n            if(validatingPool.length != 0){                           //need to update how validation works before we can prioritize it here\n                findValidation(msg.sender);\n            }\n            assignProvider(msg.sender);                                 //try an instant assignment trial\n            return true;\n        } \n        else {                                                          //this address has been recorded before\n            return updateProvider(maxTime, maxTarget, minPrice);               //this could be an update\n            /*  //this is deprecated, use updateFunction instead.\n            if(providerList[msg.sender].available == true){             //can only modify available provider\n                providerList[msg.sender].blockNumber    = block.number;         \n                providerList[msg.sender].maxTime        = maxTime;       \n                providerList[msg.sender].maxTarget      = maxTarget;\n                providerList[msg.sender].minPrice       = minPrice;\n                emit SystemInfo(msg.sender,'Provider Updated');\n                assignProvider(msg.sender);\n                return true;\n            }*/\n        }\n    }\n    // Stop a provider. Must be sent from the provider address or it will be failed.\n    function stopProviding() public returns (bool) {\n        // If the sender is currently an active provider\n        if (providerList[msg.sender].available == true){               //can only stop available provider              \n            delete providerList[msg.sender];                           //delete from List\n            emit SystemInfo(msg.sender, 'Provider Stopped');\n            return ArrayPop(providerPool, msg.sender);                 //delete from Pool                \n        }\n        else{   \n            emit SystemInfo(msg.sender, 'Provider Unable to Stop');\n            return false;\n        }\n    }\n    //update a provider, you must know the provID and must sent from right addr\n    function updateProvider(uint64 maxTime, uint16 maxTarget, uint64 minPrice) public returns (bool) {      \n        if(providerList[msg.sender].available == true){                //can only modify available provider\n            providerList[msg.sender].blockNumber    = block.number;         \n            providerList[msg.sender].maxTime        = maxTime;       \n            providerList[msg.sender].maxTarget      = maxTarget;\n            providerList[msg.sender].minPrice       = minPrice;\n            emit SystemInfo(msg.sender,'Provider Updated');\n            assignProvider(msg.sender);\n            return true;\n        }\n        else{\n            emit SystemInfo(msg.sender, 'Provider Unable to Update');\n            return false;\n        }\n    }\n\n    // Send a request from user to blockchain.\n    // Assumes price is including the cost for verification\n    function startRequest(uint64 time, uint16 target, uint64 price, bytes memory dataID) payable public returns (bool) {\n        if(requestList[msg.sender].blockNumber == 0){   //never submitted before\n            //register on List\n            requestList[msg.sender].reqID         = requestCount;\n            requestList[msg.sender].blockNumber   = block.number;  \n            requestList[msg.sender].provider      = address(0);      \n            requestList[msg.sender].time          = time;    \n            requestList[msg.sender].target        = target;\n            requestList[msg.sender].price         = price;\n            requestList[msg.sender].dataID        = dataID;\n            requestList[msg.sender].numValidations = 3;//fixed 3 for testing reasons\n            requestList[msg.sender].status = '0' ;     //pending = 0x30, is in ascii not number 0\n            pendingPool.push(msg.sender);\n            emit IPFSInfo (msg.sender, \"Request Added\", dataID);\n            \n            requestCount++;     \n            assignRequest(msg.sender);                  //try an instant assignment\n            return true;\n        } else {    //submitted before\n            return updateRequest(time, target, price, dataID);\n            /*if(requestList[msg.sender].status == '0' ){                   //can only update pending request\n                requestList[msg.sender].blockNumber    = block.number;         \n                requestList[msg.sender].time        = time;       \n                requestList[msg.sender].target      = target;\n                requestList[msg.sender].price       = price;\n                requestList[msg.sender].dataID      = dataID;\n                emit SystemInfo(msg.sender, 'Request Updated');\n                return true;\n            }*/\n        }\n    }\n    function stopRequest() public returns (bool){\n        if (requestList[msg.sender].status == '0'){                   //can only cancel owned pending request, ('0' = 0x30)            \n            delete requestList[msg.sender];                           //delete from List             \n            emit SystemInfo(msg.sender, 'Request Stopped');\n            return ArrayPop(pendingPool, msg.sender);                 //delete from Pool   \n        }\n        else{\n            emit SystemInfo(msg.sender, 'Request Unable to Stop');\n            return false;\n        }\n    }\n    function updateRequest(uint64 time, uint16 target, uint64 price, bytes memory dataID) payable public returns (bool) {      \n        if(requestList[msg.sender].status == '0' ){                   //can only update pending request\n            requestList[msg.sender].blockNumber    = block.number;         \n            requestList[msg.sender].time        = time;       \n            requestList[msg.sender].target      = target;\n            requestList[msg.sender].price       = price;\n            requestList[msg.sender].dataID      = dataID;\n            emit SystemInfo(msg.sender, 'Request Updated');\n            return true;\n        }\n        else{\n            emit SystemInfo(msg.sender, 'Request Unable to Update');\n            return false;\n        }\n    }\n\n    // Search in the requestPool, find a job for current provider. Triggered by startProviding\n    // Returns: note: return value all in ascii format\n    //          0: successfully assigned\n    //          1: searched all providers but find no match\n    //          2: no available provider right now\n    //          3: failure during poping pool\n    function assignProvider(address payable provAddr) private returns (byte){\n        if(pendingPool.length == 0) return '2';     //no pending requests\n        else {\n            //search throught the requestPool\n            for (uint64 i = 0; i < pendingPool.length; i++){  \n                address payable reqAddr = pendingPool[i];     //save the re-usable reqID , save gas by avoiding multiple read\n                if( requestList[reqAddr].time     <= providerList[provAddr].maxTime &&\n                    requestList[reqAddr].target   <= providerList[provAddr].maxTarget &&\n                    requestList[reqAddr].price    >= providerList[provAddr].minPrice){\n                        //meet the requirement, assign the task\n                        //update provider\n                        providerList[provAddr].available = false;\n                        ArrayPop(providerPool, provAddr);\n\n                        //update request\n                        requestList[reqAddr].provider = provAddr;\n                        requestList[reqAddr].status = '1';    //providing\n                        ArrayPop(pendingPool, reqAddr);\n\n                        //update balanceList            addr here is requester's\n                        balanceList[reqAddr] += requestList[reqAddr].price; \n\n                        providingPool.push(reqAddr);                       \n                        //status move from pending to providing\n                        emit PairingInfoLong(reqAddr, provAddr, \"Request Assigned\", requestList[reqAddr].dataID);\n                        return '0';                   \n                }                \n            }\n            //after for loop and no match\n            return '1';\n        }\n    }\n\n    // Assigning one task to one of the available providers. Only called from requestTask (private)\n    // Search in the providerPool, if no match in the end, return false\n    //could only assign one task at a time\n    //auto sel the first searching result for now, no comparation between multiple availability.\n    //TODO: need ot add preference next patch\n    // Returns: 0: successfully assigned\n    //          1: searched all providers but find no match\n    //          2: no available provider right now\n    //          3: failure during poping pool\n    function assignRequest(address payable reqAddr) private returns (byte) {\n        //provider availability is checked in pool not in list\n        if (providerPool.length == 0)   return '2';\n        else {            //if any provider in pool\n            for (uint64 i = 0; i < providerPool.length; i++) {      \n                address payable provAddr  = providerPool[i];   // save the provider's addr, reusable and save gas cost\n                if (provAddr != address(0) && providerList[provAddr].available == true){\n                    // Check if request conditions meet the providers requirements\n                    if (requestList[reqAddr].target <= providerList[provAddr].maxTarget && \n                        requestList[reqAddr].time <= providerList[provAddr].maxTime && \n                        requestList[reqAddr].price >= providerList[provAddr].minPrice) {\n                        \n                        //update provider:\n                        providerList[provAddr].available = false;\n                        ArrayPop(providerPool, provAddr);\n\n                        //update request\n                        requestList[reqAddr].provider = provAddr;\n                        requestList[reqAddr].status = '1';    //providing\n                        ArrayPop(pendingPool, reqAddr);\n\n                        //update balanceList              \n                        balanceList[reqAddr] += requestList[reqAddr].price; \n\n                        providingPool.push(reqAddr);\n                        emit PairingInfo(reqAddr, provAddr, \"Request Assigned\"); // Let provider listen for this event to see he was selected\n                        return '0';\n                    }\n                }\n            }\n            // No provider was found matching the criteria -- request failed\n            // TODO: how to return payment is to be discussed in future.\n            //requestList[reqID].addr.transfer(requestList[reqID].price); // Returns the ether to the sender\n            return '1';\n        }\n    }\n\n\n    // Provider will call this when they are done and the result data is available.\n    // This will invoke the validation stage. Only when the request got enough validators,\n    // that req could be moved from pool and marked. Or that req stays providing\n    function completeRequest(address payable reqAddr, bytes memory resultID) public returns (bool) {\n        // Confirm msg.sender is actually the provider of the task he claims\n        if (msg.sender == requestList[reqAddr].provider) {\n            //change request obj\n            requestList[reqAddr].status = '2';    //validating\n            requestList[reqAddr].resultID = resultID;\n            //move from providing pool to validating Pool.\n            ArrayPop(providingPool, reqAddr);\n            validatingPool.push(reqAddr);\n            //release provider (not necessarily depend on provider) back into providerPool\n            //providerList[msg.sender].available = true;\n            //providerPool.push(msg.sender);\n            emit IPFSInfo(reqAddr, 'Request Computation Completed',requestList[reqAddr].resultID);\n            //start validation process\n            return validateRequest(reqAddr);\n        }\n        else {\n            return false;\n        }\n    }\n\n    function releaseProvieder() public {\n        providerList[msg.sender].available = true;\n        providerPool.push(msg.sender);\n    }\n\n    // Called by completeRequest before finalizing stuff. NOTE: must have no validators right now\n    // Try to find as many as possible qualified validators\n    // Returns false if there wasnt enough free providers to send out the required number of validation requests\n    // need validation from 1/10 of nodes -- could change\n    function validateRequest(address payable reqAddr) private returns (bool) {\n        uint64 numValidatorsNeeded = requestList[reqAddr].numValidations; \n        uint64 validatorsFound = 0;\n        //select # of available provider from the pool and force em to do the validation\n        for (uint64 i = 1; i <= providerPool.length; i++) {\n            address payable provID = providerPool[i - 1]; //get provider ID\n            //TODO: check whether selected validator capable with parameters (time, accuracy,....)\n            if(provID != requestList[reqAddr].provider){   //validator and computer cannot be same\n                emit PairingInfoLong(reqAddr, provID, 'Validation Assigned to Provider', requestList[reqAddr].resultID);\n                validatorsFound++;\n                //remove the providers availablity and pop from pool\n                requestList[reqAddr].validators.push(provID);\n                requestList[reqAddr].signatures.push(false);    //push false to hold position\n                providerList[provID].available = false;\n                ArrayPop(providerPool, provID);\n                i--;\n                     \n                //NOTE [IMPORTANT] : pop array while looping this array is very dangerous\n                //because popping will change the sequence of the elements thus will skip some item.\n                //[deprecated] ArrayPop(providerPool, provID);\n                //solution: only pop after looping through all the pool\n    \n            } else continue;    //skip the provider/computer itself\n            \n            //check whether got enough validator\n            if(validatorsFound < numValidatorsNeeded){\n                continue;\n            }\n            else{       //enough validator\n                emit SystemInfo(reqAddr, 'Enough Validators');\n               // ArrayPop(providerPool, requestList[reqAddr].validators);\n                return true;\n                break;\n            }\n            //loop until certain # of validators selected\n        }   \n        //exit loop without enough validators\n       // ArrayPopArray(providerPool, requestList[reqAddr].validators);  //not sure if necessary , for safety\n        emit SystemInfo(reqAddr, 'Not Enough Validators');\n        return false;\n    }\n\n    // needs to be more secure by ensuring the submission is coming from someone legit \n    // similar to completeTask but this will sign the validation list of the target Task\n    // TODO: the money part is ommited for now\n    function submitValidation(address payable reqAddr, bool result) public returns (bool) {       \n        if(msg.sender != requestList[reqAddr].provider) {     //validator cannot be provider\n            for (uint64 i = 0; i<requestList[reqAddr].validators.length; i++){\n                if(requestList[reqAddr].validators[i] == msg.sender     // vali must be previous validator assigned\n                && requestList[reqAddr].signatures[i] == false){    // not yet signed\n                    \n                    requestList[reqAddr].signatures[i] = result;        //length is matched, this prevent multi-submission and can update his own\n                    providerList[msg.sender].available = true;          //release validator\n                    providerPool.push(msg.sender);\n                    emit PairingInfo(reqAddr, msg.sender, 'Validator Signed');\n                }\n                else continue;   //either submitted already or not find , go for next\n            }\n            checkValidation(reqAddr);\n        }\n        else   //submit vali from provider\n            return false;\n\n        // Pay the validator \n        // uint partialPayment = requestList[reqID].price / 100; // amount each validator is paid\n        // msg.sender.transfer(partialPayment);\n        // balanceList[requestList[reqID].addr] -= partialPayment;\n    }\n    \n    //TODO: what if result is invalid, we got 3 false signature, will stuck here.\n    function checkValidation(address payable reqAddr) private returns (bool) {\n        // Add up successful validations\n        bool flag = false;\n        uint64 successCount = 0;\n        for (uint64 i=0; i<requestList[reqAddr].signatures.length; i++) {\n           if (requestList[reqAddr].signatures[i] == true) successCount += 1;\n        }\n        // if 2/3 of validation attempts were successful\n        // TODO: determine the fraction\n        \n        if (successCount  >= requestList[reqAddr].numValidations) { \n            // if 2/3 of validations were valid then provider gets remainder of money\n            //requestList[reqID].provider.transfer(payment); \n            //balanceList[requestList[reqID].addr] -= payment;\n            //TODO: [important] leave out the payment part for now.\n            requestList[reqAddr].isValid = true; // Task was successfully completed! \n            emit IPFSInfo(reqAddr, 'Validation Complete', requestList[reqAddr].resultID);\n            //flag = ArrayPop(validatingPool, reqAddr);\n            finalizeRequest(reqAddr);\n        }\n        /*\n        // otherwise, work was invalid, the providers payment goes back to requester\n        //else {\n            //requestList[reqID].addr.transfer(payment);\n            //balanceList[requestList[reqID].addr] -= payment;\n        //}\n        // EVENT: task is done whether successful or not\n        //emit TaskCompleted(requestList[reqID].addr, reqID);\n\n        // popout from pool\n        */\n        return flag;\n    }\n\n\n    // called by startProviding if the validatingPool is not empty\n    // assigns the new provider to validate a task\n    // IDEA: Could be modified so that any available provider could call. For now it assumes only used on new providers in startProviding\n    function findValidation(address payable provAddr) private {\n        for(uint64 i = 0; i < validatingPool.length; i++){  //search the entire validatingpool\n            address payable reqAddr = validatingPool[i]; //set reqAddr current task\n            if(requestList[reqAddr].numValidations > requestList[reqAddr].validators.length){ //check to see if the task has enough validators\n                //since the provAddr is a new provider, we don't need to check if he is already a validator, should be impossible unless bug exists\n                if(provAddr != requestList[reqAddr].provider){ //check to make sure he is not the computer\n                    emit PairingInfoLong(reqAddr, provAddr, 'Validation Assigned to Provider',requestList[reqAddr].resultID);\n                    requestList[reqAddr].validators.push(provAddr);\n                    requestList[reqAddr].signatures.push(false);    //extend length to match length of validator list\n                    providerList[provAddr].available = false;\n                    ArrayPop(providerPool, provAddr);\n\n\n                    //alert task owner if their task now has enough validators\n                    if(requestList[validatingPool[i]].validators.length == requestList[validatingPool[i]].numValidations){\n                        emit SystemInfo(reqAddr, 'Enough Validators');\n                    }\n\n                    break;\n\n                }\n                //else he is computer, did nothing\n            }\n            else continue; //this req has already got enough, check next\n        }\n    }\n\n    // finalize the completed result, move everything out of current pools\n    // TODO: handle any potential payment\n    function finalizeRequest(address payable reqAddr) private returns (bool) {\n        ArrayPop(validatingPool, reqAddr);\n        //delete related record\n        requestList[reqAddr].blockNumber = 0;\n    }\n/////////////////////////////////////////////////////////////////////\n    // Used to dynamically remove elements from array of open provider spaces. \n    // Using a swap and delete method, search for the desired addr throughout the whole array\n    // delete the desired and swap the hole with last element\n    function ArrayPop(address payable [] storage array, address payable target) private returns (bool) {\n        for(uint64 i = 0; i < array.length; i++){\n            if (array[i] == target) {\n                //swap last element with hole\n                array[i] = array[array.length-1];\n                //delete last item\n                delete array[array.length-1];\n                //decrease size\n                array.length -= 1;\n                return true;\n            }\n        }\n        return false;   //fail to search: no matching in pool\n    }\n    function ArrayPopArray(address payable[] storage array, address payable[] memory targetArray) private returns (bool){\n        bool flag = true;\n        for (uint64 j = 0;j<targetArray.length;j++){\n            flag = flag && ArrayPop(array, targetArray[j]);\n        }\n        return flag;\n    }\n    /////////////////////////////////////////////////////////////////////////////////\n    //some helpers defined here\n\n    function getProvider(address payable ID) public view returns(Provider memory){\n        return providerList[ID];\n    }\n    function getRequest(address payable ID) public view returns (Request memory){\n\t    return requestList[ID];\n    }\n    function getProviderCount() public view returns (uint256){\n        return providerCount;\n    }\n    function getRequestCount() public view returns (uint256){\n        return requestCount;\n    }\n\n    function getProviderPool() public view returns (address payable[] memory){\n        return providerPool;\n    }\n    function getPendingPool() public view returns (address payable[] memory){\n        return pendingPool;\n    }\n    function getValidatingPool() public view returns (address payable[] memory){\n        return validatingPool;\n    }\n    function getProvidingPool() public view returns (address payable[] memory){\n        return providingPool;\n    }\n\n    function getProviderPoolSize() public view returns (uint256){\n        return providerPool.length;\n    }\n    function getRequestPoolSize() public view returns (uint256){\n        return pendingPool.length;\n    }\n\n\n    //function getBalance(address addr) public view returns (uint256){\n    //    return balanceList[addr];\n    //}\n    function listRequests(address payable[] memory IDList) public view returns(Request[50] memory){\n\t    Request[50] memory allRequest;\n\t    for (uint64 i = 0; i < IDList.length; i++){\n\t\t    allRequest[i] = getRequest(IDList[i]);\n\t    }\n\t    return allRequest;\n    }\n    function listProviders(address payable[] memory IDList) public view returns(Provider[50] memory){\n        Provider[50] memory allProvider;\n        //address addr;\n        for (uint64 i = 0; i < IDList.length;i++){\n            allProvider[i] = getProvider(IDList[i]);\n        }\n        return allProvider;\n    }\n/*    function listAllRequests() public view returns(Request[50] memory){\n\t    Request[50] memory allRequest;\n\t    for (uint64 i = 0; i < requestCount; i++){\n\t\t    allRequest[i] = getRequest(i);\n\t    }\n\t    return allRequest;\n    }\n    function listAllProviders() public view returns(Provider[50] memory){\n\t    Provider[50] memory allProvider;\n\t    for (uint64 i = 0; i < providerCount; i++){\n\t\t    allProvider[i] = getProvider(i);\n\t    }\n\t    return allProvider;\n    }\n*/\n\n}\n",
  "sourcePath": "/home/pedriv/Documents/gitLab/bcai_v2.0/contracts/bcai_2.0.sol",
  "compiler": {
    "name": "solc",
    "version": "0.5.8+commit.23d335f2.Emscripten.clang"
  },
  "schemaVersion": "3.0.10",
  "updatedAt": "2019-06-27T18:27:06.840Z",
  "devdoc": {
    "methods": {}
  },
  "userdoc": {
    "methods": {
      "getProvider(address)": {
        "notice": "//////////////////////////////////////////////////////////////////////////////"
      },
      "startProviding(uint64,uint16,uint64)": {
        "notice": "//////////////////////////////////////////////////////////////////////////////////"
      }
    }
  }
}