{
  "contractName": "TaskContract",
  "abi": [
    {
      "constant": true,
      "inputs": [
        {
          "name": "",
          "type": "address"
        }
      ],
      "name": "requestList",
      "outputs": [
        {
          "name": "reqID",
          "type": "uint256"
        },
        {
          "name": "blockNumber",
          "type": "uint256"
        },
        {
          "name": "provider",
          "type": "address"
        },
        {
          "name": "time",
          "type": "uint64"
        },
        {
          "name": "target",
          "type": "uint16"
        },
        {
          "name": "price",
          "type": "uint256"
        },
        {
          "name": "dataID",
          "type": "bytes"
        },
        {
          "name": "resultID",
          "type": "bytes"
        },
        {
          "name": "numValidations",
          "type": "uint64"
        },
        {
          "name": "isValid",
          "type": "bool"
        },
        {
          "name": "status",
          "type": "bytes1"
        }
      ],
      "payable": false,
      "stateMutability": "view",
      "type": "function",
      "signature": "0x0708799e"
    },
    {
      "constant": true,
      "inputs": [
        {
          "name": "",
          "type": "address"
        }
      ],
      "name": "providerList",
      "outputs": [
        {
          "name": "provID",
          "type": "uint256"
        },
        {
          "name": "blockNumber",
          "type": "uint256"
        },
        {
          "name": "maxTime",
          "type": "uint64"
        },
        {
          "name": "maxTarget",
          "type": "uint16"
        },
        {
          "name": "minPrice",
          "type": "uint256"
        },
        {
          "name": "available",
          "type": "bool"
        }
      ],
      "payable": false,
      "stateMutability": "view",
      "type": "function",
      "signature": "0x0e1e4a3c"
    },
    {
      "constant": true,
      "inputs": [
        {
          "name": "",
          "type": "address"
        }
      ],
      "name": "balanceList",
      "outputs": [
        {
          "name": "",
          "type": "uint256"
        }
      ],
      "payable": false,
      "stateMutability": "view",
      "type": "function",
      "signature": "0x189258de"
    },
    {
      "inputs": [],
      "payable": false,
      "stateMutability": "nonpayable",
      "type": "constructor",
      "signature": "constructor"
    },
    {
      "anonymous": false,
      "inputs": [
        {
          "indexed": false,
          "name": "addr",
          "type": "address"
        },
        {
          "indexed": false,
          "name": "info",
          "type": "bytes"
        }
      ],
      "name": "SystemInfo",
      "type": "event",
      "signature": "0xa332e7b06782060530f8d1575fcf83b5e831fe3dd09c85e53b0351a7c38ceeac"
    },
    {
      "anonymous": false,
      "inputs": [
        {
          "indexed": false,
          "name": "reqAddr",
          "type": "address"
        },
        {
          "indexed": false,
          "name": "provAddr",
          "type": "address"
        },
        {
          "indexed": false,
          "name": "info",
          "type": "bytes"
        }
      ],
      "name": "PairingInfo",
      "type": "event",
      "signature": "0x654163525cabcfa0ce95ecb1f232c75746c89688c42e7e2d52df90d770fc9e57"
    },
    {
      "constant": false,
      "inputs": [
        {
          "name": "maxTime",
          "type": "uint64"
        },
        {
          "name": "maxTarget",
          "type": "uint16"
        },
        {
          "name": "minPrice",
          "type": "uint64"
        }
      ],
      "name": "startProviding",
      "outputs": [
        {
          "name": "",
          "type": "bool"
        }
      ],
      "payable": false,
      "stateMutability": "nonpayable",
      "type": "function",
      "signature": "0x2ddfdbcc"
    },
    {
      "constant": false,
      "inputs": [],
      "name": "stopProviding",
      "outputs": [
        {
          "name": "",
          "type": "bool"
        }
      ],
      "payable": false,
      "stateMutability": "nonpayable",
      "type": "function",
      "signature": "0xb2774934"
    },
    {
      "constant": false,
      "inputs": [
        {
          "name": "maxTime",
          "type": "uint64"
        },
        {
          "name": "maxTarget",
          "type": "uint16"
        },
        {
          "name": "minPrice",
          "type": "uint64"
        }
      ],
      "name": "updateProvider",
      "outputs": [
        {
          "name": "",
          "type": "bool"
        }
      ],
      "payable": false,
      "stateMutability": "nonpayable",
      "type": "function",
      "signature": "0x08931765"
    },
    {
      "constant": false,
      "inputs": [
        {
          "name": "time",
          "type": "uint64"
        },
        {
          "name": "target",
          "type": "uint16"
        },
        {
          "name": "price",
          "type": "uint64"
        },
        {
          "name": "dataID",
          "type": "bytes"
        }
      ],
      "name": "startRequest",
      "outputs": [
        {
          "name": "",
          "type": "bool"
        }
      ],
      "payable": true,
      "stateMutability": "payable",
      "type": "function",
      "signature": "0x0b6dbd5f"
    },
    {
      "constant": false,
      "inputs": [],
      "name": "stopRequest",
      "outputs": [
        {
          "name": "",
          "type": "bool"
        }
      ],
      "payable": false,
      "stateMutability": "nonpayable",
      "type": "function",
      "signature": "0x040d2762"
    },
    {
      "constant": false,
      "inputs": [
        {
          "name": "time",
          "type": "uint64"
        },
        {
          "name": "target",
          "type": "uint16"
        },
        {
          "name": "price",
          "type": "uint64"
        },
        {
          "name": "dataID",
          "type": "bytes"
        }
      ],
      "name": "updateRequest",
      "outputs": [
        {
          "name": "",
          "type": "bool"
        }
      ],
      "payable": true,
      "stateMutability": "payable",
      "type": "function",
      "signature": "0xdafcc3b2"
    },
    {
      "constant": false,
      "inputs": [
        {
          "name": "reqAddr",
          "type": "address"
        },
        {
          "name": "resultID",
          "type": "bytes"
        }
      ],
      "name": "completeRequest",
      "outputs": [
        {
          "name": "",
          "type": "bool"
        }
      ],
      "payable": false,
      "stateMutability": "nonpayable",
      "type": "function",
      "signature": "0x6ca43b8d"
    },
    {
      "constant": false,
      "inputs": [
        {
          "name": "reqAddr",
          "type": "address"
        }
      ],
      "name": "validateRequest",
      "outputs": [
        {
          "name": "",
          "type": "bool"
        }
      ],
      "payable": false,
      "stateMutability": "nonpayable",
      "type": "function",
      "signature": "0xaaef4a62"
    },
    {
      "constant": false,
      "inputs": [
        {
          "name": "reqAddr",
          "type": "address"
        },
        {
          "name": "result",
          "type": "bool"
        }
      ],
      "name": "submitValidation",
      "outputs": [
        {
          "name": "",
          "type": "bool"
        }
      ],
      "payable": false,
      "stateMutability": "nonpayable",
      "type": "function",
      "signature": "0x3432d0f5"
    },
    {
      "constant": false,
      "inputs": [
        {
          "name": "reqAddr",
          "type": "address"
        }
      ],
      "name": "checkValidation",
      "outputs": [
        {
          "name": "",
          "type": "bool"
        }
      ],
      "payable": false,
      "stateMutability": "nonpayable",
      "type": "function",
      "signature": "0x566b2474"
    },
    {
      "constant": true,
      "inputs": [
        {
          "name": "ID",
          "type": "address"
        }
      ],
      "name": "getProvider",
      "outputs": [
        {
          "components": [
            {
              "name": "provID",
              "type": "uint256"
            },
            {
              "name": "blockNumber",
              "type": "uint256"
            },
            {
              "name": "maxTime",
              "type": "uint64"
            },
            {
              "name": "maxTarget",
              "type": "uint16"
            },
            {
              "name": "minPrice",
              "type": "uint256"
            },
            {
              "name": "available",
              "type": "bool"
            }
          ],
          "name": "",
          "type": "tuple"
        }
      ],
      "payable": false,
      "stateMutability": "view",
      "type": "function",
      "signature": "0x55f21eb7"
    },
    {
      "constant": true,
      "inputs": [
        {
          "name": "ID",
          "type": "address"
        }
      ],
      "name": "getRequest",
      "outputs": [
        {
          "components": [
            {
              "name": "reqID",
              "type": "uint256"
            },
            {
              "name": "blockNumber",
              "type": "uint256"
            },
            {
              "name": "provider",
              "type": "address"
            },
            {
              "name": "time",
              "type": "uint64"
            },
            {
              "name": "target",
              "type": "uint16"
            },
            {
              "name": "price",
              "type": "uint256"
            },
            {
              "name": "dataID",
              "type": "bytes"
            },
            {
              "name": "resultID",
              "type": "bytes"
            },
            {
              "name": "numValidations",
              "type": "uint64"
            },
            {
              "name": "validators",
              "type": "address[]"
            },
            {
              "name": "signatures",
              "type": "bool[]"
            },
            {
              "name": "isValid",
              "type": "bool"
            },
            {
              "name": "status",
              "type": "bytes1"
            }
          ],
          "name": "",
          "type": "tuple"
        }
      ],
      "payable": false,
      "stateMutability": "view",
      "type": "function",
      "signature": "0x63c1dff7"
    },
    {
      "constant": true,
      "inputs": [],
      "name": "getProviderCount",
      "outputs": [
        {
          "name": "",
          "type": "uint256"
        }
      ],
      "payable": false,
      "stateMutability": "view",
      "type": "function",
      "signature": "0x46ce4175"
    },
    {
      "constant": true,
      "inputs": [],
      "name": "getRequestCount",
      "outputs": [
        {
          "name": "",
          "type": "uint256"
        }
      ],
      "payable": false,
      "stateMutability": "view",
      "type": "function",
      "signature": "0x3fad1834"
    },
    {
      "constant": true,
      "inputs": [],
      "name": "getProviderPool",
      "outputs": [
        {
          "name": "",
          "type": "address[]"
        }
      ],
      "payable": false,
      "stateMutability": "view",
      "type": "function",
      "signature": "0x9e723b97"
    },
    {
      "constant": true,
      "inputs": [],
      "name": "getPendingPool",
      "outputs": [
        {
          "name": "",
          "type": "address[]"
        }
      ],
      "payable": false,
      "stateMutability": "view",
      "type": "function",
      "signature": "0xa9ecaae7"
    },
    {
      "constant": true,
      "inputs": [],
      "name": "getValidatingPool",
      "outputs": [
        {
          "name": "",
          "type": "address[]"
        }
      ],
      "payable": false,
      "stateMutability": "view",
      "type": "function",
      "signature": "0x32c5200d"
    },
    {
      "constant": true,
      "inputs": [],
      "name": "getProvidingPool",
      "outputs": [
        {
          "name": "",
          "type": "address[]"
        }
      ],
      "payable": false,
      "stateMutability": "view",
      "type": "function",
      "signature": "0x1f1dab45"
    },
    {
      "constant": true,
      "inputs": [],
      "name": "getProviderPoolSize",
      "outputs": [
        {
          "name": "",
          "type": "uint256"
        }
      ],
      "payable": false,
      "stateMutability": "view",
      "type": "function",
      "signature": "0x353b2a1f"
    },
    {
      "constant": true,
      "inputs": [],
      "name": "getRequestPoolSize",
      "outputs": [
        {
          "name": "",
          "type": "uint256"
        }
      ],
      "payable": false,
      "stateMutability": "view",
      "type": "function",
      "signature": "0x5c4c8c4e"
    },
    {
      "constant": true,
      "inputs": [
        {
          "name": "IDList",
          "type": "address[]"
        }
      ],
      "name": "listRequests",
      "outputs": [
        {
          "components": [
            {
              "name": "reqID",
              "type": "uint256"
            },
            {
              "name": "blockNumber",
              "type": "uint256"
            },
            {
              "name": "provider",
              "type": "address"
            },
            {
              "name": "time",
              "type": "uint64"
            },
            {
              "name": "target",
              "type": "uint16"
            },
            {
              "name": "price",
              "type": "uint256"
            },
            {
              "name": "dataID",
              "type": "bytes"
            },
            {
              "name": "resultID",
              "type": "bytes"
            },
            {
              "name": "numValidations",
              "type": "uint64"
            },
            {
              "name": "validators",
              "type": "address[]"
            },
            {
              "name": "signatures",
              "type": "bool[]"
            },
            {
              "name": "isValid",
              "type": "bool"
            },
            {
              "name": "status",
              "type": "bytes1"
            }
          ],
          "name": "",
          "type": "tuple[50]"
        }
      ],
      "payable": false,
      "stateMutability": "view",
      "type": "function",
      "signature": "0xc052c4db"
    },
    {
      "constant": true,
      "inputs": [
        {
          "name": "IDList",
          "type": "address[]"
        }
      ],
      "name": "listProviders",
      "outputs": [
        {
          "components": [
            {
              "name": "provID",
              "type": "uint256"
            },
            {
              "name": "blockNumber",
              "type": "uint256"
            },
            {
              "name": "maxTime",
              "type": "uint64"
            },
            {
              "name": "maxTarget",
              "type": "uint16"
            },
            {
              "name": "minPrice",
              "type": "uint256"
            },
            {
              "name": "available",
              "type": "bool"
            }
          ],
          "name": "",
          "type": "tuple[50]"
        }
      ],
      "payable": false,
      "stateMutability": "view",
      "type": "function",
      "signature": "0x2d3272d3"
    }
  ],
  "bytecode": "0x608060405234801561001057600080fd5b506000600381905550600060048190555061545b806100306000396000f3fe608060405260043610610149576000357c0100000000000000000000000000000000000000000000000000000000900463ffffffff168063040d27621461014e5780630708799e1461017957806308931765146101c05780630b6dbd5f146101fd5780630e1e4a3c1461022d578063189258de1461026f5780631f1dab45146102ac5780632d3272d3146102d75780632ddfdbcc1461031457806332c5200d146103515780633432d0f51461037c578063353b2a1f146103b95780633fad1834146103e457806346ce41751461040f57806355f21eb71461043a578063566b2474146104775780635c4c8c4e146104b457806363c1dff7146104df5780636ca43b8d1461051c5780639e723b9714610559578063a9ecaae714610584578063aaef4a62146105af578063b2774934146105ec578063c052c4db14610617578063dafcc3b214610654575b600080fd5b34801561015a57600080fd5b50610163610684565b604051610170919061501a565b60405180910390f35b34801561018557600080fd5b506101a0600480360361019b9190810190614344565b6108bf565b6040516101b79b9a9998979695949392919061508d565b60405180910390f35b3480156101cc57600080fd5b506101e760048036036101e29190810190614467565b610ad8565b6040516101f4919061501a565b60405180910390f35b610217600480360361021291908101906144b6565b610ce1565b604051610224919061501a565b60405180910390f35b34801561023957600080fd5b50610254600480360361024f9190810190614344565b611429565b60405161026696959493929190615146565b60405180910390f35b34801561027b57600080fd5b5061029660048036036102919190810190614344565b611494565b6040516102a39190615072565b60405180910390f35b3480156102b857600080fd5b506102c16114ac565b6040516102ce9190614fba565b60405180910390f35b3480156102e357600080fd5b506102fe60048036036102f99190810190614426565b61153a565b60405161030b9190614fdc565b60405180910390f35b34801561032057600080fd5b5061033b60048036036103369190810190614467565b6115c4565b604051610348919061501a565b60405180910390f35b34801561035d57600080fd5b50610366611b3c565b6040516103739190614fba565b60405180910390f35b34801561038857600080fd5b506103a3600480360361039e9190810190614396565b611bca565b6040516103b0919061501a565b60405180910390f35b3480156103c557600080fd5b506103ce611e79565b6040516103db9190615072565b60405180910390f35b3480156103f057600080fd5b506103f9611e86565b6040516104069190615072565b60405180910390f35b34801561041b57600080fd5b50610424611e90565b6040516104319190615072565b60405180910390f35b34801561044657600080fd5b50610461600480360361045c919081019061436d565b611e9a565b60405161046e9190615035565b60405180910390f35b34801561048357600080fd5b5061049e6004803603610499919081019061436d565b611f7e565b6040516104ab919061501a565b60405180910390f35b3480156104c057600080fd5b506104c96121b1565b6040516104d69190615072565b60405180910390f35b3480156104eb57600080fd5b506105066004803603610501919081019061436d565b6121be565b6040516105139190615050565b60405180910390f35b34801561052857600080fd5b50610543600480360361053e91908101906143d2565b6125f5565b604051610550919061501a565b60405180910390f35b34801561056557600080fd5b5061056e612843565b60405161057b9190614fba565b60405180910390f35b34801561059057600080fd5b506105996128d1565b6040516105a69190614fba565b60405180910390f35b3480156105bb57600080fd5b506105d660048036036105d1919081019061436d565b61295f565b6040516105e3919061501a565b60405180910390f35b3480156105f857600080fd5b50610601612c21565b60405161060e919061501a565b60405180910390f35b34801561062357600080fd5b5061063e60048036036106399190810190614426565b612d31565b60405161064b9190614ff8565b60405180910390f35b61066e600480360361066991908101906144b6565b612dbb565b60405161067b919061501a565b60405180910390f35b60007f3000000000000000000000000000000000000000000000000000000000000000600160003373ffffffffffffffffffffffffffffffffffffffff1673ffffffffffffffffffffffffffffffffffffffff16815260200190815260200160002060090160019054906101000a90047f0100000000000000000000000000000000000000000000000000000000000000027effffffffffffffffffffffffffffffffffffffffffffffffffffffffffffff191614156108bb57600160003373ffffffffffffffffffffffffffffffffffffffff1673ffffffffffffffffffffffffffffffffffffffff16815260200190815260200160002060008082016000905560018201600090556002820160006101000a81549073ffffffffffffffffffffffffffffffffffffffff02191690556002820160146101000a81549067ffffffffffffffff021916905560028201601c6101000a81549061ffff021916905560038201600090556004820160006107fd9190613e41565b60058201600061080d9190613e41565b6006820160006101000a81549067ffffffffffffffff02191690556007820160006108389190613e89565b6008820160006108489190613eaa565b6009820160006101000a81549060ff02191690556009820160016101000a81549060ff021916905550507fa332e7b06782060530f8d1575fcf83b5e831fe3dd09c85e53b0351a7c38ceeac336040516108a19190614ea6565b60405180910390a16108b4600633613073565b90506108bc565b5b90565b60016020528060005260406000206000915090508060000154908060010154908060020160009054906101000a900473ffffffffffffffffffffffffffffffffffffffff16908060020160149054906101000a900467ffffffffffffffff169080600201601c9054906101000a900461ffff1690806003015490806004018054600181600116156101000203166002900480601f0160208091040260200160405190810160405280929190818152602001828054600181600116156101000203166002900480156109d15780601f106109a6576101008083540402835291602001916109d1565b820191906000526020600020905b8154815290600101906020018083116109b457829003601f168201915b505050505090806005018054600181600116156101000203166002900480601f016020809104026020016040519081016040528092919081815260200182805460018160011615610100020316600290048015610a6f5780601f10610a4457610100808354040283529160200191610a6f565b820191906000526020600020905b815481529060010190602001808311610a5257829003601f168201915b5050505050908060060160009054906101000a900467ffffffffffffffff16908060090160009054906101000a900460ff16908060090160019054906101000a90047f01000000000000000000000000000000000000000000000000000000000000000290508b565b6000600115156000803373ffffffffffffffffffffffffffffffffffffffff1673ffffffffffffffffffffffffffffffffffffffff16815260200190815260200160002060040160009054906101000a900460ff1615151415610cd957436000803373ffffffffffffffffffffffffffffffffffffffff1673ffffffffffffffffffffffffffffffffffffffff16815260200190815260200160002060010181905550836000803373ffffffffffffffffffffffffffffffffffffffff1673ffffffffffffffffffffffffffffffffffffffff16815260200190815260200160002060020160006101000a81548167ffffffffffffffff021916908367ffffffffffffffff160217905550826000803373ffffffffffffffffffffffffffffffffffffffff1673ffffffffffffffffffffffffffffffffffffffff16815260200190815260200160002060020160086101000a81548161ffff021916908361ffff1602179055508167ffffffffffffffff166000803373ffffffffffffffffffffffffffffffffffffffff1673ffffffffffffffffffffffffffffffffffffffff168152602001908152602001600020600301819055507fa332e7b06782060530f8d1575fcf83b5e831fe3dd09c85e53b0351a7c38ceeac33604051610cbe9190614e4a565b60405180910390a1610ccf33613224565b5060019050610cda565b5b9392505050565b600080600160003373ffffffffffffffffffffffffffffffffffffffff1673ffffffffffffffffffffffffffffffffffffffff16815260200190815260200160002060010154141561117357600454600160003373ffffffffffffffffffffffffffffffffffffffff1673ffffffffffffffffffffffffffffffffffffffff1681526020019081526020016000206000018190555043600160003373ffffffffffffffffffffffffffffffffffffffff1673ffffffffffffffffffffffffffffffffffffffff168152602001908152602001600020600101819055506000600160003373ffffffffffffffffffffffffffffffffffffffff1673ffffffffffffffffffffffffffffffffffffffff16815260200190815260200160002060020160006101000a81548173ffffffffffffffffffffffffffffffffffffffff021916908373ffffffffffffffffffffffffffffffffffffffff16021790555084600160003373ffffffffffffffffffffffffffffffffffffffff1673ffffffffffffffffffffffffffffffffffffffff16815260200190815260200160002060020160146101000a81548167ffffffffffffffff021916908367ffffffffffffffff16021790555083600160003373ffffffffffffffffffffffffffffffffffffffff1673ffffffffffffffffffffffffffffffffffffffff168152602001908152602001600020600201601c6101000a81548161ffff021916908361ffff1602179055508267ffffffffffffffff16600160003373ffffffffffffffffffffffffffffffffffffffff1673ffffffffffffffffffffffffffffffffffffffff1681526020019081526020016000206003018190555081600160003373ffffffffffffffffffffffffffffffffffffffff1673ffffffffffffffffffffffffffffffffffffffff1681526020019081526020016000206004019080519060200190610fac929190613ed2565b5060018060003373ffffffffffffffffffffffffffffffffffffffff1673ffffffffffffffffffffffffffffffffffffffff16815260200190815260200160002060060160006101000a81548167ffffffffffffffff021916908367ffffffffffffffff1602179055507f3000000000000000000000000000000000000000000000000000000000000000600160003373ffffffffffffffffffffffffffffffffffffffff1673ffffffffffffffffffffffffffffffffffffffff16815260200190815260200160002060090160016101000a81548160ff02191690837f01000000000000000000000000000000000000000000000000000000000000009004021790555060063390806001815401808255809150509060018203906000526020600020016000909192909190916101000a81548173ffffffffffffffffffffffffffffffffffffffff021916908373ffffffffffffffffffffffffffffffffffffffff160217905550507fa332e7b06782060530f8d1575fcf83b5e831fe3dd09c85e53b0351a7c38ceeac336040516111469190614f8c565b60405180910390a1600460008154809291906001019190505550611169336137e8565b5060019050611421565b7f3000000000000000000000000000000000000000000000000000000000000000600160003373ffffffffffffffffffffffffffffffffffffffff1673ffffffffffffffffffffffffffffffffffffffff16815260200190815260200160002060090160019054906101000a90047f0100000000000000000000000000000000000000000000000000000000000000027effffffffffffffffffffffffffffffffffffffffffffffffffffffffffffff191614156114205743600160003373ffffffffffffffffffffffffffffffffffffffff1673ffffffffffffffffffffffffffffffffffffffff1681526020019081526020016000206001018190555084600160003373ffffffffffffffffffffffffffffffffffffffff1673ffffffffffffffffffffffffffffffffffffffff16815260200190815260200160002060020160146101000a81548167ffffffffffffffff021916908367ffffffffffffffff16021790555083600160003373ffffffffffffffffffffffffffffffffffffffff1673ffffffffffffffffffffffffffffffffffffffff168152602001908152602001600020600201601c6101000a81548161ffff021916908361ffff1602179055508267ffffffffffffffff16600160003373ffffffffffffffffffffffffffffffffffffffff1673ffffffffffffffffffffffffffffffffffffffff1681526020019081526020016000206003018190555081600160003373ffffffffffffffffffffffffffffffffffffffff1673ffffffffffffffffffffffffffffffffffffffff16815260200190815260200160002060040190805190602001906113df929190613ed2565b507fa332e7b06782060530f8d1575fcf83b5e831fe3dd09c85e53b0351a7c38ceeac3360405161140f9190614e78565b60405180910390a160019050611421565b5b949350505050565b60006020528060005260406000206000915090508060000154908060010154908060020160009054906101000a900467ffffffffffffffff16908060020160089054906101000a900461ffff16908060030154908060040160009054906101000a900460ff16905086565b60026020528060005260406000206000915090505481565b6060600780548060200260200160405190810160405280929190818152602001828054801561153057602002820191906000526020600020905b8160009054906101000a900473ffffffffffffffffffffffffffffffffffffffff1673ffffffffffffffffffffffffffffffffffffffff16815260200190600101908083116114e6575b5050505050905090565b611542613f52565b61154a613f52565b60008090505b83518167ffffffffffffffff1610156115ba5761158d848267ffffffffffffffff1681518110151561157e57fe5b90602001906020020151611e9a565b828267ffffffffffffffff166032811015156115a557fe5b60200201819052508080600101915050611550565b5080915050919050565b6000806000803373ffffffffffffffffffffffffffffffffffffffff1673ffffffffffffffffffffffffffffffffffffffff168152602001908152602001600020600101541415611935576003546000803373ffffffffffffffffffffffffffffffffffffffff1673ffffffffffffffffffffffffffffffffffffffff16815260200190815260200160002060000181905550436000803373ffffffffffffffffffffffffffffffffffffffff1673ffffffffffffffffffffffffffffffffffffffff16815260200190815260200160002060010181905550836000803373ffffffffffffffffffffffffffffffffffffffff1673ffffffffffffffffffffffffffffffffffffffff16815260200190815260200160002060020160006101000a81548167ffffffffffffffff021916908367ffffffffffffffff160217905550836000803373ffffffffffffffffffffffffffffffffffffffff1673ffffffffffffffffffffffffffffffffffffffff16815260200190815260200160002060020160006101000a81548167ffffffffffffffff021916908367ffffffffffffffff160217905550826000803373ffffffffffffffffffffffffffffffffffffffff1673ffffffffffffffffffffffffffffffffffffffff16815260200190815260200160002060020160086101000a81548161ffff021916908361ffff1602179055508167ffffffffffffffff166000803373ffffffffffffffffffffffffffffffffffffffff1673ffffffffffffffffffffffffffffffffffffffff1681526020019081526020016000206003018190555060016000803373ffffffffffffffffffffffffffffffffffffffff1673ffffffffffffffffffffffffffffffffffffffff16815260200190815260200160002060040160006101000a81548160ff02191690831515021790555060053390806001815401808255809150509060018203906000526020600020016000909192909190916101000a81548173ffffffffffffffffffffffffffffffffffffffff021916908373ffffffffffffffffffffffffffffffffffffffff160217905550507fa332e7b06782060530f8d1575fcf83b5e831fe3dd09c85e53b0351a7c38ceeac336040516119089190614f02565b60405180910390a160036000815480929190600101919050555061192b33613224565b5060019050611b35565b600115156000803373ffffffffffffffffffffffffffffffffffffffff1673ffffffffffffffffffffffffffffffffffffffff16815260200190815260200160002060040160009054906101000a900460ff1615151415611b3457436000803373ffffffffffffffffffffffffffffffffffffffff1673ffffffffffffffffffffffffffffffffffffffff16815260200190815260200160002060010181905550836000803373ffffffffffffffffffffffffffffffffffffffff1673ffffffffffffffffffffffffffffffffffffffff16815260200190815260200160002060020160006101000a81548167ffffffffffffffff021916908367ffffffffffffffff160217905550826000803373ffffffffffffffffffffffffffffffffffffffff1673ffffffffffffffffffffffffffffffffffffffff16815260200190815260200160002060020160086101000a81548161ffff021916908361ffff1602179055508167ffffffffffffffff166000803373ffffffffffffffffffffffffffffffffffffffff1673ffffffffffffffffffffffffffffffffffffffff168152602001908152602001600020600301819055507fa332e7b06782060530f8d1575fcf83b5e831fe3dd09c85e53b0351a7c38ceeac33604051611b199190614e4a565b60405180910390a1611b2a33613224565b5060019050611b35565b5b9392505050565b60606008805480602002602001604051908101604052809291908181526020018280548015611bc057602002820191906000526020600020905b8160009054906101000a900473ffffffffffffffffffffffffffffffffffffffff1673ffffffffffffffffffffffffffffffffffffffff1681526020019060010190808311611b76575b5050505050905090565b6000600160008473ffffffffffffffffffffffffffffffffffffffff1673ffffffffffffffffffffffffffffffffffffffff16815260200190815260200160002060020160009054906101000a900473ffffffffffffffffffffffffffffffffffffffff1673ffffffffffffffffffffffffffffffffffffffff163373ffffffffffffffffffffffffffffffffffffffff16141515611d9157600160008473ffffffffffffffffffffffffffffffffffffffff1673ffffffffffffffffffffffffffffffffffffffff1681526020019081526020016000206007013390806001815401808255809150509060018203906000526020600020016000909192909190916101000a81548173ffffffffffffffffffffffffffffffffffffffff021916908373ffffffffffffffffffffffffffffffffffffffff16021790555050600160008473ffffffffffffffffffffffffffffffffffffffff1673ffffffffffffffffffffffffffffffffffffffff16815260200190815260200160002060080182908060018154018082558091505090600182039060005260206000209060209182820401919006909192909190916101000a81548160ff021916908315150217905550505b7f654163525cabcfa0ce95ecb1f232c75746c89688c42e7e2d52df90d770fc9e578333604051611dc2929190614da4565b60405180910390a1600160008473ffffffffffffffffffffffffffffffffffffffff1673ffffffffffffffffffffffffffffffffffffffff16815260200190815260200160002060060160009054906101000a900467ffffffffffffffff1667ffffffffffffffff16600160008573ffffffffffffffffffffffffffffffffffffffff1673ffffffffffffffffffffffffffffffffffffffff16815260200190815260200160002060070180549050505092915050565b6000600580549050905090565b6000600454905090565b6000600354905090565b611ea2613f81565b6000808373ffffffffffffffffffffffffffffffffffffffff1673ffffffffffffffffffffffffffffffffffffffff16815260200190815260200160002060c0604051908101604052908160008201548152602001600182015481526020016002820160009054906101000a900467ffffffffffffffff1667ffffffffffffffff1667ffffffffffffffff1681526020016002820160089054906101000a900461ffff1661ffff1661ffff168152602001600382015481526020016004820160009054906101000a900460ff1615151515815250509050919050565b60008060009050600080905060008090505b600160008673ffffffffffffffffffffffffffffffffffffffff1673ffffffffffffffffffffffffffffffffffffffff168152602001908152602001600020600701805490508167ffffffffffffffff1610156120825760011515600160008773ffffffffffffffffffffffffffffffffffffffff1673ffffffffffffffffffffffffffffffffffffffff1681526020019081526020016000206008018267ffffffffffffffff1681548110151561204457fe5b90600052602060002090602091828204019190069054906101000a900460ff16151514156120755781806001019250505b8080600101915050611f90565b50600160008573ffffffffffffffffffffffffffffffffffffffff1673ffffffffffffffffffffffffffffffffffffffff16815260200190815260200160002060060160009054906101000a900467ffffffffffffffff1667ffffffffffffffff168167ffffffffffffffff161015156121595760018060008673ffffffffffffffffffffffffffffffffffffffff1673ffffffffffffffffffffffffffffffffffffffff16815260200190815260200160002060090160006101000a81548160ff0219169083151502179055506001915061215a565b5b7fa332e7b06782060530f8d1575fcf83b5e831fe3dd09c85e53b0351a7c38ceeac846040516121899190614f5e565b60405180910390a18180156121a557506121a4600885613073565b5b91508192505050919050565b6000600680549050905090565b6121c6613fc8565b600160008373ffffffffffffffffffffffffffffffffffffffff1673ffffffffffffffffffffffffffffffffffffffff1681526020019081526020016000206101a0604051908101604052908160008201548152602001600182015481526020016002820160009054906101000a900473ffffffffffffffffffffffffffffffffffffffff1673ffffffffffffffffffffffffffffffffffffffff1673ffffffffffffffffffffffffffffffffffffffff1681526020016002820160149054906101000a900467ffffffffffffffff1667ffffffffffffffff1667ffffffffffffffff16815260200160028201601c9054906101000a900461ffff1661ffff1661ffff16815260200160038201548152602001600482018054600181600116156101000203166002900480601f0160208091040260200160405190810160405280929190818152602001828054600181600116156101000203166002900480156123715780601f1061234657610100808354040283529160200191612371565b820191906000526020600020905b81548152906001019060200180831161235457829003601f168201915b50505050508152602001600582018054600181600116156101000203166002900480601f0160208091040260200160405190810160405280929190818152602001828054600181600116156101000203166002900480156124135780601f106123e857610100808354040283529160200191612413565b820191906000526020600020905b8154815290600101906020018083116123f657829003601f168201915b505050505081526020016006820160009054906101000a900467ffffffffffffffff1667ffffffffffffffff1667ffffffffffffffff168152602001600782018054806020026020016040519081016040528092919081815260200182805480156124d357602002820191906000526020600020905b8160009054906101000a900473ffffffffffffffffffffffffffffffffffffffff1673ffffffffffffffffffffffffffffffffffffffff1681526020019060010190808311612489575b505050505081526020016008820180548060200260200160405190810160405280929190818152602001828054801561255057602002820191906000526020600020906000905b82829054906101000a900460ff1615158152602001906001019060208260000104928301926001038202915080841161251a5790505b505050505081526020016009820160009054906101000a900460ff161515151581526020016009820160019054906101000a90047f0100000000000000000000000000000000000000000000000000000000000000027effffffffffffffffffffffffffffffffffffffffffffffffffffffffffffff19167effffffffffffffffffffffffffffffffffffffffffffffffffffffffffffff1916815250509050919050565b6000600160008473ffffffffffffffffffffffffffffffffffffffff1673ffffffffffffffffffffffffffffffffffffffff16815260200190815260200160002060020160009054906101000a900473ffffffffffffffffffffffffffffffffffffffff1673ffffffffffffffffffffffffffffffffffffffff163373ffffffffffffffffffffffffffffffffffffffff161415612838577f3200000000000000000000000000000000000000000000000000000000000000600160008573ffffffffffffffffffffffffffffffffffffffff1673ffffffffffffffffffffffffffffffffffffffff16815260200190815260200160002060090160016101000a81548160ff02191690837f01000000000000000000000000000000000000000000000000000000000000009004021790555081600160008573ffffffffffffffffffffffffffffffffffffffff1673ffffffffffffffffffffffffffffffffffffffff168152602001908152602001600020600501908051906020019061277e929190613ed2565b5061278a600784613073565b5060088390806001815401808255809150509060018203906000526020600020016000909192909190916101000a81548173ffffffffffffffffffffffffffffffffffffffff021916908373ffffffffffffffffffffffffffffffffffffffff160217905550507fa332e7b06782060530f8d1575fcf83b5e831fe3dd09c85e53b0351a7c38ceeac836040516128209190614ed4565b60405180910390a16128318361295f565b905061283d565b600090505b92915050565b606060058054806020026020016040519081016040528092919081815260200182805480156128c757602002820191906000526020600020905b8160009054906101000a900473ffffffffffffffffffffffffffffffffffffffff1673ffffffffffffffffffffffffffffffffffffffff168152602001906001019080831161287d575b5050505050905090565b6060600680548060200260200160405190810160405280929190818152602001828054801561295557602002820191906000526020600020905b8160009054906101000a900473ffffffffffffffffffffffffffffffffffffffff1673ffffffffffffffffffffffffffffffffffffffff168152602001906001019080831161290b575b5050505050905090565b600080600160008473ffffffffffffffffffffffffffffffffffffffff1673ffffffffffffffffffffffffffffffffffffffff16815260200190815260200160002060060160009054906101000a900467ffffffffffffffff169050600080905060008090505b6005805490508167ffffffffffffffff161015612be157600060058267ffffffffffffffff168154811015156129f857fe5b9060005260206000200160009054906101000a900473ffffffffffffffffffffffffffffffffffffffff169050600160008773ffffffffffffffffffffffffffffffffffffffff1673ffffffffffffffffffffffffffffffffffffffff16815260200190815260200160002060020160009054906101000a900473ffffffffffffffffffffffffffffffffffffffff1673ffffffffffffffffffffffffffffffffffffffff168173ffffffffffffffffffffffffffffffffffffffff16141515612b68577f654163525cabcfa0ce95ecb1f232c75746c89688c42e7e2d52df90d770fc9e578682604051612aed929190614d68565b60405180910390a1828060010193505060008060008373ffffffffffffffffffffffffffffffffffffffff1673ffffffffffffffffffffffffffffffffffffffff16815260200190815260200160002060040160006101000a81548160ff021916908315150217905550612b62600582613073565b50612b6e565b50612bd4565b8367ffffffffffffffff168367ffffffffffffffff161015612b905750612bd4565b7fa332e7b06782060530f8d1575fcf83b5e831fe3dd09c85e53b0351a7c38ceeac86604051612bbf9190614e1c565b60405180910390a16001945050505050612c1c565b80806001019150506129c6565b507fa332e7b06782060530f8d1575fcf83b5e831fe3dd09c85e53b0351a7c38ceeac84604051612c119190614f30565b60405180910390a150505b919050565b6000600115156000803373ffffffffffffffffffffffffffffffffffffffff1673ffffffffffffffffffffffffffffffffffffffff16815260200190815260200160002060040160009054906101000a900460ff1615151415612d2d576000803373ffffffffffffffffffffffffffffffffffffffff1673ffffffffffffffffffffffffffffffffffffffff16815260200190815260200160002060008082016000905560018201600090556002820160006101000a81549067ffffffffffffffff02191690556002820160086101000a81549061ffff021916905560038201600090556004820160006101000a81549060ff02191690555050612d26600533613073565b9050612d2e565b5b90565b612d39614083565b612d41614083565b60008090505b83518167ffffffffffffffff161015612db157612d84848267ffffffffffffffff16815181101515612d7557fe5b906020019060200201516121be565b828267ffffffffffffffff16603281101515612d9c57fe5b60200201819052508080600101915050612d47565b5080915050919050565b60007f3000000000000000000000000000000000000000000000000000000000000000600160003373ffffffffffffffffffffffffffffffffffffffff1673ffffffffffffffffffffffffffffffffffffffff16815260200190815260200160002060090160019054906101000a90047f0100000000000000000000000000000000000000000000000000000000000000027effffffffffffffffffffffffffffffffffffffffffffffffffffffffffffff1916141561306a5743600160003373ffffffffffffffffffffffffffffffffffffffff1673ffffffffffffffffffffffffffffffffffffffff1681526020019081526020016000206001018190555084600160003373ffffffffffffffffffffffffffffffffffffffff1673ffffffffffffffffffffffffffffffffffffffff16815260200190815260200160002060020160146101000a81548167ffffffffffffffff021916908367ffffffffffffffff16021790555083600160003373ffffffffffffffffffffffffffffffffffffffff1673ffffffffffffffffffffffffffffffffffffffff168152602001908152602001600020600201601c6101000a81548161ffff021916908361ffff1602179055508267ffffffffffffffff16600160003373ffffffffffffffffffffffffffffffffffffffff1673ffffffffffffffffffffffffffffffffffffffff1681526020019081526020016000206003018190555081600160003373ffffffffffffffffffffffffffffffffffffffff1673ffffffffffffffffffffffffffffffffffffffff1681526020019081526020016000206004019080519060200190613029929190613ed2565b507fa332e7b06782060530f8d1575fcf83b5e831fe3dd09c85e53b0351a7c38ceeac336040516130599190614e78565b60405180910390a16001905061306b565b5b949350505050565b600080600090505b83805490508167ffffffffffffffff161015613218578273ffffffffffffffffffffffffffffffffffffffff16848267ffffffffffffffff168154811015156130c057fe5b9060005260206000200160009054906101000a900473ffffffffffffffffffffffffffffffffffffffff1673ffffffffffffffffffffffffffffffffffffffff16141561320b5783600185805490500381548110151561311c57fe5b9060005260206000200160009054906101000a900473ffffffffffffffffffffffffffffffffffffffff16848267ffffffffffffffff1681548110151561315f57fe5b9060005260206000200160006101000a81548173ffffffffffffffffffffffffffffffffffffffff021916908373ffffffffffffffffffffffffffffffffffffffff1602179055508360018580549050038154811015156131bc57fe5b9060005260206000200160006101000a81549073ffffffffffffffffffffffffffffffffffffffff02191690556001848181805490500391508161320091906140b2565b50600191505061321e565b808060010191505061307b565b50600090505b92915050565b600080600680549050141561325b577f320000000000000000000000000000000000000000000000000000000000000090506137e3565b60008090505b6006805490508167ffffffffffffffff1610156137be57600060068267ffffffffffffffff1681548110151561329357fe5b9060005260206000200160009054906101000a900473ffffffffffffffffffffffffffffffffffffffff1690506000808573ffffffffffffffffffffffffffffffffffffffff1673ffffffffffffffffffffffffffffffffffffffff16815260200190815260200160002060020160009054906101000a900467ffffffffffffffff1667ffffffffffffffff16600160008373ffffffffffffffffffffffffffffffffffffffff1673ffffffffffffffffffffffffffffffffffffffff16815260200190815260200160002060020160149054906101000a900467ffffffffffffffff1667ffffffffffffffff161115801561343657506000808573ffffffffffffffffffffffffffffffffffffffff1673ffffffffffffffffffffffffffffffffffffffff16815260200190815260200160002060020160089054906101000a900461ffff1661ffff16600160008373ffffffffffffffffffffffffffffffffffffffff1673ffffffffffffffffffffffffffffffffffffffff168152602001908152602001600020600201601c9054906101000a900461ffff1661ffff1611155b80156134c557506000808573ffffffffffffffffffffffffffffffffffffffff1673ffffffffffffffffffffffffffffffffffffffff16815260200190815260200160002060030154600160008373ffffffffffffffffffffffffffffffffffffffff1673ffffffffffffffffffffffffffffffffffffffff1681526020019081526020016000206003015410155b156137b05760008060008673ffffffffffffffffffffffffffffffffffffffff1673ffffffffffffffffffffffffffffffffffffffff16815260200190815260200160002060040160006101000a81548160ff02191690831515021790555061352f600585613073565b5083600160008373ffffffffffffffffffffffffffffffffffffffff1673ffffffffffffffffffffffffffffffffffffffff16815260200190815260200160002060020160006101000a81548173ffffffffffffffffffffffffffffffffffffffff021916908373ffffffffffffffffffffffffffffffffffffffff1602179055507f3100000000000000000000000000000000000000000000000000000000000000600160008373ffffffffffffffffffffffffffffffffffffffff1673ffffffffffffffffffffffffffffffffffffffff16815260200190815260200160002060090160016101000a81548160ff02191690837f010000000000000000000000000000000000000000000000000000000000000090040217905550613657600682613073565b50600160008273ffffffffffffffffffffffffffffffffffffffff1673ffffffffffffffffffffffffffffffffffffffff16815260200190815260200160002060030154600260008373ffffffffffffffffffffffffffffffffffffffff1673ffffffffffffffffffffffffffffffffffffffff1681526020019081526020016000206000828254019250508190555060078190806001815401808255809150509060018203906000526020600020016000909192909190916101000a81548173ffffffffffffffffffffffffffffffffffffffff021916908373ffffffffffffffffffffffffffffffffffffffff160217905550507f654163525cabcfa0ce95ecb1f232c75746c89688c42e7e2d52df90d770fc9e57818560405161377e929190614de0565b60405180910390a17f3000000000000000000000000000000000000000000000000000000000000000925050506137e3565b508080600101915050613261565b507f310000000000000000000000000000000000000000000000000000000000000090505b919050565b600080600580549050141561381f577f32000000000000000000000000000000000000000000000000000000000000009050613e3c565b60008090505b6005805490508167ffffffffffffffff161015613e1757600060058267ffffffffffffffff1681548110151561385757fe5b9060005260206000200160009054906101000a900473ffffffffffffffffffffffffffffffffffffffff169050600073ffffffffffffffffffffffffffffffffffffffff168173ffffffffffffffffffffffffffffffffffffffff16141580156139135750600115156000808373ffffffffffffffffffffffffffffffffffffffff1673ffffffffffffffffffffffffffffffffffffffff16815260200190815260200160002060040160009054906101000a900460ff161515145b15613e09576000808273ffffffffffffffffffffffffffffffffffffffff1673ffffffffffffffffffffffffffffffffffffffff16815260200190815260200160002060020160089054906101000a900461ffff1661ffff16600160008673ffffffffffffffffffffffffffffffffffffffff1673ffffffffffffffffffffffffffffffffffffffff168152602001908152602001600020600201601c9054906101000a900461ffff1661ffff1611158015613a8e57506000808273ffffffffffffffffffffffffffffffffffffffff1673ffffffffffffffffffffffffffffffffffffffff16815260200190815260200160002060020160009054906101000a900467ffffffffffffffff1667ffffffffffffffff16600160008673ffffffffffffffffffffffffffffffffffffffff1673ffffffffffffffffffffffffffffffffffffffff16815260200190815260200160002060020160149054906101000a900467ffffffffffffffff1667ffffffffffffffff1611155b8015613b1d57506000808273ffffffffffffffffffffffffffffffffffffffff1673ffffffffffffffffffffffffffffffffffffffff16815260200190815260200160002060030154600160008673ffffffffffffffffffffffffffffffffffffffff1673ffffffffffffffffffffffffffffffffffffffff1681526020019081526020016000206003015410155b15613e085760008060008373ffffffffffffffffffffffffffffffffffffffff1673ffffffffffffffffffffffffffffffffffffffff16815260200190815260200160002060040160006101000a81548160ff021916908315150217905550613b87600582613073565b5080600160008673ffffffffffffffffffffffffffffffffffffffff1673ffffffffffffffffffffffffffffffffffffffff16815260200190815260200160002060020160006101000a81548173ffffffffffffffffffffffffffffffffffffffff021916908373ffffffffffffffffffffffffffffffffffffffff1602179055507f3100000000000000000000000000000000000000000000000000000000000000600160008673ffffffffffffffffffffffffffffffffffffffff1673ffffffffffffffffffffffffffffffffffffffff16815260200190815260200160002060090160016101000a81548160ff02191690837f010000000000000000000000000000000000000000000000000000000000000090040217905550613caf600685613073565b50600160008573ffffffffffffffffffffffffffffffffffffffff1673ffffffffffffffffffffffffffffffffffffffff16815260200190815260200160002060030154600260008673ffffffffffffffffffffffffffffffffffffffff1673ffffffffffffffffffffffffffffffffffffffff1681526020019081526020016000206000828254019250508190555060078490806001815401808255809150509060018203906000526020600020016000909192909190916101000a81548173ffffffffffffffffffffffffffffffffffffffff021916908373ffffffffffffffffffffffffffffffffffffffff160217905550507f654163525cabcfa0ce95ecb1f232c75746c89688c42e7e2d52df90d770fc9e578482604051613dd6929190614de0565b60405180910390a17f300000000000000000000000000000000000000000000000000000000000000092505050613e3c565b5b508080600101915050613825565b507f310000000000000000000000000000000000000000000000000000000000000090505b919050565b50805460018160011615610100020316600290046000825580601f10613e675750613e86565b601f016020900490600052602060002090810190613e8591906140de565b5b50565b5080546000825590600052602060002090810190613ea791906140de565b50565b50805460008255601f016020900490600052602060002090810190613ecf91906140de565b50565b828054600181600116156101000203166002900490600052602060002090601f016020900481019282601f10613f1357805160ff1916838001178555613f41565b82800160010185558215613f41579182015b82811115613f40578251825591602001919060010190613f25565b5b509050613f4e91906140de565b5090565b612580604051908101604052806032905b613f6b614103565b815260200190600190039081613f635790505090565b60c0604051908101604052806000815260200160008152602001600067ffffffffffffffff168152602001600061ffff168152602001600081526020016000151581525090565b6101a0604051908101604052806000815260200160008152602001600073ffffffffffffffffffffffffffffffffffffffff168152602001600067ffffffffffffffff168152602001600061ffff168152602001600081526020016060815260200160608152602001600067ffffffffffffffff168152602001606081526020016060815260200160001515815260200160007effffffffffffffffffffffffffffffffffffffffffffffffffffffffffffff191681525090565b615140604051908101604052806032905b61409c61414a565b8152602001906001900390816140945790505090565b8154818355818111156140d9578183600052602060002091820191016140d891906140de565b5b505050565b61410091905b808211156140fc5760008160009055506001016140e4565b5090565b90565b60c0604051908101604052806000815260200160008152602001600067ffffffffffffffff168152602001600061ffff168152602001600081526020016000151581525090565b6101a0604051908101604052806000815260200160008152602001600073ffffffffffffffffffffffffffffffffffffffff168152602001600067ffffffffffffffff168152602001600061ffff168152602001600081526020016060815260200160608152602001600067ffffffffffffffff168152602001606081526020016060815260200160001515815260200160007effffffffffffffffffffffffffffffffffffffffffffffffffffffffffffff191681525090565b6000614211823561537c565b905092915050565b6000614225823561538e565b905092915050565b600082601f830112151561424057600080fd5b813561425361424e826151d4565b6151a7565b9150818183526020840193506020810190508385602084028201111561427857600080fd5b60005b838110156142a8578161428e8882614219565b84526020840193506020830192505060018101905061427b565b5050505092915050565b60006142be82356153a0565b905092915050565b600082601f83011215156142d957600080fd5b81356142ec6142e7826151fc565b6151a7565b9150808252602083016020830185838301111561430857600080fd5b6143138382846153ce565b50505092915050565b600061432882356153ac565b905092915050565b600061433c82356153ba565b905092915050565b60006020828403121561435657600080fd5b600061436484828501614205565b91505092915050565b60006020828403121561437f57600080fd5b600061438d84828501614219565b91505092915050565b600080604083850312156143a957600080fd5b60006143b785828601614219565b92505060206143c8858286016142b2565b9150509250929050565b600080604083850312156143e557600080fd5b60006143f385828601614219565b925050602083013567ffffffffffffffff81111561441057600080fd5b61441c858286016142c6565b9150509250929050565b60006020828403121561443857600080fd5b600082013567ffffffffffffffff81111561445257600080fd5b61445e8482850161422d565b91505092915050565b60008060006060848603121561447c57600080fd5b600061448a86828701614330565b935050602061449b8682870161431c565b92505060406144ac86828701614330565b9150509250925092565b600080600080608085870312156144cc57600080fd5b60006144da87828801614330565b94505060206144eb8782880161431c565b93505060406144fc87828801614330565b925050606085013567ffffffffffffffff81111561451957600080fd5b614525878288016142c6565b91505092959194509250565b61453a816152e6565b82525050565b600061454b8261526e565b80845260208401935061455d83615235565b60005b8281101561458f57614573868351614531565b61457c826152b2565b9150602086019550600181019050614560565b50849250505092915050565b60006145a682615263565b8084526020840193506145b883615228565b60005b828110156145ea576145ce868351614531565b6145d7826152a5565b91506020860195506001810190506145bb565b50849250505092915050565b600061460182615279565b80845260208401935061461383615242565b60005b8281101561464557614629868351614701565b614632826152bf565b9150602086019550600181019050614616565b50849250505092915050565b61465a81615284565b6146638261524f565b60005b8281101561469557614679858351614a64565b614682826152cc565b915060c085019450600181019050614666565b5050505050565b60006146a78261528f565b836020820285016146b785615259565b60005b848110156146f05783830388526146d2838351614c0d565b92506146dd826152d9565b91506020880197506001810190506146ba565b508196508694505050505092915050565b61470a816152f8565b82525050565b61471981615304565b82525050565b600061472a8261529a565b80845261473e8160208601602086016153dd565b61474781615410565b602085010191505092915050565b6000601182527f456e6f7567682056616c696461746f72730000000000000000000000000000006020830152604082019050919050565b6000601082527f50726f76696465722055706461746564000000000000000000000000000000006020830152604082019050919050565b6000600f82527f52657175657374205570646174656400000000000000000000000000000000006020830152604082019050919050565b6000601f82527f56616c69646174696f6e2041737369676e656420746f2050726f7669646572006020830152604082019050919050565b6000600f82527f526571756573742053746f7070656400000000000000000000000000000000006020830152604082019050919050565b6000601d82527f5265717565737420436f6d7075746174696f6e20436f6d706c657465640000006020830152604082019050919050565b6000600e82527f50726f76696465722041646465640000000000000000000000000000000000006020830152604082019050919050565b6000601082527f56616c696461746f72205369676e6564000000000000000000000000000000006020830152604082019050919050565b6000601582527f4e6f7420456e6f7567682056616c696461746f727300000000000000000000006020830152604082019050919050565b6000601082527f526571756573742041737369676e6564000000000000000000000000000000006020830152604082019050919050565b6000601382527f56616c69646174696f6e20436f6d706c657465000000000000000000000000006020830152604082019050919050565b6000600d82527f52657175657374204164646564000000000000000000000000000000000000006020830152604082019050919050565b60c0820160008201516149ff6000850182614d4a565b506020820151614a126020850182614d4a565b506040820151614a256040850182614d59565b506060820151614a386060850182614d3b565b506080820151614a4b6080850182614d4a565b5060a0820151614a5e60a0850182614701565b50505050565b60c082016000820151614a7a6000850182614d4a565b506020820151614a8d6020850182614d4a565b506040820151614aa06040850182614d59565b506060820151614ab36060850182614d3b565b506080820151614ac66080850182614d4a565b5060a0820151614ad960a0850182614701565b50505050565b60006101a083016000830151614af86000860182614d4a565b506020830151614b0b6020860182614d4a565b506040830151614b1e6040860182614531565b506060830151614b316060860182614d59565b506080830151614b446080860182614d3b565b5060a0830151614b5760a0860182614d4a565b5060c083015184820360c0860152614b6f828261471f565b91505060e083015184820360e0860152614b89828261471f565b915050610100830151614ba0610100860182614d59565b50610120830151848203610120860152614bba828261459b565b915050610140830151848203610140860152614bd682826145f6565b915050610160830151614bed610160860182614701565b50610180830151614c02610180860182614710565b508091505092915050565b60006101a083016000830151614c266000860182614d4a565b506020830151614c396020860182614d4a565b506040830151614c4c6040860182614531565b506060830151614c5f6060860182614d59565b506080830151614c726080860182614d3b565b5060a0830151614c8560a0860182614d4a565b5060c083015184820360c0860152614c9d828261471f565b91505060e083015184820360e0860152614cb7828261471f565b915050610100830151614cce610100860182614d59565b50610120830151848203610120860152614ce8828261459b565b915050610140830151848203610140860152614d0482826145f6565b915050610160830151614d1b610160860182614701565b50610180830151614d30610180860182614710565b508091505092915050565b614d4481615330565b82525050565b614d538161535e565b82525050565b614d6281615368565b82525050565b6000606082019050614d7d6000830185614531565b614d8a6020830184614531565b8181036040830152614d9b816147fa565b90509392505050565b6000606082019050614db96000830185614531565b614dc66020830184614531565b8181036040830152614dd7816148d6565b90509392505050565b6000606082019050614df56000830185614531565b614e026020830184614531565b8181036040830152614e1381614944565b90509392505050565b6000604082019050614e316000830184614531565b8181036020830152614e4281614755565b905092915050565b6000604082019050614e5f6000830184614531565b8181036020830152614e708161478c565b905092915050565b6000604082019050614e8d6000830184614531565b8181036020830152614e9e816147c3565b905092915050565b6000604082019050614ebb6000830184614531565b8181036020830152614ecc81614831565b905092915050565b6000604082019050614ee96000830184614531565b8181036020830152614efa81614868565b905092915050565b6000604082019050614f176000830184614531565b8181036020830152614f288161489f565b905092915050565b6000604082019050614f456000830184614531565b8181036020830152614f568161490d565b905092915050565b6000604082019050614f736000830184614531565b8181036020830152614f848161497b565b905092915050565b6000604082019050614fa16000830184614531565b8181036020830152614fb2816149b2565b905092915050565b60006020820190508181036000830152614fd48184614540565b905092915050565b600061258082019050614ff26000830184614651565b92915050565b60006020820190508181036000830152615012818461469c565b905092915050565b600060208201905061502f6000830184614701565b92915050565b600060c08201905061504a60008301846149e9565b92915050565b6000602082019050818103600083015261506a8184614adf565b905092915050565b60006020820190506150876000830184614d4a565b92915050565b6000610160820190506150a3600083018e614d4a565b6150b0602083018d614d4a565b6150bd604083018c614531565b6150ca606083018b614d59565b6150d7608083018a614d3b565b6150e460a0830189614d4a565b81810360c08301526150f6818861471f565b905081810360e083015261510a818761471f565b905061511a610100830186614d59565b615128610120830185614701565b615136610140830184614710565b9c9b505050505050505050505050565b600060c08201905061515b6000830189614d4a565b6151686020830188614d4a565b6151756040830187614d59565b6151826060830186614d3b565b61518f6080830185614d4a565b61519c60a0830184614701565b979650505050505050565b6000604051905081810181811067ffffffffffffffff821117156151ca57600080fd5b8060405250919050565b600067ffffffffffffffff8211156151eb57600080fd5b602082029050602081019050919050565b600067ffffffffffffffff82111561521357600080fd5b601f19601f8301169050602081019050919050565b6000602082019050919050565b6000602082019050919050565b6000602082019050919050565b6000819050919050565b6000819050919050565b600081519050919050565b600081519050919050565b600081519050919050565b600060329050919050565b600060329050919050565b600081519050919050565b6000602082019050919050565b6000602082019050919050565b6000602082019050919050565b6000602082019050919050565b6000602082019050919050565b60006152f18261533e565b9050919050565b60008115159050919050565b60007fff0000000000000000000000000000000000000000000000000000000000000082169050919050565b600061ffff82169050919050565b600073ffffffffffffffffffffffffffffffffffffffff82169050919050565b6000819050919050565b600067ffffffffffffffff82169050919050565b60006153878261533e565b9050919050565b60006153998261533e565b9050919050565b60008115159050919050565b600061ffff82169050919050565b600067ffffffffffffffff82169050919050565b82818337600083830152505050565b60005b838110156153fb5780820151818401526020810190506153e0565b8381111561540a576000848401525b50505050565b6000601f19601f830116905091905056fea265627a7a72305820e1201d765f06ec3e14f32f1336ed3ad39784f941433e13f065f7df5c20fdb0c76c6578706572696d656e74616cf50037",
  "source": "/////////////////////////////////////////////////////////////////////////////////////\n//version 2.0\n//Author: Taurus\n//Copyright: tlu4@lsu.edu\n//\n//NOTE: non-view functions cannot return values, only possible way is event\n//Changes from v0.9x. Each node has unique address as identifier. All pools removed \n//All req and prov handled in the mapping.\n//update 12/12: pools cannot be removed, since we need to track who are active, cannot search in mapping.\n///////////////////////////////////////////////////////////////////////////////////////\npragma solidity ^0.5.0;\npragma experimental ABIEncoderV2;   //return self-defined type\n\ncontract TaskContract {\n    //list\n    mapping (address => Provider) public providerList;   //All here\n    mapping (address => Request)  public requestList;    //All here\n    mapping (address => uint256)  public balanceList;    //reqID => balance\n \n    //ID - counter\n    uint256 private providerCount;                       //+1 each time\n    uint256 private requestCount;\n\n    constructor() public {                               //sol 5.0 syntax\n        providerCount = 0;\n        requestCount = 0;\n    }\n\n    struct Request {\n        uint256 reqID;                      //requestID is not identifier \n        uint256 blockNumber;                //record the time of submition\n        address payable provider;           //record the provider assigned to this request\n        uint64  time;                       //time\n        uint16  target;                     //target 0-100.00\n        uint256 price;                      //the max amount he can pay\n        bytes   dataID;                     //dataID used to fetch the off-chain data\n        bytes   resultID;                   //dataID to fetch the result\n        uint64  numValidations;             //user defined the validation\n        address payable []  validators;     //multisignature from validations\n        bool[]  signatures;                 //true or false array\n        bool    isValid;                    //the final flag\n        byte    status;                     //0: 'pending', 1:'providing', 2: validating, 3: complete\n    }\n\n    struct Provider {\n        uint256 provID;\n        uint256 blockNumber;\n        uint64  maxTime;                    //max time\n        uint16  maxTarget;                  //max target he need\n        uint256 minPrice;                   //lowest price can accept\n        bool    available;                  //if ready to be assigned\n    }\n\n    event SystemInfo        (address payable addr, bytes info);\n    event PairingInfo       (address payable reqAddr, address payable provAddr, bytes info);\n\n    address payable [] providerPool;\n    address payable [] pendingPool;\n    address payable [] providingPool;\n    address payable [] validatingPool;\n    /////////////////////////////////////////////////////////////////////////////////////\n\n    \n    // Function called to become a provider. New on List, Map and Pool. \n    // NOTE: cannot use to update. You must stop a previous one and start a new one.\n    // TIPS: gas cost: don't create local copy and write back, modify the storage directly.\n    //gas cost 165K without event / 167K with event / 92K overwrite\n    function startProviding(uint64 maxTime, uint16 maxTarget, uint64 minPrice) public returns (bool) {\n        if(providerList[msg.sender].blockNumber == 0){              //this is new\n            // register a new provider object in the List and map              \n            providerList[msg.sender].provID         = providerCount;    //cost 50k per item edit\n            providerList[msg.sender].blockNumber    = block.number;           \n            providerList[msg.sender].maxTime        = maxTime;\n            providerList[msg.sender].maxTime        = maxTime;       \n            providerList[msg.sender].maxTarget      = maxTarget;\n            providerList[msg.sender].minPrice       = minPrice;\n            providerList[msg.sender].available      = true;             //turn on the flag at LAST\n            // ready for the next       \n            providerPool.push(msg.sender);\n            emit SystemInfo (msg.sender, \"Provider Added\");\n            providerCount++;\n            assignProvider(msg.sender);\n            return true;\n        } else {\n            if(providerList[msg.sender].available == true){                //can only modify available provider\n                providerList[msg.sender].blockNumber    = block.number;         \n                providerList[msg.sender].maxTime        = maxTime;       \n                providerList[msg.sender].maxTarget      = maxTarget;\n                providerList[msg.sender].minPrice       = minPrice;\n                emit SystemInfo(msg.sender,'Provider Updated');\n                assignProvider(msg.sender);\n                return true;\n            }\n        }\n    }\n    // Stop a provider, if you know a provider ID. Get em using getProvID()\n    // Must be sent from the provider address or it will be failed.\n    function stopProviding() public returns (bool) {\n        // If the sender is currently an active provider\n        if (providerList[msg.sender].available == true){               //can only stop available provider            \n            delete providerList[msg.sender];                           //delete from List\n            return ArrayPop(providerPool, msg.sender);                 //delete from Pool    \n            emit SystemInfo(msg.sender, 'Provider Stopped');         \n        }\n    }\n    //update a provider, you must know the provID and must sent from right addr\n    function updateProvider(uint64 maxTime, uint16 maxTarget, uint64 minPrice) public returns (bool) {      \n        if(providerList[msg.sender].available == true){                //can only modify available provider\n            providerList[msg.sender].blockNumber    = block.number;         \n            providerList[msg.sender].maxTime        = maxTime;       \n            providerList[msg.sender].maxTarget      = maxTarget;\n            providerList[msg.sender].minPrice       = minPrice;\n            emit SystemInfo(msg.sender,'Provider Updated');\n            assignProvider(msg.sender);\n            return true;\n        }\n    }\n\n    // Send a request from user to blockchain.\n    // Assumes price is including the cost for verification\n    function startRequest(uint64 time, uint16 target, uint64 price, bytes memory dataID) payable public returns (bool) {\n        if(requestList[msg.sender].blockNumber == 0){\n            //register on List\n            requestList[msg.sender].reqID         = requestCount;\n            requestList[msg.sender].blockNumber   = block.number;  \n            requestList[msg.sender].provider      = address(0);      \n            requestList[msg.sender].time          = time;    \n            requestList[msg.sender].target        = target;\n            requestList[msg.sender].price         = price;\n            requestList[msg.sender].dataID        = dataID;\n            requestList[msg.sender].numValidations = 1;\n            requestList[msg.sender].status = '0' ;     //pending 0x30, not 0\n            pendingPool.push(msg.sender);\n            emit SystemInfo (msg.sender, \"Request Added\");\n            \n            requestCount++;     \n            assignRequest(msg.sender);\n            return true;\n        } else {\n            if(requestList[msg.sender].status == '0' ){                   //can only update pending request\n                requestList[msg.sender].blockNumber    = block.number;         \n                requestList[msg.sender].time        = time;       \n                requestList[msg.sender].target      = target;\n                requestList[msg.sender].price       = price;\n                requestList[msg.sender].dataID      = dataID;\n                emit SystemInfo(msg.sender, 'Request Updated');\n                return true;\n            }\n        }\n    }\n    function stopRequest() public returns (bool){\n        if (requestList[msg.sender].status == '0'){                   //can only cancel owned pending request             \n            delete requestList[msg.sender];                           //delete from List             \n            emit SystemInfo(msg.sender, 'Request Stopped');\n            return ArrayPop(pendingPool, msg.sender);                 //delete from Pool   \n        }\n    }\n    function updateRequest(uint64 time, uint16 target, uint64 price, bytes memory dataID) payable public returns (bool) {      \n        if(requestList[msg.sender].status == '0' ){                   //can only update pending request\n            requestList[msg.sender].blockNumber    = block.number;         \n            requestList[msg.sender].time        = time;       \n            requestList[msg.sender].target      = target;\n            requestList[msg.sender].price       = price;\n            requestList[msg.sender].dataID      = dataID;\n            emit SystemInfo(msg.sender, 'Request Updated');\n            return true;\n        }\n    }\n\n    // Search in the requestPool, find a job for current provider. Triggered by startProviding\n    // Return true if a match or false if not.\n    // Returns: 0: successfully assigned\n    //          1: searched all providers but find no match\n    //          2: no available provider right now\n    //          3: failure during poping pool\n    function assignProvider(address payable provAddr) private returns (byte){\n        if(pendingPool.length == 0) return '2';\n        else {\n            //search throught the requestPool\n            for (uint64 i = 0; i < pendingPool.length; i++){\n                //save the re-usable reqID , may save gas\n                address payable reqAddr = pendingPool[i];    \n                if( requestList[reqAddr].time     <= providerList[provAddr].maxTime &&\n                    requestList[reqAddr].target   <= providerList[provAddr].maxTarget &&\n                    requestList[reqAddr].price    >= providerList[provAddr].minPrice){\n                        //meet the requirement, assign the task\n                        //update provider\n                        providerList[provAddr].available = false;\n                        ArrayPop(providerPool, provAddr);\n\n                        //update request\n                        requestList[reqAddr].provider = provAddr;\n                        requestList[reqAddr].status = '1';    //providing\n                        ArrayPop(pendingPool, reqAddr);\n\n                        //update balanceList            addr here is requester's\n                        balanceList[reqAddr] += requestList[reqAddr].price; \n\n                        providingPool.push(reqAddr);                       \n                        //status move from pending to providing\n                        emit PairingInfo(reqAddr, provAddr, \"Request Assigned\");\n                        return '0';                   \n                }                \n            }\n            //after for loop and no match\n            return '1';\n        }\n    }\n\n    // Assigning one task to one of the available providers. Only called from requestTask (private)\n    // Search in the providerPool, if no match in the end, return false\n    //could only assign one task at a time\n    //auto sel the first searching result for now, no comparation between multiple availability.\n    //TODO: need ot add preference next patch\n    // Returns: 0: successfully assigned\n    //          1: searched all providers but find no match\n    //          2: no available provider right now\n    //          3: failure during poping pool\n    function assignRequest(address payable reqAddr) private returns (byte) {\n        //provider availability is checked in pool not in list\n        if (providerPool.length == 0)   return '2';\n        else {            //if any provider in pool\n            for (uint64 i = 0; i < providerPool.length; i++) {\n                // save the provider's addr, reusable and save gas cost\n                address payable provAddr  = providerPool[i];\n                if(provAddr != address(0) && providerList[provAddr].available == true){\n                    // Check if request conditions meet the providers requirements\n                    if (requestList[reqAddr].target <= providerList[provAddr].maxTarget && \n                        requestList[reqAddr].time <= providerList[provAddr].maxTime && \n                        requestList[reqAddr].price >= providerList[provAddr].minPrice) {\n                        \n                        //update provider:\n                        providerList[provAddr].available = false;\n                        ArrayPop(providerPool, provAddr);\n\n                        //update request\n                        requestList[reqAddr].provider = provAddr;\n                        requestList[reqAddr].status = '1';    //providing\n                        ArrayPop(pendingPool, reqAddr);\n\n                        //update balanceList              \n                        balanceList[reqAddr] += requestList[reqAddr].price; \n\n                        providingPool.push(reqAddr);\n                        emit PairingInfo(reqAddr, provAddr, \"Request Assigned\"); // Let provider listen for this event to see he was selected\n                        return '0';\n                    }\n                }\n            }\n            // No provider was found matching the criteria -- request failed\n            //requestList[reqID].addr.transfer(requestList[reqID].price); // Returns the ether to the sender\n            return '1';\n        }\n    }\n\n    // Provider will call this when they are done and the data is available.\n    // This will invoke the validation stage but only when the request got enough validators\n    // that req could be moved from pool and marked,\n    // Or that req stays providing\n    function completeRequest(address payable reqAddr, bytes memory resultID) public returns (bool) {\n        // Confirm msg.sender is actually the provider of the task he claims\n        if (msg.sender == requestList[reqAddr].provider) {\n            //change request obj\n            requestList[reqAddr].status = '2';    //validating\n            requestList[reqAddr].resultID = resultID;\n            //move from providing pool to validating Pool.\n            ArrayPop(providingPool, reqAddr);\n            validatingPool.push(reqAddr);\n            //release provider (not necessarily depend on provider)\n            //providerList[providerID[msg.sender]].available = true;\n            emit SystemInfo(reqAddr, 'Request Computation Completed');\n            //start validation process\n            return validateRequest(reqAddr);\n        }\n        else {\n            return false;\n        }\n    }\n\n    // Called by assignRequest before finalizing stuff. Contract checks with validators\n    // Returns false if there wasnt enough free providers to send out the required number of validation requests\n    // need validation from 1/10 of nodes -- could change\n    function validateRequest(address payable reqAddr) public returns (bool) {\n        uint64 numValidatorsNeeded = requestList[reqAddr].numValidations; \n        //uint numValidators = providerCount / 10; \n        uint64 validatorsFound = 0;\n        //select # of available provider from the pool and force em to do the validation\n        for (uint64 i = 0; i < providerPool.length; i++) {\n            //get provider ID\n            address payable provID = providerPool[i];\n            if(provID != requestList[reqAddr].provider){   //validator and computer cannot be same\n                //EVENT: informs validator that they were selected and need to validate\n                emit PairingInfo(reqAddr, provID, 'Validation Assigned to Provider');\n                validatorsFound++;\n                //remove the providers availablity and pop from pool\n                providerList[provID].available = false;\n                ArrayPop(providerPool, provID);\n            } else continue;\n            //check whether got enough validator\n            if(validatorsFound < numValidatorsNeeded){\n                continue;\n            }\n            else{       //enough validator\n                emit SystemInfo(reqAddr, 'Enough Validators');\n                return true;\n                break;\n            }\n            //loop until certain # of validators selected\n        }   \n        //exit loop without enough validators    \n        emit SystemInfo(reqAddr, 'Not Enough Validators');\n    }\n\n    // needs to be more secure by ensuring the submission is coming from someone legit \n    // similar to completeTask but this will sign the validation list of the target Task\n    //TODO: the money part is ommited for now\n    function submitValidation(address payable reqAddr, bool result) public returns (bool) {\n        // Pay the validator \n        // uint partialPayment = requestList[reqID].price / 100; // amount each validator is paid\n        // msg.sender.transfer(partialPayment);\n        // balanceList[requestList[reqID].addr] -= partialPayment;\n        if(msg.sender != requestList[reqAddr].provider) {     //validator cannot be provider\n            requestList[reqAddr].validators.push(msg.sender);     //push array\n            requestList[reqAddr].signatures.push(result);     //edit mapping\n        }\n        //emit ValidationInfo(reqID, provID, 'Validator Signed');\n        //check if valid\n        \n        emit PairingInfo(reqAddr, msg.sender, 'Validator Signed');\n       \n        // If enough validations have been submitted\n        if (requestList[reqAddr].validators.length == requestList[reqAddr].numValidations) {\n            //return checkValidation(reqID, requestList[reqID].price - requestList[reqID].numValidationsNeeded * partialPayment);\n            //checkValidation(reqID);\n        }\n    }\n    \n    function checkValidation(address payable reqAddr) public returns (bool) {\n        // Add up successful validations\n        bool flag = false;\n        uint64 successCount = 0;\n        for (uint64 i=0; i<requestList[reqAddr].validators.length; i++) {\n            if (requestList[reqAddr].signatures[i] == true) successCount++;\n        }\n        // if 2/3 of validation attempts were successful\n        // TODO: determine the fraction\n        if (successCount  >= requestList[reqAddr].numValidations) { \n            // if 2/3 of validations were valid then provider gets remainder of money\n            //requestList[reqID].provider.transfer(payment); \n            //balanceList[requestList[reqID].addr] -= payment;\n            //TODO: [important] leave out the payment part for now.\n            requestList[reqAddr].isValid = true; // Task was successfully completed! \n            flag = true;\n        }\n        // otherwise, work was invalid, the providers payment goes back to requester\n        else {\n            //requestList[reqID].addr.transfer(payment);\n            //balanceList[requestList[reqID].addr] -= payment;\n        }\n        // EVENT: task is done whether successful or not\n        //emit TaskCompleted(requestList[reqID].addr, reqID);\n        emit SystemInfo(reqAddr, 'Validation Complete');\n        //popout from pool\n        flag = flag && ArrayPop(validatingPool, reqAddr);\n\n        return flag;\n    }\n\n/////////////////////////////////////////////////////////////////////\n    // Used to dynamically remove elements from array of open provider spaces. \n    // Using a swap and delete method, search for the desired addr throughout the whole array\n    // delete the desired and swap the whole with last element\n    function ArrayPop(address payable [] storage array, address payable target) private returns (bool) {\n        for(uint64 i = 0; i < array.length; i++){\n            if (array[i] == target) {\n                //swap last element with hole\n                array[i] = array[array.length-1];\n                //delete last item\n                delete array[array.length-1];\n                //decrease size\n                array.length -= 1;\n                return true;\n            }\n        }\n        return false;   //fail to search: no matching in pool\n    }\n    /////////////////////////////////////////////////////////////////////////////////\n    //some helpers defined here\n\n    function getProvider(address payable ID) public view returns(Provider memory){\n        return providerList[ID];\n    }\n    function getRequest(address payable ID) public view returns (Request memory){\n\t    return requestList[ID];\n    }\n    function getProviderCount() public view returns (uint256){\n        return providerCount;\n    }\n    function getRequestCount() public view returns (uint256){\n        return requestCount;\n    }\n\n    function getProviderPool() public view returns (address payable [] memory){\n        return providerPool;\n    }\n    function getPendingPool() public view returns (address payable [] memory){\n        return pendingPool;\n    }\n    function getValidatingPool() public view returns (address payable [] memory){\n        return validatingPool;\n    }\n    function getProvidingPool() public view returns (address payable [] memory){\n        return providingPool;\n    }\n\n    function getProviderPoolSize() public view returns (uint256){\n        return providerPool.length;\n    }\n    function getRequestPoolSize() public view returns (uint256){\n        return pendingPool.length;\n    }\n\n\n    //function getBalance(address addr) public view returns (uint256){\n    //    return balanceList[addr];\n    //}\n    function listRequests(address payable[] memory IDList) public view returns(Request[50] memory){\n\t    Request[50] memory allRequest;\n\t    for (uint64 i = 0; i < IDList.length; i++){\n\t\t    allRequest[i] = getRequest(IDList[i]);\n\t    }\n\t    return allRequest;\n    }\n    function listProviders(address payable[] memory IDList) public view returns(Provider[50] memory){\n        Provider[50] memory allProvider;\n        //address addr;\n        for (uint64 i = 0; i < IDList.length;i++){\n            allProvider[i] = getProvider(IDList[i]);\n        }\n        return allProvider;\n    }\n/*    function listAllRequests() public view returns(Request[50] memory){\n\t    Request[50] memory allRequest;\n\t    for (uint64 i = 0; i < requestCount; i++){\n\t\t    allRequest[i] = getRequest(i);\n\t    }\n\t    return allRequest;\n    }\n    function listAllProviders() public view returns(Provider[50] memory){\n\t    Provider[50] memory allProvider;\n\t    for (uint64 i = 0; i < providerCount; i++){\n\t\t    allProvider[i] = getProvider(i);\n\t    }\n\t    return allProvider;\n    }\n*/\n\n}\n",
  "sourcePath": "/home/taurus/blockchain/gitLab/bcai_v2.0/contracts/bcai_2.0.sol",
  "compiler": {
    "name": "solc",
    "version": "0.5.0+commit.1d4f565a.Emscripten.clang"
  },
  "schemaVersion": "3.0.0-beta.2",
  "updatedAt": "2018-12-20T23:18:16.104Z",
  "devdoc": {
    "methods": {}
  },
  "userdoc": {
    "methods": {
      "getProvider(address)": {
        "notice": "//////////////////////////////////////////////////////////////////////////////"
      },
      "startProviding(uint64,uint16,uint64)": {
        "notice": "//////////////////////////////////////////////////////////////////////////////////"
      }
    }
  }
}