{
  "contractName": "TaskContract",
  "abi": [
    {
      "constant": true,
      "inputs": [
        {
          "name": "",
          "type": "address"
        }
      ],
      "name": "requestList",
      "outputs": [
        {
          "name": "reqID",
          "type": "uint256"
        },
        {
          "name": "blockNumber",
          "type": "uint256"
        },
        {
          "name": "provider",
          "type": "address"
        },
        {
          "name": "time",
          "type": "uint64"
        },
        {
          "name": "target",
          "type": "uint16"
        },
        {
          "name": "price",
          "type": "uint256"
        },
        {
          "name": "dataID",
          "type": "bytes"
        },
        {
          "name": "resultID",
          "type": "bytes"
        },
        {
          "name": "numValidations",
          "type": "uint64"
        },
        {
          "name": "isValid",
          "type": "bool"
        },
        {
          "name": "status",
          "type": "bytes1"
        }
      ],
      "payable": false,
      "stateMutability": "view",
      "type": "function"
    },
    {
      "constant": true,
      "inputs": [
        {
          "name": "",
          "type": "address"
        }
      ],
      "name": "providerList",
      "outputs": [
        {
          "name": "provID",
          "type": "uint256"
        },
        {
          "name": "blockNumber",
          "type": "uint256"
        },
        {
          "name": "maxTime",
          "type": "uint64"
        },
        {
          "name": "maxTarget",
          "type": "uint16"
        },
        {
          "name": "minPrice",
          "type": "uint256"
        },
        {
          "name": "available",
          "type": "bool"
        }
      ],
      "payable": false,
      "stateMutability": "view",
      "type": "function"
    },
    {
      "constant": true,
      "inputs": [
        {
          "name": "",
          "type": "address"
        }
      ],
      "name": "balanceList",
      "outputs": [
        {
          "name": "",
          "type": "uint256"
        }
      ],
      "payable": false,
      "stateMutability": "view",
      "type": "function"
    },
    {
      "inputs": [],
      "payable": false,
      "stateMutability": "nonpayable",
      "type": "constructor"
    },
    {
      "anonymous": false,
      "inputs": [
        {
          "indexed": false,
          "name": "reqAddr",
          "type": "address"
        },
        {
          "indexed": false,
          "name": "info",
          "type": "bytes"
        },
        {
          "indexed": false,
          "name": "extra",
          "type": "bytes"
        }
      ],
      "name": "IPFSInfo",
      "type": "event"
    },
    {
      "anonymous": false,
      "inputs": [
        {
          "indexed": false,
          "name": "reqAddr",
          "type": "address"
        },
        {
          "indexed": false,
          "name": "info",
          "type": "bytes"
        }
      ],
      "name": "SystemInfo",
      "type": "event"
    },
    {
      "anonymous": false,
      "inputs": [
        {
          "indexed": false,
          "name": "reqAddr",
          "type": "address"
        },
        {
          "indexed": false,
          "name": "provAddr",
          "type": "address"
        },
        {
          "indexed": false,
          "name": "info",
          "type": "bytes"
        }
      ],
      "name": "PairingInfo",
      "type": "event"
    },
    {
      "anonymous": false,
      "inputs": [
        {
          "indexed": false,
          "name": "reqAddr",
          "type": "address"
        },
        {
          "indexed": false,
          "name": "provAddr",
          "type": "address"
        },
        {
          "indexed": false,
          "name": "info",
          "type": "bytes"
        },
        {
          "indexed": false,
          "name": "extra",
          "type": "bytes"
        }
      ],
      "name": "PairingInfoLong",
      "type": "event"
    },
    {
      "constant": false,
      "inputs": [
        {
          "name": "maxTime",
          "type": "uint64"
        },
        {
          "name": "maxTarget",
          "type": "uint16"
        },
        {
          "name": "minPrice",
          "type": "uint64"
        }
      ],
      "name": "startProviding",
      "outputs": [
        {
          "name": "",
          "type": "bool"
        }
      ],
      "payable": false,
      "stateMutability": "nonpayable",
      "type": "function"
    },
    {
      "constant": false,
      "inputs": [],
      "name": "stopProviding",
      "outputs": [
        {
          "name": "",
          "type": "bool"
        }
      ],
      "payable": false,
      "stateMutability": "nonpayable",
      "type": "function"
    },
    {
      "constant": false,
      "inputs": [
        {
          "name": "maxTime",
          "type": "uint64"
        },
        {
          "name": "maxTarget",
          "type": "uint16"
        },
        {
          "name": "minPrice",
          "type": "uint64"
        }
      ],
      "name": "updateProvider",
      "outputs": [
        {
          "name": "",
          "type": "bool"
        }
      ],
      "payable": false,
      "stateMutability": "nonpayable",
      "type": "function"
    },
    {
      "constant": false,
      "inputs": [
        {
          "name": "time",
          "type": "uint64"
        },
        {
          "name": "target",
          "type": "uint16"
        },
        {
          "name": "price",
          "type": "uint64"
        },
        {
          "name": "dataID",
          "type": "bytes"
        }
      ],
      "name": "startRequest",
      "outputs": [
        {
          "name": "",
          "type": "bool"
        }
      ],
      "payable": true,
      "stateMutability": "payable",
      "type": "function"
    },
    {
      "constant": false,
      "inputs": [],
      "name": "stopRequest",
      "outputs": [
        {
          "name": "",
          "type": "bool"
        }
      ],
      "payable": false,
      "stateMutability": "nonpayable",
      "type": "function"
    },
    {
      "constant": false,
      "inputs": [
        {
          "name": "time",
          "type": "uint64"
        },
        {
          "name": "target",
          "type": "uint16"
        },
        {
          "name": "price",
          "type": "uint64"
        },
        {
          "name": "dataID",
          "type": "bytes"
        }
      ],
      "name": "updateRequest",
      "outputs": [
        {
          "name": "",
          "type": "bool"
        }
      ],
      "payable": true,
      "stateMutability": "payable",
      "type": "function"
    },
    {
      "constant": false,
      "inputs": [
        {
          "name": "reqAddr",
          "type": "address"
        },
        {
          "name": "resultID",
          "type": "bytes"
        }
      ],
      "name": "completeRequest",
      "outputs": [
        {
          "name": "",
          "type": "bool"
        }
      ],
      "payable": false,
      "stateMutability": "nonpayable",
      "type": "function"
    },
    {
      "constant": false,
      "inputs": [
        {
          "name": "reqAddr",
          "type": "address"
        },
        {
          "name": "result",
          "type": "bool"
        }
      ],
      "name": "submitValidation",
      "outputs": [
        {
          "name": "",
          "type": "bool"
        }
      ],
      "payable": false,
      "stateMutability": "nonpayable",
      "type": "function"
    },
    {
      "constant": true,
      "inputs": [
        {
          "name": "ID",
          "type": "address"
        }
      ],
      "name": "getProvider",
      "outputs": [
        {
          "components": [
            {
              "name": "provID",
              "type": "uint256"
            },
            {
              "name": "blockNumber",
              "type": "uint256"
            },
            {
              "name": "maxTime",
              "type": "uint64"
            },
            {
              "name": "maxTarget",
              "type": "uint16"
            },
            {
              "name": "minPrice",
              "type": "uint256"
            },
            {
              "name": "available",
              "type": "bool"
            }
          ],
          "name": "",
          "type": "tuple"
        }
      ],
      "payable": false,
      "stateMutability": "view",
      "type": "function"
    },
    {
      "constant": true,
      "inputs": [
        {
          "name": "ID",
          "type": "address"
        }
      ],
      "name": "getRequest",
      "outputs": [
        {
          "components": [
            {
              "name": "reqID",
              "type": "uint256"
            },
            {
              "name": "blockNumber",
              "type": "uint256"
            },
            {
              "name": "provider",
              "type": "address"
            },
            {
              "name": "time",
              "type": "uint64"
            },
            {
              "name": "target",
              "type": "uint16"
            },
            {
              "name": "price",
              "type": "uint256"
            },
            {
              "name": "dataID",
              "type": "bytes"
            },
            {
              "name": "resultID",
              "type": "bytes"
            },
            {
              "name": "numValidations",
              "type": "uint64"
            },
            {
              "name": "validators",
              "type": "address[]"
            },
            {
              "name": "signatures",
              "type": "bool[]"
            },
            {
              "name": "isValid",
              "type": "bool"
            },
            {
              "name": "status",
              "type": "bytes1"
            }
          ],
          "name": "",
          "type": "tuple"
        }
      ],
      "payable": false,
      "stateMutability": "view",
      "type": "function"
    },
    {
      "constant": true,
      "inputs": [],
      "name": "getProviderCount",
      "outputs": [
        {
          "name": "",
          "type": "uint256"
        }
      ],
      "payable": false,
      "stateMutability": "view",
      "type": "function"
    },
    {
      "constant": true,
      "inputs": [],
      "name": "getRequestCount",
      "outputs": [
        {
          "name": "",
          "type": "uint256"
        }
      ],
      "payable": false,
      "stateMutability": "view",
      "type": "function"
    },
    {
      "constant": true,
      "inputs": [],
      "name": "getProviderPool",
      "outputs": [
        {
          "name": "",
          "type": "address[]"
        }
      ],
      "payable": false,
      "stateMutability": "view",
      "type": "function"
    },
    {
      "constant": true,
      "inputs": [],
      "name": "getPendingPool",
      "outputs": [
        {
          "name": "",
          "type": "address[]"
        }
      ],
      "payable": false,
      "stateMutability": "view",
      "type": "function"
    },
    {
      "constant": true,
      "inputs": [],
      "name": "getValidatingPool",
      "outputs": [
        {
          "name": "",
          "type": "address[]"
        }
      ],
      "payable": false,
      "stateMutability": "view",
      "type": "function"
    },
    {
      "constant": true,
      "inputs": [],
      "name": "getProvidingPool",
      "outputs": [
        {
          "name": "",
          "type": "address[]"
        }
      ],
      "payable": false,
      "stateMutability": "view",
      "type": "function"
    },
    {
      "constant": true,
      "inputs": [],
      "name": "getProviderPoolSize",
      "outputs": [
        {
          "name": "",
          "type": "uint256"
        }
      ],
      "payable": false,
      "stateMutability": "view",
      "type": "function"
    },
    {
      "constant": true,
      "inputs": [],
      "name": "getRequestPoolSize",
      "outputs": [
        {
          "name": "",
          "type": "uint256"
        }
      ],
      "payable": false,
      "stateMutability": "view",
      "type": "function"
    },
    {
      "constant": true,
      "inputs": [
        {
          "name": "IDList",
          "type": "address[]"
        }
      ],
      "name": "listRequests",
      "outputs": [
        {
          "components": [
            {
              "name": "reqID",
              "type": "uint256"
            },
            {
              "name": "blockNumber",
              "type": "uint256"
            },
            {
              "name": "provider",
              "type": "address"
            },
            {
              "name": "time",
              "type": "uint64"
            },
            {
              "name": "target",
              "type": "uint16"
            },
            {
              "name": "price",
              "type": "uint256"
            },
            {
              "name": "dataID",
              "type": "bytes"
            },
            {
              "name": "resultID",
              "type": "bytes"
            },
            {
              "name": "numValidations",
              "type": "uint64"
            },
            {
              "name": "validators",
              "type": "address[]"
            },
            {
              "name": "signatures",
              "type": "bool[]"
            },
            {
              "name": "isValid",
              "type": "bool"
            },
            {
              "name": "status",
              "type": "bytes1"
            }
          ],
          "name": "",
          "type": "tuple[50]"
        }
      ],
      "payable": false,
      "stateMutability": "view",
      "type": "function"
    },
    {
      "constant": true,
      "inputs": [
        {
          "name": "IDList",
          "type": "address[]"
        }
      ],
      "name": "listProviders",
      "outputs": [
        {
          "components": [
            {
              "name": "provID",
              "type": "uint256"
            },
            {
              "name": "blockNumber",
              "type": "uint256"
            },
            {
              "name": "maxTime",
              "type": "uint64"
            },
            {
              "name": "maxTarget",
              "type": "uint16"
            },
            {
              "name": "minPrice",
              "type": "uint256"
            },
            {
              "name": "available",
              "type": "bool"
            }
          ],
          "name": "",
          "type": "tuple[50]"
        }
      ],
      "payable": false,
      "stateMutability": "view",
      "type": "function"
    }
  ],
  "bytecode": "0x608060405234801561001057600080fd5b5060006003819055506000600481905550615fcf80620000316000396000f3fe6080604052600436106101405760003560e01c8063353b2a1f116100b65780636ca43b8d1161006f5780636ca43b8d146104d65780639e723b9714610513578063a9ecaae71461053e578063b277493414610569578063c052c4db14610594578063dafcc3b2146105d157610140565b8063353b2a1f146103b05780633fad1834146103db57806346ce41751461040657806355f21eb7146104315780635c4c8c4e1461046e57806363c1dff71461049957610140565b8063189258de11610108578063189258de146102665780631f1dab45146102a35780632d3272d3146102ce5780632ddfdbcc1461030b57806332c5200d146103485780633432d0f51461037357610140565b8063040d2762146101455780630708799e1461017057806308931765146101b75780630b6dbd5f146101f45780630e1e4a3c14610224575b600080fd5b34801561015157600080fd5b5061015a610601565b6040516101679190615ad3565b60405180910390f35b34801561017c57600080fd5b5061019760048036036101929190810190614923565b610858565b6040516101ae9b9a99989796959493929190615b46565b60405180910390f35b3480156101c357600080fd5b506101de60048036036101d99190810190614a46565b610a52565b6040516101eb9190615ad3565b60405180910390f35b61020e60048036036102099190810190614a95565b610c96565b60405161021b9190615ad3565b60405180910390f35b34801561023057600080fd5b5061024b60048036036102469190810190614923565b611122565b60405161025d96959493929190615bff565b60405180910390f35b34801561027257600080fd5b5061028d60048036036102889190810190614923565b61118d565b60405161029a9190615b2b565b60405180910390f35b3480156102af57600080fd5b506102b86111a5565b6040516102c59190615a73565b60405180910390f35b3480156102da57600080fd5b506102f560048036036102f09190810190614a05565b611233565b6040516103029190615a95565b60405180910390f35b34801561031757600080fd5b50610332600480360361032d9190810190614a46565b6112b7565b60405161033f9190615ad3565b60405180910390f35b34801561035457600080fd5b5061035d611654565b60405161036a9190615a73565b60405180910390f35b34801561037f57600080fd5b5061039a60048036036103959190810190614975565b6116e2565b6040516103a79190615ad3565b60405180910390f35b3480156103bc57600080fd5b506103c5611ac3565b6040516103d29190615b2b565b60405180910390f35b3480156103e757600080fd5b506103f0611ad0565b6040516103fd9190615b2b565b60405180910390f35b34801561041257600080fd5b5061041b611ada565b6040516104289190615b2b565b60405180910390f35b34801561043d57600080fd5b506104586004803603610453919081019061494c565b611ae4565b6040516104659190615aee565b60405180910390f35b34801561047a57600080fd5b50610483611bc7565b6040516104909190615b2b565b60405180910390f35b3480156104a557600080fd5b506104c060048036036104bb919081019061494c565b611bd4565b6040516104cd9190615b09565b60405180910390f35b3480156104e257600080fd5b506104fd60048036036104f891908101906149b1565b611feb565b60405161050a9190615ad3565b60405180910390f35b34801561051f57600080fd5b5061052861231c565b6040516105359190615a73565b60405180910390f35b34801561054a57600080fd5b506105536123aa565b6040516105609190615a73565b60405180910390f35b34801561057557600080fd5b5061057e612438565b60405161058b9190615ad3565b60405180910390f35b3480156105a057600080fd5b506105bb60048036036105b69190810190614a05565b6125ba565b6040516105c89190615ab1565b60405180910390f35b6105eb60048036036105e69190810190614a95565b61263e565b6040516105f89190615ad3565b60405180910390f35b60007f3000000000000000000000000000000000000000000000000000000000000000600160003373ffffffffffffffffffffffffffffffffffffffff1673ffffffffffffffffffffffffffffffffffffffff16815260200190815260200160002060090160019054906101000a900460f81b7effffffffffffffffffffffffffffffffffffffffffffffffffffffffffffff1916141561081957600160003373ffffffffffffffffffffffffffffffffffffffff1673ffffffffffffffffffffffffffffffffffffffff16815260200190815260200160002060008082016000905560018201600090556002820160006101000a81549073ffffffffffffffffffffffffffffffffffffffff02191690556002820160146101000a81549067ffffffffffffffff021916905560028201601c6101000a81549061ffff0219169055600382016000905560048201600061075b9190614425565b60058201600061076b9190614425565b6006820160006101000a81549067ffffffffffffffff0219169055600782016000610796919061446d565b6008820160006107a6919061448e565b6009820160006101000a81549060ff02191690556009820160016101000a81549060ff021916905550507fa332e7b06782060530f8d1575fcf83b5e831fe3dd09c85e53b0351a7c38ceeac336040516107ff9190615896565b60405180910390a1610812600633612912565b9050610855565b7fa332e7b06782060530f8d1575fcf83b5e831fe3dd09c85e53b0351a7c38ceeac3360405161084891906158c4565b60405180910390a1600090505b90565b60016020528060005260406000206000915090508060000154908060010154908060020160009054906101000a900473ffffffffffffffffffffffffffffffffffffffff16908060020160149054906101000a900467ffffffffffffffff169080600201601c9054906101000a900461ffff1690806003015490806004018054600181600116156101000203166002900480601f01602080910402602001604051908101604052809291908181526020018280546001816001161561010002031660029004801561096a5780601f1061093f5761010080835404028352916020019161096a565b820191906000526020600020905b81548152906001019060200180831161094d57829003601f168201915b505050505090806005018054600181600116156101000203166002900480601f016020809104026020016040519081016040528092919081815260200182805460018160011615610100020316600290048015610a085780601f106109dd57610100808354040283529160200191610a08565b820191906000526020600020905b8154815290600101906020018083116109eb57829003601f168201915b5050505050908060060160009054906101000a900467ffffffffffffffff16908060090160009054906101000a900460ff16908060090160019054906101000a900460f81b90508b565b6000600115156000803373ffffffffffffffffffffffffffffffffffffffff1673ffffffffffffffffffffffffffffffffffffffff16815260200190815260200160002060040160009054906101000a900460ff1615151415610c5357436000803373ffffffffffffffffffffffffffffffffffffffff1673ffffffffffffffffffffffffffffffffffffffff16815260200190815260200160002060010181905550836000803373ffffffffffffffffffffffffffffffffffffffff1673ffffffffffffffffffffffffffffffffffffffff16815260200190815260200160002060020160006101000a81548167ffffffffffffffff021916908367ffffffffffffffff160217905550826000803373ffffffffffffffffffffffffffffffffffffffff1673ffffffffffffffffffffffffffffffffffffffff16815260200190815260200160002060020160086101000a81548161ffff021916908361ffff1602179055508167ffffffffffffffff166000803373ffffffffffffffffffffffffffffffffffffffff1673ffffffffffffffffffffffffffffffffffffffff168152602001908152602001600020600301819055507fa332e7b06782060530f8d1575fcf83b5e831fe3dd09c85e53b0351a7c38ceeac33604051610c38919061583a565b60405180910390a1610c4933612abb565b5060019050610c8f565b7fa332e7b06782060530f8d1575fcf83b5e831fe3dd09c85e53b0351a7c38ceeac33604051610c8291906157b0565b60405180910390a1600090505b9392505050565b600080600160003373ffffffffffffffffffffffffffffffffffffffff1673ffffffffffffffffffffffffffffffffffffffff16815260200190815260200160002060010154141561110b57600454600160003373ffffffffffffffffffffffffffffffffffffffff1673ffffffffffffffffffffffffffffffffffffffff1681526020019081526020016000206000018190555043600160003373ffffffffffffffffffffffffffffffffffffffff1673ffffffffffffffffffffffffffffffffffffffff168152602001908152602001600020600101819055506000600160003373ffffffffffffffffffffffffffffffffffffffff1673ffffffffffffffffffffffffffffffffffffffff16815260200190815260200160002060020160006101000a81548173ffffffffffffffffffffffffffffffffffffffff021916908373ffffffffffffffffffffffffffffffffffffffff16021790555084600160003373ffffffffffffffffffffffffffffffffffffffff1673ffffffffffffffffffffffffffffffffffffffff16815260200190815260200160002060020160146101000a81548167ffffffffffffffff021916908367ffffffffffffffff16021790555083600160003373ffffffffffffffffffffffffffffffffffffffff1673ffffffffffffffffffffffffffffffffffffffff168152602001908152602001600020600201601c6101000a81548161ffff021916908361ffff1602179055508267ffffffffffffffff16600160003373ffffffffffffffffffffffffffffffffffffffff1673ffffffffffffffffffffffffffffffffffffffff1681526020019081526020016000206003018190555081600160003373ffffffffffffffffffffffffffffffffffffffff1673ffffffffffffffffffffffffffffffffffffffff1681526020019081526020016000206004019080519060200190610f619291906144b6565b506003600160003373ffffffffffffffffffffffffffffffffffffffff1673ffffffffffffffffffffffffffffffffffffffff16815260200190815260200160002060060160006101000a81548167ffffffffffffffff021916908367ffffffffffffffff1602179055507f3000000000000000000000000000000000000000000000000000000000000000600160003373ffffffffffffffffffffffffffffffffffffffff1673ffffffffffffffffffffffffffffffffffffffff16815260200190815260200160002060090160016101000a81548160ff021916908360f81c021790555060063390806001815401808255809150509060018203906000526020600020016000909192909190916101000a81548173ffffffffffffffffffffffffffffffffffffffff021916908373ffffffffffffffffffffffffffffffffffffffff160217905550507fecb395b2a2ceb57177a24a711e761771826a6a5c10c88fcba80bceca4a92e44633836040516110de929190615a30565b60405180910390a160046000815480929190600101919050555061110133613176565b506001905061111a565b6111178585858561263e565b90505b949350505050565b60006020528060005260406000206000915090508060000154908060010154908060020160009054906101000a900467ffffffffffffffff16908060020160089054906101000a900461ffff16908060030154908060040160009054906101000a900460ff16905086565b60026020528060005260406000206000915090505481565b6060600780548060200260200160405190810160405280929190818152602001828054801561122957602002820191906000526020600020905b8160009054906101000a900473ffffffffffffffffffffffffffffffffffffffff1673ffffffffffffffffffffffffffffffffffffffff16815260200190600101908083116111df575b5050505050905090565b61123b614536565b611243614536565b60008090505b83518167ffffffffffffffff1610156112ad57611282848267ffffffffffffffff168151811061127557fe5b6020026020010151611ae4565b828267ffffffffffffffff166032811061129857fe5b60200201819052508080600101915050611249565b5080915050919050565b6000806000803373ffffffffffffffffffffffffffffffffffffffff1673ffffffffffffffffffffffffffffffffffffffff16815260200190815260200160002060010154141561163f576003546000803373ffffffffffffffffffffffffffffffffffffffff1673ffffffffffffffffffffffffffffffffffffffff16815260200190815260200160002060000181905550436000803373ffffffffffffffffffffffffffffffffffffffff1673ffffffffffffffffffffffffffffffffffffffff16815260200190815260200160002060010181905550836000803373ffffffffffffffffffffffffffffffffffffffff1673ffffffffffffffffffffffffffffffffffffffff16815260200190815260200160002060020160006101000a81548167ffffffffffffffff021916908367ffffffffffffffff160217905550836000803373ffffffffffffffffffffffffffffffffffffffff1673ffffffffffffffffffffffffffffffffffffffff16815260200190815260200160002060020160006101000a81548167ffffffffffffffff021916908367ffffffffffffffff160217905550826000803373ffffffffffffffffffffffffffffffffffffffff1673ffffffffffffffffffffffffffffffffffffffff16815260200190815260200160002060020160086101000a81548161ffff021916908361ffff1602179055508167ffffffffffffffff166000803373ffffffffffffffffffffffffffffffffffffffff1673ffffffffffffffffffffffffffffffffffffffff1681526020019081526020016000206003018190555060016000803373ffffffffffffffffffffffffffffffffffffffff1673ffffffffffffffffffffffffffffffffffffffff16815260200190815260200160002060040160006101000a81548160ff02191690831515021790555060053390806001815401808255809150509060018203906000526020600020016000909192909190916101000a81548173ffffffffffffffffffffffffffffffffffffffff021916908373ffffffffffffffffffffffffffffffffffffffff160217905550507fa332e7b06782060530f8d1575fcf83b5e831fe3dd09c85e53b0351a7c38ceeac336040516115fb9190615935565b60405180910390a160036000815480929190600101919050555060006008805490501461162c5761162b336137f0565b5b61163533612abb565b506001905061164d565b61164a848484610a52565b90505b9392505050565b606060088054806020026020016040519081016040528092919081815260200182805480156116d857602002820191906000526020600020905b8160009054906101000a900473ffffffffffffffffffffffffffffffffffffffff1673ffffffffffffffffffffffffffffffffffffffff168152602001906001019080831161168e575b5050505050905090565b6000600160008473ffffffffffffffffffffffffffffffffffffffff1673ffffffffffffffffffffffffffffffffffffffff16815260200190815260200160002060020160009054906101000a900473ffffffffffffffffffffffffffffffffffffffff1673ffffffffffffffffffffffffffffffffffffffff163373ffffffffffffffffffffffffffffffffffffffff1614611ab35760008090505b600160008573ffffffffffffffffffffffffffffffffffffffff1673ffffffffffffffffffffffffffffffffffffffff168152602001908152602001600020600701805490508167ffffffffffffffff161015611aa3573373ffffffffffffffffffffffffffffffffffffffff16600160008673ffffffffffffffffffffffffffffffffffffffff1673ffffffffffffffffffffffffffffffffffffffff1681526020019081526020016000206007018267ffffffffffffffff168154811061184457fe5b9060005260206000200160009054906101000a900473ffffffffffffffffffffffffffffffffffffffff1673ffffffffffffffffffffffffffffffffffffffff1614801561190c575060001515600160008673ffffffffffffffffffffffffffffffffffffffff1673ffffffffffffffffffffffffffffffffffffffff1681526020019081526020016000206008018267ffffffffffffffff16815481106118e857fe5b90600052602060002090602091828204019190069054906101000a900460ff161515145b15611a905782600160008673ffffffffffffffffffffffffffffffffffffffff1673ffffffffffffffffffffffffffffffffffffffff1681526020019081526020016000206008018267ffffffffffffffff168154811061196957fe5b90600052602060002090602091828204019190066101000a81548160ff02191690831515021790555060016000803373ffffffffffffffffffffffffffffffffffffffff1673ffffffffffffffffffffffffffffffffffffffff16815260200190815260200160002060040160006101000a81548160ff02191690831515021790555060053390806001815401808255809150509060018203906000526020600020016000909192909190916101000a81548173ffffffffffffffffffffffffffffffffffffffff021916908373ffffffffffffffffffffffffffffffffffffffff160217905550507f654163525cabcfa0ce95ecb1f232c75746c89688c42e7e2d52df90d770fc9e578433604051611a83929190615723565b60405180910390a1611a95565b611a96565b5b808060010191505061177f565b50611aad83613d30565b50611abc565b60009050611abd565b5b92915050565b6000600580549050905090565b6000600454905090565b6000600354905090565b611aec614564565b6000808373ffffffffffffffffffffffffffffffffffffffff1673ffffffffffffffffffffffffffffffffffffffff1681526020019081526020016000206040518060c001604052908160008201548152602001600182015481526020016002820160009054906101000a900467ffffffffffffffff1667ffffffffffffffff1667ffffffffffffffff1681526020016002820160089054906101000a900461ffff1661ffff1661ffff168152602001600382015481526020016004820160009054906101000a900460ff1615151515815250509050919050565b6000600680549050905090565b611bdc6145aa565b600160008373ffffffffffffffffffffffffffffffffffffffff1673ffffffffffffffffffffffffffffffffffffffff168152602001908152602001600020604051806101a001604052908160008201548152602001600182015481526020016002820160009054906101000a900473ffffffffffffffffffffffffffffffffffffffff1673ffffffffffffffffffffffffffffffffffffffff1673ffffffffffffffffffffffffffffffffffffffff1681526020016002820160149054906101000a900467ffffffffffffffff1667ffffffffffffffff1667ffffffffffffffff16815260200160028201601c9054906101000a900461ffff1661ffff1661ffff16815260200160038201548152602001600482018054600181600116156101000203166002900480601f016020809104026020016040519081016040528092919081815260200182805460018160011615610100020316600290048015611d865780601f10611d5b57610100808354040283529160200191611d86565b820191906000526020600020905b815481529060010190602001808311611d6957829003601f168201915b50505050508152602001600582018054600181600116156101000203166002900480601f016020809104026020016040519081016040528092919081815260200182805460018160011615610100020316600290048015611e285780601f10611dfd57610100808354040283529160200191611e28565b820191906000526020600020905b815481529060010190602001808311611e0b57829003601f168201915b505050505081526020016006820160009054906101000a900467ffffffffffffffff1667ffffffffffffffff1667ffffffffffffffff16815260200160078201805480602002602001604051908101604052809291908181526020018280548015611ee857602002820191906000526020600020905b8160009054906101000a900473ffffffffffffffffffffffffffffffffffffffff1673ffffffffffffffffffffffffffffffffffffffff1681526020019060010190808311611e9e575b5050505050815260200160088201805480602002602001604051908101604052809291908181526020018280548015611f6557602002820191906000526020600020906000905b82829054906101000a900460ff16151581526020019060010190602082600001049283019260010382029150808411611f2f5790505b505050505081526020016009820160009054906101000a900460ff161515151581526020016009820160019054906101000a900460f81b7effffffffffffffffffffffffffffffffffffffffffffffffffffffffffffff19167effffffffffffffffffffffffffffffffffffffffffffffffffffffffffffff1916815250509050919050565b6000600160008473ffffffffffffffffffffffffffffffffffffffff1673ffffffffffffffffffffffffffffffffffffffff16815260200190815260200160002060020160009054906101000a900473ffffffffffffffffffffffffffffffffffffffff1673ffffffffffffffffffffffffffffffffffffffff163373ffffffffffffffffffffffffffffffffffffffff161415612311577f3200000000000000000000000000000000000000000000000000000000000000600160008573ffffffffffffffffffffffffffffffffffffffff1673ffffffffffffffffffffffffffffffffffffffff16815260200190815260200160002060090160016101000a81548160ff021916908360f81c021790555081600160008573ffffffffffffffffffffffffffffffffffffffff1673ffffffffffffffffffffffffffffffffffffffff16815260200190815260200160002060050190805190602001906121549291906144b6565b50612160600784612912565b5060088390806001815401808255809150509060018203906000526020600020016000909192909190916101000a81548173ffffffffffffffffffffffffffffffffffffffff021916908373ffffffffffffffffffffffffffffffffffffffff1602179055505060016000803373ffffffffffffffffffffffffffffffffffffffff1673ffffffffffffffffffffffffffffffffffffffff16815260200190815260200160002060040160006101000a81548160ff02191690831515021790555060053390806001815401808255809150509060018203906000526020600020016000909192909190916101000a81548173ffffffffffffffffffffffffffffffffffffffff021916908373ffffffffffffffffffffffffffffffffffffffff160217905550507fecb395b2a2ceb57177a24a711e761771826a6a5c10c88fcba80bceca4a92e44683600160008673ffffffffffffffffffffffffffffffffffffffff1673ffffffffffffffffffffffffffffffffffffffff1681526020019081526020016000206005016040516122f99291906158f2565b60405180910390a161230a83613f8b565b9050612316565b600090505b92915050565b606060058054806020026020016040519081016040528092919081815260200182805480156123a057602002820191906000526020600020905b8160009054906101000a900473ffffffffffffffffffffffffffffffffffffffff1673ffffffffffffffffffffffffffffffffffffffff1681526020019060010190808311612356575b5050505050905090565b6060600680548060200260200160405190810160405280929190818152602001828054801561242e57602002820191906000526020600020905b8160009054906101000a900473ffffffffffffffffffffffffffffffffffffffff1673ffffffffffffffffffffffffffffffffffffffff16815260200190600101908083116123e4575b5050505050905090565b6000600115156000803373ffffffffffffffffffffffffffffffffffffffff1673ffffffffffffffffffffffffffffffffffffffff16815260200190815260200160002060040160009054906101000a900460ff161515141561257b576000803373ffffffffffffffffffffffffffffffffffffffff1673ffffffffffffffffffffffffffffffffffffffff16815260200190815260200160002060008082016000905560018201600090556002820160006101000a81549067ffffffffffffffff02191690556002820160086101000a81549061ffff021916905560038201600090556004820160006101000a81549060ff021916905550507fa332e7b06782060530f8d1575fcf83b5e831fe3dd09c85e53b0351a7c38ceeac336040516125619190615963565b60405180910390a1612574600533612912565b90506125b7565b7fa332e7b06782060530f8d1575fcf83b5e831fe3dd09c85e53b0351a7c38ceeac336040516125aa9190615991565b60405180910390a1600090505b90565b6125c2614664565b6125ca614664565b60008090505b83518167ffffffffffffffff16101561263457612609848267ffffffffffffffff16815181106125fc57fe5b6020026020010151611bd4565b828267ffffffffffffffff166032811061261f57fe5b602002018190525080806001019150506125d0565b5080915050919050565b60007f3000000000000000000000000000000000000000000000000000000000000000600160003373ffffffffffffffffffffffffffffffffffffffff1673ffffffffffffffffffffffffffffffffffffffff16815260200190815260200160002060090160019054906101000a900460f81b7effffffffffffffffffffffffffffffffffffffffffffffffffffffffffffff191614156128ce5743600160003373ffffffffffffffffffffffffffffffffffffffff1673ffffffffffffffffffffffffffffffffffffffff1681526020019081526020016000206001018190555084600160003373ffffffffffffffffffffffffffffffffffffffff1673ffffffffffffffffffffffffffffffffffffffff16815260200190815260200160002060020160146101000a81548167ffffffffffffffff021916908367ffffffffffffffff16021790555083600160003373ffffffffffffffffffffffffffffffffffffffff1673ffffffffffffffffffffffffffffffffffffffff168152602001908152602001600020600201601c6101000a81548161ffff021916908361ffff1602179055508267ffffffffffffffff16600160003373ffffffffffffffffffffffffffffffffffffffff1673ffffffffffffffffffffffffffffffffffffffff1681526020019081526020016000206003018190555081600160003373ffffffffffffffffffffffffffffffffffffffff1673ffffffffffffffffffffffffffffffffffffffff168152602001908152602001600020600401908051906020019061288d9291906144b6565b507fa332e7b06782060530f8d1575fcf83b5e831fe3dd09c85e53b0351a7c38ceeac336040516128bd9190615868565b60405180910390a16001905061290a565b7fa332e7b06782060530f8d1575fcf83b5e831fe3dd09c85e53b0351a7c38ceeac336040516128fd91906157de565b60405180910390a1600090505b949350505050565b600080600090505b83805490508167ffffffffffffffff161015612aaf578273ffffffffffffffffffffffffffffffffffffffff16848267ffffffffffffffff168154811061295d57fe5b9060005260206000200160009054906101000a900473ffffffffffffffffffffffffffffffffffffffff1673ffffffffffffffffffffffffffffffffffffffff161415612aa257836001858054905003815481106129b757fe5b9060005260206000200160009054906101000a900473ffffffffffffffffffffffffffffffffffffffff16848267ffffffffffffffff16815481106129f857fe5b9060005260206000200160006101000a81548173ffffffffffffffffffffffffffffffffffffffff021916908373ffffffffffffffffffffffffffffffffffffffff16021790555083600185805490500381548110612a5357fe5b9060005260206000200160006101000a81549073ffffffffffffffffffffffffffffffffffffffff021916905560018481818054905003915081612a979190614692565b506001915050612ab5565b808060010191505061291a565b50600090505b92915050565b6000806006805490501415612af2577f32000000000000000000000000000000000000000000000000000000000000009050613171565b60008090505b6006805490508167ffffffffffffffff16101561314c57600060068267ffffffffffffffff1681548110612b2857fe5b9060005260206000200160009054906101000a900473ffffffffffffffffffffffffffffffffffffffff169050600073ffffffffffffffffffffffffffffffffffffffff168173ffffffffffffffffffffffffffffffffffffffff1614158015612c2357507f3100000000000000000000000000000000000000000000000000000000000000600160008373ffffffffffffffffffffffffffffffffffffffff1673ffffffffffffffffffffffffffffffffffffffff16815260200190815260200160002060090160019054906101000a900460f81b7effffffffffffffffffffffffffffffffffffffffffffffffffffffffffffff191614155b8015612cee57506000808573ffffffffffffffffffffffffffffffffffffffff1673ffffffffffffffffffffffffffffffffffffffff16815260200190815260200160002060020160009054906101000a900467ffffffffffffffff1667ffffffffffffffff16600160008373ffffffffffffffffffffffffffffffffffffffff1673ffffffffffffffffffffffffffffffffffffffff16815260200190815260200160002060020160149054906101000a900467ffffffffffffffff1667ffffffffffffffff1611155b8015612da157506000808573ffffffffffffffffffffffffffffffffffffffff1673ffffffffffffffffffffffffffffffffffffffff16815260200190815260200160002060020160089054906101000a900461ffff1661ffff16600160008373ffffffffffffffffffffffffffffffffffffffff1673ffffffffffffffffffffffffffffffffffffffff168152602001908152602001600020600201601c9054906101000a900461ffff1661ffff1611155b8015612e3057506000808573ffffffffffffffffffffffffffffffffffffffff1673ffffffffffffffffffffffffffffffffffffffff16815260200190815260200160002060030154600160008373ffffffffffffffffffffffffffffffffffffffff1673ffffffffffffffffffffffffffffffffffffffff1681526020019081526020016000206003015410155b1561313e5760008060008673ffffffffffffffffffffffffffffffffffffffff1673ffffffffffffffffffffffffffffffffffffffff16815260200190815260200160002060040160006101000a81548160ff021916908315150217905550612e9a600585612912565b5083600160008373ffffffffffffffffffffffffffffffffffffffff1673ffffffffffffffffffffffffffffffffffffffff16815260200190815260200160002060020160006101000a81548173ffffffffffffffffffffffffffffffffffffffff021916908373ffffffffffffffffffffffffffffffffffffffff1602179055507f3100000000000000000000000000000000000000000000000000000000000000600160008373ffffffffffffffffffffffffffffffffffffffff1673ffffffffffffffffffffffffffffffffffffffff16815260200190815260200160002060090160016101000a81548160ff021916908360f81c0217905550612fa2600682612912565b50600160008273ffffffffffffffffffffffffffffffffffffffff1673ffffffffffffffffffffffffffffffffffffffff16815260200190815260200160002060030154600260008373ffffffffffffffffffffffffffffffffffffffff1673ffffffffffffffffffffffffffffffffffffffff1681526020019081526020016000206000828254019250508190555060078190806001815401808255809150509060018203906000526020600020016000909192909190916101000a81548173ffffffffffffffffffffffffffffffffffffffff021916908373ffffffffffffffffffffffffffffffffffffffff160217905550507f2b88768874d596259d3041253784b3217c58817182fb311f4152008bc32b6f398185600160008573ffffffffffffffffffffffffffffffffffffffff1673ffffffffffffffffffffffffffffffffffffffff16815260200190815260200160002060040160405161310c9392919061575f565b60405180910390a17f300000000000000000000000000000000000000000000000000000000000000092505050613171565b508080600101915050612af8565b507f310000000000000000000000000000000000000000000000000000000000000090505b919050565b60008060058054905014156131ad577f320000000000000000000000000000000000000000000000000000000000000090506137eb565b60008090505b6005805490508167ffffffffffffffff1610156137c657600060058267ffffffffffffffff16815481106131e357fe5b9060005260206000200160009054906101000a900473ffffffffffffffffffffffffffffffffffffffff169050600073ffffffffffffffffffffffffffffffffffffffff168173ffffffffffffffffffffffffffffffffffffffff161415801561329f5750600115156000808373ffffffffffffffffffffffffffffffffffffffff1673ffffffffffffffffffffffffffffffffffffffff16815260200190815260200160002060040160009054906101000a900460ff161515145b156137b8576000808273ffffffffffffffffffffffffffffffffffffffff1673ffffffffffffffffffffffffffffffffffffffff16815260200190815260200160002060020160089054906101000a900461ffff1661ffff16600160008673ffffffffffffffffffffffffffffffffffffffff1673ffffffffffffffffffffffffffffffffffffffff168152602001908152602001600020600201601c9054906101000a900461ffff1661ffff161115801561341a57506000808273ffffffffffffffffffffffffffffffffffffffff1673ffffffffffffffffffffffffffffffffffffffff16815260200190815260200160002060020160009054906101000a900467ffffffffffffffff1667ffffffffffffffff16600160008673ffffffffffffffffffffffffffffffffffffffff1673ffffffffffffffffffffffffffffffffffffffff16815260200190815260200160002060020160149054906101000a900467ffffffffffffffff1667ffffffffffffffff1611155b80156134a957506000808273ffffffffffffffffffffffffffffffffffffffff1673ffffffffffffffffffffffffffffffffffffffff16815260200190815260200160002060030154600160008673ffffffffffffffffffffffffffffffffffffffff1673ffffffffffffffffffffffffffffffffffffffff1681526020019081526020016000206003015410155b156137b75760008060008373ffffffffffffffffffffffffffffffffffffffff1673ffffffffffffffffffffffffffffffffffffffff16815260200190815260200160002060040160006101000a81548160ff021916908315150217905550613513600582612912565b5080600160008673ffffffffffffffffffffffffffffffffffffffff1673ffffffffffffffffffffffffffffffffffffffff16815260200190815260200160002060020160006101000a81548173ffffffffffffffffffffffffffffffffffffffff021916908373ffffffffffffffffffffffffffffffffffffffff1602179055507f3100000000000000000000000000000000000000000000000000000000000000600160008673ffffffffffffffffffffffffffffffffffffffff1673ffffffffffffffffffffffffffffffffffffffff16815260200190815260200160002060090160016101000a81548160ff021916908360f81c021790555061361b600685612912565b50600160008573ffffffffffffffffffffffffffffffffffffffff1673ffffffffffffffffffffffffffffffffffffffff16815260200190815260200160002060030154600260008673ffffffffffffffffffffffffffffffffffffffff1673ffffffffffffffffffffffffffffffffffffffff1681526020019081526020016000206000828254019250508190555060078490806001815401808255809150509060018203906000526020600020016000909192909190916101000a81548173ffffffffffffffffffffffffffffffffffffffff021916908373ffffffffffffffffffffffffffffffffffffffff160217905550507f2b88768874d596259d3041253784b3217c58817182fb311f4152008bc32b6f398482600160008873ffffffffffffffffffffffffffffffffffffffff1673ffffffffffffffffffffffffffffffffffffffff1681526020019081526020016000206004016040516137859392919061575f565b60405180910390a17f3000000000000000000000000000000000000000000000000000000000000000925050506137eb565b5b5080806001019150506131b3565b507f310000000000000000000000000000000000000000000000000000000000000090505b919050565b60008090505b6008805490508167ffffffffffffffff161015613d2c57600060088267ffffffffffffffff168154811061382657fe5b9060005260206000200160009054906101000a900473ffffffffffffffffffffffffffffffffffffffff169050600160008273ffffffffffffffffffffffffffffffffffffffff1673ffffffffffffffffffffffffffffffffffffffff16815260200190815260200160002060070180549050600160008373ffffffffffffffffffffffffffffffffffffffff1673ffffffffffffffffffffffffffffffffffffffff16815260200190815260200160002060060160009054906101000a900467ffffffffffffffff1667ffffffffffffffff161115613d1757600160008273ffffffffffffffffffffffffffffffffffffffff1673ffffffffffffffffffffffffffffffffffffffff16815260200190815260200160002060020160009054906101000a900473ffffffffffffffffffffffffffffffffffffffff1673ffffffffffffffffffffffffffffffffffffffff168373ffffffffffffffffffffffffffffffffffffffff1614613d12577f2b88768874d596259d3041253784b3217c58817182fb311f4152008bc32b6f398184600160008573ffffffffffffffffffffffffffffffffffffffff1673ffffffffffffffffffffffffffffffffffffffff168152602001908152602001600020600501604051613a09939291906156d2565b60405180910390a1600160008273ffffffffffffffffffffffffffffffffffffffff1673ffffffffffffffffffffffffffffffffffffffff1681526020019081526020016000206007018390806001815401808255809150509060018203906000526020600020016000909192909190916101000a81548173ffffffffffffffffffffffffffffffffffffffff021916908373ffffffffffffffffffffffffffffffffffffffff16021790555050600160008273ffffffffffffffffffffffffffffffffffffffff1673ffffffffffffffffffffffffffffffffffffffff1681526020019081526020016000206008016000908060018154018082558091505090600182039060005260206000209060209182820401919006909192909190916101000a81548160ff0219169083151502179055505060008060008573ffffffffffffffffffffffffffffffffffffffff1673ffffffffffffffffffffffffffffffffffffffff16815260200190815260200160002060040160006101000a81548160ff021916908315150217905550613ba4600584612912565b506001600060088467ffffffffffffffff1681548110613bc057fe5b9060005260206000200160009054906101000a900473ffffffffffffffffffffffffffffffffffffffff1673ffffffffffffffffffffffffffffffffffffffff1673ffffffffffffffffffffffffffffffffffffffff16815260200190815260200160002060060160009054906101000a900467ffffffffffffffff1667ffffffffffffffff166001600060088567ffffffffffffffff1681548110613c6257fe5b9060005260206000200160009054906101000a900473ffffffffffffffffffffffffffffffffffffffff1673ffffffffffffffffffffffffffffffffffffffff1673ffffffffffffffffffffffffffffffffffffffff168152602001908152602001600020600701805490501415613d0c577fa332e7b06782060530f8d1575fcf83b5e831fe3dd09c85e53b0351a7c38ceeac81604051613d03919061580c565b60405180910390a15b50613d2c565b613d1d565b50613d1f565b505b80806001019150506137f6565b5050565b60008060009050600080905060008090505b600160008673ffffffffffffffffffffffffffffffffffffffff1673ffffffffffffffffffffffffffffffffffffffff168152602001908152602001600020600801805490508167ffffffffffffffff161015613e305760011515600160008773ffffffffffffffffffffffffffffffffffffffff1673ffffffffffffffffffffffffffffffffffffffff1681526020019081526020016000206008018267ffffffffffffffff1681548110613df457fe5b90600052602060002090602091828204019190069054906101000a900460ff1615151415613e23576001820191505b8080600101915050613d42565b50600160008573ffffffffffffffffffffffffffffffffffffffff1673ffffffffffffffffffffffffffffffffffffffff16815260200190815260200160002060060160009054906101000a900467ffffffffffffffff1667ffffffffffffffff168167ffffffffffffffff1610613f815760018060008673ffffffffffffffffffffffffffffffffffffffff1673ffffffffffffffffffffffffffffffffffffffff16815260200190815260200160002060090160006101000a81548160ff0219169083151502179055507fecb395b2a2ceb57177a24a711e761771826a6a5c10c88fcba80bceca4a92e44684600160008773ffffffffffffffffffffffffffffffffffffffff1673ffffffffffffffffffffffffffffffffffffffff168152602001908152602001600020600501604051613f6e9291906159ed565b60405180910390a1613f7f846143ca565b505b8192505050919050565b600080600160008473ffffffffffffffffffffffffffffffffffffffff1673ffffffffffffffffffffffffffffffffffffffff16815260200190815260200160002060060160009054906101000a900467ffffffffffffffff16905060008090506000600190505b6005805490508167ffffffffffffffff161161438657600060056001830367ffffffffffffffff168154811061402557fe5b9060005260206000200160009054906101000a900473ffffffffffffffffffffffffffffffffffffffff169050600160008773ffffffffffffffffffffffffffffffffffffffff1673ffffffffffffffffffffffffffffffffffffffff16815260200190815260200160002060020160009054906101000a900473ffffffffffffffffffffffffffffffffffffffff1673ffffffffffffffffffffffffffffffffffffffff168173ffffffffffffffffffffffffffffffffffffffff161461430d577f2b88768874d596259d3041253784b3217c58817182fb311f4152008bc32b6f398682600160008a73ffffffffffffffffffffffffffffffffffffffff1673ffffffffffffffffffffffffffffffffffffffff16815260200190815260200160002060050160405161415b939291906156d2565b60405180910390a18280600101935050600160008773ffffffffffffffffffffffffffffffffffffffff1673ffffffffffffffffffffffffffffffffffffffff1681526020019081526020016000206007018190806001815401808255809150509060018203906000526020600020016000909192909190916101000a81548173ffffffffffffffffffffffffffffffffffffffff021916908373ffffffffffffffffffffffffffffffffffffffff16021790555050600160008773ffffffffffffffffffffffffffffffffffffffff1673ffffffffffffffffffffffffffffffffffffffff1681526020019081526020016000206008016000908060018154018082558091505090600182039060005260206000209060209182820401919006909192909190916101000a81548160ff0219169083151502179055505060008060008373ffffffffffffffffffffffffffffffffffffffff1673ffffffffffffffffffffffffffffffffffffffff16815260200190815260200160002060040160006101000a81548160ff0219169083151502179055506142fe600582612912565b50818060019003925050614313565b50614379565b8367ffffffffffffffff168367ffffffffffffffff1610156143355750614379565b7fa332e7b06782060530f8d1575fcf83b5e831fe3dd09c85e53b0351a7c38ceeac86604051614364919061580c565b60405180910390a160019450505050506143c5565b8080600101915050613ff3565b507fa332e7b06782060530f8d1575fcf83b5e831fe3dd09c85e53b0351a7c38ceeac846040516143b691906159bf565b60405180910390a16000925050505b919050565b60006143d7600883612912565b506000600160008473ffffffffffffffffffffffffffffffffffffffff1673ffffffffffffffffffffffffffffffffffffffff16815260200190815260200160002060010181905550919050565b50805460018160011615610100020316600290046000825580601f1061444b575061446a565b601f01602090049060005260206000209081019061446991906146be565b5b50565b508054600082559060005260206000209081019061448b91906146be565b50565b50805460008255601f0160209004906000526020600020908101906144b391906146be565b50565b828054600181600116156101000203166002900490600052602060002090601f016020900481019282601f106144f757805160ff1916838001178555614525565b82800160010185558215614525579182015b82811115614524578251825591602001919060010190614509565b5b50905061453291906146be565b5090565b6040518061258001604052806032905b61454e6146e3565b8152602001906001900390816145465790505090565b6040518060c001604052806000815260200160008152602001600067ffffffffffffffff168152602001600061ffff168152602001600081526020016000151581525090565b604051806101a001604052806000815260200160008152602001600073ffffffffffffffffffffffffffffffffffffffff168152602001600067ffffffffffffffff168152602001600061ffff168152602001600081526020016060815260200160608152602001600067ffffffffffffffff168152602001606081526020016060815260200160001515815260200160007effffffffffffffffffffffffffffffffffffffffffffffffffffffffffffff191681525090565b6040518061514001604052806032905b61467c614729565b8152602001906001900390816146745790505090565b8154818355818111156146b9578183600052602060002091820191016146b891906146be565b5b505050565b6146e091905b808211156146dc5760008160009055506001016146c4565b5090565b90565b6040518060c001604052806000815260200160008152602001600067ffffffffffffffff168152602001600061ffff168152602001600081526020016000151581525090565b604051806101a001604052806000815260200160008152602001600073ffffffffffffffffffffffffffffffffffffffff168152602001600067ffffffffffffffff168152602001600061ffff168152602001600081526020016060815260200160608152602001600067ffffffffffffffff168152602001606081526020016060815260200160001515815260200160007effffffffffffffffffffffffffffffffffffffffffffffffffffffffffffff191681525090565b6000813590506147f281615f22565b92915050565b60008135905061480781615f39565b92915050565b600082601f83011261481e57600080fd5b813561483161482c82615c8d565b615c60565b9150818183526020840193506020810190508385602084028201111561485657600080fd5b60005b83811015614886578161486c88826147f8565b845260208401935060208301925050600181019050614859565b5050505092915050565b60008135905061489f81615f50565b92915050565b600082601f8301126148b657600080fd5b81356148c96148c482615cb5565b615c60565b915080825260208301602083018583830111156148e557600080fd5b6148f0838284615ecf565b50505092915050565b60008135905061490881615f67565b92915050565b60008135905061491d81615f7e565b92915050565b60006020828403121561493557600080fd5b6000614943848285016147e3565b91505092915050565b60006020828403121561495e57600080fd5b600061496c848285016147f8565b91505092915050565b6000806040838503121561498857600080fd5b6000614996858286016147f8565b92505060206149a785828601614890565b9150509250929050565b600080604083850312156149c457600080fd5b60006149d2858286016147f8565b925050602083013567ffffffffffffffff8111156149ef57600080fd5b6149fb858286016148a5565b9150509250929050565b600060208284031215614a1757600080fd5b600082013567ffffffffffffffff811115614a3157600080fd5b614a3d8482850161480d565b91505092915050565b600080600060608486031215614a5b57600080fd5b6000614a698682870161490e565b9350506020614a7a868287016148f9565b9250506040614a8b8682870161490e565b9150509250925092565b60008060008060808587031215614aab57600080fd5b6000614ab98782880161490e565b9450506020614aca878288016148f9565b9350506040614adb8782880161490e565b925050606085013567ffffffffffffffff811115614af857600080fd5b614b04878288016148a5565b91505092959194509250565b6000614b1c8383614b6c565b60208301905092915050565b6000614b348383614d70565b60208301905092915050565b6000614b4c83836153a1565b60c08301905092915050565b6000614b64838361554a565b905092915050565b614b7581615e39565b82525050565b614b8481615e39565b82525050565b6000614b9582615d39565b614b9f8185615dcd565b9350614baa83615cee565b8060005b83811015614bdb578151614bc28882614b10565b9750614bcd83615d88565b925050600181019050614bae565b5085935050505092915050565b6000614bf382615d2e565b614bfd8185615dbc565b9350614c0883615ce1565b8060005b83811015614c39578151614c208882614b10565b9750614c2b83615d7b565b925050600181019050614c0c565b5085935050505092915050565b6000614c5182615d44565b614c5b8185615dde565b9350614c6683615cfb565b8060005b83811015614c97578151614c7e8882614b28565b9750614c8983615d95565b925050600181019050614c6a565b5085935050505092915050565b614cad81615d4f565b614cb78184615def565b9250614cc282615d08565b8060005b83811015614cf3578151614cda8782614b40565b9650614ce583615da2565b925050600181019050614cc6565b505050505050565b6000614d0682615d5a565b614d108185615dfa565b935083602082028501614d2285615d12565b8060005b85811015614d5e5784840389528151614d3f8582614b58565b9450614d4a83615daf565b925060208a01995050600181019050614d26565b50829750879550505050505092915050565b614d7981615e4b565b82525050565b614d8881615e4b565b82525050565b614d9781615e57565b82525050565b614da681615e57565b82525050565b6000614db782615d70565b614dc18185615e16565b9350614dd1818560208601615ede565b614dda81615f11565b840191505092915050565b6000614df082615d65565b614dfa8185615e05565b9350614e0a818560208601615ede565b614e1381615f11565b840191505092915050565b6000614e2982615d65565b614e338185615e16565b9350614e43818560208601615ede565b614e4c81615f11565b840191505092915050565b600081546001811660008114614e745760018114614e9a57614ede565b607f6002830416614e858187615e16565b955060ff198316865260208601935050614ede565b60028204614ea88187615e16565b9550614eb385615d1c565b60005b82811015614ed557815481890152600182019150602081019050614eb6565b80880195505050505b505092915050565b6000614ef3601983615e16565b91507f50726f766964657220556e61626c6520746f20557064617465000000000000006000830152602082019050919050565b6000614f33601883615e16565b91507f5265717565737420556e61626c6520746f2055706461746500000000000000006000830152602082019050919050565b6000614f73601183615e16565b91507f456e6f7567682056616c696461746f72730000000000000000000000000000006000830152602082019050919050565b6000614fb3601083615e16565b91507f50726f76696465722055706461746564000000000000000000000000000000006000830152602082019050919050565b6000614ff3600f83615e16565b91507f52657175657374205570646174656400000000000000000000000000000000006000830152602082019050919050565b6000615033601f83615e16565b91507f56616c69646174696f6e2041737369676e656420746f2050726f7669646572006000830152602082019050919050565b6000615073600f83615e16565b91507f526571756573742053746f7070656400000000000000000000000000000000006000830152602082019050919050565b60006150b3601683615e16565b91507f5265717565737420556e61626c6520746f2053746f70000000000000000000006000830152602082019050919050565b60006150f3601d83615e16565b91507f5265717565737420436f6d7075746174696f6e20436f6d706c657465640000006000830152602082019050919050565b6000615133600e83615e16565b91507f50726f76696465722041646465640000000000000000000000000000000000006000830152602082019050919050565b6000615173601083615e16565b91507f50726f76696465722053746f70706564000000000000000000000000000000006000830152602082019050919050565b60006151b3601083615e16565b91507f56616c696461746f72205369676e6564000000000000000000000000000000006000830152602082019050919050565b60006151f3601783615e16565b91507f50726f766964657220556e61626c6520746f2053746f700000000000000000006000830152602082019050919050565b6000615233601583615e16565b91507f4e6f7420456e6f7567682056616c696461746f727300000000000000000000006000830152602082019050919050565b6000615273601083615e16565b91507f526571756573742041737369676e6564000000000000000000000000000000006000830152602082019050919050565b60006152b3601383615e16565b91507f56616c69646174696f6e20436f6d706c657465000000000000000000000000006000830152602082019050919050565b60006152f3600d83615e16565b91507f52657175657374204164646564000000000000000000000000000000000000006000830152602082019050919050565b60c08201600082015161533c6000850182615696565b50602082015161534f6020850182615696565b50604082015161536260408501826156b4565b5060608201516153756060850182615678565b5060808201516153886080850182615696565b5060a082015161539b60a0850182614d70565b50505050565b60c0820160008201516153b76000850182615696565b5060208201516153ca6020850182615696565b5060408201516153dd60408501826156b4565b5060608201516153f06060850182615678565b5060808201516154036080850182615696565b5060a082015161541660a0850182614d70565b50505050565b60006101a0830160008301516154356000860182615696565b5060208301516154486020860182615696565b50604083015161545b6040860182614b6c565b50606083015161546e60608601826156b4565b5060808301516154816080860182615678565b5060a083015161549460a0860182615696565b5060c083015184820360c08601526154ac8282614de5565b91505060e083015184820360e08601526154c68282614de5565b9150506101008301516154dd6101008601826156b4565b506101208301518482036101208601526154f78282614be8565b9150506101408301518482036101408601526155138282614c46565b91505061016083015161552a610160860182614d70565b5061018083015161553f610180860182614d8e565b508091505092915050565b60006101a0830160008301516155636000860182615696565b5060208301516155766020860182615696565b5060408301516155896040860182614b6c565b50606083015161559c60608601826156b4565b5060808301516155af6080860182615678565b5060a08301516155c260a0860182615696565b5060c083015184820360c08601526155da8282614de5565b91505060e083015184820360e08601526155f48282614de5565b91505061010083015161560b6101008601826156b4565b506101208301518482036101208601526156258282614be8565b9150506101408301518482036101408601526156418282614c46565b915050610160830151615658610160860182614d70565b5061018083015161566d610180860182614d8e565b508091505092915050565b61568181615e83565b82525050565b61569081615e83565b82525050565b61569f81615eb1565b82525050565b6156ae81615eb1565b82525050565b6156bd81615ebb565b82525050565b6156cc81615ebb565b82525050565b60006080820190506156e76000830186614b7b565b6156f46020830185614b7b565b818103604083015261570581615026565b905081810360608301526157198184614e57565b9050949350505050565b60006060820190506157386000830185614b7b565b6157456020830184614b7b565b8181036040830152615756816151a6565b90509392505050565b60006080820190506157746000830186614b7b565b6157816020830185614b7b565b818103604083015261579281615266565b905081810360608301526157a68184614e57565b9050949350505050565b60006040820190506157c56000830184614b7b565b81810360208301526157d681614ee6565b905092915050565b60006040820190506157f36000830184614b7b565b818103602083015261580481614f26565b905092915050565b60006040820190506158216000830184614b7b565b818103602083015261583281614f66565b905092915050565b600060408201905061584f6000830184614b7b565b818103602083015261586081614fa6565b905092915050565b600060408201905061587d6000830184614b7b565b818103602083015261588e81614fe6565b905092915050565b60006040820190506158ab6000830184614b7b565b81810360208301526158bc81615066565b905092915050565b60006040820190506158d96000830184614b7b565b81810360208301526158ea816150a6565b905092915050565b60006060820190506159076000830185614b7b565b8181036020830152615918816150e6565b9050818103604083015261592c8184614e57565b90509392505050565b600060408201905061594a6000830184614b7b565b818103602083015261595b81615126565b905092915050565b60006040820190506159786000830184614b7b565b818103602083015261598981615166565b905092915050565b60006040820190506159a66000830184614b7b565b81810360208301526159b7816151e6565b905092915050565b60006040820190506159d46000830184614b7b565b81810360208301526159e581615226565b905092915050565b6000606082019050615a026000830185614b7b565b8181036020830152615a13816152a6565b90508181036040830152615a278184614e57565b90509392505050565b6000606082019050615a456000830185614b7b565b8181036020830152615a56816152e6565b90508181036040830152615a6a8184614dac565b90509392505050565b60006020820190508181036000830152615a8d8184614b8a565b905092915050565b600061258082019050615aab6000830184614ca4565b92915050565b60006020820190508181036000830152615acb8184614cfb565b905092915050565b6000602082019050615ae86000830184614d7f565b92915050565b600060c082019050615b036000830184615326565b92915050565b60006020820190508181036000830152615b23818461541c565b905092915050565b6000602082019050615b4060008301846156a5565b92915050565b600061016082019050615b5c600083018e6156a5565b615b69602083018d6156a5565b615b76604083018c614b7b565b615b83606083018b6156c3565b615b90608083018a615687565b615b9d60a08301896156a5565b81810360c0830152615baf8188614e1e565b905081810360e0830152615bc38187614e1e565b9050615bd36101008301866156c3565b615be1610120830185614d7f565b615bef610140830184614d9d565b9c9b505050505050505050505050565b600060c082019050615c1460008301896156a5565b615c2160208301886156a5565b615c2e60408301876156c3565b615c3b6060830186615687565b615c4860808301856156a5565b615c5560a0830184614d7f565b979650505050505050565b6000604051905081810181811067ffffffffffffffff82111715615c8357600080fd5b8060405250919050565b600067ffffffffffffffff821115615ca457600080fd5b602082029050602081019050919050565b600067ffffffffffffffff821115615ccc57600080fd5b601f19601f8301169050602081019050919050565b6000602082019050919050565b6000602082019050919050565b6000602082019050919050565b6000819050919050565b6000819050919050565b60008160005260206000209050919050565b600081519050919050565b600081519050919050565b600081519050919050565b600060329050919050565b600060329050919050565b600081519050919050565b600081519050919050565b6000602082019050919050565b6000602082019050919050565b6000602082019050919050565b6000602082019050919050565b6000602082019050919050565b600082825260208201905092915050565b600082825260208201905092915050565b600082825260208201905092915050565b600081905092915050565b600081905092915050565b600082825260208201905092915050565b600082825260208201905092915050565b6000615e3282615e91565b9050919050565b6000615e4482615e91565b9050919050565b60008115159050919050565b60007fff0000000000000000000000000000000000000000000000000000000000000082169050919050565b600061ffff82169050919050565b600073ffffffffffffffffffffffffffffffffffffffff82169050919050565b6000819050919050565b600067ffffffffffffffff82169050919050565b82818337600083830152505050565b60005b83811015615efc578082015181840152602081019050615ee1565b83811115615f0b576000848401525b50505050565b6000601f19601f8301169050919050565b615f2b81615e27565b8114615f3657600080fd5b50565b615f4281615e39565b8114615f4d57600080fd5b50565b615f5981615e4b565b8114615f6457600080fd5b50565b615f7081615e83565b8114615f7b57600080fd5b50565b615f8781615ebb565b8114615f9257600080fd5b5056fea265627a7a723058209a4468e746fe53469346d81c5a124da21a309f7200711419de3105501869a5ad6c6578706572696d656e74616cf50037",
  "source": "/////////////////////////////////////////////////////////////////////////////////////\n//version 2.1.0\n//Author: Taurus, Samuel Pritchett\n//Copyright: tlu4@lsu.edu\n//\n//comments updated on Apr.2019\n//fixed validateReqeust Logic: validator list is updated when selection, \n//                      signature list is updated when result submiteed, to avoid multi-submission\n//did not change function parameter, should not break anything\n///////////////////////////////////////////////////////////////////////////////////////\n//NOTE:\n//This design uses account address as the identifier, meaning each address could only have one req/prov associated.\n//When submit new or update existing req/prov, previous record are overwriten.\n//Each address could only have one req or prov, not at same time.\n//On the other hand, reqID and provID is just a counter, not an identifier. Update or resubmition results in new reqID/provID.\n\n//TODO: add conflict detection of the address. Check whether existing req or prov from your address is 'not complete',(being proccessed).\n////////////////////////////////////////////////////////////////////////////////////\n\npragma solidity ^0.5.0;\npragma experimental ABIEncoderV2;           //enable returning self-defined type, \n                                            //do not disable, provider is returned for debuging reason.\n\ncontract TaskContract {\n    //list\n    mapping (address => Provider) public providerList;   //provAddr => provider struct\n    mapping (address => Request)  public requestList;    //reqAddr => request struct\n    mapping (address => uint256)  public balanceList;    //reqAddr => balance   \n \n    //ID - counter\n    uint256 private providerCount;                       //+1 each time\n    uint256 private requestCount;\n\n    constructor() public {                               //sol 5.0 syntax\n        providerCount = 0;\n        requestCount = 0;\n    }\n\n    struct Request {\n        uint256 reqID;                      //requestID is not identifier, just a counter\n        uint256 blockNumber;                //record the time of submission\n        address payable provider;           //record the provider assigned to this request\n        uint64  time;                       //maximum time requirements                 TODO: determine the unit and format\n        uint16  target;                     //target 0-100.00                           TODO: determine the unit and format\n        uint256 price;                      //the max amount he willing to pay          TODO: determine the unit and format\n        bytes   dataID;                     //dataID used to fetch the off-chain data, interact with ipfs\n        bytes   resultID;                   //dataID to fetch the off-chain result, via ipfs\n        uint64  numValidations;             //user defined the number of validation, TODO: fix this as 3 \n        address payable []  validators;     //validators' addr, update when assigned the task to validators\n        bool[]  signatures;                 //true or false array, update only when validator submit result\n        bool    isValid;                    //the final flag\n        byte    status;                     //one byte indicating the status: 0: 'pending', 1:'providing', 2: 'validating', 3: 'complete'\n        //mapping (address => bool)validationList;   //no way to know if a specific address is in this mapping\n                                                    //but this can be useful together with validator []array\n    }\n\n    struct Provider {\n        uint256 provID;                     //just a counter\n        uint256 blockNumber;                //record the time of submission\n        uint64  maxTime;                    //max time he is willing to accept, maxTime of Prov's should be larger than Req's to successfully assign\n        uint16  maxTarget;                  //max target he can provide\n        uint256 minPrice;                   //lowest price he can accept\n        bool    available;                  //if ready to be assigned\n    }\n\n\n    //two types of events, only difference is # of returned address\n    //no need seperate events for each type, just put whatever info passed in bytes info\n    event IPFSInfo          (address payable reqAddr, bytes info, bytes extra);\n    event SystemInfo        (address payable reqAddr, bytes info);\n    event PairingInfo       (address payable reqAddr, address payable provAddr, bytes info);\n    event PairingInfoLong   (address payable reqAddr, address payable provAddr, bytes info, bytes extra);\n\n\n    //Pools stores the address of req or prov, thus indicate the stages.\n    address payable [] providerPool;        //provAddr only when more providers > req, or empty\n    address payable [] pendingPool;         //reqAddr only when more requests > prov, or empty\n    address payable [] providingPool;       //reqAddr\n    address payable [] validatingPool;      //reqAddr\n    /////////////////////////////////////////////////////////////////////////////////////\n\n    \n    // Function called to become a provider. Add address on List, and Pool if not instantly assigned. \n    // NOTE: cannot use to update pending providers. \n    // TIPS on gas cost: don't create local copy and write back, modify the storage directly.\n    // gas cost 165K without event / 167K with event / 92K overwrite\n    function startProviding(uint64 maxTime, uint16 maxTarget, uint64 minPrice) public returns (bool) {\n        if(providerList[msg.sender].blockNumber == 0){                  //if this is new\n            // register a new provider object in the List and map              \n            providerList[msg.sender].provID         = providerCount;    //cost 50k per item edit\n            providerList[msg.sender].blockNumber    = block.number;           \n            providerList[msg.sender].maxTime        = maxTime;\n            providerList[msg.sender].maxTime        = maxTime;       \n            providerList[msg.sender].maxTarget      = maxTarget;\n            providerList[msg.sender].minPrice       = minPrice;\n            providerList[msg.sender].available      = true;             //turn on the flag at LAST in case error\n            // ready for the next       \n            providerPool.push(msg.sender);\n            emit SystemInfo (msg.sender, \"Provider Added\");\n            providerCount++;\n            if(validatingPool.length != 0){                           //need to update how validation works before we can prioritize it here\n                findValidation(msg.sender);\n            }\n            assignProvider(msg.sender);                                 //try an instant assignment trial\n            return true;\n        } \n        else {                                                          //this address has been recorded before\n            return updateProvider(maxTime, maxTarget, minPrice);               //this could be an update\n            /*  //this is deprecated, use updateFunction instead.\n            if(providerList[msg.sender].available == true){             //can only modify available provider\n                providerList[msg.sender].blockNumber    = block.number;         \n                providerList[msg.sender].maxTime        = maxTime;       \n                providerList[msg.sender].maxTarget      = maxTarget;\n                providerList[msg.sender].minPrice       = minPrice;\n                emit SystemInfo(msg.sender,'Provider Updated');\n                assignProvider(msg.sender);\n                return true;\n            }*/\n        }\n    }\n    // Stop a provider. Must be sent from the provider address or it will be failed.\n    function stopProviding() public returns (bool) {\n        // If the sender is currently an active provider\n        if (providerList[msg.sender].available == true){               //can only stop available provider              \n            delete providerList[msg.sender];                           //delete from List\n            emit SystemInfo(msg.sender, 'Provider Stopped');\n            return ArrayPop(providerPool, msg.sender);                 //delete from Pool                \n        }\n        else{   \n            emit SystemInfo(msg.sender, 'Provider Unable to Stop');\n            return false;\n        }\n    }\n    //update a provider, you must know the provID and must sent from right addr\n    function updateProvider(uint64 maxTime, uint16 maxTarget, uint64 minPrice) public returns (bool) {      \n        if(providerList[msg.sender].available == true){                //can only modify available provider\n            providerList[msg.sender].blockNumber    = block.number;         \n            providerList[msg.sender].maxTime        = maxTime;       \n            providerList[msg.sender].maxTarget      = maxTarget;\n            providerList[msg.sender].minPrice       = minPrice;\n            emit SystemInfo(msg.sender,'Provider Updated');\n            assignProvider(msg.sender);\n            return true;\n        }\n        else{\n            emit SystemInfo(msg.sender, 'Provider Unable to Update');\n            return false;\n        }\n    }\n\n    // Send a request from user to blockchain.\n    // Assumes price is including the cost for verification\n    function startRequest(uint64 time, uint16 target, uint64 price, bytes memory dataID) payable public returns (bool) {\n        if(requestList[msg.sender].blockNumber == 0){   //never submitted before\n            //register on List\n            requestList[msg.sender].reqID         = requestCount;\n            requestList[msg.sender].blockNumber   = block.number;  \n            requestList[msg.sender].provider      = address(0);      \n            requestList[msg.sender].time          = time;    \n            requestList[msg.sender].target        = target;\n            requestList[msg.sender].price         = price;\n            requestList[msg.sender].dataID        = dataID;\n            requestList[msg.sender].numValidations = 3;//fixed 3 for testing reasons\n            requestList[msg.sender].status = '0' ;     //pending = 0x30, is in ascii not number 0\n            pendingPool.push(msg.sender);\n            emit IPFSInfo (msg.sender, \"Request Added\", dataID);\n            \n            requestCount++;     \n            assignRequest(msg.sender);                  //try an instant assignment\n            return true;\n        } else {    //submitted before\n            return updateRequest(time, target, price, dataID);\n            /*if(requestList[msg.sender].status == '0' ){                   //can only update pending request\n                requestList[msg.sender].blockNumber    = block.number;         \n                requestList[msg.sender].time        = time;       \n                requestList[msg.sender].target      = target;\n                requestList[msg.sender].price       = price;\n                requestList[msg.sender].dataID      = dataID;\n                emit SystemInfo(msg.sender, 'Request Updated');\n                return true;\n            }*/\n        }\n    }\n    function stopRequest() public returns (bool){\n        if (requestList[msg.sender].status == '0'){                   //can only cancel owned pending request, ('0' = 0x30)            \n            delete requestList[msg.sender];                           //delete from List             \n            emit SystemInfo(msg.sender, 'Request Stopped');\n            return ArrayPop(pendingPool, msg.sender);                 //delete from Pool   \n        }\n        else{\n            emit SystemInfo(msg.sender, 'Request Unable to Stop');\n            return false;\n        }\n    }\n    function updateRequest(uint64 time, uint16 target, uint64 price, bytes memory dataID) payable public returns (bool) {      \n        if(requestList[msg.sender].status == '0' ){                   //can only update pending request\n            requestList[msg.sender].blockNumber    = block.number;         \n            requestList[msg.sender].time        = time;       \n            requestList[msg.sender].target      = target;\n            requestList[msg.sender].price       = price;\n            requestList[msg.sender].dataID      = dataID;\n            emit SystemInfo(msg.sender, 'Request Updated');\n            return true;\n        }\n        else{\n            emit SystemInfo(msg.sender, 'Request Unable to Update');\n            return false;\n        }\n    }\n\n    // Search in the requestPool, find a job for current provider. Triggered by startProviding\n    // Returns: note: return value all in ascii format\n    //          0: successfully assigned\n    //          1: searched all providers but find no match\n    //          2: no available provider right now\n    //          3: failure during poping pool\n    function assignProvider(address payable provAddr) private returns (byte){\n        if(pendingPool.length == 0) return '2';     //no pending requests\n        else {\n            //search throught the requestPool\n            for (uint64 i = 0; i < pendingPool.length; i++){  \n                address  payable reqAddr = pendingPool[i];     //save the re-usable reqID , save gas by avoiding multiple read\n                if( (reqAddr!= address(0) && requestList[reqAddr].status != '1') &&\n                    requestList[reqAddr].time     <= providerList[provAddr].maxTime &&\n                    requestList[reqAddr].target   <= providerList[provAddr].maxTarget &&\n                    requestList[reqAddr].price    >= providerList[provAddr].minPrice){\n                        //meet the requirement, assign the task\n                        //update provider\n                        providerList[provAddr].available = false;\n                        ArrayPop(providerPool, provAddr);\n\n                        //update request\n                        requestList[reqAddr].provider = provAddr;\n                        requestList[reqAddr].status = '1';    //providing\n                        ArrayPop(pendingPool, reqAddr);\n\n                        //update balanceList            addr here is requester's\n                        balanceList[reqAddr] += requestList[reqAddr].price; \n\n                        providingPool.push(reqAddr);                       \n                        //status move from pending to providing\n                        emit PairingInfoLong(reqAddr, provAddr, \"Request Assigned\", requestList[reqAddr].dataID);\n                        return '0';                   \n                }                \n            }\n            //after for loop and no match\n            return '1';\n        }\n    }\n\n    // Assigning one task to one of the available providers. Only called from requestTask (private)\n    // Search in the providerPool, if no match in the end, return false\n    //could only assign one task at a time\n    //auto sel the first searching result for now, no comparation between multiple availability.\n    //TODO: need ot add preference next patch\n    // Returns: 0: successfully assigned\n    //          1: searched all providers but find no match\n    //          2: no available provider right now\n    //          3: failure during poping pool\n    function assignRequest(address payable reqAddr) private returns (byte) {\n        //provider availability is checked in pool not in list\n        if (providerPool.length == 0)   return '2';\n        else {            //if any provider in pool\n            for (uint64 i = 0; i < providerPool.length; i++) {      \n                address payable provAddr  = providerPool[i];   // save the provider's addr, reusable and save gas cost\n                if (provAddr != address(0) && providerList[provAddr].available == true){\n                    // Check if request conditions meet the providers requirements\n                    if (requestList[reqAddr].target <= providerList[provAddr].maxTarget && \n                        requestList[reqAddr].time <= providerList[provAddr].maxTime && \n                        requestList[reqAddr].price >= providerList[provAddr].minPrice) {\n                        \n                        //update provider:\n                        providerList[provAddr].available = false;\n                        ArrayPop(providerPool, provAddr);\n\n                        //update request\n                        requestList[reqAddr].provider = provAddr;\n                        requestList[reqAddr].status = '1';    //providing\n                        ArrayPop(pendingPool, reqAddr);\n\n                        //update balanceList              \n                        balanceList[reqAddr] += requestList[reqAddr].price; \n\n                        providingPool.push(reqAddr);\n                        emit PairingInfoLong(reqAddr, provAddr, \"Request Assigned\", requestList[reqAddr].dataID); // Let provider listen for this event to see he was selected\n                        return '0';\n                    }\n                }\n            }\n            // No provider was found matching the criteria -- request failed\n            // TODO: how to return payment is to be discussed in future.\n            //requestList[reqID].addr.transfer(requestList[reqID].price); // Returns the ether to the sender\n            return '1';\n        }\n    }\n\n\n    // Provider will call this when they are done and the result data is available.\n    // This will invoke the validation stage. Only when the request got enough validators,\n    // that req could be moved from pool and marked. Or that req stays providing\n    function completeRequest(address payable reqAddr, bytes memory resultID) public returns (bool) {\n        // Confirm msg.sender is actually the provider of the task he claims\n        if (msg.sender == requestList[reqAddr].provider) {\n            //change request obj\n            requestList[reqAddr].status = '2';    //validating\n            requestList[reqAddr].resultID = resultID;\n            //move from providing pool to validating Pool.\n            ArrayPop(providingPool, reqAddr);\n            validatingPool.push(reqAddr);\n            //release provider (not necessarily depend on provider) back into providerPool\n            providerList[msg.sender].available = true;\n            providerPool.push(msg.sender);\n            emit IPFSInfo(reqAddr, 'Request Computation Completed',requestList[reqAddr].resultID);\n            //start validation process\n            return validateRequest(reqAddr);\n        }\n        else {\n            return false;\n        }\n    }\n    //this will be seperated in the futurte when timeing out is possilbe for connections and the provider must \n    //stay available untill the data has been passed to all who are involved in this transaction\n    /*function releaseProvieder() public {\n        providerList[msg.sender].available = true;\n        providerPool.push(msg.sender);\n    }\n    */\n\n    // Called by completeRequest before finalizing stuff. NOTE: must have no validators right now\n    // Try to find as many as possible qualified validators\n    // Returns false if there wasnt enough free providers to send out the required number of validation requests\n    // need validation from 1/10 of nodes -- could change\n    function validateRequest(address payable reqAddr) private returns (bool) {\n        uint64 numValidatorsNeeded = requestList[reqAddr].numValidations; \n        uint64 validatorsFound = 0;\n        //select # of available provider from the pool and force em to do the validation\n        for (uint64 i = 1; i <= providerPool.length; i++) {\n            address payable provID = providerPool[i - 1]; //get provider ID\n            //TODO: check whether selected validator capable with parameters (time, accuracy,....)\n            if(provID != requestList[reqAddr].provider){   //validator and computer cannot be same\n                emit PairingInfoLong(reqAddr, provID, 'Validation Assigned to Provider', requestList[reqAddr].resultID);\n                validatorsFound++;\n                //remove the providers availablity and pop from pool\n                requestList[reqAddr].validators.push(provID);\n                requestList[reqAddr].signatures.push(false);    //push false to hold position\n                providerList[provID].available = false;\n                ArrayPop(providerPool, provID);\n                i--;\n                     \n                //NOTE [IMPORTANT] : pop array while looping this array is very dangerous\n                //because popping will change the sequence of the elements thus will skip some item.\n                //[deprecated] ArrayPop(providerPool, provID);\n                //solution: only pop after looping through all the pool\n    \n            } else continue;    //skip the provider/computer itself\n            \n            //check whether got enough validator\n            if(validatorsFound < numValidatorsNeeded){\n                continue;\n            }\n            else{       //enough validator\n                emit SystemInfo(reqAddr, 'Enough Validators');\n               // ArrayPop(providerPool, requestList[reqAddr].validators);\n                return true;\n                break;\n            }\n            //loop until certain # of validators selected\n        }   \n        //exit loop without enough validators\n       // ArrayPopArray(providerPool, requestList[reqAddr].validators);  //not sure if necessary , for safety\n        emit SystemInfo(reqAddr, 'Not Enough Validators');\n        return false;\n    }\n\n    // needs to be more secure by ensuring the submission is coming from someone legit \n    // similar to completeTask but this will sign the validation list of the target Task\n    // TODO: the money part is ommited for now\n    function submitValidation(address payable reqAddr, bool result) public returns (bool) {       \n        if(msg.sender != requestList[reqAddr].provider) {     //validator cannot be provider\n            for (uint64 i = 0; i<requestList[reqAddr].validators.length; i++){\n                if(requestList[reqAddr].validators[i] == msg.sender     // vali must be previous validator assigned\n                && requestList[reqAddr].signatures[i] == false){    // not yet signed\n                    \n                    requestList[reqAddr].signatures[i] = result;        //length is matched, this prevent multi-submission and can update his own\n                    providerList[msg.sender].available = true;          //release validator\n                    providerPool.push(msg.sender);\n                    emit PairingInfo(reqAddr, msg.sender, 'Validator Signed');\n                }\n                else continue;   //either submitted already or not find , go for next\n            }\n            checkValidation(reqAddr);\n        }\n        else   //submit vali from provider\n            return false;\n\n        // Pay the validator \n        // uint partialPayment = requestList[reqID].price / 100; // amount each validator is paid\n        // msg.sender.transfer(partialPayment);\n        // balanceList[requestList[reqID].addr] -= partialPayment;\n    }\n    \n    //TODO: what if result is invalid, we got 3 false signature, will stuck here.\n    function checkValidation(address payable reqAddr) private returns (bool) {\n        // Add up successful validations\n        bool flag = false;\n        uint64 successCount = 0;\n        for (uint64 i=0; i<requestList[reqAddr].signatures.length; i++) {\n           if (requestList[reqAddr].signatures[i] == true) successCount += 1;\n        }\n        // if 2/3 of validation attempts were successful\n        // TODO: determine the fraction\n        \n        if (successCount  >= requestList[reqAddr].numValidations) { \n            // if 2/3 of validations were valid then provider gets remainder of money\n            //requestList[reqID].provider.transfer(payment); \n            //balanceList[requestList[reqID].addr] -= payment;\n            //TODO: [important] leave out the payment part for now.\n            requestList[reqAddr].isValid = true; // Task was successfully completed! \n            emit IPFSInfo(reqAddr, 'Validation Complete', requestList[reqAddr].resultID);\n            //flag = ArrayPop(validatingPool, reqAddr);\n            finalizeRequest(reqAddr);\n        }\n        /*\n        // otherwise, work was invalid, the providers payment goes back to requester\n        //else {\n            //requestList[reqID].addr.transfer(payment);\n            //balanceList[requestList[reqID].addr] -= payment;\n        //}\n        // EVENT: task is done whether successful or not\n        //emit TaskCompleted(requestList[reqID].addr, reqID);\n\n        // popout from pool\n        */\n        return flag;\n    }\n\n\n    // called by startProviding if the validatingPool is not empty\n    // assigns the new provider to validate a task\n    // IDEA: Could be modified so that any available provider could call. For now it assumes only used on new providers in startProviding\n    function findValidation(address payable provAddr) private {\n        for(uint64 i = 0; i < validatingPool.length; i++){  //search the entire validatingpool\n            address payable reqAddr = validatingPool[i]; //set reqAddr current task\n            if(requestList[reqAddr].numValidations > requestList[reqAddr].validators.length){ //check to see if the task has enough validators\n                //since the provAddr is a new provider, we don't need to check if he is already a validator, should be impossible unless bug exists\n                if(provAddr != requestList[reqAddr].provider){ //check to make sure he is not the computer\n                    emit PairingInfoLong(reqAddr, provAddr, 'Validation Assigned to Provider',requestList[reqAddr].resultID);\n                    requestList[reqAddr].validators.push(provAddr);\n                    requestList[reqAddr].signatures.push(false);    //extend length to match length of validator list\n                    providerList[provAddr].available = false;\n                    ArrayPop(providerPool, provAddr);\n\n\n                    //alert task owner if their task now has enough validators\n                    if(requestList[validatingPool[i]].validators.length == requestList[validatingPool[i]].numValidations){\n                        emit SystemInfo(reqAddr, 'Enough Validators');\n                    }\n\n                    break;\n\n                }\n                //else he is computer, did nothing\n            }\n            else continue; //this req has already got enough, check next\n        }\n    }\n\n    // finalize the completed result, move everything out of current pools\n    // TODO: handle any potential payment\n    function finalizeRequest(address payable reqAddr) private returns (bool) {\n        ArrayPop(validatingPool, reqAddr);\n        //delete related record\n        requestList[reqAddr].blockNumber = 0;\n    }\n/////////////////////////////////////////////////////////////////////\n    // Used to dynamically remove elements from array of open provider spaces. \n    // Using a swap and delete method, search for the desired addr throughout the whole array\n    // delete the desired and swap the hole with last element\n    function ArrayPop(address payable [] storage array, address payable target) private returns (bool) {\n        for(uint64 i = 0; i < array.length; i++){\n            if (array[i] == target) {\n                //swap last element with hole\n                array[i] = array[array.length-1];\n                //delete last item\n                delete array[array.length-1];\n                //decrease size\n                array.length -= 1;\n                return true;\n            }\n        }\n        return false;   //fail to search: no matching in pool\n    }\n    function ArrayPopArray(address payable[] storage array, address payable[] memory targetArray) private returns (bool){\n        bool flag = true;\n        for (uint64 j = 0;j<targetArray.length;j++){\n            flag = flag && ArrayPop(array, targetArray[j]);\n        }\n        return flag;\n    }\n    /////////////////////////////////////////////////////////////////////////////////\n    //some helpers defined here\n\n    function getProvider(address payable ID) public view returns(Provider memory){\n        return providerList[ID];\n    }\n    function getRequest(address payable ID) public view returns (Request memory){\n\t    return requestList[ID];\n    }\n    function getProviderCount() public view returns (uint256){\n        return providerCount;\n    }\n    function getRequestCount() public view returns (uint256){\n        return requestCount;\n    }\n\n    function getProviderPool() public view returns (address payable[] memory){\n        return providerPool;\n    }\n    function getPendingPool() public view returns (address payable[] memory){\n        return pendingPool;\n    }\n    function getValidatingPool() public view returns (address payable[] memory){\n        return validatingPool;\n    }\n    function getProvidingPool() public view returns (address payable[] memory){\n        return providingPool;\n    }\n\n    function getProviderPoolSize() public view returns (uint256){\n        return providerPool.length;\n    }\n    function getRequestPoolSize() public view returns (uint256){\n        return pendingPool.length;\n    }\n\n\n    //function getBalance(address addr) public view returns (uint256){\n    //    return balanceList[addr];\n    //}\n    function listRequests(address payable[] memory IDList) public view returns(Request[50] memory){\n\t    Request[50] memory allRequest;\n\t    for (uint64 i = 0; i < IDList.length; i++){\n\t\t    allRequest[i] = getRequest(IDList[i]);\n\t    }\n\t    return allRequest;\n    }\n    function listProviders(address payable[] memory IDList) public view returns(Provider[50] memory){\n        Provider[50] memory allProvider;\n        //address addr;\n        for (uint64 i = 0; i < IDList.length;i++){\n            allProvider[i] = getProvider(IDList[i]);\n        }\n        return allProvider;\n    }\n/*    function listAllRequests() public view returns(Request[50] memory){\n\t    Request[50] memory allRequest;\n\t    for (uint64 i = 0; i < requestCount; i++){\n\t\t    allRequest[i] = getRequest(i);\n\t    }\n\t    return allRequest;\n    }\n    function listAllProviders() public view returns(Provider[50] memory){\n\t    Provider[50] memory allProvider;\n\t    for (uint64 i = 0; i < providerCount; i++){\n\t\t    allProvider[i] = getProvider(i);\n\t    }\n\t    return allProvider;\n    }\n*/\n\n}\n",
  "sourcePath": "/home/pedriv/Documents/gitLab/bcai_v2.0/contracts/bcai_2.0.sol",
  "compiler": {
    "name": "solc",
    "version": "0.5.8+commit.23d335f2.Emscripten.clang"
  },
  "schemaVersion": "3.0.10",
  "updatedAt": "2019-07-10T18:58:56.138Z",
  "devdoc": {
    "methods": {}
  },
  "userdoc": {
    "methods": {
      "getProvider(address)": {
        "notice": "//////////////////////////////////////////////////////////////////////////////"
      },
      "startProviding(uint64,uint16,uint64)": {
        "notice": "//////////////////////////////////////////////////////////////////////////////////"
      }
    }
  }
}