{
  "contractName": "eventTest",
  "abi": [
    {
      "anonymous": false,
      "inputs": [
        {
          "indexed": true,
          "name": "_from",
          "type": "address"
        },
        {
          "indexed": false,
          "name": "_value",
          "type": "uint256"
        }
      ],
      "name": "Test_1",
      "type": "event",
      "signature": "0x853387ce6b84cc7e908e71fd40c8c1ae6f5e810e19097cb8791dbc43b00cd635"
    },
    {
      "constant": false,
      "inputs": [],
      "name": "eventFire",
      "outputs": [
        {
          "name": "",
          "type": "address"
        }
      ],
      "payable": true,
      "stateMutability": "payable",
      "type": "function",
      "signature": "0x9168aee3"
    }
  ],
  "bytecode": "0x608060405234801561001057600080fd5b5061010e806100206000396000f3fe608060405260043610603f576000357c0100000000000000000000000000000000000000000000000000000000900463ffffffff1680639168aee3146044575b600080fd5b604a608c565b604051808273ffffffffffffffffffffffffffffffffffffffff1673ffffffffffffffffffffffffffffffffffffffff16815260200191505060405180910390f35b60003373ffffffffffffffffffffffffffffffffffffffff167f853387ce6b84cc7e908e71fd40c8c1ae6f5e810e19097cb8791dbc43b00cd635346040518082815260200191505060405180910390a23390509056fea165627a7a7230582037aec26aabfdadbc2f08b7798f642ddb703ccda945af8613e06ec5ba8359ad8f0029",
  "source": "//This is a quick test\npragma solidity 0.5.0;\ncontract eventTest {\n    event Test_1(\n\t\taddress indexed _from,\n\t\tuint _value\n    );\n\n    function eventFire() public payable returns(address) {\n        emit Test_1(msg.sender, msg.value);\n        return msg.sender;\n    }\n}\n",
  "sourcePath": "/home/taurus/blockchain/gitLab/eventTest/contracts/Test.sol",
  "compiler": {
    "name": "solc",
    "version": "0.5.0+commit.1d4f565a.Emscripten.clang"
  },
  "schemaVersion": "3.0.0-beta.2",
  "updatedAt": "2018-12-03T05:37:50.678Z",
  "devdoc": {
    "methods": {}
  },
  "userdoc": {
    "methods": {}
  }
}